:020000040000FA
:10000000040C040000000000607600006076000030
:100010006076000060760000607600006076000088
:100020006076000060760000607600006076000078
:1000300060760000BE100000607600006076000070
:100040006076000060760000607600006076000058
:100050006076000060760000607600006076000048
:100060006076000060760000607600006076000038
:100070006076000060760000607600006076000028
:100080006076000060760000607600006076000018
:100090006076000060760000607600006076000008
:1000A00060760000607600006076000060760000F8
:1000B00060760000607600006076000060760000E8
:1000C00060760000607600006076000060760000D8
:1000D00060760000607600006076000060760000C8
:1000E00060760000607600006076000060760000B8
:1000F00060760000607600006076000060760000A8
:100100006076000060760000607600006076000097
:100110006076000060760000607600006076000087
:100120006076000060760000607600006076000077
:100130006076000060760000607600006076000067
:100140006076000060760000607600006076000057
:100150006076000060760000607600006076000047
:100160006076000060760000607600006076000037
:100170006076000060760000607600006076000027
:100180006076000060760000607600006076000017
:100190006076000060760000607600006076000007
:1001A00060760000607600006076000060760000F7
:1001B00060760000607600006076000060760000E7
:1001C00060760000607600006076000060760000D7
:1001D00060760000607600006076000060760000C7
:1001E00060760000607600006076000060760000B7
:1001F00060760000607600006076000060760000A7
:10020000FFFFFF00FFFFFF00607600006076000048
:100210006076000060760000607600006076000086
:100220006076000060760000607600006076000076
:1002300060760000BE10000060760000607600006E
:100240006076000060760000607600006076000056
:100250006076000060760000607600006076000046
:100260006076000060760000607600006076000036
:100270006076000060760000607600006076000026
:10180000040C0000000000002FC72100007F220010
:1018100000018800000000000A0007001100070016
:10182000000020000000E000020032000000020082
:101830000000000010100200000000000040DA006C
:101840000000FE004440A90040A521000000E00087
:101850000300320000002000A00188004440A800DE
:1018600000000600003627000100200015003700A8
:1018700062004000E0804800910188009001BA00B9
:1018800062004000E0804800910188009002BA00A8
:1018900062004000E08048000002EB006028E100A8
:1018A00004003A000059EB008301E900FDFF3E000F
:1018B000040037006128E100010032000082EB00E3
:1018C00005000700910188001001BA000200E00045
:1018D000E7FF3A00000005009101880080027800CF
:1018E00062004000E08048003559BA008301E900F9
:1018F000080032002559BA008301E90005003200D2
:101900000400E000F4FF320015D9BA008301E900B9
:10191000F1FF3A00000006004E3104000000000014
:101920005E3104000000000072310400000000007D
:101930007032040000000000DE32040000000000ED
:101940003C31040000000000FC32040000000000F4
:101950000C330400000000005033040000000000BD
:10196000BC33040000000000DA3304000000000073
:1019700018350400000000007A3504000000000063
:10198000EC350400000000000E36040000000000EA
:10199000F0310400000000006E360400000000007A
:1019A0008A36040000000000889FBE008A9FBE00A7
:1019B000010578000100E0000400350008003C004B
:1019C0000000E00020003200050037006000100039
:1019D000E080180002003B0001F02C001A003700E4
:1019E0000004BE006011B8006B0920000982CF001E
:1019F000020039000882CF000441B0006942520061
:101A00000E00320008003B00828171006101640019
:101A10008904D1000884D3008B05E8000442E80063
:101A2000F9FF3A00050037000804440089844C009F
:101A30008B05E9000442E900FBFF3A00250107009D
:101A40000AF0A70001F0A0004F05BE004F04BE0041
:101A50000000060003F0A200889FBE008A9FBE001F
:101A60008C1F780041010700480133006450E100F9
:101A70004F0032006420E1005200320003826C000B
:101A800007003B000905D0000306D000820F540078
:101A90000C065D0002003900020032008901780066
:101AA000030678008582550004003D000003FD0018
:101AB0008103FD008502EA008B854200840F7200DD
:101AC00002003B0060001000E08018006011B800C8
:101AD0000005EB007A28E1000A00390006007800D2
:101AE000C75DDD00F707B200878075002D00370065
:101AF000828171000A017800610560008180D10057
:101B00000080D3008502E900F9FF3B000604400095
:101B10008784480002003B0060041400E0841C003D
:101B20000988A300070032008A8171008281710058
:101B3000610164008904D1000884D3008B05E800AA
:101B4000170037000978A30013003A000B00E000EB
:101B5000130034008B05E9000804440089844C001C
:101B60000A4474000978A3000D003A000B00E0005D
:101B7000070034008B05E9000804440089844C0008
:101B800001003A000B0020000978A300F7FF3200A3
:101B90000001EB0002003700828171000A01780029
:101BA000CC0007000CF0A70001F0A00000013700F6
:101BB0006420E10002003A00838F6C0000013300D2
:101BC0000801BE000200BE00F9003700889FBE0079
:101BD0008A9FBE008C1F7800E4000700EB003300F2
:101BE00003866C006450E1002E0032006420E100A6
:101BF000330032006150E1002F0032006120E1002B
:101C00003100320085855500EB07B0000900200047
:101C100008042000050037000804440089844C00B3
:101C20000A0031000603430087834B000001530084
:101C300081815B00F8FF33000203BE000800A000B2
:101C40000804440089844C00F6FF3900C639DD00E1
:101C50008301730001003200130020008904D100C9
:101C60000884D3000998A300050032000800A700EB
:101C70000300A0008904D1000884D3008B05E8008C
:101C80008904D1000884D3000001EB000281D20056
:101C90009000070001F0A1000CF0A70001F0A000E7
:101CA000C30037006420E100C50032000801BE0017
:101CB0000200BE00F7FF37006120E100C0003200E3
:101CC0006000B800F3FF37000000200001F8270093
:101CD000F0FF3700889FBE008A9FBE008C1F7800EF
:101CE000A2000700A900330003866C006450E100E5
:101CF000240032006420E100270032006150E1003E
:101D0000220032006120E100210032008B85420078
:101D1000EB07B1000134B800003AB80008044200F3
:101D200089844A00013AB8000030B8008880400039
:101D300009014A000400330000004000818048008F
:101D4000020149008B05E900C909DD00830170002B
:101D50000100320013002000C814DE004814DD002A
:101D60004709DE001200B200C808DE0008847000D7
:101D70005800070001F0A1000CF0A70001F0A0003E
:101D80008B0037006120E1008D0032000801BE00A9
:101D90000200BE00F7FF37006150E100FCFF3A008F
:101DA000870037000001BE00880007000470A7000C
:101DB00003F0A10003F8A30013003A006509B10085
:101DC00010003200090035006928E10002003500EA
:101DD000010028000000050000004000818048004C
:101DE0008502E900FCFF3A0000000600F88F42007F
:101DF000050035008100D1000080D3008502E80095
:101E0000FCFF3A00000006008000EB000000050027
:101E10006022B800060220000000D0008180D200BD
:101E20000482D2008582D2000000A000020252008B
:101E300083825A00030031000202420083824A007A
:101E40000000A1000603E900F3FF3A0000000600CD
:101E50000001BE005D0007000470A70003F0A100B0
:101E60006509B100160032000D0035006828E10058
:101E700006003500F0FF2F00F1FF27000300E0000F
:101E800013003B0001002800000005000000400096
:101E9000818048008502E900FCFF3A000800370015
:101EA000F88F420002003C008000EB0000000500BB
:101EB0008100D1000080D3008502E800FCFF3A00D9
:101EC0000300E00002003B0060001000E08018000A
:101ED0000000060081002000618055000B003D00DD
:101EE0000B00200061FE2F000100E1001D00340006
:101EF00082817100610164008904D1000884D300EB
:101F00000000E800FAFF3A00710020006100640060
:101F10000300700002006000090032006104440008
:101F2000E0844C000988A500050032008B05E8001C
:101F30006808E10002003A008904D1000884D30057
:101F4000F20F20000258E10005003D00C75DDD00F2
:101F5000F907B200898075000800780000000600CB
:101F60000BF827008B007800000005000004BE007D
:101F7000160007000003BE000405BE000200BE00FC
:101F800012000700844F7500000006000200BE002A
:101F90006450E100050036006420E10002003600D4
:101FA0000968A30001003A000800BE000160A0001B
:101FB0004F0678004F05BE004F04BE00000006002B
:101FC000F0FF2F00F1FF2700F9FF3700C70ADE00FE
:101FD000F107B200F50FB20008003200E1CF420075
:101FE000020032000170A00024000500810F700083
:101FF000010032000408050044000500810F700054
:1020000002003A00140005008502E90000004000CB
:1020100081C04800FCFF3B000170A00024000500C7
:102020000200FA0032000700000037008280200022
:1020300001FA2000807A2100D21F0700E10F500032
:1020400018003A0040BD8000000F78001E007800A4
:102050000000E000040032001E007800E10F500094
:10206000040032000700370010C1B30054220700FB
:102070000700370008C8BF00071C07000004E00085
:1020800003003A0040BD800081802000A61D0700AB
:102090000000EB0040BD8800EC1B0700E0C3B3006C
:1020A0003D22070006C8BF00644060000004E00055
:1020B000040032000041EB008040EB0080C1B3001F
:1020C0008C1B070070DCBF00E14F5000D7FF3A00C7
:1020D0000040EB0070FCB70020352F000521070001
:1020E000DA1B0700E0C3B3002B220700CFFF370045
:1020F0000000FA004507A9000080EB006019880085
:102100004227A900416A20009140780000CEB30028
:1021100000C060000014A000A4E6B700316C2000ED
:102120009140780000CEB30000C060003040B300A2
:10213000C3E6B70080C0B30000E8B7000000EB00C2
:1021400010408800EE0607002207070010C1B30008
:1021500011220700D0C0B3000F220700A0C0B300B7
:102160000D2207003C1C0700B81B0700E0C3B300AA
:10217000092207000080FA0000000600801F780096
:102180000000FA008460A9009460A9000080EB00C0
:10219000100888000000EB002008880010C0B30081
:1021A00070FCB7000080FA004F0078000040060085
:1021B0000800FA00004F7800110798004247980085
:1021C00080000700E0CFB3001E406000460007001B
:1021D000B50007000004E00011003A008900070084
:1021E0000000EB0030079800160037001E0090003A
:1021F000104078003C000700AB0007000004E0003E
:1022000004003A007F0007000000EB003007980050
:102210000C0037001E0090000000E8001007980036
:102220004E4090000040E900404798004E4090002A
:10223000E14F4000EDFF3A0072000700100020005F
:10224000300798003E0090000080FA000000060071
:102250000800FA00004F78001107980042479800E4
:10226000580007001E4078000004A0001E00070070
:102270008D0007000004E0000F003A006100070035
:102280000000EB0030079800140037003200070010
:10229000804078001E009000014878001E009000E9
:1022A0000000E800100798004E4090000004E00095
:1022B00001003400970007004E4090000040E90004
:1022C000404798004E409000E14F4000EFFF3A0039
:1022D0004C00070010002000300798003E009000DE
:1022E0000080FA00000006000400FA002047980071
:1022F000CB22A900CB02A90040C6B3009000070082
:1023000080C0B300004F78000D0037002E409000D1
:102310000004E00003003500CB22A900C922A90077
:1023200001003700C922A8002E4090000000FB00E9
:1023300000004000204798003A0007001E4FE900C7
:102340001E04E000F1FF3C00C922A800100020009C
:102350000080FA00000006000200FA000040EB00D6
:10236000004F7800CB22A900CB02A90040C6B300E1
:102370007300070080C0B300104798000B003700BF
:102380001E00FB0000004000004F7800C922A8009A
:102390002F0007000004E000010032001E4FE8009B
:1023A0001E4090000040E900104798001E40900039
:1023B0000004E000F2FF3C001E00FB000080FA0079
:1023C000000006000000FA00C922A800C902A80007
:1023D000CB02A900CB22A90020C3B30058000700FC
:1023E000C922A900CB22A90020C3B30054000700D2
:1023F000C902A90040C6B300510007000080FA00DE
:10240000000006000000FA00C922A900C902A800C5
:1024100020C3B3004A000700C922A8000080FA00C8
:10242000000006000000FA0040C1B30044000700AD
:10243000C902A80040C6B30041000700C902A900B4
:1024400040C6B3003E0007000080FA00000006000E
:102450000200FA000040EB00004F780040C1B300DA
:1024600037000700C902A80020C3B30034000700EA
:10247000CBC2BF00624060000004E00002003200F6
:1024800010C0B300004F780020C3B3002C00070039
:10249000C902A90040C6B300290007001E00FB00C6
:1024A0000080FA00000006000200FA00CB22A9001A
:1024B000CB02A900C902A900C922A800C902A8002C
:1024C00020C3B3001E000700CBC2BF006240600003
:1024D0000004E000030032000000EB00000F780071
:1024E0000900370020C3B30015000700C902A90086
:1024F00040C6B3001200070040C6B300100007003A
:1025000010002000000F78001E0078000080FA0004
:10251000000006000000FA00CB22A900C922A90091
:1025200040C1B30006000700BEFF0700C922A80093
:1025300040C1B300020007000080FA00000006005E
:102540000400FA00204798000040EB00004F78009C
:102550001300370000000000000000000000000031
:10256000000000000000000000000000000000006B
:10257000000000000000000000000000000000005B
:10258000000000000000000000000000000000004B
:10259000000000001E4078000040E800004F780076
:1025A0001E4078008080FB002E4090000000FB0061
:1025B000808F5000E7FF35000080FA000000060021
:1025C0000800FA00004F7800114798001E80FB00B9
:1025D0006101B9002207980033079800C00120006C
:1025E000010020002E019000BE019000800F5100DC
:1025F000818F5900B7003E002E009000BE00900071
:1026000000600100430037004D00370066003700CE
:10261000B000370037003700360037003900370088
:10262000950037006B003700730037007B003700E0
:102630008100370084003700870037008A003700A8
:10264000A4003700A3003700A2003700A100370024
:10265000A00037009F0037009E0037009D00370024
:102660009C0037009B0037009A00370002003700BB
:102670001C003700990037000668A80006A8A800CB
:1026800060C1B300CE20070012002000210020000E
:1026900010002000021E07000040E90061406000B9
:1026A00061416000E1C4210091407800E0CFB300B7
:1026B00000C06000024070004EFCB7004EDCBF005E
:1026C0006140600000C0EA0061406000C700DD00BA
:1026D00006C8BF000074A1000140700006E8B70002
:1026E0007E0037007F000700E0232F00811F0700D6
:1026F0007A00370082000700D0242F007D1F0700DA
:10270000760037008A00070090262F00791F070007
:10271000720037000040EB00A9200700CE00070040
:102720004CFCB7004CDCBF00BC050700D0C0B300B8
:1027300099200700A0C0B30097200700670037006A
:1027400010C0B3009E2007001E409000B305070094
:1027500030282F00511F07000000EB0050E28800D6
:1027600007003700BC000700AC050700D0282F0089
:102770004A1F070050E280000000E80050E2880095
:102780001E4090008080FB0050E28000808F50004F
:10279000F4FF3E00D0C0B3007F200700A0C0B3000C
:1027A0007D2007004D00370030C0B30084200700B3
:1027B0001E4090007B0007001E4090009705070018
:1027C000D0C0B30074200700A0C0B300722007007F
:1027D00042003700CD0007004CFCB70050C0B300EA
:1027E000772007004CDCBF00251F070070C0B30036
:1027F000732007003900370060C0B3007020070065
:10280000E70007004CFCB7004CDCBF001C1F0700B2
:1028100070C0B3006A200700300037001E409000EF
:102820007E05070080C0B300652007001E409000B1
:10283000CE0007002900370090C0B30060200700D9
:102840000C01070025003700A0C0B3005C20070082
:102850000101070021003700B0C0B3005820070075
:10286000E20007001D003700C0C0B300542007007D
:10287000D7000700190037001E4090000080FB00C1
:10288000100798009E009000E18F50000900320070
:102890001E019000E20F5100090032009E019000DD
:1028A0000300E00001003200070037004A0607007D
:1028B0000A0037004EDCBF00614060004B06070095
:1028C0005D06070005003700F0C0B3003C2007009C
:1028D0000200370000C1B300392007000080FA0071
:1028E000000006000000FA00CB02A900CB22A900DC
:1028F000C922A800C902A9000080FA000000060051
:102900000000FA00CB02A90040C1B3006105070036
:10291000B6000700D700070040C1B3005D050700FF
:10292000AB000700CC0007000080FA0000000600A2
:102930000000FA0013000700A5000700CD00070003
:10294000AA00070040C1B30052050700C2000700FB
:102950000080FA00000006000000FA00CB02A90087
:10296000C902A90040C1B3004A050700C922A80056
:10297000CB22A90040C1B300460507000080FA0041
:10298000000006000000FA00CB02A900C902A9005D
:1029900040C1B3003F050700C922A9000080FA002A
:1029A000000006000600FA00404798004E409000E4
:1029B00020479800F3FF070006C8BF007040600082
:1029C0000004E00003003A0000C8B300104798007C
:1029D0000200370010C0B300104798000040EB0021
:1029E000004F7800170037002E4090009E40900066
:1029F000014060000004E00002003A00740007009B
:102A0000010037007900070006C8BF007040600071
:102A10000004E00004003A002E4090000040400016
:102A200020479800040037002E4090000080FB00F3
:102A30000000D1002047980010C0B3004B000700F1
:102A40001E4FE80070C0B3009E4F1000E6FF360036
:102A50000080FA00000006000400FA000040EB00CD
:102A6000004F7800BCFF07000040EB0020479800B3
:102A7000200037007F000700CBC2BF000080FB00B2
:102A80000000D100614060001047980006C8BF00F8
:102A9000704060000004E0000B0032001E80FB006C
:102AA0000000D100004F78001E4090000004E000BC
:102AB0000C0032001E40780001C8B3000140400005
:102AC000004F7800070037001E40780000404000AB
:102AD000004F78001E4090000004E000010032002A
:102AE0001E4FE8005C0007002E4090000040E80008
:102AF000204798002E409000E74F5000DDFF360041
:102B00001E80FB000080FA00000006000200FA00B0
:102B100091FF070057000700CBC2BF000080FB00F9
:102B20000000D10061406000004F78004A000700BB
:102B30001E80FB000080FA00000006000200FA0080
:102B4000004F78008FFF07001E04E00002003A00EB
:102B50001F000700010037002400070010C0B30069
:102B6000020007000080FA00000006000400FA00DE
:102B7000204798000040EB00004F7800030037002A
:102B80003C000700340007001E4FE8002E40900074
:102B90009E4F1000FAFF39000080FA000000060086
:102BA0000000FA00C922A800000000000000000098
:102BB00000000000CBC2BF000080FB000000D1007D
:102BC000614060000080FB000080FA000000060009
:102BD0000000FA00CB22A900C922A90040C1B3001D
:102BE000AC0407000080FA00000006000000FA00B4
:102BF0004EDCBF006140600000C0EA006140600040
:102C00006140600000414000912C2000914078001C
:102C1000D0CFB30000C0600002407000C9E2B7002E
:102C20004EDCBF0061406000614060000041400038
:102C3000B12C200091407800D0CFB30000C06000DC
:102C400002407000CBE2B70040C1B300910407001E
:102C50000080FA00000006000000FA00CB02A90084
:102C6000C902A90040C6B3008A0407000080FA0028
:102C7000000006000000FA004EDCBF00614060006A
:102C800000C0EA006140600061416000912C2000BA
:102C900091407800E0CFB30000C0600002407000B7
:102CA000C9E2B7004EDCBF006140600061416000D6
:102CB000B12C200091407800E0CFB30000C060004C
:102CC00002407000CBE2B70040C6B30071040700B9
:102CD0000080FA00000006000800FA00004F7800AB
:102CE00011479800224798001E80FB006101B9003F
:102CF0002207980033079800B0012000010020004F
:102D00002E019000BE019000800F5100818F59006C
:102D1000D3003E002E009000BE0090000060010035
:102D20001B003700260037004000370053003700F3
:102D3000B9003700B8003700C1003700C5003700C0
:102D400067003700720037007C00370082003700D0
:102D500085003700880037008B003700C00037003F
:102D6000BF003700BE003700BD003700BC00370091
:102D7000BB003700BA003700B9003700B800370091
:102D8000B7003700B6003700830037009D003700DA
:102D900000C0EB00C100070052FCB7000040EB0090
:102DA000071F070052DCBF001C040700D0C0B3009F
:102DB000F91E0700A0C0B300F71E0700AA003700E5
:102DC00010C0B300FE1E07001E4090001304070051
:102DD00000292F00B11D07000000EB0080E28800F1
:102DE0000800370000C0EB00AC0007000B04070030
:102DF000A0292F00A91D070080E280000000E80044
:102E000080E288001E4090008080FB0080E280000D
:102E1000808F5000F3FF3E00D0C0B300DE1E0700DD
:102E2000A0C0B300DC1E07008F00370030C0B30025
:102E3000E31E07001E409000F80307001E409000AC
:102E40009600070052FCB70054DCBF0062406000EF
:102E50000004E00004003200C0292F008F1D07008D
:102E600052DCBF00ED030700D0C0B300CA1E07004C
:102E7000A0C0B300C81E07007B00370040C0B300ED
:102E8000CF1E07001E409000E4030700402A2F00D9
:102E9000821D07002E409000E0030700802A2F00CB
:102EA000941D07000000EB0080E288000600370058
:102EB0001E4090007900070052FCB70080E28000BD
:102EC0000000E80080E288002E4090008080FB0037
:102ED00080E28000808F5000F5FF3E0062003700E6
:102EE00010C0B300B300070052FCB70050C0B300DD
:102EF000B31E070052DCBF00611D0700D0C0B30045
:102F0000A51E0700A0C0B300A31E0700560037008F
:102F100060C0B300AA1E0700B700070052FCB7004C
:102F200052DCBF00561D0700D0C0B3009A1E070038
:102F3000A0C0B300981E07004B0037001E40900051
:102F4000B603070080C0B3009D1E07001E4090001E
:102F5000D20007004400370090C0B300981E07005D
:102F6000E200070040003700A0C0B300941E070035
:102F7000D70007003C003700B0C0B300901E070028
:102F8000AB00070038003700C0C0B3008C1E07003C
:102F9000A00007003400370060C1B300881E07009E
:102FA000120020002100200010002000BC1B0700A0
:102FB0000040E900614060006141600041C52100BE
:102FC00091407800E0CFB30000C060000240700084
:102FD00054FCB70054DCBF006140600000C0EA0050
:102FE00061406000C700DD0006C8BF000074A1009A
:102FF0000140700006E8B7000668A80006A8A8000F
:1030000019003700543CA90019000700F02A2F00CE
:10301000381D07001400370051C0B3009ECF1000C8
:1030200002003A00543CA80001003700543CA900BB
:10303000E2000700E02B2F002E1D07000A003700DA
:10304000543CA900C2000700902C2F00291D070046
:1030500005003700F0C0B300591E0700020037001A
:1030600000C1B300561E07000080FA0000000600F1
:103070000000FA00C8E2A800C902A800C922A800FE
:10308000CAE2A900CB02A900CB22A900CAC2A800AB
:10309000C8C2A9000080FA00000006000600FA007D
:1030A000404798008A00070006C8BF0070406000D3
:1030B0000004E0000300320010C0B300004F7800AD
:1030C0000200370000C8B300004F78000040EB005A
:1030D00030479800300037004E4090001E4060009E
:1030E0000004E00002003A004A0007000100370037
:1030F0004F0007007D000700CAC2BF000080FB0030
:103100004700DE002047980006C8BF0070406000FE
:103110000004E000100032004E4090000080FB00F0
:103120000000D100404798001E4090000080FB0046
:103130000000D100104798002E409000E14F500051
:1031400011003A001E40900001C8B3000140400049
:10315000104798000C0037004E409000004040009F
:10316000404798001E4090000040400010479800E3
:103170002E409000E14F500003003A001E409000A6
:103180000040E80010479800510007003E409000C2
:103190000040E800304798003E409000E74F500064
:1031A000CDFF36001E4090000080FB000080FA003A
:1031B000000006000400FA00204798002E4090000E
:1031C0000004E00002003A0012000700010037008E
:1031D0001700070045000700CAC2BF000080FB00BF
:1031E0004700DE00004F7800390007001E80FB001A
:1031F0000080FA00000006000000FA00CAC2BF000A
:103200000080FB004700DE000080FB000080FA0029
:10321000000006000000FA00CB22A900C922A90084
:1032200040C1B3001B0307000080FA000000060045
:103230000000FA0054DCBF006140600000C0EA00FA
:10324000614060006140600000414000912C20001E
:1032500091407800D0CFB30000C060000240700001
:10326000C9E2B70054DCBF0061406000614060000B
:1032700000414000B12C200091407800D0CFB30035
:1032800000C0600002407000CBE2B70040C1B30054
:10329000000307000080FA00000006000400FA00A6
:1032A000204798000040EB00004F780003003700F3
:1032B0000E000700060007001E4FE8002E40900099
:1032C0009E4F1000FAFF39000080FA00000006004F
:1032D0000000FA00CB02A900C902A90040C6B30051
:1032E000EC0207000080FA00000006000000FA006F
:1032F00054DCBF006140600000C0EA006140600033
:1033000061416000912C200091407800E0CFB30033
:1033100000C0600002407000C9E2B70054DCBF008A
:103320006140600061416000B12C20009140780054
:10333000E0CFB30000C0600002407000CBE2B700F5
:1033400040C6B300D30207000080FA000000060068
:103350000000FA0054DCBF006140600000C0EA00D9
:1033600061406000614060004601DD00812C20006A
:1033700091407800F0CBB30000C0600002407000C4
:10338000C8E2B70054DCBF006140600061406000EB
:103390004601DD00A12C200091407800F0CBB30065
:1033A00000C0600002407000CAE2B70040C1B30034
:1033B000B80207000080FA00000006000000FA00D2
:1033C000CAC2A900C8C2A90040C1B300B102070027
:1033D0000080FA00000006000800FA00004F7800A4
:1033E000114798001E80FB006101B9002207980078
:1033F00033079800C0012000010020002E0190003A
:10340000BE019000800F5100818F5900E0003E0006
:103410002E009000BE009000006001002A003700DE
:10342000350037004F003700D9003700180037004B
:103430001700370020003700BA003700D4003700EB
:10344000D3003700D2003700D1003700D00037005A
:10345000CF003700CE003700CD003700CC0037005A
:10346000CB003700CA003700C9003700C80037005A
:10347000C7003700C6003700C5003700C40037005A
:10348000C30037004B0037009F003700A300370010
:1034900051C0B3009ECF100002003A005B7CA80030
:1034A000010037005B7CA900F7010700E0D52E0082
:1034B000101C0700B8003700EF01070090D62E005F
:1034C0000C1C0700B40037000040EB003C1D070057
:1034D00000C0EB00F001070058FCB70058DCBF004B
:1034E0004E020700D0C0B3002B1D0700A0C0B300E0
:1034F000291D0700A800370010C0B300301D0700C9
:103500001E4090004502070050D72E00E31B070025
:103510000000EB00B0E288000800370000C0EB00BC
:10352000DD0107003D02070000C2B3001A1D0700BD
:10353000B0E280000000E800B0E288001E40900089
:103540008080FB00B0E28000808F5000F3FF3E00DF
:10355000D0C0B300101D0700A0C0B3000E1D0700AF
:103560008D00370030C0B300151D07001E409000CD
:103570002A0207001E409000C701070058FCB70050
:103580005BDCBF00684060000004E0000400320023
:10359000F0D72E00C11B070058DCBF001F02070038
:1035A000D0C0B300FC1C0700A0C0B300FA1C070089
:1035B0007900370090C2B300011D070012002000FF
:1035C0004100200010002000351A07000040E900EB
:1035D0005AFCB700A0C2B300F91C0700120020007B
:1035E00021002000100020002D1A07000040E900F3
:1035F0006140600061416000B1C5210091407800E8
:10360000E0CFB30000C06000024070005BFCB70078
:10361000B0C2B300EA1C07002200200021002000F5
:10362000100020001E1A07000040E9006140600001
:103630006140600000414000B1C521009140780028
:10364000D0CFB30000C06000024070005BFCB70048
:10365000C0C2B300DA1C07001200200021002000C5
:10366000100020000E1A07000040E90061406000D1
:10367000614060004201DD00B1C521009140780049
:10368000B0CFB30000C06000024070005BFCB70028
:1036900060C1B300CA1C07001200200021002000F6
:1036A00010002000FE1907000040E90061406000A2
:1036B000614060004401DD00B1C521009140780007
:1036C000F0CEB30000C06000024070005BFCB700A9
:1036D0005BDCBF000080FB004400DE006140600056
:1036E00000C0EA0061406000C700DD0006C8BF00FE
:1036F0000074A1000140700006E8B7000668A90048
:1037000006A8A800240037005B7CA900F60007008B
:1037100070D82E00771B07001F00370042010700FA
:103720001D0037001E4090000080FB00100798002D
:103730001E0190000200E000040032009E01900093
:10374000E18F5100040032000E00370010D92E0026
:10375000521B07001000370050DB2E004F1B0700E4
:10376000120020003100200010002000CC190700BA
:103770000040E90058FCB70058DCBF000800070013
:1037800005003700F0C0B3008D1C070002003700B1
:1037900000C1B3008A1C07000080FA000000060088
:1037A0000400FA0020479800D0DE2E00511B0700CD
:1037B0001D0107004C0007002E409000E14F500013
:1037C00009003E00CAC2BF000080FB004600DE00C8
:1037D000614060008080FB002E4090000080FB0074
:1037E000808F500008003A0041C2BF0001C8B300FA
:1037F000014060000004E0000E003A0041E2A80031
:1038000061E2A8000B00370041C2BF0001C8B3004D
:10381000014060000004E0000600320041E2A9001F
:1038200061E2A900D0C0B3005B1C0700A0C0B300D8
:10383000591C070040C2BF000042B2000004E00073
:1038400004003A0040128000004F78001E407800CB
:103850007201070060C2BF000042B2000004E00035
:1038600008003A0040138000004F780040E12E002D
:103870000A1B07001E4078006801070060E12E0067
:10388000061B070040C2BF000044B2000004E00075
:1038900004003A0060C2BF000044B2000004E0002F
:1038A0000500320090E12E00121B070040C2A90063
:1038B00060C2A9000800370022C2BF00614060005A
:1038C0000004E000BCFF320030118000004F78009F
:1038D00070E62E00F11A0700700007008200070052
:1038E0000080FA00000006000000FA00C8C2A8002C
:1038F000C902A800C8E2A800C922A800816A200065
:103900009140780000CEB30000C060009040B3004A
:10391000A8E6B700916A20009140780000CEB3007D
:1039200000C060000034A000A9E6B700C16A200012
:103930009140780000CEB30000C060007040B3003A
:10394000ACE6B700D16A20009140780000CEB30009
:1039500000C060000034A000ADE6B7005ADCBF0034
:103960008080FB00C0C5210000804000104078002E
:103970000080FB00101288005BDCBF00614060002B
:10398000614060004601DD00212420009140780064
:10399000F0CBB30000C060000240700042E2B7000C
:1039A0005BDCBF000080FB000000D10061406000D4
:1039B000614160003124200091407800E0CFB300E5
:1039C00000C060000240700043E2B7000000EB005E
:1039D000201288000000EB00001288005ADCBF00B3
:1039E0008080FB00C0C521000080400010407800AE
:1039F0000080FB00101388005BDCBF0061406000AA
:103A0000614060004601DD002126200091407800E1
:103A1000F0CBB30000C060000240700062E2B7006B
:103A20005BDCBF000080FB000000D1006140600053
:103A3000614160003126200091407800E0CFB30062
:103A400000C060000240700063E2B7000000EB00BD
:103A5000201388000000EB00001388000000EB003A
:103A6000401288000000EB00401388004322A900A8
:103A70006322A9004362A80042A2A9006362A800D1
:103A800062A2A90040C2A90060C2A9004402A80025
:103A90006402A8000080FA00000006000000FA009E
:103AA00041E2A9004362A90061E2A9006362A900A2
:103AB000A8C6BF00F041B300A8E6B700A9C6BF0082
:103AC000F041B300A9E6B700ACC6BF00F041B300B7
:103AD000ACE6B700ADC6BF00F041B300ADE6B7003D
:103AE0000080FA00000006000000FA0041E2A90090
:103AF0005BDCBF00704060000004E00003003A009F
:103B0000CEE2A800CF02A800CEC2A800816A2000A1
:103B10009140780000CEB30000C060007040B30058
:103B2000A8E6B700916C20009140780000CEB30069
:103B300000C060007040B300C9E6B700816C20008F
:103B40009140780000CEB30000C060000034A000B7
:103B5000C8E6B700CAC2A800C8C2A900C902A90025
:103B6000C8E2A800C922A9005ADCBF008080FB007F
:103B7000C0C5210000804000104078000080FB009C
:103B80001012880042A2A8005BDCBF006140600008
:103B9000614060004601DD00212420009140780052
:103BA000F0CBB30000C060000240700042E2B700FA
:103BB0005BDCBF000080FB000000D10061406000C2
:103BC000614160003124200091407800E0CFB300D3
:103BD00000C060000240700043E2B7005BDCBF0041
:103BE0000080FB004200DE00614060006140600038
:103BF000004140003124200091407800D0CFB30034
:103C000000C060000240700043E2B7000000EB001B
:103C1000201288000000EB000012880041E2A8009A
:103C20000080FA00000006000000FA0041E2A9004E
:103C3000A8C6BF00F041B300A8E6B700916C200011
:103C40009140780000CEB30000C06000C9E6B70024
:103C5000816C20009140780000CEB30000C060006D
:103C6000C8E6B700CEE2A900CF02A900CEC2A900E3
:103C70000080FA00000006000000FA00CAC2A80096
:103C80000080FA00000006000000FA00CAC2A90085
:103C90000080FA00000006000200FA00004F7800E1
:103CA0001E80FB004012880085C0BF006440600099
:103CB0000004E000FCFF320040128000004F78005A
:103CC0008540A9001E80FB000080FA00000006006D
:103CD0000000FA0006E8A9000608A9000648A900A5
:103CE0000628A9000668A9000688A90006A8A90058
:103CF00006C8A9000708A9000080FA000000060015
:103D00000000FA00C922A800C902A800C8E2A80061
:103D1000C8C2A800C942A800CA82A900C882A900D6
:103D20000000EB0020408800E9FF0700CAA2A900BC
:103D3000C8A2A900C082A900C282A9002D23A9009F
:103D40002D43A9002D63A9002D83A9000132200075
:103D50009140780000CEB30000C0700020E3B700AF
:103D60000000EB008019880020F021002019880055
:103D70000000EB00101988000080FA000000060027
:103D80000200FA00004F78001E80FB0040198800F6
:103D90002023A8002003A90020C3BF0061406000C9
:103DA0000004E000FCFF3200001880000080FA00F0
:103DB000000006000000FA0021E3A800C0C0B30024
:103DC000EFFF0700B91A070021E3A9000080FA00FD
:103DD000000006000000FA0000C8BF000080FB00E1
:103DE0008000400040BF21000080400010007800AB
:103DF000401188000000EB00001188002062A8003C
:103E00000000EB001011880021E2A8002342A80066
:103E10008560A9000080FA00000006000400FA0096
:103E2000004F780010408000100798001E0090009E
:103E3000E10F50000D0032001E009000E10F500015
:103E4000070039001E009000E20F50000A00320007
:103E50001E009000E30F50000A0032000B003700F4
:103E60001E80FB007E1A0700080037001E40780005
:103E70004A1A0700050037001E407800B7190700EE
:103E8000020037001E407800C31A07000080FA00C5
:103E9000000006000400FA00204798000040EB00F4
:103EA000004F780013003700000000000000000001
:103EB0000000000000000000000000000000000002
:103EC00000000000000000000000000000000000F2
:103ED00000000000000000000000000000000000E2
:103EE00000000000000000001E4078000040E800D4
:103EF000004F78001E4078008080FB002E4090002C
:103F00000000FB00808F5000E7FF35000080FA00C2
:103F1000000006000800FA00004F780011479800E2
:103F20001E80FB006101B90022079800330798004A
:103F3000C0012000010020002E019000BE01900071
:103F4000800F5100818F590098003E002E00900094
:103F5000BE009000006001001C0037002700370001
:103F60004300370091003700500037004F00370002
:103F700052003700610037008C0037008B0037009B
:103F80008A00370089003700880037008700370033
:103F90008600370085003700840037008300370033
:103FA0008200370081003700800037007F00370033
:103FB0007E0037007D0037007C0037007B00370033
:103FC00042003700450037007A0037000040EB0020
:103FD0007B1A0700E0F8070063FCB7004DF9070003
:103FE00063DCBF008DFF0700D0C0B3006A1A070072
:103FF000A0C0B300681A07006E00370010C0B300FD
:104000006F1A07001E40900084FF070020C0B30015
:104010006B1A07000000EB0000E388000A0037007D
:10402000CDF8070062FCB7003AF9070062DCBF0078
:104030007AFF070000C52E001819070000E3800072
:104040000000E80000E388001E4090008080FB0034
:1040500000E38000808F5000F1FF3E00D0C0B3002D
:104060004D1A0700A0C0B3004B1A070051003700DB
:1040700030C0B300521A07001E40900067FF0700CF
:104080001E40900098F8070007F907000004E000C0
:1040900003003A0020C52E0016190700450037001E
:1040A000F0C52E001319070042003700C5F80700BD
:1040B000D0C62E00F91807003E003700D1F80700DF
:1040C00030C82E00F51807003A0037000668A9002E
:1040D00006A8A80006E8A800360037003700070049
:1040E00080C92E000319070070CC2E0001190700AB
:1040F00010CF2E00FF1807002E0037001E40900042
:104100000080FB00100798009E0090000100E00076
:10411000040032001E019000E10F51000400320043
:104120001F003700B0CF2E00DC1807002100370039
:1041300030D22E00EF1807000000EB0000E38800EB
:104140000E0037009FF8070000E3800066F80700C4
:10415000D5F807000004E0000400320000E380000E
:104160002EFF070000C52E00CC180700A5F8070099
:1041700000E380000000E80000E3880001E3800025
:10418000F00F2000808F5000EEFF3600D0C0B3004B
:10419000011A0700A0C0B300FF190700050037008F
:1041A000F0C0B300061A07000200370000C1B300D8
:1041B000031A07000080FA00000006000000FA0061
:1041C000C922A800C902A800CB02A900CB22A900DD
:1041D0000080FA00000006000000FA00A0F62E00A1
:1041E000AE1807000080FA00000006000200FA0086
:1041F000004F780050FA2E00BE1807000F1307007A
:1042000000C0EB0023FF07001E04E00002003A009C
:10421000F012070001003700FA12070040FB2E00E1
:10422000B418070010C0B30050FA070003130700CA
:104230000080FA00000006000A00FA0006FA0700F3
:1042400080407800630047000148780002FA0700C8
:10425000804078006300470011409800FEF9070095
:10426000804078006300470021409800FAF9070079
:1042700080407800630047003140980050FC2E00D9
:104280008618070063004700104078000080FB009C
:104290007319070080FD2E00801807006300470097
:1042A000104090000080FB006D19070080FD2E007B
:1042B0007A18070063004700204090000080FB0050
:1042C0006719070080FD2E0074180700630047007F
:1042D000304090000080FB0061190700D0C0B3009F
:1042E000AD190700A0C0B300AB1907006300470079
:1042F000104078000080FB004400DE00204798005A
:10430000A0FD2E00651807002E4090000080FB00E5
:10431000400798004E009000E90F50001100320055
:104320004E009000E90F500004003C004E00900049
:10433000E80F500008003200130037004E009000D4
:10434000EA0F50000A0032004E009000EF0F5000BC
:104350000A0032000C00370050FE2E004F180700F4
:104360000B003700C0FE2E004C1807000800370075
:1043700030FF2E004918070005003700A0FF2E006F
:104380004618070002003700E0FF2E004318070020
:10439000D0C0B30080190700A0C0B3007E19070089
:1043A00060002F003D180700630047001040900098
:1043B0000080FB004700DE00204798002E40900060
:1043C0000004E00003003A0020012F00331807002A
:1043D0000200370090012F0030180700D0C0B30052
:1043E0006D190700A0C0B3006B19070090022F00E1
:1043F0002A18070063004700104090008080FB00EF
:1044000080F72F00008060004380DE002047980086
:104410002E4090000004E00003003A0060032F00EB
:104420001E1807001B0037002E409000EF4F500071
:1044300003003A00A0FF2E001818070015003700EF
:1044400000042000000F7800E30047000040EB006C
:1044500080487800080037001E0078000000400007
:10446000000F780063004700104078008040E800AB
:1044700063004700014878006300470090407800DF
:104480002E40900080CF5000F3FF39001E007800CE
:1044900093180700D0C0B3003F190700A0C0B300B5
:1044A0003D19070040042F00FC1707006300470078
:1044B0009040900070C0B30000C06000204798009A
:1044C00010002000000F7800E30047000040EB00E0
:1044D00080487800080037001E0078000000400087
:1044E000000F780063004700104078008040E8002B
:1044F000630047000148780063004700904078005F
:104500002E40900080CF5000F3FF39001E0078004D
:10451000A218070070052F00F61707000080FA00A8
:10452000000006000A00FA00004F780011479800CA
:104530001E80FB006101B900320798004307980014
:10454000C0012000010020003E019000CE0190003B
:10455000800F5100818F59008D013E003E00900078
:10456000CE009000006001004B003700550037007E
:104570006E00370086013700370037003C003700F7
:1045800041003700A2003700740037007E0037007A
:10459000880037008E003700910037009400370004
:1045A000970037007A01370079013700780137002A
:1045B0007701370076013700750137007401370045
:1045C0007301370072013700710137007001370045
:1045D000020037001C0037006F01370060C1B300D4
:1045E000F718070012002000210020001000200012
:1045F0002B1607000040E900614060006141600047
:10460000C1C2210091407800E0CFB30000C060003B
:10461000024070002CFCB7002CDCBF006140600041
:1046200000C0EA0061406000C700DD0006C8BF00AE
:104630000074A1000140700006E8B7000668A800F9
:1046400006A8A80054013700E4010700006D2E0001
:10465000A8170700500137005101070020C0B30020
:10466000A1010700B06D2E00A21707004A01370014
:104670004B01070030C0B3009B010700206F2E00E4
:104680009C1707004401370045010700E0702E0029
:104690009817070040013700410207002AFCB700C5
:1046A0000040EB00C61807002ADCBF00DBFD070056
:1046B000D0C0B300B8180700A0C0B300B6180700F8
:1046C0003501370010C0B300BD1807001E40900030
:1046D000D2FD070080712E00701707000000EB006C
:1046E00040E18800070037002D020700CBFD0700DE
:1046F00020722E006917070040E180000000E800EA
:1047000040E188001E4090008080FB0040E1800076
:10471000808F5000F4FF3E00D0C0B3009E18070009
:10472000A0C0B3009C1807001B0137001E4090007A
:10473000B50107002AFCB70030C0B300A01807007D
:104740001E409000B5FD0700D0C0B30092180700CE
:10475000A0C0B300901807000F01370054020700F3
:104760002AFCB70050C0B300951807002ADCBF0030
:1047700043170700D0C0B30087180700A0C0B300DC
:10478000851807000401370060C0B3008C180700CB
:10479000510207002AFCB7002ADCBF0038170700C7
:1047A000D0C0B3007C180700A0C0B3007A1807007F
:1047B000F90037001E40900098FD070080C0B3004C
:1047C0007F1807001E4090006C020700F2003700BF
:1047D00090C0B3007A18070075020700EE0037009A
:1047E000A0C0B300761807008A020700EA0037006D
:1047F000B0C0B300721807003E020700E6003700A1
:10480000C0C0B3006E18070055020700E200370071
:104810001E4090000080FB0020079800AE00900032
:10482000E18F5000110032002E019000E10F510085
:1048300004003C00AE0190000300E00008003200DC
:10484000D00037002E009000E20F50000C00320024
:10485000AE009000E38F500056003200C9003700D0
:1048600040722E000D170700CB003700150107001E
:1048700040762E001F170700C9000700C60037004A
:1048800020772E001B1707000E01070040762E0030
:104890001817070017020700C100070020C0B30067
:1048A0001101070000C0EB003402070000C0EB005C
:1048B00032020700BA00070030C0B3000A01070047
:1048C0000000EB0040E188000700370040E1800075
:1048D0000000E80040E1880041E18000900F2000E6
:1048E000808F500003003600F10107000004E00053
:1048F000F6FF3200AA000700F200070040762E0003
:10490000FC160700A600070030C0B300F600070041
:1049100020782E00F716070040E180003FFD0700D9
:1049200050792E00DD1607000040EB002AFCB7008E
:1049300019003700207A2E00D816070040E18000C9
:1049400036FD0700407A2E00D416070094010700B8
:1049500032FD070020722E00D016070090010700DC
:104960002EFD070020722E00CC1607008C010700D8
:104970002AFD070020722E00C816070088010700D4
:1049800026FD0700807A2E00C41607002ADCBF002F
:104990000040E8002AFCB7002ADCBF008080FB0052
:1049A00040E18000808F5000E2FF39007C0007006A
:1049B0007900370010C1B300F7170700B07A2E0056
:1049C000CC160700C07B2E00CA160700B07D2E0053
:1049D000C81607000000370085C0BF0068406000AF
:1049E0000004E000FCFF32003011800040E188004C
:1049F0008560A90041E18000A0072000808F500061
:104A000001003200F4FF3700F07E2E00B9160700D7
:104A100030C1B300E0170700D1010700FD01070016
:104A20001E0207002E09070040E1880042E18000D5
:104A3000120798009E019000E38F51001D00320084
:104A40001E009000E30F500007003E009E00900003
:104A5000E18F5000110032001E019000E10F510063
:104A600011003E000A0037009E019000E58F5100C2
:104A7000160032001E009000E50F500010003900B3
:104A80009E009000E68F50001300320015003700A2
:104A900010802E00971607001800370090802E0017
:104AA0009416070015003700C0812E0091160700EC
:104AB0001200370040832E008E1607000F003700CB
:104AC000B0842E008B1607000C00370060862E0085
:104AD0008816070009003700F0872E0085160700AA
:104AE0000600370080892E006C16070040E1800028
:104AF000CAFC0700807A2E0068160700508A2E0034
:104B00006616070008090700C4FC0700C08B2E00CA
:104B100078160700A08D2E007616070010C1B3008E
:104B20009D1707000000EB0040E1880000003700FF
:104B300022C2BF00614060000004E000FCFF3200C0
:104B4000301180002AFCB700A1C2210091407800FA
:104B5000A0C7B30080CF500004003A0040E18000BD
:104B60000000E80040E18800020037000000EB0090
:104B700040E1880040E18000E50F5000060032006F
:104B8000EBFF3700F0C0B3008D17070002003700BD
:104B900000C1B3008A1707000080FA000000060079
:104BA0000200FA00608F2E003C16070024DCBF00D4
:104BB0000080FB00000F78001E007800E10F50001D
:104BC0000E0032001E007800E10F500004003C008F
:104BD0001E0078000000E0000B00320035003700B6
:104BE0001E007800E20F50000F0032001E00780017
:104BF000E30F5000240032002E003700F08F2E000B
:104C00003C1607002D003700A401070010C0B300B8
:104C10005A01070010C0B30024FCB700C0902E005A
:104C2000341607002500370025DCBF00E14F500097
:104C30000A003A0026DCBF00E14F500002003A00B3
:104C40002C01070001003700450107000040EB0080
:104C500025FCB70080912E00101607007401070094
:104C600020C0B300450107008C01070010C0B3004D
:104C70004201070010C0B30024FCB700D0922E0000
:104C80001C1607000D0037006901070020C0B300A3
:104C90003A0107008101070010C0B3003701070087
:104CA00010C0B30024FCB70060932E00111607005B
:104CB00002003700F0932E000E1607000080FA0065
:104CC000000006000000FA0059010700A0C0B30070
:104CD0002A010700710107000040EB0024FCB70027
:104CE0000080FA00000006000400FA00004F78007F
:104CF00024DCBF00E14F500002003200D0942E00AF
:104D0000FC150700608F2E00E41507001E80FB00D5
:104D1000100798001E009000E10F50000E003200B6
:104D20001E009000E10F500004003C001E009000A7
:104D30000000E0000B003200240037001E0090004D
:104D4000E20F5000160032001E009000E30F5000EA
:104D5000080032001D003700F08F2E00E515070017
:104D60001C003700D7FF070090962E00E1150700C2
:104D7000180037002E01070010C0B300FF00070025
:104D80004601070020C0B300FC00070030C0B3009C
:104D900024FCB700F0962E00D61507000D00370052
:104DA0002301070020C0B300F40007003B01070007
:104DB00020C0B300F100070020C0B30024FCB700FE
:104DC00030982E00CB15070002003700809B2E0084
:104DD000C81507000080FA00000006000000FA0075
:104DE000C8E2A800C902A900C922A900C8C2A90036
:104DF000CAE2A900CB02A900CB22A900CAC2A9001D
:104E00000080FA00000006000800FA004047980001
:104E10000001070025DCBF00E14F500006003A000A
:104E200026DCBF00910007000040EB0025FCB70026
:104E3000D09D2E009915070006C8BF007040600085
:104E40000004E0000300320010C0B300004F7800FF
:104E50000200370000C8B300004F78000040EB00AC
:104E600030479800450037004E4090001E406000DB
:104E70000004E00002003A00B9000700010037001A
:104E80009C000700CA000700CAC2BF000080FB00E8
:104E90004700DE002047980006C8BF007040600051
:104EA0000004E000100032004E4090000080FB0043
:104EB0000000D100404798001E4090000080FB0099
:104EC0000000D100104798002E409000E14F5000A4
:104ED00011003A001E40900001C8B300014040009C
:104EE000104798000C0037004E40900000404000F2
:104EF000404798001E409000004040001047980036
:104F00002E409000E14F500003003A001E409000F8
:104F10000040E80010479800BE00070024DCBF00F6
:104F2000E24F500012003A003E409000E64F500021
:104F30000F003A0010C0B30025FCB7004E409000AF
:104F40001E4060000004E00003003A000040EB0057
:104F500026FCB7000200370010C0B30026FCB700E3
:104F60001E4090000080FB003007980009003700C9
:104F70003E4090000040E800304798003E409000DE
:104F8000E74F5000B8FF36001E4090000080FB0045
:104F9000300798003E0090000080FA0000000600F4
:104FA0000400FA009B00070025DCBF00E14F500021
:104FB00006003A0026DCBF002C0007000040EB0092
:104FC00025FCB700D09D2E00341507000040EB00F3
:104FD000204798001F00370075000700CAC2BF00B5
:104FE0000080FB004700DE001047980006C8BF00A5
:104FF000704060000004E00008003A001E407800A5
:1050000000404000004F78001E4090000004E00087
:105010000C0032001E4FE8000A0037001E80FB0023
:105020000000D100004F78001E4090000004E00016
:10503000040032001E40780001C8B3000140400067
:10504000004F7800730007002E4090000040E800F9
:10505000204798002E409000E74F5000DEFF3600BA
:105060001E80FB000080FA00000006000400FA0029
:10507000204798002E4090000004E00002003A0013
:1050800037000700010037001A000700480007003A
:10509000CAC2BF000080FB004700DE00004F78005E
:1050A0005C0007001E80FB000080FA000000060084
:1050B0000200FA003E000700CAC2BF000080FB00E9
:1050C0004700DE00004F7800520007001E80FB0002
:1050D0000080FA00000006000000FA00CAC2BF000B
:1050E0000080FB004700DE000080FB000080FA002B
:1050F000000006000000FA002CDCBF0061406000E8
:1051000000C0EA0061406000614060000041400072
:10511000912C200091407800D0CFB30000C06000F7
:1051200002407000C9E2B7002CDCBF0061406000A3
:105130006140600000414000B12C200091407800A7
:10514000D0CFB30000C0600002407000CBE2B700D7
:1051500040C1B3004FFB07000080FA0000000600CA
:105160000000FA00CB22A900C922A90040C1B30067
:1051700048FB07000080FA00000006000400FA0067
:10518000204798000040EB00004F780003003700F4
:10519000070007001F0007001E4FE8002E40900088
:1051A0009E4F1000FAFF39000080FA000000060050
:1051B0000000FA002CDCBF006140600000C0EA0083
:1051C0006140600061416000912C200091407800B6
:1051D000E0CFB30000C0600002407000C9E2B70039
:1051E0002CDCBF006140600061416000B12C2000F8
:1051F00091407800E0CFB30000C060000240700032
:10520000CBE2B70040C6B30022FB07000080FA00E3
:10521000000006000000FA00CB02A900C902A900A4
:1052200040C6B3001BFB07000080FA000000060028
:105230000000FA002CDCBF006140600000C0EA0002
:1052400061406000614060004601DD00812C20006B
:1052500091407800F0CBB30000C0600002407000C5
:10526000C8E2B7002CDCBF00614060006140600014
:105270004601DD00A12C200091407800F0CBB30066
:1052800000C0600002407000CAE2B70040C1B30035
:1052900000FB07000080FA00000006000000FA0092
:1052A000CAC2A900C8C2A90040C1B300F9FA0700E8
:1052B0000080FA00000006000800FA00300798009D
:1052C0006000B80010079800210798000000EB006C
:1052D000000F7800160037001E009000AE0090000E
:1052E000C808DD000080FD00804078000040EB0031
:1052F00010079800210798001E007800BE0090005B
:105300000080E80001004000104078000081FB00B0
:10531000030020001E009000AE009000020070000C
:105320008380700010079800210798001E0FE80086
:105330003E009000100078009E0F5000E6FF3C00F9
:105340001E009000AE0090000080FA0000000600F1
:105350000600FA00000F7800120798002307980053
:105360009E00780010002000800878001E00900049
:10537000804078001E007800214098000080FA00EC
:10538000000006000E00FA00400798005107980040
:105390006207980010002000300798004E0090002F
:1053A0009000780021079800200037002E00900020
:1053B000CE0090000080E80001004000904078009E
:1053C000214798002E009000DE0090000080E80049
:1053D0000100400090407800114798006E00900056
:1053E0000000E0000B0032002E009000EE00900064
:1053F0000080E80001004000104F78002E4090002F
:105400001E406000204798001E4090001E40600033
:1054100010479800AE4090001E40900080CF500092
:10542000020032000000EB00300798003E009000C0
:105430000000E000060032002E0090000000E900AD
:10544000200798002E009000E10F4000D7FF3A009F
:105450003E0090000080FA00000006000600FA00FE
:10546000000F780011079800220798001E00900096
:105470009E0078000080E8000100400010407800A5
:105480008080FB002E009000670010000088DE0086
:10549000610060000080FA00000006000A00FA00C7
:1054A00010079800210798003207980043079800DA
:1054B0003E009000E7001000100020000100DD0019
:1054C000004F78002E0090009E0090000080E800C1
:1054D0000100400010407800804078001E407800B5
:1054E00000C0EA0000C06000104798004E00900025
:1054F0000000E000030032001E4090001E407000DB
:1055000010479800AE0090001E009000010040007F
:105510000080E8009E409000014878000080FA007A
:10552000000006001000FA0050079800610798007C
:10553000720798006E009000900078005E00900066
:10554000010878000040EB00004F98006E009000CA
:10555000100F7800240037001E007800EE00900045
:105560000080E80001004000104078000080FB004F
:10557000200798001E007800FE0090000080E800E0
:1055800001004000104078000080FB0010079800E8
:10559000AE0090001E009000808040000E489000F9
:1055A0000080FB0000804000300798000040EB00C6
:1055B000004F9800BE009000F00F2000808F500038
:1055C0000200360010C0B300004F98009E00780023
:1055D0003E009000004178005E0090000100400015
:1055E0000080E800024878001E0FE9000080EB0010
:1055F0009E0F1000D8FF3A000080FA00000006005D
:105600000600FA0010079800210798001E0090007D
:10561000AE009000010878001E009000008FE800A6
:10562000060037001E007800800607002E0090005C
:105630000000E900200798001E0FE8002E009000EF
:105640000000E000F7FF3A000080FA0000000600CA
:105650000200FA00000F78009E0078000040EB0086
:10566000804878009E0078000040EB009040980051
:105670001E0178006000B800100198002101980018
:105680009E0078000000EB00B00098009E007800BB
:105690000040EB00B04898009E0078000040EB000E
:1056A000804898009E00780010C0B3009048980091
:1056B0009E00780010C0B300A04898001E0178003A
:1056C0006000B80000099800110998009E00780059
:1056D0000000EB00A00898001E0178006000B800F0
:1056E00060019800710198000000EB000080FA0052
:1056F000000006000200FA00000F78000080FA00A7
:10570000000006000800FA00008FBE0072002000B2
:10571000030020003E004100AE80490020079800B1
:10572000310798002E009000BE009000E00F50005E
:10573000E08F580006003D002E019000BE01900051
:1057400067014100E0814900220798003307980073
:105750002E019000BE0190004D1ADD004310DE00C6
:1057600000007200C398DE000080FA00000006000E
:105770000200FA00000F78009E0078001000200060
:10578000FB0507008000EB000000EB00F8050700B8
:10579000110020000000EB00F50507000080FA0072
:1057A000000006000C00FA002007980061479800EE
:1057B0000000EB00000F78006E4090000004E00055
:1057C00015003A0010002000E9FF07000000EB0080
:1057D00010079800090037008000EB000000EB0084
:1057E000E3050700110020000000EB00E0050700C2
:1057F0001E0090000000E800100798001E009000B6
:10580000E40F5000F4FF3400AE0090000040EB00C5
:1058100080487800080137002E0090009040780002
:105820006E40900080CF5000110032006E4090001A
:10583000E74F500004003A002E009000104078001E
:10584000E64F500007003A006E409000EE4F5000C7
:1058500007003A002E00900010407800ED4F5000F5
:105860000300320050002000000F7800F2003700E3
:105870002E009000904078006E40900080CF500045
:10588000E8003A006E409000E64F500006003A00F3
:1058900010002000B6FF0700AE00900070C0B300FB
:1058A00080487800DF0037006E409000ED4F5000D8
:1058B000DC003A0010002000ADFF0700AE009000B1
:1058C000E0C0B30080487800D60037002E0090007A
:1058D000104078000080FB006101B9004207980089
:1058E00053079800F0002000010020004E019000B6
:1058F000DE019000800F5100818F5900C4003E00EE
:105900004E009000DE009000006001000F003700A4
:105910001400370019003700270037003500370022
:105920003A003700480037004D0037005B00370071
:10593000690037006E0037007C00370081003700B7
:105940008F00370094003700A20037000000EB0002
:1059500087FF0700AE00900010C0B30080487800B9
:10596000B00037001000200081FF0700AE0090005B
:1059700020C0B30080487800AA0037006E40900035
:10598000E84F5000060036001000200078FF0700A6
:10599000AE00900090C0B30080487800A1003700AE
:1059A0000000EB0072FF0700AE00900030C0B300B3
:1059B000804878009B0037006E409000E44F500014
:1059C00006003A000000EB0069FF0700AE009000FF
:1059D00040C0B300804878009200370010002000DB
:1059E00063FF0700AE00900050C0B300804878000D
:1059F0008C003700100020005DFF0700AE00900013
:105A000050C0B30080487800860037006E40900098
:105A1000E64F500006003A000000EB0054FF07007C
:105A2000AE00900060C0B300804878007D00370071
:105A3000100020004EFF0700AE00900080C0B300B1
:105A400080487800770037001000200048FF0700EA
:105A5000AE00900070C0B30080487800710037003D
:105A60006E409000E44F500006003A000000EB004A
:105A70003FFF0700AE00900040C0B30080487800B0
:105A8000680037001000200039FF0700AE009000CA
:105A900080C0B30080487800620037006E409000FC
:105AA000E14F500006003A000000EB0030FF070015
:105AB000AE00900010C0B300804878005900370055
:105AC000100020002AFF0700AE00900020C0B300A5
:105AD00080487800530037000000EB0024FF0700E7
:105AE000AE009000A0C0B300804878004D003700A1
:105AF0006E409000EB4F500006003A000000EB00B3
:105B00001BFF0700AE009000B0C0B30080487800D3
:105B1000440037001000200015FF0700AE00900081
:105B2000C0C0B300804878003E003700100020005D
:105B30000FFF0700AE009000C0C0B300804878009F
:105B4000380037006E409000ED4F500006003A00DC
:105B50000000EB0006FF0700AE009000D0C0B300CD
:105B6000804878002F0037001000200000FF070059
:105B7000AE009000F0C0B3008048780029003700E4
:105B800010002000FAFE0700AE009000E0C0B30055
:105B900080487800230037006E409000EB4F5000A3
:105BA00006003A000000EB00F1FE0700AE00900096
:105BB000B0C0B300804878001A0037001000200001
:105BC000EBFE0700AE009000F0C0B3008048780004
:105BD000140037006E409000E14F500006003A007C
:105BE0000000EB00E2FE0700AE00900010C0B30022
:105BF000804878000B00370010002000DCFE070012
:105C0000AE00900020C0B300804878000500370047
:105C100050002000000F78002E009000EE40900011
:105C2000014878002E009000904078006E4090006F
:105C300080CF500025FF3A001E0078000080FA0057
:105C4000000006001400FA00500798006107980051
:105C500072079800030F9800140F98000000EB00E3
:105C6000300798000E0890000000E0000A003200A3
:105C70007E009000900078000E08900001087800E7
:105C80000E0890008080E8007E00900010007800F0
:105C900000804000300798007E0090008080E8007F
:105CA0007E009000100078000080400040079800BF
:105CB0004A0037004E0090000000E90040079800BD
:105CC0004E00900090407800414798000040EB0063
:105CD000304798000000EB00000F78002E003700DE
:105CE0005E009000EE00900061005000E0805800DF
:105CF00050079800610798001E0890000000E0001F
:105D0000080032005E009000EE009000E00F5000AE
:105D1000E08F580003003A0011002000100020001E
:105D2000930407004E4090000080FB00E1006000FB
:105D3000200020008E0407004E4090000080FB00F1
:105D40000000D100404798008000EB000000EB000D
:105D5000870407003E0090000000E0000A003200C7
:105D6000FC040700204798002E4090008080FB0034
:105D70001E0078000008DD00804078003E40900062
:105D800000C0700030479800110020000000EB00B8
:105D9000770407001E0FE8005E009000EE00900000
:105DA000E00F5000E08F5800030032007000200028
:105DB0009E0F1000CAFF34003E0090000000E0007B
:105DC000060032003E0090000000E9003007980015
:105DD0003E009000BE409000014878005E009000B8
:105DE000EE009000E00F5000E08F5800B1FF3A0045
:105DF0000080FA00000006001C00FA00400798002E
:105E0000214F98006207980073079800040F9800CC
:105E1000150F9800260F9800370F98000000EB0030
:105E2000300798000000EB00200798000040EB00CE
:105E3000204798000000EB00500F9800AE489000FB
:105E40000EF8970080CF50000200320014002000AE
:105E5000540F98005E089000000F78006E009000CC
:105E6000FE009000E00F5000E08F58000C003A0058
:105E70002EB89700BEB89700E00F5000E08F580092
:105E80006300320011C0B3004E00900045FE0700D1
:105E90002EB89700BEB89700B50407005C00370025
:105EA000AE4890004E0090003EFE07001E027800B3
:105EB0009E0990000E0990006E009000FE00900078
:105EC00060FF07002E0890000000E0000B00320089
:105ED0003E0990009E0890002E08900029FD0700C2
:105EE000800078000000EB00200798000100E0002F
:105EF00002003A0010002000200798001E00E00079
:105F0000320032004E009000104078008040E800DF
:105F10004E009000014878002E0090000000E00044
:105F20001C0032002EB89700BEB89700E00F50005A
:105F3000E08F580017003200AE4090002EF097001E
:105F400080CF50001300310061C0B3004E009000BC
:105F500014FE070041C0B3004E00900011FE070080
:105F60002EB89700BEB89700C289DE004E0ADD0049
:105F70004201DE00020172002EB89700BEB8970001
:105F8000000041008180490020BF9F0031BF9F0079
:105F9000030037008EF897004E00900001FE0700C6
:105FA0002EB89700BEB89700E00F5000E08F580061
:105FB0000600320011C0B3004E009000F9FD07004A
:105FC0002EB89700BEB89700690407002E00900015
:105FD0000000E0000E0032000040EB00005F98007F
:105FE000AE4090002EF0970080CF500002003100AC
:105FF00014C0B300045F98002E4090000040E800F9
:10600000204798000E5890000004E000A4FF3A00DA
:106010002E0090000000E0000C0032002EF09700EF
:106020000004E00007003200AE4090002EF0970020
:1060300080CF500003003600300020003007980069
:106040000200370020002000300798003E0090003A
:106050000080FA00000006001000FA00000F78002F
:10606000120798002307980031079800440798000A
:10607000550798006607980077079800BE009000C3
:106080004E0090005EFD07006E0090000000E000F2
:1060900003003200BE0090006E00900058FD070023
:1060A0008F87E8002EF09700E0FF9F002EB8970042
:1060B000BEB89700809FBE008F87E8008EF89700DB
:1060C000E1FF9F00FE0390006E039000DE0290004F
:1060D0004E0290001E019000AE01900041C0B3003E
:1060E0001E00780044FF0700E88757000080FA0090
:1060F000000006001200FA0050079800610798009F
:1061000072079800030F98007E019000DE00900057
:106110005E00900003FD07000040EB003047980050
:106120000040EB00204798006E009000100F7800B0
:106130000E089000100078000000E9004007980069
:10614000480037004E0090008E0890000080E80064
:106150000100400090407800414798004E40900078
:106160000004E0003C0032004E009000DE00900091
:106170000080E800010040009040780061479800EE
:1061800010C0B300504798002A0037004E409000DE
:106190000080FB00610060000004E0001E0032008F
:1061A0002E4090000004E00009003A001E0FE900B4
:1061B0001E007800EE0090000080E8000100400022
:1061C000904078003147980010C0B30020479800F5
:1061D0003E409000AE409000014060000004E000AE
:1061E000050032006E409000DE40900001407000DB
:1061F00060479800050037005E40900080C0EA00CC
:106200006E40900000C06000604798002E409000F3
:1062100000404000204798005E4090000040400051
:10622000504798004E4090000080FB000000D100D5
:10623000404798004E4090000004E000D3FF3A0031
:10624000CE0090005E009000010040000080E80059
:10625000EE409000014878004E0090000000E900F8
:10626000400798004E0090000000E000B5FF3D00A0
:106270000080FA00000006000200FA00000F78001B
:106280009E00780040002000B00098001E007800BA
:10629000300090000080FA00000006000200FA00C2
:1062A000000F78009E00780010C0B300804878008E
:1062B0000000EB000080FA00000006000200FA0077
:1062C000000F78001E007800A0089000820B2000CC
:1062D0001E004100CAFC07000000EB000080FA002D
:1062E000000006000800FA00889FBE008A1F7800A0
:1062F00030079800640047004C0307004E409000B0
:106300000080FB0001002000FEFC07001007980041
:106310009E00900020032000808F50000300340076
:1063200060002000000F7800230037004E409000EE
:106330000080FB0001002000F2FC070080007800D4
:106340003E00900076004000ADFC07003E0090004B
:1063500060019000F00190003E0090009048900095
:106360003E009000760240004E4090000084FB000A
:10637000090020003E009000680540008F87E8007B
:106380000040EB00E0FF9F00829FBE008F87E80087
:10639000E1FF9F008003EB000003EB008002EB00B5
:1063A0000801BE00B1C0B3000A00780092FE0700E9
:1063B000E8875700000F78001E00E000030032005D
:1063C0003E0090009E007800310098001E0078008A
:1063D0004F0578004F04BE000080FA000000060060
:1063E0000A00FA00881F7800400798004E009000CD
:1063F000760040002100200081FC07004E00900044
:1064000076004000ACFB0700200798003107980099
:106410002E009000BE009000BAFC07001007980004
:106420009E00900020032000808F50000300340065
:1064300060002000000F7800200037002E00900040
:10644000BE009000AFFC0700800078004E00900076
:10645000760040006AFC07004E009000600190004A
:10646000F00190004E009000904890004E00900087
:10647000760240004E009000680440008F87E800DC
:106480000040EB00E0FF9F00829FBE008F87E80086
:10649000E1FF9F008003EB000003EB008002EB00B4
:1064A0002E019000BE019000B1C0B300080078003A
:1064B00051FE0700E8875700000F78001E00E0003B
:1064C000030032004E0090009E00780031009800DA
:1064D0001E0078004F0478000080FA0000000600DB
:1064E0000400FA00889FBE008A9FBE001007980033
:1064F0001E009000A00890001E0090007600400052
:106500003FFC07001E009000B04890001E00900065
:1065100060019000F00190001E009000204A900061
:106520001E009000870B2000808343001E00900017
:10653000C5042000808242001E0090002A0820002E
:10654000000545001E009000F60540001E0090006A
:10655000000C9000900C90001E009000680040001D
:106560008F87E800E1FF9F00829FBE008F87E800D1
:10657000E4FF9F00050378008A0278000B02780090
:106580000801BE0041C0B3001BFE0700E8875700AA
:10659000000F78001E00E000030032001E00900093
:1065A0009E007800310098001E0078004F05BE0064
:1065B0004F04BE000080FA00000006000200FA004E
:1065C000000F78009E007800768040004100200097
:1065D0000BFC07009E0078007680400036FB070029
:1065E0001E01780060019800710198000000EB0026
:1065F0000080FA00000006000200FA00000F780098
:106600009E0078006B804000880207000000EB00CD
:106610000080FA00000006000400FA00100798004D
:106620000000EB00000F78001E0090007600400094
:1066300041002000F2FB07001E00900076004000A1
:106640001DFB07001E019000000998001109980029
:106650001E009000900890000008900029FC0700A0
:10666000800078001E009000210898001E00900015
:10667000A008900020032000808F50000500340007
:1066800060002000000F78001E0090009E0078003F
:10669000310098001E0078000080FA00000006001B
:1066A0000400FA00889FBE008A9FBE008C1F7800FD
:1066B000100798001E009000B04890001E00900047
:1066C00060019000F00190001E009000204A9000B0
:1066D0001E009000870B2000808343001E00900066
:1066E000C5042000808242001E0090002A0820007D
:1066F000000545001E009000F60540001E009000B9
:10670000200E90001E009000000C9000900C900055
:106710001E009000680040008F87E800E1FF9F00A6
:10672000829FBE008F87E800E4FF9F00050378008A
:106730008A0278000B0278008C0078000801BE0005
:1067400045FE0700E8875700000F78001E00E000B4
:10675000030032001E0090009E0078003100980077
:106760001E0078004F0678004F05BE004F04BE00A3
:106770000080FA00000006000200FA00000F780016
:106780001E007800A0089000E20E20001E004100CC
:106790009BFB07001E007800A0089000421220001A
:1067A0001E00410096FB07000000EB000080FA008D
:1067B000000006000A00FA00889FBE008A9FBE0003
:1067C000400798004E009000A00890004E009000F6
:1067D000760040008AFB07004E009000B048900011
:1067E0004E00900060019000F00190004E0090007B
:1067F000204A90004E009000870B200080834300C9
:106800004E009000C5042000808242004E0090009F
:106810002A082000000545004E009000F6054000C3
:106820004E009000000C9000900C90004E009000E4
:10683000680040008F87E800E1FF9F00829FBE0054
:106840008F87E800E4FF9F00050378008A02780044
:106850000B0278000801BE0041C0B30066FD0700CE
:10686000E8875700200798002E0090000000E00005
:1068700064003A000000EB00100798000040EB00B5
:10688000004F7800150037001E80FB00CE009000FE
:106890006012B0000100400090407800114798005D
:1068A0000A0037001E4090000080FB00E1006000FD
:1068B0001E00900001004000100798001E4090004C
:1068C0000080FB000000D100104798001E4090009F
:1068D0000004E000F3FF3A001E4FE8001E80FB00BA
:1068E000CE009000A1109100810F5000E6FF35000E
:1068F00066004700CD0107000040EB00004F780024
:106900003A0037001E009000CF80DE007DFB0700BC
:10691000800078004E009000A015B00038FB070002
:106920004E00900042122000000141004E009000F5
:10693000E40E2000000242004E009000A11520004D
:10694000808040004E009000760040008201780078
:1069500004017800E7FD07004E009000B048900069
:106960004E00900060019000F00190004E009000F9
:10697000204A90004E009000870B20008083430047
:106980004E009000C5042000808242004E0090001E
:106990002A082000000545004E009000F605400042
:1069A0004E009000000C9000900C90004E00900063
:1069B000680040008F87E800E1FF9F00829FBE00D3
:1069C0008F87E800E4FF9F00050378008A027800C3
:1069D0000B0278000801BE0041C0B30006FD0700AD
:1069E000E8875700200798001E4FE8002E0090000F
:1069F0000000E00003003A006E4090009E4F10003F
:106A0000C0FF39002E0090000000E00003003200BB
:106A10004E009000AE009000310098002E009000D3
:106A20004F05BE004F04BE000080FA0000000600C3
:106A30000800FA00889FBE00200798002E009000F2
:106A400010409000EE4F500004003A002E009000DD
:106A500020489000604798000200370040C0B30013
:106A600060479800EE409000214798002E0090006B
:106A7000760240002E009000200C90002E00900026
:106A800000099000900990002E009000E80440005A
:106A90008F87E8000040EB00E0FF9F006000B80037
:106AA000809FBE008F87E8002E409000E0FF9F008F
:106AB0008003EB000003EB008002EB00880078000D
:106AC0000900780064FD0700E8875700000F780090
:106AD0001E00E000030032002E0090009E007800AF
:106AE000310098001E0078004F04BE000080FA00BC
:106AF000000006000800FA00889FBE008A1F780088
:106B0000200798002E00900010409000F14F500098
:106B100004003A002E009000204890006047980042
:106B20000200370040C0B30060479800EE4090007C
:106B3000214798002E009000C4042000000242006B
:106B40002E00900025082000808242002E00900038
:106B5000760440002E009000A00C90002E009000C3
:106B600000099000900990002E00900068054000F8
:106B70008F87E8000040EB00E0FF9F006000B80056
:106B8000809FBE008F87E8002E409000E0FF9F00AE
:106B90008003EB0004037800080278008900780085
:106BA0000A0078002CFD0700E8875700000F7800E6
:106BB0001E00E000030032002E0090009E007800CE
:106BC000310098001E0078004F0578004F04BE0089
:106BD0000080FA00000006000600FA002007980076
:106BE0000E80E80011010700AE4090002E009000DA
:106BF00068004000EBFA0700000F78001E00E0007C
:106C0000030032002E0090009E00780031009800B2
:106C10001E0078000080FA00000006000600FA005E
:106C2000200798000000EB00000F78000E80E800BD
:106C3000FE0007002E4090000004E0000600320035
:106C40002E409000E14F5000030032005000200021
:106C5000000F7800190037002E00900010409000BF
:106C6000F34F50000B003A002E4090000004E0006B
:106C700004003A00AE00900010C0B30090489800A5
:106C80000E003700AE009000D0C0B30090489800CE
:106C90000A0037002E4090000004E00004003A0093
:106CA000AE00900010C0B300A04898000300370069
:106CB000AE00900060C0B300A04898001E00E00045
:106CC000030032002E0090009E00780031009800F2
:106CD0001E0078000080FA00000006000400FA00A0
:106CE000100798000E007800D00007001E407800C2
:106CF0000004E000FBFF3A009E0090000000EB0063
:106D0000B00098001E009000300090000080FA0053
:106D1000000006000800FA00300798003E009000CE
:106D2000760040001100200035FA07003E00900078
:106D300080589000514798003E0090007600400037
:106D4000110020002EFA07003E00900080589000AD
:106D5000414798003E00900076004000410020002E
:106D600027FA07003E0090007600400052F9070025
:106D7000008FBE003E009000804890005E40900072
:106D800080CF5000040032003E00900068004000B8
:106D9000DE40900083FA07001E00BE00F4000700EA
:106DA0003E009000804890004E40900080CF500000
:106DB000040032003E00900068004000CE40900089
:106DC00078FA07000000EB000080FA0000000600DF
:106DD0000200FA00000F78001E0078001CFA07007D
:106DE000800078001E007800310098001E007800B6
:106DF000300090000000E00007003A009E0078009C
:106E0000688040008040EB0066FA07008000780050
:106E10001E007800310098001E00780030009000BD
:106E20000080FA00000006000200FA00000F78005F
:106E30001E007800300090000000E0001E003A00C4
:106E40001E007800104078000004E0001A003A00AC
:106E50001E00E800750007001E007800A0009000EA
:106E60001000900061004000E08048001E017800A2
:106E700010019800210198001E0078001040900039
:106E8000F74F50000A003E001E00780010409000AE
:106E90000080FB008000400000BB2100008040001B
:106EA000900078001E007800010001000200370009
:106EB0001E007800F0FC07001E00780030009000F3
:106EC0000080FA00000006000200FA00000F7800BF
:106ED0001E00780007FA07000080FA000000060094
:106EE0009001FA000E007800B9FF070013000700B8
:106EF000020037000E007800CBFF07003E00900034
:106F00000000E00003003A001E4078000004E000AA
:106F1000F8FF32000E007800EBFF07003E00900003
:106F20000080FA00000006000000FA0050DA80003D
:106F30000080FB000080FA00000006000000FA005C
:106F40000000EB0030DA88000000EB0040DA880037
:106F50000000EB0050DA8800C922A900C902A9008C
:106F6000C8E2A800C8C2A9000080FA00000006001C
:106F70000400FA00000F78001107980010002000AC
:106F80009E0F10000A003A001E0090006140600051
:106F9000614060004601DD00A12C20009140780096
:106FA000F0CBB30000C0600002407000CAE2B7003E
:106FB000200020009E0F10000A003A001E009000E2
:106FC000614060006140600000414000B12C200041
:106FD00091407800D0CFB30000C060000240700044
:106FE000CBE2B7001E00E00009003A001E0090004E
:106FF0006140600061416000B12C20009140780048
:10700000E0CFB30000C0600002407000CBE2B700E8
:107010000080FA00000006000000FA0010C1B30072
:107020005D0E07000080FA00000006000400FA0070
:107030001007980041DA800030DA8000808F50001D
:1070400039003A000000EB0040DA88000000EB0055
:1070500030DA88000000EB0050DA880022C2BF005E
