:020000040000fa
:080000000002040000000000f2
:020000040000fa
:100400002fa72100007f22000001880000000000cb
:100410000a00070011000700000020000000e000b3
:100420000200320000000200000000005a680200d2
:10043000000000000040da000000fe004440a90077
:1004400060da21000000e00003003200000020001c
:10045000a00188004440a80000000600002b2600f0
:10046000010020001500370062004000e0804800d5
:10047000910188009001ba0062004000e0804800cd
:10048000910188009002ba0062004000e0804800bc
:100490000002eb006028e10004003a000059eb0084
:1004a0008301e900fdff3e00040037006128e10000
:1004b000010032000082eb00050007009101880076
:1004c0001001ba000200e000e7ff3a00000005005a
:1004d000910188008002780062004000e0804800be
:1004e0003559ba008301e900080032002559ba00e5
:1004f0008301e900050032000400e000f4ff32004f
:1005000015d9ba008301e900f1ff3a0000000600a6
:10051000a229040000000000b2290400000000002d
:10052000c629040000000000c42a040000000000e6
:10053000322b04000000000090290400000000009d
:10054000502b040000000000602b0400000000009d
:10055000a42b040000000000102c04000000000088
:100560002e2c0400000000006c2d04000000000090
:10057000ce2d040000000000402e0400000000000a
:10058000622e040000000000442a04000000000065
:10059000c22e040000000000de2e04000000000057
:1005a0006022b800060220000000d0008180d20046
:1005b0000482d2008582d2000000a0000202520014
:1005c00083825a00030031000202420083824a0003
:1005d0000000a1000603e900f3ff3a000000060056
:1005e000889fbe008a9fbe00010578000100e000e0
:1005f0000400350008003c000000e000200032004c
:100600000500370060001000e080180002003b0089
:1006100001f02c001a0037000004be006011b80081
:100620006b0920000982cf00020039000882cf0048
:100630000441b000694252000e00320008003b0045
:1006400082817100610164008904d1000884d300b3
:100650008b05e8000442e800f9ff3a000500370086
:100660000804440089844c008b05e9000442e90039
:10067000fbff3a00fa0007000af0a70001f0a00013
:100680004f05be004f04be0000000600889fbe005c
:100690008a9fbe008c1f7800170107001e013300df
:1006a00003866c006450e1002e0032006420e100fb
:1006b000330032006150e1002f0032006120e10080
:1006c0003100320085855500eb07b000090020009d
:1006d00008042000050037000804440089844c0009
:1006e0000a0031000603430087834b0000015300da
:1006f00081815b00f8ff33000203be000800a00008
:100700000804440089844c00f6ff3900c639dd0036
:100710008301730001003200130020008904d1001e
:100720000884d3000998a300050032000800a70040
:100730000300a0008904d1000884d3008b05e800e1
:100740008904d1000884d3000001eb000281d200ab
:10075000c300070001f0a1000cf0a70001f0a00009
:10076000f60037006420e100f80032000801be0006
:100770000200be00f7ff37006120e100f300320005
:100780006000b800f3ff37000000200001f82700e8
:10079000f0ff37000001be00ef0007000470a70063
:1007a00003f0a1006509b100160032000d0035000c
:1007b0006828e10006003500f0ff2f00f1ff270058
:1007c0000300e00013003b000100280000000500ca
:1007d00000004000818048008502e900fcff3a00eb
:1007e00008003700f88f420002003c008000eb0058
:1007f000000005008100d1000080d3008502e800e0
:10080000fcff3a000300e00002003b006000100023
:10081000e08018000000060003f0a200889fbe00e0
:100820008a9fbe008c1f7800b3000700ba00330017
:100830006450e1004f0032006420e10052003200b9
:1008400003826c0007003b000905d0000306d000be
:10085000820f54000c065d000200390002003200d5
:1008600089017800030678008582550004003d0068
:100870000003fd008103fd008502ea008b85420034
:10088000840f720002003b0060001000e08018003e
:100890006011b8000005eb007a28e1000a00390079
:1008a00006007800c75ddd00f707b200878075009d
:1008b0002d003700828171000a0178006105600017
:1008c0008180d1000080d3008502e900f9ff3b0060
:1008d000060440008784480002003b0060041400c6
:1008e000e0841c000988a300070032008a8171009f
:1008f00082817100610164008904d1000884d30001
:100900008b05e800170037000978a30013003a00b0
:100910000b00e000130034008b05e90008044400dc
:1009200089844c000a4474000978a3000d003a0041
:100930000b00e000070034008b05e90008044400c8
:1009400089844c0001003a000b0020000978a300c4
:10095000f7ff32000001eb000200370082817100d6
:100960000a0178003e0007000cf0a70001f0a0008b
:10097000720037006420e10002003a00838f6c00af
:10098000720033000801be000200be006b00370099
:10099000889fbe008a9fbe008c1f7800560007000b
:1009a0005d00330003866c006450e10024003200d7
:1009b0006420e100270032006150e1002200320093
:1009c0006120e100210032008b854200eb07b1007d
:1009d0000134b800003ab8000804420089844a0093
:1009e000013ab8000030b8008880400009014a0090
:1009f00004003300000040008180480002014900eb
:100a00008b05e900c909dd00830170000100320097
:100a100013002000c814de004814dd004709de0082
:100a20001200b200c808de00088470000c00070045
:100a300001f0a1000cf0a70001f0a0003f0037007a
:100a40006120e100410032000801be000200be004a
:100a5000f7ff37006150e100fcff3a003b00370030
:100a600081002000618055000b003d000b0020003c
:100a700061fe2f000100e1001d0034008281710041
:100a8000610164008904d1000884d3000000e800fb
:100a9000faff3a007100200061006400030070005a
:100aa000020060000900320061044400e0844c0050
:100ab0000988a500050032008b05e8006808e10000
:100ac00002003a008904d1000884d300f20f20000c
:100ad0000258e10005003d00c75ddd00f907b200e6
:100ae0008980750008007800000006000bf82700d8
:100af0008b007800000005000004be00160007000f
:100b00000003be000405be000200be001200070084
:100b1000844f7500000006000200be006450e10032
:100b2000050036006420e100020036000968a300d9
:100b300001003a000800be000160a0004f067800e6
:100b40004f05be004f04be0000000600f0ff2f005e
:100b5000f1ff2700f9ff3700c70ade00f107b200f6
:100b6000f50fb20008003200e1cf4200020032006f
:100b70000170a00024000500810f70000100320008
:100b80000408050044000500810f700002003a00cf
:100b9000140005008502e9000000400081c0480003
:0c0ba000fcff3b000170a00024000500d9
:020000040000fa
:020000040001f9
:0457f800dff90000d5
:020000040000fa
:020000040001f9
:0457fc007f3f0000eb
:020000040000fa
:100008003069000030690000306900003069000084
:100018003069000030690000306900003069000074
:100028003069000030690000306900003069000064
:100038003069000030690000306900003069000054
:020000040000fa
:020000040000fa
:100bac00486900005a000000312d00005749000030
:100bbc005245000000550000415200005400000056
:100bcc00493200004300000053500000490000006f
:100bdc004a540000414700000052000041570000f9
:100bec0032570000495200004500000052410000fd
:100bfc0057330000574900005245000000500000d8
:100c0c004320000041540000204b000045590000d7
:100c1c00424f000041520000440000004d450000ce
:100c2c004e550000530000003f20000048650000b6
:100c3c006c7000000042000020540000657200003f
:100c4c006d6900006e6100006c2000007370000084
:100c5c0065650000640000004f2000004461000046
:100c6c00746100002064000069730000706c000067
:100c7c0061790000206600006f7200006d61000059
:100c8c0074000000462000006672000065710000d0
:100c9c00756500006e63000079200000636f000032
:100cac00756e0000742000006f6e00002041000083
:100cbc00555800000043000020410000555800002a
:100ccc0020700000696e000020610000737300004a
:100cdc00696700006e6d0000656e00007400000016
:100cec004d20000042750000732000006d6f000065
:100cfc0064650000004c0000204200006974000094
:100d0c00206f00007264000065720000005000004b
:100d1c00205000006f770000657200002073000007
:100d2c0075700000706c0000792000007365000085
:100d3c0074740000696e00006773000000560000b8
:100d4c0020530000757000007079000020760000c0
:100d5c006f6c000074610000676500002063000088
:100d6c0068650000636b000000530000594e0000e2
:100d7c005441000058000000412f0000612f00007a
:100d8c004020000041750000782000006f750000c5
:100d9c007470000075740000207400006f67000010
:100dac00676c000065200000482f00004c2f0000ed
:100dbc00486900002d5a000028720000656100008f
:100dcc0064290000005700002f770000205000001d
:100ddc006f770000657200002073000075700000d2
:100dec00706c000079200000746f000067670000d1
:100dfc006c650000206f00006e2f00006f66000015
:100e0c0066000000442000004d6500006173000086
:100e1c007572000065200000766f00006c74000095
:100e2c00732000006f6e000020410000444300005e
:100e3c00005b0000202800007b29000020730000cc
:100e4c007461000072740000207700007269000069
:100e5c0074650000202800007769000074680000a9
:100e6c00207200006561000064290000005d000034
:100e7c00206f0000722000007d20000073740000c1
:100e8c006f7000002077000072690000746500002c
:100e9c0000520000206f0000722000007220000041
:100eac00526500006164000020620000797400004b
:100ebc0065200000287200003a3100002e2e000040
:100ecc002e32000035350000206600006f720000e5
:100edc0020620000756c00006b2000007265000041
:100eec0061640000732900000030000062200000e3
:100efc005772000069740000652000004249000030
:100f0c004e20000062790000746500000030000083
:100f1c00682000006f720000203000007820000074
:100f2c0057720000697400006520000048450000fd
:100f3c005820000062790000746500000030000049
:100f4c002d3200003535000020570000726900007a
:100f5c00746500002044000045430000206200003e
:100f6c0079740000650000002c2000005661000020
:100f7c006c75000065200000646500006c69000061
:100f8c006d6900007465000072200000286100008b
:100f9c006c7300006f200000737000006163000030
:100fac006529000000260000203100007553000068
:100fbc0020640000656c00006179000020280000ae
:100fcc00263a0000312e00002e2e00003235000093
:100fdc0035200000666f0000722000006d75000067
:100fec006c740000697000006c65000020640000e7
:100ffc00656c000061790000732900000028000076
:10100c002329000020520000756e0000206d0000a6
:10101c0061630000726f00002c200000283000007b
:10102c0029200000666f0000722000006d61000036
:10103c00637200006f2000006c6900007374000084
:10104c0000520000415700002042000055530000a0
:10105c00204f000050450000524100005449000050
:10106c004f4e0000530000005e200000436c000057
:10107c006f6300006b20000074690000636b00005c
:10108c00202800005e3a0000312e00002e2e0000b9
:10109c003235000035200000666f00007220000021
:1010ac006d7500006c740000697000006c650000c8
:1010bc0020740000696300006b73000029000000bd
:1010cc002f5c0000204300006c6f0000636b00007d
:1010dc00204800002f4c0000002d00002f5f000066
:1010ec00204400006174000061200000482f0000c3
:1010fc004c000000212000005265000061640000db
:10110c002062000069740000002e000020440000e2
:10111c006174000061200000696e000070750000b1
:10112c00742c000020720000656100006420000037
:10113c00286e00006f200000636c00006f630000dd
:10114c006b290000002e0000200000004d4f000015
:10115c00444500003e000000393000003020000003
:10116c004d4f000044450000205300004554000042
:10117c0000200000312e00002048000045580000df
:10118c000d0a0000203200002e2000004445000013
:10119c00430d00000a200000332e00002042000006
:1011ac00494e00000d0a0000203400002e200000e3
:1011bc0052410000570d00000a2000004f5500005e
:1011cc005450000055540000204d00004f440000c6
:1011dc00453e00000039000030330000204f000075
:1011ec005554000050550000542000004d4f000095
:1011fc0044450000205300004554000000570000f7
:10120c002f770000207400006f670000676c0000ef
:10121c0065730000203300002e330000766f000051
:10122c006c7400002073000075700000706c00007e
:10123c00793f00000d0a0000203100002e20000034
:10124c004e4f00000d0a0000203200002e2000003e
:10125c0059450000530d00000a2000004d4f0000be
:10126c00444500003e000000572f0000772000008e
:10127c00746f0000676700006c650000732000004d
:10128c00357600006f6c0000742000007375000050
:10129c00707000006c7900003f0d00000a20000007
:1012ac00312e0000204e00004f0d00000a200000df
:1012bc00322e000020590000455300000d0a00009a
:1012cc00204d00004f440000453e00000039000056
:1012dc00787800002053000055500000504c00005e
:1012ec0059200000434f00004e46000049470000c3
:1012fc0055520000454400002c20000055530000be
:10130c0045200000572f000077200000544f0000ac
:10131c00205400004f470000474c000045000000df
:10132c003978000078200000564f00004c54000023
:10133c0041470000452000004d4f00004e49000081
:10134c00544f0000523a000020350000563a00007d
:10135c0020000000207c0000203300002e33000011
:10136c00563a000020000000207c000020560000af
:10137c00505500004c4c0000555000003a20000025
:10138c00002000007c000000203100002e20000016
:10139c004d5300004220000066690000727300008b
:1013ac00740d00000a200000322e0000204c0000ba
:1013bc005342000020660000697200007374000044
:1013cc000d0a0000204d00004f440000453e000077
:1013dc000039000078780000204d000053420000d6
:1013ec003a2000004d4f00005354000020530000e1
:1013fc0049470000204200004954000020460000ec
:10140c004952000053540000003900007878000065
:10141c00204c0000534200003a2000004c450000d4
:10142c0041530000542000005349000047200000a5
:10143c00424900005420000046490000525300006d
:10144c00540000000d0a0000004100005558000037
:10145c0020500000494e00000d0a00002031000011
:10146c002e200000415500005820000028440000a8
:10147c0045460000415500004c540000290d000069
:10148c000a200000322e000020430000532f0000e1
:10149c00544d0000530d00000a2000004d4f000079
:1014ac00444500003e000000397800007820000020
:1014bc0041550000583a0000204400004546000009
:1014cc00415500004c5400002053000045540000ce
:1014dc00544900004e4700002028000041550000f0
:1014ec0058200000504900004e290000003900002f
:1014fc007878000020410000555800003a20000088
:10150c00434f00004e540000524f00004c5300005b
:10151c0020430000532f0000544d000053200000c6
:10152c00504900004e00000053650000742000007c
:10153c007365000072690000616c0000207000008f
:10154c006f7200007420000073700000656500006d
:10155c00643a00002028000062700000732900002b
:10156c000d0a0000203100002e2000003330000056
:10157c00300d00000a200000322e00002031000047
:10158c0032300000300d00000a200000332e000025
:10159c002032000034300000300d00000a20000022
:1015ac00342e00002034000038300000300d0000d4
:1015bc000a200000352e00002039000036300000d3
:1015cc00300d00000a200000362e000020310000f3
:1015dc0039320000303000000d0a000020370000c6
:1015ec002e2000003338000034300000300d000095
:1015fc000a200000382e000020350000373600008d
:10160c00303000000d0a0000203900002e200000b0
:10161c003131000035320000303000000d0a00007e
:10162c002053000050450000454400003e000000df
:10163c00416400006a75000073740000207900009a
:10164c006f7500007220000074650000726d000060
:10165c00696e0000616c0000206100006e64000087
:10166c00207000007265000073730000207300008e
:10167c007061000063650000207400006f200000a2
:10168c00636f00006e740000696e000075650000e9
:10169c000d0a00000030000078780000204e000099
:1016ac004f2000004d4f0000444500002053000027
:1016bc00455400002c2000004d200000464f000037
:1016cc00522000004d4f0000444500000d0a000060
:1016dc00003900007878000020350000564f0000db
:1016ec004c5400002053000055500000504c00009a
:1016fc00592000004f4e000000390000787800009f
:10170c00203300002e330000564f00004c540000d4
:10171c002053000055500000504c00005920000090
:10172c004f4e00000039000078780000204e000079
:10173c004f20000053550000505000004c59000041
:10174c00204300004f4e0000464900004755000062
:10175c0052450000442e0000205400005259000055
:10176c00205000002e000000397800007820000086
:10177c00564f00004c54000041470000452000002b
:10178c0053550000505000004c49000045530000d8
:10179c00204f000046460000003900007878000019
:1017ac00205600004f4c00005441000047450000fb
:1017bc0020500000524f0000424500003a2000002b
:1017cc00005600004f4c000054530000003900003c
:1017dc007878000020440000454c0000415900007e
:1017ec0020000000755300000d0a000000300000be
:1017fc003030000020530000594e000054410000ce
:10180c005820000045520000524f0000522c00009e
:10181c002054000052590000203f00000d0a000027
:10182c00000000007878000078200000315700009c
:10183c004952000045200000524500004144000080
:10184c003a200000000d00000a000000787800002b
:10185c00782000003157000049520000452000005c
:10186c00425500004c4b0000205200004541000046
:10187c00442c0000200000002042000059540000bd
:10188c00455300003a0d00000a0000002000000043
:10189c007878000078200000315700004952000091
:1018ac00452000005752000049540000453a000002
:1018bc0020000000787800007820000031570000ec
:1018cc0049520000452000005245000041440000f0
:1018dc0020420000495400003a2000000020000083
:1018ec002a6e00006f770000206900006e70000007
:1018fc0075740000206400006972000065630000cc
:10190c00746900006f6e00000d0a00000078000082
:10191c007878000020310000574900005245000043
:10192c0020000000205700005249000054450000e0
:10193c0020420000495400002853000029200000d8
:10194c0028000000290000007878000078200000b2
:10195c00315700004952000045200000575200004a
:10196c00495400004520000042490000543a000050
:10197c0020000000202a00006e6500007874000032
:10198c00206300006c6f0000636b000020280000d7
:10199c005e29000020770000696c00006c200000bc
:1019ac00616c0000736f000020680000617600001d
:1019bc006520000074680000697300002076000048
:1019cc00616c0000756500000d0a000000780000d5
:1019dc007878000020310000574900005245000083
:1019ec002052000045410000445900000d0a00003f
:1019fc000078000078780000203100005749000082
:101a0c0052450000204d000041430000524f0000a1
:101a1c003a2000004e4f00002044000045560000c4
:101a2c004943000045200000230000002045000031
:101a3c004e5500004d450000524100005445000039
:101a4c00442c000020540000525900002053000088
:101a5c00454100005243000048200000524f000056
:101a6c004d2000004d410000435200004f2000006b
:101a7c00464900005253000054200000283000005a
:101a8c0078460000302900000078000078780000cb
:101a9c002031000057490000524500002041000051
:101aac00444400005245000053530000204d0000f8
:101abc0041430000524f0000200000003a2000007b
:101acc0000200000302e00004d6100006372000009
:101adc006f2000006d6500006e750000004d000069
:101aec0061630000726f00002020000020200000c5
:101afc00203100002d570000495200004520000005
:101b0c0061640000647200006573000073000000e3
:101b1c00204e00004f2000004445000056490000b4
:101b2c004345000053200000454e0000554d000079
:101b3c004552000054450000442c00002054000085
:101b4c005259000020280000414c00004152000076
:101b5c004d29000020530000454100005243000075
:101b6c0048200000524f00004d2000004649000064
:101b7c0052530000540000002e0000000d0a00001b
:101b8c0020200000202a0000003100002d5700000a
:101b9c004952000045200000524f00004d2000002b
:101bac00434f00004d4d0000414e0000442000000a
:101bbc004d410000435200004f7300003a0d0000ed
:101bcc000a200000353100002e5200004541000073
:101bdc0044200000524f00004d200000283000002f
:101bec007833000033290000202a0000666f0000c3
:101bfc0072200000736900006e6700006c650000c5
:101c0c002064000065760000696300006520000018
:101c1c0062750000730d00000a20000038350000ca
:101c2c002e4d00004154000043480000205200009b
:101c3c004f4d0000202800003078000035350000a2
:101c4c00292000002a6600006f6c00006c6f0000f9
:101c5c0077650000642000006279000020360000e7
:101c6c0034620000697400002061000064640000ac
:101c7c0072650000737300000d0a00002032000032
:101c8c00303400002e5300004b490000502000005f
:101c9c00524f00004d200000283000007843000017
:101cac0043290000202a0000666f00006c6c0000c5
:101cbc006f7700006564000020620000792000004e
:101ccc00636f00006d6d0000616e0000640d00001c
:101cdc000a20000032330000362e0000414c000078
:101cec00415200004d2000005345000041520000bd
:101cfc0043480000202800003078000045430000d5
:101d0c00290d00000a20000032340000302e0000a3
:101d1c00534500004152000043480000205200008f
:101d2c004f4d0000202800003078000046300000a5
:101d3c00290d00000a0000007878000078200000cf
:101d4c00315700004952000045200000524f00005e
:101d5c004d200000434f00004d4d0000414e00004f
:101d6c00443a0000204100004c410000524d00005c
:101d7c002053000045410000524300004820000061
:101d8c00283000007845000043290000007800004e
:101d9c0078780000203100005749000052450000bf
:101dac00205200004f4d0000204300004f4d00001a
:101dbc004d4100004e4400003a2000005345000005
:101dcc0041520000434800002028000030780000f9
:101ddc004630000029000000466f0000756e0000c0
:101dec0064200000646500007669000063650000f3
:101dfc0073200000617400003a000000466f000080
:101e0c00756e000064200000002000006465000076
:101e1c007669000063650000732e0000005400001a
:101e2c006865000020660000697200007374000091
:101e3c00200000002064000065760000696300004b
:101e4c00652000004944000073200000617200000e
:101e5c006520000061760000616900006c61000083
:101e6c00626c00006520000062790000204d0000cb
:101e7c0041430000524f00002c200000736500000d
:101e8c006520000028300000292e0000007800009a
:101e9c0078780000203100005749000052450000be
:101eac002057000052490000544500002052000009
:101ebc004f4d0000204300004f4d00004d410000ed
:101ecc004e4400003a2000005245000041440000fe
:101edc002028000030780000333300002920000057
:101eec002a6600006f72000020730000696e00000b
:101efc00676c0000652000006465000076690000d6
:101f0c00636500002062000075730000206f000004
:101f1c006e6c0000790000007878000078200000da
:101f2c003157000049520000452000004255000086
:101f3c004c4b0000205200004541000044200000a2
:101f4c00382000004259000054450000533a00006c
:101f5c00007800007878000020310000574900001c
:101f6c005245000020570000524900005445000023
:101f7c00205200004f4d0000204300004f4d000048
:101f8c004d4100004e4400003a2000004d4100003d
:101f9c005443000048200000283000007835000031
:101fac0035290000202a0000666f00006c6c0000d0
:101fbc006f77000020770000697400006820000033
:101fcc003634000062690000742000006164000077
:101fdc0064720000657300007300000078780000e4
:101fec0078200000315700004952000045200000c5
:101ffc00575200004954000045200000524f000089
:10200c004d200000434f00004d4d0000414e00009c
:10201c00443a0000205300004b49000050200000bf
:10202c00283000007843000043290000202a0000db
:10203c00666f00006c6c00006f770000207700006a
:10204c006974000068200000636f00006d6d000073
:10205c00616e0000640000007878000078200000b9
:10206c004e4f000020530000554300004820000054
:10207c004d410000435200004f200000494e00002b
:10208c002054000048490000532000004d4f000030
:10209c00444500000d0a00000078000037300000b5
:1020ac00204300004f4d00004d4100004e44000005
:1020bc00204e00004f540000204900004d500000fd
:1020cc004c4500004d4500004e54000045440000b6
:1020dc00204900004e2000005448000049530000e5
:1020ec00204d00004f440000450d00000a00000088
:1020fc007878000078200000315700004952000029
:10210c0045200000425500005320000052450000bd
:10211c005345000054200000004f00004b0000000d
:10212c0045520000524f0000523a000020000000bf
:10213c002a530000484f000052540000204f00006a
:10214c00522000004e4f000020500000554c000063
:10215c004c55000050200000002a00004e4f00009b
:10216c002044000045560000494300004520000073
:10217c004445000054450000435400004544000011
:10218c0020000000280000004453000031380000fb
:10219c003232000020450000636f00006e2000000a
:1021ac00446900006720000054680000657200005c
:1021bc006d00000044530000323400003331000045
:1021cc00203100004b20000045450000505200001b
:1021dc004f4d0000005500006e6b00006e6f00004c
:1021ec00776e0000206400006576000069630000d3
:1021fc0065200000666100006d6900006c790000cc
:10220c0020490000440000004f750000747000006d
:10221c00757400002074000079700000653a0000ad
:10222c000d0a0000203100002e200000486900003b
:10223c00676800002d5a0000206f000075740000c4
:10224c00707500007473000020280000483d0000e9
:10225c00696e000070750000742c0000204c0000aa
:10226c003d4700004e440000290d00000a200000ec
:10227c00322e0000204e00006f7200006d610000d5
:10228c006c2000006f750000747000007574000005
:10229c0073200000284800003d56000063630000d6
:1022ac002c2000004c3d0000474e0000442900004b
:1022bc000d0a0000203e0000003600003032000005
:1022cc00204a000054410000472000005245000005
:1022dc00414400005900000036310000302000005d
:1022ec004a540000414700002052000045410000c4
:1022fc0044590000205400004f20000057520000a9
:10230c0049540000452000004952000000360000ee
:10231c0031310000204a00005441000047200000e9
:10232c00524500004144000059200000544f000069
:10233c002052000045410000442f0000575200007d
:10234c0049540000452000004452000000360000b3
:10235c0034300000204a00005441000047200000a7
:10236c00494400004c4500000036000033300000aa
:10237c00204a000054410000472000005245000054
:10238c00414400003a200000000d00000a0000004b
:10239c0036330000312000004a5400004147000051
:1023ac0020420000554c00004b200000524500001c
:1023bc00414400002c200000002000004259000085
:1023cc0054450000533a00000d0a000000200000a4
:1023dc000036000032300000204a0000544100005a
:1023ec00472000005752000049540000453a0000b5
:1023fc002000000036780000782000004a540000cd
:10240c0041470000205200004541000044200000dc
:10241c0042490000543a00002000000036780000c9
:10242c00782000004a54000041470000204400007e
:10243c004154000041200000494e0000505500005e
:10244c00542c00002053000054410000544500005f
:10245c003a2000000036000078780000204a000086
:10246c00544100004720000000200000434c0000b5
:10247c004f4300004b20000054490000434b000028
:10248c00530d00000a000000367800007820000090
:10249c004a54000041470000204300004c4f00000c
:1024ac00434b00002c200000003600007878000020
:1024bc00204a000054410000472000004441000025
:1024cc0054410000204f00005554000050550000ae
:1024dc00542c000020000000203000002e4d000085
:1024ec0061630000726f0000206d0000656e0000db
:1024fc00750d00000a200000312e0000526500000e
:10250c0073650000742000006368000061690000be
:10251c006e0d00000a200000322e000050720000e8
:10252c006f620000652000006368000061690000b4
:10253c006e0d00000a200000332e000058530000de
:10254c0056460000207000006c61000079650000a8
:10255c00720d00000a00000078780000782000005e
:10256c004a54000041470000534d00003a2000003f
:10257c0052450000534500005400000078780000dc
:10258c00782000004a540000414700002049000018
:10259c004e4900005420000043480000414900000f
:1025ac004e00000078780000782000004a540000ab
:1025bc00414700002043000048410000494e000004
:1025cc0020520000455000004f520000543a0000c9
:1025dc00002000004445000056490000434500001f
:1025ec0028530000290d00000a0000002300000001
:1025fc00203a00002000000036780000782000000f
:10260c004a54000041470000205800005356000077
:10261c0046200000504c000041590000455200007b
:10262c000078000078780000205800004f4e000021
:10263c002f5800004f46000046200000464c00007a
:10264c004f570000204300004f4e00005452000032
:10265c004f4c00002052000045510000554900002d
:10266c0052450000440000007878000078200000fb
:10267c005052000045530000532000007a20000007
:10268c00544f0000204300004f4e000054490000fe
:10269c004e550000450000007878000078200000be
:1026ac0042450000474900004e20000058530000ee
:1026bc005646000020550000504c00004f410000d1
:1026cc004400000036780000302000005853000011
:1026dc0056460000204f00004b00000036780000ea
:1026ec0031200000585300005646000020550000d1
:1026fc004e4b00004e4f0000574e0000204500008e
:10270c00525200004f520000003600007832000098
:10271c00205800005356000046200000455200008f
:10272c00524f000052200000544400004f20000083
:10273c004d490000534d0000415400004348000037
:10274c00003600007833000020580000535600007b
:10275c004620000045520000524f0000522000005d
:10276c004d4100005820000052450000545200001a
:10277c00494500005300000036780000342000006a
:10278c0058530000564600002045000052520000ed
:10279c004f520000204900004c4c000045470000ff
:1027ac00414c0000204300004f4d00004d41000003
:1027bc004e44000000360000783500002058000020
:1027cc00535600004620000045520000524f0000b6
:1027dc0052200000494c00004c45000047410000cd
:1027ec004c200000535400004154000045000000f0
:1027fc003678000036200000585300005646000082
:10280c0020450000525200004f52000020440000ae
:10281c0041540000412000004f560000455200007a
:10282c00464c00004f57000000360000783700007f
:10283c00205800005356000046200000455200006e
:10284c00524f0000523a00002000000020590000b6
:10285c004f5500005220000050430000204400005f
:10286c0052490000424200004c4500004420000048
:10287c004d4100005820000000200000425900008b
:10288c005445000053200000414600005445000010
:10289c0052200000584f000046460000202800003f
:1028ac00544800004154000027530000204f000002
:1028bc004b29000000360000787800002050000002
:1028cc005245000053530000207a000020350000d0
:1028dc0020540000494d00004553000020540000d6
:1028ec004f200000434f00004e540000494e0000a2
:1028fc00554500000078000078780000204e00005c
:10290c004f2000005355000043480000204d0000ac
:10291c0041430000524f0000204900004e200000af
:10292c005448000049530000204d00004f44000063
:10293c00450000003637000030200000434f0000f7
:10294c004d4d0000414e0000442000004e4f000051
:10295c0054200000494d0000504c0000454d000033
:10296c00454e00005445000044200000494e000034
:10297c002054000048490000532000004d4f000037
:10298c00444500000078000078780000204a0000e0
:10299c0054410000475300004d3a00002000000055
:1029ac00414c0000524500004144000059200000f9
:1029bc00494400004c450000005200004553000003
:1029cc00455400002d3e0000494400004c450000d9
:1029dc0000280000575200004f5400004520000012
:1029ec00444500004c4100005945000044200000c3
:1029fc004249000054290000200000004952000008
:102a0c002d3e0000494400004c45000000440000ed
:102a1c00522d00003e490000444c000045000000cf
:102a2c00554e00004b4e00004f5700004e2000004a
:102a3c005354000041540000450000007878000019
:102a4c00782000004a54000041470000534d00001c
:102a5c003a20000057410000524e0000494e000041
:102a6c00472000004f550000542000004f46000046
:102a7c0020530000594e0000430000005245000056
:102a8c005345000054000000494400004c45000030
:102a9c002d3e0000446100007461000020520000d3
:102aac006567000069730000746500007200000027
:102abc00494400004c4500002d3e0000496e0000ca
:102acc00737400007275000063740000696f00007d
:102adc006e200000526500006769000073740000ee
:102aec006572000020280000444500004c410000a5
:102afc0059450000442000004f4e000045200000c6
:102b0c004249000054200000464f000052200000b3
:102b1c00544d000053290000005500004e4b00009e
:102b2c004e4f0000574e000020530000544100004f
:102b3c00544500002c200000545200005920000085
:102b4c004120000052450000534500005420000075
:102b5c004d410000435200004f200000283100007e
:102b6c002900000078780000782000004e4f00000b
:102b7c00544500003a200000575200004f5400000a
:102b8c0045200000444500004c4100005945000020
:102b9c004420000042490000540d00000a000000cf
:102bac004f750000747000007574000020740000f4
:102bbc0079700000653a00000d0a00002031000019
:102bcc002e20000048690000676800002d5a0000a4
:102bdc00206f0000757400007075000074730000a5
:102bec0020280000483d0000696e00007075000050
:102bfc00742c0000204c00003d4700004e440000a7
:102c0c00290d00000a200000322e0000204e00008a
:102c1c006f7200006d6100006c2000006f75000089
:102c2c0074700000757400007320000028480000c8
:102c3c003d560000636300002c2000004c3d00005a
:102c4c00474e0000442900000d0a0000203e000001
:102c5c0000340000303200002052000041570000c8
:102c6c003257000049520000452000005245000038
:102c7c0041440000590000003431000030200000b5
:102c8c0052410000573200005749000052450000e5
:102c9c002053000054410000525400002043000017
:102cac004f4e000044490000544900004f4e0000b4
:102cbc00202800005c2d00002f5f00005c29000024
:102ccc000034000034300000205200004157000056
:102cdc0032570000495200004520000053540000b8
:102cec004f500000204300004f4e000044490000ac
:102cfc00544900004f4e0000202800005f2f0000b8
:102d0c002d5c00002900000034330000302000004e
:102d1c005241000057320000574900005245000054
:102d2c002052000045410000443a00002000000001
:102d3c000d0a000000340000333100002052000066
:102d4c004157000032570000495200004520000056
:102d5c00425500004c4b0000205200004541000041
:102d6c00442c0000200000002042000059540000b8
:102d7c00455300003a0d00000a000000200000003e
:102d8c003432000030200000524100005732000065
:102d9c0057490000524500002057000052490000de
:102dac00544500003a200000003400007878000000
:102dbc0020520000415700003257000049520000d9
:102dcc004520000052450000414400002042000014
:102ddc00495400003a200000002000002a6e000038
:102dec006f770000206900006e70000075740000a1
:102dfc0020640000697200006563000074690000c3
:102e0c006f6e00000d0a000000340000787800009e
:102e1c002052000041570000325700004952000078
:102e2c0045200000444100005441000020490000ae
:102e3c004e500000555400002c200000535400004c
:102e4c0041540000453a0000200000003478000096
:102e5c007820000052410000573200005749000012
:102e6c005245000020000000204300004c4f0000a1
:102e7c00434b000020540000494300004b5300001a
:102e8c000d0a000000340000787800002052000089
:102e9c004157000032570000495200004520000005
:102eac00434c00004f4300004b2c0000200000005e
:102ebc0034780000782000005241000057320000a6
:102ecc0057490000524500002044000041540000c6
:102edc00412000004f550000545000005554000094
:102eec002c200000002000002a6e00006f770000ec
:102efc00206f0000757400007075000074200000d5
:102f0c00646900007265000063740000696f000062
:102f1c006e2000000d0a0000007800007878000098
:102f2c00204e00004f2000004d4100004352000095
:102f3c004f20000000200000494e000020540000eb
:102f4c0048490000532000004d4f0000444500004c
:102f5c002c2000002830000029200000464f0000e3
:102f6c00522000004d410000435200004f5300001e
:102f7c000d0a00000035000037300000204300002f
:102f8c004f4d00004d4100004e440000204e00000b
:102f9c004f540000204900004d5000004c450000eb
:102fac004d4500004e5400004544000020490000ef
:102fbc004e2000005448000049530000204d0000f2
:102fcc004f440000450d00000a000000353300009e
:102fdc0030200000524100005733000057490000d8
:102fec00524500002052000045410000443a0000c8
:102ffc00200000000d0a00000035000033310000f5
:10300c002052000041570000335700004952000085
:10301c0045200000425500004c4b0000205200009f
:10302c0045410000442c000020000000204200001c
:10303c0059540000455300003a0d00000a000000ee
:10304c00200000003532000030200000524100000a
:10305c00573300005749000052450000205700002c
:10306c0052490000544500003a20000000200000a6
:10307c0052450000414400003a2000000035000099
:10308c0078780000205200004157000033570000b0
:10309c004952000045200000524500004144000008
:1030ac0020420000495400003a2000000035000086
:1030bc007878000020520000415700003357000080
:1030cc0049520000452000004441000054410000da
:1030dc00204900004e500000555400002c200000e8
:1030ec005354000041540000453a000020000000f9
:1030fc003578000078200000524100005733000062
:10310c0057490000524500002000000020430000f9
:10311c004c4f0000434b000020540000494300007a
:10312c004b5300000d0a00000035000078780000b9
:10313c002052000041570000335700004952000054
:10314c0045200000434c00004f4300004b2c000076
:10315c00203100000035000078780000205200007b
:10316c004157000033570000495200004520000031
:10317c00434c00004f4300004b2c0000203000005b
:10318c000035000078780000205200004157000004
:10319c003357000049520000452000004441000014
:1031ac0054410000204f00005554000050550000c1
:1031bc00542c00002031000000350000787800000d
:1031cc0020520000415700003357000049520000c4
:1031dc00452000004441000054410000204f0000f5
:1031ec005554000050550000542c000020300000b5
:1031fc00004f000075740000707500007420000012
:10320c0074790000706500003a0d00000a2000007f
:10321c00312e00002048000069670000682d000076
:10322c005a2000006f750000747000007574000067
:10323c0073200000284800003d6900006e700000fb
:10324c00757400002c2000004c3d0000474e00001f
:10325c00442900000d0a0000203200002e2000003e
:10326c004e6f0000726d0000616c0000206f00005a
:10327c007574000070750000747300002028000045
:10328c00483d000056630000632c0000204c0000f9
:10329c003d4700004e440000290d00000a200000ac
:1032ac003e0000003530000032200000524100008a
:1032bc0057320000574900005245000020520000d0
:1032cc004541000044590000003500003130000039
:1032dc0020520000415700003357000049520000b3
:1032ec004520000043530000204500004e410000e3
:1032fc00424c000045440000003500003430000012
:10330c002052000041570000335700004952000082
:10331c0045200000435300002044000049530000a6
:10332c00414200004c450000440000007878000049
:10333c00782000004e4f0000205300005543000041
:10334c00482000004d410000435200004f20000077
:10335c00494e000020540000484900005320000052
:10336c004d4f0000444500000d0a000000350000e0
:10337c0037300000204300004f4d00004d4100004d
:10338c004e440000204e00004f5400002049000025
:10339c004d5000004c4500004d4500004e540000bf
:1033ac0045440000204900004e2000005448000015
:1033bc0049530000204d00004f440000450d000013
:1033cc000a0000003333000030200000554100009b
:1033dc00525400002052000045410000443a0000c5
:1033ec00200000000d0a0000003300003331000003
:1033fc0020550000415200005420000052450000ae
:10340c004144000020460000414900004c3a0000b5
:10341c00204e00004f2000004441000054410000a9
:10342c0000330000323000002055000041520000f3
:10343c00542000005752000049540000453a000047
:10344c002000000033310000302000005541000006
:10345c0052540000204f0000504500004e2c00003c
:10346c00207d0000205400004f200000434c000041
:10347c004f530000450000003334000030200000a2
:10348c005541000052540000204300004c4f0000f6
:10349c0053450000440000005365000074200000f8
:1034ac007370000065650000643a0000202800007d
:1034bc0062700000732900000d0a0000203100002a
:1034cc002e20000033300000300d00000a200000d8
:1034dc00322e00002031000032300000300d000090
:1034ec000a200000332e000020320000343000008f
:1034fc00300d00000a200000342e000020340000a3
:10350c0038300000300d00000a200000352e00007d
:10351c002039000036300000300d00000a20000079
:10352c00362e00002031000039320000303000000f
:10353c000d0a0000203700002e2000003338000058
:10354c0034300000300d00000a200000382e00003e
:10355c002035000037360000303000000d0a000026
:10356c00203900002e2000003131000035320000df
:10357c00303000000d0a00002053000050450000c0
:10358c00454400003e0000004461000074610000ee
:10359c00206200006974000073200000616e00005e
:1035ac0064200000706100007269000074790000f2
:1035bc003a0d00000a200000312e000020380000d7
:1035cc002c2000004e4f00004e450000202a000029
:1035dc006465000066610000756c000074200000da
:1035ec000d0a0000203200002e200000382c0000b4
:1035fc0020450000564500004e2000000d0a00003a
:10360c00203300002e200000382c0000204f00003a
:10361c0044440000200d00000a200000342e00005d
:10362c00203900002c2000004e4f00004e450000b9
:10363c00200d00000a2000003e0000005374000022
:10364c006f7000002062000069740000733a000083
:10365c000d0a0000203100002e2000003120000057
:10366c002a64000065660000617500006c7400003f
:10367c000d0a0000203200002e2000003220000035
:10368c000d0a0000203e000000520000656300009f
:10369c006569000076650000207000006f6c00000a
:1036ac006172000069740000793a00000d0a000094
:1036bc00203100002e200000496400006c650000e1
:1036cc0020310000202a00006465000066610000c3
:1036dc00756c0000740d00000a200000322e0000f2
:1036ec0020490000646c000065200000300d0000d3
:1036fc000a2000004d4f0000444500003e00000031
:10370c0033300000322000005541000052540000bc
:10371c002052000045410000445900000078000090
:10372c0078780000204e00004f2000005355000018
:10373c0043480000204d000041430000524f000060
:10374c00204900004e20000054480000495300005e
:10375c00204d00004f440000450d00000a00000001
:10376c0037300000204300004f4d00004d41000059
:10377c004e440000204e00004f5400002049000031
:10378c004d5000004c4500004d4500004e540000cb
:10379c0045440000204900004e2000005448000021
:1037ac0049530000204d00004f440000450d00001f
:1037bc000a0000003131000030200000535000009e
:1037cc004920000043530000204500004e410000fa
:1037dc00424c000045440000003100003430000031
:1037ec0020430000532000004449000053410000d6
:1037fc00424c000045440000003100003330000012
:10380c0020530000504900002052000045410000a8
:10381c00443a0000200000000d0a000000310000b6
:10382c0033310000205300005049000020420000ba
:10383c00554c00004b200000524500004144000054
:10384c002c200000002000004259000054450000cc
:10385c00533a00000d0a0000003100003230000025
:10386c00205300005049000020570000524900002e
:10387c00544500003a200000002000005245000092
:10388c00414400003a200000005300006574000021
:10389c002073000070650000656400003a0d0000a4
:1038ac000a200000312e000020330000304b0000b5
:1038bc00487a00000d0a0000203200002e20000083
:1038cc0031320000354b0000487a00000d0a000030
:1038dc00203300002e20000032350000304b000059
:1038ec00487a00000d0a0000203400002e20000051
:1038fc00314d0000487a00000d0a000020530000f2
:10390c0050450000454400003e000000436c0000a0
:10391c006f6300006b200000706f00006c61000092
:10392c0072690000747900003a0d00000a20000052
:10393c00312e000020490000646c0000652000005e
:10394c006c6f0000772000002a64000065660000a0
:10395c00617500006c7400000d0a0000203200003c
:10396c002e200000496400006c65000020680000f7
:10397c0069670000680d00000a2000003e0000008e
:10398c004f75000074700000757400002063000017
:10399c006c6f0000636b0000206500006467000022
:1039ac00653a00000d0a0000203100002e200000b6
:1039bc00496400006c650000207400006f2000005a
:1039cc006163000074690000766500000d0a000058
:1039dc00203200002e2000004163000074690000ba
:1039ec0076650000207400006f2000006964000000
:1039fc006c650000202a0000646500006661000010
:103a0c00756c0000740d00000a2000003e000000e0
:103a1c00496e000070750000742000007361000096
:103a2c006d7000006c650000207000006861000083
:103a3c00736500003a0d00000a200000312e0000d2
:103a4c00204d000069640000646c000065200000db
:103a5c002a64000065660000617500006c7400004b
:103a6c000d0a0000203200002e200000456e0000e0
:103a7c00640d00000a2000003e0000003130000000
:103a8c003220000053500000492000005245000035
:103a9c0041440000590000007878000078200000b4
:103aac004e4f0000205300005543000048200000fa
:103abc004d410000435200004f200000494e0000d1
:103acc002054000048490000532000004d4f0000d6
:103adc00444500000d0a00000037000030200000b3
:103aec00434f00004d4d0000414e000044200000ab
:103afc004e4f000054200000494d0000504c000077
:103b0c00454d0000454e0000544500004420000087
:103b1c00494e00002054000048490000532000008a
:103b2c004d4f0000444500000d0a0000000000004d
:103b3c0032330000302000004932000043200000e6
:103b4c0052450000414400003a200000000d0000e6
:103b5c000a0000003233000031200000493200001e
:103b6c0043200000425500004c4b00002052000046
:103b7c0045410000442c00002000000020420000c1
:103b8c0059540000455300003a0d00000a00000093
:103b9c0020000000323200003020000049320000ca
:103bac00432000005752000049540000453a0000e1
:103bbc0020000000204700004f540000204100006e
:103bcc00434b00003a2000004e4f00000020000044
:103bdc00474f000054200000414300004b3a0000c6
:103bec002059000045530000003200003130000025
:103bfc0020490000324300002053000054410000d3
:103c0c0052540000204300004f4e00004449000075
:103c1c00544900004f4e00000d0a00000032000015
:103c2c0034300000204900003243000020530000d3
:103c3c00544f000050200000434f00004e44000041
:103c4c0049540000494f00004e0d00000a000000ce
:103c5c0032300000322000004932000043200000c6
:103c6c005245000041440000590d00000a000000bc
:103c7c00203000002e4d000061630000726f0000c8
:103c8c00206d0000656e0000750d00000a2000001c
:103c9c00312e0000376200006974000020610000c2
:103cac0064640000726500007373000020730000f0
:103cbc006561000072630000680d00000a000000de
:103ccc0078780000782000005365000061720000d5
:103cdc0063680000696e0000672000003762000016
:103cec00697400002049000032430000206100008c
:103cfc0064640000726500007373000073200000a0
:103d0c007370000061630000652e0000200d000040
:103d1c000a20000020200000466f0000756e000095
:103d2c006420000064650000766900006365000093
:103d3c0073200000617400003a00000078780000e5
:103d4c00782000004e4f0000205300005543000027
:103d5c00482000004d410000435200004f2000005d
:103d6c00494e000020540000484900005320000038
:103d7c004d4f0000444500000d0a00000078000083
:103d8c0037300000204300004f4d00004d41000033
:103d9c004e440000204e00004f540000204900000b
:103dac004d5000004c4500004d4500004e540000a5
:103dbc0045440000204900004e20000054480000fb
:103dcc0049530000204d00004f440000450d0000f9
:103ddc000a00000058300000322000005043000060
:103dec0020410000542000004b4200002044000001
:103dfc00454300004f440000455200002052000093
:103e0c0045410000445900000078000033300000a8
:103e1c002050000043410000544b000042200000a1
:103e2c0052450000414400003a200000000d000003
:103e3c000a000000783300003120000050430000dd
:103e4c00415400004b42000020420000554c000041
:103e5c004b20000052450000414400002c20000083
:103e6c00002000004259000054450000533a000065
:103e7c000d0a000000200000005800003230000045
:103e8c002050000043410000544b00004220000031
:103e9c005752000049540000453a00002000000031
:103eac00204700004f54000020410000434b00000d
:103ebc000020000045520000524f0000522c000020
:103ecc00204e00004f200000414300004b0000003a
:103edc0078780000782000004e4f0000204d000044
:103eec0041430000524f0000200000002049000018
:103efc004e2000005448000049530000204d0000a3
:103f0c004f440000452c0000202800003029000000
:103f1c00204600004f520000204d0000414300009d
:103f2c00524f0000530d00000a000000353700000e
:103f3c0030200000434f00004d4d0000414e00006a
:103f4c00442000004e4f000054200000494d00005a
:103f5c00504c0000454d0000454e000054450000fb
:103f6c0044200000494e0000205400004849000045
:103f7c00532000004d4f0000444500000d0a000086
:103f8c00002000002a7300007461000072740000ad
:103f9c00626900007420000065720000726f0000fe
:103fac0072000000202a000070610000726900009d
:103fbc007479000020650000727200006f720000be
:103fcc00002000002a730000746f00007062000073
:103fdc006974000020650000727200006f720000ae
:103fec00002000004e4f00004e4500000020000055
:103ffc00554e00004b4e00004f5700004e20000065
:10400c0045520000524f00005200000020300000ca
:10401c002e4d000061630000726f0000206d0000e7
:10402c00656e0000750d00000a200000312e0000a6
:10403c00495300004f37000038310000332d000089
:10404c003320000041540000520d00000a200000f3
:10405c00322e0000495300004f3700003831000069
:10406c00332d0000332000007061000072730000db
:10407c00652000006f6e00006c7900000d0a0000d6
:10408c0000490000534f0000203700003831000079
:10409c00332d00003320000041540000520d00006d
:1040ac000a00000034780000782000005241000023
:1040bc0057320000574900005245000020300000e4
:1040cc007830000031200000434c00004f430000ca
:1040dc004b20000054490000434b0000530d0000de
:1040ec000a000000495300004f2000003738000040
:1040fc00313300002d330000207200006570000089
:10410c006c7900003a20000000200000000d000037
:10411c000a000000507200006f7400006f63000012
:10412c006f6c00003a200000007300006572000004
:10413c00696100006c00000033200000776900000a
:10414c0072650000003200002077000069720000e8
:10415c00650000005246000055000000756e00001e
:10416c006b6e00006f7700006e000000526500005f
:10417c00616400002074000079700000653a000052
:10418c0020000000746f0000206500006e640000c9
:10419c00007600006172000069610000626c000032
:1041ac00652000006c6500006e67000074680000fc
:1041bc00004400006174000061200000756e000076
:1041cc0069740000733a0000200000006e6f00005c
:1041dc00206900006e6400006963000061740000d7
:1041ec00696f00006e000000446100007461000003
:1041fc00207500006e690000742000006c650000e2
:10420c006e670000746800003a2000000020000077
:10421c0062690000747300000d0a000000000000c9
:10422c00005e0000bce20000613f0000dd83000086
:10423c00c29c00007e200000a3fd00001f41000076
:10424c009dc30000217f0000fca20000401e000066
:10425c005f010000e3bd00003e60000082dc000056
:10426c00237d00009fc10000421c0000fea0000046
:10427c00e1bf00005d03000080de00003c62000036
:10428c00bee00000025c0000df810000633d000026
:10429c007c220000c09e00001d430000a1ff000016
:1042ac0046180000faa40000277900009bc5000006
:1042bc0084da000038660000e5bb000059070000f6
:1042cc00db85000067390000bae4000006580000e6
:1042dc0019470000a5fb000078260000c49a0000d6
:1042ec00653b0000d9870000045a0000b8e60000c6
:1042fc00a7f900001b450000c69800007a240000b6
:10430c00f8a60000441a000099c70000257b0000a5
:10431c003a64000086d800005b050000e7b9000095
:10432c008cd20000306e0000edb30000510f000085
:10433c004e100000f2ac00002f71000093cd000075
:10434c00114f0000adf30000702e0000cc92000065
:10435c00d38d00006f310000b2ec00000e50000055
:10436c00aff10000134d0000ce900000722c000045
:10437c006d330000d18f00000c520000b0ee000035
:10438c00326c00008ed00000530d0000efb1000025
:10439c00f0ae00004c12000091cf00002d73000015
:1043ac00ca94000076280000abf500001749000005
:1043bc0008560000b4ea000069370000d58b0000f5
:1043cc0057090000ebb50000366800008ad40000e5
:1043dc0095cb000029770000f4aa000048160000d5
:1043ec00e9b70000550b000088d60000346a0000c5
:1043fc002b75000097c900004a140000f6a80000b5
:10440c00742a0000c8960000154b0000a9f70000a4
:10441c00b6e800000a540000d78900006b35000094
:10442c003037000030200000434f00004d4d00009d
:10443c00414e0000442000004e4f0000542000006c
:10444c00494d0000504c0000454d0000454e000009
:10445c005445000044200000494e00002054000048
:10446c0048490000532000004d4f00004445000017
:10447c000d0a000000390000353100002041000019
:10448c005558000020480000494700004800000033
:10449c003935000030200000415500005820000044
:1044ac004c4f00005700000039350000322000004e
:1044bc0041550000582000004849000047480000c2
:1044cc00204900004d5000002c20000052450000f7
:1044dc00414400003a200000000d00000a000000da
:1044ec003978000078200000465200004551000049
:1044fc00204300004f5500004e540000204f000098
:10450c004e20000041550000583a000020000000e9
:10451c00487a000000200000280000006b480000d2
:10452c007a290000004d0000487a000029000000a4
:10453c0030620000003000003132000033340000e3
:10454c003536000037380000394100004243000086
:10455c004445000046300000780000003030000078
:10456c0031200000535900004e5400004158000007
:10457c0020450000525200004f5200002c20000039
:10458c0054520000592000004147000041490000ee
:10459c004e3e000000000000425500004646000060
:1045ac00455200004f560000455200005255000085
:1045bc004e20000045520000524f0000522c0000cb
:1045cc00204400004154000041200000544f0000e2
:1045dc004f200000464100005354000021210000f0
:1045ec00210d00000a000000425500004646000064
:1045fc004552000020450000525200004f5200006e
:10460c002c20000049530000205800004f4e0000a1
:10461c002f5800004f46000046200000464c00007a
:10462c004f570000204300004f4e00005452000032
:10463c004f4c0000204500004e410000424c000051
:10464c00454400003f0d00000a0000000d0a000068
:10465c00003000003030000020530000594e0000a4
:10466c00544100005820000045520000524f0000f9
:10467c00522c00002054000052590000203f000032
:10468c000d0a0000003000003939000020540000f1
:10469c00455200004d4900004e4100004c200000e6
:1046ac00425500004646000045520000204f0000d5
:1046bc0056450000524600004c4f0000572c00009d
:1046cc002054000052590000205300004d410000be
:1046dc004c4c0000455200002053000045470000a0
:0c46ec004d4500004e540000530000003b
:020000040000fa
:1046f8000200fa00000f78009e0078000040eb00ee
:10470800804878009e0078000040eb0090409800b8
:104718001e0178006000b80010019800210198007f
:104728009e0078000000eb00b00098009e00780022
:104738000040eb00b04898009e0078000040eb0075
:10474800804898009e00780010c0b30090489800f8
:104758009e00780010c0b300a04898001e017800a1
:104768006000b80000099800110998009e007800c0
:104778000000eb00a00898001e0178006000b80057
:1047880060019800710198000000eb000080fa00b9
:10479800000006000200fa00000f78000080fa000e
:1047a800000006000800fa00008fbe00720020001a
:1047b800030020003e004100ae8049002007980019
:1047c800310798002e009000be009000e00f5000c6
:1047d800e08f580006003d002e019000be019000b9
:1047e80067014100e08149002207980033079800db
:1047f8002e019000be0190004d1add004310de002e
:1048080000007200c398de000080fa000000060075
:104818000200fa00000f78009e00780010002000c7
:10482800ed2007008000eb000000eb00ea20070005
:10483800110020000000eb00e72007000080fa00cc
:10484800000006000c00fa00200798006147980055
:104858000000eb00000f78006e4090000004e000bc
:1048680015003a0010002000e9ff07000000eb00e7
:1048780010079800090037008000eb000000eb00eb
:10488800d5200700110020000000eb00d22007000f
:104898001e0090000000e800100798001e0090001d
:1048a800e40f5000f4ff3400ae0090000040eb002d
:1048b80080487800080137002e009000904078006a
:1048c8006e40900080cf5000110032006e40900082
:1048d800e74f500004003a002e0090001040780086
:1048e800e64f500007003a006e409000ee4f50002f
:1048f80007003a002e00900010407800ed4f50005d
:104908000300320050002000000f7800f20037004a
:104918002e009000904078006e40900080cf5000ac
:10492800e8003a006e409000e64f500006003a005a
:1049380010002000b6ff0700ae00900070c0b30062
:1049480080487800df0037006e409000ed4f50003f
:10495800dc003a0010002000adff0700ae00900018
:10496800e0c0b30080487800d60037002e009000e1
:10497800104078000080fb006101b90042079800f0
:1049880053079800f0002000010020004e0190001d
:10499800de019000800f5100818f5900c4003e0055
:1049a8004e009000de009000006001000f0037000c
:1049b800140037001900370027003700350037008a
:1049c8003a003700480037004d0037005b003700d9
:1049d800690037006e0037007c003700810037001f
:1049e8008f00370094003700a20037000000eb006a
:1049f80087ff0700ae00900010c0b3008048780021
:104a0800b00037001000200081ff0700ae009000c2
:104a180020c0b30080487800aa0037006e4090009c
:104a2800e84f5000060036001000200078ff07000d
:104a3800ae00900090c0b30080487800a100370015
:104a48000000eb0072ff0700ae00900030c0b3001a
:104a5800804878009b0037006e409000e44f50007b
:104a680006003a000000eb0069ff0700ae00900066
:104a780040c0b30080487800920037001000200042
:104a880063ff0700ae00900050c0b3008048780074
:104a98008c003700100020005dff0700ae0090007a
:104aa80050c0b30080487800860037006e40900000
:104ab800e64f500006003a000000eb0054ff0700e4
:104ac800ae00900060c0b300804878007d003700d9
:104ad800100020004eff0700ae00900080c0b30019
:104ae80080487800770037001000200048ff070052
:104af800ae00900070c0b3008048780071003700a5
:104b08006e409000e44f500006003a000000eb00b1
:104b18003fff0700ae00900040c0b3008048780017
:104b2800680037001000200039ff0700ae00900031
:104b380080c0b30080487800620037006e40900063
:104b4800e14f500006003a000000eb0030ff07007c
:104b5800ae00900010c0b3008048780059003700bc
:104b6800100020002aff0700ae00900020c0b3000c
:104b780080487800530037000000eb0024ff07004e
:104b8800ae009000a0c0b300804878004d00370008
:104b98006e409000eb4f500006003a000000eb001a
:104ba8001bff0700ae009000b0c0b300804878003b
:104bb800440037001000200015ff0700ae009000e9
:104bc800c0c0b300804878003e00370010002000c5
:104bd8000fff0700ae009000c0c0b3008048780007
:104be800380037006e409000ed4f500006003a0044
:104bf8000000eb0006ff0700ae009000d0c0b30035
:104c0800804878002f0037001000200000ff0700c0
:104c1800ae009000f0c0b30080487800290037004b
:104c280010002000fafe0700ae009000e0c0b300bc
:104c380080487800230037006e409000eb4f50000a
:104c480006003a000000eb00f1fe0700ae009000fd
:104c5800b0c0b300804878001a0037001000200068
:104c6800ebfe0700ae009000f0c0b300804878006b
:104c7800140037006e409000e14f500006003a00e3
:104c88000000eb00e2fe0700ae00900010c0b30089
:104c9800804878000b00370010002000dcfe070079
:104ca800ae00900020c0b3008048780005003700af
:104cb80050002000000f78002e009000ee40900079
:104cc800014878002e009000904078006e409000d7
:104cd80080cf500025ff3a001e0078000080fa00bf
:104ce800000006001400fa005007980061079800b9
:104cf80072079800030f9800140f98000000eb004b
:104d0800300798000e0890000000e0000a0032000a
:104d18007e009000900078000e089000010878004e
:104d28000e0890008080e8007e0090001000780057
:104d380000804000300798007e0090008080e800e6
:104d48007e00900010007800008040004007980026
:104d58004a0037004e0090000000e9004007980024
:104d68004e00900090407800414798000040eb00ca
:104d7800304798000000eb00000f78002e00370045
:104d88005e009000ee00900061005000e080580046
:104d980050079800610798001e0890000000e00086
:104da800080032005e009000ee009000e00f500016
:104db800e08f580003003a00110020001000200086
:104dc800851f07004e4090000080fb00e100600056
:104dd80020002000801f07004e4090000080fb004c
:104de8000000d100404798008000eb000000eb0075
:104df800791f07003e0090000000e0000a00320022
:104e0800ee1f0700204798002e4090008080fb008e
:104e18001e0078000008dd00804078003e409000c9
:104e280000c0700030479800110020000000eb001f
:104e3800691f07001e0fe8005e009000ee0090005a
:104e4800e00f5000e08f580003003200700020008f
:104e58009e0f1000caff34003e0090000000e000e2
:104e6800060032003e0090000000e900300798007c
:104e78003e009000be409000014878005e0090001f
:104e8800ee009000e00f5000e08f5800b1ff3a00ac
:104e98000080fa00000006001c00fa004007980095
:104ea800214f98006207980073079800040f980034
:104eb800150f9800260f9800370f98000000eb0098
:104ec800300798000000eb00200798000040eb0036
:104ed800204798000000eb00500f9800ae48900063
:104ee8000ef8970080cf5000020032001400200016
:104ef800540f98005e089000000f78006e00900034
:104f0800fe009000e00f5000e08f58000c003a00bf
:104f18002eb89700beb89700e00f5000e08f5800f9
:104f28006300320011c0b3004e00900045fe070038
:104f38002eb89700beb89700a71f07005c0037007f
:104f4800ae4890004e0090003efe07001e0278001a
:104f58009e0990000e0990006e009000fe009000df
:104f680060ff07002e0890000000e0000b003200f0
:104f78003e0990009e0890002e089000ee1b070046
:104f8800800078000000eb00200798000100e00096
:104f980002003a0010002000200798001e00e000e0
:104fa800320032004e009000104078008040e80047
:104fb8004e009000014878002e0090000000e000ac
:104fc8001c0032002eb89700beb89700e00f5000c2
:104fd800e08f580017003200ae4090002ef0970086
:104fe80080cf50001300310061c0b3004e00900024
:104ff80014fe070041c0b3004e00900011fe0700e8
:105008002eb89700beb89700c289de004e0add00b0
:105018004201de00020172002eb89700beb8970068
:10502800000041008180490020bf9f0031bf9f00e0
:10503800030037008ef897004e00900001fe07002d
:105048002eb89700beb89700e00f5000e08f5800c8
:105058000600320011c0b3004e009000f9fd0700b1
:105068002eb89700beb897005b1f07002e0090006f
:105078000000e0000e0032000040eb00005f9800e6
:10508800ae4090002ef0970080cf50000200310013
:1050980014c0b300045f98002e4090000040e80060
:1050a800204798000e5890000004e000a4ff3a0042
:1050b8002e0090000000e0000c0032002ef0970057
:1050c8000004e00007003200ae4090002ef0970088
:1050d80080cf5000030036003000200030079800d1
:1050e8000200370020002000300798003e009000a2
:1050f8000080fa00000006001000fa00000f780097
:105108001207980023079800310798004407980071
:10511800550798006607980077079800be0090002a
:105128004e009000231c07006e0090000000e00075
:1051380003003200be0090006e0090001d1c0700a6
:105148008f87e8002ef09700e0ff9f002eb89700a9
:10515800beb89700809fbe008f87e8008ef8970042
:10516800e1ff9f00fe0390006e039000de029000b6
:105178004e0290001e019000ae01900041c0b300a5
:105188001e00780044ff0700e88757000080fa00f7
:10519800000006001200fa00500798006107980006
:1051a80072079800030f98007e019000de009000bf
:1051b8005e009000c81b07000040eb0030479800d5
:1051c8000040eb00204798006e009000100f780018
:1051d8000e089000100078000000e90040079800d1
:1051e800480037004e0090008e0890000080e800cc
:1051f8000100400090407800414798004e409000e0
:105208000004e0003c0032004e009000de009000f8
:105218000080e80001004000904078006147980055
:1052280010c0b300504798002a0037004e40900045
:105238000080fb00610060000004e0001e003200f6
:105248002e4090000004e00009003a001e0fe9001b
:105258001e007800ee0090000080e8000100400089
:10526800904078003147980010c0b300204798005c
:105278003e409000ae409000014060000004e00015
:10528800050032006e409000de4090000140700042
:1052980060479800050037005e40900080c0ea0033
:1052a8006e40900000c06000604798002e4090005b
:1052b80000404000204798005e40900000404000b9
:1052c800504798004e4090000080fb000000d1003d
:1052d800404798004e4090000004e000d3ff3a0099
:1052e800ce0090005e009000010040000080e800c1
:1052f800ee409000014878004e0090000000e90060
:10530800400798004e0090000000e000b5ff3d0007
:105318000080fa00000006000200fa00000f780082
:105328009e00780040002000b00098001e00780021
:10533800300090000080fa00000006000200fa0029
:10534800000f78009e00780010c0b30080487800f5
:105358000000eb000080fa00000006000200fa00de
:10536800000f78001e007800a0089000820b200033
:105378001e0041008f1b07000000eb000080fa00b0
:10538800000006000800fa00889fbe008a1f780007
:1053980030079800640047003e1e07004e4090000a
:1053a8000080fb0001002000fefc070010079800a9
:1053b8009e00900020032000808f500003003400de
:1053c80060002000000f7800230037004e40900056
:1053d8000080fb0001002000f2fc0700800078003c
:1053e8003e00900076004000721b07003e009000cf
:1053f80060019000f00190003e00900090489000fd
:105408003e009000760240004e4090000084fb0071
:10541800090020003e009000680540008f87e800e2
:105428000040eb00e0ff9f00829fbe008f87e800ee
:10543800e1ff9f008003eb000003eb008002eb001c
:105448000801be00b1c0b3000a00780092fe070050
:10545800e8875700000f78001e00e00003003200c4
:105468003e0090009e007800310098001e007800f1
:105478004f0578004f04be000080fa0000000600c7
:105488000a00fa00881f7800400798004e00900034
:105498007600400021002000461b07004e009000c7
:1054a80076004000711a070020079800310798001d
:1054b8002e009000be009000bafc0700100798006c
:1054c8009e00900020032000808f500003003400cd
:1054d80060002000000f7800200037002e009000a8
:1054e800be009000affc0700800078004e009000de
:1054f800760040002f1b07004e00900060019000ce
:10550800f00190004e009000904890004e009000ee
:10551800760240004e009000680440008f87e80043
:105528000040eb00e0ff9f00829fbe008f87e800ed
:10553800e1ff9f008003eb000003eb008002eb001b
:105548002e019000be019000b1c0b30008007800a1
:1055580051fe0700e8875700000f78001e00e000a2
:10556800030032004e0090009e0078003100980041
:105578001e0078004f0478000080fa000000060042
:105588000400fa00889fbe008a9fbe00100798009a
:105598001e009000a00890001e00900076004000b9
:1055a800041b07001e009000b04890001e009000e9
:1055b80060019000f00190001e009000204a9000c9
:1055c8001e009000870b2000808343001e0090007f
:1055d800c5042000808242001e0090002a08200096
:1055e800000545001e009000f60540001e009000d2
:1055f800000c9000900c90001e0090006800400085
:105608008f87e800e1ff9f00829fbe008f87e80038
:10561800e4ff9f00050378008a0278000b027800f7
:105628000801be0041c0b3001bfe0700e887570011
:10563800000f78001e00e000030032001e009000fa
:105648009e007800310098001e0078004f05be00cb
:105658004f04be000080fa00000006000200fa00b5
:10566800000f78009e0078007680400041002000fe
:10567800d01a07009e00780076804000fb190700ca
:105688001e01780060019800710198000000eb008d
:105698000080fa00000006000200fa00000f7800ff
:1056a8009e0078006b8040007a1d07000000eb0028
:1056b8000080fa00000006000400fa0010079800b5
:1056c8000000eb00000f78001e00900076004000fc
:1056d80041002000b71a07001e0090007600400025
:1056e800e21907001e0190000009980011099800ae
:1056f8001e009000900890000008900029fc070008
:10570800800078001e009000210898001e0090007c
:10571800a008900020032000808f5000050034006e
:1057280060002000000f78001e0090009e007800a6
:10573800310098001e0078000080fa000000060082
:105748000400fa00889fbe008a9fbe008c1f780064
:10575800100798001e009000b04890001e009000ae
:1057680060019000f00190001e009000204a900017
:105778001e009000870b2000808343001e009000cd
:10578800c5042000808242001e0090002a082000e4
:10579800000545001e009000f60540001e00900020
:1057a800200e90001e009000000c9000900c9000bd
:1057b8001e009000680040008f87e800e1ff9f000e
:1057c800829fbe008f87e800e4ff9f0005037800f2
:1057d8008a0278000b0278008c0078000801be006d
:1057e80045fe0700e8875700000f78001e00e0001c
:1057f800030032001e0090009e00780031009800df
:105808001e0078004f0678004f05be004f04be000a
:105818000080fa00000006000200fa00000f78007d
:105828001e007800a0089000e20e20001e00410033
:10583800601a07001e007800a0089000421220009d
:105848001e0041005b1a07000000eb000080fa0010
:10585800000006000a00fa00889fbe008a9fbe006a
:10586800400798004e009000a00890004e0090005d
:10587800760040004f1a07004e009000b048900094
:105888004e00900060019000f00190004e009000e2
:10589800204a90004e009000870b20008083430030
:1058a8004e009000c5042000808242004e00900007
:1058b8002a082000000545004e009000f60540002b
:1058c8004e009000000c9000900c90004e0090004c
:1058d800680040008f87e800e1ff9f00829fbe00bc
:1058e8008f87e800e4ff9f00050378008a027800ac
:1058f8000b0278000801be0041c0b30066fd070036
:10590800e8875700200798002e0090000000e0006c
:1059180064003a000000eb00100798000040eb001c
:10592800004f7800150037001e80fb00ce00900065
:105938006012b000010040009040780011479800c4
:105948000a0037001e4090000080fb00e100600064
:105958001e00900001004000100798001e409000b3
:105968000080fb000000d100104798001e40900006
:105978000004e000f3ff3a001e4fe8001e80fb0021
:10598800ce009000a1109100810f5000e6ff350075
:1059980066004700bf1c07000040eb00004f78007e
:1059a8003a0037001e009000cf80de007dfb070024
:1059b800800078004e009000a015b000fd19070087
:1059c8004e00900042122000000141004e0090005d
:1059d800e40e2000000242004e009000a1152000b5
:1059e800808040004e0090007600400082017800e0
:1059f80004017800e7fd07004e009000b0489000d1
:105a08004e00900060019000f00190004e00900060
:105a1800204a90004e009000870b200080834300ae
:105a28004e009000c5042000808242004e00900085
:105a38002a082000000545004e009000f6054000a9
:105a48004e009000000c9000900c90004e009000ca
:105a5800680040008f87e800e1ff9f00829fbe003a
:105a68008f87e800e4ff9f00050378008a0278002a
:105a78000b0278000801be0041c0b30006fd070014
:105a8800e8875700200798001e4fe8002e00900076
:105a98000000e00003003a006e4090009e4f1000a6
:105aa800c0ff39002e0090000000e0000300320023
:105ab8004e009000ae009000310098002e0090003b
:105ac8004f05be004f04be000080fa00000006002b
:105ad8000800fa00889fbe00200798002e0090005a
:105ae80010409000ee4f500004003a002e00900045
:105af80020489000604798000200370040c0b3007b
:105b080060479800ee409000214798002e009000d2
:105b1800760240002e009000200c90002e0090008d
:105b280000099000900990002e009000e8044000c1
:105b38008f87e8000040eb00e0ff9f006000b8009e
:105b4800809fbe008f87e8002e409000e0ff9f00f6
:105b58008003eb000003eb008002eb008800780074
:105b68000900780064fd0700e8875700000f7800f7
:105b78001e00e000030032002e0090009e00780016
:105b8800310098001e0078004f04be000080fa0023
:105b9800000006000800fa00889fbe008a1f7800ef
:105ba800200798002e00900010409000f14f500000
:105bb80004003a002e0090002048900060479800aa
:105bc8000200370040c0b30060479800ee409000e4
:105bd800214798002e009000c404200000024200d3
:105be8002e00900025082000808242002e009000a0
:105bf800760440002e009000a00c90002e0090002b
:105c080000099000900990002e009000680540005f
:105c18008f87e8000040eb00e0ff9f006000b800bd
:105c2800809fbe008f87e8002e409000e0ff9f0015
:105c38008003eb00040378000802780089007800ec
:105c48000a0078002cfd0700e8875700000f78004d
:105c58001e00e000030032002e0090009e00780035
:105c6800310098001e0078004f0578004f04be00f0
:105c78000080fa00000006000600fa0020079800dd
:105c88000e80e800031c0700ae4090002e00900034
:105c980068004000ebfa0700000f78001e00e000e3
:105ca800030032002e0090009e007800310098001a
:105cb8001e0078000080fa00000006000600fa00c6
:105cc800200798000000eb00000f78000e80e80025
:105cd800f01b07002e4090000004e0000600320090
:105ce8002e409000e14f5000030032005000200089
:105cf800000f7800190037002e0090001040900027
:105d0800f34f50000b003a002e4090000004e000d2
:105d180004003a00ae00900010c0b300904898000c
:105d28000e003700ae009000d0c0b3009048980035
:105d38000a0037002e4090000004e00004003a00fa
:105d4800ae00900010c0b300a048980003003700d0
:105d5800ae00900060c0b300a04898001e00e000ac
:105d6800030032002e0090009e0078003100980059
:105d78001e0078000080fa00000006000400fa0007
:105d8800100798000e007800c21b07001e4078001c
:105d98000004e000fbff3a009e0090000000eb00ca
:105da800b00098001e009000300090000080fa00bb
:105db800000006000800fa00300798003e00900036
:105dc8007600400011002000fa1807003e009000fd
:105dd80080589000514798003e009000760040009f
:105de80011002000f31807003e0090008058900032
:105df800414798003e009000760040004100200096
:105e0800ec1807003e0090007600400017180700c5
:105e1800008fbe003e009000804890005e409000d9
:105e280080cf5000040032003e009000680040001f
:105e3800de40900083fa07001e00be00e61b070044
