:020000040000FA
:10180000000C000000000000CFA82100007F220093
:1018100000018800000000000A0007001100070016
:10182000000020000000E000020032000000020082
:1018300000000000DA0F0200000000000040DA00A3
:101840000000FE004440A900806C21000000E00080
:101850000300320000002000A00188004440A800DE
:1018600000000600E0B2260001002000150037004D
:1018700062004000E0804800910188009001BA00B9
:1018800062004000E0804800910188009002BA00A8
:1018900062004000E08048000002EB006028E100A8
:1018A00004003A000059EB008301E900FDFF3E000F
:1018B000040037006128E100010032000082EB00E3
:1018C00005000700910188001001BA000200E00045
:1018D000E7FF3A00000005009101880080027800CF
:1018E00062004000E08048003559BA008301E900F9
:1018F000080032002559BA008301E90005003200D2
:101900000400E000F4FF320015D9BA008301E900B9
:10191000F1FF3A0000000600DE4104000000000074
:10192000EE4104000000000002420400000000003C
:1019300000430400000000006E43040000000000AB
:10194000CC410400000000008C43040000000000B3
:101950009C43040000000000E0430400000000007D
:101960004C440400000000006A4404000000000031
:10197000A8450400000000000A4604000000000022
:101980007C460400000000009E46040000000000A9
:101990008042040000000000FE4604000000000039
:1019A0001A470400000000006022B8000602200070
:1019B0000000D0008180D2000482D2008582D20053
:1019C0000000A0000202520083825A00030031008E
:1019D0000202420083824A000000A1000603E900DF
:1019E000F3FF3A0000000600889FBE008A9FBE00F9
:1019F000010578000100E0000400350008003C000B
:101A00000000E000200032000500370060001000F8
:101A1000E080180002003B0001F02C001A003700A3
:101A20000004BE006011B8006B0920000982CF00DD
:101A3000020039000882CF000441B0006942520020
:101A40000E00320008003B008281710061016400D9
:101A50008904D1000884D3008B05E8000442E80023
:101A6000F9FF3A00050037000804440089844C005F
:101A70008B05E9000442E900FBFF3A00FA00070089
:101A80000AF0A70001F0A0004F05BE004F04BE0001
:101A900000000600889FBE008A9FBE008C1F780051
:101AA000170107001E01330003866C006450E1003B
:101AB0002E0032006420E100330032006150E1006A
:101AC0002F0032006120E100310032008585550091
:101AD000EB07B000090020000804200005003700D3
:101AE0000804440089844C000A00310006034300C6
:101AF00087834B000001530081815B00F8FF3300B6
:101B00000203BE000800A0000804440089844C00C1
:101B1000F6FF3900C639DD00830173000100320091
:101B2000130020008904D1000884D3000998A30081
:101B3000050032000800A7000300A0008904D100BE
:101B40000884D3008B05E8008904D1000884D30001
:101B50000001EB000281D200C300070001F0A100E8
:101B60000CF0A70001F0A000F60037006420E100AF
:101B7000F80032000801BE000200BE00F7FF370087
:101B80006120E100F30032006000B800F3FF37008D
:101B90000000200001F82700F0FF37000001BE0020
:101BA000EF0007000470A70003F0A1006509B10071
:101BB000160032000D0035006828E10006003500EF
:101BC000F0FF2F00F1FF27000300E00013003B00AF
:101BD000010028000000050000004000818048004E
:101BE0008502E900FCFF3A0008003700F88F420048
:101BF00002003C008000EB00000005008100D100E5
:101C00000080D3008502E800FCFF3A000300E000FA
:101C100002003B0060001000E08018000000060099
:101C200003F0A200889FBE008A9FBE008C1F780030
:101C3000B3000700BA0033006450E1004F003200E7
:101C40006420E1005200320003826C0007003B0078
:101C50000905D0000306D000820F54000C065D0079
:101C60000200390002003200890178000306780082
:101C70008582550004003D000003FD008103FD0046
:101C80008502EA008B854200840F720002003B004F
:101C900060001000E08018006011B8000005EB0043
:101CA0007A28E1000A00390006007800C75DDD00EF
:101CB000F707B200878075002D0037008281710020
:101CC0000A017800610560008180D1000080D300A6
:101CD0008502E900F9FF3B000604400087844800C4
:101CE00002003B0060041400E0841C000988A3008B
:101CF000070032008A8171008281710061016400F5
:101D00008904D1000884D3008B05E8001700370050
:101D10000978A30013003A000B00E0001300340020
:101D20008B05E9000804440089844C000A447400CF
:101D30000978A3000D003A000B00E0000700340012
:101D40008B05E9000804440089844C0001003A0036
:101D50000B0020000978A300F7FF32000001EB0020
:101D600002003700828171000A0178003E000700FE
:101D70000CF0A70001F0A000720037006420E10021
:101D800002003A00838F6C00720033000801BE002D
:101D90000200BE006B003700889FBE008A9FBE0015
:101DA0008C1F7800560007005D00330003866C002E
:101DB0006450E100240032006420E100270032007A
:101DC0006150E100220032006120E1002100320078
:101DD0008B854200EB07B1000134B800003AB8002F
:101DE0000804420089844A00013AB8000030B80073
:101DF0008880400009014A000400330000004000D0
:101E000081804800020149008B05E900C909DD0015
:101E1000830170000100320013002000C814DE00AE
:101E20004814DD004709DE001200B200C808DE00D9
:101E3000088470000C00070001F0A1000CF0A7005E
:101E400001F0A0003F0037006120E10041003200B6
:101E50000801BE000200BE00F7FF37006150E1003C
:101E6000FCFF3A003B0037008100200061805500F4
:101E70000B003D000B00200061FE2F000100E1007F
:101E80001D00340082817100610164008904D10069
:101E90000884D3000000E800FAFF3A007100200037
:101EA000610064000300700002006000090032005D
:101EB00061044400E0844C000988A500050032005C
:101EC0008B05E8006808E10002003A008904D100AF
:101ED0000884D300F20F20000258E10005003D0005
:101EE000C75DDD00F907B200898075000800780041
:101EF000000006000BF827008B00780000000500AA
:101F00000004BE00160007000003BE000405BE006A
:101F10000200BE0012000700844F7500000006009A
:101F20000200BE006450E100050036006420E100BC
:101F3000020036000968A30001003A000800BE0054
:101F40000160A0004F0678004F05BE004F04BE00A0
:101F500000000600F0FF2F00F1FF2700F9FF370017
:101F6000C70ADE00F107B200F50FB2000800320028
:101F7000E1CF4200020032000170A0002400050001
:101F8000810F7000010032000408050044000500C4
:101F9000810F700002003A00140005008502E9007C
:101FA0000000400081C04800FCFF3B000170A00021
:101FB000240005000400FA004C0007000000370070
:101FC000C20E07000004E00043003200C50E070007
:101FD000004F78001E80FB00100798001E00900044
:101FE000EA0F5000070032001E009000ED0F500075
:101FF000040032001E009000E80F50001A0032006A
:1020000022003700E0AD2E00000C070010BD80005C
:102010000000E00003003A0010AE2E00FB0B0700AA
:102020000B00370010BD8000E10F500005003A00A2
:1020300000C8BF00920007000004E0000100320069
:102040000300370010BD800001802000A9010700B7
:102050003E050700E0C3B300AE0E07000000EB0032
:1020600010BD88001C00370010BD80000000E0009B
:102070000300320010BD80000000E90010BD8800A0
:102080001E407800A30E07001300370011BD80002A
:1020900000802000008040001E48780010BD8000B5
:1020A0000000E80010BD880011BD800000FA20008B
:1020B000808F500006003A00E0AD2E00D30B0700E1
:1020C000B0AF2E00D10B07000000EB0010BD880060
:1020D0001E4078008F0E070055DABF00E24F500017
:1020E000B7FF3A0023050700B5FF37000000FA00EC
:1020F0004507A9000080EB00601988004227A9006D
:10210000416A20009140780000CEB30000C060001A
:102110000014A000A4E6B700316C200091407800C4
:1021200000CEB30000C060003040B300C3E6B7008B
:10213000C5040700530E070010C1B300750E070059
:10214000E0AD2E00B10B0700E0040700FF0407001C
:10215000E0C3B3006F0E07000080FA000000060025
:102160000600FA00004F78001147980022479800B7
:1021700055DABF000080FB00200798002E00900079
:10218000E40F5000260032002E009000E40F5000B3
:102190000A003C002E009000E20F500018003200B0
:1021A0002E009000E20F500019003C002E0090001D
:1021B000E10F50000E0032002E0037002E0090007C
:1021C000E60F50001E0032002E009000E60F500077
:1021D000170035002E009000E70F50001C00320061
:1021E0002E009000E80F50001E0032002100370042
:1021F0009E4090001E4078000D1D07001E00370015
:102200009E4090001E4078002A0F07001A003700F9
:102210009E4090001E407800820E07001600370096
:102220009E4090001E4078006909070012003700A8
:102230009E4090001E407800F91007000E00370005
:102240009E4090001E407800D20507000A0037002B
:102250002E4190009E4090001E4078009B07070092
:10226000050037009E4090001E40780023200700A4
:1022700001003700CA82A9000080FA0000000600B1
:102280000800FA00004F78001E80FB006101B900D1
:1022900010FC2F00F1FF2F00020140008381480055
:1022A00022079800330798007003200001002000E7
:1022B0002E019000BE019000800F5100818F5900C7
:1022C00004013E002E009000BE009000006001005E
:1022D000BC003700FF003700FE003700E600370083
:1022E000CD003700FB003700FA003700C800370088
:1022F000F8003700F7003700F6003700F500370028
:10230000F40037009000370029003700F100370053
:10231000530037005A003700EE003700ED00370059
:10232000EC003700EB003700EA0037006C003700A4
:10233000E8003700E7003700E6003700E500370027
:10234000E4003700E3003700E2003700E100370027
:10235000E0003700DF003700DE003700C60037003E
:10236000AD003700DB003700DA003700A800370087
:10237000D8003700D7003700D6003700D500370027
:10238000D40037007000370009003700D100370053
:10239000330037003A003700CE003700CD00370059
:1023A000CC003700CB003700CA0037004C003700A4
:1023B0000041EB008040EB00A0CCB30068FF0700B9
:1023C000420407000040EB0026FAB7000F00370078
:1023D00026DABF000040E800200D070010732D0032
:1023E0000A0B070026DABF000080FB0080004000D7
:1023F000C09721000080400010007800190B0700F2
:1024000026DABF000040E80026FAB70026DABF004F
:10241000E84F5000EEFF360040732D00FB0A070026
:1024200090C0B3007C0D07000040E90055FAB700EA
:10243000A0732D000B0B07000041EB008040EB0068
:1024400080CCB30046FF0700CA82A8000041EB0021
:102450008040EB0090CCB30041FF0700A0003700A4
:1024600030742D00E90A070040C0B3006A0D070070
:1024700056FAB70050772D00FA0A07009800370087
:1024800050782D00E10A070020C0B300620D07005C
:102490000040E90061406000614060004501DD00EE
:1024A00071A5210091407800F0CDB30000C060001C
:1024B0000240700057FAB70057DABF000042B2007E
:1024C0000004E00003003A0030C0B300220A070015
:1024D0008300370030C0B300170A070080003700C0
:1024E00021E3A800B07A2D00C80A070090C0B3000D
:1024F000930D070020D1880020D180009D0D07009A
:10250000A0C0B3008E0D070020D18800107C2D00E4
:10251000BE0A070020D18000960D0700B0C0B300AE
:10252000870D070020D18800B07C2D00B70A070076
:1025300020D180008F0D0700807D2D00C90A070083
:1025400021E3A9006600370057DABF00644060004D
:102550000004E00003003A00C0C0B300A10A070075
:102560005F003700B07D2D00A80A070020C0B3002F
:10257000290D07000040E9006140600061406000F3
:102580004301DD0071A521009140780070CFB300B8
:1025900000C060000240700057FAB70057DABF0071
:1025A000684060000004E00003003A0000802D0055
:1025B000AC0A07004A003700C0812D00A90A0700B5
:1025C000470037000040EB0026FAB7000C00370048
:1025D00026DABF000080FB0080004000E098210068
:1025E0000080400010007800880A070090832D00CA
:1025F000860A070026DABF000040E80026FAB70086
:1026000026DABF00FC4F5000F1FF360034003700DF
:10261000D909070032003700C0832D007B0A07006C
:1026200020C0B300FC0C07000040E90061406000DE
:10263000614060000041400071A521009140780098
:10264000D0CFB30000C060000240700057FAB7005E
:1026500057DABF00624060000004E00003003A0067
:10266000B0862D007F0A07001D003700A0882D00CE
:102670007C0A07001A003700308A2D00630A070021
:1026800090C0B300E40C07000040E90054FAB70022
:1026900070922D005D0A0700FA0C07000000370059
:1026A00085C0BF00684060000004E000FCFF32000D
:1026B0003011800026FAB7008560A90061A22100D0
:1026C0009140780000C2B30080CF50000400320077
:1026D000F3FF37008000EB0011079800020037007D
:1026E00012002000120798001E0090000080FA00DF
:1026F000000006000800FA00000F7800110798009B
:1027000055DABF000004E00003003A00A0952D0058
:102710003E0A0700900137000000EB00C0D188009E
:1027200085013700C0D18000800078001E00900035
:102730000080400010407800DF01070027FAB70052
:1027400027DABF000080FB006101B9002207980072
:102750003307980030062000010020002E01900071
:10276000BE019000800F5100818F590068013E002A
:102770002E009000BE00900000600100880037002D
:1027800063013700E900370061013700600137005D
:102790005F013700770037005D0137005C013700CB
:1027A0005B0137005A0137005901370058013700E3
:1027B00057013700560137005501370054013700E3
:1027C00053013700520137005101370050013700E3
:1027D0004F0137004E013700920037004C0137009F
:1027E0004B0137004A0137004901370048013700E3
:1027F00047013700460137004501370044013700E3
:1028000043013700420137004101370040013700E2
:102810003F0137003E0137003D0137003C013700E2
:102820003B0137003A0137003901370038013700E2
:1028300037013700360137003501370034013700E2
:1028400033013700310037003200370033003700E2
:102850006600370033003700360037003900370094
:102860002B0137002A0137002901370028013700E2
:1028700027013700260137002501370024013700E2
:1028800023013700220137002101370020013700E2
:102890001F0137001E0137001D0137001C013700E2
:1028A0001B0137001A0137001901370018013700E2
:1028B00017013700160137001501370014013700E2
:1028C00013013700120137001101370010013700E2
:1028D0000F0137000E0137000D0137000C013700E2
:1028E0000B0137000A0137000901370008013700E2
:1028F00007013700060137000501370004013700E2
:10290000030137000201370005013700D008070036
:1029100003013700DC08070001013700E808070061
:10292000FF003700C282A80040972D00CD090700A4
:10293000FB003700C282A90080982D00C90907005A
:10294000F700370021E3A800D0992D00AF09070058
:10295000C0C0B3007A0C0700A0D18800A0D18000CD
:10296000840C0700D09A2D00BE09070021E3A900BE
:10297000EB0037001E01900081A321001E007800AB
:10298000F7000700A0D18800A0D180008040780027
:102990000041EB0060C0B300F1FD0700E00037002C
:1029A0001E01900081A321001E007800EC000700AA
:1029B000A0D18800A0D18000E10F500005003A00AE
:1029C0000041EB008040EB000040EB00E4FD07001D
:1029D000D3003700A0D18000804078000041EB0098
:1029E00010C0B300DEFD0700CD0037001E019000CF
:1029F00081A321001E007800D9000700A0D1880023
:102A0000309B2D0081090700A0D18000D40B070066
:102A1000A09B2D007D090700A0D18000510907006F
:102A2000BF0037000000EB00A0D18800C0D18000BB
:102A30000000E800C0D18800C0D180009E0F500087
:102A400004003A00C0D180000000E900C0D1880035
:102A500030003700C0D18000800078001E00900058
:102A60000080400090407800F0C2B30080CF50005A
:102A70001A003600C0D18000800078001E0090004F
:102A80000080400090407800F0C3B30080CF500039
:102A900012003E00A0D180006A00B900A0D18800D9
:102AA000C0D18000800078001E00900000804000AF
:102AB000104078008080FB00A0D180008080400022
:102AC00000FD2F0000804000A0D18800C0D1800010
:102AD0000000E800C0D18800D7FF3700C0D18000D7
:102AE000800078001E009000008040009040780038
:102AF00090C2B30080CF500006003200C0D18000E9
:102B00000000E900C0D18800B0D180000000E800DA
:102B1000B0D18800A0D18000804078000041EB0057
:102B200070C1B3008EFD07007D0037000000EB0090
:102B3000A0D188000040EB0029FAB700C0D1800086
:102B40009E0F500004003A00C0D180000000E90050
:102B5000C0D1880053003700C0D1800080007800C9
:102B60001E0090000080400090407800F0C2B3004A
:102B700080CF500008003600C0D18000800078006F
:102B80001E009000008040009040780090C3B30089
:102B900080CF500030003600C0D180008000780027
:102BA0001E009000008040009040780000C4B300F8
:102BB00080CF500008003600C0D18000800078002F
:102BC0001E009000008040009040780060C4B30078
:102BD00080CF500020003600C0D1800080007800F7
:102BE0001E009000008040009040780000C6B300B6
:102BF00080CF500008003600C0D1800080007800EF
:102C00001E009000008040009040780060C6B30035
:102C100080CF500010003600C0D1800080007800C6
:102C20001E009000008040009040780080C7B300F4
:102C300080CF500008003200C0D1800080007800B2
:102C40001E009000008040009040780080C6B300D5
:102C500080CF500010003A00A2D18000C0D1800087
:102C6000800078001E0090000080400090407800B6
:102C700080A221000000410001487800A0D180001E
:102C80000000E800A0D18800C0D180000000E8006A
:102C9000C0D18800A9FF3700C0D180000000E90042
:102CA000C0D18800A0D1800081A22100600107006E
:102CB00027FAB7001E01900081A321001E007800B2
:102CC00027000700A0D18800A0D18000E10F5000AC
:102CD00006003A0071A22100914078000041EB000B
:102CE00020C0B3001EFD070006003700A0D1800001
:102CF0000041780071A221009140780030C0B300FB
:102D000017FD07000000EB00A0D188000400370089
:102D100027DABF000041EB008040EB0010FD070008
:102D2000B0D180000000E00006003A00C0D1800071
:102D30000000E800C0D18800C0D180009E0F500084
:102D400078FE3900B0D180000000E00002003200BF
:102D5000F09B2D00AD0807000080FA00000006007F
:102D60000A00FA001007980021079800320798001F
:102D70000000EB00000F78002E009000100078009B
:102D80008000E8001E009000808F50004500310058
:102D90002E00900010007800800078003E00900027
:102DA000008040000000E80090407800A0C3B3001D
:102DB00080CF50003B003A002E00900010007800B9
:102DC0008080E8002E009000010878002E0090001E
:102DD000900078001E009000808F500004003900A1
:102DE0002E0090000080E900200798002A0037009C
:102DF0002E00900010007800800078003E009000C7
:102E00000080400090407800F0C2B30080CF5000B6
:102E10001C0036002E009000100078008000780022
:102E20003E0090000080400090407800F0C3B30066
:102E300080CF500013003E001E0078006A00B900E9
:102E4000000F78002E0090001000780080007800BD
:102E50003E00900000804000104078000080FB00A1
:102E60009E00400000FD2F00008F40002E009000CB
:102E7000100078008000E8002E0090000108780023
:102E8000D2FF37002E009000100078008000E9008B
:102E90002E009000010878001E007800400798007E
:102EA0000200370010002000400798004E009000FC
:102EB0000080FA00000006000800FA00004F7800C9
:102EC000F0C2B3009E4F100006003600F0C3B300FE
:102ED0009E4F100003003E002000200010079800C5
:102EE000D00037001E80FB006101B90060FF2F0099
:102EF000F1FF2F0002014000838148002207980063
:102F00003307980030072000010020002E019000B8
:102F1000BE019000800F5100818F5900BF003E001C
:102F20002E009000BE00900000600100AC00370051
:102F3000BA003700B9003700AC003700B7003700DF
:102F4000B6003700B5003700B4003700B3003700D3
:102F5000B2003700B1003700B0003700AF003700D3
:102F6000AE003700AD003700AC003700AB003700D3
:102F7000AA003700A9003700A8003700A7003700D3
:102F8000A6003700900037007A003700A300370012
:102F9000A2003700A1003700A00037006000370012
:102FA0009E00370061003700630037009B00370048
:102FB0009A00370087003700800037007000370024
:102FC00072003700950037009400370093003700F7
:102FD0009200370091003700900037008F003700D3
:102FE0008E0037008D0037008C0037008B003700D3
:102FF0008A003700890037008800370087003700D3
:1030000086003700430037003C003700830037005C
:10301000820037007E003700800037007F003700D5
:103020007E0037007D0037007C0037007B003700D2
:103030007A003700790037007800370077003700D2
:1030400076003700750037007400370046003700FF
:103050007200370071003700700037006F003700D2
:10306000650037006D0037006C0037006B003700DB
:103070003700370048003700380037004900370074
:103080004B003700650037001F0037006300370032
:10309000620037005E003700600037005F003700D5
:1030A0005E0037005D0037005C0037005B003700D2
:1030B0005A003700590037005800370057003700D2
:1030C00056003700550037005400370026003700FF
:1030D0005200370051003700500037004F003700D2
:1030E000480037004D0037004C0037004B003700D8
:1030F0001400370049003700180037002103200072
:10310000110798004700370032032000120798008B
:1031100044003700430320001307980041003700A4
:1031200050032000100798003E0037007101200076
:10313000110798003B003700320620001207980064
:10314000380037005301200013079800350037007E
:103150004001200010079800320037006101200074
:10316000110798002F0037000001EB0012079800AC
:103170002C00370043002000130798002900370077
:103180005000200010079800260037007100200032
:1031900011079800230037008200200012079800D2
:1031A0002000370063002000130798001D0037003F
:1031B000A0002000100798001A003700910020009E
:1031C00011079800170037003206200012079800F8
:1031D0001400370033062000130798001100370051
:1031E00030062000100798000E003700310620003E
:1031F000110798000B0037006203200012079800A7
:1032000008003700730320001307980005003700FB
:10321000800320001007980002003700F10F200003
:10322000110798001E0090000080FA0000000600C0
:103230000800FA0020479800210798000040EB00A2
:10324000104798002E0090000000E8001040780021
:103250000080FB003007980080062000BE00900030
:10326000808F50000900320080072000BE009000CF
:10327000808F50000500320020062000BE00900024
:10328000808F5000400032005500370020C0B3004E
:10329000004F7800380037001E4090000080FB008F
:1032A0004400DD00104798001E80FB00800078007D
:1032B0002E0090000080400090407800F0C3B300E2
:1032C00080CF50000C003E001E80FB008000780084
:1032D0002E00900000804000904078001E4090003A
:1032E00000C040008040780000CDB30000C0400026
:1032F000104798001F0037001E80FB0080007800F8
:103300002E009000008040009040780060C4B30020
:1033100080CF50000C003E001E80FB008000780033
:103320002E00900000804000904078001E409000E9
:1033300000C040008040780090CCB30000C0400046
:10334000104798000B0037001E80FB0080007800BB
:103350002E00900000804000904078001E409000B9
:1033600000C040008040780090CAB30000C0400018
:10337000104798001E4FE8002E4090009E4F10000E
:10338000C5FF39002C00370020C0B300004F780083
:103390000F0037001E40900000404000104798008A
:1033A0001E80FB00800078002E009000008040000E
:1033B0009040780010C3B30080CF500003003A0063
:1033C0001E4090000004A000104798001E4FE80027
:1033D0002E4090009E4F1000EEFF3900160037007F
:1033E0000040EB00004F7800100037001E409000B6
:1033F0000080FB006A00B900104798001E80FB00A7
:10340000800078002E0090000080400090407800FE
:103410001E40900000C040008040780000CDB30006
:1034200000C04000104798001E4FE8002E4090005A
:103430009E4F1000EDFF39001E4090000080FB0001
:103440000080FA00000006000000FA00411680002B
:1034500000FC20000080700040168800511680009B
:10346000F0032F00008060005016880080C0B30079
:1034700054FAB7000040EB0055FAB70010C0B30093
:1034800056FAB700571AA900573AA900577AA90067
:10349000575AA90057BAA900579AA900CA82A90089
:1034A000C882A900C082A900C282A900C8A2A9003E
:1034B000CAA2A9002D23A9002D43A9002D63A900AC
:1034C0002D83A9000080FA00000006000000FA0029
:1034D0004116800000FC200000807000401688002B
:1034E00051168000F0032F00008060005016880005
:1034F0000040EB0055FAB700571AA900573AA90047
:10350000575AA900577AA90057BAA900579AA90093
:10351000C282A900CA82A90001322000914078002D
:1035200000CEB30000C0700020E3B7000000EB0045
:103530008019880020F02100201988000000EB008D
:10354000101988000080FA00000006000000FA0050
:1035500055DABF000080FB0080004000C0972100CA
:103560000080400010007800A80607000080FA00E4
:10357000000006000000FA00DA0A07000080FA00E6
:10358000000006000800FA00004F780011079800BC
:103590004247980080000700E0CFB3001E40600063
:1035A00046000700B50007000004E00011003A00E3
:1035B000890007000000EB00300798001600370074
:1035C0001E009000104078003C000700AB00070090
:1035D0000004E00004003A007F0007000000EB0058
:1035E000300798000C0037001E0090000000E80033
:1035F000100798004E4090000040E90040479800B6
:103600004E409000E14F4000EDFF3A00720007008D
:1036100010002000300798003E0090000080FA0063
:10362000000006000800FA00004F7800110798001B
:1036300042479800580007001E4078000004A00090
:103640001E0007008D0007000004E0000F003A0094
:10365000610007000000EB003007980014003700FD
:1036600032000700804078001E009000014878007A
:103670001E0090000000E800100798004E409000E7
:103680000004E00001003400970007004E40900065
:103690000040E900404798004E409000E14F400054
:1036A000EFFF3A004C0007001000200030079800A0
:1036B0003E0090000080FA00000006000400FA00BE
:1036C00020479800CB22A900CB02A90040C6B30036
:1036D0009000070080C0B300004F78000D00370055
:1036E0002E4090000004E00003003500CB22A9002A
:1036F000C922A90001003700C922A8002E4090006D
:103700000000FB0000004000204798003A0007003E
:103710001E4FE9001E04E000F1FF3C00C922A80092
:10372000100020000080FA00000006000200FA00ED
:103730000040EB00004F7800CB22A900CB02A9008B
:1037400040C6B3007300070080C0B3001047980064
:103750000B0037001E00FB0000004000004F780007
:10376000C922A8002F0007000004E0000100320079
:103770001E4FE8001E4090000040E90010479800EE
:103780001E4090000004E000F2FF3C001E00FB0021
:103790000080FA00000006000000FA00C922A8001C
:1037A000C902A800CB02A900CB22A90020C3B30004
:1037B00058000700C922A900CB22A90020C3B300EA
:1037C00054000700C902A90040C6B3005100070019
:1037D0000080FA00000006000000FA00C922A900DB
:1037E000C902A80020C3B3004A000700C922A800EC
:1037F0000080FA00000006000000FA0040C1B3009B
:1038000044000700C902A80040C6B30041000700F9
:10381000C902A90040C6B3003E0007000080FA00BC
:10382000000006000200FA000040EB00004F7800A4
:1038300040C1B30037000700C902A80020C3B3008D
:1038400034000700CBC2BF00624060000004E0000B
:103850000200320010C0B300004F780020C3B30054
:103860002C000700C902A90040C6B30029000700C8
:103870001E00FB000080FA00000006000200FA00B3
:10388000CB22A900CB02A900C902A900C922A80025
:10389000C902A80020C3B3001E000700CBC2BF00AE
:1038A000624060000004E000030032000000EB0012
:1038B000000F78000900370020C3B300150007008F
:1038C000C902A90040C6B3001200070040C6B300F9
:1038D0001000070010002000000F78001E00780084
:1038E0000080FA00000006000000FA00CB22A900C8
:1038F000C922A90040C1B30006000700BEFF0700AF
:10390000C922A80040C1B300020007000080FA00ED
:10391000000006000400FA00204798000040EB0079
:10392000004F780013003700000000000000000086
:103930000000000000000000000000000000000087
:103940000000000000000000000000000000000077
:103950000000000000000000000000000000000067
:1039600000000000000000001E4078000040E80059
:10397000004F78001E4078008080FB002E409000B1
:103980000000FB00808F5000E7FF35000080FA0048
:10399000000006000600FA00004F7800114798006A
:1039A0001E80FB0020079800AE009000E98F5000B9
:1039B000A80032002E009000E90F50001D003C00CE
:1039C000AE009000E48F5000810032002E00900085
:1039D000E40F50000A003C00AE009000E18F500060
:1039E0005A0032002E009000E20F50006F003200AB
:1039F000AE0090000100E0004B003200B200370042
:103A00002E009000E60F500083003200AE009000C0
:103A1000E68F5000770035002E009000E70F500031
:103A200084003200AE009000E88F50008500320024
:103A3000A50037002E009000F60F5000360032002F
:103A4000AE009000F68F500007003C002E00900062
:103A5000EA0F500083003200AE009000F48F500057
:103A60009900350028003700800C2000AE0090003F
:103A7000808F500011003200800C2000AE009000BA
:103A8000808F500004003C002E009000F70F500083
:103A9000780032008C003700900C2000AE009000BF
:103AA000808F500014003200A00C2000AE00900067
:103AB000808F50008600320083003700575AA800DC
:103AC000207C2E005105070020C0B300D20707005C
:103AD0000040E9006140600061416000E1A6210012
:103AE00091407800E0CFB30000C060000240700059
:103AF0006EFAB7007600370077000700B0812E001D
:103B000058050700720037007A000700A0822E00D7
:103B1000540507006E0037008200070060842E0005
:103B2000500507006A0037001E4078002D05070089
:103B3000C60007006CFAB7006CDABF008807070000
:103B400000862E0031050700610037001E40780016
:103B5000240507001E4090008107070030862E00D4
:103B60002A0507000000EB0050D38800070037004B
:103B7000B60007007A070700D0862E00230507004D
:103B800050D380000000E80050D388001E40900011
:103B90008080FB0050D38000808F5000F4FF3E00F7
:103BA00000862E0019050700490037001E407800E6
:103BB0000C0507001E409000770007001E40900093
:103BC0006707070000862E00100507004000370039
:103BD000CB0007006CFAB7001E4078000105070013
:103BE0006CDABF0081070700F0862E00070507008A
:103BF000370037001E407800FA040700E500070090
:103C00006CFAB7006CDABF007807070070882E00E6
:103C1000140507002E0037001E40900050070700D3
:103C20001E407800EF0407001E409000CC00070003
:103C3000270037001E407800EA0407000A01070049
:103C4000230037001E407800E6040700FF0007004D
:103C50001F0037001E407800E2040700E000070064
:103C60001B0037001E407800DE040700D500070067
:103C7000170037001E4090000080FB0010079800DE
:103C80001E009000E10F5000090032009E009000DD
:103C9000E28F5000070032001E0090000000E0009C
:103CA00001003200050037009709070008003700BF
:103CB0009A090700A709070005003700B0C0B30044
:103CC000C804070002003700C0C0B300C5040700E5
:103CD0000080FA00000006000000FA00CB02A900F4
:103CE000CB22A900C922A800C902A9000080FA00BD
:103CF000000006000000FA00CB02A90040C1B3009A
:103D000098040700B6000700D700070040C1B300C1
:103D100094040700AB000700CC0007000080FA0005
:103D2000000006000000FA0013000700A5000700CD
:103D3000CD000700AA00070040C1B30089040700B6
:103D4000C20007000080FA00000006000000FA0030
:103D5000CB02A900C902A90040C1B3008104070039
:103D6000C922A800CB22A90040C1B3007D040700EE
:103D70000080FA00000006000000FA00CB02A90053
:103D8000C902A90040C1B30076040700C922A900F6
:103D90000080FA00000006000600FA004047980084
:103DA0004E40900020479800F3FF070057DABF000D
:103DB000684060000004E00003003A0000C8B3005F
:103DC000104798000200370010C0B3001047980059
:103DD0000040EB00004F7800170037002E409000A5
:103DE0009E409000014060000004E00002003A00A4
:103DF00074000700010037007900070057DABF00A0
:103E0000684060000004E00004003A002E4090008A
:103E10000040400020479800040037002E409000EA
:103E20000080FB000000D1002047980010C0B300C4
:103E30004B0007001E4FE80070C0B3009E4F1000FB
:103E4000E6FF36000080FA00000006000400FA00D9
:103E50000040EB00004F7800BCFF07000040EB0083
:103E600020479800200037007F000700CBC2BF002A
:103E70000080FB000000D100614060001047980006
:103E800057DABF00684060000004E0000B00320019
:103E90001E80FB000000D100004F78001E40900003
:103EA0000004E0000C0032001E40780001C8B3009E
:103EB00001404000004F7800070037001E407800A6
:103EC00000404000004F78001E4090000004E000D9
:103ED000010032001E4FE8005C0007002E409000F9
:103EE0000040E800204798002E409000E74F500027
:103EF000DDFF36001E80FB000080FA000000060097
:103F00000200FA0091FF070057000700CBC2BF0074
:103F10000080FB000000D10061406000004F78008D
:103F20004A0007001E80FB000080FA000000060027
:103F30000200FA00004F78008FFF07001E04E00027
:103F400002003A001F0007000100370024000700AC
:103F500010C0B300020007000080FA000000060055
:103F60000400FA00204798000040EB00004F780062
:103F7000030037003C000700340007001E4FE80034
:103F80002E4090009E4F1000FAFF39000080FA008A
:103F9000000006000000FA00C922A800000000008E
:103FA0000000000000000000CBC2BF000080FB004A
:103FB0000000D100614060000080FB000080FA003A
:103FC000000006000000FA00CB22A900C922A900C7
:103FD00040C1B300E30307000080FA0000000600C0
:103FE0000000FA006EDABF006140600000C0EA0025
:103FF000614060006140600000414000912C200061
:1040000091407800D0CFB30000C060000240700043
:10401000C9E2B7006EDABF00614060006140600035
:1040200000414000B12C200091407800D0CFB30077
:1040300000C0600002407000CBE2B70040C1B30096
:10404000C80307000080FA00000006000000FA0024
:10405000CB02A900C902A90040C6B300C1030700F2
:104060000080FA00000006000000FA006EDABF00CF
:104070006140600000C0EA00614060006141600092
:10408000912C200091407800E0CFB30000C0600088
:1040900002407000C9E2B7006EDABF006140600004
:1040A00061416000B12C200091407800E0CFB30066
:1040B00000C0600002407000CBE2B70040C6B30011
:1040C000A80307000080FA00000006000600FA00BE
:1040D000004F780011479800224798001E80FB008F
:1040E00020079800AE009000E88F5000A800320032
:1040F0002E009000E80F50001D003C00AE00900024
:10410000E38F50006B0032002E009000E30F500050
:104110000A003C00AE009000E18F50003A003200EF
:104120002E009000E10F500050003C00AE009000C7
:104130000100E0002A003200C70037002E00900086
:10414000E50F50007E003200AE009000E58F500079
:10415000710035002E009000E60F50008100320003
:10416000AE009000E78F500085003200BA003700A3
:104170002E009000F50F50000A003C00AE009000A9
:10418000F48F5000A2003D002E009000E90F500077
:1041900083003200AE009000EA8F500084003200AD
:1041A000AD0037002E009000F70F5000A70032003E
:1041B000AE009000F78F50009F003500800C20006B
:1041C000AE009000808F50007D003200900C2000E7
:1041D000AE009000808F5000880032009E003700B3
:1041E00000C0EB00AB00070072FAB7001E40780079
:1041F0007C03070072DABF00D905070020962E0065
:1042000082030700960037001E4078007503070000
:104210001E409000D205070050962E007B03070039
:104220000000EB0080D388000800370000C0EB00DE
:1042300098000700CA050700F0962E0073030700D8
:1042400080D380000000E80080D388001E409000EA
:104250008080FB0080D38000808F5000F3FF3E0001
:1042600020962E00690307007D0037001E4078006D
:104270005C0307001E409000B90507001E40900037
:104280008400070072FAB70074DABF006240600071
:104290000004E0000400320010972E005B030700CA
:1042A00072DABF00AE05070020962E005703070004
:1042B0006B0037001E4078004A0307001E40900044
:1042C000A705070090972E00500307002E4090008E
:1042D000A3050700D0972E00620307000000EB0043
:1042E00080D38800060037001E4090006900070058
:1042F00072FAB70080D380000000E80080D3880005
:104300002E4090008080FB0080D38000808F500082
:10431000F5FF3E005200370010C0B300A3000700B5
:1043200072FAB7001E4078002E03070072DABF0051
:10433000AE05070020962E00340307004800370022
:104340001E40780027030700A900070072FAB70093
:1043500072DABF00A505070020962E002B03070088
:104360003F0037001E4090007D0507001E4078008A
:104370001C0307001E409000C600070038003700ED
:104380001E40780017030700D600070034003700EE
:104390001E40780013030700CB00070030003700F1
:1043A0001E4078000F0307009F0007002C00370015
:1043B0001E4078000B030700940007002800370018
:1043C000575AA80040982E001003070020C0B300E1
:1043D000910507000040E900614060006141600014
:1043E00041A7210091407800E0CFB30000C06000F9
:1043F0000240700074FAB70019003700743AA9003F
:1044000019000700D09D2E00160307001400370086
:1044100050C1B3009E4F100002003A00743AA80049
:1044200001003700743AA900E2000700C09E2E0088
:104430000C0307000A003700743AA900C200070005
:10444000709F2E000703070005003700B0C0B300BF
:10445000E402070002003700C0C0B300E102070019
:104460000080FA00000006000000FA00C8E2A80080
:10447000C902A800C922A800CAE2A900CB02A9006B
:10448000CB22A900CAC2A800C8C2A9000080FA00B5
:10449000000006000600FA00404798008A00070066
:1044A00057DABF00684060000004E00003003200FB
:1044B00010C0B300004F78000200370000C8B300FE
:1044C000004F78000040EB00304798003000370084
:1044D0004E4090001E4060000004E00002003A00E0
:1044E0004A000700010037004F0007007D00070069
:1044F000CAC2BF000080FB004700DE0020479800D2
:1045000057DABF00684060000004E000100032008D
:104510004E4090000080FB000000D1004047980012
:104520001E4090000080FB000000D1001047980062
:104530002E409000E14F500011003A001E409000C4
:1045400001C8B30001404000104798000C0037003C
:104550004E40900000404000404798001E409000B0
:1045600000404000104798002E409000E14F50005E
:1045700003003A001E4090000040E80010479800F9
:10458000510007003E4090000040E800304798008E
:104590003E409000E74F5000CDFF36001E40900097
:1045A0000080FB000080FA00000006000400FA0012
:1045B000204798002E4090000004E00002003A00DE
:1045C0001200070001003700170007004500070030
:1045D000CAC2BF000080FB004700DE00004F780029
:1045E000390007001E80FB000080FA000000060072
:1045F0000000FA00CAC2BF000080FB004700DE00D6
:104600000080FB000080FA00000006000000FA00B5
:10461000CB22A900C922A90040C1B3005102070062
:104620000080FA00000006000000FA0074DABF0003
:104630006140600000C0EA006140600061406000CD
:1046400000414000912C200091407800D0CFB30071
:1046500000C0600002407000C9E2B70074DABF0019
:10466000614060006140600000414000B12C2000CA
:1046700091407800D0CFB30000C0600002407000CD
:10468000CBE2B70040C1B300360207000080FA0059
:10469000000006000400FA00204798000040EB00EC
:1046A000004F7800030037000E00070006000700E7
:1046B0001E4FE8002E4090009E4F1000FAFF390078
:1046C0000080FA00000006000000FA00CB02A900FA
:1046D000C902A90040C6B300220207000080FA0008
:1046E000000006000000FA0074DABF0061406000BC
:1046F00000C0EA006140600061416000912C200030
:1047000091407800E0CFB30000C06000024070002C
:10471000C9E2B70074DABF00614060006141600027
:10472000B12C200091407800E0CFB30000C06000C1
:1047300002407000CBE2B70040C6B3000902070098
:104740000080FA00000006000000FA0074DABF00E2
:104750006140600000C0EA006140600061406000AC
:104760004601DD00812C200091407800F0CBB300A1
:1047700000C0600002407000C8E2B70074DABF00F9
:1047800061406000614060004601DD00A12C200016
:1047900091407800F0CBB30000C060000240700090
:1047A000CAE2B70040C1B300EE0107000080FA0082
:1047B000000006000000FA00CAC2A900C8C2A90091
:1047C00040C1B300E70107000080FA0000000600C6
:1047D0000400FA00004F7800114798001E80FB008B
:1047E000100798009E009000F58F50000D003C00CF
:1047F0001E009000F40F500022003D009E0090002B
:10480000E18F5000370032001E009000E20F500090
:104810004D0032009E0090000100E00027003200B1
:1048200096003700800C20009E009000808F500082
:1048300057003200800C20009E009000808F5000B6
:1048400007003C001E009000F60F500017003200D9
:104850009E009000F78F50008500320087003700DF
:10486000900C20009E009000808F50007900320054
:10487000A00C20009E009000808F50007A00320033
:104880007E00370050C1B3009E4F100002003A0076
:104890007B7AA800010037007B7AA900DA000700C4
:1048A00060492E00EF01070076003700D2000700B4
:1048B000104A2E00EB010700720037001E407800FE
:1048C000C801070000C0EB00D300070078FAB7006A
:1048D00078DABF0022040700D04A2E00CB0107007F
:1048E000680037001E407800BE0107001E4090009F
:1048F0001B040700004B2E00C40107000000EB0062
:10490000B0D388000800370000C0EB00C2000700E9
:104910001304070000C2B3007E040700B0D3800078
:104920000000E800B0D388001E4090008080FB00AB
:10493000B0D38000808F5000F3FF3E00D04A2E009D
:10494000B20107004F0037001E407800A5010700A4
:104950001E409000020407001E409000AE000700B9
:1049600078FAB7007BDABF00684060000004E0001E
:1049700004003200A04B2E00A401070078DABF002B
:10498000F7030700D04A2E00A00107003D003700C2
:10499000575AA900204C2E009C01070040C0B300CC
:1049A0001D0407000040E9007AFAB70030502E00DD
:1049B0009601070020C0B300170407000040E9007B
:1049C0006140600061416000B1A721009140780022
:1049D000E0CFB30000C06000024070007BFAB70077
:1049E000D0532E008901070020C0B3000A0407003D
:1049F0000040E9006140600061406000004140000B
:104A0000B1A7210091407800D0CFB30000C0600072
:104A1000024070007BFAB70050582E007B0107005F
:104A200020C0B300FC0307000040E90061406000C3
:104A3000614060004201DD00B1A721009140780093
:104A4000B0CFB30000C06000024070007BFAB70036
:104A50000C0037007B7AA9000C000700B05B2E0029
:104A600080010700070037005200070005003700EB
:104A7000B0C0B3005B01070002003700C0C0B30044
:104A8000580107000080FA00000006000000FA004C
:104A900041E2A900816A20009140780000CEB30075
:104AA00000C060007040B300A8E6B700916C200021
:104AB0009140780000CEB30000C060007040B300A9
:104AC000C9E6B700816C20009140780000CEB300A9
:104AD00000C060000034A000C8E6B700CAC2A80049
:104AE000C8C2A900C902A900C8E2A800C922A90039
:104AF0007ADABF008080FB00C0A721000080400060
:104B0000104078008080FB000012200000807000C0
:104B1000101288007BDABF006140600061406000D5
:104B20004601DD002124200091407800F0CBB30045
:104B300000C060000240700042E2B7007BDABF00B4
:104B40000080FB000000D100614060006141600016
:104B50003124200091407800E0CFB30000C0600015
:104B60000240700043E2B7007BDABF000080FB0028
:104B70004200DE0061406000614060000041400092
:104B80003124200091407800D0CFB30000C06000F5
:104B90000240700043E2B7000000EB0020128800E2
:104BA0000000EB000012880041E2A8000080FA003B
:104BB000000006000000FA0041E2A900A8C6BF00FC
:104BC000F041B300A8E6B700916C20009140780056
:104BD00000CEB30000C06000C9E6B700816C2000C1
:104BE0009140780000CEB30000C06000C8E6B70076
:104BF0000080FA00000006000000FA00CAC2A80007
:104C00000080FA00000006000000FA00CAC2A900F5
:104C10000080FA00000006000200FA00004F780051
:104C20001E80FB004012880085C0BF006440600009
:104C30000004E000FCFF320040128000004F7800CA
:104C40008540A9001E80FB000080FA0000000600DD
:104C50000000FA0057DABF00624060000004E00084
:104C600003003A00C942A900CB42A8000200370065
:104C7000C8C2A900CAC2A800C0172E00F9000700C8
:104C80000080FA00000006000000FA0057DABF00BA
:104C9000624060000004E00003003A00C942A9003D
:104CA000CB42A90002003700C8C2A900CAC2A900AD
:104CB00050182E00EB0007000080FA0000000600EC
:104CC0000200FA0057DABF00624060000004E00012
:104CD00009003A00C942A8000000000000000000DE
:104CE000CBC2BF000080FB004200DE0061406000DC
:104CF000004F780008003700C8C2A800000000007C
:104D000000000000CAC2BF000080FB004600DE00B9
:104D100061406000004F7800D0182E00BB000700F3
:104D20001E40780031030700201A2E00B70007004C
:104D30000080FA00000006000200FA00004F780030
:104D4000CAA2A900C8A2A800501A2E00C5000700D8
:104D50000080FA00000006000200FA00004F780010
:104D6000CAA2A900C8A2A900901B2E00BD0007007E
:104D70000080FA00000006000000FA00C8A2A800A7
:104D80001FE1A90011E1A9006168200091407800AD
:104D900000CEB30000C060005040B30086E6B7000C
:104DA0001061A80010A1A8001081A8001021A8007F
:104DB0000080EB00700888000080EB00600888002D
:104DC0000000EB00400888000000EB00300888007D
:104DD0000000EB00B00888000000EB00A00888008D
:104DE0001E61A8001E81A9001EA1A9001E21A90004
:104DF0001EC1A900400F2000E008880000402200EA
:104E0000D00888008780A9001FE1A80011E1A80050
:104E100087C0BF00704060000004E000FCFF32006B
:104E200011E1A9001FE1A900E01C2E007700070096
:104E30003008800090D288004008800080D288002E
:104E400080D280000100200060D2880071D28800EA
:104E500060D2800071D28000C000DD000000200020
:104E600060D2880071D2880090D280006101B800C1
:104E700060D2800071D28000020040008380480030
:104E800060D2880071D2880060D2800071D2800028
:104E9000C808DD000080FD00804078000040EB0085
:104EA00060D2880071D2880060D2800071D2800008
:104EB000A3000700701E2E005400070062D280007D
:104EC00073D28000703E200001002000800F51004E
:104ED000818F59001C00360062D2800073D280009E
:104EE000F0232400F1002000800F5100818F590031
:104EF0000B003E00A01E2E004400070060D2800080
:104F000071D28000823E200003002000A6F207003C
:104F10008B000700D01E2E003C0007000A0037005F
:104F2000A01E2E003900070060D2800071D28000E0
:104F300002242400F30020009BF2070080000700F9
:104F4000201F2E0031000700201A2E002F0007001E
:104F500086C6BF00F041B30086E6B7000080FA00C5
:104F6000000006000400FA00204798000040EB0013
:104F7000004F780013003700000000000000000020
:104F80000000000000000000000000000000000021
:104F90000000000000000000000000000000000011
:104FA0000000000000000000000000000000000001
:104FB00000000000000000001E4078000040E800F3
:104FC000004F78001E4078008080FB002E4090004B
:104FD0000000FB00808F5000E7FF35000080FA00E2
:104FE000000006000200FA00004F78001E00FB00DF
:104FF00080004000809F2100008040001000780069
:10500000020007000080FA00000006000600FA0017
:1050100010079800020037001E407800BD0207000C
:105020001E009000104F78001E4078004047980006
:105030004E4090000004E0000200320010C0B300B7
:10504000404798004E4090009E0090008100E8008C
:10505000110798000004E000EFFF3A000080FA001A
:10506000000006000600FA00100798000200370052
:105070001E407800A70207001E009000104F780025
:105080001E407800404798004E4090000004E00029
:105090000200320010C0B300404798004E4090001C
:1050A0009E0090008100E800110798000004E000D5
:1050B000EFFF3A00D0C0B30096020700A0C0B300D3
:1050C000940207000080FA00000006000400FA00C5
:1050D0002047980000C8B300004F7800E02D2E0054
:1050E000CAFF07000040EB00104798000F00370090
:1050F0002E4090001E4060000004E00003003200DB
:1051000010C3B300830207000200370000C3B300DE
:10511000800207001E80FB000000D100004F7800D5
:105120001E4090000040E800104798001E4090008C
:10513000E74F5000EEFF36000080FA000000060046
:105140000C00FA0040079800510798004E009000AC
:10515000DE009000200798003107980000102E0014
:10516000515F2000008FBE001E01BE002E00900087
:10517000BE0090000CF20700E00F5000E08F5800D6
:10518000060032001E01BE002E009000BE009000FE
:1051900005F207000043B0005E0207001E01BE00DA
:1051A0002E009000BE009000FFF107000001BE003D
:1051B0001E13B8001E0090000090B900070278008E
:1051C000000242001E0078000380B9000002420085
:1051D000840378002E009000BE009000060050006E
:1051E0008780580020079800310798000068290040
:1051F00081092000008FBE001E01BE002E0090001D
:10520000BE009000E8F10700E00F5000E08F58006A
:10521000060032001E01BE002E009000BE0090006D
:10522000E1F107000043B0003A0207001E01BE0092
:105230002E009000BE009000DBF107000001BE00D0
:105240001E13B8001E0090000090B90007027800FD
:10525000000242001E0078000380B90000024200F4
:10526000840378002E009000BE00900006005000DD
:1052700087805800200798003107980000242400F8
:10528000F1002000008FBE001E01BE002E00900025
:10529000BE009000C4F10700E00F5000E08F5800FE
:1052A000060032001E01BE002E009000BE009000DD
:1052B000BDF107000043B000160207001E01BE004A
:1052C0002E009000BE009000B7F107000001BE0064
:1052D0001E13B8001E0090000090B900070278006D
:1052E000000242001E0078000380B9000002420064
:1052F000840378002E009000BE009000060050004D
:10530000878058002007980031079800006A28001D
:1053100011002000008FBE001E01BE002E00900074
:10532000BE009000A0F10700E00F5000E08F580091
:10533000060032001E01BE002E009000BE0090004C
:1053400099F107000043B000F20107001E01BE0002
:105350002E009000BE00900093F107000001BE00F7
:105360001E13B8001E0090000090B90007027800DC
:10537000000242001E0078000380B90000024200D3
:10538000840378002E009000BE00900006005000BC
:10539000878058002007980031079800007122008C
:1053A00001002000008FBE001E01BE002E009000F4
:1053B000BE0090007CF10700E00F5000E08F580025
:1053C000060032001E01BE002E009000BE009000BC
:1053D00075F107000043B000CE0107001E01BE00BA
:1053E0002E009000BE0090006FF107000001BE008B
:1053F0001E13B8001E0090000090B900070278004C
:10540000000242001E0078000380B9000002420042
:10541000840378002E009000BE009000060050002B
:10542000878058002007980031079800803E2000B0
:1054300001002000008FBE001E01BE002E00900063
:10544000BE00900058F10700E00F5000E08F5800B8
:10545000060032001E01BE002E009000BE0090002B
:1054600051F107000043B000AA0107001E01BE0071
:105470002E009000BE0090004BF107000001BE001E
:105480001E13B8001E0090000090B90007027800BB
:10549000000242001E0078000380B90000024200B2
:1054A000840378002E009000BE009000060050009B
:1054B0008780580020079800310798004006200098
:1054C00001002000008FBE001E01BE002E009000D3
:1054D000BE00900034F10700E00F5000E08F58004C
:1054E000060032001E01BE002E009000BE0090009B
:1054F0002DF107000043B000860107001E01BE0029
:105500002E009000BE00900027F107000001BE00B1
:105510001E13B8001E0090000090B900070278002A
:10552000000242001E0078000380B9000002420021
:10553000840378002E009000BE009000060050000A
:10554000878058002007980031079800A0002000AD
:1055500001002000008FBE001E01BE002E00900042
:10556000BE00900010F10700E00F5000E08F5800DF
:10557000060032001E01BE002E009000BE0090000A
:1055800009F107000043B000620107001E01BE00E0
:105590002E009000BE00900003F107000001BE0045
:1055A0001E13B8001E0090000090B900070278009A
:1055B000000242001E0078000380B9000002420091
:1055C000840378002E009000BE009000060050007A
:1055D0008780580020079800310798002E0090001F
:1055E0000043B0004B0107000080FA0000000600F5
:1055F0000A00FA00400798004E00900001002000C9
:105600002007980031079800007122000100200057
:10561000008FBE001E01BE002E009000BE00900054
:10562000E1F00700E00F5000E08F58000600320064
:105630001E01BE002E009000BE009000DAF00700B0
:105640000043B000330107001E01BE002E00900091
:10565000BE009000D4F007000001BE001E13B80089
:105660001E0090000090B90007027800000242007E
:105670001E0078000380B900000242008403780015
:105680002E009000BE009000060050008780580059
:105690002007980031079800803E2000010020007C
:1056A000008FBE001E01BE002E009000BE009000C4
:1056B000BDF00700E00F5000E08F580006003200F8
:1056C0001E01BE002E009000BE009000B6F0070044
:1056D0000043B0000F0107001E01BE002E00900025
:1056E000BE009000B0F007000001BE001E13B8001D
:1056F0001E0090000090B9000702780000024200EE
:105700001E0078000380B900000242008403780084
:105710002E009000BE0090000600500087805800C8
:105720002007980031079800400620000100200063
:10573000008FBE001E01BE002E009000BE00900033
:1057400099F00700E00F5000E08F5800060032008B
:105750001E01BE002E009000BE00900092F00700D7
:105760000043B000EB0007001E01BE002E009000B9
:10577000BE0090008CF007000001BE001E13B800B0
:105780001E0090000090B90007027800000242005D
:105790001E0078000380B9000002420084037800F4
:1057A0002E009000BE009000060050008780580038
:1057B0002007980031079800A00020000100200079
:1057C000008FBE001E01BE002E009000BE009000A3
:1057D00075F00700E00F5000E08F5800060032001F
:1057E0001E01BE002E009000BE0090006EF007006B
:1057F0000043B000C70007001E01BE002E0090004D
:10580000BE00900068F007000001BE001E13B80043
:105810001E0090000090B9000702780000024200CC
:105820001E0078000380B900000242008403780063
:105830002E009000BE0090000600500087805800A7
:1058400020079800310798002E0090000043B00018
:10585000B00007000080FA00000006000400FA0013
:10586000204798002E409000004F780030C6B300CB
:105870009E4F1000060036001E80FB0042062000EE
:10588000110009000280D8000043B000A100070009
:105890009E4178001E80FB00420620001100090096
:1058A0000280D8008080FB00400620000088B900FC
:1058B00000C05100004F780090C0B3009E4F100010
:1058C000060036001E80FB00A20020001100090027
:1058D0000280D8000043B0008E0007009E4178008F
:1058E0001E80FB00A2002000110009000280D800E9
:1058F0000080FB006A00B90000C05100004F780032
:105900001E4078000043B000820007000080FA00CB
:10591000000006000400FA0010079800102F2E0067
:10592000BAFD07001E0090004400DE006F0F60000B
:105930009E007800102E2E00614078007500070050
:105940001E0090006F0F60009E007800102E2E0049
:10595000614078006F0007000080FA000000060038
:105960000400FA00004F780056DABF000080FB0008
:10597000100798001E009000E20F50001100320046
:105980001E009000E20F500004003C001E0090003A
:10599000E10F500008003200120037001E00900096
:1059A000E30F50000A0032001E009000E40F500088
:1059B0000A0032000B0037001E80FB00D5FF0700F5
:1059C000080037001E407800A4FF070005003700DC
:1059D0001E407800BDFD0700020037001E40780021
:1059E0004C0007000080FA00000006000200FA00E8
:1059F000004F78001E04E00003003A0000C3B3002B
:105A0000440007000200370010C3B3004100070044
:105A10000080FA00000006000400FA002047980009
:105A200000003700290007000004E000FDFF3200FD
:105A30002C000700004F78001E407800350007005A
:105A40009E407800F0CCB30000C04000004F7800CA
:105A5000201A2E006DFD07002E4090009E4F100072
:105A600003003900402F2E0068FD0700EDFF3700CE
:105A70001E4078000040E8000080FB000080FA0033
:105A8000000006000000FA0054DABF000080FB00AE
:105A90008000400020A1210000804000100078001C
:105AA000401188000000EB00001188002062A8006F
:105AB0000000EB001011880021E2A8002342A8009A
:105AC0008560A9000080FA00000006000000FA00CE
:105AD00022C2BF00614060000080FB000080FA002D
:105AE000000006000200FA0022C2BF006140600010
:105AF0000004E000FCFF320030118000004F78000D
:105B00008560A9001E4078000080FB000080FA003C
:105B1000000006000200FA00004F78001E00FB00A3
:105B2000201188000000000023C2BF006140600017
:105B30000004E000FCFF32000080FA0000000600D4
:105B40000200FA00004F78001E80FB004019880018
:105B50002023A8002003A90020C3BF0061406000EB
:105B60000004E000FCFF3200001880000080FA0012
:105B7000000006000800FA00300798003E00900080
:105B8000CF80DE0098EF0700926C2200B331240032
:105B9000C0EF070010079800210798001E00900032
:105BA000AE009000FDEF0700004F78001E40780027
:105BB0002AFF0700E0C2B300D6FF07001E009000D6
:105BC000AE009000F5EF0700CF80DE0086EF070003
:105BD0000001BE001E009000AE00900010F0070013
:105BE00010079800210798000200200003122400EB
:105BF0001E009000AE00900067F0070010079800AC
:105C0000210798001E009000AE009000E3EF07000F
:105C1000004F78001E40780010FF07000080FA0057
:105C2000000006000600FA00004F780011479800B7
:105C30001E80FB0020079800AE009000F58F5000FA
:105C40000D003C002E009000F40F500056003D0067
:105C5000AE009000E18F5000290032002E0090002D
:105C6000E20F500041003200AE0090000100E00061
:105C70001900320084003700800C2000AE00900034
:105C8000808F500050003200800C2000AE00900049
:105C9000808F500007003C002E009000F60F50004F
:105CA00045003200AE009000F78F50004C003200EB
:105CB00075003700900C2000AE009000808F5000DF
:105CC00043003200A00C2000AE009000808F5000F6
:105CD0006F0032006C0037001E407800C1FC0700E6
:105CE00092F6070083FAB700FFF6070083DABF00D9
:105CF0001BFF0700E0892E00C4FC0700640037008A
:105D00001E407800B7FC07001E40900014FF0700FB
:105D1000108A2E00BDFC07000000EB0000D48800B4
:105D20000A00370081F6070082FAB700EEF6070096
:105D300082DABF000AFF0700B08A2E00B3FC07001A
:105D400000D480000000E80000D488001E409000CD
:105D50008080FB0000D48000808F5000F1FF3E0067
:105D6000E0892E00A9FC0700490037001E4078009A
:105D70009CFC07001E409000F9FE07001E409000AA
:105D80004EF60700BDF607000004E00003003A00ED
:105D9000D08A2E00B3FC07003D003700A08B2E00F8
:105DA000B0FC07003A0037007BF60700808C2E001D
:105DB00096FC07003600370087F60700E08D2E00BE
:105DC00092FC070032003700575AA9003000370014
:105DD00031000700308F2E008CFC07002C003700AC
:105DE0001E4090000080FB00100798001E009000ED
:105DF0000000E000040032009E009000E18F50009F
:105E0000040032001D003700F08F2E007FFC0700D9
:105E10001F00370070922E0092FC07000000EB007C
:105E200000D488000E0037005BF6070000D4800025
:105E300022F6070091F607000004E000040032009B
:105E400000D48000C6FE0700B08A2E006FFC070059
:105E500061F6070000D480000000E80000D488004C
:105E600001D48000F00F2000808F5000EEFF36003C
:105E7000E0892E0065FC070005003700B0C0B300C4
:105E800058FC070002003700C0C0B30055FC0700F3
:105E90000080FA00000006000000FA00C922A800F5
:105EA000C902A800CB02A900CB22A9000080FA00F9
:105EB000000006000400FA00004F78001147980027
:105EC0001E80FB00100798009E009000F68F500087
:105ED000420032001E009000F60F50000E003C0001
:105EE0009E009000E28F50002F0032001E009000B4
:105EF000E20F500004003C009E0090000100E00012
:105F00001A003200730037001E009000F40F50009A
:105F1000700035002D003700800C20009E0090009E
:105F2000808F500031003200800C20009E009000D5
:105F3000808F500004003C001E009000F70F5000BE
:105F40006100320063003700900C20009E0090003A
:105F5000808F500056003200A00C20009E00900060
:105F6000808F5000560032005A003700D9000700D9
:105F70000004E000090032001E40780019FC070010
:105F8000C800070084FAB70084DABF0074FE070077
:105F9000E0302E001DFC07005000370010312E00AD
:105FA00030FC07004D0037001E4078000DFC070054
:105FB0001E4090006AFE0700E0302E0013FC070030
:105FC0001E409000AC000700440037009700070017
:105FD00090322E0023FC0700400037009900070094
:105FE000F0332E001FFC07003C003700575AA90071
:105FF000B0342E0005FC070090C0B30086FE0700F9
:106000000040E90086FAB700303C2E00FFFB070095
:1060100040C0B30080FE07000040E900634060001C
:106020006341600071A8210091407800C0CFB300A7
:1060300000C060000240700087FAB700D0412E0017
:10604000F2FB070020C0B30073FE07000040E90028
:1060500061406000614060004201DD0071A82100E4
:1060600091407800B0CFB30000C0600002407000E3
:1060700087FAB70040442E00E4FB070020C0B300BD
:1060800065FE07000040E90061406000614060007B
:106090004301DD0071A821009140780070CFB3006A
:1060A00000C060000240700087FAB7000B003700A4
:1060B00022000700F0472E00EAFB07000700370028
:1060C0006000070005003700B0C0B300C5FB070043
:1060D00002003700C0C0B300C2FB07000080FA0016
:1060E000000006000200FA007A0007000004E00049
:1060F0001000320087DABF00704060000004E0004A
:106100000B003200E0302E00C0FB0700A0482E003C
:10611000BEFB070063000700004F78001E407800B8
:106120000FFE0700E0302E00B8FB0700010037002B
:106130005C0007000080FA00000006000000FA0082
:10614000616A20009140780000CEB30000C060007A
:106150007040B300A6E6B700616C20009140780063
:1061600000CEB30000C060005040B300C6E6B700E8
:1061700086DABF000080FB0080004000A0A3210061
:106180000080400010007800C01188000000EB0083
:10619000801188003062A80087DABF000080FB0011
:1061A0004300DE0061406000614060004401DD00AA
:1061B0000123200091407800F0CEB30000C06000C1
:1061C0000240700030E2B70087DABF006340600031
:1061D00063406000004140000123200091407800AE
:1061E00090CFB30000C060000240700030E2B70002
:1061F00087DABF000080FB004200DE0061406000E3
:10620000614160000123200091407800E0CFB3009D
:1062100000C060000240700030E2B7000000EB00F8
:10622000901188000080FA00000006000000FA00CB
:1062300031E2A8003342A80087C0A9000080FA001C
:10624000000006000000FA0031E2A9003342A90074
:10625000A6C6BF00F041B300A6E6B700616C2000FF
:106260009140780000CEB30000C06000C6E6B700E1
:106270000080FA00000006000200FA00004F7800DB
:106280001E80FB00A01188000000000033C2BF0088
:10629000614060000004E000FCFF32000080FA0072
:1062A000000006000200FA0087C0BF000044B200F0
:1062B0000004E000FCFF3200B0118000004F7800C5
:1062C00087C0A9001E4078000080FB000080FA0013
:1062D000000006000200FA0087C0BF000044B200C0
:1062E0000004E0000300320010002000000F7800DE
:1062F000020037000000EB00000F78001E0078005D
:106300000080FA00000006000000FA00606C2E0019
:106310003EFB07000080FA00000006000000FA00C3
:1063200010702E0039FB070057FA070000C0EB0081
:106330000CFB070046FA070020712E0033FB070014
:1063400010C0B30006F707004FFA07000080FA00FC
:10635000000006000A00FA00BCF607008040780042
:106360006300470001487800B8F6070080407800D5
:106370006300470011409800B4F6070080407800A1
:106380006300470021409800B0F607008040780085
:10639000630047003140980050722E001BFB07003D
:1063A00063004700104078000080FB0059FD0700A3
:1063B00080732E0015FB070063004700104090001B
:1063C0000080FB0053FD070080732E000FFB0700C9
:1063D00063004700204090000080FB004DFD070057
:1063E00080732E0009FB07006300470030409000D7
:1063F0000080FB0047FD0700A0732E0003FB070091
:1064000063004700104078000080FB004400DE007D
:1064100020479800D0732E00FCFA07002E40900011
:106420000080FB00400798004E009000E90F5000EC
:10643000110032004E009000E90F500004003C00B3
:106440004E009000E80F50000800320013003700A3
:106450004E009000EA0F50000A0032004E009000FB
:10646000EF0F50000A0032000C00370080742E003D
:10647000E6FA07000B003700F0742E00E3FA07007D
:106480000800370060752E00E0FA070005003700AD
:10649000D0752E00DDFA07000200370010762E00BE
:1064A000DAFA0700A0732E00D8FA070090762E00C3
:1064B000D6FA070063004700104090000080FB0000
:1064C0004700DE00204798002E4090000004E000C6
:1064D00003003A0050772E00CCFA07000200370084
:1064E000C0772E00C9FA0700A0732E00C7FA070074
:1064F000C0782E00C5FA07006300470010409000E6
:106500008080FB0080F72F00008060004380DE0069
:10651000204798002E4090000004E00003003A005D
:1065200090792E00B9FA07001B0037002E4090002A
:10653000EF4F500003003A00D0752E00B3FA070069
:106540001500370000042000000F7800E30047002A
:106550000040EB0080487800080037001E007800FB
:1065600000004000000F78006300470010407800F2
:106570008040E8006300470001487800630047005E
:10658000904078002E40900080CF5000F3FF3900FB
:106590001E00780016FC0700A0732E009BFA07006F
:1065A000707A2E0099FA070063004700904090002F
:1065B00070C0B30000C060002047980010002000A9
:1065C000000F7800E30047000040EB0080487800AF
:1065D000080037001E00780000004000000F78001F
:1065E00063004700104078008040E80063004700E7
:1065F0000148780063004700904078002E409000EA
:1066000080CF5000F3FF39001E00780093FC070094
:10661000A07B2E007DFA07000080FA000000060033
:106620000800FA00004F7800114798001E80FB0018
:1066300030079800BE009000E98F5000B40032008F
:106640003E009000E90F50001D003C00BE0090008D
:10665000E48F50008D0032003E009000E40F5000A7
:106660000A003C00BE009000E18F5000650032003F
:106670003E009000E20F50007A003200BE00900011
:106680000100E00056003200890137003E00900012
:10669000E60F50008F003200BE009000E68F5000E1
:1066A000830035003E009000E70F5000900032005C
:1066B000BE009000E88F5000910032007C0137004E
:1066C0003E009000F60F500041003200BE009000E6
:1066D000F68F50000A003C003E009000F40F50007E
:1066E0002F003200BE009000F48F500032003C00BA
:1066F0003E009000EA0F5000890032006C01370024
:10670000800C2000BE009000808F500011003200ED
:10671000800C2000BE009000808F500004003C00E0
:106720003E009000F70F50008100320060013700FA
:10673000900C2000BE009000808F500014003200AA
:10674000A00C2000BE009000808F50005A01320043
:1067500057013700575AA800C0DF2D002BFA070059
:1067600020C0B300ACFC07000040E90061406000BD
:106770006141600001A6210091407800E0CFB300A4
:1067800000C060000240700060FAB7004A013700A4
:10679000DA01070050E52D0032FA07004601370004
:1067A0004701070020C0B3009701070000E62D0055
:1067B0002CFA0700400137004101070030C0B30048
:1067C0009101070070E72D0026FA07003A01370013
:1067D0003B01070030E92D0022FA0700360137009F
:1067E000370207005EFAB7001E407800FDF9070087
:1067F0005EDABF005AFC0700D0E92D0003FA07005B
:106800002D0137001E407800F6F907001E40900069
:1068100053FC070000EA2D00FCF907000000EB0024
:10682000E0D2880007003700250207004CFC070073
:10683000A0EA2D00F5F90700E0D280000000E80092
:10684000E0D288001E4090008080FB00E0D28000F3
:10685000808F5000F4FF3E00D0E92D00EBF90700D7
:10686000150137001E409000AF0107005EFAB70027
:106870001E407800DBF907001E40900038FC07003E
:10688000D0E92D00E1F907000B01370050020700A5
:106890005EFAB7001E407800D2F907005EDABF004A
:1068A00052FC0700D0E92D00D8F90700020137009B
:1068B0001E407800CBF907004F0207005EFAB700D0
:1068C0005EDABF0049FC0700D0E92D00CFF90700D0
:1068D000F90037001E40900021FC07001E407800A0
:1068E000C0F907001E4090006C020700F20037005C
:1068F0001E407800BBF9070075020700EE00370064
:106900001E407800B7F907008A020700EA00370046
:106910001E407800B3F907003E020700E60037008A
:106920001E407800AFF9070055020700E20037006B
:106930001E4090000080FB00200798002E00900071
:10694000E10F500011003200AE009000E18F5000C6
:1069500004003C002E0090000000E000080032001F
:10696000D0003700AE009000E28F50000C003200E3
:106970002E009000E30F500056003200C90037008F
:10698000C0EA2D00A1F90700CB0037001501070070
:10699000C0EE2D00B3F90700C9000700C60037009C
:1069A000A0EF2D00AFF907000E010700C0EE2D008B
:1069B000ACF9070017020700C100070020C0B300B0
:1069C0001101070000C0EB003402070000C0EB001B
:1069D00032020700BA00070030C0B3000A01070006
:1069E0000000EB00E0D2880007003700E0D2800012
:1069F0000000E800E0D28800E1D28000900F200083
:106A0000808F500003003600F10107000004E00011
:106A1000F6FF3200AA000700F2000700C0EE2D00CA
:106A200090F90700A600070030C0B300F600070089
:106A3000A0F02D008BF90700E0D28000C8FB070012
:106A4000D0F12D0071F907000040EB005EFAB700AD
:106A500019003700A0F22D006CF90700E0D2800089
:106A6000BFFB0700C0F22D0068F907009401070082
:106A7000BBFB0700A0EA2D0064F9070090010700A6
:106A8000B7FB0700A0EA2D0060F907008C010700A2
:106A9000B3FB0700A0EA2D005CF90700880107009E
:106AA000AFFB0700D0E92D0058F907005EDABF0000
:106AB0000040E8005EFAB7005EDABF008080FB00AD
:106AC000E0D28000808F5000E2FF39007C00070098
:106AD0007900370010C1B3000EFC070000F32D0051
:106AE00060F9070010F42D005EF9070000F62D0094
:106AF0005CF907000000370085C0BF0068406000F7
:106B00000004E000FCFF320030118000E0D2880079
:106B10008560A900E1D28000A0072000808F50008E
:106B200001003200F4FF370040F72D004DF9070057
:106B300030C1B300F7FB0700D1010700FD010700DA
:106B40001E0207002E090700E0D28800E1D2800073
:106B5000110798001E009000E30F50001D00320046
:106B60009E009000E38F500007003E001E00900042
:106B7000E10F5000110032009E009000E18F5000A4
:106B800011003E000A0037001E009000E50F500083
:106B9000160032009E009000E58F50001000390072
:106BA0001E009000E60F5000130032001500370061
:106BB00060F82D002BF9070018003700E0F82D00D1
:106BC00028F907001500370010FA2D0025F90700F5
:106BD0001200370090FB2D0022F907000F0037004C
:106BE00000FD2D001FF907000C003700B0FE2D003E
:106BF0001CF907000900370040002E0019F90700B2
:106C000006003700D0012E0000F90700E0D2800016
:106C100053FB0700D0E92D00FCF80700A0022E006E
:106C2000FAF80700080907004DFB070010042E00C2
:106C30000CF90700F0052E000AF9070010C1B30097
:106C4000B4FB07000000EB00E0D288000000370032
:106C500022C2BF00614060000004E000FCFF32007F
:106C6000301180005EFAB700E1A521009140780064
:106C7000A0C7B30080CF500004003A00E0D28000EB
:106C80000000E800E0D28800020037000000EB00BE
:106C9000E0D28800E0D28000E50F5000060032000C
:106CA000EBFF3700B0C0B300CEF80700020037009A
:106CB000C0C0B300CBF807000080FA000000060057
:106CC0000200FA00B0072E00D0F8070058DABF0023
:106CD0000080FB00000F78001E007800E10F5000DC
:106CE0000E0032001E007800E10F500004003C004E
:106CF0001E0078000000E0000B0032003500370075
:106D00001E007800E20F50000F0032001E007800D5
:106D1000E30F5000240032002E00370040082E0000
:106D2000D0F807002D003700A401070010C0B30001
:106D30005A01070010C0B30058FAB70010092E001E
:106D4000C8F807002500370059DABF00E14F5000AE
:106D50000A003A005ADABF00E14F500002003A0040
:106D60002C01070001003700450107000040EB003F
:106D700059FAB700D0092E00A4F8070074010700E3
:106D800020C0B300450107008C01070010C0B3000C
:106D90004201070010C0B30058FAB700200B2E00C4
:106DA000B0F807000D0037006901070020C0B300EC
:106DB0003A0107008101070010C0B3003701070046
:106DC00010C0B30058FAB700B00B2E00A5F80700AA
:106DD00002003700400C2E00A2F807000080FA00E5
:106DE000000006000000FA0059010700A0C0B3002F
:106DF0002A010700710107000040EB0058FAB700B4
:106E00000080FA00000006000400FA00004F78003D
:106E100058DABF00E14F500002003200200D2E0072
:106E200090F80700B0072E0078F807001E80FB00DE
:106E3000100798001E009000E10F50000E00320075
:106E40001E009000E10F500004003C001E00900066
:106E50000000E0000B003200240037001E0090000C
:106E6000E20F5000160032001E009000E30F5000A9
:106E7000080032001D00370040082E0079F8070096
:106E80001C003700D7FF0700E00E2E0075F8070042
:106E9000180037002E01070010C0B300FF000700E4
:106EA0004601070020C0B300FC00070030C0B3005B
:106EB00058FAB700400F2E006AF807000D0037009F
:106EC0002301070020C0B300F40007003B010700C6
:106ED00020C0B300F100070020C0B30058FAB7008B
:106EE00080102E005FF8070002003700D0132E003C
:106EF0005CF807000080FA00000006000000FA00BD
:106F0000C8E2A800C902A900C922A900C8C2A900F4
:106F1000CAE2A900CB02A900CB22A900CAC2A900DB
:106F20000080FA00000006000800FA0040479800C0
:106F30000001070059DABF00E14F500006003A0097
:106F40005ADABF00910007000040EB0059FAB70081
:106F500020162E002DF8070057DABF0068406000A9
:106F60000004E0000300320010C0B300004F7800BE
:106F70000200370000C8B300004F78000040EB006B
:106F800030479800450037004E4090001E4060009A
:106F90000004E00002003A00B900070001003700D9
:106FA0009C000700CA000700CAC2BF000080FB00A7
:106FB0004700DE002047980057DABF0068406000B5
:106FC0000004E000100032004E4090000080FB0002
:106FD0000000D100404798001E4090000080FB0058
:106FE0000000D100104798002E409000E14F500063
:106FF00011003A001E40900001C8B300014040005B
:10700000104798000C0037004E40900000404000B0
:10701000404798001E4090000040400010479800F4
:107020002E409000E14F500003003A001E409000B7
:107030000040E80010479800BE00070058DABF0083
:10704000E24F500012003A003E409000E64F5000E0
:107050000F003A0010C0B30059FAB7004E4090003C
:107060001E4060000004E00003003A000040EB0016
:107070005AFAB7000200370010C0B3005AFAB7003E
:107080001E4090000080FB00300798000900370088
:107090003E4090000040E800304798003E4090009D
:1070A000E74F5000B8FF36001E4090000080FB0004
:1070B000300798003E0090000080FA0000000600B3
:1070C0000400FA009B00070059DABF00E14F5000AE
:1070D00006003A005ADABF002C0007000040EB001F
:1070E00059FAB70020162E00C8F707000040EB0041
:1070F000204798001F00370075000700CAC2BF0074
:107100000080FB004700DE001047980057DABF0000
:10711000684060000004E00008003A001E4078006B
:1071200000404000004F78001E4090000004E00046
:107130000C0032001E4FE8000A0037001E80FB00E2
:107140000000D100004F78001E4090000004E000D5
:10715000040032001E40780001C8B3000140400026
:10716000004F7800730007002E4090000040E800B8
:10717000204798002E409000E74F5000DEFF360079
:107180001E80FB000080FA00000006000400FA00E8
:10719000204798002E4090000004E00002003A00D2
:1071A00037000700010037001A00070048000700F9
:1071B000CAC2BF000080FB004700DE00004F78001D
:1071C0005C0007001E80FB000080FA000000060043
:1071D0000200FA003E000700CAC2BF000080FB00A8
:1071E0004700DE00004F7800520007001E80FB00C1
:1071F0000080FA00000006000000FA00CAC2BF00CA
:107200000080FB004700DE000080FB000080FA00E9
:10721000000006000000FA0060DABF006140600074
:107220006140600000414000912C200091407800B6
:10723000D0CFB30000C0600002407000C9E2B700C8
:1072400060DABF006140600000C0EA006140600099
:107250006140600000414000B12C20009140780066
:10726000D0CFB30000C0600002407000CBE2B70096
:1072700040C1B3003BF707000080FA0000000600A1
:107280000000FA00CB22A900C922A90040C1B30026
:1072900034F707000080FA00000006000400FA003E
:1072A000204798000040EB00004F780003003700B3
:1072B000070007001F0007001E4FE8002E40900047
:1072C0009E4F1000FAFF39000080FA00000006000F
:1072D0000000FA0060DABF006140600061416000B8
