:020000040000fa
:080000000004040000000000f0
:020000040000fa
:100800006f912000007f220000018800000000009e
:100810000a00070011000700000020000000e000af
:100820000200320000000200000000008804020004
:10083000000000000040da000000fe004440a90073
:10084000000020000000e000030032000000200053
:10085000a00188004440a8000000060000bc200061
:10086000010020001500370062004000e0804800d1
:10087000910188009001ba0062004000e0804800c9
:10088000910188009002ba0062004000e0804800b8
:100890000002eb006028e10004003a000059eb0080
:1008a0008301e900fdff3e00040037006128e100fc
:1008b000010032000082eb00050007009101880072
:1008c0001001ba000200e000e7ff3a000000050056
:1008d000910188008002780062004000e0804800ba
:1008e0003559ba008301e900080032002559ba00e1
:1008f0008301e900050032000400e000f4ff32004b
:1009000015d9ba008301e900f1ff3a0000000600a2
:100910000800fa004507a9004227a90020c02000ce
:100920000100200010408800214088001140800014
:10093000204080005f030700008fbe0000c0200041
:1009400001002000104088002140880011408000f4
:100950002040800057030700304088004140880055
:100960000080eb0060198800c822a800c802a90016
:100970000000000000000000ca02a8000000000003
:1009800000000000cac2bf00624060000004e00036
:100990000d003200ca02a9000000000000000000a3
:1009a000cac2bf00624060000004e00004003a00d8
:1009b000f00f200001002000008fbe000200370071
:1009c0006000b800008fbe003240800043408000cd
:1009d000f0ff2f00f10f2000800f5100818f590090
:1009e00007003a000040200001002000304088004d
:1009f00041408800f00f200001002000008fbe0061
:100a00000000eb00704088001e4078000004e00009
:100a10000c003a00003a800031ed2f000100600028
:100a20000000e000040032003040800041408000bf
:100a30002e03070003003700f00f20000100200004
:100a4000008fbe0011e1a9001061a8008500a90077
:100a50009500a9001e00be00f20f20000300200038
:100a6000000278008102780002007800830078009c
:100a700000016200018062006102b8002407980052
:100a8000350798002e009000be009000c000dd00e9
:100a90000000200020079800310798002e009000e9
:100aa000be0090006112b800240798003507980036
:100ab0002e019000be019000020070008380700043
:100ac000f20f200003002000820f5000838f580097
:100ad000170032001e4078000083fb000700200052
:100ae000004022000032b800400f200000b0b900e2
:100af00005017800000141000040220000b8b90063
:100b00000001410082027800048fbe001e009000a8
:100b1000700888001e007800600888000000eb0064
:100b2000300888000000eb005008880011e1a800a0
:100b30007f0207002ca3a8002c83a80021e2a800b4
:100b400020a2a80000402000101188000400070027
:100b5000460007000040800091000700fbff3700bf
:100b60000600fa000000370055020700301180002f
:100b70003047980011e1a90063004700d400070046
:100b8000be40900050c5b30080cf5000f6ff3a0041
:100b90000040eb00204798000000eb00000f7800b9
:100ba0002c00370063004700c90007003e4090005a
:100bb0000080fb00200798002e009000e50f5000f9
:100bc0001800320050052000ae009000808f5000c9
:100bd000040032002e009000e40f500006003200a6
:100be000120037000040eb00204798000000eb00a7
:100bf000000f7800170037002e40900000c0ea0078
:100c00000040e80020479800000000002e409000bf
:100c10000004e000130032000080eb00000f7800b9
:100c20000c00370063004700a9000700be40900099
:100c30002e40900001404000204798009e00780020
:100c40003e41900000812000008040000248780072
:100c50001e0fe800601020009e0f1000d1ff36002c
:100c6000c1ff37000080fa00000006000400fa000f
:100c700010c8bf001047980011c8bf00004f78008f
:100c80001e04e00004003a0021e2a9003040800088
:100c9000414080009502070012c8bf0002e8b7007b
:100ca00013c8bf0003e8b70014c8bf0004e8b700ca
:100cb0000040eb0005e8b7001e4090000080fb00fc
:100cc000100798001e009000e20f50002100320033
:100cd0001e009000e20f500007003c001e00900034
:100ce0000000e0000b0032001e009000e10f5000f9
:100cf0000f003200280037001e009000e30f500064
:100d00001b0032001e009000e80f50001f00320050
:100d10002100370020c0b30012e8b70010c0b300b4
:100d200013e8b70040002000004088001a00370098
:100d30001e80fb00124080002340800078000700e6
:100d40001e80fb004200dd0065004000004088007e
:100d5000110037001e80fb001240800023408000fd
:100d6000a100070010002000004088000a003700a2
:100d70001e80fb001240800023408000910107008c
:100d8000100020000040880003003700c101070068
:100d900010002000004088000080fa0000000600db
:100da0000600fa00200798002342a80050c5b300af
:100db0003d00070050c5b3003b0007000040eb00ba
:100dc000004f78000000eb00100798001900370072
:100dd0000060fe009e009000008120000080400026
:100de00090407800114798001e4090001e4f400030
:100df0009e40900050c5b30080cf500006003200e6
:100e00001e409000e44f5000030032001e4090004e
:100e1000e54f500002003a0050c0b3002200070026
:100e20001e409000200007001e0090000000e80017
:100e3000100798009e0090002e009000808f5000b8
:100e4000e3ff39001e40780000c0ea000040e800df
:100e5000004f780050c5b3009e4f100006003200ce
:100e600040c0b3009e4f10000300320051c0b300d9
:100e70009ecf100002003a0050c0b3000a000700e5
:100e80001e4078000800070040c0b30006000700bd
:100e900023c2bf00614060000004e000fcff32009c
:100ea0000080fa00000006000200fa00004f7800ff
:100eb00023c2bf00624060000004e000fcff3a0073
:100ec0001e80fb00201188000080fa000000060050
:100ed0000400fa00100798000060fe001011800066
:100ee0006e0060000000e00003003200301180005e
:100ef000004f78002222a90022c2bf00614060009a
:100f00000004e000f4ff32003011800080407800df
:100f10001e009000014878000080fa0000000600e2
:100f20000c00fa0030079800420798005307980019
:100f30000000eb00000f780025003700ce00900085
:100f40005e009000db010700100798002107980061
:100f50001e007800e50040002e4190000081200036
:100f600000804000024878001e007800e600400043
:100f70003e4190000081200000804000024878003f
:100f80001e007800e70040004e41900000812000e4
:100f900000804000024878001e007800e800400011
:100fa0005e419000008120000080400002487800ef
:100fb0001e007800640f40004e009000de0090009c
:100fc00062004000e0804800400798005107980008
:100fd0003e0090004200dd009e0f5000d7ff3e0013
:100fe0000080fa00000006001800fa0030079800a0
:100ff00042079800530798000000eb00000f7800ac
:10100000ea0037000060fe001e007800e5004000a6
:1010100000812000008040001040780020479800a8
:101020001e017800e60041000081200000804000a1
:1010300010407800304798009e017800e78041001a
:101040000081200000804000104078004047980058
:101050001e027800e800420000812000008040006d
:1010600010407800504798009e027800648f42003c
:101070004e019000de019000e0bf2a000100200038
:10108000800f5100818f59001e003a001e00900011
:10109000ae009000f2ff270003002000000278005d
:1010a000810278000200780083007800000162006d
:1010b000018062006102b80064079800750798001b
:1010c0006e009000fe009000c000dd0000002000d7
:1010d00060079800710798006e009000fe00900075
:1010e0006112b80064079800750798006e019000bf
:1010f000fe019000020070008380700010079800cd
:10110000210798004e009000de009000e00f500094
:10111000e08f580024003a001e009000ae009000be
:10112000f2ff2f0003002000000278008102780007
:1011300002007800830078000001620001806200f4
:101140006102b800040f9800150f98000e08900077
:101150009e089000c000dd0000002000000f9800f5
:10116000110f98000e0890009e0890006112b800c0
:10117000040f9800150f98000e0990009e0990002a
:101180000200700083807000304088004140880079
:10119000004020004100200010079800210798001f
:1011a00010002000704088004e019000de01900089
:1011b0002000200001002000800f5100818f590085
:1011c00029003a0036408000474080001e00900011
:1011d000ae009000f20f2000030020000002780013
:1011e000810278000200780083007800000162002c
:1011f000018062006102b800240f9800350f98004a
:101200002e089000be089000c000dd000000200005
:10121000200f9800310f98002e089000be08900013
:101220006112b800240f9800350f98002e09900025
:10123000be0990000200700083807000c000dd00d5
:1012400000002000060040008780480030408800f1
:10125000414088006000b8001007980021079800fe
:1012600010002000704088004e019000de019000c8
:1012700000c0200001002000800f5100818f590024
:101280000c003a00704080000000e00005003200d1
:1012900030408000414080001007980021079800ee
:1012a000040037001e009000ae009000304088001f
:1012b000414088004e019000de01900020c02000d7
:1012c00001002000800f5100818f590008003a0072
:1012d0001e009000ae0090005040880061408800e1
:1012e000f0ff2f00f10f2000100798002107980051
:1012f0004e019000de019000f03f20000100200030
:10130000800f5100818f5900070036004e01900078
:10131000de019000f0bf200001002000800f51008e
:10132000818f5900070036001e0090002e019000aa
:10133000ce0090005e0290008001780004007800ea
:10134000cd000700f00f20001e0060000000e0004c
:1013500010003a004e019000de019000f03f2000a6
:1013600001002000800f5100818f590007003600d6
:101370004e019000de019000f0bf2000010020002f
:10138000800f5100818f59000200360010002400a8
:10139000a60007004e009000de00900062004000b2
:1013a000e080480040079800510798003e009000f8
:1013b0004800dd009e0f500012ff3e000080fa0042
:1013c000000006000c00fa00300798004207980061
:1013d000530798000000eb00000f7800280037004a
:1013e0001e0fe8004e019000de019000f03f20004b
:1013f00001002000800f5100818f59000700360046
:101400004e019000de019000f0bf2000010020009e
:10141000800f5100818f590011003600ce009000de
:101420005e00900022042400b60007004e019000e8
:10143000de019000f03f200001002000800f5100ed
:10144000818f590006003e006000b8001007980028
:10145000210798001e009000ae0090005500070084
:101460004e009000de0090000240200003002000ab
:101470000000410081804900400798005107980012
:101480003e0090009e0f1000d5ff39000080fa004a
:10149000000006000000fa0050408000624080001a
:1014a0008001780021c020000000eb0072000700de
:1014b000300024005d0007000080fa0000000600f4
:1014c0000200fa0020a2a800130037000060fe000e
:1014d00085c0bf00614060000004e00003003200ee
:1014e00030408000414080008000070022c2bf00e1
:1014f000624060000004e000010032002222a900e6
:1015000022c2bf00614060000004e000020032001f
:1015100030118000004f780020c2bf000042b200ae
:101520000004e000e9ff3a000080fa000000060035
:101530000000fa00113a8000f0fb2f0000816000eb
:101540006104200070052000237420008149780088
:101550008049780082497800416a200091407800f3
:1015600000ceb30000c060000014a000a4e6b700e5
:10157000316c20009140780000ceb30000c06000c4
:101580003040b300c3e6b700113a800000042000e9
:101590000081700061042000700520002374200089
:1015a0008149780080497800824978000080fa00fb
:1015b000000006000800fa00200798003107980094
:1015c0000040200041002000008fbe001e00780077
:1015d0001e019000ae0090003e0290008001780055
:1015e0000400780024000700300024000f000700ea
:1015f0006000b800008fbe009e0078001e019000c1
:101600002e0090000080e8003e02900081017800ea
:1016100080007800040078001700070030002400e4
:10162000020007000080fa00000006000400fa0033
:10163000000f78001e007800003b88001e0090001c
:1016400050052000303b8800a00a2000303b880075
:1016500061e7a800000000000000000061c7bf00b3
:1016600001c8b300014060000004e000fbff3a0045
:101670000080fa00000006000800fa00000f780061
:101680001107980022079800330798001e00780081
:1016900032e0b7009e0090003e0090008008bb0042
:1016a0009e0090002e0090008088bb000080fa0011
:1016b000000006000800fa00200798003107980093
:1016c0002e00900032e0b7003e0090001000ba00fb
:1016d000000f78003e0090001080ba0010079800bc
:1016e0001e00be000080fa00000006000200fa00a2
:1016f000000f78001e007800004001000080fa0012
:10170000000006000a00fa00100798002107980060
:101710003207980032c0bf000080fb00000f780045
:101720001e00900032e0b7003e009000003b8800b1
:10173000ae0090002e0090008008bb004e0090008c
:1017400050052000303b8800a00a2000303b880074
:1017500061e7a800000000000000000061c7bf00b2
:1017600001c8b300014060000004e000fbff3a0044
:101770001e00780032e0b7000080fa00000006008a
:020000040000fa
:020000040001f9
:0457f800dff90000d5
:020000040000fa
:020000040001f9
:0457fc007f3f0000eb
:020000040000fa
:10000800c80b0000c80b0000c80b0000c80b00009c
:10001800c80b0000c80b0000c80b0000c80b00008c
:10002800c80b0000c80b0000c80b0000c80b00007c
:10003800c80b0000c80b0000c80b0000c80b00006c
:020000040000fa
:020000040000fa
:10178000000800001601000000000000000000003a
:020000040000fa
:041790000000fe0057
:00000001FF
