:020000040000FA
:10000000040C04000000000050700000507000005C
:1000100050700000507000005070000050700000E0
:1000200050700000507000005070000050700000D0
:1000300050700000507000005070000050700000C0
:1000400050700000507000005070000050700000B0
:1000500050700000507000005070000050700000A0
:100060005070000050700000507000005070000090
:100070005070000050700000507000005070000080
:100080005070000050700000507000005070000070
:100090005070000050700000507000005070000060
:1000A0005070000050700000507000005070000050
:1000B0005070000050700000507000005070000040
:1000C0005070000050700000507000005070000030
:1000D0005070000050700000507000005070000020
:1000E0005070000050700000507000005070000010
:1000F0005070000050700000507000005070000000
:1001000050700000507000005070000050700000EF
:1001100050700000507000005070000050700000DF
:1001200050700000507000005070000050700000CF
:1001300050700000507000005070000050700000BF
:1001400050700000507000005070000050700000AF
:10015000507000005070000050700000507000009F
:10016000507000005070000050700000507000008F
:10017000507000005070000050700000507000007F
:10018000507000005070000050700000507000006F
:10019000507000005070000050700000507000005F
:1001A000507000005070000050700000507000004F
:1001B000507000005070000050700000507000003F
:1001C000507000005070000050700000507000002F
:1001D000507000005070000050700000507000001F
:1001E000507000005070000050700000507000000F
:1001F00050700000507000005070000050700000FF
:10020000FFFFFF00FFFFFF00507000005070000074
:1002100050700000507000005070000050700000DE
:1002200050700000507000005070000050700000CE
:1002300050700000507000005070000050700000BE
:1002400050700000507000005070000050700000AE
:10180000040C000000000000AFC02100007F220097
:1018100000018800000000000A0007001100070016
:10182000000020000000E000020032000000020082
:1018300000000000C80F0200000000000040DA00B5
:101840000000FE004440A90080D621000000E00016
:101850000300320000002000A00188004440A800DE
:1018600000000600A0D5260001002000150037006A
:1018700062004000E0804800910188009001BA00B9
:1018800062004000E0804800910188009002BA00A8
:1018900062004000E08048000002EB006028E100A8
:1018A00004003A000059EB008301E900FDFF3E000F
:1018B000040037006128E100010032000082EB00E3
:1018C00005000700910188001001BA000200E00045
:1018D000E7FF3A00000005009101880080027800CF
:1018E00062004000E08048003559BA008301E900F9
:1018F000080032002559BA008301E90005003200D2
:101900000400E000F4FF320015D9BA008301E900B9
:10191000F1FF3A0000000600889FBE008A9FBE00CB
:10192000010578000100E0000400350008003C00DB
:101930000000E000200032000500370060001000C9
:10194000E080180002003B0001F02C001A00370074
:101950000004BE006011B8006B0920000982CF00AE
:10196000020039000882CF000441B00069425200F1
:101970000E00320008003B008281710061016400AA
:101980008904D1000884D3008B05E8000442E800F4
:10199000F9FF3A00050037000804440089844C0030
:1019A0008B05E9000442E900FBFF3A00250107002E
:1019B0000AF0A70001F0A0004F05BE004F04BE00D2
:1019C0000000060003F0A200889FBE008A9FBE00B0
:1019D0008C1F780041010700480133006450E1008A
:1019E0004F0032006420E1005200320003826C009C
:1019F00007003B000905D0000306D000820F540009
:101A00000C065D00020039000200320089017800F6
:101A1000030678008582550004003D000003FD00A8
:101A20008103FD008502EA008B854200840F72006D
:101A300002003B0060001000E08018006011B80058
:101A40000005EB007A28E1000A0039000600780062
:101A5000C75DDD00F707B200878075002D003700F5
:101A6000828171000A017800610560008180D100E7
:101A70000080D3008502E900F9FF3B000604400026
:101A80008784480002003B0060041400E0841C00CE
:101A90000988A300070032008A81710082817100E9
:101AA000610164008904D1000884D3008B05E8003B
:101AB000170037000978A30013003A000B00E0007C
:101AC000130034008B05E9000804440089844C00AD
:101AD0000A4474000978A3000D003A000B00E000EE
:101AE000070034008B05E9000804440089844C0099
:101AF00001003A000B0020000978A300F7FF320034
:101B00000001EB0002003700828171000A017800B9
:101B1000CC0007000CF0A70001F0A0000001370086
:101B20006420E10002003A00838F6C000001330062
:101B30000801BE000200BE00F9003700889FBE0009
:101B40008A9FBE008C1F7800E4000700EB00330082
:101B500003866C006450E1002E0032006420E10036
:101B6000330032006150E1002F0032006120E100BB
:101B70003100320085855500EB07B00009002000D8
:101B800008042000050037000804440089844C0044
:101B90000A0031000603430087834B000001530015
:101BA00081815B00F8FF33000203BE000800A00043
:101BB0000804440089844C00F6FF3900C639DD0072
:101BC0008301730001003200130020008904D1005A
:101BD0000884D3000998A300050032000800A7007C
:101BE0000300A0008904D1000884D3008B05E8001D
:101BF0008904D1000884D3000001EB000281D200E7
:101C00009000070001F0A1000CF0A70001F0A00077
:101C1000C30037006420E100C50032000801BE00A7
:101C20000200BE00F7FF37006120E100C000320073
:101C30006000B800F3FF37000000200001F8270023
:101C4000F0FF3700889FBE008A9FBE008C1F78007F
:101C5000A2000700A900330003866C006450E10075
:101C6000240032006420E100270032006150E100CE
:101C7000220032006120E100210032008B85420009
:101C8000EB07B1000134B800003AB8000804420084
:101C900089844A00013AB8000030B80088804000CA
:101CA00009014A0004003300000040008180480020
:101CB000020149008B05E900C909DD0083017000BC
:101CC0000100320013002000C814DE004814DD00BB
:101CD0004709DE001200B200C808DE000884700068
:101CE0005800070001F0A1000CF0A70001F0A000CF
:101CF0008B0037006120E1008D0032000801BE003A
:101D00000200BE00F7FF37006150E100FCFF3A001F
:101D1000870037000001BE00880007000470A7009C
:101D200003F0A10003F8A30013003A006509B10015
:101D300010003200090035006928E100020035007A
:101D400001002800000005000000400081804800DC
:101D50008502E900FCFF3A0000000600F88F42000F
:101D6000050035008100D1000080D3008502E80025
:101D7000FCFF3A00000006008000EB0000000500B8
:101D80006022B800060220000000D0008180D2004E
:101D90000482D2008582D2000000A000020252001C
:101DA00083825A00030031000202420083824A000B
:101DB0000000A1000603E900F3FF3A00000006005E
:101DC0000001BE005D0007000470A70003F0A10041
:101DD0006509B100160032000D0035006828E100E9
:101DE00006003500F0FF2F00F1FF27000300E000A0
:101DF00013003B0001002800000005000000400027
:101E0000818048008502E900FCFF3A0008003700A5
:101E1000F88F420002003C008000EB00000005004B
:101E20008100D1000080D3008502E800FCFF3A0069
:101E30000300E00002003B0060001000E08018009A
:101E40000000060081002000618055000B003D006D
:101E50000B00200061FE2F000100E1001D00340096
:101E600082817100610164008904D1000884D3007B
:101E70000000E800FAFF3A007100200061006400F1
:101E80000300700002006000090032006104440099
:101E9000E0844C000988A500050032008B05E800AD
:101EA0006808E10002003A008904D1000884D300E8
:101EB000F20F20000258E10005003D00C75DDD0083
:101EC000F907B2008980750008007800000006005C
:101ED0000BF827008B007800000005000004BE000E
:101EE000160007000003BE000405BE000200BE008D
:101EF00012000700844F7500000006000200BE00BB
:101F00006450E100050036006420E1000200360064
:101F10000968A30001003A000800BE000160A000AB
:101F20004F0678004F05BE004F04BE0000000600BB
:101F3000F0FF2F00F1FF2700F9FF3700C70ADE008E
:101F4000F107B200F50FB20008003200E1CF420005
:101F5000020032000170A00024000500810F700013
:101F6000010032000408050044000500810F7000E4
:101F700002003A00140005008502E900000040005C
:101F800081C04800FCFF3B000170A0002400050058
:101F90000200FA002800070000003700C28020007D
:101FA00001FA2000C07A210061170700E10F5000FC
:101FB00018003A0060BD8000000F78001E00780015
:101FC0000000E000040032001E007800E10F500025
:101FD000040032000700370090C1B300111A070057
:101FE000070037000CC8BF00851307000004E0009D
:101FF00003003A0060BD8000C18020006A15070020
:102000000000EB0060BD88006A130700E0C3B30066
:10201000ED1907000AC8BF00644060000004E0003A
:10202000DEFF32000001EB008000EB0060C1B30076
:1020300007130700D9FF37000000FA004507A90081
:102040000080EB00601988004227A900416A200047
:102050009140780000CEB30000C060003040B30073
:10206000A4E6B700216C20009140780000CEB300B8
:1020700000C060003040B300C2E6B70080C0B300CB
:1020800000E8B7000000EB001040880008050700DA
:102090003F0507008000EB00F00F2000D419070077
:1020A0003040880021002000F00F2000D0190700E8
:1020B0004040880010C1B300C3190700D0C0B3006E
:1020C000C1190700A0C0B300BF190700EF13070034
:1020D00038130700E0C3B300BB1907000080FA0003
:1020E000000006000C00FA00004F7800110798006D
:1020F000220798001E80FB006101B900320798009A
:1021000043079800C0012000010020003E0190001C
:10211000CE019000800F5100818F5900D9003E0000
:102120003E009000CE009000006001001C003700CF
:102130003E0037005E0037005D0037006200370068
:10214000BB003700660037006C00370072003700B4
:10215000780037007C0037008000370084003700AB
:10216000C8003700C7003700C6003700C500370079
:10217000C4003700C3003700C2003700C100370079
:10218000C0003700BF003700BE0037007D003700B9
:102190009B003700BD003700BA003700BB00370096
:1021A0002E009000E10F500007003A0010C0B3006D
:1021B0009C190700A11E0700FAFBB700FADBBF005D
:1021C000050507001400370020C0B300951907006B
:1021D0002E0090000005070030C0B30091190700E1
:1021E0000000EB00C0DF880007003700931E0700E7
:1021F000F904070000C2B30073190700C0DF8000B4
:102200000000E800C0DF8800C1DF80002E009000E1
:10221000808F5000F5FF3900D0C0B3006A19070065
:10222000A0C0B300681907009800370040C0B30091
:102230007C1907001E009000E70407002E009000A4
:10224000E10F500003003A001E0090004A1E0700F4
:102250001200370040602E00FB1707002E00900090
:10226000DD04070050C0B3006E1907000000EB004A
:10227000C0DF8800050037001E0090003E1E0700EA
:10228000C0DF80000000E800C0DF8800C1DF800000
:102290002E009000808F5000F7FF3900D0C0B300AF
:1022A00049190700A0C0B30047190700770037009D
:1022B000C61D070080602E00E317070080C0B30032
:1022C0005819070071003700D31D070000612E0068
:1022D000DD17070090C0B300521907006B003700EC
:1022E000D0C0B3004F190700861E0700CF170700A4
:1022F000F0C0B3004B19070064003700E0C0B30022
:1023000048190700CF1E0700C8170700F0C0B30028
:10231000441907005D0037002E009000AE0407004E
:1023200000C1B3003F1907002E009000971E070060
:102330005600370010C1B3003A19070010C0B300AF
:10234000AE1E07005100370020C1B3003519070049
:102350000040EB00A91E07004C00370030C1B3005D
:102360003019070010C0B3009B1E0700470037005C
:1023700040C1B3002B1907000040EB00961E070078
:10238000420037000A68A8000AA8A80010C3B300DA
:102390002419070012002000210020001000200056
:1023A0002A1607000040E9006140600061416000BA
:1023B000A180200091407800E0CFB30000C0600011
:1023C000024070000AE8B700E0C1B3001519070029
:1023D0001200200021002000100020001B16070022
:1023E0000040EA0061406000C700DD000AC8BF008D
:1023F0000074A100014070000AE8B7002300370014
:10240000CB02A900CB22A900C922A800C902A900B9
:102410000AC8BF00614060008040780020C0B3005F
:10242000471D07000040EB00FE18070017003700AB
:102430009E009000510798005E019000E10F51004E
:102440000A003200DE019000E18F510004003900E3
:102450005E009000E20F50000500320006003700D9
:1024600070612E0078170700080037000900070088
:10247000190007000500370070C1B300E918070014
:102480000200370080C1B300E61807000080FA00A0
:10249000000006000000FA0090652E00801707007B
:1024A00060672E007E1707000040EB005C1E0700EF
:1024B00000C0EB007F04070010C0B300581E0700E7
:1024C00010C0B300311E07000040EB00541E07008F
:1024D0000080FA00000006000A00FA00881F780059
:1024E00080692E00581707000AC8BF000080FB0053
:1024F0004400DE0061406000204798000A88A80080
:102500000000EB00000F78000D0037001E0478007B
:10251000CA1D0700804078006300470001747800FE
:102520009E00780063004700614078000080FB0057
:102530003618070000C2B300A31807001E0FE800FA
:10254000300020009E0F1000F0FF3600D0C0B30016
:102550009D180700A0C0B3009B1807002E409000F4
:1025600061406000614060004401DD00A180200006
:1025700091407800F0CEB30000C0600002407000CF
:102580000AE8B700706B2E002F17070063004700A2
:10259000104078000080FB004400DE000080FB005B
:1025A000400798004E009000E90F500011003200E3
:1025B0004E009000E90F500004003C004E009000D7
:1025C000E80F500008003200130037004E00900062
:1025D000EA0F50000A0032004E009000EF0F50004A
:1025E0000A0032000C003700206C2E002C17070068
:1025F0000B003700906C2E002917070008003700E9
:10260000006D2E002617070005003700706D2E00A4
:102610002317070002003700B06D2E0020170700B7
:10262000306E2E000817070063004700104090002E
:102630000080FB004700DE000004E00003003A00D9
:10264000F06E2E001617070002003700606F2E0094
:102650001317070060702E00FB1607006300470089
:10266000104090008080FB0080F72F000080600009
:102670004380DE00204798002E4090000004E000D8
:1026800003003A0030712E00EF1607001B003700E0
:102690002E409000EF4F500003003A00706D2E0066
:1026A000E91607001500370000042000000F78002D
:1026B000E30047000040EB00804878000800370046
:1026C0001E00780000004000000F78006300470003
:1026D000104078008040E80063004700014878001F
:1026E00063004700904078002E40900080CF50005B
:1026F000F3FF39001E00780064170700D0C0B30054
:1027000031180700A0C0B3002F18070010722E0068
:10271000CD160700630047009040900070C0B300E2
:1027200000C060002047980010002000000F7800D3
:10273000E30047000040EB008048780008003700C5
:102740001E00780000004000000F78006300470082
:10275000104078008040E80063004700014878009E
:1027600063004700904078002E40900080CF5000DA
:10277000F3FF39001E00780073170700D0C0B300C4
:1027800011180700A0C0B3000F1807004F0478000D
:102790000080FA00000006000A00FA00004F7800EE
:1027A00011079800220798001E80FB006101B90004
:1027B0003207980043079800C00120000100200064
:1027C0003E019000CE019000800F5100818F590092
:1027D000DD003E003E009000CE0090000060010051
:1027E0001C0037003E0037006A00370069003700E0
:1027F00073003700D1003700770037007F003700C3
:10280000870037008D0037009100370095003700B2
:1028100099003700CC003700CB003700CA003700E2
:10282000C9003700C8003700C7003700C6003700AE
:10283000C5003700C4003700C3003700C2003700AE
:1028400092003700AF003700C1003700BE003700EC
:10285000BF0037002E009000E10F500006003A0044
:1028600010C0B300EF17070000C0EB00791C070091
:10287000590307001500370020C0B300E91707000F
:102880002E0090005403070030C0B300E517070086
:102890000000EB00D0DE88000800370000C0EB002D
:1028A0006C1C07004C03070000C2B300C6170700EA
:1028B000D0DE80000000E800D0DE8800D1DE80009D
:1028C0002E009000808F5000F4FF3900D0C0B3007C
:1028D000BD170700A0C0B300BB1707009C0037005E
:1028E00040C0B300CF1707001E0090003A03070056
:1028F0002E009000E10F50000E003A001E009000E4
:10290000541C0700DCFBB700DEDBBF006140600049
:102910000004E0001A00320000C2B300AA1707004A
:1029200010C0B300BF170700DCDBBF002A0307009D
:102930001300370060D52E00431607002E009000CC
:102940002503070050C0B300B61707000000EB00D6
:10295000D0DE8800060037001E0090003D1C0700F6
:10296000DCFBB700D0DE80000000E800D0DE88008D
:10297000D1DE80002E009000808F5000F6FF3900DD
:10298000D0C0B30090170700A0C0B3008E17070097
:102990006F00370031C0B3009ECF100002003A0034
:1029A000DE1BA80001003700DE1BA9000040EB0081
:1029B0001B1D0700A0C0B3009A1707006400370072
:1029C000DE1BA90010C0B300151D0700B0C0B30086
:1029D000941707005E003700D0C0B30091170700BE
:1029E000C81C070011160700D0C0B30076170700F7
:1029F000A0C0B3007417070055003700E0C0B30053
:102A0000881707000F1D070008160700D0C0B30085
:102A10006D170700A0C0B3006B1707004C0037000C
:102A20002E009000EC02070000C1B3007D170700E4
:102A30002E009000D51C07004500370010C1B300E0
:102A40007817070010C0B300EC1C070040003700E7
:102A500020C1B300731707000040EB00E71C07001C
:102A60003B00370030C1B3006E17070010C0B30041
:102A7000D91C07003600370040C1B30069170700B2
:102A80000040EB00D41C07003100370010C3B30036
:102A90006417070012002000210020001000200011
:102AA0006A1407000040E900614060006141600075
:102AB000A180200091407800E0CFB30000C060000A
:102AC000024070000AE8B700E0C1B30055170700E4
:102AD0001200200021002000100020005B140700DD
:102AE0000040EA0061406000C700DD000AC8BF0086
:102AF0000074A100014070000AE8B7000A68A8004D
:102B000013003700DE1BA9000AC8BF006140600047
:102B10008040780030C0B300891B0700C922A9009B
:102B2000C902A900C8E2A80010C0B300BC1C07007D
:102B30000040EB003B1707000500370070C1B300F1
:102B4000381707000200370080C1B30035170700AF
:102B50000080FA00000006000C00FA00004F780028
:102B600011079800220798001E80FB006101B90040
:102B70003207980043079800C001200001002000A0
:102B80003E019000CE019000800F5100818F5900CE
:102B9000EE003E003E009000CE009000006001007C
:102BA0002A0037004E0037001A003700190037009E
:102BB00022003700CB003700E4003700E300370085
:102BC000E2003700E1003700E0003700DF003700A7
:102BD000DE003700DD003700DC003700DB003700A7
:102BE000DA003700D9003700D8003700D7003700A7
:102BF000D6003700D5003700D4003700D3003700A7
:102C000064003700B0003700B4003700CF00370051
:102C1000D000370031C0B3009ECF100002003A0050
:102C2000E47BA80001003700E47BA900CAC2A90028
:102C3000A0C0B300FB160700C6003700CAC2A80038
:102C4000B0C0B300F7160700C20037002E00900096
:102C5000E10F500008003A0010C0B300F116070061
:102C600000C0EB0023010700E2FBB700E2DBBF007E
:102C7000590207001500370020C0B300E91607000D
:102C80002E0090005402070030C0B300E516070084
:102C90000000EB0000DF88000800370000C0EB00F8
:102CA000140107004C02070000C2B300C61607005B
:102CB00000DF80000000E80000DF880001DF800006
:102CC0002E009000808F5000F4FF3900D0C0B30078
:102CD000BD160700A0C0B300BB1607009D0037005B
:102CE00040C0B300CF1607001E0090003A02070054
:102CF0002E009000E10F50000E003A001E009000E0
:102D0000FC000700E2FBB700E4DBBF0068406000A6
:102D10000004E0001A00320000C2B300AA16070047
:102D200010C0B300BF160700E2DBBF002A02070095
:102D300013003700004C2E00431507002E009000B2
:102D40002502070050C0B300B61607000000EB00D4
:102D500000DF8800060037001E009000E500070035
:102D6000E2FBB70000DF80000000E80000DF880021
:102D700001DF80002E009000808F5000F6FF3900A8
:102D8000D0C0B30090160700A0C0B3008E16070095
:102D900070003700404C2E00411507001200200043
:102DA0004100200010002000A81307000040E900A7
:102DB0006140600061416000A18020009140780086
:102DC000E0CFB30000C06000024070000AE8B70026
:102DD000E0C2B3009316070012002000210020007B
:102DE00010002000991307000040E90061406000D6
:102DF0006141600041BE210091407800E0CFB30006
:102E000000C0600002407000E4FBB700F0C2B300F5
:102E1000841607002200200021002000100020005E
:102E20008A1307000040E9006140600061406000D3
:102E30000041400041BE210091407800D0CFB30056
:102E400000C0600002407000E4FBB70000C3B300A4
:102E5000741607001200200021002000100020003E
:102E60007A1307000040E9006140600061406000A3
:102E70004201DD0041BE210091407800B0CFB30097
:102E800000C0600002407000E4FBB700E0C1B30086
:102E9000641607001200200021002000100020000E
:102EA0006A1307000040EA0061406000C700DD00CF
:102EB0000AC8BF000074A100014070000AE8B70012
:102EC0000A68A90023003700E47BA900230007005B
:102ED0000040EB00531607001E003700710007008A
:102EE0001C0037001E01900052079800DE01900080
:102EF0000300E000040032005E009000E10F50008B
:102F0000040032000E00370020502E00E4140700A9
:102F100010003700B0522E00E1140700120020000C
:102F20003100200010002000481307000040E90095
:102F3000E2FBB700E2DBBF007C00070005003700C2
:102F400070C1B300371607000200370080C1B3001C
:102F5000341607000080FA00000006000000FA00A6
:102F600041E2A9000AC8BF0001C8B30001406000E7
:102F70000004E00003003200CEE2A800CF02A80067
:102F8000CEC2A800816A20009140780000CEB30034
:102F900000C060007040B300A8E6B700916C20004C
:102FA0009140780000CEB30000C060007040B300D4
:102FB000C9E6B700816C20009140780000CEB300D4
:102FC00000C060000034A000C8E6B700CAC2A80074
:102FD000C8C2A900C902A900C8E2A800C922A90064
:102FE0000AC8BF00614060008080FB00C0BF2100B4
:102FF00000804000104078000080FB001012880024
:1030000042A2A800E4DBBF006140600061406000B4
:103010004601DD002124200091407800F0CBB30070
:1030200000C060000240700042E2B700E4DBBF0075
:103030000080FB000000D100614060006141600041
:103040003124200091407800E0CFB30000C0600040
:103050000240700043E2B700E4DBBF000080FB00E9
:103060004200DE00614060006140600000414000BD
:103070003124200091407800D0CFB30000C0600020
:103080000240700043E2B7000000EB00201288000D
:103090000000EB000012880041E2A8000080FA0066
:1030A000000006000000FA0041E2A900A8C6BF0027
:1030B000F041B300A8E6B700916C20009140780081
:1030C00000CEB30000C06000C9E6B700816C2000EC
:1030D0009140780000CEB30000C06000C8E6B700A1
:1030E000CEE2A900CF02A900CEC2A9000080FA005A
:1030F000000006000200FA00004F78001E80FB006E
:103100004012880085C0BF00644060000004E000F9
:10311000FCFF320040128000004F78008540A9007B
:103120001E80FB000080FA00000006000400FA0088
:1031300020479800A0562E0059140700D9FF070019
:103140004D0007002E409000E14F500008003E0067
:10315000CAC2BF000080FB004600DE006140600084
:10316000804078002E40900080CF500008003A0048
:1031700041C2BF0001C8B300014060000004E0008C
:103180000E003A0041E2A80061E2A8000B003700FF
:1031900041C2BF0001C8B300014060000004E0006C
:1031A0000600320041E2A90061E2A900D0C0B300EC
:1031B00085150700A0C0B3008315070040C2BF00FB
:1031C0000042B2000004E00004003A004012800017
:1031D000004F78001E407800FF00070060C2BF006B
:1031E0000042B2000004E00008003A0040138000F2
:1031F000004F7800F0592E00131407001E4078008D
:10320000F5000700105A2E000F14070040C2BF003F
:103210000044B2000004E00004003A0060C2BF00B5
:103220000044B2000004E00005003200405A2E00C5
:103230001B14070040C2A90060C2A9000A003700A1
:1032400022C2BF00614060000004E000BDFF320008
:1032500030118000004F7800D0C0B3005A1507002D
:10326000A0C0B30058150700720007003BFF07001D
:103270000080FA00000006000000FA00C8C2A800A2
:10328000C902A800C8E2A800C922A800816A2000DB
:103290009140780000CEB30000C060009040B300C1
:1032A000A8E6B700916A20009140780000CEB300F4
:1032B00000C060000034A000A9E6B700C16A200089
:1032C0009140780000CEB30000C060007040B300B1
:1032D000ACE6B700D16A20009140780000CEB30080
:1032E00000C060000034A000ADE6B7000AC8BF000F
:1032F000614060008080FB00C0BF21000080400072
:10330000104078000080FB0010128800E4DBBF0052
:1033100061406000614060004601DD002124200022
:1033200091407800F0CBB30000C060000240700014
:1033300042E2B700E4DBBF000080FB000000D100E8
:1033400061406000614160003124200091407800BC
:10335000E0CFB30000C060000240700043E2B7005D
:103360000000EB00201288000000EB000012880033
:103370000AC8BF00614060008080FB00C0BF210020
:1033800000804000104078000080FB00101388008F
:10339000E4DBBF0061406000614060004601DD0089
:1033A0002126200091407800F0CBB30000C06000DF
:1033B0000240700062E2B700E4DBBF000080FB0067
:1033C0000000D100614060006141600031262000B2
:1033D00091407800E0CFB30000C060000240700070
:1033E00063E2B7000000EB00201388000000EB0050
:1033F000001388000000EB00401288000000EB0082
:10340000401388004322A9006322A9004362A80058
:1034100042A2A9006362A80062A2A90040C2A9005A
:1034200060C2A9004402A8006402A8000080FA005B
:10343000000006000000FA0041E2A9004362A90072
:1034400061E2A9006362A900A8C6BF00F041B30011
:10345000A8E6B700A9C6BF00F041B300A9E6B700CF
:10346000ACC6BF00F041B300ACE6B700ADC6BF00CC
:10347000F041B300ADE6B7000080FA00000006009E
:103480000000FA000AE8A9000A08A9000A48A900F1
:103490000A28A9000A68A9000A88A9000AA8A900A0
:1034A0000AC8A9000B08A9000080FA000000060065
:1034B0000000FA00C922A800C902A800C8E2A800BA
:1034C000C8C2A800C942A800CA82A900C882A9002F
:1034D000C962A800C262A800C062A9000000EB0097
:1034E00020408800E6FF0700C082A900C282A90030
:1034F000C8A2A900CAA2A9002D23A9002D43A90092
:103500002D63A9002D83A90001322000914078008D
:1035100000CEB30000C0700020E3B7000000EB0055
:103520008019880020F02100201988000000EB009D
:10353000101988000080FA00000006000200FA005E
:10354000004F78001E80FB00401988002023A8004F
:103550002003A90020C3BF00614060000004E00018
:10356000FCFF3200001880000080FA000000060016
:103570000000FA0021E3A800C0C0B300EFFF07007D
:103580005614070021E3A9000080FA00000006009D
:103590000000FA0000C8BF000080FB00800040006F
:1035A00000B7210000804000100078004011880022
:1035B0000000EB00001188002062A8000000EB0072
:1035C0001011880021E2A8002342A8008560A9000C
:1035D0000080FA00000006000400FA00004F7800A6
:1035E00010408000100798001E009000E10F50006E
:1035F0000D0032001E009000E10F5000070039005E
:103600001E009000E20F50000A0032001E009000E1
:10361000E30F50000A0032000B0037001E80FB0051
:10362000FA130700080037001E407800C613070091
:10363000050037001E4078003313070002003700F2
:103640001E407800601407000080FA0000000600A9
:103650000600FA00404798000040EB002047980021
:103660000E0037000000EB00000F78000500370067
:10367000A0CFB3000F0007001E0078000000E80094
:10368000000F78001E007800E30F5000F8FF3600AE
:103690002E4090000040E80020479800AE40900087
:1036A0004E40900080CF5000EEFF39000080FA00BD
:1036B000000006000400FA00204798000040EB00DC
:1036C000004F7800130037000000000000000000E9
:1036D00000000000000000000000000000000000EA
:1036E00000000000000000000000000000000000DA
:1036F00000000000000000000000000000000000CA
:1037000000000000000000001E4078000040E800BB
:10371000004F78009E4078002E40900080CF5000EF
:10372000E9FF39000080FA00000006000C00FA00F2
:10373000004F7800110798002207980094DBBF0023
:10374000E14F500030003A0000C2B3001E140700E1
:1037500030C0B3009E4F10000600320021C0B300FD
:103760009ECF10000300320042C0B3009E4F1100F4
:103770000F003A0070C0B3002A140700D0C0B30095
:1037800011140700A0C0B3000F14070095DBBF00A1
:103790000004E00003003A0010C0B3006A190700FB
:1037A0001700370010C0B3004A02070014003700AA
:1037B000C3C1B3009ECF110003003A00A0322E0017
:1037C000B71207007501370060C0B3001514070079
:1037D000D0C0B300FC130700A0C0B300FA13070069
:1037E00095DBBF000004E00003003A000040EB005E
:1037F00055190700020037000040EB0035020700B2
:103800000040EB0094FBB7001E80FB006101B90093
:103810003207980043079800C001200001002000F3
:103820003E019000CE019000800F5100818F590021
:1038300058013E003E009000CE0090000060010064
:103840001C003700590037008A0037008900370014
:1038500091003700E40037004E0137004D0137007A
:103860004C0137004B0137004A013700490137004E
:10387000480137004701370046013700450137004E
:10388000440137004301370042013700410137004E
:10389000400137003F0137003E0137003D0137004E
:1038A00086003700B8003700C800370039013700FC
:1038B0003A0137002E009000E10F50000D003A0051
:1038C00010C0B300D713070095DBBF000004E00071
:1038D00003003A00D918070096FBB7000200370032
:1038E0001902070096FBB70096DBBF003AFF0700FE
:1038F0002B00370020C0B300CA1307002E00900031
:1039000035FF070030C0B300C61307000000EB000E
:10391000C0DC88001E003700C0DC80000000E00032
:103920000E00320000C2B300A713070060C0B3004E
:10393000BC13070000C2B300A313070095DBBF0050
:103940000004E00003003A000040EB00FE1807000E
:10395000020037000040EB00DE01070095DBBF00EE
:103960000004E00003003A00B418070096FBB7001B
:1039700002003700F401070096FBB70096DBBF009A
:1039800015FF0700C0DC80000000E800C0DC8800F4
:10399000C1DC80002E009000808F5000DEFF3900D7
:1039A00010C0B30094FBB700FC00370040C0B30068
:1039B0009C1307001E00900007FF07002E009000D8
:1039C000E10F500006003600C0332E001E12070023
:1039D0002E00900000FF070050C0B30091130700B5
:1039E0000000EB00C0DC88000F00370095DBBF0053
:1039F0000004E00005003A001E0090005E18070079
:103A0000C018070096FBB700040037001E009000A6
:103A1000C3010700A801070096FBB700C0DC8000C7
:103A20000000E800C0DC8800C1DC80002E009000AF
:103A3000808F5000EDFF390000C2B3006213070011
:103A400096DBBF000004E00003003A0060C0B30052
:103A5000741307000200370070C0B3007113070031
:103A6000D0C0B30058130700A0C0B300561307001E
:103A7000CA00370095DBBF000004E00002003A00F6
:103A8000D2170700010037007B01070080C0B30098
:103A900064130700C100370095DBBF000004E0009D
:103AA00002003A00DC170700010037007A01070026
:103AB00090C0B3005B130700B80037000AE8A80005
:103AC0000AA8A80000342E00F511070012002000FB
:103AD00021002000100020005C1007000040E900D9
:103AE00095FBB70095DBBF000004E00010003A0032
:103AF00010C3B3004B130700120020002100200068
:103B000010002000511007000040E90061406000F3
:103B100061416000A180200091407800E0CFB300B7
:103B200000C06000024070000AE8B7009B00370048
:103B30004140800030002300808F500002003E0092
:103B4000B0362E00D6110700A03B2E00D41107007E
:103B50001200200031002000100020003B10070060
:103B60000040E9006140600061416000A1802000E8
:103B700091407800E0CFB30000C0600002407000C8
:103B80000AE8B7008500370095DBBF000004E000BD
:103B90000A003A00C922A800C902A800CB02A90065
:103BA000CB22A9000AC8BF006140600080407800B5
:103BB00020C0B30062170700010037006D01070045
:103BC0000040EB0017130700740037000040EB00C3
:103BD00094FBB70095DBBF00E14F50006F003A0047
:103BE00007E2A9006D0037009E0090005107980081
:103BF0005E019000E10F51000A003200DE019000EA
:103C0000E18F5100040039005E009000E20F500087
:103C10004B0032005C003700E03E2E00A011070090
:103C20005E00370060422E009D1107000000EB008F
:103C3000C0DC88003900370095DBBF000004E000DD
:103C400006003A0061170700C0DC8000CA170700B1
:103C50002C18070096FBB700050037000601070087
:103C6000C0DC80002E0107001301070096FBB7009F
:103C700096DBBF000004E0001F003A00C0DC8000BB
:103C800055FE070080C2B300CF120700C0DC8000E1
:103C90000000D10050FE0700C0DC80000000A20040
:103CA000610060000004E00003003200D0472E00F5
:103CB000651107000C00370095DBBF000004E00031
:103CC00004003A00DD17070010C0B3001E180700FB
:103CD000030037001C01070010C0B300FD000700FF
:103CE00000482E005811070030482E0056110700DA
:103CF00000C2B300B412070095DBBF000004E0006F
:103D000002003A004417070001003700E2000700F4
:103D1000C0DC80000000E800C0DC8800C1DC80005E
:103D2000F00F2000808F5000C3FF3600D0C0B300DA
:103D3000A5120700A0C0B300A312070017003700A8
:103D400095DBBF000004E0000F003A0050482E0051
:103D500053110700130007003500070022C2BF00FF
:103D6000614060000004E000FBFF32003011800081
:103D7000C0DC8800D0C0B30093120700A0C0B3001D
:103D8000911207000500370070C1B300A5120700AB
:103D90000200370080C1B300A21207000080FA00C1
:103DA000000006000000FA00C922A800C902A8000D
:103DB000CB02A900CB22A90062A0A80062C0A80083
:103DC0008660A9000000EB00D0DC88000040EB001A
:103DD0009FFBB700CBC2BF000080FB000000D100FA
:103DE0006140600061416000E1B9210091407800CC
:103DF000E0CFB30000C06000024070009EFBB7003F
:103E0000CBC2BF0061406000614060004201DD0044
:103E1000E1B9210091407800B0CFB30000C060004C
:103E2000024070009EFBB7000080FA000000060010
:103E30000400FA0086C0BF00684060000004E00093
:103E40008B003200CBC2BF000080FB000000D1001D
:103E5000614060006140600000414000E1B9210024
:103E600091407800D0CFB30000C0600002407000E5
:103E70009EFBB700CBC2BF006140600061406000A4
:103E80004301DD00E1B921009140780070CFB3001B
:103E900000C06000024070009EFBB7008660A90071
:103EA0009EDBBF00644060000004E000220032009E
:103EB0009EDBBF00684060000004E0001E0032008E
:103EC0009EDBBF00614060000004E0000B00320098
:103ED0009EDBBF00624060000004E00007003A0083
:103EE00020002000D0DC88000040EB009FFBB700E2
:103EF000B0C5B30034120700460037009EDBBF0098
:103F0000614060000004E00042003A009EDBBF0018
:103F1000624060000004E0003E0032000000EB0060
:103F2000D0DC88000040EB009FFBB700D0C5B30099
:103F300025120700370037009EDBBF006440600099
:103F40000004E00033003A009EDBBF0068406000E0
:103F50000004E0002F003200D0DC80001007980041
:103F60001E009000E20F5000040032001E0090007E
:103F7000E30F500017003200260037009CDBBF0023
:103F8000004040009CFBB7009EDBBF000080FB00B0
:103F90000000D10061406000804078009CDBBF00E1
:103FA00000C040009CFBB7009FDBBF000040E80062
:103FB0009FFBB7009FDBBF00E84F500015003A00A1
:103FC0000040EB009FFBB70030002000D0DC8800F1
:103FD00010003700CBC2BF000080FB000000D10002
:103FE00061406000004F78009CDBBF007AFD070055
:103FF0001E04E00003003200D0C2B300F21107003B
:1040000002003700B0C2B300EF110700200020000B
:10401000D0DC88009EDBBF000080FB000000D100E8
:104020006140600061416000E1B921009140780089
:10403000E0CFB30000C06000024070009EFBB700FC
:104040009EDBBF000080FB004300DE00614060009B
:10405000614060004201DD00E1B92100914078003B
:10406000B0CFB30000C06000024070009EFBB700FC
:104070000080FA00000006000000FA000602A80016
:1040800006C2BF00614060000004E000FCFF3A008F
:104090000080FA00000006000000FA000642A800B6
:1040A00006C2BF00644060000004E000FCFF3A006C
:1040B0000080FA00000006000000FA0009C2BF00FC
:1040C0000080FB004700DE000080FB000080FA005B
:1040D000000006000200FA00004F78009E407800C1
:1040E00061C06000614060004501DD00612020008A
:1040F00091407800F0CDB30000C060000240700035
:1041000006E2B7000682A80006C2BF007040600049
:104110000004E000FCFF3A000080FA000000060006
:104120000200FA00004F78001E40780002E2B7005B
:1041300009C2BF000044B2000004E000FCFF3A00E6
:104140000080FA00000006000200FA000662A800E3
:1041500006C2BF00684060000004E000FCFF3A00B7
:1041600000C2BF00004F78001E80FB000080FA00F4
:10417000000006000000FA000742A9000782A9001B
:104180000000EB00501088000000EB006010880079
:104190000702A9000AC8BF00614060008080FB00E0
:1041A00000C0210000804000104078000080FB002B
:1041B0002010880007E2A8000080FA000000060036
:1041C0000C00FA00004F78001107980022079800B1
:1041D0001E80FB006101B900320798004307980078
:1041E000C0012000010020003E019000CE0190009F
:1041F000800F5100818F59002E013E003E0090003B
:10420000CE009000006001004A0037006C003700CB
:10421000380037003D00370042003700B800370053
:104220008A003700940037009E003700A400370052
:10423000A7003700AA003700AD0037001D01370086
:104240001C0137001B0137001A0137001901370024
:104250001801370017013700160137001501370024
:104260001401370013013700040037001D00370028
:10427000120137000F01370010013700E0C1B30011
:10428000681107001200200021002000100020000B
:104290006E0E07000040E90061406000614160006F
:1042A00041BB210091407800E0CFB30000C0600026
:1042B00002407000B4FBB700B4DBBF006140600097
:1042C00000C0EA0061406000C700DD000AC8BF000E
:1042D0000074A100014070000AE8B7000A68A80055
:1042E000F6003700860107000040EB004D11070083
:1042F000F2003700F300070020C0B30043010700BD
:10430000A0E92D00E60F0700EC003700ED000700E4
:1043100030C0B3003D01070040EC2D00E00F070066
:10432000E6003700E7000700C0EE2D00DC0F0700B5
:10433000E20037002E009000E10F500007003A0025
:10434000E0010700B2FBB70010C0B3003511070051
:10435000B2DBBF00A0FC07001400370020C0B30090
:10436000301107002E0090009BFC070030C0B30006
:104370002C1107000000EB0080DD880007003700EB
:10438000D001070094FC070000C2B3000E11070023
:1043900080DD80000000E80080DD880081DD800095
:1043A0002E009000808F5000F5FF3900D0C0B30080
:1043B00005110700A0C0B30003110700BF003700BC
:1043C00040C0B300171107001E00900082FC0700D8
:1043D0002E009000E10F500004003A001E009000F3
:1043E00052010700B2FBB7001300370090EF2D0019
:1043F000950F07002E00900077FC070050C0B30017
:10440000081107000000EB0080DD8800060037007F
:104410001E00900045010700B2FBB70080DD800060
:104420000000E80080DD880081DD80002E00900023
:10443000808F5000F6FF3900D0C0B300E2100700B3
:10444000A0C0B300E01007009C003700E1010700A6
:10445000B2FBB700D0C0B300F2100700B2DBBF0060
:10446000720F0700D0C0B300D7100700A0C0B30080
:10447000D510070091003700E0C0B300E910070035
:10448000DE010700B2FBB700B2DBBF00670F070019
:10449000D0C0B300CC100700A0C0B300CA10070002
:1044A000860037002E0090004BFC070000C1B300CF
:1044B000DC1007002E009000F90107007F00370094
:1044C00010C1B300D7100700020207007B003700BD
:1044D00020C1B300D3100700170207007700370090
:1044E00030C1B300CF100700CB01070073003700C5
:1044F00040C1B300CB100700E20107006F00370096
:104500009E009000510798005E019000E10F51005D
:104510000D003200DE019000E18F510007003900EC
:104520005E009000E20F50000C003200DE009000B0
:10453000E38F5000550032005B003700D0EF2D00B4
:10454000410F07005D003700A7000700A0F42D0011
:10455000530F07005B0007005800370080F52D005F
:104560004F0F0700A0000700A0F42D004C0F07001C
:10457000A90107005300070020C0B300A3000700F3
:1045800000C0EB00C601070000C0EB00C40107003B
:104590004C00070030C0B3009C0007000000EB0097
:1045A00080DD88000700370080DD80000000E80023
:1045B00080DD880081DD8000900F2000808F50001A
:1045C00003003E00830107000004E000F6FF320014
:1045D0003C00070084000700A0F42D00300F070006
:1045E0003800070030C0B3008800070080DD80007D
:1045F000F9FB070080F62D00290F07000040EB00B3
:10460000B2FBB7001A003700B2DBBF000040E80081
:10461000F1FB070010F82D000B0F07002901070020
:10462000EDFB070000C2B30067100700250107007B
:10463000E9FB070000C2B300631007002101070077
:10464000E5FB070000C2B3005F1007001D01070073
:10465000E1FB0700D0C0B3005B100700A0C0B300AF
:1046600059100700B2DBBF000040E800B2FBB70002
:10467000B2DBBF008080FB0080DD8000808F5000B7
:10468000E1FF39000F0007000C00370050F82D0043
:10469000030F070080FC2D00010F0700D0FF2D0045
:1046A000FF0E07000500370070C1B3005D10070062
:1046B0000200370080C1B3005A1007000080FA00E2
:1046C000000006000200FA0080022E00DE0E070045
:1046D000ACDBBF000080FB00000F78001E007800FC
:1046E000E10F50000E0032001E007800E10F500074
:1046F00004003C001E0078000000E0000B003200C7
:10470000350037001E007800E20F50000F00320025
:104710001E007800E30F5000240032002E00370006
:1047200010032E00DE0E07002D003700A401070045
:1047300010C0B3005A01070010C0B300ACFBB700B3
:10474000E0032E00D60E070025003700ADDBBF00CA
:10475000E14F50000A003A00AEDBBF00E14F5000CD
:1047600002003A002C010700010037004501070054
:104770000040EB00ADFBB700A0042E00B20E070016
:104780007401070020C0B300450107008C01070039
:1047900010C0B3004201070010C0B300ACFBB7006B
:1047A000F0052E00BE0E07000D003700690107005E
:1047B00020C0B3003A0107008101070010C0B30018
:1047C0003701070010C0B300ACFBB70080062E0015
:1047D000B30E07000200370010072E00B00E0700CE
:1047E0000080FA00000006000000FA0059010700EE
:1047F000A0C0B3002A010700710107000040EB00D0
:10480000ACFBB7000080FA00000006000400FA00CC
:10481000004F7800ACDBBF00E14F500002003200D7
:10482000F0072E009E0E070080022E00860E070065
:104830001E80FB00100798001E009000E10F500042
:104840000E0032001E009000E10F500004003C00FA
:104850001E0090000000E0000B0032002400370032
:104860001E009000E20F5000160032001E00900063
:10487000E30F5000080032001D00370010032E0027
:10488000870E07001C003700D7FF0700B0092E0075
:10489000830E0700180037002E01070010C0B30078
:1048A000FF0007004601070020C0B300FC0007001E
:1048B00030C0B300ACFBB700100A2E00780E070022
:1048C0000D0037002301070020C0B300F4000700EB
:1048D0003B01070020C0B300F100070020C0B30077
:1048E000ACFBB700500B2E006D0E07000200370026
:1048F000A00E2E006A0E07000080FA0000000600DD
:104900000000FA00C8E2A800C902A900C922A90053
:10491000C8C2A900CAE2A900CB02A900CB22A90003
:10492000CAC2A9000080FA00000006000800FA00D0
:104930004047980000010700ADDBBF00E14F500089
:1049400006003A00AEDBBF00910007000040EB001C
:10495000ADFBB70040102E00510E07000AC8BF0083
:10496000704060000004E0000300320010C0B3009B
:10497000004F78000200370000C8B300004F7800F5
:104980000040EB0030479800450037004E40900053
:104990001E4060000004E00002003A00B900070079
:1049A000010037009C000700CA000700CAC2BF0010
:1049B0000080FB004700DE00204798000AC8BF00C7
:1049C000704060000004E000100032004E40900093
:1049D0000080FB000000D100404798001E4090007E
:1049E0000080FB000000D100104798002E4090008E
:1049F000E14F500011003A001E40900001C8B30082
:104A000001404000104798000C0037004E409000D5
:104A100000404000404798001E4090000040400089
:104A2000104798002E409000E14F500003003A00DC
:104A30001E4090000040E80010479800BE000700AC
:104A4000ACDBBF00E24F500012003A003E40900045
:104A5000E64F50000F003A0010C0B300ADFBB700A6
:104A60004E4090001E4060000004E00003003A0049
:104A70000040EB00AEFBB7000200370010C0B300EF
:104A8000AEFBB7001E4090000080FB00300798008E
:104A9000090037003E4090000040E8003047980091
:104AA0003E409000E74F5000B8FF36001E40900097
:104AB0000080FB00300798003E0090000080FA0064
:104AC000000006000400FA009B000700ADDBBF00F9
:104AD000E14F500006003A00AEDBBF002C0007009B
:104AE0000040EB00ADFBB70040102E00EC0D0700BE
:104AF0000040EB00204798001F00370075000700BA
:104B0000CAC2BF000080FB004700DE0010479800CB
:104B10000AC8BF00704060000004E00008003A00CE
:104B20001E40780000404000004F78001E4090007A
:104B30000004E0000C0032001E4FE8000A003700BD
:104B40001E80FB000000D100004F78001E40900046
:104B50000004E000040032001E40780001C8B300E9
:104B600001404000004F7800730007002E40900085
:104B70000040E800204798002E409000E74F50008A
:104B8000DEFF36001E80FB000080FA0000000600F9
:104B90000400FA00204798002E4090000004E00036
:104BA00002003A0037000700010037001A00070032
:104BB00048000700CAC2BF000080FB004700DE00BB
:104BC000004F78005C0007001E80FB000080FA00A8
:104BD000000006000200FA003E000700CAC2BF0043
:104BE0000080FB004700DE00004F78005200070005
:104BF0001E80FB000080FA00000006000000FA00A2
:104C0000CAC2BF000080FB004700DE000080FB003E
:104C10000080FA00000006000000FA00B4DBBF00CC
:104C20006140600000C0EA006140600061406000D7
:104C300000414000912C200091407800D0CFB3007B
:104C400000C0600002407000C9E2B700B4DBBF00E2
:104C5000614060006140600000414000B12C2000D4
:104C600091407800D0CFB30000C0600002407000D7
:104C7000CBE2B70040C1B3008EFA07000080FA0013
:104C8000000006000000FA00CB22A900C922A900FA
:104C900040C1B30087FA07000080FA000000060058
:104CA0000400FA00204798000040EB00004F780015
:104CB00003003700070007001F0007001E4FE80031
:104CC0002E4090009E4F1000FAFF39000080FA003D
:104CD000000006000000FA00B4DBBF006140600085
:104CE00000C0EA006140600061416000912C20003A
:104CF00091407800E0CFB30000C060000240700037
:104D0000C9E2B700B4DBBF006140600061416000F0
:104D1000B12C200091407800E0CFB30000C06000CB
:104D200002407000CBE2B70040C6B30061FA070052
:104D30000080FA00000006000000FA00CB02A90083
:104D4000C902A90040C6B3005AFA07000080FA0061
:104D5000000006000000FA00B4DBBF006140600004
:104D600000C0EA0061406000614060004601DD0073
:104D7000812C200091407800F0CBB30000C060008F
:104D800002407000C8E2B700B4DBBF0061406000C1
:104D9000614060004601DD00A12C200091407800B8
:104DA000F0CBB30000C0600002407000CAE2B70060
:104DB00040C1B3003FFA07000080FA00000006007F
:104DC0000000FA00CAC2A900C8C2A90040C1B300CD
:104DD00038FA07000080FA00000006000200FA001E
:104DE000F0C2B300104798000040EB00004F78007D
:104DF000C922A800CB22A900C922A90005003700BA
:104E0000A0C0B3002BFA07001E4090000040E9004C
:104E1000104798001E4090000004E000F8FF3C009E
:104E2000C922A800C0C3B30022FA0700CBC2BF004A
:104E30000080FB000000D1006140600004FCB7006E
:104E400090C2B3001047980005003700A0C0B3001F
:104E500018FA07001E4090000040E9001047980033
:104E60001E4090000004E000F8FF3C00CBC2BF00F1
:104E70000080FB000000D1006140600005FCB7002D
:104E800005DCBF000004E00002003A0010C0B300DF
:104E9000004F780004DCBF00E14F500003003A00EF
:104EA0001E40780000C0E800004F7800A0C0B300AA
:104EB00000FA07001E80FB000080FA0000000600D8
:104EC0000400FA002047980080C0B300004F78002B
:104ED0001D0037002E4090006140600006FCB700C6
:104EE000CB22A900C922A90050C0B300F1F90700E4
:104EF00006DCBF006140600061406000004140008E
:104F0000912C200091407800D0CFB30000C0600009
:104F100002407000C9E2B70020C3B300E5F9070002
:104F200050C0B300E3F90700C922A800A0C0B30035
:104F3000E0F907002E4090000080FB000000D10047
:104F4000204798001E4FE9001E04E000E1FF3C00EE
:104F5000A0C0B300D7F907000080FA0000000600E7
:104F60000200FA00004F7800CB22A900C922A90054
:104F700050C0B300CFF907009E40780061C06000C8
:104F80006140600000414000912C20009140780079
:104F9000D0CFB30000C0600002407000C9E2B7008B
:104FA00020C3B300C3F9070050C0B300C1F9070024
:104FB000C922A800A0C0B300BEF907000080FA0013
:104FC000000006000200FA0080C0B30010479800FD
:104FD0000040EB00004F78001D003700CB22A900F5
:104FE000C922A90030C0B300B2F90700C922A80045
:104FF00050C0B300AFF90700CBC2BF000080FB0078
:105000000000D1006140600006FCB70040C3B3005F
:10501000A8F907001E80FB000000D100004F7800B7
:1050200006DCBF00E14F500004003A001E4078004B
:1050300001C8B30001404000004F7800A0C0B30099
:105040009CF907001E4090000040E90010479800BE
:105050001E4090000004E000E0FF3C00A0C0B30050
:1050600094F907001E80FB000080FA000000060093
:105070000000FA00CB22A900C922A90030C0B30069
:105080008CF90700C922A80050C0B30089F90700B5
:10509000CBC2BF000080FB000000D1006140600077
:1050A00006FCB70040C3B30082F90700A0C0B300FC
:1050B00080F9070006DCBF000080FB000080FA00DA
:1050C000000006000800FA00200798003107980049
:1050D0000040EB00004F78000000EB001007980044
:1050E0000C0037001E009000800078002E00900019
:1050F00000804000104078001E4068008080FB0067
:1051000020992E00614F78001E0090000000E800FA
:10511000100798009E0090003E009000808F500085
:10512000F0FF35001E80FB000080FA000000060042
:105130000C00FA00881F7800004F780011079800D3
:10514000220798001E80FB006101B9003207980019
:1051500043079800C0012000010020003E0190009C
:10516000CE019000800F5100818F5900C3013E0095
:105170003E009000CE009000006001001C0037004F
:1051800040003700600037005F003700BB01370088
:105190009F0037005E003700B80137006500370018
:1051A000B6013700B50137007700370076003700C9
:1051B000B2013700B1013700B0013700AF0137004D
:1051C000AE013700AD013700AC013700AB0137004D
:1051D000AA013700A9013700A80137007D00370078
:1051E00080003700A7013700A4013700A501370070
:1051F0002E009000E10F500007003A0010C0B300ED
:10520000880D07006FFF0700FBFAB700FBDABF004D
:10521000F1F807001600370020C0B300810D070029
:105220002E009000ECF8070030C0B3007D0D0700A1
:105230000000EB00C0D788000900370061FF0700BD
:10524000FBFAB700FBDABF00E3F8070000C2B300C7
:105250005D0D0700C0D780000000E800C0D78800BF
:10526000C1D780002E009000808F5000F3FF3900DE
:10527000D0C0B300540D0700A0C0B300520D07000A
:105280008001370040C0B300660D07001E0090008B
:10529000D1F807002E009000E10F500003003A0003
:1052A0001E00900006FF07001200370000AF2D001F
:1052B000E50B07002E009000C7F8070050C0B300B0
:1052C000580D07000000EB00C0D78800050037002C
:1052D0001E009000FAFE0700C0D780000000E80022
:1052E000C0D78800C1D780002E009000808F50006A
:1052F000F7FF3900D0C0B300330D0700A0C0B300E2
:10530000310D07005F013700610107005D013700C3
:1053100057FF0700FBFAB700D0C0B300410D0700EC
:10532000FBDABF00C10B0700F0C0B3003D0D070062
:10533000540137002E009000A7F8070040AF2D0061
:10534000C10B07000000EB00C0D788000500370044
:10535000EEDABF0002FF0700C0D780000000E800BF
:10536000C0D78800C1D780002E009000808F5000E9
:10537000F7FF3900EEDABF00AC0B070060B02D007C
:10538000C70B07003F01370080B02D00AE0B0700B0
:10539000C1C0B3009ECF100005003A000040EB00F2
:1053A000EEFAB7000040EB00A00B07000400370046
:1053B00010C0B300EEFAB70010C0B3009B0B07009B
:1053C00060B12D00B60B0700EEDABF00E4FE070067
:1053D0002C0137000A68A9000AA8A8000AE8A8005A
:1053E000280137000040EB00FCFAB700C922A800F2
:1053F000CB22A90090B42D00A90B0700A0B72D0067
:10540000A70B07000040EB00060D07001D01370049
:105410001E0090000000E000360032009E00900068
:1054200020032000808F500032003E001E009000BC
:105430000000E90010079800FCDABF008080FB0044
:105440001E009000808F500003003E0040BA2D00E7
:10545000930B07000B013700E0BE2D007A0B07000D
:105460001E0090000040E800370C0700E0BF2D0050
:10547000750B07000040EB00FAFAB7001700370081
:105480001E019000FADABF008080FB004310DD00AF
:1054900081004000D0AF2100008040001040780023
:1054A0004DF8070000C2B300C70C07001E019000B2
:1054B000FADABF008080FB004310DD00810040006D
:1054C000D0AF210000804000104078007CFE070033
:1054D000FADABF000040E800FAFAB700FADABF00D3
:1054E000E74F5000E6FF360010C02D006C0B0700A0
:1054F000E40037001E01900052079800500520007C
:10550000DE019000808F5100CD0032005005200058
:10551000DE009000808F500008003E005E01900089
:105520000200E0001200320030032000DE01900093
:10553000808F5100A0003200CD003700C00E200047
:10554000DE009000808F500046003200000F2000E7
:105550005E019000800F510042003200C00C20001C
:10556000DE019000808F5100BB003200C000370088
:1055700030C02D004A0B070080C12D00480B0700EA
:10558000FCDABF000004E00003003A0040BA2D003E
:10559000430B0700300037000040EB00FBFAB70078
:1055A0002800370000C2B300870C0700FBDABF00F9
:1055B0000040E800E40B070020C32D00220B070089
:1055C0000040EB00FAFAB7000F003700FBDABF002B
:1055D0000081FB00FADABF008080FB004310DD0091
:1055E00081004000D0AF21000080400010407800D2
:1055F000F9F7070000C2B300730C0700FADABF0026
:105600000040E800FAFAB700FADABF00E74F5000AE
:10561000EEFF360040C32D000B0B0700FBDABF0086
:105620000080FB00C300DD00D0AF210000804000FF
:1056300010407800B7000700FBDABF000040E80028
:10564000FBFAB700C1AF210091407800FBDABF0040
:1056500080CF5000D3FF3E00B0C32D00100B0700D9
:10566000880037001E0090003CF9B7009E009000B3
:10567000C00E2000808F500003003A0000D32D00A0
:10568000070B07000200370040D42D00040B070071
:1056900080C12D00020B07000040EB00FAFAB700B2
:1056A000CB000700FBFAB7000040EB00FCFAB700A4
:1056B0003B00370000C2B300430C0700FADABF001A
:1056C0000040E800A00B070020C32D00DE0A070001
:1056D0000000EB00C0D788000A003700C1D7800067
:1056E000D0B421000080400010407800BAF70700D5
:1056F00000C2B300340C0700C0D780000000E800EF
:10570000C0D78800C0D78000E70F5000F3FF3600F5
:1057100040C32D00CC0A07004DDBBF007D00070011
:10572000FADABF00E94F500018003E000000EB001D
:10573000C0D788000F003700FCDABF008081FB0073
:10574000C4D78000C1D78000D0B4210000804000C1
:10575000104178004318DD0084004000D0AF2100E4
:105760000080400002487800C0D780000000E800B8
:10577000C0D78800C0D78000E70F5000EEFF36008A
:10578000FCDABF000040E800FCFAB700FADABF001C
:105790000040E800FAFAB70098000700FBFAB700EB
:1057A000FBDABF000004E000C2FF3A0020D52D0064
:1057B000BB0A0700330037003500070050D82D0022
:1057C000A10A070030C3B300BDFD07000000EB00D5
:1057D000C0D7880010003700C8D78000F9FD070047
:1057E00080407800F0AE21000000440001487800BD
:1057F000C1D78000F0AE210000804000104078004A
:1058000075F7070000C2B300EF0B0700C0D7800098
:105810000000E800C0D78800C0D78000E70F500024
:10582000EDFF3600D0C0B300E70B0700A0C0B30007
:10583000E50B0700EFDABF00360007001100370064
:105840001300070070D92D00950A070050C5B3005A
:105850009BFD07000B0037000D00070080DA2D00CC
:105860008F0A0700C0CCB30095FD07000500370084
:1058700070C1B300EB0B07000200370080C1B3001A
:10588000E80B07004F0478000080FA0000000600D3
:105890000200FA0051FD0700004F780080DB2D0068
:1058A000690A07001E04E00003003A0030DC2D0006
:1058B0007B0A07001500370060DC2D00620A070034
:1058C0001E80FB00610060000004E0000200320066
:1058D000E0DC2D005C0A07001E80FB000000D10008
:1058E000610060000004E0000200320020DF2D00B3
:1058F000550A070020E12D00530A07001E407800DA
:1059000035F7070060B02D00650A07000080FA0037
:10591000000006000400FA00004F78001E80FB0023
:1059200010079800200220009E009000808F5000F9
:105930001A003200200220009E009000808F50004C
:1059400007003C001E009000E40F500016003200DB
:105950009E009000F08F50000A00320018003700BF
:10596000800220009E009000808F500008003200CE
:10597000D00220009E009000808F50000D00320069
:105980000F00370040E12D00450A07000E003700E8
:1059900000E32D00420A07000B003700B0E42D00A1
:1059A0003F0A07000800370010E62D003C0A0700F8
:1059B00005003700A0E72D00390A07000200370074
:1059C000B0E82D00360A07000080FA00000006004B
:1059D0000000FA000040EB0055FBB7000040EB0070
:1059E00057FBB7000040EB0056FBB700080007006C
:1059F0000080FB000080FA00000006000000FA00B2
:105A0000030007000080FB000080FA000000060091
:105A10000A00FA0010C0B300704798000040EB0085
:105A2000604798000040EB005047980010C0B3005A
:105A3000104798000040EB00404798000040EB0002
:105A400058FBB70057DBBF000004E0008B003A00B2
:105A5000E2FC07000004E000090032000040EB0017
:105A600055FBB7000040EB0057FBB7000040EB00D0
:105A700056FBB7000000EB0040079800900037008D
:105A80003CD9BF000EFD070079FD070030479800A4
:105A900077FD0700204798003E409000E14F5000FE
:105AA00003003A002E409000E14F500063003200A6
:105AB000BE4090002E40900080CF50000300320086
:105AC0003E409000004F78002400370051B521007F
:105AD000914078007E409000814F50000E003100D0
:105AE0005E4090008080FB00D0B421000080400028
:105AF000904078001E40900080C060000040EB00A5
:105B0000004F78000104E0000B00320010C0B30029
:105B1000004F78000800370055DBBF008040EB00E5
:105B2000014F7800FE40900080CF500002003A0004
:105B300010C0B300004F78001E04E00007003A00D8
:105B40007E409000604798006E409000E84F500003
:105B500002003E006E40900056FBB70010C0B3003C
:105B60009E4F10000D003A005E4090000081FB0047
:105B70005E4090008080FB00D0B421000080400097
:105B8000904078001E40900080C07000D0B421008A
:105B900000004100014878000F0037005E4090008F
:105BA0000081FB005E4090008080FB00D0B42100AB
:105BB0000080400010407800804078001E40900037
:105BC00000C0EA0000C0600080407800D0B421002E
:105BD00000004100014878001E407800E0FC07000A
:105BE0007E4090000040E800704798001E40900002
:105BF00000404000104798001E4090000004E00064
:105C00000B003A005E4090008080FB00D0B4210081
:105C10000080400010407800840007005E40900043
:105C20000040E8005047980010C0B30010479800AB
:105C30005E409000E74F500093FF3600FE4090001A
:105C400000C4B30080CF50000C00360058DBBF000A
:105C50000004E00009003A006E40900055FBB700D8
:105C600055DBBF000004E00002003A0010C0B300A2
:105C700057FBB70010C0B300404798004E4090005B
:105C80000004E000030032004DDBBF000004E00030
:105C900008003A000040EB0055FBB7000040EB0065
:105CA00057FBB7000040EB0056FBB7000040EB008D
:105CB000404798004E4090000080FB00400798004D
:105CC0004E0090000080FA00000006000E00FA006E
:105CD0000040EB00404798000C0037004E40900019
:105CE0000081FB004E4090008080FB00D0B421007A
:105CF0000080400090407800650047000171780006
:105D00004E4090000040E800404798004E40900010
:105D1000E74F5000F1FF360055DBBF0020479800E9
:105D200057DBBF001047980056DBBF00004F7800DC
:105D300000C4B30055FBB7000040EB0057FBB700B1
:105D400033FF07000004E0001A00320010C0B30067
:105D5000304798000040EB004047980011003700A2
:105D60004E4090008080FB00650047006141780054
:105D70004E4090008080FB00D0B4210000804000A5
:105D800010407800804F5100030032000040EB00CB
:105D900030479800090037004E4090000040E8006E
:105DA000404798004E409000E74F5000ECFF36000F
:105DB000020037000040EB00304798000040EB0045
:105DC000404798000C0037004E4090000081FB00D7
:105DD0004E4090008080FB0065004700E140780065
:105DE000D0B4210000004100014878004E409000EE
:105DF0000040E800404798004E409000E74F5000B8
:105E0000F1FF36002E40900055FBB7001E40900079
:105E100057FBB7001E40780056FBB7003E4090008D
:105E20000080FB000080FA00000006000200FA007B
:105E3000004F780058DBBF001E4068008080FB00E8
:105E4000D0932100008040001040780058FBB7003C
:105E500058DBBF000080FB000080FA000000060055
:105E60000A00FA00004F78001107980022079800F6
:105E70001E80FB00300798003E009000F80F500095
:105E8000170032003E009000F80F50000A003C005E
:105E90003E009000E10F5000380032003E009000BC
:105EA000E50F50004F0032003E0090000000E0007F
:105EB000110032006E0037003E009000FA0F5000D3
:105EC0006D0032003E009000FA0F500006003500D1
:105ED0003E009000FC0F5000670032006400370065
:105EE0000AE8A800640037009D0007000040EB00AE
:105EF0004C0A0700600037002E009000E10F5000B0
:105F000005003A0010C0B300460A07002E01070042
:105F10005B0007001400370020C0B300410A0700EF
:105F20002E009000ACF5070030C0B3003D0A07001A
:105F30000000EB0050DE8800070037002201070058
:105F40004F00070000C2B3001F0A070050DE8000A8
:105F50000000E80050DE880051DE80002E00900036
:105F6000808F5000F5FF3900D0C0B300160A07003B
:105F7000A0C0B300140A07003F00370040C0B300C0
:105F8000280A07001E00900093F507001E009000ED
:105F90004B010700CCFBB700CCDBBF000004E000E6
:105FA00003003A0060C0B3001E0A07000800370073
:105FB000CCDBBF00E14F500003003A0070C0B300DB
:105FC000180A070002003700C0B82E009E0807001C
:105FD000D0C0B300FC090700A0C0B300FA09070055
:105FE000250037001E009000400798004E009000EA
:105FF0000000E000040032004E009000E10F50006D
:10600000040032001700370090B92E00A4080700E2
:1060100019003700B0BC2E00A1080700EA000700F5
:106020000004E00004003A00CFDBBF006AF507007F
:1060300000C2B300E409070022C2BF006140600053
:106040000004E000F5FF320030118000CCFBB70007
:10605000D0C0B300DC090700A0C0B300DA09070014
:106060000500370070C1B300EE09070002003700D9
:1060700080C1B300EB0907000080FA0000000600B1
:106080000400FA00004F78001E80FB001007980003
:106090009E009000E28F50001D0032001E00900014
:1060A000E20F500007003C009E0090000100E0005D
:1060B0000F0032001E009000E10F5000110032006E
:1060C000230037009E009000E48F50001A00320039
:1060D0001E009000E40F500012003500F00F200069
:1060E0009E009000808F500016003200180037008C
:1060F000CFDBBF0038F5070000C2B300B2090700CC
:106100001500370020C02E004F080700120037008E
:10611000CFDBBF0030F50700D0C12E004A080700D2
:106120000D003700CFDBBF002BF5070090C32E001A
:106130004508070008003700C0B82E0042080700D5
:106140000500370030C52E003F0807000200370069
:1061500010C62E003C0807000080FA000000060070
:106160000000FA00C922A800C902A900CB02A900B8
:10617000CB22A9000080FA00000006000400FA000B
:106180000040EB002E0107000004E0000300320095
:1061900020002000100798000E003700CBC2BF007F
:1061A0000080FB000000D10061406000004F7800DB
:1061B00010C0B300220107000004E0000300320019
:1061C0002000200010079800020037001E80FB000E
:1061D000100798001E0090000080FA0000000600E2
:1061E0000600FA000040EB00204798000040EB005A
:1061F00010479800CBC2BF000080FB000000D10018
:106200006140600061416000E1BC21009140780084
:10621000E0CFB30000C0600002407000CEFBB700CA
:10622000CEDBBF00614060000004E00003003200EC
:1062300010002000200798006000370010C0B30055
:10624000FF0007000004E0000300320041002000CE
:1062500021079800590037000040EB0030479800B4
:10626000190037001E4090000080FB000000D100A4
:1062700010479800C1FF0700004F780020C0B3000E
:106280009E4F100003003A004100200021079800B3
:106290004A00370010C0B3009E4F100007003A00BC
:1062A0009E40900000C8B30000C040001047980016
:1062B0002E4090000004A200204798003E4090002D
:1062C0000040E800304798003E409000E74F500003
:1062D000E4FF36001E409000CFFBB700A7FF070089
:1062E000004F780021C0B3009ECF100003003A0099
:1062F0004000200020079800300037009E407800C2
:1063000061C060006141600001BD210091407800E2
:10631000E0CFB30000C0600002407000D0FBB700C7
:10632000D0DBBF0061406000804078002E409000CC
:1063300080CF500004003A00D05BA800200020006D
:10634000200798001D003700D05BA9008BFF0700D5
:10635000004F780021C0B3009ECF100003003A0028
:106360004000200020079800140037009E4078006D
:1063700061C06000614060000041400001BD21003B
:1063800091407800D0CFB30000C0600002407000A0
:10639000D0FBB700C902A900D0DBBF00624060009B
:1063A0000004E00003003A003000200020079800BD
:1063B000020037008000EB00210798002E009000BB
:1063C0000080FA00000006000200FA0000C0EB00A6
:1063D000004F7800C922A800C902A8000040EB00C5
:1063E0001047980010003700CBC2BF00614060002A
:1063F0000004E00007003A0079FF0700004F780032
:106400001E04E0000B00320040C0B3009E4F10009D
:106410000800320050C0B300A6F407001E409000F0
:106420000040E800104798001E409000E14F4000F7
:10643000EDFF3A00C902A9001E80FB000080FA00AF
:10644000000006000400FA00004F780010C0B300FE
:106450007B0007000004E000030032002000200061
:1064600010079800130037009E40780061C060005C
:106470006140600000414000912C20009140780074
:10648000D0CFB30000C0600002407000C9E2B70086
:106490000040EB006A0007000004E0000300320047
:1064A0002000200010079800020037008000EB0059
:1064B000110798001E0090000080FA0000000600FE
:1064C0000800FA00404798000040EB002047980081
:1064D000C902A900CB02A900C0C3B30075F407002C
:1064E000CB22A900C922A900C902A80010C0B3008C
:1064F00070F407000040EB00510007000004E000CA
:1065000003003200400020003007980049003700A7
:106510000000EB00000F78001C0037004E40900098
:106520000080FB00610060000004E0000B0032000E
:1065300010C0B300C3FF07000004E00003003200F6
:1065400040002000300798003A0037002E409000AD
:106550000004A20020479800070037000040EB002D
:10656000B8FF07000004E0000300320040002000F4
:10657000300798002F0037004E4090000080FB004D
:106580000000D100404798001E0FE8007000200076
:106590009E0F1000E1FF36002E4090000004A20084
:1065A000204798002E409000A6FF07000004E0005E
:1065B0000300320040002000300798001D00370023
:1065C000C922A800CB22A90010C0B3001C000700FC
:1065D0000004E00003003200400020003007980073
:1065E00014003700E5FE0700E24F500003003A00B8
:1065F00040002000300798000E003700DFFE070043
:106600000080FB00000F7800200020009E0F10008B
:1066100003003A00400020003007980005003700D2
:10662000C902A900CB02A9001E0078000080FB006F
:10663000300798003E0090000080FA00000006003D
:106640000600FA00204798000080EB00000F780059
:10665000CBC2BF0061406000804078002E409000B7
:1066600080CF500003003A000000EB0020079800A4
:10667000050037001E0FE9001E00E000F4FF3A009D
:1066800010002000200798002E0090000080FA00E3
:10669000000006001400FA00881F7800B0DD8000BA
:1066A000E20F50000B003A0011E1A900A16C20009C
:1066B0009140780000CEB30000C06000CAE6B70089
:1066C00020872E00F60607000000EB00B0DD8800F2
:1066D00091003700E0872E00F1060700F08A2E00B7
:1066E000D90607002203200001FA20004000200004
:1066F0005605070030079800208C2E00D2060700B0
:106700003E009000E30F500007003E00C08C2E00BA
:10671000E3060700E00320002007980010A1A8006E
:106720001081A8001B0037003E009000FE0F5000B3
:1067300007003E00008D2E00D9060700A00F2000A4
:106740002007980010A1A8001081A90011003700AF
:10675000BE009000400F2000808F500007003E00D8
:10676000308D2E00CE060700007D20002007980007
:1067700010A1A9001081A80006003700508D2E003E
:10678000C706070000E823002007980010A1A90011
:106790001081A9002E0090003E0190001100090018
:1067A0000280D8000000E90050079800708D2E008C
:1067B000A50607005E00900034070700D0C0B300B4
:1067C00001080700A0C0B300FF070700C08D2E001E
:1067D0009D06070022032000310620002000200033
:1067E0001A050700000478006140B9004AEC070070
:1067F000000F9800110F98000800E00007003D000E
:1068000002002000037824000E0890009E089000EB
:106810006DEC0700000F9800110F98000E08900013
:106820009E089000008FBE0002002000832C2400F0
:106830001E00BE00C1EC0700008FBE005E0090008D
:10684000CF80DE0034EC07006007980071079800E5
:106850005E0090000000E00007003D000200200004
:10686000037824006E009000FE00900056EC0700B4
:1068700060079800710798001E01BE006E0090002E
:10688000FE009000EFEC070022ED070040079800A3
:10689000A16C20009140780000CEB30000C06000E1
:1068A0006041B300CAE6B7001061A9001E61A900EB
:1068B0001021A900C11920009140780080CFB300B9
:1068C00000C060009CE1B700CE009000D10C8800B1
:1068D0004E009000C00C88009DA1A9009C81A900D9
:1068E0009C61A900C11920009140780080CFB300BD
:1068F00000C060006040B3009CE1B700DE00900083
:106900006108880011E1A800D08E2E0064060700FF
:1069100020002000B0DD88004F0478000080FA00DD
:10692000000006000000FA00B0DD8000E20F500019
:1069300003003A00B08F2E00590607007A00370096
:1069400060922E00400607001FE1A90011E1A90096
:10695000C942A800616820009140780000CEB300D1
:1069600000C06000A040B30086E6B7001061A80038
:1069700010A1A8001081A8001021A8000080EB0041
:10698000700888000080EB00600888000000EB00C1
:10699000400888000000EB00300888000000EB0091
:1069A000B00888000000EB00A00888001E61A80065
:1069B0001E81A9001EA1A9001E21A9001EC1A900B7
:1069C000400F2000E008880000402200D008880026
:1069D0008780A9001FE1A80011E1A80087C0BF00BF
:1069E000704060000004E000FCFF320011E1A900EB
:1069F0001FE1A90030088000F0DD88004008800019
:106A0000E0DD8800E0DD800001002000C0DD8800BE
:106A1000D1DD8800C0DD8000D1DD8000C000DD0058
:106A200000002000C0DD8800D1DD8800F0DD80009E
:106A30006101B800C0DD8000D1DD800002004000AF
:106A400083804800C0DD8800D1DD8800C0DD800083
:106A5000D1DD8000C808DD000080FD0080407800A6
:106A60000040EB00C0DD8800D1DD8800C0DD800083
:106A7000D1DD80004106070040942E00F20507009A
:106A8000C2DD8000D3DD8000703E200001002000C8
:106A9000800F5100818F59001C003600C2DD80003C
:106AA000D3DD8000F0232400F1002000800F51008E
:106AB000818F59000B003E0070942E00E205070004
:106AC000C0DD8000D1DD8000823E20000300200078
:106AD000ABEC070029060700A0942E00DA0507009A
:106AE0000A00370070942E00D7050700C0DD800033
:106AF000D1DD800002242400F3002000A0EC070078
:106B00001E060700F0942E00CF050700D0C0B3008A
:106B10002D070700A0C0B3002B07070086C6BF00E3
:106B2000F041B30086E6B7000080FA0000000600DE
:106B30000000FA000AC8BF00624060000004E000E4
:106B400002003A00C942A80001003700C8C2A800EC
:106B500040952E00D20507000080FA0000000600D4
:106B60000000FA000AC8BF00624060000004E000B4
:106B700003003A00C942A900CB42A8000200370036
:106B8000C8C2A900CAC2A800B0962E00C40507005A
:106B90000080FA00000006000000FA000AC8BF00EA
:106BA000624060000004E00003003A00C942A9000E
:106BB000CB42A90002003700C8C2A900CAC2A9007E
:106BC00040972E00B60507000080FA00000006007E
:106BD0000200FA000AC8BF00624060000004E00042
:106BE00009003A00C942A8000000000000000000AF
:106BF000CBC2BF000080FB004200DE0061406000AD
:106C0000004F780008003700C8C2A800000000004C
:106C100000000000CAC2BF000080FB004600DE008A
:106C200061406000004F7800D0972E008605070075
:106C30001E4078007D050700D0C0B300E2060700C3
:106C4000A0C0B300E00607000080FA0000000600C4
:106C50000A00FA00004F78001107980022079800F8
:106C6000204080006101B8000080EB008080EB00D4
:106C700002014000838148003207980043079800D2
:106C800090002000010020003E019000CE01900005
:106C9000800F5100818F59003F003E003E00900060
:106CA000CE00900000600100090037000D003700A1
:106CB0001100370015003700190037001D0037009C
:106CC0002100370025003700290037002D0037004C
:106CD0002E0190009E0090001E40780014F90700DD
:106CE0002E0037002E0190009E0090001E4078007C
:106CF00059070700290037002E0190009E009000E0
:106D00001E40780089F20700240037002E01900011
:106D10009E0090001E4078008FEF07001F00370094
:106D20002E0190009E0090001E40780024F5070080
:106D30001A0037002E0190009E0090001E4078003F
:106D4000E8EC0700150037002E0190009E0090002F
:106D50001E40780090EE0700100037002E019000D2
:106D60009E0090001E4078003DFC07000B0037009D
:106D70002E0190009E0090001E4078002E08070013
:106D8000060037002E0190009E0090001E40780003
:106D9000D208070001003700CA82A9000080FA006B
:106DA000000006000000FA00B00020000080FA0099
:106DB000000006000000FA00204080008000400033
:106DC000A0B5210000804000100078001E050700DB
:106DD0000080FA00000006000200FA00004F780070
:106DE0001E80FB0080004000A0B521000080400014
:106DF00010007800140507000080FA00000006006B
:106E00000800FA00004F780000C6B3009E4F100043
:106E100007003600A0C7B3009E4F100004003E00DC
:106E20001E40780001CEB30001404000004F7800C2
:106E30001E80FB006101B900D0FD2F00F1FF2F0083
:106E40000201400083814800220798003307980020
:106E500030032000010020002E019000BE019000B0
:106E6000800F5100818F590064003E002E00900079
:106E7000BE00900000600100540037005F00370042
:106E80005E0037005D0037005C0037005B003700B4
:106E90005A003700590037005400370057003700B8
:106EA00056003700550037005400370053003700B4
:106EB0005200370051003700500037004F003700B4
:106EC0004E0037004D0037004C0037004B003700B4
:106ED0004A003700490037004800370047003700B4
:106EE00044003700450037002200370043003700D8
:106EF00042003700330037002A0037003F003700D8
:106F00003E0037001D0037001E0037003B003700F1
:106F10001E003700390037003800370013003700F3
:106F20000900370035003700090037000A00370034
:106F30003200370031003700300037002F003700B3
:106F40002E00370007003700C70007002E0037006B
:106F5000F40007002C00370020A92E00D004070001
:106F600029003700FC000700270037001801070040
:106F700025003700350607002300370069FE0700AB
:106F800021003700C3FD07001F0037003F00070046
:106F9000204080000000E0001B0032006E0007006F
:106FA00019003700204080000000E00003003A0094
:106FB00080C1B3001B06070013003700270107003C
:106FC00011003700410107000F003700F0AD2E001F
:106FD000B304070023C2BF00614060000004E0006A
:106FE000FCFF32000000FE000700370055010700DB
:106FF0000500370009000700030037008000EB00A0
:1070000011079800020037001200200012079800B4
:107010001E0090000080FA00000006000200FA0046
:1070200080AE2E008804070012002000F10F20001F
:10703000A000200005030700004F78001E80FB0021
:1070400072050700D0C0B300DF050700A0C0B30081
:10705000DD0507001E4078003B050700D0C0B300E7
:10706000D9050700A0C0B300D70507001E4078006F
:10707000A5040700D0C0B300D3050700A0C0B3002B
:10708000D10507000080FA00000006000200FA00A7
