:020000040000FA
:10180000000C0000000000004FA82100007F220013
:1018100000018800000000000A0007001100070016
:10182000000020000000E000020032000000020082
:1018300000000000F40C0200000000000040DA008C
:101840000000FE004440A900406121000000E000CB
:101850000300320000002000A00188004440A800DE
:10186000000006000060260001002000150037007F
:1018700062004000E0804800910188009001BA00B9
:1018800062004000E0804800910188009002BA00A8
:1018900062004000E08048000002EB006028E100A8
:1018A00004003A000059EB008301E900FDFF3E000F
:1018B000040037006128E100010032000082EB00E3
:1018C00005000700910188001001BA000200E00045
:1018D000E7FF3A00000005009101880080027800CF
:1018E00062004000E08048003559BA008301E900F9
:1018F000080032002559BA008301E90005003200D2
:101900000400E000F4FF320015D9BA008301E900B9
:10191000F1FF3A0000000600623D040000000000F4
:10192000723D040000000000863D0400000000003D
:10193000843E040000000000F23E040000000000AD
:10194000503D040000000000103F040000000000B3
:10195000203F040000000000643F0400000000007D
:10196000D03F040000000000EE3F04000000000033
:101970002C410400000000008E4104000000000023
:1019800000420400000000002242040000000000A9
:10199000043E040000000000824204000000000039
:1019A0009E420400000000006022B80006022000F1
:1019B0000000D0008180D2000482D2008582D20053
:1019C0000000A0000202520083825A00030031008E
:1019D0000202420083824A000000A1000603E900DF
:1019E000F3FF3A00000006000400FA004C00070074
:1019F000000037002F0E07000004E0004300320013
:101A0000320E0700004F78001E80FB001007980080
:101A10001E009000EA0F5000070032001E009000E8
:101A2000ED0F5000040032001E009000E80F50003F
:101A30001A00320022003700005B2E006D0B0700F9
:101A400010BD80000000E00003003A00305B2E0073
:101A5000680B07000B00370010BD8000E10F50003D
:101A600005003A0000C8BF00900007000004E00035
:101A7000010032000300370010BD8000018020000B
:101A80008D010700A8040700E0C3B3001B0E070088
:101A90000000EB0010BD88001C00370010BD800066
:101AA0000000E0000300320010BD80000000E900EB
:101AB00010BD88001E407800100E0700130037008C
:101AC00011BD800000802000008040001E4878008A
:101AD00010BD80000000E80010BD880011BD80002E
:101AE00000FA2000808F500006003A00005B2E00B4
:101AF000400B0700D05C2E003E0B07000000EB00FF
:101B000010BD88001E407800FC0D07004DDABF00B4
:101B1000E24F5000B7FF3A008D040700B5FF3700D1
:101B20000000FA004507A9000080EB00601988005A
:101B30004227A900416A20009140780000CEB300FE
:101B400000C060000024A000A4E6B700316C2000B3
:101B50009140780000CEB30000C060003040B30078
:101B6000C3E6B70046040700C00D070010C1B3006C
:101B7000E20D0700005B2E001E0B07005704070054
:101B800069040700E0C3B300DC0D07000080FA0021
:101B9000000006000600FA00004F78001147980088
:101BA000224798004DDABF000080FB002007980014
:101BB0002E009000E40F5000260032002E0090000E
:101BC000E40F50000A003C002E009000E20F50008D
:101BD000180032002E009000E20F500019003C0067
:101BE0002E009000E10F50000E0032002D00370053
:101BF0002E009000E60F50001E0032002E009000D4
:101C0000E60F5000170035002E009000E70F50003F
:101C10001C0032002E009000E80F50001E00320021
:101C2000200037009E4090001E407800421C0700B4
:101C30001C0037009E4090001E4078005F0E070099
:101C4000180037009E4090001E407800B60D070037
:101C5000140037009E4090001E407800D408070012
:101C6000100037009E4090001E4078002E100700A4
:101C70000C0037009E4090001E4078003C05070095
:101C8000080037002E4190009E4090001E407800D2
:101C900006070700030037009E4090001E407800B2
:101CA000591F07000080FA00000006000800FA0033
:101CB000004F78001E80FB006101B90010FC2F006E
:101CC000F1FF2F00020140008381480022079800A5
:101CD0003307980010032000010020002E0190001F
:101CE000BE019000800F5100818F5900EA003E0034
:101CF0002E009000BE00900000600100A20037009E
:101D0000E5003700E4003700CC003700B3003700AF
:101D1000E1003700E0003700AE003700DE0037009A
:101D2000DD003700DC003700DB003700DA00370069
:101D30007600370023003700D70037004C0037000B
:101D400053003700D4003700D3003700D2003700EB
:101D5000D1003700D0003700CF003700CE00370069
:101D6000CD003700CC003700CB003700CA00370069
:101D7000C9003700C8003700C7003700C600370069
:101D8000C5003700C4003700AC00370093003700AF
:101D9000C1003700C00037008E003700BE0037009A
:101DA000BD003700BC003700BB003700BA00370069
:101DB0005600370003003700B70037002C0037000B
:101DC000330037000041EB008040EB00A0CCB300B3
:101DD00070FF0700C10307000040EB001EFAB700C8
:101DE0000F0037001EDABF000040E800950C070026
:101DF00030272D007F0A07001EDABF000080FB009D
:101E000080004000C0972100008040001000780052
:101E10008E0A07001EDABF000040E8001EFAB70075
:101E20001EDABF00E84F5000EEFF360060272D009D
:101E3000700A070090C0B300F10C07000040E900F1
:101E40004DFAB700C0272D00800A07000041EB00C3
:101E50008040EB0080CCB3004EFF07000041EB0058
:101E60008040EB0090CCB3004AFF07008D003700A4
:101E700050282D005F0A070040C0B300E00C0700A7
:101E80004EFAB700702B2D00700A0700850037004E
:101E90004FDABF00704060000004E00003003A0029
:101EA000C0C0B300490A07007E003700702C2D0027
:101EB000500A070020C0B300D10C07000040E90021
:101EC00061406000614060004501DD00F1A4210037
:101ED00091407800F0CDB30000C060000240700077
:101EE0004FFAB7004FDABF000042B2000004E00032
:101EF00003003A0030C0B3009109070069003700C1
:101F000030C0B30084090700660037004FDABF0015
:101F1000644060000004E00003003A00C0C0B30069
:101F20002A0A07005F003700D02E2D00310A070073
:101F300020C0B300B20C07000040E900614060001F
:101F4000614060004301DD00F1A421009140780070
:101F500070CFB30000C06000024070004FFAB700BD
:101F60004FDABF00684060000004E00003003A0060
:101F700020312D00350A07004A003700E0322D00DD
:101F8000320A0700470037000040EB001EFAB70096
:101F90000C0037001EDABF000080FB00800040000C
:101FA000E09821000080400010007800110A07002E
:101FB000B0342D000F0A07001EDABF000040E80011
:101FC0001EFAB7001EDABF00F94F5000F1FF3600CD
:101FD000340037006209070032003700E0342D007A
:101FE000040A070020C0B300850C07000040E90088
:101FF000614060006140600000414000F1A42100A8
:1020000091407800D0CFB30000C060000240700063
:102010004FFAB7004FDABF00624060000004E000F2
:1020200003003A00D0372D00080A07001D003700D2
:10203000C0392D00050A07001A003700503B2D005B
:10204000EC09070090C0B3006D0C07000040E900E8
:102050004CFAB70090432D00E6090700830C0700F7
:102060000000370085C0BF00684060000004E00049
:10207000FCFF3200301180001EFAB7008560A90015
:10208000E1A121009140780000C2B30080CF500050
:1020900004003200F3FF37008000EB0011079800C6
:1020A0000200370012002000120798001E00900066
:1020B0000080FA00000006000600FA00000F780019
:1020C000110798004DDABF000004E00003003A0059
:1020D000C0462D00C7090700360137000000EB009D
:1020E00080D188002B01370080D1800080007800EB
:1020F0001E0090000080400010407800850107001D
:102100001FFAB7001FDABF000080FB00200798000D
:1021100020032000AE009000808F50002600320087
:1021200020032000AE009000808F500011003C0082
:102130002E009000E20F500093003200AE0090009D
:10214000E28F500004003C002E0090000000E000F0
:102150002A00320005013700AE009000E68F5000E3
:102160001B0032002E009000F70F50004400320098
:10217000FE00370040032000AE009000808F50002A
:102180001100320040032000AE009000808F50000C
:102190000B00350050032000AE009000808F5000EF
:1021A0002900320030062000AE009000808F5000E1
:1021B000F2003200ED0037009D080700EF00370005
:1021C000A9080700ED003700B5080700EB0037004D
:1021D0001E01900001A321001E007800F7000700F7
:1021E00060D1880060D18000804078000041EB0021
:1021F00060C0B30067FE0700E00037001E019000DA
:1022000001A321001E007800EC00070060D18800C7
:1022100060D18000E10F500005003A000041EB0062
:102220008040EB000040EB005AFE0700D30037006F
:1022300060D18000804078000041EB0010C0B30006
:1022400054FE0700CD0037001E01900001A32100BD
:102250001E007800D900070060D1880060482D007A
:102260006409070060D18000B70B0700D0482D003B
:102270006009070060D1800034090700BF00370003
:102280000000EB0060D1880080D180000000E800F1
:1022900080D1880080D180009E0F500004003A0059
:1022A00080D180000000E90080D188003000370034
:1022B00080D18000800078001E00900000804000E7
:1022C00090407800F0C2B30080CF50001A00360072
:1022D00080D18000800078001E00900000804000C7
:1022E00090407800F0C3B30080CF500012003E0051
:1022F00060D180006A00B90060D1880080D1800080
:10230000800078001E00900000804000104078009F
:102310008080FB0060D180008080400000FD2F00A5
:102320000080400060D1880080D180000000E8007B
:1023300080D18800D7FF370080D1800080007800EE
:102340001E009000008040009040780090C2B300D2
:1023500080CF50000600320080D180000000E900EC
:1023600080D1880070D180000000E80070D1880022
:1023700060D18000804078000041EB0070C1B30064
:1023800004FE07007D0037000000EB0060D18800EC
:102390000040EB0021FAB70080D180009E0F500072
:1023A00004003A0080D180000000E90080D188005C
:1023B0005300370080D18000800078001E0090001C
:1023C0000080400090407800F0C2B30080CF500001
:1023D0000800360080D18000800078001E00900048
:1023E000008040009040780090C3B30080CF500040
:1023F0003000360080D18000800078001E00900000
:10240000008040009040780000C4B30080CF5000AE
:102410000800360080D18000800078001E00900007
:10242000008040009040780060C4B30080CF50002E
:102430002000360080D18000800078001E009000CF
:10244000008040009040780000C6B30080CF50006C
:102450000800360080D18000800078001E009000C7
:10246000008040009040780060C6B30080CF5000EC
:102470001000360080D18000800078001E0090009F
:10248000008040009040780080C7B30080CF5000AB
:102490000800320080D18000800078001E0090008B
:1024A000008040009040780080C6B30080CF50008C
:1024B00010003A0062D1800080D180008000780056
:1024C0001E009000008040009040780000A2210093
:1024D000000041000148780060D180000000E80061
:1024E00060D1880080D180000000E80080D18800A1
:1024F000A9FF370080D180000000E90080D188006A
:1025000060D1800001A22100570107001FFAB70027
:102510001E01900001A321001E0078002700070083
:1025200060D1880060D18000E10F500006003A00C1
:10253000F1A12100914078000041EB0020C0B300E0
:1025400094FD07000600370060D18000004178004C
:10255000F1A121009140780030C0B3008DFD07004B
:102560000000EB0060D18800040037001FDABF00D4
:102570000041EB008040EB0086FD070070D1800039
:102580000000E00006003A0080D180000000E80072
:1025900080D1880080D180009E0F5000D2FE39008B
:1025A00070D180000000E0000200320020492D00C0
:1025B000900807000080FA00000006000A00FA00F8
:1025C0001007980021079800320798000000EB00E0
:1025D000000F78002E009000100078008000E800C6
:1025E0001E009000808F5000450031002E009000AA
:1025F00010007800800078003E00900000804000CD
:102600000000E80090407800A0C3B30080CF5000E5
:102610003B003A002E009000100078008080E80017
:102620002E009000010878002E00900090007800A5
:102630001E009000808F5000040039002E00900092
:102640000080E900200798002A0037002E00900043
:1026500010007800800078003E009000008040006C
:1026600090407800F0C2B30080CF50001C003600CC
:102670002E00900010007800800078003E0090004E
:102680000080400090407800F0C3B30080CF50003D
:1026900013003E001E0078006A00B900000F7800A9
:1026A0002E00900010007800800078003E0090001E
:1026B00000804000104078000080FB009E00400039
:1026C00000FD2F00008F40002E00900010007800C9
:1026D0008000E8002E00900001087800D2FF37004B
:1026E0002E009000100078008000E9002E0090007D
:1026F000010878001E0078004007980002003700AB
:1027000010002000400798004E0090000080FA0062
:10271000000006000800FA00004F7800F0C2B30085
:102720009E4F100006003600F0C3B3009E4F10000D
:1027300003003E002000200010079800C70037006B
:102740001E80FB006101B90060FF2F00F1FF2F0028
:102750000201400083814800220798003307980057
:1027600030072000010020002E019000BE019000E3
:10277000800F5100818F5900B6003E002E0090005E
:10278000BE00900000600100AC003700B1003700CF
:10279000B0003700AC003700AE003700AD003700A6
:1027A000AC003700AB003700AA003700A9003700A3
:1027B000A8003700A7003700A6003700A5003700A3
:1027C000A4003700A3003700A2003700A1003700A3
:1027D000A00037009F0037009E0037009D003700A3
:1027E000900037007A0037009A00370099003700D0
:1027F00098003700970037006000370095003700D9
:102800006100370063003700920037009100370005
:1028100087003700800037007000370072003700F3
:102820008C0037008B0037008A00370089003700A2
:1028300088003700870037008600370085003700A2
:1028400084003700830037008200370081003700A2
:10285000800037007F0037007E0037007D003700A2
:10286000430037003C0037007A003700790037001A
:1028700078003700770037007600370075003700A2
:1028800074003700730037007200370071003700A2
:10289000700037006F0037006E0037006D003700A2
:1028A0006C0037006B0037004600370069003700C6
:1028B00068003700670037006600370065003700A2
:1028C00064003700630037006200370037003700CC
:1028D0004800370038003700490037004B00370008
:1028E0005C0037001F0037005A00370059003700DE
:1028F00058003700570037005600370055003700A2
:1029000054003700530037005200370051003700A1
:10291000500037004F0037004E0037004D003700A1
:102920004C0037004B0037002600370049003700C5
:1029300048003700470037004600370045003700A1
:1029400044003700430037004200370014003700CE
:1029500040003700180037002103200011079800BD
:102960003E00370032032000120798003B0037007A
:10297000430320001307980038003700500320005D
:1029800010079800350037007101200011079800EA
:102990003200370032062000120798002F0037005F
:1029A00053012000130798002C003700400120003D
:1029B00010079800290037006101200011079800D6
:1029C000260037000001EB001207980023003700B3
:1029D000430020001307980020003700500020001B
:1029E000100798001D0037007100200011079800A3
:1029F0001A003700820020001207980017003700E5
:102A0000630020001307980014003700A000200086
:102A1000100798001100370091002000110798005E
:102A20000E00370032062000120798000B00370016
:102A300033062000130798000800370030062000F6
:102A40001007980005003700310620001107980094
:102A500002003700F20F2000120798001E009000BD
:102A60000080FA00000006000800FA0020479800E5
:102A7000210798000040EB00104798002E009000BE
:102A80000000E800104078000080FB00300798004C
:102A900080062000BE009000808F500009003200A8
:102AA00080072000BE009000808F5000050032009B
:102AB00020062000BE009000808F500040003200B1
:102AC0005500370020C0B300004F780038003700B1
:102AD0001E4090000080FB004400DD00104798007D
:102AE0001E80FB00800078002E00900000804000D7
:102AF00090407800F0C3B30080CF50000C003E003F
:102B00001E80FB00800078002E00900000804000B6
:102B1000904078001E40900000C040008040780047
:102B200000CDB30000C04000104798001F003700E0
:102B30001E80FB00800078002E0090000080400086
:102B40009040780060C4B30080CF50000C003E007D
:102B50001E80FB00800078002E0090000080400066
:102B6000904078001E40900000C0400080407800F7
:102B700090CCB30000C04000104798000B00370015
:102B80001E80FB00800078002E0090000080400036
:102B9000904078001E40900000C0400080407800C7
:102BA00090CAB30000C04000104798001E4FE800D4
:102BB0002E4090009E4F1000C5FF39002C003700BA
:102BC00020C0B300004F78000F0037001E40900077
:102BD00000404000104798001E80FB0080007800F5
:102BE0002E009000008040009040780010C3B30099
:102BF00080CF500003003A001E4090000004A00067
:102C0000104798001E4FE8002E4090009E4F100085
:102C1000EEFF3900160037000040EB00004F78004F
:102C2000100037001E4090000080FB006A00B900D1
:102C3000104798001E80FB00800078002E00900056
:102C400000804000904078001E40900000C040008E
:102C50008040780000CDB30000C0400010479800CD
:102C60001E4FE8002E4090009E4F1000EDFF3900EF
:102C70001E4090000080FB000080FA00000006006B
:102C80000000FA004116800000FE20000080700065
:102C90004016880051168000F0012F00008060006F
:102CA0005016880080C0B3004CFAB7000040EB001B
:102CB0004DFAB70010C0B3004EFAB7004F1AA90082
:102CC0004F3AA9004F7AA9004F5AA9004FBAA9005C
:102CD0004F9AA9000080FA00000006000000FA00E8
:102CE0004116800000FE2000008070004016880021
:102CF00051168000F0012F000080600050168800FF
:102D00000040EB004DFAB7004F1AA9004F3AA90056
:102D10004F5AA9004F7AA9004FBAA9004F9AA900AB
:102D20000080FA00000006000000FA004DDABF0043
:102D30000080FB0080004000C09721000080400020
:102D400010007800AB0607000080FA0000000600C3
:102D50000000FA00A50A07000080FA000000060043
:102D60000800FA00004F78001107980042479800C9
:102D700080000700E0CFB3001E406000460007005F
:102D8000B50007000004E00011003A0089000700C8
:102D90000000EB0030079800160037001E0090007E
:102DA000104078003C000700AB0007000004E00082
:102DB00004003A007F0007000000EB003007980095
:102DC0000C0037001E0090000000E800100798007B
:102DD0004E4090000040E900404798004E4090006F
:102DE000E14F4000EDFF3A007200070010002000A4
:102DF000300798003E0090000080FA0000000600B6
:102E00000800FA00004F7800110798004247980028
:102E1000580007001E4078000004A0001E000700B4
:102E20008D0007000004E0000F003A006100070079
:102E30000000EB0030079800140037003200070054
:102E4000804078001E009000014878001E0090002D
:102E50000000E800100798004E4090000004E000D9
:102E600001003400970007004E4090000040E90048
:102E7000404798004E409000E14F4000EFFF3A007D
:102E80004C00070010002000300798003E00900022
:102E90000080FA00000006000400FA0020479800B5
:102EA000CB22A900CB02A90040C6B30090000700C6
:102EB00080C0B300004F78000D0037002E40900016
:102EC0000004E00003003500CB22A900C922A900BC
:102ED00001003700C922A8002E4090000000FB002E
:102EE00000004000204798003A0007001E4FE9000C
:102EF0001E04E000F1FF3C00C922A80010002000E1
:102F00000080FA00000006000200FA000040EB001A
:102F1000004F7800CB22A900CB02A90040C6B30025
:102F20007300070080C0B300104798000B00370003
:102F30001E00FB0000004000004F7800C922A800DE
:102F40002F0007000004E000010032001E4FE800DF
:102F50001E4090000040E900104798001E4090007D
:102F60000004E000F2FF3C001E00FB000080FA00BD
:102F7000000006000000FA00C922A800C902A8004B
:102F8000CB02A900CB22A90020C3B3005800070040
:102F9000C922A900CB22A90020C3B3005400070016
:102FA000C902A90040C6B300510007000080FA0022
:102FB000000006000000FA00C922A900C902A8000A
:102FC00020C3B3004A000700C922A8000080FA000D
:102FD000000006000000FA0040C1B30044000700F2
:102FE000C902A80040C6B30041000700C902A900F9
:102FF00040C6B3003E0007000080FA000000060053
:103000000200FA000040EB00004F780040C1B3001E
:1030100037000700C902A80020C3B300340007002E
:10302000CBC2BF00624060000004E000020032003A
:1030300010C0B300004F780020C3B3002C0007007D
:10304000C902A90040C6B300290007001E00FB000A
:103050000080FA00000006000200FA00CB22A9005E
:10306000CB02A900C902A900C922A800C902A80070
:1030700020C3B3001E000700CBC2BF006240600047
:103080000004E000030032000000EB00000F7800B5
:103090000900370020C3B30015000700C902A900CA
:1030A00040C6B3001200070040C6B300100007007E
:1030B00010002000000F78001E0078000080FA0049
:1030C000000006000000FA00CB22A900C922A900D6
:1030D00040C1B30006000700BEFF0700C922A800D8
:1030E00040C1B300020007000080FA0000000600A3
:1030F0000400FA00204798000040EB00004F7800E1
:103100001300370000000000000000000000000075
:1031100000000000000000000000000000000000AF
:10312000000000000000000000000000000000009F
:10313000000000000000000000000000000000008F
:10314000000000001E4078000040E800004F7800BA
:103150001E4078008080FB002E4090000000FB00A5
:10316000808F5000E7FF35000080FA000000060065
:103170000600FA00004F7800114798001E80FB00FF
:1031800020079800AE009000E98F5000A90032009F
:103190002E009000E90F50001D003C00AE00900092
:1031A000E48F5000820032002E009000E40F5000A7
:1031B0000A003C00AE009000E18F50005B0032003E
:1031C0002E009000E20F500070003200AE00900020
:1031D0000100E0004C003200B30037002E009000E8
:1031E000E60F500084003200AE009000E68F5000E1
:1031F000780035002E009000E70F50008500320067
:10320000AE009000E88F500086003200A600370024
:103210002E009000F60F500037003200AE009000F4
:10322000F68F500007003C002E009000EA0F50007F
:1032300084003200AE009000F48F50009A003500F8
:1032400029003700800C2000AE009000808F5000D5
:1032500011003200800C2000AE009000808F5000E2
:1032600004003C002E009000F70F5000790032005F
:103270008D003700900C2000AE009000808F500031
:1032800015003200A00C2000AE009000808F50008E
:1032900087003200840037004F5AA8004F9AA800D8
:1032A00040292E005305070020C0B300D4070700B3
:1032B0000040E900614060006141600061A62100BA
:1032C00091407800E0CFB30000C060000240700081
:1032D00066FAB7007600370077000700D02E2E0080
:1032E0005A050700720037007A000700C02F2E0031
:1032F000560507006E0037008200070080312E005F
:10330000520507006A0037001E4078002F050700AD
:10331000C600070064FAB70064DABF008A07070036
:1033200020332E0033050700610037001E4078006F
:10333000260507001E4090008307070050332E002B
:103340002C0507000000EB0010D3880007003700B1
:10335000B60007007C070700F0332E0025050700A4
:1033600010D380000000E80010D388001E409000B9
:103370008080FB0010D38000808F5000F4FF3E005F
:1033800020332E001B050700490037001E4078003F
:103390000E0507001E409000770007001E409000B9
:1033A0006907070020332E00120507004000370090
:1033B000CB00070064FAB7001E4078000305070041
:1033C00064DABF008307070010342E0009050700E8
:1033D000370037001E407800FC040700E5000700B6
:1033E00064FAB70064DABF007A07070090352E0050
:1033F000160507002E0037001E40900052070700F8
:103400001E407800F10407001E409000CC00070029
:10341000270037001E407800EC0407000A0107006F
:10342000230037001E407800E8040700FF00070073
:103430001F0037001E407800E4040700E00007008A
:103440001B0037001E407800E0040700D50007008D
:10345000170037001E4090000080FB001007980006
:103460001E009000E10F5000090032009E00900005
:10347000E28F5000070032001E0090000000E000C4
:10348000010032000500370061090700080037001D
:10349000640907007109070005003700B0C0B300D8
:1034A000CA04070002003700C0C0B300C704070009
:1034B0000080FA00000006000000FA00CB02A9001C
:1034C000CB22A900C922A800C902A9000080FA00E5
:1034D000000006000000FA00CB02A90040C1B300C2
:1034E0009A040700B6000700D700070040C1B300E8
:1034F00096040700AB000700CC0007000080FA002C
:10350000000006000000FA0013000700A5000700F5
:10351000CD000700AA00070040C1B3008B040700DC
:10352000C20007000080FA00000006000000FA0058
:10353000CB02A900C902A90040C1B300830407005F
:10354000C922A800CB22A90040C1B3007F04070014
:103550000080FA00000006000000FA00CB02A9007B
:10356000C902A90040C1B30078040700C922A9001C
:103570000080FA00000006000600FA0040479800AC
:103580004E40900020479800F3FF07004FDABF003D
:10359000684060000004E00003003A0000C8B30087
:1035A000104798000200370010C0B3001047980081
:1035B0000040EB00004F7800170037002E409000CD
:1035C0009E409000014060000004E00002003A00CC
:1035D0007400070001003700790007004FDABF00D0
:1035E000684060000004E00004003A002E409000B3
:1035F0000040400020479800040037002E40900013
:103600000080FB000000D1002047980010C0B300EC
:103610004B0007001E4FE80070C0B3009E4F100023
:10362000E6FF36000080FA00000006000400FA0001
:103630000040EB00004F7800BCFF07000040EB00AB
:1036400020479800200037007F000700CBC2BF0052
:103650000080FB000000D10061406000104798002E
:103660004FDABF00684060000004E0000B00320049
:103670001E80FB000000D100004F78001E4090002B
:103680000004E0000C0032001E40780001C8B300C6
:1036900001404000004F7800070037001E407800CE
:1036A00000404000004F78001E4090000004E00001
:1036B000010032001E4FE8005C0007002E40900021
:1036C0000040E800204798002E409000E74F50004F
:1036D000DDFF36001E80FB000080FA0000000600BF
:1036E0000200FA0091FF070057000700CBC2BF009D
:1036F0000080FB000000D10061406000004F7800B6
:103700004A0007001E80FB000080FA00000006004F
:103710000200FA00004F78008FFF07001E04E0004F
:1037200002003A001F0007000100370024000700D4
:1037300010C0B300020007000080FA00000006007D
:103740000400FA00204798000040EB00004F78008A
:10375000030037003C000700340007001E4FE8005C
:103760002E4090009E4F1000FAFF39000080FA00B2
:10377000000006000000FA00C922A80000000000B6
:103780000000000000000000CBC2BF000080FB0072
:103790000000D100614060000080FB000080FA0062
:1037A000000006000000FA00CB22A900C922A900EF
:1037B00040C1B300E50307000080FA0000000600E6
:1037C0000000FA0066DABF006140600000C0EA0055
:1037D000614060006140600000414000912C200089
:1037E00091407800D0CFB30000C06000024070006C
:1037F000C9E2B70066DABF00614060006140600066
:1038000000414000B12C200091407800D0CFB3009F
:1038100000C0600002407000CBE2B70040C1B300BE
:10382000CA0307000080FA00000006000000FA004A
:10383000CB02A900C902A90040C6B300C303070018
:103840000080FA00000006000000FA0066DABF00FF
:103850006140600000C0EA006140600061416000BA
:10386000912C200091407800E0CFB30000C06000B0
:1038700002407000C9E2B70066DABF006140600034
:1038800061416000B12C200091407800E0CFB3008E
:1038900000C0600002407000CBE2B70040C6B30039
:1038A000AA0307000080FA00000006000600FA00E4
:1038B000004F780011479800224798001E80FB00B7
:1038C00020079800AE009000E88F5000A80032005A
:1038D0002E009000E80F50001D003C00AE0090004C
:1038E000E38F50006B0032002E009000E30F500079
:1038F0000A003C00AE009000E18F50003A00320018
:103900002E009000E10F500050003C00AE009000EF
:103910000100E0002A003200C70037002E009000AE
:10392000E50F50007E003200AE009000E58F5000A1
:10393000710035002E009000E60F5000810032002B
:10394000AE009000E78F500085003200BA003700CB
:103950002E009000F50F50000A003C00AE009000D1
:10396000F48F5000A2003D002E009000E90F50009F
:1039700083003200AE009000EA8F500084003200D5
:10398000AD0037002E009000F70F5000A700320066
:10399000AE009000F78F50009F003500800C200093
:1039A000AE009000808F50007D003200900C20000F
:1039B000AE009000808F5000880032009E003700DB
:1039C00000C0EB00AB0007006AFAB7001E407800A9
:1039D0007E0307006ADABF00DB05070040432E00C4
:1039E00084030700960037001E4078007703070025
:1039F0001E409000D405070070432E007D03070091
:103A00000000EB0040D388000800370000C0EB0046
:103A100098000700CC05070010442E00750307002E
:103A200040D380000000E80040D388001E40900092
:103A30008080FB0040D38000808F5000F3FF3E0069
:103A400040432E006B0307007D0037001E407800C6
:103A50005E0307001E409000BB0507001E4090005B
:103A6000840007006AFAB7006CDABF0062406000A9
:103A70000004E0000400320030442E005D03070023
:103A80006ADABF00B005070040432E005903070063
:103A90006B0037001E4078004C0307001E4090006A
:103AA000A9050700B0442E00520307002E409000E5
:103AB000A5050700F0442E00640307000000EB009A
:103AC00040D38800060037001E40900069000700C0
:103AD0006AFAB70040D380000000E80040D38800B5
:103AE0002E4090008080FB0040D38000808F5000EB
:103AF000F5FF3E005200370010C0B300A3000700DE
:103B00006AFAB7001E407800300307006ADABF0087
:103B1000B005070040432E00360307004800370079
:103B20001E40780029030700A90007006AFAB700C1
:103B30006ADABF00A705070040432E002D030700E7
:103B40003F0037001E4090007F0507001E407800B0
:103B50001E0307001E409000C60007003800370013
:103B60001E40780019030700D60007003400370014
:103B70001E40780015030700CB0007003000370017
:103B80001E407800110307009F0007002C0037003B
:103B90001E4078000D03070094000700280037003E
:103BA0004F5AA80060452E001203070020C0B30042
:103BB000930507000040E90061406000614160003A
:103BC000C1A6210091407800E0CFB30000C06000A2
:103BD000024070006CFAB700190037006C3AA90077
:103BE00019000700F04A2E001803070014003700E0
:103BF00050C1B3009E4F100002003A006C3AA8007A
:103C0000010037006C3AA900E2000700E04B2E00EB
:103C10000E0307000A0037006C3AA900C200070033
:103C2000904C2E000903070005003700B0C0B30018
:103C3000E602070002003700C0C0B300E30207003D
:103C40000080FA00000006000000FA00C8E2A800A8
:103C5000C902A800C922A800CAE2A900CB02A90093
:103C6000CB22A900CAC2A800C8C2A9000080FA00DD
:103C7000000006000600FA00404798008A0007008E
:103C80004FDABF00684060000004E000030032002B
:103C900010C0B300004F78000200370000C8B30026
:103CA000004F78000040EB003047980030003700AC
:103CB0004E4090001E4060000004E00002003A0008
:103CC0004A000700010037004F0007007D00070091
:103CD000CAC2BF000080FB004700DE0020479800FA
:103CE0004FDABF00684060000004E00010003200BE
:103CF0004E4090000080FB000000D100404798003B
:103D00001E4090000080FB000000D100104798008A
:103D10002E409000E14F500011003A001E409000EC
:103D200001C8B30001404000104798000C00370064
:103D30004E40900000404000404798001E409000D8
:103D400000404000104798002E409000E14F500086
:103D500003003A001E4090000040E8001047980021
:103D6000510007003E4090000040E80030479800B6
:103D70003E409000E74F5000CDFF36001E409000BF
:103D80000080FB000080FA00000006000400FA003A
:103D9000204798002E4090000004E00002003A0006
:103DA0001200070001003700170007004500070058
:103DB000CAC2BF000080FB004700DE00004F780051
:103DC000390007001E80FB000080FA00000006009A
:103DD0000000FA00CAC2BF000080FB004700DE00FE
:103DE0000080FB000080FA00000006000000FA00DE
:103DF000CB22A900C922A90040C1B3005302070089
:103E00000080FA00000006000000FA006CDABF0033
:103E10006140600000C0EA006140600061406000F5
:103E200000414000912C200091407800D0CFB30099
:103E300000C0600002407000C9E2B7006CDABF0049
:103E4000614060006140600000414000B12C2000F2
:103E500091407800D0CFB30000C0600002407000F5
:103E6000CBE2B70040C1B300380207000080FA007F
:103E7000000006000400FA00204798000040EB0014
:103E8000004F7800030037000E000700060007000F
:103E90001E4FE8002E4090009E4F1000FAFF3900A0
:103EA0000080FA00000006000000FA00CB02A90022
:103EB000C902A90040C6B300240207000080FA002E
:103EC000000006000000FA006CDABF0061406000EC
:103ED00000C0EA006140600061416000912C200058
:103EE00091407800E0CFB30000C060000240700055
:103EF000C9E2B7006CDABF00614060006141600058
:103F0000B12C200091407800E0CFB30000C06000E9
:103F100002407000CBE2B70040C6B3000B020700BE
:103F20000080FA00000006000000FA006CDABF0012
:103F30006140600000C0EA006140600061406000D4
:103F40004601DD00812C200091407800F0CBB300C9
:103F500000C0600002407000C8E2B7006CDABF0029
:103F600061406000614060004601DD00A12C20003E
:103F700091407800F0CBB30000C0600002407000B8
:103F8000CAE2B70040C1B300F00107000080FA00A8
:103F9000000006000000FA00CAC2A900C8C2A900B9
:103FA00040C1B300E90107000080FA0000000600EC
:103FB0000400FA00004F7800114798001E80FB00B3
:103FC000100798009E009000F58F50000D003C00F7
:103FD0001E009000F40F500022003D009E00900053
:103FE000E18F5000370032001E009000E20F5000B9
:103FF0004D0032009E0090000100E00027003200DA
:1040000096003700800C20009E009000808F5000AA
:1040100057003200800C20009E009000808F5000DE
:1040200007003C001E009000F60F50001700320001
:104030009E009000F78F5000850032008700370007
:10404000900C20009E009000808F5000790032007C
:10405000A00C20009E009000808F50007A0032005B
:104060007E00370050C1B3009E4F100002003A009E
:10407000737AA80001003700737AA900DA000700FC
:1040800080F62D00F101070076003700D20007000E
:1040900030F72D00ED010700720037001E40780058
:1040A000CA01070000C0EB00D300070070FAB70098
:1040B00070DABF0024040700F0F72D00CD010700DF
:1040C000680037001E407800C00107001E409000C5
:1040D0001D04070020F82D00C60107000000EB00BA
:1040E00070D388000800370000C0EB00C200070052
:1040F0001504070000C2B3008004070070D38000DD
:104100000000E80070D388001E4090008080FB0013
:1041100070D38000808F5000F3FF3E00F0F72D0039
:10412000B40107004F0037001E407800A7010700C8
:104130001E409000040407001E409000AE000700DF
:1041400070FAB70073DABF00684060000004E00056
:1041500004003200C0F82D00A601070070DABF008D
:10416000F9030700F0F72D00A20107003D0037001A
:104170004F5AA90040F92D009E01070040C0B3002E
:104180001F0407000040E90072FAB70050FD2D003F
:104190009801070020C0B300190407000040E9009F
:1041A000614060006141600031A7210091407800CA
:1041B000E0CFB30000C060000240700073FAB700A7
:1041C000F0002E008B01070020C0B3000C04070094
:1041D0000040E90061406000614060000041400033
:1041E00031A7210091407800D0CFB30000C060001B
:1041F0000240700073FAB70070052E007D010700C1
:1042000020C0B300FE0307000040E90061406000E9
:10421000614060004201DD0031A72100914078003B
:10422000B0CFB30000C060000240700073FAB70066
:104230000C003700737AA9000C000700D0082E008C
:104240008201070007003700520007000500370011
:10425000B0C0B3005D01070002003700C0C0B3006A
:104260005A0107000080FA00000006000000FA0072
:1042700041E2A900816A20009140780000CEB3009D
:1042800000C060007040B300A8E6B700916C200049
:104290009140780000CEB30000C060007040B300D1
:1042A000C9E6B700816C20009140780000CEB300D1
:1042B00000C060000034A000C8E6B700CAC2A80071
:1042C000C8C2A900C902A900C8E2A800C922A90061
:1042D00072DABF008080FB0040A721000080400010
:1042E000104078008080FB000012200000807000E9
:1042F0001012880073DABF00614060006140600006
:104300004601DD002124200091407800F0CBB3006D
:1043100000C060000240700042E2B70073DABF00E4
:104320000080FB000000D10061406000614160003E
:104330003124200091407800E0CFB30000C060003D
:104340000240700043E2B70073DABF000080FB0058
:104350004200DE00614060006140600000414000BA
:104360003124200091407800D0CFB30000C060001D
:104370000240700043E2B7000000EB00201288000A
:104380000000EB000012880041E2A8000080FA0063
:10439000000006000000FA0041E2A900A8C6BF0024
:1043A000F041B300A8E6B700916C2000914078007E
:1043B00000CEB30000C06000C9E6B700816C2000E9
:1043C0009140780000CEB30000C06000C8E6B7009E
:1043D0000080FA00000006000000FA00CAC2A8002F
:1043E0000080FA00000006000000FA00CAC2A9001E
:1043F0000080FA00000006000200FA00004F78007A
:104400001E80FB004012880085C0BF006440600031
:104410000004E000FCFF320040128000004F7800F2
:104420008540A9001E80FB000080FA000000060005
:104430000000FA004FDABF00624060000004E000B4
:1044400003003A00C8A2A900CAA2A80002003700CF
:10445000C8C2A900CAC2A800E0C42D00FB00070022
:104460000080FA00000006000000FA004FDABF00EA
:10447000624060000004E00003003A00C8A2A90006
:10448000CAA2A90002003700C8C2A900CAC2A90076
:1044900070C52D00ED0007000080FA000000060046
:1044A0000200FA004FDABF00624060000004E00042
:1044B00009003A00C8A2A8000000000000000000A7
:1044C000CAC2BF000080FB004500DE006140600002
:1044D000004F780008003700C8C2A80000000000A4
:1044E00000000000CAC2BF000080FB004600DE00E2
:1044F00061406000004F7800F0C52D00BD0007004E
:104500001E4078003303070040C72D00B9000700A4
:104510000080FA00000006000200FA00004F780058
:10452000CB62A800CB42A800C962A900C942A90079
:1045300070C72D00C50007000080FA0000000600CB
:104540000200FA00004F7800C962A800C942A80022
:10455000B0C82D00BD0007000080FA000000060072
:104560000000FA00C8A2A8001FE1A90011E1A900FB
:10457000616820009140780000CEB30000C0600068
:104580005040B30086E6B7001061A80010A1A80053
:104590001081A8001021A8000080EB00700888009E
:1045A0000080EB00600888000000EB0040088800F5
:1045B0000000EB00300888000000EB00B008880025
:1045C0000000EB00A00888001E61A8001E81A90061
:1045D0001EA1A9001E21A9001EC1A900400F200094
:1045E000E008880000402200D00888008780A900E9
:1045F0001FE1A80011E1A80087C0BF007040600063
:104600000004E000FCFF320011E1A9001FE1A90055
:1046100000CA2D00770007003008800050D28800C3
:104620004008800040D2880040D280000100200075
:1046300020D2880031D2880020D2800031D2800080
:10464000C000DD000000200020D2880031D28800A8
:1046500050D280006101B80020D2800031D28000A9
:10466000020040008380480020D2880031D28800B8
:1046700020D2800031D28000C808DD000080FD001B
:10468000804078000040EB0020D2880031D28800C2
:1046900020D2800031D28000A300070090CB2D00F3
:1046A0005400070022D2800033D28000703E2000E8
:1046B00001002000800F5100818F59001C0036003E
:1046C00022D2800033D28000F0232400F1002000A9
:1046D000800F5100818F59000B003E00C0CB2D0090
:1046E0004400070020D2800031D28000823E2000AA
:1046F00003002000ACF407008B000700F0CB2D0076
:104700003C0007000A003700C0CB2D00390007002D
:1047100020D2800031D2800002242400F300200047
:10472000A1F407008000070040CC2D0031000700F5
:1047300040C72D002F00070086C6BF00F041B30020
:1047400086E6B7000080FA00000006000400FA00C8
:10475000204798000040EB00004F7800130037001E
:104760000000000000000000000000000000000049
:104770000000000000000000000000000000000039
:104780000000000000000000000000000000000029
:104790000000000000000000000000000000000019
:1047A0001E4078000040E800004F78001E4078006E
:1047B0008080FB002E4090000000FB00808F5000A6
:1047C000E7FF35000080FA00000006000200FA0052
:1047D000004F78001E00FB0080004000209F210059
:1047E0000080400010007800020007000080FA00FE
:1047F000000006000600FA001007980002003700CB
:104800001E407800BD0207001E009000104F780087
:104810001E407800404798004E4090000004E000A1
:104820000200320010C0B300404798004E40900094
:104830009E0090008100E800110798000004E0004D
:10484000EFFF3A000080FA00000006000600FA00C0
:1048500010079800020037001E407800A7020700EA
:104860001E009000104F78001E40780040479800CE
:104870004E4090000004E0000200320010C0B3007F
:10488000404798004E4090009E0090008100E80054
:10489000110798000004E000EFFF3A00D0C0B30019
:1048A00096020700A0C0B300940207000080FA003F
:1048B000000006000400FA002047980000C8B3007A
:1048C000004F780000DB2D00CAFF07000040EB001E
:1048D000104798000F0037002E4090001E406000E7
:1048E0000004E0000300320010C3B300830207009D
:1048F0000200370000C3B300800207001E80FB00E7
:104900000000D100004F78001E4090000040E800F9
:10491000104798001E409000E74F5000EEFF360011
:104920000080FA00000006000C00FA004007980022
:10493000510798004E009000DE009000200798007C
:104940003107980000102E00515F2000008FBE003C
:104950001E01BE002E009000BE00900012F4070061
:10496000E00F5000E08F5800060032001E01BE002C
:104970002E009000BE0090000BF407000043B00032
:104980005E0207001E01BE002E009000BE009000D7
:1049900005F407000001BE001E13B8001E009000C1
:1049A0000090B90007027800000242001E00780063
:1049B0000380B90000024200840378002E009000BA
:1049C000BE00900006005000878058002007980025
:1049D000310798000068290081092000008FBE007F
:1049E0001E01BE002E009000BE009000EEF30700F6
:1049F000E00F5000E08F5800060032001E01BE009C
:104A00002E009000BE009000E7F307000043B000C6
:104A10003A0207001E01BE002E009000BE0090006A
:104A2000E1F307000001BE001E13B8001E00900055
:104A30000090B90007027800000242001E007800D2
:104A40000380B90000024200840378002E00900029
:104A5000BE00900006005000878058002007980094
:104A60003107980000242400F1002000008FBE00D0
:104A70001E01BE002E009000BE009000CAF3070089
:104A8000E00F5000E08F5800060032001E01BE000B
:104A90002E009000BE009000C3F307000043B0005A
:104AA000160207001E01BE002E009000BE009000FE
:104AB000BDF307000001BE001E13B8001E009000E9
:104AC0000090B90007027800000242001E00780042
:104AD0000380B90000024200840378002E00900099
:104AE000BE00900006005000878058002007980004
:104AF00031079800006A280011002000008FBE00D6
:104B00001E01BE002E009000BE009000A6F307001C
:104B1000E00F5000E08F5800060032001E01BE007A
:104B20002E009000BE0090009FF307000043B000ED
:104B3000F20107001E01BE002E009000BE00900092
:104B400099F307000001BE001E13B8001E0090007C
:104B50000090B90007027800000242001E007800B1
:104B60000380B90000024200840378002E00900008
:104B7000BE00900006005000878058002007980073
:104B8000310798000071220001002000008FBE0054
:104B90001E01BE002E009000BE00900082F30700B0
:104BA000E00F5000E08F5800060032001E01BE00EA
:104BB0002E009000BE0090007BF307000043B00081
:104BC000CE0107001E01BE002E009000BE00900026
:104BD00075F307000001BE001E13B8001E00900010
:104BE0000090B90007027800000242001E00780021
:104BF0000380B90000024200840378002E00900078
:104C0000BE009000060050008780580020079800E2
:104C100031079800803E200001002000008FBE0078
:104C20001E01BE002E009000BE0090005EF3070043
:104C3000E00F5000E08F5800060032001E01BE0059
:104C40002E009000BE00900057F307000043B00014
:104C5000AA0107001E01BE002E009000BE009000B9
:104C600051F307000001BE001E13B8001E009000A3
:104C70000090B90007027800000242001E00780090
:104C80000380B90000024200840378002E009000E7
:104C9000BE00900006005000878058002007980052
:104CA000310798004006200001002000008FBE0060
:104CB0001E01BE002E009000BE0090003AF30700D7
:104CC000E00F5000E08F5800060032001E01BE00C9
:104CD0002E009000BE00900033F307000043B000A8
:104CE000860107001E01BE002E009000BE0090004D
:104CF0002DF307000001BE001E13B8001E00900037
:104D00000090B90007027800000242001E007800FF
:104D10000380B90000024200840378002E00900056
:104D2000BE009000060050008780580020079800C1
:104D300031079800A000200001002000008FBE0075
:104D40001E01BE002E009000BE00900016F307006A
:104D5000E00F5000E08F5800060032001E01BE0038
:104D60002E009000BE0090000FF307000043B0003B
:104D7000620107001E01BE002E009000BE009000E0
:104D800009F307000001BE001E13B8001E009000CA
:104D90000090B90007027800000242001E0078006F
:104DA0000380B90000024200840378002E009000C6
:104DB000BE00900006005000878058002007980031
:104DC000310798002E0090000043B0004B0107000F
:104DD0000080FA00000006000A00FA004007980070
:104DE0004E00900001002000200798003107980035
:104DF0000071220001002000008FBE001E01BE00D5
:104E00002E009000BE009000E7F20700E00F500077
:104E1000E08F5800060032001E01BE002E009000F8
:104E2000BE009000E0F207000043B000330107002D
:104E30001E01BE002E009000BE009000DAF20700B6
:104E40000001BE001E13B8001E0090000090B900C3
:104E500007027800000242001E0078000380B900BB
:104E600000024200840378002E009000BE009000F3
:104E700006005000878058002007980031079800EE
:104E8000803E200001002000008FBE001E01BE00F9
:104E90002E009000BE009000C3F20700E00F50000B
:104EA000E08F5800060032001E01BE002E00900068
:104EB000BE009000BCF207000043B0000F010700E5
:104EC0001E01BE002E009000BE009000B6F207004A
:104ED0000001BE001E13B8001E0090000090B90033
:104EE00007027800000242001E0078000380B9002B
:104EF00000024200840378002E009000BE00900063
:104F0000060050008780580020079800310798005D
:104F10004006200001002000008FBE001E01BE00E0
:104F20002E009000BE0090009FF20700E00F50009E
:104F3000E08F5800060032001E01BE002E009000D7
:104F4000BE00900098F207000043B000EB0007009D
:104F50001E01BE002E009000BE00900092F20700DD
:104F60000001BE001E13B8001E0090000090B900A2
:104F700007027800000242001E0078000380B9009A
:104F800000024200840378002E009000BE009000D2
:104F900006005000878058002007980031079800CD
:104FA000A000200001002000008FBE001E01BE00F6
:104FB0002E009000BE0090007BF20700E00F500032
:104FC000E08F5800060032001E01BE002E00900047
:104FD000BE00900074F207000043B000C700070055
:104FE0001E01BE002E009000BE0090006EF2070071
:104FF0000001BE001E13B8001E0090000090B90012
:1050000007027800000242001E0078000380B90009
:1050100000024200840378002E009000BE00900041
:10502000060050008780580020079800310798003C
:105030002E0090000043B000B00007000080FA008E
:10504000000006000400FA00204798002E4090005F
:10505000004F780030C6B3009E4F100006003600A7
:105060001E80FB0042062000110009000280D800CB
:105070000043B000A10007009E4178001E80FB00A5
:1050800042062000110009000280D8008080FB0049
:10509000400620000088B90000C05100004F780091
:1050A00090C0B3009E4F1000060036001E80FB002B
:1050B000A2002000110009000280D8000043B000C7
:1050C0008E0007009E4178001E80FB00A200200099
:1050D000110009000280D8000080FB006A00B900BE
:1050E00000C05100004F78001E4078000043B0001F
:1050F000820007000080FA00000006000400FA00A9
:105100001007980030DC2D00BAFD07001E0090004B
:105110004400DE006F0F60009E00780030DB2D0041
:1051200061407800750007001E0090006F0F60005E
:105130009E00780030DB2D00614078006F00070092
:105140000080FA00000006000400FA00004F78001A
:105150004EDABF000080FB00100798001E00900090
:10516000E20F5000110032001E009000E20F5000CC
:1051700004003C001E009000E10F500008003200C7
:10518000120037001E009000E30F50000A003200AA
:105190001E009000E40F50000A0032000B003700A0
:1051A0001E80FB00D5FF0700080037001E40780076
:1051B000A4FF0700050037001E407800BDFD070072
:1051C000020037001E4078004C0007000080FA0003
:1051D000000006000200FA00004F78001E04E00004
:1051E00003003A0000C3B300440007000200370088
:1051F00010C3B300410007000080FA000000060061
:105200000400FA002047980000003700290007003A
:105210000004E000FDFF32002C000700004F780082
:105220001E407800350007009E407800F0CCB300A7
:1052300000C04000004F780040C72D006DFD070002
:105240002E4090009E4F10000300390060DC2D00BE
:1052500068FD0700EDFF37001E4078000040E800C1
:105260000080FB000080FA00000006000000FA0049
:105270004CDABF000080FB0080004000C0A021008D
:105280000080400010007800401188000000EB0012
:10529000001188002062A8000000EB0010118800B7
:1052A00021E2A8002342A8008560A9000080FA003E
:1052B000000006000000FA0022C2BF00614060004A
:1052C0000080FB000080FA00000006000200FA00E7
:1052D00022C2BF00614060000004E000FCFF320019
:1052E00030118000004F78008560A9001E407800D2
:1052F0000080FB000080FA00000006000200FA00B7
:10530000004F78001E00FB00201188000000000004
:1053100023C2BF00614060000004E000FCFF3200D7
:105320000080FA00000006000600FA00004F780036
:10533000114798001E80FB0020079800AE009000E7
:10534000F58F50000D003C002E009000F40F50002F
:1053500056003D00AE009000E18F50002900320061
:105360002E009000E20F500041003200AE0090008D
:105370000100E0001900320085003700800C200099
:10538000AE009000808F500050003200800C200052
:10539000AE009000808F500007003C002E0090006F
:1053A000F60F500045003200AE009000F78F50001D
:1053B0004D00320076003700900C2000AE009000C7
:1053C000808F500044003200A00C2000AE009000FE
:1053D000808F5000700032006D0037001E40780052
:1053E000FAFC0700C8F607007BFAB70035F707009C
:1053F0007BDABF0054FF070000372E00FDFC0700DA
:10540000650037001E407800F0FC07001E40900049
:105410004DFF070030372E00F6FC07000000EB00C0
:10542000C0D388000A003700B7F607007AFAB70041
:1054300024F707007ADABF0043FF0700D0372E00B9
:10544000ECFC0700C0D380000000E800C0D3880057
:105450001E4090008080FB00C0D38000808F5000F1
:10546000F1FF3E0000372E00E2FC07004A00370043
:105470001E407800D5FC07001E40900032FF070058
:105480001E40900084F60700F3F607000004E000D9
:1054900003003A00F0372E00ECFC07003E00370016
:1054A000C0382E00E9FC07003B003700B1F60700CA
:1054B000A0392E00CFFC070037003700BDF60700EB
:1054C000003B2E00CBFC0700330037004F5AA900E9
:1054D0004F9AA8003000370031000700503C2E00E2
:1054E000C4FC07002C0037001E4090000080FB0029
:1054F000100798001E0090000000E0000400320039
:105500009E009000E18F5000040032001D00370023
:10551000103D2E00B7FC07001F003700903F2E0003
:10552000CAFC07000000EB00C0D388000E00370063
:1055300090F60700C0D3800057F60700C6F60700B4
:105540000004E00004003200C0D38000FEFE07002B
:10555000D0372E00A7FC070096F60700C0D38000C6
:105560000000E800C0D38800C1D38000F00F200005
:10557000808F5000EEFF360000372E009DFC0700A4
:1055800005003700B0C0B30090FC070002003700F0
:10559000C0C0B3008DFC07000080FA0000000600C8
:1055A0000000FA00C922A800C902A800CB02A90085
:1055B000CB22A9000080FA00000006000400FA00D7
:1055C000004F7800114798001E80FB0010079800DC
:1055D0009E009000F68F5000420032001E009000A6
:1055E000F60F50000E003C009E009000E28F50002D
:1055F0002F0032001E009000E20F500004003C001B
:105600009E0090000100E0001A0032007300370095
:105610001E009000F40F5000700035002D00370080
:10562000800C20009E009000808F500031003200DE
:10563000800C20009E009000808F500004003C00F1
:105640001E009000F70F5000610032006300370029
:10565000900C20009E009000808F50005600320079
:10566000A00C20009E009000808F50005600320059
:105670005A003700D90007000004E000090032009A
:105680001E40780051FC0700C80007007CFAB700F4
:105690007CDABF00ACFE070000DE2D0055FC0700E1
:1056A0005000370030DE2D0068FC07004D00370049
:1056B0001E40780045FC07001E409000A2FE070037
:1056C00000DE2D004BFC07001E409000AC000700E0
:1056D0004400370097000700B0DF2D005BFC070097
:1056E000400037009900070010E12D0057FC07002B
:1056F0003C0037004F5AA900D0E12D003DFC0700C7
:1057000090C0B300BEFE07000040E9007EFAB7007B
:1057100050E92D0037FC070040C0B300B8FE070079
:105720000040E9006340600063416000F1A7210090
:1057300091407800C0CFB30000C06000024070000C
:105740007FFAB700F0EE2D002AFC070020C0B3005E
:10575000ABFE07000040E90061406000614060006E
:105760004201DD00F1A7210091407800B0CFB300E5
:1057700000C06000024070007FFAB70060F12D00A9
:105780001CFC070020C0B3009DFE07000040E9009C
:1057900061406000614060004301DD00F1A721002D
:1057A0009140780070CFB30000C0600002407000EC
:1057B0007FFAB7000B0037002200070010F52D001C
:1057C00022FC0700070037006000070005003700D3
:1057D000B0C0B300FDFB070002003700C0C0B3003B
:1057E000FAFB07000080FA00000006000200FA0041
:1057F0007A0007000004E000100032007FDABF00EA
:10580000704060000004E0000B00320000DE2D005C
:10581000F8FB0700C0F52D00F6FB0700630007004A
:10582000004F78001E40780047FE070000DE2D0084
:10583000F0FB0700010037005C0007000080FA0061
:10584000000006000000FA00616A20009140780024
:1058500000CEB30000C060007040B300A6E6B70001
:10586000616C20009140780000CEB30000C0600061
:105870005040B300C6E6B7007EDABF000080FB00F0
:105880008000400020A3210000804000100078002C
:10589000C01188000000EB00801188003062A80071
:1058A0007FDABF000080FB004300DE006140600043
:1058B000614060004401DD00012320009140780038
:1058C000F0CEB30000C060000240700030E2B700CC
:1058D0007FDABF0063406000634060000041400029
:1058E000012320009140780090CFB30000C06000F9
:1058F0000240700030E2B7007FDABF000080FB009A
:105900004200DE0061406000614160000123200030
:1059100091407800E0CFB30000C06000024070000A
:1059200030E2B7000000EB00901188000080FA0020
:10593000000006000000FA0031E2A8003342A8008F
:1059400087C0A9000080FA00000006000000FA00ED
:1059500031E2A9003342A900A6C6BF00F041B3005E
:10596000A6E6B700616C20009140780000CEB3003D
:1059700000C06000C6E6B7000080FA000000060024
:105980000200FA00004F78001E80FB00A011880082
:105990000000000033C2BF00614060000004E0006E
:1059A000FCFF32000080FA00000006000200FA004E
:1059B00087C0BF000044B2000004E000FCFF3200DA
:1059C000B0118000004F780087C0A9001E40780009
:1059D0000080FB000080FA00000006000200FA00D0
:1059E00087C0BF000044B2000004E00003003200A2
:1059F00010002000000F7800020037000000EB00CC
:105A0000000F78001E0078000080FA0000000600F9
:105A10000000FA0080192E0076FB07000080FA00D3
:105A2000000006000000FA00301D2E0071FB070088
:105A30008DFA070000C0EB0044FB07007CFA07006A
:105A4000401E2E006BFB070010C0B3003CF70700A0
:105A500085FA07000080FA00000006000A00FA003C
:105A6000F2F60700804078006300470001487800A4
:105A7000EEF6070080407800630047001140980070
:105A8000EAF6070080407800630047002140980054
:105A9000E6F6070080407800630047003140980038
:105AA000701F2E0053FB0700630047001040780072
:105AB0000080FB0091FD0700A0202E004DFB070099
:105AC00063004700104090000080FB008BFD070042
:105AD000A0202E0047FB07006300470020409000F5
:105AE0000080FB0085FD0700A0202E0041FB070081
:105AF00063004700304090000080FB007FFD0700FE
:105B0000C0202E003BFB07006300470010407800D8
:105B10000080FB004400DE0020479800F0202E00AB
:105B200034FB07002E4090000080FB0040079800E7
:105B30004E009000E90F5000110032004E0090001E
:105B4000E90F500004003C004E009000E80F5000A8
:105B500008003200130037004E009000EA0F50009A
:105B60000A0032004E009000EF0F50000A00320091
:105B70000C003700A0212E001EFB07000B00370091
:105B800010222E001BFB07000800370080222E0089
:105B900018FB070005003700F0222E0015FB070058
:105BA0000200370030232E0012FB0700C0202E0019
:105BB00010FB0700B0232E000EFB07006300470018
:105BC000104090000080FB004700DE002047980056
:105BD0002E4090000004E00003003A0070242E00E4
:105BE00004FB070002003700E0242E0001FB070041
:105BF000C0202E00FFFA0700E0252E00FDFA070066
:105C000063004700104090008080FB0080F72F0069
:105C1000008060004380DE00204798002E40900006
:105C20000004E00003003A00B0262E00F1FA07005D
:105C30001B0037002E409000EF4F500003003A0049
:105C4000F0222E00EBFA07001500370000042000B8
:105C5000000F7800E30047000040EB008048780028
:105C6000080037001E00780000004000000F780098
:105C700063004700104078008040E8006300470060
:105C80000148780063004700904078002E40900063
:105C900080CF5000F3FF39001E0078004EFC070053
:105CA000C0202E00D3FA070090272E00D1FA07005B
:105CB000630047009040900070C0B30000C06000D7
:105CC0002047980010002000000F7800E3004700F4
:105CD0000040EB0080487800080037001E00780084
:105CE00000004000000F780063004700104078007B
:105CF0008040E800630047000148780063004700E7
:105D0000904078002E40900080CF5000F3FF390083
:105D10001E007800CBFC0700C0282E00B5FA070053
:105D20000080FA00000006000800FA00004F78002A
:105D3000114798001E80FB0030079800BE009000BD
:105D4000E98F5000B40032003E009000E90F50008F
:105D50001D003C00BE009000E48F50008D0032001A
:105D60003E009000E40F50000A003C00BE0090008E
:105D7000E18F5000650032003E009000E20F5000BD
:105D80007A003200BE0090000100E00056003200B0
:105D9000890137003E009000E60F50008F0032006E
:105DA000BE009000E68F5000830035003E0090005A
:105DB000E70F500090003200BE009000E88F5000C6
:105DC000910032007C0137003E009000F60F500039
:105DD00041003200BE009000F68F50000A003C00E7
:105DE0003E009000F40F50002F003200BE009000E3
:105DF000F48F500032003C003E009000EA0F50004B
:105E0000890032006C013700800C2000BE00900039
:105E1000808F500011003200800C2000BE009000E6
:105E2000808F500004003C003E009000F70F5000AF
:105E30008100320060013700900C2000BE0090000D
:105E4000808F500014003200A00C2000BE00900093
:105E5000808F50005A013200570137004F5AA80076
:105E6000E08C2D0063FA070020C0B300E4FC0700BB
:105E70000040E900614060006141600081A52100AF
:105E800091407800E0CFB30000C060000240700095
:105E900058FAB7004A013700DA01070070922D0066
:105EA0006AFA0700460137004701070020C0B30027
:105EB0009701070020932D0064FA07004001370086
:105EC0004101070030C0B3009101070090942D00FC
:105ED0005EFA07003A0137003B01070050962D009B
:105EE0005AFA0700360137003702070056FAB700A2
:105EF0001E40780035FA070056DABF0092FC070012
:105F0000F0962D003BFA07002D0137001E40780067
:105F10002EFA07001E4090008BFC070020972D00F2
:105F200034FA07000000EB00A0D288000700370019
:105F30002502070084FC0700C0972D002DFA0700FA
:105F4000A0D280000000E800A0D288001E4090008F
:105F50008080FB00A0D28000808F5000F4FF3E00C4
:105F6000F0962D0023FA0700150137001E4090001F
:105F7000AF01070056FAB7001E40780013FA070079
:105F80001E40900070FC0700F0962D0019FA0700E3
:105F90000B0137005002070056FAB7001E40780088
:105FA0000AFA070056DABF008AFC0700F0962D00B7
:105FB00010FA0700020137001E40780003FA0700BC
:105FC0004F02070056FAB70056DABF0081FC0700FF
:105FD000F0962D0007FA0700F90037001E409000E8
:105FE00059FC07001E407800F8F907001E40900099
:105FF0006C020700F20037001E407800F3F907003A
:1060000075020700EE0037001E407800EFF9070028
:106010008A020700EA0037001E407800EBF907000B
:106020003E020700E60037001E407800E7F907004F
:1060300055020700E20037001E4090000080FB0080
:10604000200798002E009000E10F50001100320050
:10605000AE009000E18F500004003C002E00900044
:106060000000E00008003200D0003700AE009000D1
:10607000E28F50000C0032002E009000E30F500021
:1060800056003200C9003700E0972D00D9F907000B
:10609000CB00370015010700E09B2D00EBF907004E
:1060A000C9000700C6003700C09C2D00E7F90700B3
:1060B0000E010700E09B2D00E4F90700170207001E
:1060C000C100070020C0B3001101070000C0EB00B1
:1060D0003402070000C0EB0032020700BA000700DC
:1060E00030C0B3000A0107000000EB00A0D2880016
:1060F00007003700A0D280000000E800A0D288008E
:10610000A1D28000900F2000808F50000300360045
:10611000F10107000004E000F6FF3200AA000700CA
:10612000F2000700E09B2D00C8F90700A600070059
:1061300030C0B300F6000700C09D2D00C3F9070072
:10614000A0D2800000FC0700F09E2D00A9F90700F6
:106150000040EB0056FAB70019003700C09F2D0031
:10616000A4F90700A0D28000F7FB0700E09F2D00F4
:10617000A0F9070094010700F3FB0700C0972D006A
:106180009CF9070090010700EFFB0700C0972D0066
:1061900098F907008C010700EBFB0700C0972D0062
:1061A00094F9070088010700E7FB0700F0962D002F
:1061B00090F9070056DABF000040E80056FAB70031
:1061C00056DABF008080FB00A0D28000808F500094
:1061D000E2FF39007C0007007900370010C1B300EE
:1061E00046FC070020A02D0098F9070030A12D00E3
:1061F00096F9070020A32D0094F90700000037004E
:1062000085C0BF00684060000004E000FCFF320071
:1062100030118000A0D288008560A900A1D2800042
:10622000A0072000808F500001003200F4FF3700EB
:1062300060A42D0085F9070030C1B3002FFC0700D2
:10624000D1010700FD0107001E0207002E0907000B
:10625000A0D28800A1D28000110798001E009000F3
:10626000E30F50001D0032009E009000E38F5000AD
:1062700007003E001E009000E10F500011003200A8
:106280009E009000E18F500011003E000A00370090
:106290001E009000E50F5000160032009E00900096
:1062A000E58F5000100039001E009000E60F5000EE
:1062B000130032001500370080A52D0063F9070098
:1062C0001800370000A62D0060F907001500370000
:1062D00030A72D005DF9070012003700B0A82D008F
:1062E0005AF907000F00370020AA2D0057F90700C0
:1062F0000C003700D0AB2D0054F90700090037001F
:1063000060AD2D0051F9070006003700F0AE2D00FA
:1063100038F90700A0D280008BFB0700F0962D0013
:1063200034F90700C0AF2D0032F907000809070053
:1063300085FB070030B12D0044F9070010B32D0094
:1063400042F9070010C1B300ECFB07000000EB00AE
:10635000A0D288000000370022C2BF006140600068
:106360000004E000FCFF32003011800056FAB70054
:1063700061A5210091407800A0C7B30080CF5000F4
:1063800004003A00A0D280000000E800A0D28800FB
:10639000020037000000EB00A0D28800A0D28000ED
:1063A000E50F500006003200EBFF3700B0C0B3002D
:1063B00006F9070002003700C0C0B30003F9070068
:1063C0000080FA00000006000200FA00D0B42D00A0
:1063D00008F9070050DABF000080FB00000F7800CA
:1063E0001E007800E10F50000E0032001E00780001
:1063F000E10F500004003C001E0078000000E000A7
:106400000B003200350037001E007800E20F50000C
:106410000F0032001E007800E30F5000240032000D
:106420002E00370060B52D0008F907002D00370059
:10643000A401070010C0B3005A01070010C0B30048
:1064400050FAB70030B62D0000F9070025003700DC
:1064500051DABF00E14F50000A003A0052DABF00A3
:10646000E14F500002003A002C0107000100370004
:10647000450107000040EB0051FAB700F0B62D00CF
:10648000DCF807007401070020C0B30045010700D5
:106490008C01070010C0B3004201070010C0B30018
:1064A00050FAB70040B82D00E8F807000D0037009B
:1064B0006901070020C0B3003A010700810107000D
:1064C00010C0B3003701070010C0B30050FAB70086
:1064D000D0B82D00DDF807000200370060B92D00AC
:1064E000DAF807000080FA00000006000000FA0059
:1064F00059010700A0C0B3002A010700710107007D
:106500000040EB0050FAB7000080FA0000000600DF
:106510000400FA00004F780050DABF00E14F50004D
:106520000200320040BA2D00C8F80700D0B42D0098
:10653000B0F807001E80FB00100798001E009000B6
:10654000E10F50000E0032001E009000E10F5000DD
:1065500004003C001E0090000000E0000B00320030
:10656000240037001E009000E20F50001600320099
:106570001E009000E30F5000080032001D0037009D
:1065800060B52D00B1F807001C003700D7FF0700E9
:1065900000BC2D00ADF80700180037002E010700E1
:1065A00010C0B300FF0007004601070020C0B30081
:1065B000FC00070030C0B30050FAB70060BC2D00EB
:1065C000A2F807000D0037002301070020C0B30028
:1065D000F40007003B01070020C0B300F1000700F2
:1065E00020C0B30050FAB700A0BD2D0097F80700F7
:1065F00002003700F0C02D0094F807000080FA0078
:10660000000006000000FA00C8E2A800C902A900C4
:10661000C922A900C8C2A900CAE2A900CB02A900E8
:10662000CB22A900CAC2A9000080FA00000006001F
:106630000800FA00404798000001070051DABF0047
:10664000E14F500006003A0052DABF009100070007
:106650000040EB0051FAB70040C32D0065F8070079
:106660004FDABF00684060000004E0000300320021
:1066700010C0B300004F78000200370000C8B3001C
:10668000004F78000040EB0030479800450037008D
:106690004E4090001E4060000004E00002003A00FE
:1066A000B9000700010037009C000700CA0007007E
:1066B000CAC2BF000080FB004700DE0020479800F0
:1066C0004FDABF00684060000004E00010003200B4
:1066D0004E4090000080FB000000D1004047980031
:1066E0001E4090000080FB000000D1001047980081
:1066F0002E409000E14F500011003A001E409000E3
:1067000001C8B30001404000104798000C0037005A
:106710004E40900000404000404798001E409000CE
:1067200000404000104798002E409000E14F50007C
:1067300003003A001E4090000040E8001047980017
:10674000BE00070050DABF00E24F500012003A00CE
:106750003E409000E64F50000F003A0010C0B300DA
:1067600051FAB7004E4090001E4060000004E00067
:1067700003003A000040EB0052FAB7000200370075
:1067800010C0B30052FAB7001E4090000080FB001A
:1067900030079800090037003E4090000040E800B4
:1067A000304798003E409000E74F5000B8FF360059
:1067B0001E4090000080FB00300798003E009000D3
:1067C0000080FA00000006000400FA009B000700A9
:1067D00051DABF00E14F500006003A0052DABF0024
:1067E0002C0007000040EB0051FAB70040C32D0019
:1067F00000F807000040EB00204798001F0037001A
:1068000075000700CAC2BF000080FB004700DE0021
:10681000104798004FDABF00684060000004E000B5
:1068200008003A001E40780000404000004F780009
:106830001E4090000004E0000C0032001E4FE800F3
:106840000A0037001E80FB000000D100004F7800D6
:106850001E4090000004E000040032001E4078005A
:1068600001C8B30001404000004F780073000700EA
:106870002E4090000040E800204798002E409000F5
:10688000E74F5000DEFF36001E80FB000080FA005C
:10689000000006000400FA00204798002E409000F7
:1068A0000004E00002003A00370007000100370052
:1068B0001A00070048000700CAC2BF000080FB00A2
:1068C0004700DE00004F78005C0007001E80FB00E0
:1068D0000080FA00000006000200FA003E000700F7
:1068E000CAC2BF000080FB004700DE00004F7800F6
:1068F000520007001E80FB000080FA000000060026
:106900000000FA00CAC2BF000080FB004700DE00A2
:106910000080FB000080FA00000006000000FA0082
:1069200058DABF00614060006140600000414000F3
:10693000912C200091407800D0CFB30000C06000BF
:1069400002407000C9E2B70058DABF006140600041
:1069500000C0EA006140600061406000004140000A
:10696000B12C200091407800D0CFB30000C060006F
:1069700002407000CBE2B70040C1B30073F70700DC
:106980000080FA00000006000000FA00CB22A900F7
:10699000C922A90040C1B3006CF707000080FA00CB
:1069A000000006000400FA00204798000040EB00B9
:1069B000004F780003003700070007001F000700A2
:1069C0001E4FE8002E4090009E4F1000FAFF390045
:1069D0000080FA00000006000000FA0058DABF004C
:1069E0006140600061416000912C2000914078007E
:1069F000E0CFB30000C0600002407000C9E2B70001
:106A000058DABF006140600000C0EA0061406000E9
:106A100061416000B12C200091407800E0CFB300CC
:106A200000C0600002407000CBE2B70040C6B30077
:106A300046F707000080FA00000006000000FA0098
:106A4000CB02A900C902A90040C6B3003FF7070066
:106A50000080FA00000006000000FA0058DABF00CB
:106A600061406000614060004601DD00812C200033
:106A700091407800F0CBB30000C06000024070008D
:106A8000C8E2B70058DABF006140600000C0EA0009
:106A900061406000614060004601DD00A12C2000E3
:106AA00091407800F0CBB30000C06000024070005D
:106AB000CAE2B70040C1B30024F707000080FA0023
:106AC000000006000000FA00CAC2A900C8C2A9005E
:106AD00040C1B3001DF707000080FA000000060067
:106AE0000800FA00300798006000B800100798000E
:106AF000210798000000EB00000F78001600370017
:106B00001E009000AE009000C808DD000080FD006F
:106B1000804078000040EB001007980021079800A3
:106B20001E007800BE0090000080E80001004000D8
:106B3000104078000081FB00030020001E00900040
:106B4000AE00900002007000838070001007980073
:106B5000210798001E0FE8003E009000100078000A
:106B60009E0F5000E6FF3C001E009000AE0090001B
:106B70000080FA00000006000600FA00000F78000E
:106B800012079800230798009E007800100020004C
:106B9000800878001E009000804078001E00780079
:106BA000214098000080FA00000006000E00FA0064
:106BB00040079800510798006207980010002000D5
:106BC000300798004E009000900078002107980050
:106BD000200037002E009000CE0090000080E800DA
:106BE0000100400090407800214798002E0090005E
:106BF000DE0090000080E800010040009040780036
:106C0000114798006E0090000000E0000B00320079
:106C10002E009000EE0090000080E800010040008F
:106C2000104F78002E4090001E40600020479800D2
:106C30001E4090001E40600010479800AE4090003B
:106C40001E40900080CF5000020032000000EB0098
:106C5000300798003E0090000000E000060032007F
:106C60002E0090000000E900200798002E00900000
:106C7000E10F4000D7FF3A003E0090000080FA008C
:106C8000000006000600FA00000F780011079800C7
:106C9000220798001E0090009E0078000080E80007
:106CA00001004000104078008080FB002E00900022
:106CB000670010000088DE00610060000080FA00BC
:106CC000000006000A00FA0010079800210798004B
:106CD00032079800430798003E009000E70010003C
:106CE000100020000100DD00004F78002E00900011
:106CF0009E0090000080E8000100400010407800F5
:106D0000804078001E40780000C0EA0000C06000AB
:106D1000104798004E0090000000E0000300320091
:106D20001E4090001E40700010479800AE0090007A
:106D30001E009000010040000080E8009E4090008E
:106D4000014878000080FA00000006001000FA00F8
:106D50005007980061079800720798006E00900035
:106D6000900078005E009000010878000040EB0081
:106D7000004F98006E009000100F7800240037003C
:106D80001E007800EE0090000080E8000100400046
:106D9000104078000080FB00200798001E0078005B
:106DA000FE0090000080E8000100400010407800E4
:106DB0000080FB0010079800AE0090001E009000BD
:106DC000808040000E4890000080FB000080400062
:106DD000300798000040EB00004F9800BE00900084
:106DE000F00F2000808F50000200360010C0B3006A
:106DF000004F98009E0078003E009000004178000F
:106E00005E009000010040000080E8000248780029
:106E10001E0FE9000080EB009E0F1000D8FF3A0023
:106E20000080FA00000006000600FA001007980033
:106E3000210798001E009000AE0090000108780025
:106E40001E009000008FE800060037001E0078004A
:106E5000800607002E0090000000E900200798003F
:106E60001E0FE8002E0090000000E000F7FF3A003F
:106E70000080FA00000006000200FA00000F78000F
:106E80009E0078000040EB00804878009E0078006B
:106E90000040EB00904098001E0178006000B800B0
:106EA00010019800210198009E0078000000EB007E
:106EB000B00098009E0078000040EB00B0489800B9
:106EC0009E0078000040EB00804898009E0078000B
:106ED00010C0B300904898009E00780010C0B30026
:106EE000A04898001E0178006000B80000099800D2
:106EF000110998009E0078000000EB00A00898009F
:106F00001E0178006000B8006001980071019800CF
:106F10000000EB000080FA00000006000200FA000A
:106F2000000F78000080FA00000006000800FA0058
:106F3000008FBE0072002000030020003E004100D0
:106F4000AE80490020079800310798002E0090007D
:106F5000BE009000E00F5000E08F580006003D009A
:106F60002E019000BE01900067014100E0814900C0
:106F700022079800330798002E019000BE01900070
:106F80004D1ADD004310DE0000007200C398DE00E1
:106F90000080FA00000006000200FA00000F7800EE
:106FA0009E00780010002000FB0507008000EB0029
:106FB0000000EB00F8050700110020000000EB00C6
:106FC000F50507000080FA00000006000C00FA003A
:106FD00020079800614798000000EB00000F780040
:106FE0006E4090000004E00015003A001000200000
:106FF000E9FF07000000EB001007980009003700C8
:107000008000EB000000EB00E3050700110020000A
:107010000000EB00E00507001E0090000000E80003
:10702000100798001E009000E40F5000F4FF340099
:10703000AE0090000040EB00804878000801370067
:107040002E009000904078006E40900080CF50005D
:10705000110032006E409000E74F500004003A00EB
:107060002E00900010407800E64F500007003A00D4
:107070006E409000EE4F500007003A002E00900046
:1070800010407800ED4F5000030032005000200007
:10709000000F7800F20037002E009000904078003A
:1070A0006E40900080CF5000E8003A006E409000A3
:1070B000E64F500006003A0010002000B6FF07001F
:1070C000AE00900070C0B30080487800DF00370049
:1070D0006E409000ED4F5000DC003A0010002000A0
:1070E000ADFF0700AE009000E0C0B300804878001C
:1070F000D60037002E009000104078000080FB0082
:107100006101B9004207980053079800F000200081
:10711000010020004E019000DE019000800F510020
:10712000818F5900C4003E004E009000DE009000A8
:10713000006001000F00370014003700190037000D
:1071400027003700350037003A0037004800370085
:107150004D0037005B003700690037006E003700D4
:107160007C003700810037008F0037009400370023
:10717000A20037000000EB0087FF0700AE00900080
:1071800010C0B30080487800B00037001000200025
:1071900081FF0700AE00900020C0B3008048780057
:1071A000AA0037006E409000E84F500006003600FD
:1071B0001000200078FF0700AE00900090C0B300E0
:1071C00080487800A10037000000EB0072FF070044
:1071D000AE00900030C0B300804878009B003700BC
:1071E0006E409000E44F500006003A000000EB00B3
:1071F00069FF0700AE00900040C0B30080487800EF
:10720000920037001000200063FF0700AE009000DE
:1072100050C0B300804878008C0037001000200078
:107220005DFF0700AE00900050C0B30080487800BA
:10723000860037006E409000E64F500006003A008E
:107240000000EB0054FF0700AE00900060C0B300E8
:10725000804878007D003700100020004EFF0700B6
:10726000AE00900080C0B3008048780077003700FF
:107270001000200048FF0700AE00900070C0B3006F
:1072800080487800710037006E409000E44F500055
:1072900006003A000000EB003FFF0700AE00900040
:1072A00040C0B3008048780068003700100020001C
:1072B00039FF0700AE00900080C0B300804878001E
:1072C000620037006E409000E14F500006003A0027
:1072D0000000EB0030FF0700AE00900010C0B300CC
