:020000040000fa
:080000000002040000000000f2
:020000040000fa
:100400004fa82100007f22000001880000000000aa
:100410000a00070011000700000020000000e000b3
:10042000020032000000020000000000c45c020074
:10043000000000000040da000000fe004440a90077
:10044000406221000000e0000300320000002000b4
:10045000a00188004440a80000000600607025004c
:10046000010020001500370062004000e0804800d5
:10047000910188009001ba0062004000e0804800cd
:10048000910188009002ba0062004000e0804800bc
:100490000002eb006028e10004003a000059eb0084
:1004a0008301e900fdff3e00040037006128e10000
:1004b000010032000082eb00050007009101880076
:1004c0001001ba000200e000e7ff3a00000005005a
:1004d000910188008002780062004000e0804800be
:1004e0003559ba008301e900080032002559ba00e5
:1004f0008301e900050032000400e000f4ff32004f
:1005000015d9ba008301e900f1ff3a0000000600a6
:100510003a1f0400000000004a1f04000000000011
:100520005e1f0400000000005c20040000000000ca
:10053000ca20040000000000281f04000000000082
:10054000e820040000000000f82004000000000083
:100550003c21040000000000a8210400000000006d
:10056000c621040000000000042304000000000075
:100570006623040000000000d823040000000000ef
:10058000fa23040000000000dc1f0400000000004b
:100590005a2404000000000076240400000000003b
:1005a0006022b800060220000000d0008180d20046
:1005b0000482d2008582d2000000a0000202520014
:1005c00083825a00030031000202420083824a0003
:1005d0000000a1000603e900f3ff3a000000060056
:020000040000fa
:020000040001f9
:0457f800dff90000d5
:020000040000fa
:020000040001f9
:0457fc007f3f0000eb
:020000040000fa
:100008009a5d00009a5d00009a5d00009a5d00000c
:100018009a5d00009a5d00009a5d00009a5d0000fc
:100028009a5d00009a5d00009a5d00009a5d0000ec
:100038009a5d00009a5d00009a5d00009a5d0000dc
:020000040000fa
:020000040000fa
:1005e000486900005a000000312d00005749000002
:1005f0005245000000550000415200005400000028
:100600004932000043000000535000004900000040
:100610004a540000414700000052000041570000ca
:1006200032570000495200004500000052410000ce
:1006300057330000574900005245000000500000a9
:10064000432000004b450000594200004f4100008c
:1006500052440000004d0000454e0000555300007c
:10066000003f000020480000656c000070000000a2
:100670004220000054650000726d0000696e0000a9
:10068000616c00002073000070650000656400006c
:10069000004f000020440000617400006120000051
:1006a00064690000737000006c6100007920000034
:1006b000666f0000726d000061740000004600006b
:1006c000206600007265000071750000656e000014
:1006d00063790000206300006f7500006e740000f5
:1006e000206f00006e2000004155000058000000ff
:1006f00043200000415500005820000070690000b0
:100700006e2000006173000073690000676e0000d6
:100710006d6500006e740000004d00002042000076
:1007200075730000206d00006f640000650000001c
:100730004c20000042690000742000006f7200002d
:100740006465000072000000502000005344000067
:10075000412f0000534300004c2000007075000042
:100760006c6c000075700000207200006573000062
:1007700069730000746f0000727300000053000082
:10078000594e00005441000058000000412f000065
:10079000612f00004020000041750000782000001b
:1007a0006f75000074700000757400002074000004
:1007b0006f670000676c000065200000482f000094
:1007c0004c2f0000486900002d5a000028720000dc
:1007d0006561000064290000005b00002028000023
:1007e0007b29000020730000746100007274000017
:1007f0002077000072690000746500002028000066
:1008000077690000746800002072000065610000d4
:1008100064290000005d0000206f000072200000cd
:100820007d200000737400006f70000020770000ce
:10083000726900007465000000520000206f000023
:100840007220000072200000526500006164000008
:10085000206200007974000065200000287200000a
:100860003a3100002e2e00002e32000035350000f7
:10087000206600006f72000020620000756c0000ae
:100880006b200000726500006164000073290000a5
:100890000030000062200000577200006974000000
:1008a00065200000424900004e20000062790000ef
:1008b0007465000000300000682000006f720000c6
:1008c000203000007820000057720000697400009a
:1008d00065200000484500005820000062790000b3
:1008e00074650000003000002d3200003535000036
:1008f0002057000072690000746500002044000069
:10090000454300002062000079740000650000008b
:100910002c200000566100006c750000652000006e
:10092000646500006c6900006d690000746500007a
:1009300072200000286100006c7300006f2000002e
:10094000737000006163000065290000002600004c
:10095000203100007553000020640000656c000029
:100960006179000020280000263a0000312e0000a6
:100970002e2e00003235000035200000666f00008a
:10098000722000006d7500006c740000697000003a
:100990006c65000020640000656c00006179000057
:1009a00073290000002800002329000020520000c5
:1009b000756e0000206d000061630000726f000022
:1009c0002c2000002830000029200000666f000065
:1009d000722000006d610000637200006f20000053
:1009e0006c69000073740000005200004157000061
:1009f0002042000055530000204f000050450000e9
:100a000052410000544900004f4e000053000000c6
:100a10005e200000436c00006f6300006b2000004c
:100a200074690000636b0000202800005e3a00003b
:100a3000312e00002e2e000032350000352000003f
:100a4000666f0000722000006d7500006c7400007d
:100a5000697000006c65000020740000696300008c
:100a60006b730000290000002f5c00002043000091
:100a70006c6f0000636b0000204800002f4c0000ea
:100a8000002d00002f5f0000204400006174000072
:100a900061200000482f00004c00000021200000d1
:100aa000526500006164000020620000697400006b
:100ab000002e00002044000061740000612000004e
:100ac000696e000070750000742c00002072000038
:100ad0006561000064200000286e00006f200000a7
:100ae000636c00006f6300006b290000002e0000a3
:100af000200000004d4f0000444500003e00000073
:100b00004d4f0000444500002053000045540000b4
:100b100000200000312e0000204800004558000051
:100b20000d0a0000203200002e2000004445000085
:100b3000430d00000a200000332e00002042000078
:100b4000494e00000d0a0000203400002e20000055
:100b500052410000570d00000a2000004f550000d0
:100b60005450000055540000204d00004f44000038
:100b7000453e0000004f0000555400005055000055
:100b8000542000004d4f0000444500002053000059
:100b90004554000000200000312e000020530000ca
:100ba000444100002f530000434c0000205000003f
:100bb000756c00006c750000702000006f6600000e
:100bc000660d00000a200000322e000020530000b5
:100bd000444100002f530000434c0000205000000f
:100be000756c00006c750000702000006f6e0000d6
:100bf0000d0a0000204d00004f440000453e00005b
:100c000000200000312e0000204d00005342000063
:100c10002066000069720000737400000d0a000075
:100c2000203200002e2000004c5300004220000023
:100c30006669000072730000740d00000a20000055
:100c40004d4f0000444500003e0000004d530000a1
:100c50004220000053450000543a0000204d00009f
:100c60004f5300005420000053490000472000006b
:100c70004249000054200000464900005253000041
:100c8000540000004c530000422000005345000077
:100c9000543a0000204c000045410000535400002d
:100ca0002053000049470000204200004954000042
:100cb000204600004952000053540000000d00007f
:100cc0000a00000041550000582000005049000073
:100cd0004e0d00000a200000312e000020410000cf
:100ce00055580000202800004445000046410000ff
:100cf000554c0000542900000d0a0000203200006d
:100d00002e200000435300002f5400004d530000dc
:100d10000d0a0000204d00004f440000453e000039
:100d200000410000555800003a20000044450000f2
:100d300046410000554c000054200000534500007f
:100d400054540000494e0000472000002841000094
:100d50005558000020500000494e000029000000b6
:100d600041550000583a0000204300004f4e00005b
:100d7000545200004f4c0000532000004353000029
:100d80002f5400004d53000020500000494e000039
:100d900000530000657400002073000065720000bd
:100da000696100006c200000706f00007274000028
:100db0002073000070650000656400003a200000a8
:100dc0002862000070730000290d00000a20000056
:100dd000312e000020330000303000000d0a0000ea
:100de000203200002e2000003132000030300000a0
:100df0000d0a0000203300002e20000032340000d5
:100e0000303000000d0a0000203400002e200000c9
:100e100034380000303000000d0a0000203500009a
:100e20002e20000039360000303000000d0a00008e
:100e3000203600002e200000313900003230000042
:100e4000300d00000a200000372e00002033000083
:100e500038340000303000000d0a00002038000057
:100e60002e2000003537000036300000300d000025
:100e70000a200000392e000020310000313500002a
:100e800032300000300d00000a20000053500000f6
:100e900045450000443e000000410000646a000037
:100ea0007573000074200000796f000075720000f7
:100eb00020740000657200006d6900006e61000022
:100ec0006c200000616e0000642000007072000061
:100ed0006573000073200000737000006163000000
:100ee00065200000746f0000206300006f6e00003a
:100ef000746900006e750000650d00000a000000b6
:100f00004e4f0000204d00004f44000045200000df
:100f100053450000542c0000204d000020460000e6
:100f20004f520000204d00004f440000450d0000ce
:100f30000a000000444500004c4100005920000018
:100f400000750000530d00000a0000005359000016
:100f50004e5400004158000020450000525200004d
:100f60004f5200002c200000545200005920000075
:100f70003f0d00000a0000000d0a000000200000e4
:100f80004259000054450000533a00000d0a000089
:100f900000200000002000002a6e00006f77000093
:100fa000206900006e70000075740000206400006d
:100fb0006972000065630000746900006f6e0000d4
:100fc0000d0a0000003100005749000052450000a2
:100fd0002000000020570000524900005445000046
:100fe000204200004954000028530000292000003e
:100ff000280000002900000031570000495200007d
:1010000045200000575200004954000045200000d0
:1010100042490000543a000020000000202a00004d
:101020006e65000078740000206300006c6f0000a3
:10103000636b0000202800005e290000207700007c
:10104000696c00006c200000616c0000736f000090
:1010500020680000617600006520000074680000d0
:101060006973000020760000616c00007565000067
:101070000d0a0000003100005749000052450000f1
:101080002052000045410000445900000d0a0000b4
:10109000003100005749000052450000204d00007b
:1010a00041430000524f00003a2000004e4f000024
:1010b0002044000045560000494300004520000040
:1010c00023000000204500004e5500004d45000063
:1010d0005241000054450000442c00002054000000
:1010e00052590000205300004541000052430000c7
:1010f00048200000524f00004d2000004d410000ec
:10110000435200004f2000004649000052530000a7
:1011100054200000283000007846000030290000ec
:1011200000310000574900005245000020410000f6
:10113000444400005245000053530000204d00007d
:1011400041430000524f0000200000003a20000000
:1011500000200000302e00004d610000637200008e
:101160006f2000006d6500006e750000004d0000ee
:1011700061630000726f000020200000202000004a
:101180002031000057490000524500002061000056
:1011900064640000726500007373000000200000aa
:1011a0004e4f000020440000455600004943000017
:1011b00045530000204500004e5500004d450000fd
:1011c00052540000454400002c20000054520000fe
:1011d00059200000284100004c410000524d000001
:1011e0002920000053450000415200004348000000
:1011f000205200004f4d00002046000049520000e0
:1012000053540000002e0000000d00000a200000d2
:10121000202000002a000000315700004952000041
:1012200045200000524f00004d200000434f0000b9
:101230004d4d0000414e0000442000004d41000093
:10124000435200004f7300003a0d00000a200000d6
:10125000353100002e5200004541000044200000be
:10126000524f00004d20000028300000783300006d
:1012700033290000202a0000666f00007220000061
:10128000736900006e6700006c6500002064000058
:10129000657600006963000065200000627500004b
:1012a000730d00000a200000383500002e4d0000ac
:1012b0004154000043480000205200004f4d000000
:1012c000202800003078000035350000292000007b
:1012d0002a6600006f6c00006c6f000077650000ec
:1012e00064200000627900002036000034620000b3
:1012f00069740000206100006464000072650000f1
:10130000737300000d0a000020320000303400002a
:101310002e5300004b49000050200000524f0000a7
:101320004d200000283000007843000043290000d1
:10133000202a0000666f00006c6c00006f770000d0
:10134000656400002062000079200000636f0000e7
:101350006d6d0000616e0000640d00000a20000049
:1013600032330000362e0000414c00004152000094
:101370004d2000005345000041520000434800004a
:10138000202800003078000045430000290d0000af
:101390000a20000032340000302e000053450000c7
:1013a0004152000043480000205200004f4d000011
:1013b000202800003078000046300000290d000091
:1013c0000a0000003157000049520000452000008b
:1013d000524f00004d200000434f00004d4d0000d3
:1013e000414e0000443a0000204100004c41000002
:1013f000524d0000205300004541000052430000c0
:1014000048200000283000007845000043290000f3
:1014100000310000574900005245000020520000f2
:101420004f4d0000204300004f4d00004d41000093
:101430004e4400003a200000534500004152000095
:1014400043480000202800003078000046300000ab
:1014500029000000466f0000756e00006420000047
:101460006465000076690000636500007320000079
:10147000617400003a000000466f0000756e0000c5
:101480006420000000200000646500007669000010
:1014900063650000732e00000054000068650000c2
:1014a00020660000697200007374000020000000d4
:1014b000206400006576000069630000652000007c
:1014c00049440000732000006172000065200000a4
:1014d00061760000616900006c610000626c0000d0
:1014e0006520000062790000204d000041430000ab
:1014f000524f00002c2000007365000065200000a2
:1015000028300000292e000000310000574900005b
:101510005245000020570000524900005445000089
:10152000205200004f4d0000204300004f4d0000ae
:101530004d4100004e4400003a200000524500009a
:1015400041440000202800003078000033330000c0
:10155000292000002a6600006f720000207300003e
:10156000696e0000676c0000652000006465000083
:10157000766900006365000020620000757300005a
:10158000206f00006e6c00007900000031570000f1
:101590004952000045200000425500004c4b00001d
:1015a0002052000045410000442000003820000087
:1015b0004259000054450000533a00000031000039
:1015c00057490000524500002057000052490000d2
:1015d00054450000205200004f4d00002043000001
:1015e0004f4d00004d4100004e4400003a200000e5
:1015f0004d41000054430000482000002830000006
:101600007835000035290000202a0000666f0000b0
:101610006c6c00006f770000207700006974000098
:101620006820000036340000626900007420000069
:1016300061640000647200006573000073000000c4
:101640003157000049520000452000005752000069
:101650004954000045200000524f00004d2000007a
:10166000434f00004d4d0000414e0000443a000041
:10167000205300004b49000050200000283000009b
:101680007843000043290000202a0000666f000014
:101690006c6c00006f770000207700006974000018
:1016a00068200000636f00006d6d0000616e000037
:1016b000640000003157000049520000452000003e
:1016c00042550000532000005245000053450000e1
:1016d00054200000004f00004b0000004552000065
:1016e000524f0000523a0000200000002a53000030
:1016f000484f000052540000204f000052200000cc
:101700004e4f000020500000554c00004c5500008a
:1017100050200000002a00004e4f0000204400002e
:1017200045560000494300004520000044450000a4
:1017300054450000435400004544000020000000d0
:10174000280000004453000031380000323200000d
:1017500020450000636f00006e2000004469000017
:101760006720000054680000657200006d000000f2
:1017700044530000323400003331000020310000b7
:101780004b20000045450000505200004f4d000026
:10179000005500006e6b00006e6f0000776e000059
:1017a0002064000065760000696300006520000089
:1017b000666100006d6900006c790000204900003e
:1017c000440000004f750000747000007574000044
:1017d0002074000079700000653a00000d0a0000d6
:1017e000203100002e2000004869000067680000da
:1017f0002d5a0000206f0000757400007075000005
:101800007473000020280000483d0000696e00004d
:1018100070750000742c0000204c00003d47000053
:101820004e440000290d00000a200000322e000066
:10183000204e00006f7200006d6100006c200000ff
:101840006f75000074700000757400007320000054
:10185000284800003d560000636300002c20000073
:101860004c3d0000474e0000442900000d0a0000d6
:10187000203e0000004a00005441000047200000c4
:101880005245000041440000590000004a54000045
:10189000414700002052000045410000445900002b
:1018a000205400004f20000057520000495400000f
:1018b0004520000049520000004a00005441000049
:1018c000472000005245000041440000592000001c
:1018d000544f00002052000045410000442f0000fa
:1018e00057520000495400004520000044520000b7
:1018f000004a000054410000472000004944000015
:101900004c450000000d00000a00000020420000cd
:1019100059540000455300003a0d00000a00000031
:1019200020000000203000002e4d00006163000008
:10193000726f0000206d0000656e0000750d0000e4
:101940000a200000312e000052650000736500007f
:101950007420000063680000616900006e0d0000e3
:101960000a200000322e0000507200006f6200005a
:101970006520000063680000616900006e0d0000d2
:101980000a200000332e0000585300005646000085
:10199000207000006c61000079650000720d00008d
:1019a0000a0000004a54000041470000534d000067
:1019b0003a2000005245000053450000540000004a
:1019c0004a54000041470000204900004e490000f1
:1019d0005420000043480000414900004e00000030
:1019e0004a540000414700002043000048410000e5
:1019f000494e000020520000455000004f520000a8
:101a0000543a000000200000444500005649000000
:101a10004345000028530000290d00000a00000083
:101a200023000000203a0000200000004a5400007b
:101a30004147000020580000535600004620000097
:101a4000504c000041590000455200000058000071
:101a50004f4e00002f5800004f4600004620000067
:101a6000464c00004f570000204300004f4e00003e
:101a7000545200004f4c000020520000455100001d
:101a8000554900005245000044000000505200003b
:101a900045530000532000007a200000544f0000fe
:101aa000204300004f4e0000544900004e550000f6
:101ab0004500000042450000474900004e2000005c
:101ac000585300005646000020550000504c0000be
:101ad0004f410000440000005853000056460000eb
:101ae000204f00004b0000005853000056460000f5
:101af000205500004e4b00004e4f0000574e000096
:101b000020450000525200004f52000000580000d3
:101b1000535600004620000045520000524f00007e
:101b200052200000544400004f2000004d490000a6
:101b3000534d00004154000043480000005800008d
:101b4000535600004620000045520000524f00004e
:101b5000522000004d410000582000005245000076
:101b60005452000049450000530000005853000043
:101b70005646000020450000525200004f5200001f
:101b8000204900004c4c000045470000414c00003b
:101b9000204300004f4d00004d4100004e44000026
:101ba0000058000053560000462000004552000037
:101bb000524f000052200000494c00004c450000ec
:101bc000474100004c2000005354000041540000e5
:101bd0004500000058530000564600002045000014
:101be000525200004f5200002044000041540000b7
:101bf000412000004f56000045520000464c0000b6
:101c00004f570000005800005356000046200000c7
:101c100045520000524f0000523a000020000000e0
:101c2000205900004f550000522000005043000092
:101c30002044000052490000424200004c45000090
:101c4000442000004d41000058200000002000000a
:101c50004259000054450000532000004146000056
:101c60005445000052200000584f00004646000036
:101c70002028000054480000415400002753000071
:101c8000204f00004b29000000500000524500008a
:101c900053530000207a000020350000205400003b
:101ca000494d000045530000205400004f20000023
:101cb000434f00004e540000494e000055450000bf
:101cc000004a000054410000475300004d3a000014
:101cd00020000000414c000052450000414400003b
:101ce00059200000494400004c450000005200000b
:101cf00045530000455400002d3e000049440000bb
:101d00004c45000000280000575200004f540000ce
:101d100045200000444500004c41000059450000aa
:101d20004420000042490000542900002000000027
:101d3000495200002d3e0000494400004c4500007f
:101d400000440000522d00003e490000444c0000b9
:101d500045000000554e00004b4e00004f5700005c
:101d60004e20000053540000415400004500000084
:101d70004a54000041470000534d00003a20000043
:101d800057410000524e0000494e0000472000001d
:101d90004f550000542000004f4600002053000023
:101da000594e00004300000052450000534500001a
:101db00054000000494400004c4500002d3e000046
:101dc000446100007461000020520000656700005b
:101dd000697300007465000072000000494400004f
:101de0004c4500002d3e0000496e00007374000059
:101df0007275000063740000696f00006e200000bf
:101e0000526500006769000073740000657200008d
:101e100020280000444500004c41000059450000c6
:101e2000442000004f4e00004520000042490000c1
:101e300054200000464f000052200000544d000086
:101e400053290000005500004e4b00004e4f00008b
:101e5000574e00002053000054410000544500003c
:101e60002c200000545200005920000041200000a6
:101e70005245000053450000542000004d41000031
:101e8000435200004f2000002831000029000000cc
:101e90004e4f0000544500003a2000005752000009
:101ea0004f54000045200000444500004c41000014
:101eb000594500004420000042490000540d000034
:101ec0000a00000041550000582000004849000069
:101ed000474800000041000055580000204c000019
:101ee0004f570000004100005558000020480000f6
:101ef0004947000048200000494d0000502c0000d8
:101f00002052000045410000443a0000200000003b
:101f10000d0a000000500000554c00004c55000018
:101f20005020000052450000534900005354000067
:101f30004f520000532000004f4e000000500000a0
:101f4000554c00004c550000502000005245000048
:101f500053490000535400004f520000532000002a
:101f60004f46000046000000465200004551000068
:101f7000554500004e43000059200000434f00002b
:101f8000554e0000542000004f4e0000204100003c
:101f9000555800003a200000004800007a00000078
:101fa00020280000006b0000487a00002900000093
:101fb0004d4800007a290000005200004541000011
:101fc000443a000020000000425500004c4b000045
:101fd000205200004541000044200000005700004e
:101fe00052490000544500003a2000000042000021
:101ff000554c00004b20000057520000495400008f
:10200000452000000052000045410000442000002f
:1020100042490000543a0000200000004441000002
:1020200054410000204900004e500000555400006b
:102030002c2000005354000041540000453a000099
:1020400020000000204300004c4f0000434b0000e4
:1020500020540000494300004b5300000d0a0000cb
:10206000004300004c4f0000434b00002c200000b8
:10207000310d00000a000000434c00004f430000f7
:102080004b2c0000203000000d0a0000004400002e
:1020900041540000412000004f5500005450000002
:1020a000555400002c200000310d00000a000000f3
:1020b0004441000054410000204f000055540000ee
:1020c00050550000542c0000203000000d0a000084
:1020d000004e00004f200000535500004348000010
:1020e000204d000041430000524f000020490000f5
:1020f0004e2000005448000049530000204d0000cd
:102100004f440000452c00002054000052590000ac
:10211000203f0000204f0000522000002830000027
:1021200029200000464f00005220000048450000d2
:102130004c5000000d0a0000004300004f4d00000d
:102140004d4100004e440000204e00004f5400005e
:10215000204900004d5000004c4500004d45000056
:102160004e54000045440000204900004e2000006d
:102170005448000049530000204d00004f44000027
:10218000450d00000a000000306200000030000031
:10219000313200003334000035360000373800009b
:1021a0003941000042430000444500004630000031
:1021b00078000000535900004e54000041580000c0
:1021c00020450000525200004f5200002c20000019
:1021d00054520000592000004147000041490000ce
:1021e0004e3e0000000000000d0a000000550000f7
:1021f00041520000542000005245000041440000bc
:1022000020460000414900004c3a0000204e0000ea
:102210004f200000444100005441000000550000e0
:1022200041520000542000004f500000454e000075
:102230002c2000007d200000544f000020430000af
:102240004c4f000053450000005500004152000073
:1022500054200000434c00004f5300004544000050
:1022600000530000657400002073000070650000da
:10227000656400003a2000002862000070730000ce
:10228000290d00000a200000312e0000203300003c
:10229000303000000d0a0000203200002e20000027
:1022a00031320000303000000d0a00002033000001
:1022b0002e20000032340000303000000d0a0000f3
:1022c000203400002e2000003438000030300000a0
:1022d0000d0a0000203500002e20000039360000d5
:1022e000303000000d0a0000203600002e200000d3
:1022f0003139000032300000300d00000a200000ab
:10230000372e000020330000383400003030000049
:102310000d0a0000203800002e2000003537000094
:1023200036300000300d00000a200000392e000079
:10233000203100003135000032300000300d000047
:102340000a2000005350000045450000443e0000b4
:102350000044000061740000612000006269000018
:1023600074730000206100006e64000020700000a3
:102370006172000069740000793a00000d0a0000e3
:10238000203100002e200000382c0000204e0000dc
:102390004f4e0000452000002a64000065660000e2
:1023a000617500006c740000200d00000a20000020
:1023b000322e0000203800002c200000455600007e
:1023c000454e0000200d00000a200000332e0000c2
:1023d000203800002c2000004f4400004420000062
:1023e0000d0a0000203400002e200000392c0000cf
:1023f000204e00004f4e0000452000000d0a000056
:10240000203e000000530000746f000070200000a8
:1024100062690000747300003a0d00000a20000099
:10242000312e000020310000202a000064650000e9
:1024300066610000756c0000740d00000a20000049
:10244000322e000020320000200d00000a20000083
:102450003e000000526500006365000069760000e0
:1024600065200000706f00006c6100007269000060
:10247000747900003a0d00000a200000312e00009f
:1024800020490000646c000065200000312000003d
:102490002a64000065660000617500006c7400002d
:1024a0000d0a0000203200002e20000049640000c8
:1024b0006c650000203000000d0a0000204d000077
:1024c0004f440000453e000000550000415200000e
:1024d0005420000052450000414400005900000013
:1024e00055410000525400002052000045410000b8
:1024f000443a000020000000435300002045000043
:102500004e410000424c00004544000000430000e2
:10251000532000004449000053410000424c000099
:1025200045440000000d00000a00000020420000a9
:1025300059540000455300003a0d00000a00000005
:102540002052000045410000443a000020000000f5
:102550005365000074200000737000006565000082
:10256000643a00000d0a0000203100002e20000017
:10257000333000004b4800007a0d00000a200000b4
:10258000322e000020310000323500004b480000a0
:102590007a0d00000a200000332e000020320000d7
:1025a000353000004b4800007a0d00000a20000082
:1025b000342e0000203100004d4800007a0d00004c
:1025c0000a2000005350000045450000443e000032
:1025d000004300006c6f0000636b0000207000007f
:1025e0006f6c00006172000069740000793a0000ad
:1025f0000d0a0000203100002e2000004964000078
:102600006c650000206c00006f770000202a00003d
:102610006465000066610000756c0000740d0000c8
:102620000a200000322e000020490000646c0000e7
:102630006520000068690000676800000d0a00005e
:10264000203e0000004f000075740000707500000f
:1026500074200000636c00006f6300006b200000ba
:1026600065640000676500003a0d00000a20000064
:10267000312e000020490000646c0000652000003d
:10268000746f000020610000637400006976000030
:10269000650d00000a200000322e000020410000dd
:1026a000637400006976000065200000746f00000c
:1026b00020690000646c0000652000002a640000ae
:1026c00065660000617500006c7400000d0a000072
:1026d000203e0000004900006e700000757400008c
:1026e00020730000616d0000706c00006520000028
:1026f0007068000061730000653a00000d0a000078
:10270000203100002e2000004d69000064640000ac
:102710006c650000202a000064650000666100000e
:10272000756c0000740d00000a200000322e0000bd
:10273000204500006e6400000d0a0000203e0000ed
:1027400000530000504900002052000045410000a5
:102750004459000000000000005e0000bce20000e0
:10276000613f0000dd830000c29c00007e2000006d
:10277000a3fd00001f4100009dc30000217f000059
:10278000fca20000401e00005f010000e3bd00004d
:102790003e60000082dc0000237d00009fc100003d
:1027a000421c0000fea00000e1bf00005d0300002d
:1027b00080de00003c620000bee00000025c000021
:1027c000df810000633d00007c220000c09e00000d
:1027d0001d430000a1ff000046180000faa40000fd
:1027e000277900009bc5000084da000038660000ed
:1027f000e5bb000059070000db85000067390000d9
:10280000bae400000658000019470000a5fb0000cc
:1028100078260000c49a0000653b0000d9870000bc
:10282000045a0000b8e60000a7f900001b450000ac
:10283000c69800007a240000f8a60000441a0000a0
:1028400099c70000257b00003a64000086d800008c
:102850005b050000e7b900008cd20000306e00007c
:10286000edb30000510f00004e100000f2ac00006c
:102870002f71000093cd0000114f0000adf3000058
:10288000702e0000cc920000d38d00006f3100004c
:10289000b2ec00000e500000aff10000134d00003c
:1028a000ce900000722c00006d330000d18f00002c
:1028b0000c520000b0ee0000326c00008ed0000020
:1028c000530d0000efb10000f0ae00004c1200000c
:1028d00091cf00002d730000ca94000076280000fc
:1028e000abf500001749000008560000b4ea0000ec
:1028f00069370000d58b000057090000ebb50000d8
:10290000366800008ad4000095cb000029770000cb
:10291000f4aa000048160000e9b70000550b0000bb
:1029200088d60000346a00002b75000097c90000ab
:102930004a140000f6a80000742a0000c89600009f
:10294000154b0000a9f70000b6e800000a5400008b
:10295000d78900006b350000203000002e4d0000ac
:1029600061630000726f0000206d0000656e000062
:10297000750d00000a200000312e000049530000b0
:102980004f37000038310000332d000033200000a5
:1029900041540000520d00000a200000322e0000b9
:1029a000495300004f37000038310000332d00003c
:1029b0003320000070610000727300006520000089
:1029c0006f6e00006c7900000d0a000000490000e5
:1029d000534f00002037000038310000332d000035
:1029e0003320000041540000520d00000a00000096
:1029f0003078000030310000204300004c4f0000d0
:102a0000434b000020540000494300004b5300009a
:102a10000d0a000000490000534f0000203700005d
:102a200038310000332d00003320000072650000b3
:102a3000706c0000793a00002000000020000000c7
:102a40000d0a000000500000726f0000746f00005b
:102a5000636f00006c3a0000200000007365000006
:102a600072690000616c00000033000020770000f4
:102a700069720000650000003220000077690000e4
:102a8000726500000052000046550000007500000d
:102a90006e6b00006e6f0000776e00000052000049
:102aa000656100006420000074790000706500001a
:102ab0003a200000007400006f200000656e0000e6
:102ac000640000007661000072690000616200002d
:102ad0006c650000206c0000656e000067740000eb
:102ae000680000004461000074610000207500006f
:102af0006e690000747300003a200000006e000050
:102b00006f200000696e00006469000063610000ce
:102b1000746900006f6e00000044000061740000e2
:102b200061200000756e000069740000206c0000d8
:102b3000656e000067740000683a00002000000025
:102b40002062000069740000730d00000a0000009c
:102b50004f75000074700000757400002074000050
:102b600079700000653a00000d0a00002031000075
:102b70002e20000048690000676800002d5a000000
:102b8000206f000075740000707500007473000001
:102b900020280000483d0000696e000070750000ac
:102ba000742c0000204c00003d4700004e44000003
:102bb000290d00000a200000322e0000204e0000e7
:102bc0006f7200006d6100006c2000006f750000e6
:102bd0007470000075740000732000002848000025
:102be0003d560000636300002c2000004c3d0000b7
:102bf000474e0000442900000d0a0000203e00005e
:102c000000520000415700003257000049520000b6
:102c100045200000524500004144000059000000da
:102c2000493200004320000053540000415200008c
:102c300054200000434f00004e440000495400005f
:102c4000494f00004e200000285c00002d2f00009e
:102c50005f5c0000290000004932000043200000b2
:102c6000535400004f500000204300004f4e00001e
:102c700044490000544900004f4e00002028000045
:102c80005f2f00002d5c0000290000000d0a0000ed
:102c9000002000004259000054450000533a000053
:102ca0000d0a000000200000002000002a6e000035
:102cb0006f770000206900006e70000075740000de
:102cc0002064000069720000656300007469000000
:102cd0006f6e00000d0a0000002000002a6e000048
:102ce0006f770000206900006e70000075740000ae
:102cf00020640000697200006563000074690000d0
:102d00006f6e0000000000000d0a000000200000af
:102d10004259000054450000533a00000d0a0000db
:102d20000020000000200000474f00005420000059
:102d3000414300004b3a0000204e00004f000000cd
:102d4000204700004f54000020410000434b00008a
:102d50003a200000594500005300000049320000ad
:102d60004320000053540000415200005420000052
:102d7000434f00004e44000049540000494f0000fa
:102d80004e0d00000a000000493200004320000000
:102d9000535400004f500000204300004f4e0000ed
:102da00044490000544900004f4e00000d0a000045
:102db000004900003243000020520000454100005d
:102dc000445900000d0a000000200000302e0000d1
:102dd0004d610000637200006f2000006d6500000f
:102de0006e7500000d0a0000203100002e37000033
:102df00062690000742000006164000064720000d9
:102e000065730000732000007365000061720000ac
:102e1000636800000d0a00000053000065610000b7
:102e200072630000686900006e67000020370000d0
:102e30006269000074200000493200004320000055
:102e40006164000064720000657300007373000029
:102e50002073000070610000636500002e200000f8
:102e60000d0a000020200000204600006f750000c1
:102e70006e64000020640000657600006963000055
:102e80006573000020610000743a0000000000003b
:102e90000d0a0000002000004259000054450000c7
:102ea000533a00000d0a000000200000002000003e
:102eb00052450000414400003a200000002000007c
:102ec0002c20000000200000544900004d45000067
:102ed000530000004f75000074700000757400000e
:102ee0002074000079700000653a00000d0a0000af
:102ef000203100002e2000004869000067680000b3
:102f00002d5a0000206f00007574000070750000dd
:102f10007473000020280000483d0000696e000026
:102f200070750000742c0000204c00003d4700002c
:102f30004e440000290d00000a200000322e00003f
:102f4000204e00006f7200006d6100006c200000d8
:102f50006f7500007470000075740000732000002d
:102f6000284800003d560000636300002c2000004c
:102f70004c3d0000474e0000442900000d0a0000af
:102f8000203e00000052000041570000335700006f
:102f90004952000045200000524500004144000015
:102fa0005900000043530000204500004e4100003e
:102fb000424c000045440000004300005320000044
:102fc0004449000053410000424c000045440000c9
:102fd0000000000050430000204b00004220000091
:102fe00044450000434f00004445000052200000cb
:102ff0005245000041440000590000000d0a000045
:10300000002000004259000054450000533a0000df
:103010000d0a00000020000000200000474f0000c3
:1030200054200000414300004b00000020450000f8
:10303000525200004f5200002c2000004e4f000062
:1030400020410000434b0000002000002a730000d4
:103050007461000072740000626900007420000056
:1030600065720000726f000072000000202a0000ec
:103070007061000072690000747900002065000032
:10308000727200006f720000002000002a730000be
:10309000746f000070620000697400002065000019
:1030a000727200006f720000002000004e4f00009e
:1030b0004e45000000200000554e00004b4e000021
:1030c0004f5700004e20000045520000524f0000b4
:1030d00052000000425500004646000045520000e4
:1030e0004f56000045520000525500004e2000008f
:1030f00045520000524f0000522c000020440000b6
:103100004154000041200000544f00004f200000b7
:10311000464100005354000021210000210d000011
:103120000a000000425500004646000045520000db
:1031300020450000525200004f5200002c20000099
:1031400049530000205800004f4e00002f58000047
:103150004f46000046200000464c00004f5700003c
:10316000204300004f4e0000545200004f4c00001e
:10317000204500004e410000424c00004544000044
:103180003f0d00000a0000000d0a000000300000a2
:103190003030000020530000594e00005441000020
:1031a0005820000045520000524f0000522c0000f1
:1031b0002054000052590000203f00000d0a00007a
:1031c0000030000039390000205400004552000052
:1031d0004d4900004e4100004c20000042550000c7
:1031e0004646000045520000204f000056450000b2
:1031f000524600004c4f0000572c000020540000a5
:1032000052590000205300004d4100004c4c00007a
:103210004552000020530000454700004d45000086
:083220004e54000053000000b1
:020000040000fa
:103228000200fa00000f78009e0078000040eb00d2
:10323800804878009e0078000040eb00904098009d
:103248001e0178006000b800100198002101980064
:103258009e0078000000eb00b00098009e00780007
:103268000040eb00b04898009e0078000040eb005a
:10327800804898009e00780010c0b30090489800dd
:103288009e00780010c0b300a04898001e01780086
:103298006000b80000099800110998009e007800a5
:1032a8000000eb00a00898001e0178006000b8003c
:1032b80060019800710198000000eb000080fa009e
:1032c800000006000200fa00000f78000080fa00f3
:1032d800000006000800fa00008fbe0072002000ff
:1032e800030020003e004100ae80490020079800fe
:1032f800310798002e009000be009000e00f5000ab
:10330800e08f580006003d002e019000be0190009d
:1033180067014100e08149002207980033079800bf
:103328002e019000be0190004d1add004310de0012
:1033380000007200c398de000080fa00000006005a
:103348000200fa00000f78009e00780010002000ac
:10335800f82007008000eb000000eb00f5200700d4
:10336800110020000000eb00f22007000080fa00a6
:10337800000006000c00fa0020079800614798003a
:103388000000eb00000f78006e4090000004e000a1
:1033980015003a0010002000e9ff07000000eb00cc
:1033a80010079800090037008000eb000000eb00d0
:1033b800e0200700110020000000eb00dd200700de
:1033c8001e0090000000e800100798001e00900002
:1033d800e40f5000f4ff3400ae0090000040eb0012
:1033e80080487800080137002e009000904078004f
:1033f8006e40900080cf5000110032006e40900067
:10340800e74f500004003a002e009000104078006a
:10341800e64f500007003a006e409000ee4f500013
:1034280007003a002e00900010407800ed4f500041
:103438000300320050002000000f7800f20037002f
:103448002e009000904078006e40900080cf500091
:10345800e8003a006e409000e64f500006003a003f
:1034680010002000b6ff0700ae00900070c0b30047
:1034780080487800df0037006e409000ed4f500024
:10348800dc003a0010002000adff0700ae009000fd
:10349800e0c0b30080487800d60037002e009000c6
:1034a800104078000080fb006101b90042079800d5
:1034b80053079800f0002000010020004e01900002
:1034c800de019000800f5100818f5900c4003e003a
:1034d8004e009000de009000006001000f003700f1
:1034e800140037001900370027003700350037006f
:1034f8003a003700480037004d0037005b003700be
:10350800690037006e0037007c0037008100370003
:103518008f00370094003700a20037000000eb004e
:1035280087ff0700ae00900010c0b3008048780005
:10353800b00037001000200081ff0700ae009000a7
:1035480020c0b30080487800aa0037006e40900081
:10355800e84f5000060036001000200078ff0700f2
:10356800ae00900090c0b30080487800a1003700fa
:103578000000eb0072ff0700ae00900030c0b300ff
:10358800804878009b0037006e409000e44f500060
:1035980006003a000000eb0069ff0700ae0090004b
:1035a80040c0b30080487800920037001000200027
:1035b80063ff0700ae00900050c0b3008048780059
:1035c8008c003700100020005dff0700ae0090005f
:1035d80050c0b30080487800860037006e409000e5
:1035e800e64f500006003a000000eb0054ff0700c9
:1035f800ae00900060c0b300804878007d003700be
:10360800100020004eff0700ae00900080c0b300fd
:1036180080487800770037001000200048ff070036
:10362800ae00900070c0b300804878007100370089
:103638006e409000e44f500006003a000000eb0096
:103648003fff0700ae00900040c0b30080487800fc
:10365800680037001000200039ff0700ae00900016
:1036680080c0b30080487800620037006e40900048
:10367800e14f500006003a000000eb0030ff070061
:10368800ae00900010c0b3008048780059003700a1
:10369800100020002aff0700ae00900020c0b300f1
:1036a80080487800530037000000eb0024ff070033
:1036b800ae009000a0c0b300804878004d003700ed
:1036c8006e409000eb4f500006003a000000eb00ff
:1036d8001bff0700ae009000b0c0b3008048780020
:1036e800440037001000200015ff0700ae009000ce
:1036f800c0c0b300804878003e00370010002000aa
:103708000fff0700ae009000c0c0b30080487800eb
:10371800380037006e409000ed4f500006003a0028
:103728000000eb0006ff0700ae009000d0c0b30019
:10373800804878002f0037001000200000ff0700a5
:10374800ae009000f0c0b300804878002900370030
:1037580010002000fafe0700ae009000e0c0b300a1
:1037680080487800230037006e409000eb4f5000ef
:1037780006003a000000eb00f1fe0700ae009000e2
:10378800b0c0b300804878001a003700100020004d
:10379800ebfe0700ae009000f0c0b3008048780050
:1037a800140037006e409000e14f500006003a00c8
:1037b8000000eb00e2fe0700ae00900010c0b3006e
:1037c800804878000b00370010002000dcfe07005e
:1037d800ae00900020c0b300804878000500370094
:1037e80050002000000f78002e009000ee4090005e
:1037f800014878002e009000904078006e409000bc
:1038080080cf500025ff3a001e0078000080fa00a3
:10381800000006001400fa0050079800610798009d
:1038280072079800030f9800140f98000000eb002f
:10383800300798000e0890000000e0000a003200ef
:103848007e009000900078000e0890000108780033
:103858000e0890008080e8007e009000100078003c
:1038680000804000300798007e0090008080e800cb
:103878007e0090001000780000804000400798000b
:103888004a0037004e0090000000e9004007980009
:103898004e00900090407800414798000040eb00af
:1038a800304798000000eb00000f78002e0037002a
:1038b8005e009000ee00900061005000e08058002b
:1038c80050079800610798001e0890000000e0006b
:1038d800080032005e009000ee009000e00f5000fb
:1038e800e08f580003003a0011002000100020006b
:1038f800901f07004e4090000080fb00e100600030
:10390800200020008b1f07004e4090000080fb0025
:103918000000d100404798008000eb000000eb0059
:10392800841f07003e0090000000e0000a003200fb
:10393800f91f0700204798002e4090008080fb0068
:103948001e0078000008dd00804078003e409000ae
:1039580000c0700030479800110020000000eb0004
:10396800741f07001e0fe8005e009000ee00900034
:10397800e00f5000e08f5800030032007000200074
:103988009e0f1000caff34003e0090000000e000c7
:10399800060032003e0090000000e9003007980061
:1039a8003e009000be409000014878005e00900004
:1039b800ee009000e00f5000e08f5800b1ff3a0091
:1039c8000080fa00000006001c00fa00400798007a
:1039d800214f98006207980073079800040f980019
:1039e800150f9800260f9800370f98000000eb007d
:1039f800300798000000eb00200798000040eb001b
:103a0800204798000000eb00500f9800ae48900047
:103a18000ef8970080cf50000200320014002000fa
:103a2800540f98005e089000000f78006e00900018
:103a3800fe009000e00f5000e08f58000c003a00a4
:103a48002eb89700beb89700e00f5000e08f5800de
:103a58006300320011c0b3004e00900045fe07001d
:103a68002eb89700beb89700b21f07005c00370059
:103a7800ae4890004e0090003efe07001e027800ff
:103a88009e0990000e0990006e009000fe009000c4
:103a980060ff07002e0890000000e0000b003200d5
:103aa8003e0990009e0890002e0890004d1b0700cc
:103ab800800078000000eb00200798000100e0007b
:103ac80002003a0010002000200798001e00e000c5
:103ad800320032004e009000104078008040e8002c
:103ae8004e009000014878002e0090000000e00091
:103af8001c0032002eb89700beb89700e00f5000a7
:103b0800e08f580017003200ae4090002ef097006a
:103b180080cf50001300310061c0b3004e00900008
:103b280014fe070041c0b3004e00900011fe0700cc
:103b38002eb89700beb89700c289de004e0add0095
:103b48004201de00020172002eb89700beb897004d
:103b5800000041008180490020bf9f0031bf9f00c5
:103b6800030037008ef897004e00900001fe070012
:103b78002eb89700beb89700e00f5000e08f5800ad
:103b88000600320011c0b3004e009000f9fd070096
:103b98002eb89700beb89700661f07002e00900049
:103ba8000000e0000e0032000040eb00005f9800cb
:103bb800ae4090002ef0970080cf500002003100f8
:103bc80014c0b300045f98002e4090000040e80045
:103bd800204798000e5890000004e000a4ff3a0027
:103be8002e0090000000e0000c0032002ef097003c
:103bf8000004e00007003200ae4090002ef097006d
:103c080080cf5000030036003000200030079800b5
:103c18000200370020002000300798003e00900086
:103c28000080fa00000006001000fa00000f78007b
:103c38001207980023079800310798004407980056
:103c4800550798006607980077079800be0090000f
:103c58004e009000821b07006e0090000000e000fc
:103c680003003200be0090006e0090007c1b07002d
:103c78008f87e8002ef09700e0ff9f002eb897008e
:103c8800beb89700809fbe008f87e8008ef8970027
:103c9800e1ff9f00fe0390006e039000de0290009b
:103ca8004e0290001e019000ae01900041c0b3008a
:103cb8001e00780044ff0700e88757000080fa00dc
:103cc800000006001200fa005007980061079800eb
:103cd80072079800030f98007e019000de009000a4
:103ce8005e009000271b07000040eb00304798005b
:103cf8000040eb00204798006e009000100f7800fd
:103d08000e089000100078000000e90040079800b5
:103d1800480037004e0090008e0890000080e800b0
:103d28000100400090407800414798004e409000c4
:103d38000004e0003c0032004e009000de009000dd
:103d48000080e8000100400090407800614798003a
:103d580010c0b300504798002a0037004e4090002a
:103d68000080fb00610060000004e0001e003200db
:103d78002e4090000004e00009003a001e0fe90000
:103d88001e007800ee0090000080e800010040006e
:103d9800904078003147980010c0b3002047980041
:103da8003e409000ae409000014060000004e000fa
:103db800050032006e409000de4090000140700027
:103dc80060479800050037005e40900080c0ea0018
:103dd8006e40900000c06000604798002e40900040
:103de80000404000204798005e409000004040009e
:103df800504798004e4090000080fb000000d10022
:103e0800404798004e4090000004e000d3ff3a007d
:103e1800ce0090005e009000010040000080e800a5
:103e2800ee409000014878004e0090000000e90044
:103e3800400798004e0090000000e000b5ff3d00ec
:103e48000080fa00000006000200fa00000f780067
:103e58009e00780040002000b00098001e00780006
:103e6800300090000080fa00000006000200fa000e
:103e7800000f78009e00780010c0b30080487800da
:103e88000000eb000080fa00000006000200fa00c3
:103e9800000f78001e007800a0089000820b200018
:103ea8001e004100ee1a07000000eb000080fa0037
:103eb800000006000800fa00889fbe008a1f7800ec
:103ec8003007980064004700491e07004e409000e4
:103ed8000080fb0001002000fefc0700100798008e
:103ee8009e00900020032000808f500003003400c3
:103ef80060002000000f7800230037004e4090003b
:103f08000080fb0001002000f2fc07008000780020
:103f18003e00900076004000d11a07003e00900055
:103f280060019000f00190003e00900090489000e1
:103f38003e009000760240004e4090000084fb0056
:103f4800090020003e009000680540008f87e800c7
:103f58000040eb00e0ff9f00829fbe008f87e800d3
:103f6800e1ff9f008003eb000003eb008002eb0001
:103f78000801be00b1c0b3000a00780092fe070035
:103f8800e8875700000f78001e00e00003003200a9
:103f98003e0090009e007800310098001e007800d6
:103fa8004f0578004f04be000080fa0000000600ac
:103fb8000a00fa00881f7800400798004e00900019
:103fc8007600400021002000a51a07004e0090004e
:103fd80076004000d01907002007980031079800a4
:103fe8002e009000be009000bafc07001007980051
:103ff8009e00900020032000808f500003003400b2
:1040080060002000000f7800200037002e0090008c
:10401800be009000affc0700800078004e009000c2
:10402800760040008e1a07004e0090006001900054
:10403800f00190004e009000904890004e009000d3
:10404800760240004e009000680440008f87e80028
:104058000040eb00e0ff9f00829fbe008f87e800d2
:10406800e1ff9f008003eb000003eb008002eb0000
:104078002e019000be019000b1c0b3000800780086
:1040880051fe0700e8875700000f78001e00e00087
:10409800030032004e0090009e0078003100980026
:1040a8001e0078004f0478000080fa000000060027
:1040b8000400fa00889fbe008a9fbe00100798007f
:1040c8001e009000a00890001e009000760040009e
:1040d800631a07001e009000b04890001e00900070
:1040e80060019000f00190001e009000204a9000ae
:1040f8001e009000870b2000808343001e00900064
:10410800c5042000808242001e0090002a0820007a
:10411800000545001e009000f60540001e009000b6
:10412800000c9000900c90001e0090006800400069
:104138008f87e800e1ff9f00829fbe008f87e8001d
:10414800e4ff9f00050378008a0278000b027800dc
:104158000801be0041c0b3001bfe0700e8875700f6
:10416800000f78001e00e000030032001e009000df
:104178009e007800310098001e0078004f05be00b0
:104188004f04be000080fa00000006000200fa009a
:10419800000f78009e0078007680400041002000e3
:1041a8002f1a07009e007800768040005a190700f1
:1041b8001e01780060019800710198000000eb0072
:1041c8000080fa00000006000200fa00000f7800e4
:1041d8009e0078006b804000851d07000000eb0002
:1041e8000080fa00000006000400fa00100798009a
:1041f8000000eb00000f78001e00900076004000e1
:1042080041002000161a07001e00900076004000aa
:10421800411907001e019000000998001109980033
:104228001e009000900890000008900029fc0700ec
:10423800800078001e009000210898001e00900061
:10424800a008900020032000808f50000500340053
:1042580060002000000f78001e0090009e0078008b
:10426800310098001e0078000080fa000000060067
:104278000400fa00889fbe008a9fbe008c1f780049
:10428800100798001e009000b04890001e00900093
:1042980060019000f00190001e009000204a9000fc
:1042a8001e009000870b2000808343001e009000b2
:1042b800c5042000808242001e0090002a082000c9
:1042c800000545001e009000f60540001e00900005
:1042d800200e90001e009000000c9000900c9000a2
:1042e8001e009000680040008f87e800e1ff9f00f3
:1042f800829fbe008f87e800e4ff9f0005037800d7
:104308008a0278000b0278008c0078000801be0051
:1043180045fe0700e8875700000f78001e00e00000
:10432800030032001e0090009e00780031009800c3
:104338001e0078004f0678004f05be004f04be00ef
:104348000080fa00000006000200fa00000f780062
:104358001e007800a0089000e20e20001e00410018
:10436800bf1907001e007800a00890004212200024
:104378001e004100ba1907000000eb000080fa0097
:10438800000006000a00fa00889fbe008a9fbe004f
:10439800400798004e009000a00890004e00900042
:1043a80076004000ae1907004e009000b04890001b
:1043b8004e00900060019000f00190004e009000c7
:1043c800204a90004e009000870b20008083430015
:1043d8004e009000c5042000808242004e009000ec
:1043e8002a082000000545004e009000f605400010
:1043f8004e009000000c9000900c90004e00900031
:10440800680040008f87e800e1ff9f00829fbe00a0
:104418008f87e800e4ff9f00050378008a02780090
:104428000b0278000801be0041c0b30066fd07001a
:10443800e8875700200798002e0090000000e00051
:1044480064003a000000eb00100798000040eb0001
:10445800004f7800150037001e80fb00ce0090004a
:104468006012b000010040009040780011479800a9
:104478000a0037001e4090000080fb00e100600049
:104488001e00900001004000100798001e40900098
:104498000080fb000000d100104798001e409000eb
:1044a8000004e000f3ff3a001e4fe8001e80fb0006
:1044b800ce009000a1109100810f5000e6ff35005a
:1044c80066004700ca1c07000040eb00004f780058
:1044d8003a0037001e009000cf80de007dfb070009
:1044e800800078004e009000a015b0005c1907000d
:1044f8004e00900042122000000141004e00900042
:10450800e40e2000000242004e009000a115200099
:10451800808040004e0090007600400082017800c4
:1045280004017800e7fd07004e009000b0489000b5
:104538004e00900060019000f00190004e00900045
:10454800204a90004e009000870b20008083430093
:104558004e009000c5042000808242004e0090006a
:104568002a082000000545004e009000f60540008e
:104578004e009000000c9000900c90004e009000af
:10458800680040008f87e800e1ff9f00829fbe001f
:104598008f87e800e4ff9f00050378008a0278000f
:1045a8000b0278000801be0041c0b30006fd0700f9
:1045b800e8875700200798001e4fe8002e0090005b
:1045c8000000e00003003a006e4090009e4f10008b
:1045d800c0ff39002e0090000000e0000300320008
:1045e8004e009000ae009000310098002e00900020
:1045f8004f05be004f04be000080fa000000060010
:104608000800fa00889fbe00200798002e0090003e
:1046180010409000ee4f500004003a002e00900029
:1046280020489000604798000200370040c0b3005f
:1046380060479800ee409000214798002e009000b7
:10464800760240002e009000200c90002e00900072
:1046580000099000900990002e009000e8044000a6
:104668008f87e8000040eb00e0ff9f006000b80083
:10467800809fbe008f87e8002e409000e0ff9f00db
:104688008003eb000003eb008002eb008800780059
:104698000900780064fd0700e8875700000f7800dc
:1046a8001e00e000030032002e0090009e007800fb
:1046b800310098001e0078004f04be000080fa0008
:1046c800000006000800fa00889fbe008a1f7800d4
:1046d800200798002e00900010409000f14f5000e5
:1046e80004003a002e00900020489000604798008f
:1046f8000200370040c0b30060479800ee409000c9
:10470800214798002e009000c404200000024200b7
:104718002e00900025082000808242002e00900084
:10472800760440002e009000a00c90002e0090000f
:1047380000099000900990002e0090006805400044
:104748008f87e8000040eb00e0ff9f006000b800a2
:10475800809fbe008f87e8002e409000e0ff9f00fa
:104768008003eb00040378000802780089007800d1
:104778000a0078002cfd0700e8875700000f780032
:104788001e00e000030032002e0090009e0078001a
:10479800310098001e0078004f0578004f04be00d5
:1047a8000080fa00000006000600fa0020079800c2
:1047b8000e80e8000e1c0700ae4090002e0090000e
:1047c80068004000ebfa0700000f78001e00e000c8
:1047d800030032002e0090009e00780031009800ff
:1047e8001e0078000080fa00000006000600fa00ab
:1047f800200798000000eb00000f78000e80e8000a
:10480800fb1b07002e4090000004e0000600320069
:104818002e409000e14f500003003200500020006d
:10482800000f7800190037002e009000104090000b
:10483800f34f50000b003a002e4090000004e000b7
:1048480004003a00ae00900010c0b30090489800f1
:104858000e003700ae009000d0c0b300904898001a
:104868000a0037002e4090000004e00004003a00df
:10487800ae00900010c0b300a048980003003700b5
:10488800ae00900060c0b300a04898001e00e00091
:10489800030032002e0090009e007800310098003e
:1048a8001e0078000080fa00000006000400fa00ec
:1048b800100798000e007800cd1b07001e407800f6
:1048c8000004e000fbff3a009e0090000000eb00af
:1048d800b00098001e009000300090000080fa00a0
:1048e800000006000800fa00300798003e0090001b
:1048f8007600400011002000591807003e00900083
:1049080080589000514798003e0090007600400083
:1049180011002000521807003e00900080589000b7
:10492800414798003e00900076004000410020007a
:104938004b1807003e0090007600400076170700ed
:10494800008fbe003e009000804890005e409000be
:1049580080cf5000040032003e0090006800400004
:10496800de40900083fa07001e00be00f11b07001e
:104978003e009000804890004e40900080cf50004c
:10498800040032003e00900068004000ce409000d5
:1049980078fa07000000eb000080fa00000006002b
:1049a8000200fa00000f78001e0078001cfa0700c9
:1049b800800078001e007800310098001e00780002
:1049c800300090000000e00007003a009e007800e8
:1049d800688040008040eb0066fa0700800078009d
:1049e8001e007800310098001e007800300090000a
:1049f8000080fa00000006000200fa00000f7800ac
:104a08001e007800300090000000e0001e003a0010
:104a18001e007800104078000004e0001a003a00f8
:104a28001e00e800721b07001e007800a00090001e
:104a38001000900061004000e08048001e017800ee
:104a480010019800210198001e0078001040900085
:104a5800f74f50000a003e001e00780010409000fa
:104a68000080fb0080004000209c21000080400066
:104a7800900078001e007800010001000200370055
:104a88001e007800f0fc07001e007800300090003f
:104a98000080fa00000006000200fa00000f78000b
:104aa8001e00780007fa07000080fa0000000600e0
:104ab8009001fa000e007800b9ff0700101b0700ec
:104ac800020037000e007800cbff07003e00900080
:104ad8000000e00003003a001e4078000004e000f7
:104ae800f8ff32000e007800ebff07003e00900050
:084af8000080fa000000060036
:020000040000fa
:104b00000600fa00004f78001147980022479800ed
:104b10004ddabf000080fb00200798002e009000b7
:104b2000e40f5000260032002e009000e40f5000e9
:104b30000a003c002e009000e20f500018003200e6
:104b40002e009000e20f500019003c002e00900053
:104b5000e10f50000e0032002d0037002e009000b3
:104b6000e60f50001e0032002e009000e60f5000ad
:104b7000170035002e009000e70f50001c00320097
:104b80002e009000e80f50001e0032002000370079
:104b90009e4090001e407800700b07001c003700fc
:104ba0009e4090001e407800c41407001800370093
:104bb0009e4090001e407800291a0700140037001c
:104bc0009e4090001e4078009c13070010003700a4
:104bd0009e4090001e407800f20707000c0037004e
:104be0009e4090001e407800900e0700080037009d
:104bf0002e4190009e4090001e4078005a10070001
:104c0000030037009e4090001e40780017120700f6
:104c10000080fa00000006000800fa00004f78004b
:104c20001e80fb006101b90010fc2f00f1ff2f0076
:104c30000201400083814800220798003307980052
:104c400010032000010020002e019000be01900002
:104c5000800f5100818f5900ea003e002e00900025
:104c6000be00900000600100a2003700e5003700a0
:104c7000e4003700cc003700b3003700e100370014
:104c8000e0003700ae003700de003700dd003700ff
:104c9000dc003700db003700da0037007600370031
:104ca00023003700d70037004c003700530037008f
:104cb000d4003700d3003700d2003700d1003700ce
:104cc000d0003700cf003700ce003700cd003700ce
:104cd000cc003700cb003700ca003700c9003700ce
:104ce000c8003700c7003700c6003700c5003700ce
:104cf000c4003700ac00370093003700c100370014
:104d0000c00037008e003700be003700bd003700fe
:104d1000bc003700bb003700ba0037005600370030
:104d200003003700b70037002c003700330037008e
:104d30000041eb008040eb00a0ccb30070ff070007
:104d4000b90307000040eb001efab7000f00370060
:104d50001edabf000040e800d9060700705728009f
:104d6000c30407001edabf000080fb008000400083
:104d7000c09721000080400010007800d204070096
:104d80001edabf000040e8001efab7001edabf00be
:104d9000e84f5000eeff3600a0572800b40407008b
:104da00090c0b300350707000040e9004dfab70096
:104db00000582800c40407000041eb008040eb00cd
:104dc00080ccb3004eff07000041eb008040eb00b9
:104dd00090ccb3004aff07008d00370090582800a0
:104de000a304070040c0b300240707004efab70031
:104df000b05b2800b4040700850037004fdabf001d
:104e0000704060000004e00003003a00c0c0b3003e
:104e10008d0407007e003700b05c28009404070072
:104e200020c0b300150707000040e90061406000a2
:104e3000614060004501dd00f1a42100914078004f
:104e4000f0cdb30000c06000024070004ffab70020
:104e50004fdabf000042b2000004e00003003a0055
:104e600030c0b300d50307006900370030c0b3007d
:104e7000c8030700660037004fdabf0064406000d7
:104e80000004e00003003a00c0c0b3006e04070055
:104e90005f003700106028007504070020c0b300d1
:104ea000f60607000040e9006140600061406000d4
:104eb0004301dd00f1a421009140780070cfb300e0
:104ec00000c06000024070004ffab7004fdabf0028
:104ed000684060000004e00003003a0060622800bf
:104ee000790407004a003700206428007604070090
:104ef000470037000040eb001efab7000c003700f7
:104f00001edabf000080fb0080004000e098210016
:104f1000008040001000780055040700f06528006c
:104f2000530407001edabf000040e8001efab70075
:104f30001edabf00f94f5000f1ff36003400370091
:104f4000a603070032003700206628004804070047
:104f500020c0b300c90607000040e90061406000be
:104f60006140600000414000f1a4210091407800c0
:104f7000d0cfb30000c06000024070004ffab7000d
:104f80004fdabf00624060000004e00003003a0016
:104f9000106928004c0407001d003700006b280032
:104fa000490407001a003700906c280030040700fd
:104fb00090c0b300b10607000040e9004cfab7000a
:104fc000d07428002a040700c70607000000370035
:104fd00085c0bf00684060000004e000fcff3200b4
:104fe000301180001efab7008560a900e1a1210000
:104ff0009140780000c2b30080cf5000040032001e
:10500000f3ff37008000eb00110798000200370023
:1050100012002000120798001e0090000080fa0085
:10502000000006000600fa00000f78001107980043
:105030004ddabf000004e00003003a0000782800c9
:105040000b040700360137000000eb0080d1880018
:105050002b01370080d18000800078001e00900076
:105060000080400010407800850107001ffab7005b
:105070001fdabf000080fb002007980020032000fb
:10508000ae009000808f50002600320020032000e8
:10509000ae009000808f500011003c002e00900068
:1050a000e20f500093003200ae009000e28f5000fb
:1050b00004003c002e0090000000e0002a003200b6
:1050c00005013700ae009000e68f50001b00320053
:1050d0002e009000f70f500044003200fe00370011
:1050e00040032000ae009000808f5000110032007d
:1050f00040032000ae009000808f50000b00350070
:1051000050032000ae009000808f50002900320034
:1051100030062000ae009000808f5000f200320078
:10512000ed003700e1020700ef003700ed02070055
:10513000ed003700f9020700eb0037001e01900078
:1051400001a321001e007800f700070060d188004d
:1051500060d18000804078000041eb0060c0b30067
:1051600067fe0700e00037001e01900001a3210048
:105170001e007800ec00070060d1880060d180003c
:10518000e10f500005003a000041eb008040eb00c9
:105190000040eb005afe0700d300370060d18000ca
:1051a000804078000041eb0010c0b30054fe0700bf
:1051b000cd0037001e01900001a321001e007800e1
:1051c000d900070060d18800a0792800a803070053
:1051d00060d18000fb050700107a2800a4030700b7
:1051e00060d1800078030700bf0037000000eb00ab
:1051f00060d1880080d180000000e80080d1880064
:1052000080d180009e0f500004003a0080d18000c1
:105210000000e90080d188003000370080d1800094
:10522000800078001e0090000080400090407800d0
:10523000f0c2b30080cf50001a00360080d1800049
:10524000800078001e0090000080400090407800b0
:10525000f0c3b30080cf500012003e0060d1800048
:105260006a00b90060d1880080d180008000780099
:105270001e00900000804000104078008080fb00fd
:1052800060d180008080400000fd2f000080400041
:1052900060d1880080d180000000e80080d18800c3
:1052a000d7ff370080d18000800078001e0090007a
:1052b000008040009040780090c2b30080cf500042
:1052c0000600320080d180000000e90080d1880013
:1052d00070d180000000e80070d1880060d18000ab
:1052e000804078000041eb0070c1b30004fe07006d
:1052f0007d0037000000eb0060d188000040eb002b
:1053000021fab70080d180009e0f500004003a00bf
:1053100080d180000000e90080d188005300370070
:1053200080d18000800078001e0090000080400046
:1053300090407800f0c2b30080cf500008003600e3
:1053400080d18000800078001e0090000080400026
:105350009040780090c3b30080cf500030003600fa
:1053600080d18000800078001e0090000080400006
:105370009040780000c4b30080cf50000800360091
:1053800080d18000800078001e00900000804000e6
:105390009040780060c4b30080cf500020003600f9
:1053a00080d18000800078001e00900000804000c6
:1053b0009040780000c6b30080cf5000080036004f
:1053c00080d18000800078001e00900000804000a6
:1053d0009040780060c6b30080cf500010003600c7
:1053e00080d18000800078001e0090000080400086
:1053f0009040780080c7b30080cf50000800320092
:1054000080d18000800078001e0090000080400065
:105410009040780080c6b30080cf500010003a0062
:1054200062d1800080d18000800078001e00900052
:10543000008040009040780000a221000000410060
:105440000148780060d180000000e80060d1880049
:1054500080d180000000e80080d18800a9ff3700db
:1054600080d180000000e90080d1880060d18000f8
:1054700001a22100570107001ffab7001e0190008a
:1054800001a321001e0078002700070060d18800da
:1054900060d18000e10f500006003a00f1a1210028
:1054a000914078000041eb0020c0b30094fd07005c
:1054b0000600370060d1800000417800f1a1210092
:1054c0009140780030c0b3008dfd07000000eb0074
:1054d00060d18800040037001fdabf000041eb00f4
:1054e0008040eb0086fd070070d180000000e000e6
:1054f00006003a0080d180000000e80080d18800da
:1055000080d180009e0f5000d2fe390070d1800003
:105510000000e00002003200607a2800d402070098
:105520000080fa00000006000a00fa001007980048
:1055300021079800320798000000eb00000f780068
:105540002e009000100078008000e8001e009000ff
:10555000808f5000450031002e0090001000780030
:10556000800078003e009000008040000000e800cd
:1055700090407800a0c3b30080cf50003b003a00b9
:105580002e009000100078008080e8002e0090002f
:10559000010878002e009000900078001e00900016
:1055a000808f5000040039002e0090000080e90038
:1055b000200798002a0037002e0090001000780085
:1055c000800078003e00900000804000904078000d
:1055d000f0c2b30080cf50001c0036002e009000b7
:1055e00010007800800078003e00900000804000ad
:1055f00090407800f0c3b30080cf500013003e000d
:105600001e0078006a00b900000f78002e0090009c
:1056100010007800800078003e009000008040007c
:10562000104078000080fb009e00400000fd2f002d
:10563000008f40002e009000100078008000e800ed
:105640002e00900001087800d2ff37002e00900055
:10565000100078008000e9002e009000010878001a
:105660001e0078004007980002003700100020005c
:10567000400798004e0090000080fa0000000600ed
:105680000800fa00004f7800f0c2b3009e4f1000ef
:1056900006003600f0c3b3009e4f100003003e002a
:1056a0002000200010079800c70037001e80fb0074
:1056b0006101b90060ff2f00f1ff2f0002014000df
:1056c00083814800220798003307980030072000a4
:1056d000010020002e019000be019000800f5100bb
:1056e000818f5900b6003e002e009000be00900051
:1056f00000600100ac003700b1003700b000370097
:10570000ac003700ae003700ad003700ac0037000a
:10571000ab003700aa003700a9003700a800370007
:10572000a7003700a6003700a5003700a400370007
:10573000a3003700a2003700a1003700a000370007
:105740009f0037009e0037009d0037009000370013
:105750007a0037009a003700990037009800370028
:105760009700370060003700950037006100370070
:105770006300370092003700910037008700370040
:105780008000370070003700720037008c0037004f
:105790008b0037008a003700890037008800370007
:1057a0008700370086003700850037008400370007
:1057b0008300370082003700810037008000370007
:1057c0007f0037007e0037007d0037004300370040
:1057d0003c0037007a003700790037007800370046
:1057e0007700370076003700750037007400370007
:1057f0007300370072003700710037007000370007
:105800006f0037006e0037006d0037006c00370006
:105810006b0037004600370069003700680037002a
:105820006700370066003700650037006400370006
:105830006300370062003700370037004800370048
:1058400038003700490037004b0037005c00370054
:105850001f0037005a003700590037005800370042
:105860005700370056003700550037005400370006
:105870005300370052003700510037005000370006
:105880004f0037004e0037004d0037004c00370006
:105890004b0037002600370049003700480037002a
:1058a0004700370046003700450037004400370006
:1058b0004300370042003700140037004000370033
:1058c0001800370021032000110798003e00370020
:1058d00032032000120798003b00370043032000ea
:1058e0001307980038003700500320001007980075
:1058f0003500370071012000110798003200370091
:1059000032062000120798002f00370053012000b4
:10591000130798002c003700400120001007980062
:105920002900370061012000110798002600370088
:105930000001eb001207980023003700430020000d
:10594000130798002000370050002000100798002f
:105950001d00370071002000110798001a00370061
:105960008200200012079800170037006300200013
:105970001307980014003700a000200010079800bb
:105980001100370091002000110798000e00370029
:1059900032062000120798000b0037003306200063
:1059a0001307980008003700300620001007980001
:1059b000050037003106200011079800020037006b
:1059c000f20f2000120798001e0090000080fa00dd
:1059d000000006000800fa00204798002107980000
:1059e0000040eb00104798002e0090000000e800f7
:1059f000104078000080fb003007980080062000ef
:105a0000be009000808f5000090032008007200007
:105a1000be009000808f500005003200200620005c
:105a2000be009000808f50004000320055003700cb
:105a300020c0b300004f7800380037001e409000af
:105a40000080fb004400dd00104798001e80fb0032
:105a5000800078002e009000008040009040780088
:105a6000f0c3b30080cf50000c003e001e80fb004e
:105a7000800078002e009000008040009040780068
:105a80001e40900000c040008040780000cdb30070
:105a900000c04000104798001f0037001e80fb0028
:105aa000800078002e009000008040009040780038
:105ab00060c4b30080cf50000c003e001e80fb008d
:105ac000800078002e009000008040009040780018
:105ad0001e40900000c040008040780090ccb30091
:105ae00000c04000104798000b0037001e80fb00ec
:105af000800078002e0090000080400090407800e8
:105b00001e40900000c040008040780090cab30062
:105b100000c04000104798001e4fe8002e40900043
:105b20009e4f1000c5ff39002c00370020c0b30085
:105b3000004f78000f0037001e40900000404000ea
:105b4000104798001e80fb00800078002e00900017
:105b5000008040009040780010c3b30080cf500018
:105b600003003a001e4090000004a0001047980077
:105b70001e4fe8002e4090009e4f1000eeff3900af
:105b8000160037000040eb00004f7800100037008f
:105b90001e4090000080fb006a00b900104798008a
:105ba0001e80fb00800078002e00900000804000e6
:105bb000904078001e40900000c040008040780077
:105bc00000cdb30000c04000104798001e4fe80011
:105bd0002e4090009e4f1000edff39001e409000b7
:105be0000080fb000080fa00000006000000fa00c0
:105bf00080c0b3004cfab7000040eb004dfab7008c
:105c000010c0b3004efab7004f1aa9004f3aa900ce
:105c10004f7aa9004f5aa9004fbaa9004f9aa9007c
:105c20000080fa00000006000000fa004116800023
:105c300000fe200000807000401688005116800091
:105c4000f0012f0000806000501688000040eb003b
:105c50004dfab7004f1aa9004f3aa9004f5aa900b0
:105c60004f7aa9004fbaa9004f9aa9000080fa0004
:105c7000000006000000fa004ddabf000080fb00c3
:105c800080004000c0972100008040001000780094
:105c9000f70007000080fa00000006000000fa008c
:0c5ca000121107000080fa00000006004e
:020000040000fa
:105cac000000fa004fdabf00624060000004e00020
:105cbc0003003a00c8a2a900caa2a800020037003b
:105ccc00c8c2a900cac2a80020f62800fb00070021
:105cdc000080fa00000006000000fa004fdabf0056
:105cec00624060000004e00003003a00c8a2a90072
:105cfc00caa2a90002003700c8c2a900cac2a900e2
:105d0c00b0f62800ed0007000080fa000000060045
:105d1c000200fa004fdabf00624060000004e000ad
:105d2c0009003a00c8a2a800000000000000000012
:105d3c00cac2bf000080fb004500de00614060006d
:105d4c00004f780008003700c8c2a800000000000f
:105d5c0000000000cac2bf000080fb004600de004d
:105d6c0061406000004f780030f72800bd0007004c
:105d7c001e4078003303070080f82800b9000700a4
:105d8c000080fa00000006000200fa00004f7800c4
:105d9c00cb62a800cb42a800c962a900c942a900e5
:105dac00b0f82800c50007000080fa0000000600cb
:105dbc000200fa00004f7800c962a800c942a8008e
:105dcc00f0f92800bd0007000080fa000000060072
:105ddc000000fa00c8a2a8001fe1a90011e1a90067
:105dec00616820009140780000ceb30000c06000d4
:105dfc005040b30086e6b7001061a80010a1a800bf
:105e0c001081a8001021a8000080eb007008880009
:105e1c000080eb00600888000000eb004008880060
:105e2c000000eb00300888000000eb00b008880090
