:020000040000fa
:080000000002040000000000f2
:020000040000fa
:10040000cfa82100007f220000018800000000002a
:100410000a00070011000700000020000000e000b3
:1004200002003200000002000000000088610200ab
:10043000000000000040da000000fe004440a90077
:10044000c06a21000000e00003003200000020002c
:10045000a00188004440a8000000060080bc2500e0
:10046000010020001500370062004000e0804800d5
:10047000910188009001ba0062004000e0804800cd
:10048000910188009002ba0062004000e0804800bc
:100490000002eb006028e10004003a000059eb0084
:1004a0008301e900fdff3e00040037006128e10000
:1004b000010032000082eb00050007009101880076
:1004c0001001ba000200e000e7ff3a00000005005a
:1004d000910188008002780062004000e0804800be
:1004e0003559ba008301e900080032002559ba00e5
:1004f0008301e900050032000400e000f4ff32004f
:1005000015d9ba008301e900f1ff3a0000000600a6
:10051000a822040000000000b8220400000000002f
:10052000cc22040000000000ca23040000000000e8
:10053000382404000000000096220400000000009f
:10054000562404000000000066240400000000009f
:10055000aa2404000000000016250400000000008a
:100560003425040000000000722604000000000092
:10057000d42604000000000046270400000000000c
:1005800068270400000000004a2304000000000067
:10059000c827040000000000e42704000000000059
:1005a0006022b800060220000000d0008180d20046
:1005b0000482d2008582d2000000a0000202520014
:1005c00083825a00030031000202420083824a0003
:1005d0000000a1000603e900f3ff3a000000060056
:1005e000889fbe008a9fbe00010578000100e000e0
:1005f0000400350008003c000000e000200032004c
:100600000500370060001000e080180002003b0089
:1006100001f02c001a0037000004be006011b80081
:100620006b0920000982cf00020039000882cf0048
:100630000441b000694252000e00320008003b0045
:1006400082817100610164008904d1000884d300b3
:100650008b05e8000442e800f9ff3a000500370086
:100660000804440089844c008b05e9000442e90039
:10067000fbff3a00fa0007000af0a70001f0a00013
:100680004f05be004f04be0000000600889fbe005c
:100690008a9fbe008c1f7800170107001e013300df
:1006a00003866c006450e1002e0032006420e100fb
:1006b000330032006150e1002f0032006120e10080
:1006c0003100320085855500eb07b000090020009d
:1006d00008042000050037000804440089844c0009
:1006e0000a0031000603430087834b0000015300da
:1006f00081815b00f8ff33000203be000800a00008
:100700000804440089844c00f6ff3900c639dd0036
:100710008301730001003200130020008904d1001e
:100720000884d3000998a300050032000800a70040
:100730000300a0008904d1000884d3008b05e800e1
:100740008904d1000884d3000001eb000281d200ab
:10075000c300070001f0a1000cf0a70001f0a00009
:10076000f60037006420e100f80032000801be0006
:100770000200be00f7ff37006120e100f300320005
:100780006000b800f3ff37000000200001f82700e8
:10079000f0ff37000001be00ef0007000470a70063
:1007a00003f0a1006509b100160032000d0035000c
:1007b0006828e10006003500f0ff2f00f1ff270058
:1007c0000300e00013003b000100280000000500ca
:1007d00000004000818048008502e900fcff3a00eb
:1007e00008003700f88f420002003c008000eb0058
:1007f000000005008100d1000080d3008502e800e0
:10080000fcff3a000300e00002003b006000100023
:10081000e08018000000060003f0a200889fbe00e0
:100820008a9fbe008c1f7800b3000700ba00330017
:100830006450e1004f0032006420e10052003200b9
:1008400003826c0007003b000905d0000306d000be
:10085000820f54000c065d000200390002003200d5
:1008600089017800030678008582550004003d0068
:100870000003fd008103fd008502ea008b85420034
:10088000840f720002003b0060001000e08018003e
:100890006011b8000005eb007a28e1000a00390079
:1008a00006007800c75ddd00f707b200878075009d
:1008b0002d003700828171000a0178006105600017
:1008c0008180d1000080d3008502e900f9ff3b0060
:1008d000060440008784480002003b0060041400c6
:1008e000e0841c000988a300070032008a8171009f
:1008f00082817100610164008904d1000884d30001
:100900008b05e800170037000978a30013003a00b0
:100910000b00e000130034008b05e90008044400dc
:1009200089844c000a4474000978a3000d003a0041
:100930000b00e000070034008b05e90008044400c8
:1009400089844c0001003a000b0020000978a300c4
:10095000f7ff32000001eb000200370082817100d6
:100960000a0178003e0007000cf0a70001f0a0008b
:10097000720037006420e10002003a00838f6c00af
:10098000720033000801be000200be006b00370099
:10099000889fbe008a9fbe008c1f7800560007000b
:1009a0005d00330003866c006450e10024003200d7
:1009b0006420e100270032006150e1002200320093
:1009c0006120e100210032008b854200eb07b1007d
:1009d0000134b800003ab8000804420089844a0093
:1009e000013ab8000030b8008880400009014a0090
:1009f00004003300000040008180480002014900eb
:100a00008b05e900c909dd00830170000100320097
:100a100013002000c814de004814dd004709de0082
:100a20001200b200c808de00088470000c00070045
:100a300001f0a1000cf0a70001f0a0003f0037007a
:100a40006120e100410032000801be000200be004a
:100a5000f7ff37006150e100fcff3a003b00370030
:100a600081002000618055000b003d000b0020003c
:100a700061fe2f000100e1001d0034008281710041
:100a8000610164008904d1000884d3000000e800fb
:100a9000faff3a007100200061006400030070005a
:100aa000020060000900320061044400e0844c0050
:100ab0000988a500050032008b05e8006808e10000
:100ac00002003a008904d1000884d300f20f20000c
:100ad0000258e10005003d00c75ddd00f907b200e6
:100ae0008980750008007800000006000bf82700d8
:100af0008b007800000005000004be00160007000f
:100b00000003be000405be000200be001200070084
:100b1000844f7500000006000200be006450e10032
:100b2000050036006420e100020036000968a300d9
:100b300001003a000800be000160a0004f067800e6
:100b40004f05be004f04be0000000600f0ff2f005e
:100b5000f1ff2700f9ff3700c70ade00f107b200f6
:100b6000f50fb20008003200e1cf4200020032006f
:100b70000170a00024000500810f70000100320008
:100b80000408050044000500810f700002003a00cf
:100b9000140005008502e9000000400081c0480003
:0c0ba000fcff3b000170a00024000500d9
:020000040000fa
:020000040001f9
:0457f800dff90000d5
:020000040000fa
:020000040001f9
:0457fc007f3f0000eb
:020000040000fa
:100008005e6200005e6200005e6200005e620000e8
:100018005e6200005e6200005e6200005e620000d8
:100028005e6200005e6200005e6200005e620000c8
:100038005e6200005e6200005e6200005e620000b8
:020000040000fa
:020000040000fa
:100bac00486900005a000000312d00005749000030
:100bbc005245000000550000415200005400000056
:100bcc00493200004300000053500000490000006f
:100bdc004a540000414700000052000041570000f9
:100bec0032570000495200004500000052410000fd
:100bfc0057330000574900005245000000500000d8
:100c0c00432000004b450000594200004f410000ba
:100c1c0052440000004d0000454e000055530000aa
:100c2c00003f000020480000656c000070000000d0
:100c3c004220000054650000726d0000696e0000d7
:100c4c00616c00002073000070650000656400009a
:100c5c00004f00002044000061740000612000007f
:100c6c0064690000737000006c6100007920000062
:100c7c00666f0000726d0000617400000046000099
:100c8c00206600007265000071750000656e000042
:100c9c0063790000206300006f7500006e74000023
:100cac00206f00006e20000041550000580000002d
:100cbc0043200000415500005820000070690000de
:100ccc006e2000006173000073690000676e000005
:100cdc006d6500006e740000004d000020420000a5
:100cec0075730000206d00006f640000650000004b
:100cfc004c20000042690000742000006f7200005c
:100d0c006465000072000000502000004465000083
:100d1c00707200006963000061740000656400007b
:100d2c002c2000007573000065200000572f000078
:100d3c007700000056200000537500007070000012
:100d4c0079200000766f00006c7400006167000071
:100d5c006520000063680000656300006b00000004
:100d6c00535900004e54000041580000004100004f
:100d7c002f6100002f40000020410000757800001a
:100d8c00206f000075740000707500007420000066
:100d9c00746f0000676700006c650000204800005d
:100dac002f4c00002f480000692d00005a2800002d
:100dbc00726500006164000029000000572f0000dc
:100dcc0077200000506f0000776500007220000053
:100ddc0073750000707000006c79000020740000c6
:100dec006f670000676c0000652000006f6e0000ec
:100dfc002f6f00006666000000440000204d0000cc
:100e0c0065610000737500007265000020760000bb
:100e1c006f6c000074730000206f00006e200000e7
:100e2c0041440000430000005b200000287b0000d0
:100e3c00292000007374000061720000742000000f
:100e4c0077720000697400006520000028770000ac
:100e5c006974000068200000726500006164000085
:100e6c00290000005d2000006f720000207d000052
:100e7c0020730000746f0000702000007772000077
:100e8c006974000065000000522000006f720000c1
:100e9c0020720000205200006561000064200000f8
:100eac00627900007465000020280000723a00008e
:100ebc00312e00002e2e00003235000035200000af
:100ecc00666f000072200000627500006c6b000001
:100edc0020720000656100006473000029000000ae
:100eec003062000020570000726900007465000039
:100efc0020420000494e000020620000797400007e
:100f0c006500000030680000206f000072200000b7
:100f1c0030780000205700007269000074650000f2
:100f2c002048000045580000206200007974000041
:100f3c0065000000302d0000323500003520000027
:100f4c0057720000697400006520000044450000e1
:100f5c00432000006279000074650000002c000042
:100f6c0020560000616c00007565000020640000d4
:100f7c00656c0000696d000069740000657200000a
:100f8c0020280000616c0000736f000020730000cb
:100f9c00706100006365000029000000262000003d
:100fac003175000053200000646500006c61000086
:100fbc0079200000282600003a3100002e2e000077
:100fcc002e32000035350000206600006f720000e4
:100fdc00206d0000756c000074690000706c0000de
:100fec0065200000646500006c61000079730000ee
:100ffc002900000028230000292000005275000061
:10100c006e2000006d610000637200006f2c000008
:10101c002028000030290000206600006f720000bc
:10102c00206d000061630000726f0000206c0000f6
:10103c00697300007400000052410000572000004a
:10104c0042550000532000004f5000004552000054
:10105c0041540000494f00004e530000005e000058
:10106c00204300006c6f0000636b000020740000d4
:10107c00696300006b200000285e00003a3100001c
:10108c002e2e00002e3200003535000020660000a8
:10109c006f720000206d0000756c00007469000018
:1010ac00706c00006520000074690000636b000028
:1010bc0073290000002f00005c200000436c00002e
:1010cc006f6300006b200000482f00004c000000f4
:1010dc002d2f00005f2000004461000074610000af
:1010ec00204800002f4c000000210000205200007e
:1010fc00656100006420000062690000740000005b
:10110c002e20000044610000746100002069000082
:10111c006e700000757400002c20000072650000d9
:10112c0061640000202800006e6f00002063000046
:10113c006c6f0000636b0000290000002e20000083
:10114c00004d00004f440000453e0000004d0000e3
:10115c004f4400004520000053450000540000009f
:10116c00203100002e20000048450000580d0000e2
:10117c000a200000322e00002044000045430000ed
:10118c000d0a0000203300002e2000004249000010
:10119c004e0d00000a200000342e000020520000ea
:1011ac00415700000d0a0000204f0000555400006c
:1011bc0050550000542000004d4f000044450000e5
:1011cc003e0000004f5500005450000055540000e4
:1011dc00204d00004f440000452000005345000006
:1011ec005400000053550000505000004c590000b2
:1011fc00204300004f4e00004649000047200000ed
:10120c004445000050520000494300004154000086
:10121c00454400002c2000005553000045200000e0
:10122c00572f000077200000544f0000205400007e
:10123c004f470000474c000045200000424f000083
:10124c0054480000005600004f4c00005441000070
:10125c0047450000204d00004f4e0000495400004f
:10126c004f5200003a200000355600003a20000092
:10127c00002000007c200000332e000033560000bc
:10128c003a200000002000007c2000005650000096
:10129c00554c00004c550000503a00002000000056
:1012ac00207c000000200000312e0000204d0000aa
:1012bc005342000020660000697200007374000045
:1012cc000d0a0000203200002e2000004c530000bc
:1012dc00422000006669000072730000740d00006b
:1012ec000a2000004d4f0000444500003e00000065
:1012fc004d5300004220000053450000543a0000ba
:10130c00204d00004f5300005420000053490000b2
:10131c0047200000424900005420000046490000cc
:10132c0052530000540000004c53000042200000b7
:10133c0053450000543a0000204c00004541000089
:10134c005354000020530000494700002042000085
:10135c00495400002046000049520000535400003c
:10136c00000d00000a00000041550000582000004c
:10137c00504900004e0d00000a200000312e0000e4
:10138c002041000055580000202800004445000072
:10139c0046410000554c0000542900000d0a000085
:1013ac00203200002e200000435300002f54000078
:1013bc004d5300000d0a0000204d00004f4400006a
:1013cc00453e000000410000555800003a20000046
:1013dc004445000046410000554c000054200000dc
:1013ec005345000054540000494e000047200000b3
:1013fc00284100005558000020500000494e0000c4
:10140c002900000041550000583a0000204300001c
:10141c004f4e0000545200004f4c0000532000006f
:10142c00435300002f5400004d5300002050000087
:10143c00494e00000053000065740000207300004a
:10144c0065720000696100006c200000706f000084
:10145c007274000020730000706500006564000069
:10146c003a2000002862000070730000290d000073
:10147c000a200000312e0000203300003030000024
:10148c000d0a0000203200002e2000003132000036
:10149c00303000000d0a0000203300002e20000028
:1014ac0032340000303000000d0a000020340000ff
:1014bc002e20000034380000303000000d0a0000ef
:1014cc00203500002e20000039360000303000009e
:1014dc000d0a0000203600002e20000031390000db
:1014ec0032300000300d00000a200000372e0000c2
:1014fc002033000038340000303000000d0a0000aa
:10150c00203800002e200000353700003630000057
:10151c00300d00000a200000392e000020310000a0
:10152c003135000032300000300d00000a20000080
:10153c005350000045450000443e000000410000af
:10154c00646a00007573000074200000796f00005d
:10155c007572000020740000657200006d69000057
:10156c006e6100006c200000616e000064200000c1
:10157c00707200006573000073200000737000002f
:10158c006163000065200000746f000020630000a0
:10159c006f6e0000746900006e750000650d000030
:1015ac000a0000004e4f0000204d00004f44000088
:1015bc004520000053450000542c0000204d000035
:1015cc00204600004f520000204d00004f44000008
:1015dc00450d00000a000000564f00004c5400005e
:1015ec0041470000452000005355000050500000ba
:1015fc004c49000045530000204f00004e000000f5
:10160c00564f00004c54000041470000452000009c
:10161c0053550000505000004c4900004553000049
:10162c00204f000046460000005600004f4c0000c2
:10163c00544100004745000020500000524f00006c
:10164c00424500003a200000005600004f4c0000bc
:10165c005453000000440000454c00004159000068
:10166c0020000000755300000d0a0000005300001c
:10167c00594e000054410000582000004552000013
:10168c00524f0000522c0000205400005259000010
:10169c00203f00000d0a0000000000000d0a0000b1
:1016ac00002000004259000054450000533a00004d
:1016bc000d0a000000200000002000002a6e00002f
:1016cc006f770000206900006e70000075740000d8
:1016dc0020640000697200006563000074690000fa
:1016ec006f6e00000d0a0000003100005749000029
:1016fc005245000020000000205700005249000015
:10170c0054450000204200004954000028530000ba
:10171c00292000002800000029000000315700009b
:10172c004952000045200000575200004954000067
:10173c004520000042490000543a000020000000ff
:10174c00202a00006e650000787400002063000001
:10175c006c6f0000636b0000202800005e29000005
:10176c0020770000696c00006c200000616c0000a8
:10177c00736f000020680000617600006520000097
:10178c00746800006973000020760000616c000032
:10179c00756500000d0a000000310000574900007b
:1017ac005245000020520000454100004459000001
:1017bc000d0a00000031000057490000524500009e
:1017cc00204d000041430000524f00003a20000021
:1017dc004e4f0000204400004556000049430000d5
:1017ec004520000023000000204500004e5500005d
:1017fc004d4500005241000054450000442c0000af
:10180c0020540000525900002053000045410000b4
:10181c005243000048200000524f00004d200000b1
:10182c004d410000435200004f200000464900008b
:10183c00525300005420000028300000784600006d
:10184c0030290000003100005749000052450000cb
:10185c002041000044440000524500005353000056
:10186c00204d000041430000524f000020000000ba
:10187c003a20000000200000302e00004d610000d6
:10188c00637200006f2000006d6500006e75000033
:10189c00004d000061630000726f0000202000000a
:1018ac002020000020310000574900005245000064
:1018bc002061000064640000726500007373000016
:1018cc00002000004e4f0000204400004556000050
:1018dc004943000045530000204500004e550000d0
:1018ec004d45000052540000454400002c200000df
:1018fc005452000059200000284100004c410000c7
:10190c00524d0000292000005345000041520000b8
:10191c0043480000205200004f4d000020460000bc
:10192c004952000053540000002e0000000d00002e
:10193c000a200000202000002a000000315700007f
:10194c004952000045200000524f00004d2000007d
:10195c00434f00004d4d0000414e0000442000005c
:10196c004d410000435200004f7300003a0d00003f
:10197c000a200000353100002e52000045410000c5
:10198c0044200000524f00004d2000002830000081
:10199c007833000033290000202a0000666f000015
:1019ac0072200000736900006e6700006c65000017
:1019bc00206400006576000069630000652000006b
:1019cc0062750000730d00000a200000383500001d
:1019dc002e4d0000415400004348000020520000ee
:1019ec004f4d0000202800003078000035350000f5
:1019fc00292000002a6600006f6c00006c6f00004c
:101a0c007765000064200000627900002036000039
:101a1c0034620000697400002061000064640000fe
:101a2c0072650000737300000d0a00002032000084
:101a3c00303400002e5300004b49000050200000b1
:101a4c00524f00004d200000283000007843000069
:101a5c0043290000202a0000666f00006c6c000017
:101a6c006f770000656400002062000079200000a0
:101a7c00636f00006d6d0000616e0000640d00006e
:101a8c000a20000032330000362e0000414c0000ca
:101a9c00415200004d20000053450000415200000f
:101aac004348000020280000307800004543000027
:101abc00290d00000a20000032340000302e0000f6
:101acc0053450000415200004348000020520000e2
:101adc004f4d0000202800003078000046300000f8
:101aec00290d00000a000000315700004952000087
:101afc0045200000524f00004d200000434f0000d5
:101b0c004d4d0000414e0000443a000020410000c1
:101b1c004c410000524d0000205300004541000094
:101b2c005243000048200000283000007845000097
:101b3c0043290000003100005749000052450000c5
:101b4c00205200004f4d0000204300004f4d00007c
:101b5c004d4100004e4400003a2000005345000067
:101b6c00415200004348000020280000307800005b
:101b7c004630000029000000466f0000756e000022
:101b8c006420000064650000766900006365000055
:101b9c0073200000617400003a000000466f0000e2
:101bac00756e0000642000000020000064650000d9
:101bbc007669000063650000732e0000005400007d
:101bcc0068650000206600006972000073740000f4
:101bdc0020000000206400006576000069630000ae
:101bec006520000049440000732000006172000071
:101bfc006520000061760000616900006c610000e6
:101c0c00626c00006520000062790000204d00002d
:101c1c0041430000524f00002c200000736500006f
:101c2c006520000028300000292e00000031000043
:101c3c00574900005245000020570000524900004f
:101c4c0054450000205200004f4d0000204300007e
:101c5c004f4d00004d4100004e4400003a20000062
:101c6c00524500004144000020280000307800005c
:101c7c0033330000292000002a6600006f72000038
:101c8c0020730000696e0000676c00006520000086
:101c9c006465000076690000636500002062000046
:101cac0075730000206f00006e6c0000790000005e
:101cbc0031570000495200004520000042550000f9
:101ccc004c4b000020520000454100004420000015
:101cdc00382000004259000054450000533a0000df
:101cec000031000057490000524500002057000009
:101cfc005249000054450000205200004f4d000096
:101d0c00204300004f4d00004d4100004e440000a8
:101d1c003a2000004d4100005443000048200000d0
:101d2c00283000007835000035290000202a0000fa
:101d3c00666f00006c6c00006f770000207700006d
:101d4c0069740000682000003634000062690000ed
:101d5c007420000061640000647200006573000070
:101d6c00730000003157000049520000452000006c
:101d7c00575200004954000045200000524f00000b
:101d8c004d200000434f00004d4d0000414e00001f
:101d9c00443a0000205300004b4900005020000042
:101dac00283000007843000043290000202a00005e
:101dbc00666f00006c6c00006f77000020770000ed
:101dcc006974000068200000636f00006d6d0000f6
:101ddc00616e0000640000003157000049520000a1
:101dec0045200000425500005320000052450000e1
:101dfc005345000054200000004f00004b00000031
:101e0c0045520000524f0000523a000020000000e2
:101e1c002a530000484f000052540000204f00008d
:101e2c00522000004e4f000020500000554c000086
:101e3c004c55000050200000002a00004e4f0000be
:101e4c002044000045560000494300004520000096
:101e5c004445000054450000435400004544000034
:101e6c00200000002800000044530000313800001e
:101e7c003232000020450000636f00006e2000002d
:101e8c00446900006720000054680000657200007f
:101e9c006d00000044530000323400003331000068
:101eac00203100004b20000045450000505200003e
:101ebc004f4d0000005500006e6b00006e6f00006f
:101ecc00776e0000206400006576000069630000f6
:101edc0065200000666100006d6900006c790000ef
:101eec0020490000440000004f7500007470000091
:101efc00757400002074000079700000653a0000d1
:101f0c000d0a0000203100002e200000486900005e
:101f1c00676800002d5a0000206f000075740000e7
:101f2c00707500007473000020280000483d00000c
:101f3c00696e000070750000742c0000204c0000cd
:101f4c003d4700004e440000290d00000a2000000f
:101f5c00322e0000204e00006f7200006d610000f8
:101f6c006c2000006f750000747000007574000028
:101f7c0073200000284800003d56000063630000f9
:101f8c002c2000004c3d0000474e0000442900006e
:101f9c000d0a0000203e0000004a000054410000e1
:101fac004720000052450000414400005900000049
:101fbc004a540000414700002052000045410000f7
:101fcc0044590000205400004f20000057520000dc
:101fdc00495400004520000049520000004a00000e
:101fec0054410000472000005245000041440000cd
:101ffc0059200000544f00002052000045410000c1
:10200c00442f0000575200004954000045200000a6
:10201c0044520000004a00005441000047200000d8
:10202c00494400004c450000000d00000a0000006f
:10203c002042000059540000455300003a0d0000a6
:10204c000a00000020000000203000002e4d00008f
:10205c0061630000726f0000206d0000656e00006f
:10206c00750d00000a200000312e000052650000a2
:10207c007365000074200000636800006169000053
:10208c006e0d00000a200000322e0000507200007d
:10209c006f62000065200000636800006169000049
:1020ac006e0d00000a200000332e00005853000073
:1020bc0056460000207000006c610000796500003d
:1020cc00720d00000a0000004a5400004147000055
:1020dc00534d00003a2000005245000053450000cb
:1020ec00540000004a540000414700002049000001
:1020fc004e490000542000004348000041490000b4
:10210c004e0000004a5400004147000020430000ec
:10211c0048410000494e000020520000455000008c
:10212c004f520000543a00000020000044450000cb
:10213c00564900004345000028530000290d0000bb
:10214c000a00000023000000203a000020000000dc
:10215c004a5400004147000020580000535600002c
:10216c0046200000504c0000415900004552000030
:10217c00005800004f4e00002f5800004f46000042
:10218c0046200000464c00004f5700002043000042
:10219c004f4e0000545200004f4c000020520000e3
:1021ac004551000055490000524500004400000014
:1021bc005052000045530000532000007a200000cc
:1021cc00544f0000204300004f4e000054490000c3
:1021dc004e550000450000004245000047490000f4
:1021ec004e200000585300005646000020550000b9
:1021fc00504c00004f4100004400000058530000b8
:10220c0056460000204f00004b00000058530000c1
:10221c0056460000205500004e4b00004e4f00006b
:10222c00574e000020450000525200004f52000053
:10223c000058000053560000462000004552000094
:10224c00524f000052200000544400004f20000068
:10225c004d490000534d000041540000434800001c
:10226c000058000053560000462000004552000064
:10227c00524f0000522000004d4100005820000039
:10228c005245000054520000494500005300000024
:10229c0058530000564600002045000052520000e2
:1022ac004f520000204900004c4c000045470000f4
:1022bc00414c0000204300004f4d00004d410000f8
:1022cc004e44000000580000535600004620000009
:1022dc0045520000524f000052200000494c0000b3
:1022ec004c450000474100004c20000053540000b6
:1022fc0041540000450000005853000056460000b1
:10230c0020450000525200004f52000020440000b3
:10231c0041540000412000004f560000455200007f
:10232c00464c00004f570000005800005356000068
:10233c004620000045520000524f0000523a000067
:10234c0020000000205900004f55000052200000d2
:10235c00504300002044000052490000424200005b
:10236c004c450000442000004d4100005820000066
:10237c00002000004259000054450000532000008a
:10238c00414600005445000052200000584f000008
:10239c00464600002028000054480000415400002c
:1023ac0027530000204f00004b2900000050000074
:1023bc005245000053530000207a000020350000e5
:1023cc0020540000494d00004553000020540000eb
:1023dc004f200000434f00004e540000494e0000b7
:1023ec0055450000004a00005441000047530000ce
:1023fc004d3a000020000000414c00005245000006
:10240c004144000059200000494400004c450000a4
:10241c000052000045530000455400002d3e0000c2
:10242c00494400004c4500000028000057520000b1
:10243c004f54000045200000444500004c41000072
:10244c005945000044200000424900005429000076
:10245c0020000000495200002d3e000049440000bd
:10246c004c45000000440000522d00003e49000085
:10247c00444c000045000000554e00004b4e00003f
:10248c004f5700004e2000005354000041540000f0
:10249c00450000004a54000041470000534d000025
:1024ac003a20000057410000524e0000494e0000f7
:1024bc00472000004f550000542000004f460000fc
:1024cc0020530000594e000043000000524500000c
:1024dc005345000054000000494400004c450000e6
:1024ec002d3e000044610000746100002052000089
:1024fc0065670000697300007465000072000000dd
:10250c00494400004c4500002d3e0000496e00007f
:10251c00737400007275000063740000696f000032
:10252c006e200000526500006769000073740000a3
:10253c006572000020280000444500004c4100005a
:10254c0059450000442000004f4e0000452000007b
:10255c004249000054200000464f00005220000069
:10256c00544d000053290000005500004e4b000054
:10257c004e4f0000574e0000205300005441000005
:10258c00544500002c20000054520000592000003b
:10259c00412000005245000053450000542000002b
:1025ac004d410000435200004f2000002831000034
:1025bc00290000004e4f0000544500003a20000056
:1025cc00575200004f5400004520000044450000c5
:1025dc004c410000594500004420000042490000d5
:1025ec00540d00000a0000000d0a00000055000008
:1025fc0041520000542000005245000041440000ac
:10260c0020460000414900004c3a0000204e0000da
:10261c004f200000444100005441000000550000d0
:10262c0041520000542000004f500000454e000065
:10263c002c2000007d200000544f0000204300009f
:10264c004c4f000053450000005500004152000063
:10265c0054200000434c00004f5300004544000040
:10266c0000530000657400002073000070650000ca
:10267c00656400003a2000002862000070730000be
:10268c00290d00000a200000312e0000203300002c
:10269c00303000000d0a0000203200002e20000017
:1026ac0031320000303000000d0a000020330000f1
:1026bc002e20000032340000303000000d0a0000e3
:1026cc00203400002e200000343800003030000090
:1026dc000d0a0000203500002e20000039360000c5
:1026ec00303000000d0a0000203600002e200000c3
:1026fc003139000032300000300d00000a2000009b
:10270c00372e000020330000383400003030000039
:10271c000d0a0000203800002e2000003537000084
:10272c0036300000300d00000a200000392e000069
:10273c00203100003135000032300000300d000037
:10274c000a2000005350000045450000443e0000a4
:10275c000044000061740000612000006269000008
:10276c0074730000206100006e6400002070000093
:10277c006172000069740000793a00000d0a0000d3
:10278c00203100002e200000382c0000204e0000cc
:10279c004f4e0000452000002a64000065660000d2
:1027ac00617500006c740000200d00000a20000010
:1027bc00322e0000203800002c200000455600006e
:1027cc00454e0000200d00000a200000332e0000b2
:1027dc00203800002c2000004f4400004420000052
:1027ec000d0a0000203400002e200000392c0000bf
:1027fc00204e00004f4e0000452000000d0a000046
:10280c00203e000000530000746f00007020000098
:10281c0062690000747300003a0d00000a20000089
:10282c00312e000020310000202a000064650000d9
:10283c0066610000756c0000740d00000a20000039
:10284c00322e000020320000200d00000a20000073
:10285c003e000000526500006365000069760000d0
:10286c0065200000706f00006c6100007269000050
:10287c00747900003a0d00000a200000312e00008f
:10288c0020490000646c000065200000312000002d
:10289c002a64000065660000617500006c7400001d
:1028ac000d0a0000203200002e20000049640000b8
:1028bc006c650000203000000d0a0000204d000067
:1028cc004f440000453e00000055000041520000fe
:1028dc005420000052450000414400005900000003
:1028ec0055410000525400002052000045410000a8
:1028fc00443a000020000000415500005820000020
:10290c0048490000474800000041000055580000ad
:10291c00204c00004f5700000041000055580000ab
:10292c00204800004947000048200000494d0000a5
:10293c00502c00002052000045410000443a000099
:10294c00200000000d0a0000004600005245000067
:10295c0051550000454e0000435900002043000033
:10296c004f5500004e540000204f00004e20000038
:10297c0041550000583a000020000000487a000041
:10298c0000200000280000006b4800007a2900009d
:10299c00004d0000487a000029000000524500005c
:1029ac00414400003a20000000420000554c000059
:1029bc004b20000052450000414400002000000064
:1029cc005752000049540000453a00002000000016
:1029dc00425500004c4b00002057000052490000ab
:1029ec005445000020000000524500004144000006
:1029fc0020420000495400003a200000004400002e
:102a0c004154000041200000494e00005055000088
:102a1c00542c000020530000544100005445000089
:102a2c003a20000000200000434c00004f430000ff
:102a3c004b20000054490000434b0000530d000094
:102a4c000a000000434c00004f4300004b2c0000d8
:102a5c00203100000d0a0000004300004c4f000024
:102a6c00434b00002c200000300d00000a00000039
:102a7c004441000054410000204f00005554000018
:102a8c0050550000542c0000203100000d0a0000ad
:102a9c000044000041540000412000004f5500004c
:102aac0054500000555400002c200000300d000044
:102abc000a0000004e4f0000205300005543000058
:102acc00482000004d410000435200004f20000000
:102adc00494e0000205400004849000053200000db
:102aec004d4f0000444500002c20000054520000c3
:102afc00592000003f2000004f5200002028000009
:102b0c0030290000204600004f52000020480000f1
:102b1c00454c0000500d00000a000000434f00001f
:102b2c004d4d0000414e0000442000004e4f00006f
:102b3c0054200000494d0000504c0000454d000051
:102b4c00454e00005445000044200000494e000052
:102b5c002054000048490000532000004d4f000055
:102b6c00444500000d0a0000003000006200000027
:102b7c0030310000323300003435000036370000ad
:102b8c003839000041420000434400004546000033
:102b9c003078000000530000594e000054410000f2
:102bac005820000045520000524f0000522c0000eb
:102bbc002054000052590000204100004741000001
:102bcc00494e00003e000000435300002045000029
:102bdc004e410000424c0000454400000043000000
:102bec00532000004449000053410000424c0000b7
:102bfc0045440000000d00000a00000020420000c7
:102c0c0059540000455300003a0d00000a00000022
:102c1c002052000045410000443a00002000000012
:102c2c00536500007420000073700000656500009f
:102c3c00643a00000d0a0000203100002e20000034
:102c4c00333000004b4800007a0d00000a200000d1
:102c5c00322e000020310000323500004b480000bd
:102c6c007a0d00000a200000332e000020320000f4
:102c7c00353000004b4800007a0d00000a2000009f
:102c8c00342e0000203100004d4800007a0d000069
:102c9c000a2000005350000045450000443e00004f
:102cac00004300006c6f0000636b0000207000009c
:102cbc006f6c00006172000069740000793a0000ca
:102ccc000d0a0000203100002e2000004964000095
:102cdc006c650000206c00006f770000202a00005b
:102cec006465000066610000756c0000740d0000e6
:102cfc000a200000322e000020490000646c000005
:102d0c006520000068690000676800000d0a00007b
:102d1c00203e0000004f000075740000707500002c
:102d2c0074200000636c00006f6300006b200000d7
:102d3c0065640000676500003a0d00000a20000081
:102d4c00312e000020490000646c0000652000005a
:102d5c00746f00002061000063740000697600004d
:102d6c00650d00000a200000322e000020410000fa
:102d7c00637400006976000065200000746f000029
:102d8c0020690000646c0000652000002a640000cb
:102d9c0065660000617500006c7400000d0a00008f
:102dac00203e0000004900006e70000075740000a9
:102dbc0020730000616d0000706c00006520000045
:102dcc007068000061730000653a00000d0a000095
:102ddc00203100002e2000004d69000064640000ca
:102dec006c650000202a000064650000666100002c
:102dfc00756c0000740d00000a200000322e0000db
:102e0c00204500006e6400000d0a0000203e00000a
:102e1c0000530000504900002052000045410000c2
:102e2c004459000000000000005e0000bce20000fd
:102e3c00613f0000dd830000c29c00007e2000008a
:102e4c00a3fd00001f4100009dc30000217f000076
:102e5c00fca20000401e00005f010000e3bd00006a
:102e6c003e60000082dc0000237d00009fc100005a
:102e7c00421c0000fea00000e1bf00005d0300004a
:102e8c0080de00003c620000bee00000025c00003e
:102e9c00df810000633d00007c220000c09e00002a
:102eac001d430000a1ff000046180000faa400001a
:102ebc00277900009bc5000084da0000386600000a
:102ecc00e5bb000059070000db85000067390000f6
:102edc00bae400000658000019470000a5fb0000ea
:102eec0078260000c49a0000653b0000d9870000da
:102efc00045a0000b8e60000a7f900001b450000ca
:102f0c00c69800007a240000f8a60000441a0000bd
:102f1c0099c70000257b00003a64000086d80000a9
:102f2c005b050000e7b900008cd20000306e000099
:102f3c00edb30000510f00004e100000f2ac000089
:102f4c002f71000093cd0000114f0000adf3000075
:102f5c00702e0000cc920000d38d00006f31000069
:102f6c00b2ec00000e500000aff10000134d000059
:102f7c00ce900000722c00006d330000d18f000049
:102f8c000c520000b0ee0000326c00008ed000003d
:102f9c00530d0000efb10000f0ae00004c12000029
:102fac0091cf00002d730000ca9400007628000019
:102fbc00abf500001749000008560000b4ea000009
:102fcc0069370000d58b000057090000ebb50000f5
:102fdc00366800008ad4000095cb000029770000e9
:102fec00f4aa000048160000e9b70000550b0000d9
:102ffc0088d60000346a00002b75000097c90000c9
:10300c004a140000f6a80000742a0000c8960000bc
:10301c00154b0000a9f70000b6e800000a540000a8
:10302c00d78900006b350000203000002e4d0000c9
:10303c0061630000726f0000206d0000656e00007f
:10304c00750d00000a200000312e000049530000cd
:10305c004f37000038310000332d000033200000c2
:10306c0041540000520d00000a200000322e0000d6
:10307c00495300004f37000038310000332d000059
:10308c0033200000706100007273000065200000a6
:10309c006f6e00006c7900000d0a00000049000002
:1030ac00534f00002037000038310000332d000052
:1030bc003320000041540000520d00000a000000b3
:1030cc003078000030310000204300004c4f0000ed
:1030dc00434b000020540000494300004b530000b8
:1030ec000d0a000000490000534f0000203700007b
:1030fc0038310000332d00003320000072650000d1
:10310c00706c0000793a00002000000020000000e4
:10311c000d0a000000500000726f0000746f000078
:10312c00636f00006c3a0000200000007365000023
:10313c0072690000616c0000003300002077000011
:10314c006972000065000000322000007769000001
:10315c00726500000052000046550000007500002a
:10316c006e6b00006e6f0000776e00000052000066
:10317c006561000064200000747900007065000037
:10318c003a200000007400006f200000656e000003
:10319c00640000007661000072690000616200004a
:1031ac006c650000206c0000656e00006774000008
:1031bc00680000004461000074610000207500008c
:1031cc006e690000747300003a200000006e00006d
:1031dc006f200000696e00006469000063610000ec
:1031ec00746900006f6e0000004400006174000000
:1031fc0061200000756e000069740000206c0000f6
:10320c00656e000067740000683a00002000000042
:10321c002062000069740000730d00000a000000b9
:10322c004f7500007470000075740000207400006d
:10323c0079700000653a00000d0a00002031000092
:10324c002e20000048690000676800002d5a00001d
:10325c00206f00007574000070750000747300001e
:10326c0020280000483d0000696e000070750000c9
:10327c00742c0000204c00003d4700004e44000020
:10328c00290d00000a200000322e0000204e000004
:10329c006f7200006d6100006c2000006f75000003
:1032ac007470000075740000732000002848000042
:1032bc003d560000636300002c2000004c3d0000d4
:1032cc00474e0000442900000d0a0000203e00007b
:1032dc0000520000415700003257000049520000d4
:1032ec0045200000524500004144000059000000f8
:1032fc0049320000432000005354000041520000aa
:10330c0054200000434f00004e440000495400007c
:10331c00494f00004e200000285c00002d2f0000bb
:10332c005f5c0000290000004932000043200000cf
:10333c00535400004f500000204300004f4e00003b
:10334c0044490000544900004f4e00002028000062
:10335c005f2f00002d5c0000290000000d0a00000a
:10336c00002000004259000054450000533a000070
:10337c000d0a000000200000002000002a6e000052
:10338c006f770000206900006e70000075740000fb
:10339c00206400006972000065630000746900001d
:1033ac006f6e00000d0a0000002000002a6e000065
:1033bc006f770000206900006e70000075740000cb
:1033cc0020640000697200006563000074690000ed
:1033dc006f6e0000000000000d0a000000200000cd
:1033ec004259000054450000533a00000d0a0000f9
:1033fc000020000000200000474f00005420000077
:10340c00414300004b3a0000204e00004f000000ea
:10341c00204700004f54000020410000434b0000a7
:10342c003a200000594500005300000049320000ca
:10343c00432000005354000041520000542000006f
:10344c00434f00004e44000049540000494f000017
:10345c004e0d00000a00000049320000432000001d
:10346c00535400004f500000204300004f4e00000a
:10347c0044490000544900004f4e00000d0a000062
:10348c00004900003243000020520000454100007a
:10349c00445900000d0a000000200000302e0000ee
:1034ac004d610000637200006f2000006d6500002c
:1034bc006e7500000d0a0000203100002e37000050
:1034cc0062690000742000006164000064720000f6
:1034dc0065730000732000007365000061720000ca
:1034ec00636800000d0a00000053000065610000d5
:1034fc0072630000686900006e67000020370000ee
:10350c006269000074200000493200004320000072
:10351c006164000064720000657300007373000046
:10352c002073000070610000636500002e20000015
:10353c000d0a000020200000204600006f750000de
:10354c006e64000020640000657600006963000072
:10355c006573000020610000743a00000000000058
:10356c000d0a0000002000004259000054450000e4
:10357c00533a00000d0a000000200000002000005b
:10358c0052450000414400003a2000000020000099
:10359c002c20000000200000544900004d45000084
:1035ac00530000004f75000074700000757400002b
:1035bc002074000079700000653a00000d0a0000cc
:1035cc00203100002e2000004869000067680000d0
:1035dc002d5a0000206f00007574000070750000fb
:1035ec007473000020280000483d0000696e000044
:1035fc0070750000742c0000204c00003d4700004a
:10360c004e440000290d00000a200000322e00005c
:10361c00204e00006f7200006d6100006c200000f5
:10362c006f7500007470000075740000732000004a
:10363c00284800003d560000636300002c20000069
:10364c004c3d0000474e0000442900000d0a0000cc
:10365c00203e00000052000041570000335700008c
:10366c004952000045200000524500004144000032
:10367c005900000043530000204500004e4100005b
:10368c00424c000045440000004300005320000061
:10369c004449000053410000424c000045440000e6
:1036ac000000000050430000204b000042200000ae
:1036bc0044450000434f00004445000052200000e8
:1036cc005245000041440000590000000d0a000062
:1036dc00002000004259000054450000533a0000fd
:1036ec000d0a00000020000000200000474f0000e1
:1036fc0054200000414300004b0000002045000016
:10370c00525200004f5200002c2000004e4f00007f
:10371c0020410000434b0000002000002a730000f1
:10372c007461000072740000626900007420000073
:10373c0065720000726f000072000000202a000009
:10374c00706100007269000074790000206500004f
:10375c00727200006f720000002000002a730000db
:10376c00746f000070620000697400002065000036
:10377c00727200006f720000002000004e4f0000bb
:10378c004e45000000200000554e00004b4e00003e
:10379c004f5700004e20000045520000524f0000d1
:1037ac005200000042550000464600004552000001
:1037bc004f56000045520000525500004e200000ac
:1037cc0045520000524f0000522c000020440000d3
:1037dc004154000041200000544f00004f200000d5
:1037ec00464100005354000021210000210d00002f
:1037fc000a000000425500004646000045520000f9
:10380c0020450000525200004f5200002c200000b6
:10381c0049530000205800004f4e00002f58000064
:10382c004f46000046200000464c00004f57000059
:10383c00204300004f4e0000545200004f4c00003b
:10384c00204500004e410000424c00004544000061
:10385c003f0d00000a0000000d0a000000300000bf
:10386c003030000020530000594e0000544100003d
:10387c005820000045520000524f0000522c00000e
:10388c002054000052590000203f00000d0a000097
:10389c00003000003939000020540000455200006f
:1038ac004d4900004e4100004c20000042550000e4
:1038bc004646000045520000204f000056450000cf
:1038cc00524600004c4f0000572c000020540000c2
:1038dc0052590000205300004d4100004c4c000098
:1038ec004552000020530000454700004d450000a4
:0838fc004e54000053000000cf
:020000040000fa
:103904000200fa00000f78009e0078000040eb00ef
:10391400804878009e0078000040eb0090409800ba
:103924001e0178006000b800100198002101980081
:103934009e0078000000eb00b00098009e00780024
:103944000040eb00b04898009e0078000040eb0077
:10395400804898009e00780010c0b30090489800fa
:103964009e00780010c0b300a04898001e017800a3
:103974006000b80000099800110998009e007800c2
:103984000000eb00a00898001e0178006000b80059
:1039940060019800710198000000eb000080fa00bb
:1039a400000006000200fa00000f78000080fa0010
:1039b400000006000800fa00008fbe00720020001c
:1039c400030020003e004100ae804900200798001b
:1039d400310798002e009000be009000e00f5000c8
:1039e400e08f580006003d002e019000be019000bb
:1039f40067014100e08149002207980033079800dd
:103a04002e019000be0190004d1add004310de002f
:103a140000007200c398de000080fa000000060077
:103a24000200fa00000f78009e00780010002000c9
:103a3400ff2007008000eb000000eb00fc200700e3
:103a4400110020000000eb00f92007000080fa00bc
:103a5400000006000c00fa00200798006147980057
:103a64000000eb00000f78006e4090000004e000be
:103a740015003a0010002000e9ff07000000eb00e9
:103a840010079800090037008000eb000000eb00ed
:103a9400e7200700110020000000eb00e4200700ed
:103aa4001e0090000000e800100798001e0090001f
:103ab400e40f5000f4ff3400ae0090000040eb002f
:103ac40080487800080137002e009000904078006c
:103ad4006e40900080cf5000110032006e40900084
:103ae400e74f500004003a002e0090001040780088
:103af400e64f500007003a006e409000ee4f500031
:103b040007003a002e00900010407800ed4f50005e
:103b14000300320050002000000f7800f20037004c
:103b24002e009000904078006e40900080cf5000ae
:103b3400e8003a006e409000e64f500006003a005c
:103b440010002000b6ff0700ae00900070c0b30064
:103b540080487800df0037006e409000ed4f500041
:103b6400dc003a0010002000adff0700ae0090001a
:103b7400e0c0b30080487800d60037002e009000e3
:103b8400104078000080fb006101b90042079800f2
:103b940053079800f0002000010020004e0190001f
:103ba400de019000800f5100818f5900c4003e0057
:103bb4004e009000de009000006001000f0037000e
:103bc400140037001900370027003700350037008c
:103bd4003a003700480037004d0037005b003700db
:103be400690037006e0037007c0037008100370021
:103bf4008f00370094003700a20037000000eb006c
:103c040087ff0700ae00900010c0b3008048780022
:103c1400b00037001000200081ff0700ae009000c4
:103c240020c0b30080487800aa0037006e4090009e
:103c3400e84f5000060036001000200078ff07000f
:103c4400ae00900090c0b30080487800a100370017
:103c54000000eb0072ff0700ae00900030c0b3001c
:103c6400804878009b0037006e409000e44f50007d
:103c740006003a000000eb0069ff0700ae00900068
:103c840040c0b30080487800920037001000200044
:103c940063ff0700ae00900050c0b3008048780076
:103ca4008c003700100020005dff0700ae0090007c
:103cb40050c0b30080487800860037006e40900002
:103cc400e64f500006003a000000eb0054ff0700e6
:103cd400ae00900060c0b300804878007d003700db
:103ce400100020004eff0700ae00900080c0b3001b
:103cf40080487800770037001000200048ff070054
:103d0400ae00900070c0b3008048780071003700a6
:103d14006e409000e44f500006003a000000eb00b3
:103d24003fff0700ae00900040c0b3008048780019
:103d3400680037001000200039ff0700ae00900033
:103d440080c0b30080487800620037006e40900065
:103d5400e14f500006003a000000eb0030ff07007e
:103d6400ae00900010c0b3008048780059003700be
:103d7400100020002aff0700ae00900020c0b3000e
:103d840080487800530037000000eb0024ff070050
:103d9400ae009000a0c0b300804878004d0037000a
:103da4006e409000eb4f500006003a000000eb001c
:103db4001bff0700ae009000b0c0b300804878003d
:103dc400440037001000200015ff0700ae009000eb
:103dd400c0c0b300804878003e00370010002000c7
:103de4000fff0700ae009000c0c0b3008048780009
:103df400380037006e409000ed4f500006003a0046
:103e04000000eb0006ff0700ae009000d0c0b30036
:103e1400804878002f0037001000200000ff0700c2
:103e2400ae009000f0c0b30080487800290037004d
:103e340010002000fafe0700ae009000e0c0b300be
:103e440080487800230037006e409000eb4f50000c
:103e540006003a000000eb00f1fe0700ae009000ff
:103e6400b0c0b300804878001a003700100020006a
:103e7400ebfe0700ae009000f0c0b300804878006d
:103e8400140037006e409000e14f500006003a00e5
:103e94000000eb00e2fe0700ae00900010c0b3008b
:103ea400804878000b00370010002000dcfe07007b
:103eb400ae00900020c0b3008048780005003700b1
:103ec40050002000000f78002e009000ee4090007b
:103ed400014878002e009000904078006e409000d9
:103ee40080cf500025ff3a001e0078000080fa00c1
:103ef400000006001400fa005007980061079800bb
:103f040072079800030f9800140f98000000eb004c
:103f1400300798000e0890000000e0000a0032000c
:103f24007e009000900078000e0890000108780050
:103f34000e0890008080e8007e0090001000780059
:103f440000804000300798007e0090008080e800e8
:103f54007e00900010007800008040004007980028
:103f64004a0037004e0090000000e9004007980026
:103f74004e00900090407800414798000040eb00cc
:103f8400304798000000eb00000f78002e00370047
:103f94005e009000ee00900061005000e080580048
:103fa40050079800610798001e0890000000e00088
:103fb400080032005e009000ee009000e00f500018
:103fc400e08f580003003a00110020001000200088
:103fd400971f07004e4090000080fb00e100600046
:103fe40020002000921f07004e4090000080fb003c
:103ff4000000d100404798008000eb000000eb0077
:104004008b1f07003e0090000000e0000a00320011
:1040140000200700204798002e4090008080fb007d
:104024001e0078000008dd00804078003e409000cb
:1040340000c0700030479800110020000000eb0021
:104044007b1f07001e0fe8005e009000ee0090004a
:10405400e00f5000e08f5800030032007000200091
:104064009e0f1000caff34003e0090000000e000e4
:10407400060032003e0090000000e900300798007e
:104084003e009000be409000014878005e00900021
:10409400ee009000e00f5000e08f5800b1ff3a00ae
:1040a4000080fa00000006001c00fa004007980097
:1040b400214f98006207980073079800040f980036
:1040c400150f9800260f9800370f98000000eb009a
:1040d400300798000000eb00200798000040eb0038
:1040e400204798000000eb00500f9800ae48900065
:1040f4000ef8970080cf5000020032001400200018
:10410400540f98005e089000000f78006e00900035
:10411400fe009000e00f5000e08f58000c003a00c1
:104124002eb89700beb89700e00f5000e08f5800fb
:104134006300320011c0b3004e00900045fe07003a
:104144002eb89700beb89700b91f07005c0037006f
:10415400ae4890004e0090003efe07001e0278001c
:104164009e0990000e0990006e009000fe009000e1
:1041740060ff07002e0890000000e0000b003200f2
:104184003e0990009e0890002e089000f71b07003f
:10419400800078000000eb00200798000100e00098
:1041a40002003a0010002000200798001e00e000e2
:1041b400320032004e009000104078008040e80049
:1041c4004e009000014878002e0090000000e000ae
:1041d4001c0032002eb89700beb89700e00f5000c4
:1041e400e08f580017003200ae4090002ef0970088
:1041f40080cf50001300310061c0b3004e00900026
:1042040014fe070041c0b3004e00900011fe0700e9
:104214002eb89700beb89700c289de004e0add00b2
:104224004201de00020172002eb89700beb897006a
:10423400000041008180490020bf9f0031bf9f00e2
:10424400030037008ef897004e00900001fe07002f
:104254002eb89700beb89700e00f5000e08f5800ca
:104264000600320011c0b3004e009000f9fd0700b3
:104274002eb89700beb897006d1f07002e0090005f
:104284000000e0000e0032000040eb00005f9800e8
:10429400ae4090002ef0970080cf50000200310015
:1042a40014c0b300045f98002e4090000040e80062
:1042b400204798000e5890000004e000a4ff3a0044
:1042c4002e0090000000e0000c0032002ef0970059
:1042d4000004e00007003200ae4090002ef097008a
:1042e40080cf5000030036003000200030079800d3
:1042f4000200370020002000300798003e009000a4
:104304000080fa00000006001000fa00000f780098
:104314001207980023079800310798004407980073
:10432400550798006607980077079800be0090002c
:104334004e0090002c1c07006e0090000000e0006e
:1043440003003200be0090006e009000261c07009f
:104354008f87e8002ef09700e0ff9f002eb89700ab
:10436400beb89700809fbe008f87e8008ef8970044
:10437400e1ff9f00fe0390006e039000de029000b8
:104384004e0290001e019000ae01900041c0b300a7
:104394001e00780044ff0700e88757000080fa00f9
:1043a400000006001200fa00500798006107980008
:1043b40072079800030f98007e019000de009000c1
:1043c4005e009000d11b07000040eb0030479800ce
:1043d4000040eb00204798006e009000100f78001a
:1043e4000e089000100078000000e90040079800d3
:1043f400480037004e0090008e0890000080e800ce
:104404000100400090407800414798004e409000e1
:104414000004e0003c0032004e009000de009000fa
:104424000080e80001004000904078006147980057
:1044340010c0b300504798002a0037004e40900047
:104444000080fb00610060000004e0001e003200f8
:104454002e4090000004e00009003a001e0fe9001d
:104464001e007800ee0090000080e800010040008b
:10447400904078003147980010c0b300204798005e
:104484003e409000ae409000014060000004e00017
:10449400050032006e409000de4090000140700044
:1044a40060479800050037005e40900080c0ea0035
:1044b4006e40900000c06000604798002e4090005d
:1044c40000404000204798005e40900000404000bb
:1044d400504798004e4090000080fb000000d1003f
:1044e400404798004e4090000004e000d3ff3a009b
:1044f400ce0090005e009000010040000080e800c3
:10450400ee409000014878004e0090000000e90061
:10451400400798004e0090000000e000b5ff3d0009
:104524000080fa00000006000200fa00000f780084
:104534009e00780040002000b00098001e00780023
:10454400300090000080fa00000006000200fa002b
:10455400000f78009e00780010c0b30080487800f7
:104564000000eb000080fa00000006000200fa00e0
:10457400000f78001e007800a0089000820b200035
:104584001e004100981b07000000eb000080fa00a9
:10459400000006000800fa00889fbe008a1f780009
:1045a4003007980064004700501e07004e409000fa
:1045b4000080fb0001002000fefc070010079800ab
:1045c4009e00900020032000808f500003003400e0
:1045d40060002000000f7800230037004e40900058
:1045e4000080fb0001002000f2fc0700800078003e
:1045f4003e009000760040007b1b07003e009000c8
:1046040060019000f00190003e00900090489000fe
:104614003e009000760240004e4090000084fb0073
:10462400090020003e009000680540008f87e800e4
:104634000040eb00e0ff9f00829fbe008f87e800f0
:10464400e1ff9f008003eb000003eb008002eb001e
:104654000801be00b1c0b3000a00780092fe070052
:10466400e8875700000f78001e00e00003003200c6
:104674003e0090009e007800310098001e007800f3
:104684004f0578004f04be000080fa0000000600c9
:104694000a00fa00881f7800400798004e00900036
:1046a40076004000210020004f1b07004e009000c0
:1046b400760040007a1a0700200798003107980016
:1046c4002e009000be009000bafc0700100798006e
:1046d4009e00900020032000808f500003003400cf
:1046e40060002000000f7800200037002e009000aa
:1046f400be009000affc0700800078004e009000e0
:1047040076004000381b07004e00900060019000c6
:10471400f00190004e009000904890004e009000f0
:10472400760240004e009000680440008f87e80045
:104734000040eb00e0ff9f00829fbe008f87e800ef
:10474400e1ff9f008003eb000003eb008002eb001d
:104754002e019000be019000b1c0b30008007800a3
:1047640051fe0700e8875700000f78001e00e000a4
:10477400030032004e0090009e0078003100980043
:104784001e0078004f0478000080fa000000060044
:104794000400fa00889fbe008a9fbe00100798009c
:1047a4001e009000a00890001e00900076004000bb
:1047b4000d1b07001e009000b04890001e009000e2
:1047c40060019000f00190001e009000204a9000cb
:1047d4001e009000870b2000808343001e00900081
:1047e400c5042000808242001e0090002a08200098
:1047f400000545001e009000f60540001e009000d4
:10480400000c9000900c90001e0090006800400086
:104814008f87e800e1ff9f00829fbe008f87e8003a
:10482400e4ff9f00050378008a0278000b027800f9
:104834000801be0041c0b3001bfe0700e887570013
:10484400000f78001e00e000030032001e009000fc
:104854009e007800310098001e0078004f05be00cd
:104864004f04be000080fa00000006000200fa00b7
:10487400000f78009e007800768040004100200000
:10488400d91a07009e00780076804000041a0700b9
:104894001e01780060019800710198000000eb008f
:1048a4000080fa00000006000200fa00000f780001
:1048b4009e0078006b8040008c1d07000000eb0018
:1048c4000080fa00000006000400fa0010079800b7
:1048d4000000eb00000f78001e00900076004000fe
:1048e40041002000c01a07001e009000760040001e
:1048f400eb1907001e0190000009980011099800a7
:104904001e009000900890000008900029fc070009
:10491400800078001e009000210898001e0090007e
:10492400a008900020032000808f50000500340070
:1049340060002000000f78001e0090009e007800a8
:10494400310098001e0078000080fa000000060084
:104954000400fa00889fbe008a9fbe008c1f780066
:10496400100798001e009000b04890001e009000b0
:1049740060019000f00190001e009000204a900019
:104984001e009000870b2000808343001e009000cf
:10499400c5042000808242001e0090002a082000e6
:1049a400000545001e009000f60540001e00900022
:1049b400200e90001e009000000c9000900c9000bf
:1049c4001e009000680040008f87e800e1ff9f0010
:1049d400829fbe008f87e800e4ff9f0005037800f4
:1049e4008a0278000b0278008c0078000801be006f
:1049f40045fe0700e8875700000f78001e00e0001e
:104a0400030032001e0090009e00780031009800e0
:104a14001e0078004f0678004f05be004f04be000c
:104a24000080fa00000006000200fa00000f78007f
:104a34001e007800a0089000e20e20001e00410035
:104a4400691a07001e007800a00890004212200096
:104a54001e004100641a07000000eb000080fa0009
:104a6400000006000a00fa00889fbe008a9fbe006c
:104a7400400798004e009000a00890004e0090005f
:104a840076004000581a07004e009000b04890008d
:104a94004e00900060019000f00190004e009000e4
:104aa400204a90004e009000870b20008083430032
:104ab4004e009000c5042000808242004e00900009
:104ac4002a082000000545004e009000f60540002d
:104ad4004e009000000c9000900c90004e0090004e
:104ae400680040008f87e800e1ff9f00829fbe00be
:104af4008f87e800e4ff9f00050378008a027800ae
:104b04000b0278000801be0041c0b30066fd070037
:104b1400e8875700200798002e0090000000e0006e
:104b240064003a000000eb00100798000040eb001e
:104b3400004f7800150037001e80fb00ce00900067
:104b44006012b000010040009040780011479800c6
:104b54000a0037001e4090000080fb00e100600066
:104b64001e00900001004000100798001e409000b5
:104b74000080fb000000d100104798001e40900008
:104b84000004e000f3ff3a001e4fe8001e80fb0023
:104b9400ce009000a1109100810f5000e6ff350077
:104ba40066004700d11c07000040eb00004f78006e
:104bb4003a0037001e009000cf80de007dfb070026
:104bc400800078004e009000a015b000061a07007f
:104bd4004e00900042122000000141004e0090005f
:104be400e40e2000000242004e009000a1152000b7
:104bf400808040004e0090007600400082017800e2
:104c040004017800e7fd07004e009000b0489000d2
:104c14004e00900060019000f00190004e00900062
:104c2400204a90004e009000870b200080834300b0
:104c34004e009000c5042000808242004e00900087
:104c44002a082000000545004e009000f6054000ab
:104c54004e009000000c9000900c90004e009000cc
:104c6400680040008f87e800e1ff9f00829fbe003c
:104c74008f87e800e4ff9f00050378008a0278002c
:104c84000b0278000801be0041c0b30006fd070016
:104c9400e8875700200798001e4fe8002e00900078
:104ca4000000e00003003a006e4090009e4f1000a8
:104cb400c0ff39002e0090000000e0000300320025
:104cc4004e009000ae009000310098002e0090003d
:104cd4004f05be004f04be000080fa00000006002d
:104ce4000800fa00889fbe00200798002e0090005c
:104cf40010409000ee4f500004003a002e00900047
:104d040020489000604798000200370040c0b3007c
:104d140060479800ee409000214798002e009000d4
:104d2400760240002e009000200c90002e0090008f
:104d340000099000900990002e009000e8044000c3
:104d44008f87e8000040eb00e0ff9f006000b800a0
:104d5400809fbe008f87e8002e409000e0ff9f00f8
:104d64008003eb000003eb008002eb008800780076
:104d74000900780064fd0700e8875700000f7800f9
:104d84001e00e000030032002e0090009e00780018
:104d9400310098001e0078004f04be000080fa0025
:104da400000006000800fa00889fbe008a1f7800f1
:104db400200798002e00900010409000f14f500002
:104dc40004003a002e0090002048900060479800ac
:104dd4000200370040c0b30060479800ee409000e6
:104de400214798002e009000c404200000024200d5
:104df4002e00900025082000808242002e009000a2
:104e0400760440002e009000a00c90002e0090002c
:104e140000099000900990002e0090006805400061
:104e24008f87e8000040eb00e0ff9f006000b800bf
:104e3400809fbe008f87e8002e409000e0ff9f0017
:104e44008003eb00040378000802780089007800ee
:104e54000a0078002cfd0700e8875700000f78004f
:104e64001e00e000030032002e0090009e00780037
:104e7400310098001e0078004f0578004f04be00f2
:104e84000080fa00000006000600fa0020079800df
:104e94000e80e800151c0700ae4090002e00900024
:104ea40068004000ebfa0700000f78001e00e000e5
:104eb400030032002e0090009e007800310098001c
:104ec4001e0078000080fa00000006000600fa00c8
:104ed400200798000000eb00000f78000e80e80027
:104ee400021c07002e4090000004e000060032007f
:104ef4002e409000e14f500003003200500020008b
:104f0400000f7800190037002e0090001040900028
:104f1400f34f50000b003a002e4090000004e000d4
:104f240004003a00ae00900010c0b300904898000e
:104f34000e003700ae009000d0c0b3009048980037
:104f44000a0037002e4090000004e00004003a00fc
:104f5400ae00900010c0b300a048980003003700d2
:104f6400ae00900060c0b300a04898001e00e000ae
:104f7400030032002e0090009e007800310098005b
:104f84001e0078000080fa00000006000400fa0009
:104f9400100798000e007800d41b07001e4078000c
:104fa4000004e000fbff3a009e0090000000eb00cc
:104fb400b00098001e009000300090000080fa00bd
:104fc400000006000800fa00300798003e00900038
:104fd4007600400011002000031907003e009000f5
:104fe40080589000514798003e00900076004000a1
:104ff40011002000fc1807003e009000805890002b
:10500400414798003e009000760040004100200097
:10501400f51807003e0090007600400020180700b5
:10502400008fbe003e009000804890005e409000db
:1050340080cf5000040032003e0090006800400021
:10504400de40900083fa07001e00be00f81b070034
:105054003e009000804890004e40900080cf500069
:10506400040032003e00900068004000ce409000f2
:1050740078fa07000000eb000080fa000000060048
:105084000200fa00000f78001e0078001cfa0700e6
:10509400800078001e007800310098001e0078001f
:1050a400300090000000e00007003a009e00780005
:1050b400688040008040eb0066fa070080007800ba
:1050c4001e007800310098001e0078003000900027
:1050d4000080fa00000006000200fa00000f7800c9
:1050e4001e007800300090000000e0001e003a002e
:1050f4001e007800104078000004e0001a003a0016
:105104001e00e800791b07001e007800a000900034
:105114001000900061004000e08048001e0178000b
:1051240010019800210198001e00780010409000a2
:10513400f74f50000a003e001e0078001040900017
:105144000080fb0080004000809c21000080400023
:10515400900078001e007800010001000200370072
:105164001e007800f0fc07001e007800300090005c
:105174000080fa00000006000200fa00000f780028
:105184001e00780007fa07000080fa0000000600fd
:105194009001fa000e007800b9ff0700171b070002
:1051a400020037000e007800cbff07003e0090009d
:1051b4000000e00003003a001e4078000004e00014
:1051c400f8ff32000e007800ebff07003e0090006d
:0851d4000080fa000000060053
:020000040000fa
:1051dc000600fa00004f780011479800224798000b
:1051ec0055dabf000080fb00200798002e009000cd
:1051fc00e40f5000260032002e009000e40f500007
:10520c000a003c002e009000e20f50001800320003
:10521c002e009000e20f500019003c002e00900070
:10522c00e10f50000e0032002e0037002e009000cf
:10523c00e60f50001e0032002e009000e60f5000ca
:10524c00170035002e009000e70f50001c003200b4
:10525c002e009000e80f50001e0032002100370095
:10526c009e4090001e4078001c0c07001e0037006a
:10527c009e4090001e4078006e1507001a00370003
:10528c009e4090001e4078007a1b070016003700e5
:10529c009e4090001e407800461407001200370014
:1052ac009e4090001e4078009e0807000e003700bc
:1052bc009e4090001e4078003b0f07000a0037000c
:1052cc002e4190009e4090001e4078000411070073
:1052dc00050037009e4090001e407800c112070068
:1052ec0001003700ca82a9000080fa000000060005
:1052fc000800fa00004f78001e80fb006101b90025
:10530c0010fc2f00f1ff2f000201400083814800a8
:10531c00220798003307980070032000010020003a
:10532c002e019000be019000800f5100818f59001a
:10533c00ee003e002e009000be00900000600100c8
:10534c00a6003700e9003700e8003700d00037002e
:10535c00b7003700e5003700e4003700b200370033
:10536c00e2003700e1003700e0003700df003700d3
:10537c00de0037007a00370029003700db003700e9
:10538c00530037005a003700d8003700d7003700d9
:10539c00d6003700d5003700d40037005600370050
:1053ac00d2003700d1003700d0003700cf003700d3
:1053bc00ce003700cd003700cc003700cb003700d3
:1053cc00ca003700c9003700c8003700b0003700ea
:1053dc0097003700c5003700c40037009200370033
:1053ec00c2003700c1003700c0003700bf003700d3
:1053fc00be0037005a00370009003700bb003700e9
:10540c00330037003a003700b8003700b7003700d8
:10541c00b6003700b5003700b4003700360037004f
:10542c000041eb008040eb00a0ccb30068ff07000c
:10543c00280407000040eb0026fab7000f003700e5
:10544c0026dabf000040e80044070700408a280025
:10545c002e05070026dabf000080fb00800040000c
:10546c00c097210000804000100078003d05070027
:10547c0026dabf000040e80026fab70026dabf00a3
:10548c00e84f5000eeff3600708a28001f05070019
:10549c0090c0b300a00707000040e90055fab70020
:1054ac00d08a28002f0507000041eb008040eb005c
:1054bc0080ccb30046ff0700ca82a8000041eb0075
:1054cc008040eb0090ccb30041ff07008a0037000e
:1054dc00608b28000d05070040c0b3008e07070045
:1054ec0056fab700808e28001e0507008200370090
:1054fc00808f28001b05070021e3a800909228004c
:10550c000205070090c0b300cd07070020d188002a
:10551c0020d18000d7070700a0c0b300c807070040
:10552c0020d18800f0932800f804070020d18000d7
:10553c00d0070700b0c0b300c107070020d1880016
:10554c0090942800f104070020d18000c9070700bf
:10555c00609528000305070021e3a90066003700c9
:10556c0057dabf00644060000004e00003003a001a
:10557c00c0c0b300db0407005f0037009095280023
:10558c00e204070020c0b300630707000040e900f5
:10559c0061406000614060004301dd0071a52100a5
:1055ac009140780070cfb30000c0600002407000e2
:1055bc0057fab70057dabf00684060000004e000fb
:1055cc0003003a00e0972800e60407004a00370081
:1055dc00a0992800e3040700470037000040eb00c7
:1055ec0026fab7000c00370026dabf000080fb005b
:1055fc0080004000e09821000080400010007800fe
:10560c00c2040700709b2800c004070026dabf0004
:10561c000040e80026fab70026dabf00fc4f500025
:10562c00f1ff360034003700130407003200370056
:10563c00a09b2800b504070020c0b3003607070064
:10564c000040e900614060006140600000414000a2
:10565c0071a5210091407800d0cfb30000c060004c
:10566c000240700057fab70057dabf006240600082
:10567c000004e00003003a00909e2800b9040700e3
:10568c001d00370080a02800b60407001a00370060
:10569c0010a228009d04070090c0b3001e0707004d
:1056ac000040e90054fab70050aa280097040700fc
:1056bc00340707000000370085c0bf006840600059
:1056cc000004e000fcff32003011800026fab70025
:1056dc008560a90061a221009140780000c2b3004e
:1056ec0080cf500004003200f3ff37008000eb0045
:1056fc0011079800020037001200200012079800d2
:10570c001e0090000080fa00000006000800fa005d
:10571c00000f78001107980055dabf000004e00074
:10572c0003003a0080ad280078040700920137008e
:10573c000000eb00c0d1880087013700c0d1800089
:10574c00800078001e00900000804000104078001f
:10575c00e101070027fab70027dabf000080fb0041
:10576c006101b90022079800330798003006200029
:10577c00010020002e019000be019000800f51000e
:10578c00818f59006a013e002e009000be009000ef
:10579c00006001008a00370065013700eb0037001c
:1057ac00630137006201370061013700790037006f
:1057bc005f0137005e0137005d0137005c01370087
:1057cc005b0137005a013700590137005801370087
:1057dc005701370056013700550137005401370087
:1057ec005301370052013700510137005001370087
:1057fc00940037004e0137004d0137004c01370043
:10580c004b0137004a013700490137004801370086
:10581c004701370046013700450137004401370086
:10582c004301370042013700410137004001370086
:10583c003f0137003e0137003d0137003c01370086
:10584c003b0137003a013700390137003801370086
:10585c00370137003601370035013700310037008a
:10586c003200370033003700680037003300370050
:10587c00370037003b0037002d0137002c01370073
:10588c002b0137002a013700290137002801370086
:10589c002701370026013700250137002401370086
:1058ac002301370022013700210137002001370086
:1058bc001f0137001e0137001d0137001c01370086
:1058cc001b0137001a013700190137001801370086
:1058dc001701370016013700150137001401370086
:1058ec001301370012013700110137001001370086
:1058fc000f0137000e0137000d0137000c01370086
:10590c000b0137000a013700090137000801370085
:10591c000701370006013700050137000401370085
:10592c00070137001a03070005013700260307009b
:10593c00030137003203070001013700c282a800bf
:10594c00caa2a80020af280006040700fc003700fc
:10595c00c282a900caa2a90060b0280001040700f5
:10596c00f700370021e3a800b0b12800e7030700d7
:10597c00c0c0b300b2060700a0d18800a0d180003f
:10598c00bc060700b0b22800f603070021e3a9000b
:10599c00eb0037001e01900081a321001e0078004f
:1059ac00f7000700a0d18800a0d1800080407800cb
:1059bc000041eb0060c0b30005fe0700e0003700bb
:1059cc001e01900081a321001e007800ec0007004e
:1059dc00a0d18800a0d18000e10f500005003a0052
:1059ec000041eb008040eb000040eb00f8fd0700ad
:1059fc00d3003700a0d18000804078000041eb003c
:105a0c0010c0b300f2fd0700cd0037001e0190005e
:105a1c0081a321001e007800d9000700a0d18800c6
:105a2c0010b32800b9030700a0d180000c060700b2
:105a3c0080b32800b5030700a0d1800089030700bc
:105a4c00bf0037000000eb00a0d18800c0d180005f
:105a5c000000e800c0d18800c0d180009e0f50002b
:105a6c0004003a00c0d180000000e900c0d18800d9
:105a7c0030003700c0d18000800078001e009000fc
:105a8c000080400090407800f0c2b30080cf5000fe
:105a9c001a003600c0d18000800078001e009000f3
:105aac000080400090407800f0c3b30080cf5000dd
:105abc0012003e00a0d180006a00b900a0d188007d
:105acc00c0d18000800078001e0090000080400053
:105adc00104078008080fb00a0d1800080804000c6
:105aec0000fd2f0000804000a0d18800c0d18000b4
:105afc000000e800c0d18800d7ff3700c0d180007b
:105b0c00800078001e0090000080400090407800db
:105b1c0090c2b30080cf500006003200c0d180008c
:105b2c000000e900c0d18800b0d180000000e8007e
:105b3c00b0d18800a0d18000804078000041eb00fb
:105b4c0070c1b300a2fd07007d0037000000eb0020
:105b5c00a0d188000040eb0029fab700c0d180002a
:105b6c009e0f500004003a00c0d180000000e900f4
:105b7c00c0d1880053003700c0d18000800078006d
:105b8c001e0090000080400090407800f0c2b300ee
:105b9c0080cf500008003600c0d180008000780013
:105bac001e009000008040009040780090c3b3002d
:105bbc0080cf500030003600c0d1800080007800cb
:105bcc001e009000008040009040780000c4b3009c
:105bdc0080cf500008003600c0d1800080007800d3
:105bec001e009000008040009040780060c4b3001c
:105bfc0080cf500020003600c0d18000800078009b
:105c0c001e009000008040009040780000c6b30059
:105c1c0080cf500008003600c0d180008000780092
:105c2c001e009000008040009040780060c6b300d9
:105c3c0080cf500010003600c0d18000800078006a
:105c4c001e009000008040009040780080c7b30098
:105c5c0080cf500008003200c0d180008000780056
:105c6c001e009000008040009040780080c6b30079
:105c7c0080cf500010003a00a2d18000c0d180002b
:105c8c00800078001e00900000804000904078005a
:105c9c0080a221000000410001487800a0d18000c2
:105cac000000e800a0d18800c0d180000000e8000e
:105cbc00c0d18800a9ff3700c0d180000000e900e6
:105ccc00c0d18800a0d1800081a221006001070012
:105cdc0027fab7001e01900081a321001e00780056
:105cec0027000700a0d18800a0d18000e10f500050
:105cfc0006003a0071a22100914078000041eb00af
:105d0c0020c0b30032fd070006003700a0d1800090
:105d1c000041780071a221009140780030c0b3009e
:105d2c002bfd07000000eb00a0d188000400370019
:105d3c0027dabf000041eb008040eb0024fd070098
:105d4c00b0d180000000e00006003a00c0d1800015
:105d5c000000e800c0d18800c0d180009e0f500028
:105d6c0076fe3900b0d180000000e0000200320065
:105d7c00d0b32800e50207000080fa0000000600fe
:105d8c000a00fa00100798002107980032079800c3
:105d9c000000eb00000f78002e009000100078003f
:105dac008000e8001e009000808f500045003100fc
:105dbc002e00900010007800800078003e009000cb
:105dcc00008040000000e80090407800a0c3b300c1
:105ddc0080cf50003b003a002e009000100078005d
:105dec008080e8002e009000010878002e009000c2
:105dfc00900078001e009000808f50000400390045
:105e0c002e0090000080e900200798002a0037003f
:105e1c002e00900010007800800078003e0090006a
:105e2c000080400090407800f0c2b30080cf50005a
