:020000040000FA
:10000000040C040000000000DC7C0000DC7C00002C
:10001000DC7C0000DC7C0000DC7C0000DC7C000080
:10002000DC7C0000DC7C0000DC7C0000DC7C000070
:10003000DC7C00007C100000DC7C0000DC7C00002C
:10004000DC7C0000DC7C0000DC7C0000DC7C000050
:10005000DC7C0000DC7C0000DC7C0000DC7C000040
:10006000DC7C0000DC7C0000DC7C0000DC7C000030
:10007000DC7C0000DC7C0000DC7C0000DC7C000020
:10008000DC7C0000DC7C0000DC7C0000DC7C000010
:10009000DC7C0000DC7C0000DC7C0000DC7C000000
:1000A000DC7C0000DC7C0000DC7C0000DC7C0000F0
:1000B000DC7C0000DC7C0000DC7C0000DC7C0000E0
:1000C000DC7C0000DC7C0000DC7C0000DC7C0000D0
:1000D000DC7C0000DC7C0000DC7C0000DC7C0000C0
:1000E000DC7C0000DC7C0000DC7C0000DC7C0000B0
:1000F000DC7C0000DC7C0000DC7C0000DC7C0000A0
:10010000DC7C0000DC7C0000DC7C0000DC7C00008F
:10011000DC7C0000DC7C0000DC7C0000DC7C00007F
:10012000DC7C0000DC7C0000DC7C0000DC7C00006F
:10013000DC7C0000DC7C0000DC7C0000DC7C00005F
:10014000DC7C0000DC7C0000DC7C0000DC7C00004F
:10015000DC7C0000DC7C0000DC7C0000DC7C00003F
:10016000DC7C0000DC7C0000DC7C0000DC7C00002F
:10017000DC7C0000DC7C0000DC7C0000DC7C00001F
:10018000DC7C0000DC7C0000DC7C0000DC7C00000F
:10019000DC7C0000DC7C0000DC7C0000DC7C0000FF
:1001A000DC7C0000DC7C0000DC7C0000DC7C0000EF
:1001B000DC7C0000DC7C0000DC7C0000DC7C0000DF
:1001C000DC7C0000DC7C0000DC7C0000DC7C0000CF
:1001D000DC7C0000DC7C0000DC7C0000DC7C0000BF
:1001E000DC7C0000DC7C0000DC7C0000DC7C0000AF
:1001F000DC7C0000DC7C0000DC7C0000DC7C00009F
:10020000FFFFFF00FFFFFF00DC7C0000DC7C000044
:10021000DC7C0000DC7C0000DC7C0000DC7C00007E
:10022000DC7C0000DC7C0000DC7C0000DC7C00006E
:10023000DC7C00007C100000DC7C0000DC7C00002A
:10024000DC7C0000DC7C0000DC7C0000DC7C00004E
:10025000DC7C0000DC7C0000DC7C0000DC7C00003E
:10026000DC7C0000DC7C0000DC7C0000DC7C00002E
:10027000DC7C0000DC7C0000DC7C0000DC7C00001E
:10180000040C000000000000AFC72100007F220090
:1018100000018800000000000A0007001100070016
:10182000000020000000E000020032000000020082
:1018300000000000CE0F0200000000000040DA00AF
:101840000000FE004440A90020CB21000000E00081
:101850000300320000002000A00188004440A800DE
:1018600000000600809D27000100200015003700C1
:1018700062004000E0804800910188009001BA00B9
:1018800062004000E0804800910188009002BA00A8
:1018900062004000E08048000002EB006028E100A8
:1018A00004003A000059EB008301E900FDFF3E000F
:1018B000040037006128E100010032000082EB00E3
:1018C00005000700910188001001BA000200E00045
:1018D000E7FF3A00000005009101880080027800CF
:1018E00062004000E08048003559BA008301E900F9
:1018F000080032002559BA008301E90005003200D2
:101900000400E000F4FF320015D9BA008301E900B9
:10191000F1FF3A00000006002C3204000000000035
:101920003C320400000000005032040000000000BF
:101930004E33040000000000BC330400000000002F
:101940001A32040000000000DA3304000000000036
:10195000EA330400000000002E3404000000000000
:101960009A34040000000000B834040000000000B5
:10197000F6350400000000005836040000000000A6
:10198000CA36040000000000EC360400000000002D
:10199000CE320400000000004C37040000000000BC
:1019A0006837040000000000889FBE008A9FBE00C8
:1019B000010578000100E0000400350008003C004B
:1019C0000000E00020003200050037006000100039
:1019D000E080180002003B0001F02C001A003700E4
:1019E0000004BE006011B8006B0920000982CF001E
:1019F000020039000882CF000441B0006942520061
:101A00000E00320008003B00828171006101640019
:101A10008904D1000884D3008B05E8000442E80063
:101A2000F9FF3A00050037000804440089844C009F
:101A30008B05E9000442E900FBFF3A0004010700BE
:101A40000AF0A70001F0A0004F05BE004F04BE0041
:101A50000000060003F0A200889FBE008A9FBE001F
:101A60008C1F780020010700270133006450E1003B
:101A70004F0032006420E1005200320003826C000B
:101A800007003B000905D0000306D000820F540078
:101A90000C065D0002003900020032008901780066
:101AA000030678008582550004003D000003FD0018
:101AB0008103FD008502EA008B854200840F7200DD
:101AC00002003B0060001000E08018006011B800C8
:101AD0000005EB007A28E1000A00390006007800D2
:101AE000C75DDD00F707B200878075002D00370065
:101AF000828171000A017800610560008180D10057
:101B00000080D3008502E900F9FF3B000604400095
:101B10008784480002003B0060041400E0841C003D
:101B20000988A300070032008A8171008281710058
:101B3000610164008904D1000884D3008B05E800AA
:101B4000170037000978A30013003A000B00E000EB
:101B5000130034008B05E9000804440089844C001C
:101B60000A4474000978A3000D003A000B00E0005D
:101B7000070034008B05E9000804440089844C0008
:101B800001003A000B0020000978A300F7FF3200A3
:101B90000001EB0002003700828171000A01780029
:101BA000AB0007000CF0A70001F0A000DF00370039
:101BB0006420E10002003A00838F6C00DF003300F4
:101BC0000801BE000200BE00D8003700889FBE009A
:101BD0008A9FBE008C1F7800C3000700CA00330034
:101BE00003866C006450E1002E0032006420E100A6
:101BF000330032006150E1002F0032006120E1002B
:101C00003100320085855500EB07B0000900200047
:101C100008042000050037000804440089844C00B3
:101C20000A0031000603430087834B000001530084
:101C300081815B00F8FF33000203BE000800A000B2
:101C40000804440089844C00F6FF3900C639DD00E1
:101C50008301730001003200130020008904D100C9
:101C60000884D3000998A300050032000800A700EB
:101C70000300A0008904D1000884D3008B05E8008C
:101C80008904D1000884D3000001EB000281D20056
:101C90006F00070001F0A1000CF0A70001F0A00008
:101CA000A20037006420E100A40032000801BE0059
:101CB0000200BE00F7FF37006120E1009F00320004
:101CC0006000B800F3FF37000000200001F8270093
:101CD000F0FF3700889FBE008A9FBE008C1F7800EF
:101CE000810007008800330003866C006450E10027
:101CF000240032006420E100270032006150E1003E
:101D0000220032006120E100210032008B85420078
:101D1000EB07B1000134B800003AB80008044200F3
:101D200089844A00013AB8000030B8008880400039
:101D300009014A000400330000004000818048008F
:101D4000020149008B05E900C909DD00830170002B
:101D50000100320013002000C814DE004814DD002A
:101D60004709DE001200B200C808DE0008847000D7
:101D70003700070001F0A1000CF0A70001F0A0005F
:101D80006A0037006120E1006C0032000801BE00EB
:101D90000200BE00F7FF37006150E100FCFF3A008F
:101DA000660037000001BE00670007000470A7004E
:101DB00003F0A10003F8A30013003A006509B10085
:101DC00010003200090035006928E10002003500EA
:101DD000010028000000050000004000818048004C
:101DE0008502E900FCFF3A0000000600F88F42007F
:101DF000050035008100D1000080D3008502E80095
:101E0000FCFF3A00000006008000EB000000050027
:101E10006022B800060220000000D0008180D200BD
:101E20000482D2008582D2000000A000020252008B
:101E300083825A00030031000202420083824A007A
:101E40000000A1000603E900F3FF3A0000000600CD
:101E500081002000618055000B003D000B00200038
:101E600061FE2F000100E1001D003400828171003D
:101E7000610164008904D1000884D3000000E800F7
:101E8000FAFF3A0071002000610064000300700056
:101E9000020060000900320061044400E0844C004C
:101EA0000988A500050032008B05E8006808E100FC
:101EB00002003A008904D1000884D300F20F200008
:101EC0000258E10005003D00C75DDD00F907B200E2
:101ED0008980750008007800000006000BF82700D4
:101EE0008B007800000005000004BE00160007000B
:101EF0000003BE000405BE000200BE001200070081
:101F0000844F7500000006000200BE006450E1002E
:101F1000050036006420E100020036000968A300D5
:101F200001003A000800BE000160A0004F067800E2
:101F30004F05BE004F04BE0000000600F0FF2F005A
:101F4000F1FF2700F9FF3700C70ADE00F107B200F2
:101F5000F50FB20008003200E1CF4200020032006B
:101F60000170A00024000500810F70000100320004
:101F70000408050044000500810F700002003A00CB
:101F8000140005008502E9000000400081C04800FF
:101F9000FCFF3B000170A000240005000200FA00D5
:101FA00032000700000037008280200001FA200084
:101FB000807A210011200700E10F500018003A003C
:101FC00040BD8000000F78001E0078000000E00097
:101FD000040032001E007800E10F500004003200BF
:101FE0000700370010C1B300672207000700370061
:101FF00008C8BF00CA1C07000004E00003003A0044
:1020000040BD800081802000461E07000000EB00DC
:1020100040BD8800AF1C0700E0C3B300502207009A
:1020200006C8BF00644060000004E0000400320005
:102030000001EB008000EB0060C1B3004C1C070006
:1020400078DCBF00E14F5000D7FF3A000040EB00C2
:1020500078FCB700E09B2F00442107009D1C07007F
:10206000E0C3B3003E220700CFFF37000000FA00B4
:102070004507A9000080EB00601988004227A900ED
:10208000416A20009140780000CEB30000C060009B
:102090000024A000A4E6B700316C20009140780035
:1020A00000CEB30000C060003040B300C3E6B7000C
:1020B00080C0B30000E8B7000000EB0010408800CB
:1020C000DB060700E906070010C1B3002422070061
:1020D000D0C0B30022220700A0C0B3002022070016
:1020E000121D07007B1C0700E0C3B3001C22070081
:1020F0000080FA0000000600801F78000000FA004F
:102100008460A9009460A9000080EB00100888009A
:102110000000EB002008880010C0B30078FCB70076
:102120000080FA004F007800004006000800FA0026
:10213000004F780011079800424798008000070080
:10214000E0CFB3001E40600046000700B500070066
:102150000004E00011003A00890007000000EB00D5
:1021600030079800160037001E00900010407800DD
:102170003C000700AB0007000004E00004003A0048
:102180007F0007000000EB00300798000C003700CC
:102190001E0090000000E800100798004E409000DC
:1021A0000040E900404798004E409000E14F400059
:1021B000EDFF3A0072000700100020003007980081
:1021C0003E0090000080FA00000006000800FA00BF
:1021D000004F780011079800424798005800070008
:1021E0001E4078000004A0001E0007008D000700BC
:1021F0000004E0000F003A00610007000000EB005F
:102200003007980014003700320007008040780043
:102210001E009000014878001E0090000000E800B9
:10222000100798004E4090000004E00001003400C8
:10223000970007004E4090000040E900404798009A
:102240004E409000E14F4000EFFF3A004C00070085
:1022500010002000300798003E0090000080FA0037
:10226000000006000400FA0020479800CB22A900D5
:10227000CB02A90040C6B3009000070080C0B300A5
:10228000004F78000D0037002E4090000004E00061
:1022900003003500CB22A900C922A90001003700A4
:1022A000C922A8002E4090000000FB000000400062
:1022B000204798003A0007001E4FE9001E04E00086
:1022C000F1FF3C00C922A800100020000080FA00A5
:1022D000000006000200FA000040EB00004F78000A
:1022E000CB22A900CB02A90040C6B30073000700AF
:1022F00080C0B300104798000B0037001E00FB00A1
:1023000000004000004F7800C922A8002F000700FD
:102310000004E000010032001E4FE8001E40900063
:102320000040E900104798001E4090000004E000C3
:10233000F2FF3C001E00FB000080FA0000000600D7
:102340000000FA00C922A800C902A800CB02A90017
:10235000CB22A90020C3B30058000700C922A9005E
:10236000CB22A90020C3B30054000700C902A90072
:1023700040C6B300510007000080FA0000000600CC
:102380000000FA00C922A900C902A80020C3B300B6
:102390004A000700C922A8000080FA0000000600D9
:1023A0000000FA0040C1B30044000700C902A800C1
:1023B00040C6B30041000700C902A90040C6B300EF
:1023C0003E0007000080FA00000006000200FA004C
:1023D0000040EB00004F780040C1B3003700070019
:1023E000C902A80020C3B30034000700CBC2BF005D
:1023F000624060000004E0000200320010C0B30040
:10240000004F780020C3B3002C000700C902A900C8
:1024100040C6B300290007001E00FB000080FA0040
:10242000000006000200FA00CB22A900CB02A9009E
:10243000C902A900C922A800C902A80020C3B3008C
:102440001E000700CBC2BF00624060000004E00035
:10245000030032000000EB00000F78000900370095
:1024600020C3B30015000700C902A90040C6B3008D
:102470001200070040C6B300100007001000200043
:10248000000F78001E0078000080FA0000000600AF
:102490000000FA00CB22A900C922A90040C1B30064
:1024A00006000700BEFF0700C922A80040C1B30014
:1024B000020007000080FA00000006000400FA0095
:1024C000204798000040EB00004F780013003700D1
:1024D00000000000000000000000000000000000FC
:1024E00000000000000000000000000000000000EC
:1024F00000000000000000000000000000000000DC
:1025000000000000000000000000000000000000CB
:102510001E4078000040E800004F78001E40780020
:102520008080FB002E4090000000FB00808F500058
:10253000E7FF35000080FA00000006000C00FA00FA
:10254000004F780011079800220798001E80FB00BA
:102550006101B9003207980043079800A0012000EC
:10256000010020003E019000CE019000800F51003C
:10257000818F5900B2003E003E009000CE009000D6
:10258000006001004100370063003700370037006A
:1025900036003700390037009300370069003700F4
:1025A00071003700790037007F0037008200370064
:1025B0008500370088003700A1003700A0003700F1
:1025C0009F0037009E0037009D0037009C003700B9
:1025D0009B0037009A0037009900370098003700B9
:1025E00097003700020037001C00370096003700C4
:1025F0000668A80006A8A80060C1B300E220070092
:10260000120020002100200010002000421E0700C0
:102610000040E900614060006141600041C5210067
:1026200091407800E0CFB30000C06000024070002D
:1026300054FCB70054DCBF006140600000C0EA00F9
:1026400061406000C700DD0006C8BF000074A10043
:102650000140700006E8B7007B0037007C000700EF
:10266000808C2F00C11F0700770037007F00070014
:10267000708D2F00BD1F0700730037008700070013
:10268000308F2F00B91F07006F0037002E00900019
:10269000E10F500007003A000040EB00BA200700AD
:1026A000C800070052FCB70052DCBF0081050700DC
:1026B0001400370010C0B300B32007002E009000B4
:1026C0007C050700D0902F00921F07000000EB0050
:1026D00080E2880007003700BA0007007505070090
:1026E00070912F008B1F070080E280000000E8003F
:1026F00080E2880081E280002E009000808F5000F0
:10270000F5FF3900D0C0B30095200700A0C0B3008A
:10271000932007004C00370030C0B3009A20070018
:102720001E0090007A0007001E009000610507005F
:10273000D0C0B3008A200700A0C0B30088200700E3
:1027400041003700CC00070052FCB70050C0B30076
:102750008D20070052DCBF00671F070070C0B30068
:10276000892007003800370060C0B30086200700CA
:10277000E600070052FCB70052DCBF005E1F0700F6
:1027800070C0B300802007002F0037002E0090009B
:102790004805070080C0B3007B2007002E00900092
:1027A000CD0007002800370090C0B3007620070056
:1027B0000B01070024003700A0C0B30072200700FF
:1027C0000001070020003700B0C0B3006E200700F2
:1027D000E10007001C003700C0C0B3006A200700FA
:1027E000D6000700180037009E009000510798009F
:1027F0005E019000E10F510009003200DE019000FF
:10280000E18F5100040039005E009000E20F50009B
:102810000600320007003700E70607000A0037000D
:1028200054DCBF0061406000E8060700FA060700BC
:1028300005003700F0C0B300532007000200370046
:1028400000C1B300502007000080FA00000006001D
:102850000000FA00CB02A900CB22A900C922A800DF
:10286000C902A9000080FA00000006000000FA007A
:10287000CB02A90040C1B30045050700B600070020
:10288000D700070040C1B30041050700AB000700B7
:10289000CC0007000080FA00000006000000FA00EB
:1028A00013000700A5000700CD000700AA000700DD
:1028B00040C1B30036050700C20007000080FA00DF
:1028C000000006000000FA00CB02A900C902A9001E
:1028D00040C1B3002E050700C922A800CB22A900E1
:1028E00040C1B3002A0507000080FA00000006007E
:1028F0000000FA00CB02A900C902A90040C1B30040
:1029000023050700C922A9000080FA000000060084
:102910000600FA00404798004E409000204798007B
:10292000F3FF070006C8BF00704060000004E0002D
:1029300003003A0000C8B3001047980002003700B7
:1029400010C0B300104798000040EB00004F780023
:10295000170037002E4090009E409000014060001C
:102960000004E00002003A00740007000100370094
:102970007900070006C8BF00704060000004E00056
:1029800004003A002E40900000404000204798008C
:10299000040037002E4090000080FB000000D100B2
:1029A0002047980010C0B3004B0007001E4FE800FE
:1029B00070C0B3009E4F1000E6FF36000080FA00A2
:1029C000000006000400FA000040EB00004F780011
:1029D000BCFF07000040EB002047980020003700B4
:1029E0007F000700CBC2BF000080FB000000D100C9
:1029F000614060001047980006C8BF00704060004A
:102A00000004E0000B0032001E80FB000000D1003B
:102A1000004F78001E4090000004E0000C003200DF
:102A20001E40780001C8B30001404000004F78000C
:102A3000070037001E40780000404000004F78003B
:102A40001E4090000004E000010032001E4FE8002C
:102A50005C0007002E4090000040E80020479800EE
:102A60002E409000E74F5000DDFF36001E80FB0037
:102A70000080FA00000006000200FA0091FF070043
:102A800057000700CBC2BF000080FB000000D10050
:102A900061406000004F78004A0007001E80FB0084
:102AA0000080FA00000006000200FA00004F7800E3
:102AB0008FFF07001E04E00002003A001F0007001D
:102AC000010037002400070010C0B3000200070017
:102AD0000080FA00000006000400FA002047980079
:102AE0000040EB00004F7800030037003C00070077
:102AF000340007001E4FE8002E4090009E4F10004B
:102B0000FAFF39000080FA00000006000000FA0019
:102B1000C922A80000000000000000000000000022
:102B2000CBC2BF000080FB000000D100614060000C
:102B30000080FB000080FA00000006000000FA00A0
:102B4000CB22A900C922A90040C1B300900407000C
:102B50000080FA00000006000000FA0054DCBF000C
:102B60006140600000C0EA006140600061406000B8
:102B700000414000912C200091407800D0CFB3005C
:102B800000C0600002407000C9E2B70054DCBF0022
:102B9000614060006140600000414000B12C2000B5
:102BA00091407800D0CFB30000C0600002407000B8
:102BB000CBE2B70040C1B300750407000080FA0003
:102BC000000006000000FA00CB02A900C902A9001B
:102BD00040C6B3006E0407000080FA000000060043
:102BE0000000FA0054DCBF006140600000C0EA0051
:102BF0006140600061416000912C200091407800AC
:102C0000E0CFB30000C0600002407000C9E2B7002E
:102C100054DCBF006140600061416000B12C2000C5
:102C200091407800E0CFB30000C060000240700027
:102C3000CBE2B70040C6B300550407000080FA009D
:102C4000000006000A00FA00004F78001107980003
:102C5000220798001E80FB006101B900320798002E
:102C60004307980090012000010020003E019000E1
:102C7000CE019000800F5100818F5900D0003E009E
:102C80003E009000CE009000006001001900370067
:102C90003D003700B8003700B7003700C0003700EC
:102CA000C400370067003700720037007C0037002F
:102CB0008200370085003700880037008B0037001E
:102CC000BF003700BE003700BD003700BC00370032
:102CD000BB003700BA003700B9003700B800370032
:102CE000B7003700B6003700B50037008300370063
:102CF0009C0037002E009000E10F500008003A00C1
:102D000000C0EB00BD00070058FCB7000040EB001E
:102D10001D1F070058DCBF00E60307001500370041
:102D200010C0B300181F07002E009000E103070039
:102D3000A0912F00F71D07000000EB00B0E2880013
:102D40000800370000C0EB00AC000700D903070003
:102D500040922F00EF1D0700B0E280000000E80065
:102D6000B0E28800B1E280002E009000808F500019
:102D7000F4FF3900D0C0B300F91E0700A0C0B300B3
:102D8000F71E0700900037002E009000E10F500062
:102D900010003A0030C0B300FB1E07001E00900078
:102DA000C40307001E0090009400070058FCB70001
:102DB0005ADCBF00624060000004E0001C003200EA
:102DC00060922F00D31D070058DCBF00B903070035
:102DD0001700370040C0B300EB1E07001E00900034
:102DE000B4030700E0922F00CA1D07002E009000D8
:102DF000B003070020932F00C61D07000000EB0062
:102E0000B0E28800060037001E0090007B0007003B
:102E100058FCB700B0E280000000E800B0E2880093
:102E2000B1E280002E009000808F5000F6FF390044
:102E3000D0C0B300CA1E0700A0C0B300C81E070060
:102E40006100370010C0B300B200070058FCB700A3
:102E500050C0B300CC1E070058DCBF00A61D070001
:102E6000D0C0B300BE1E0700A0C0B300BC1E070048
:102E70005500370060C0B300C31E0700B60007004E
:102E800058FCB70058DCBF009B1D0700D0C0B30042
:102E9000B31E0700A0C0B300B11E07004A003700F0
:102EA0002E0090008303070080C0B300B61E070009
:102EB0002E009000D10007004300370090C0B300FF
:102EC000B11E0700E10007003F003700A0C0B300BB
:102ED000AD1E0700D60007003B003700B0C0B300AE
:102EE000A91E0700AA00070037003700C0C0B300C2
:102EF000A51E07009F0007003300370060C1B30024
:102F0000A11E070012002000210020001000200058
:102F1000011C07000040E900614060006141600061
:102F2000A1C5210091407800E0CFB30000C060004F
:102F3000024070005AFCB7005ADCBF0061406000DC
:102F400000C0EA0061406000C700DD0006C8BF00A5
:102F50000074A1000140700006E8B7000668A800F0
:102F6000190037005A3CA9001900070090932F0060
:102F70007E1D07001400370031C0B3009ECF100043
:102F800002003A005A3CA800010037005A3CA90050
:102F9000E200070080942F00741D07000A0037002C
:102FA0005A3CA900C200070030952F006F1D070092
:102FB00005003700F0C0B300731E070002003700A1
:102FC00000C1B300701E07000080FA000000060078
:102FD0000000FA00C8E2A800C902A800C922A8009F
:102FE000CAE2A900CB02A900CB22A900CAC2A8004C
:102FF000C8C2A9000080FA00000006000600FA001E
:10300000404798008A00070006C8BF007040600073
:103010000004E0000300320010C0B300004F78004D
:103020000200370000C8B300004F78000040EB00FA
:1030300030479800300037004E4090001E4060003E
:103040000004E00002003A004A00070001003700D7
:103050004F0007007D000700CAC2BF000080FB00D0
:103060004700DE002047980006C8BF00704060009F
:103070000004E000100032004E4090000080FB0091
:103080000000D100404798001E4090000080FB00E7
:103090000000D100104798002E409000E14F5000F2
:1030A00011003A001E40900001C8B30001404000EA
:1030B000104798000C0037004E4090000040400040
:1030C000404798001E409000004040001047980084
:1030D0002E409000E14F500003003A001E40900047
:1030E0000040E80010479800510007003E40900063
:1030F0000040E800304798003E409000E74F500005
:10310000CDFF36001E4090000080FB000080FA00DA
:10311000000006000400FA00204798002E409000AE
:103120000004E00002003A0012000700010037002E
:103130001700070045000700CAC2BF000080FB005F
:103140004700DE00004F7800390007001E80FB00BA
:103150000080FA00000006000000FA00CAC2BF00AA
:103160000080FB004700DE000080FB000080FA00CA
:10317000000006000000FA00CB22A900C922A90025
:1031800040C1B300020307000080FA0000000600FF
:103190000000FA005ADCBF006140600000C0EA0095
:1031A000614060006140600000414000912C2000BF
:1031B00091407800D0CFB30000C0600002407000A2
:1031C000C9E2B7005ADCBF006140600061406000A6
:1031D00000414000B12C200091407800D0CFB300D6
:1031E00000C0600002407000CBE2B70040C1B300F5
:1031F000E70207000080FA00000006000400FA0061
:10320000204798000040EB00004F78000300370093
:103210000E000700060007001E4FE8002E40900039
:103220009E4F1000FAFF39000080FA0000000600EF
:103230000000FA00CB02A900C902A90040C6B300F1
:10324000D30207000080FA00000006000000FA0028
:103250005ADCBF006140600000C0EA0061406000CD
:1032600061416000912C200091407800E0CFB300D4
:1032700000C0600002407000C9E2B7005ADCBF0025
:103280006140600061416000B12C200091407800F5
:10329000E0CFB30000C0600002407000CBE2B70096
:1032A00040C6B300BA0207000080FA000000060022
:1032B0000000FA005ADCBF006140600000C0EA0074
:1032C00061406000614060004601DD00812C20000B
:1032D00091407800F0CBB30000C060000240700065
:1032E000C8E2B7005ADCBF00614060006140600086
:1032F0004601DD00A12C200091407800F0CBB30006
:1033000000C0600002407000CAE2B70040C1B300D4
:103310009F0207000080FA00000006000000FA008B
:10332000CAC2A900C8C2A90040C1B30098020700E0
:103330000080FA00000006000A00FA00004F780042
:1033400011079800220798001E80FB0030079800A4
:103350003E009000E40F5000280032003E00900034
:10336000E40F50000A003C003E009000E10F5000C6
:103370004B0032003E009000E10F500015003C0071
:103380003E0090000000E00020003200CD00370039
:103390003E009000F80F5000550032003E009000B3
:1033A000F80F500004003C003E009000E50F500074
:1033B000AA003200C30037003E009000F90F500011
:1033C0009F0032003E009000FA0F5000A100320032
:1033D000BC00370030C0B3009E4F100002003A001E
:1033E000617CA80001003700617CA900F2010700A0
:1033F000602A2F005D1C0700B4003700EA010700B7
:10340000102B2F00591C0700B00037002E00900031
:10341000E10F500008003A000040EB005A1D070081
:1034200000C0EB00E80107005EFCB7005EDCBF00F7
:10343000200207001500370010C0B300521D07001E
:103440002E0090001B020700D02B2F00311C07001C
:103450000000EB00E0E288000800370000C0EB004D
:10346000D90107001302070000C2B3003C1D07008A
:10347000E0E280000000E800E0E28800E1E2800095
:103480002E009000808F5000F4FF3900D0C0B300B0
:10349000331D0700A0C0B300311D07008B003700AB
:1034A00030C0B300381D07001E0090000102070065
:1034B0001E009000C40107005EFCB70061DCBF0085
:1034C000684060000004E00004003200702C2F000F
:1034D000101C07005EDCBF00F6010700D0C0B3007F
:1034E0001F1D0700A0C0B3001D1D07007700370097
:1034F00090C2B300241D07001200200041002000EC
:1035000010002000841A07000040E90060FCB700AA
:10351000A0C2B3001C1D07001200200021002000E3
:10352000100020007C1A07000040E90061406000A4
:103530006141600011C6210091407800E0CFB300E6
:1035400000C060000240700061FCB700B0C2B30070
:103550000D1D070022002000210020001000200087
:103560006D1A07000040E9006140600061406000A2
:103570000041400011C6210091407800D0CFB30037
:1035800000C060000240700061FCB700C0C2B30020
:10359000FD1C070012002000210020001000200068
:1035A0005D1A07000040E900614060006140600072
:1035B0004201DD0011C6210091407800B0CFB30078
:1035C00000C060000240700061FCB70060C1B30041
:1035D000ED1C070012002000210020001000200038
:1035E0004D1A07000040E900614060006140600042
:1035F0004401DD0011C6210091407800F0CEB300F7
:1036000000C060000240700061FCB70061DCBF00D8
:103610000080FB004400DE006140600000C0EA0062
:1036200061406000C700DD0006C8BF000074A10053
:103630000140700006E8B7000668A90023003700C3
:10364000617CA900F4000700F02C2F00C71B0700C5
:103650001E003700400107001C0037001E009000CC
:10366000400798004E0090000000E0000400320087
:103670004E009000E10F5000040032000E003700B1
:10368000902D2F00A31B070010003700D02F2F0014
:10369000A01B0700120020003100200010002000B5
:1036A0001D1A07000040E9005EFCB7005EDCBF00A9
:1036B0000800070005003700F0C0B300B21C070087
:1036C0000200370000C1B300AF1C07000080FA0001
:1036D000000006000400FA002047980050332F0035
:1036E000A21B07001C0107004B0007002E409000A2
:1036F000E14F500008003E00CAC2BF000080FB003E
:103700004600DE0061406000804078002E4090005E
:1037100080CF500008003A0041C2BF0001C8B3008A
:10372000014060000004E0000E003A0041E2A80001
:1037300061E2A8000B00370041C2BF0001C8B3001E
:10374000014060000004E0000600320041E2A900F0
:1037500061E2A900D0C0B300811C0700A0C0B30083
:103760007F1C070040C2BF000042B2000004E0001E
:1037700004003A0040128000004F78001E4078009C
:103780004C01070060C2BF000042B2000004E0002C
:1037900008003A0040138000004F7800C0352F0029
:1037A0005C1B07001E40780042010700E0352F0037
:1037B000581B070040C2BF000044B2000004E000F4
:1037C00004003A0060C2BF000044B2000004E00000
:1037D0000500320010362F00641B070040C2A9000C
:1037E00060C2A9000800370022C2BF00614060002B
:1037F0000004E000BDFF320030118000004F78006F
:10380000F03A2F00431B07007000070082000700FA
:103810000080FA00000006000000FA00C8C2A800FC
:10382000C902A800C8E2A800C922A800816A200035
:103830009140780000CEB30000C060009040B3001B
:10384000A8E6B700916A20009140780000CEB3004E
:1038500000C060000034A000A9E6B700C16A2000E3
:103860009140780000CEB30000C060007040B3000B
:10387000ACE6B700D16A20009140780000CEB300DA
:1038800000C060000034A000ADE6B70060DCBF00FF
:103890008080FB0080C6210000804000104078003E
:1038A0000080FB001012880061DCBF0061406000F6
:1038B000614060004601DD00212420009140780035
:1038C000F0CBB30000C060000240700042E2B700DD
:1038D00061DCBF000080FB000000D100614060009F
:1038E000614160003124200091407800E0CFB300B6
:1038F00000C060000240700043E2B7000000EB002F
:10390000201288000000EB000012880060DCBF007D
:103910008080FB0080C621000080400010407800BD
:103920000080FB001013880061DCBF006140600074
:10393000614060004601DD002126200091407800B2
:10394000F0CBB30000C060000240700062E2B7003C
:1039500061DCBF000080FB000000D100614060001E
:10396000614160003126200091407800E0CFB30033
:1039700000C060000240700063E2B7000000EB008E
:10398000201388000000EB00001388000000EB000B
:10399000401288000000EB00401388004322A90079
:1039A0006322A9004362A80042A2A9006362A800A2
:1039B00062A2A90040C2A90060C2A9004402A800F6
:1039C0006402A8000080FA00000006000000FA006F
:1039D00041E2A9004362A90061E2A9006362A90073
:1039E000A8C6BF00F041B300A8E6B700A9C6BF0053
:1039F000F041B300A9E6B700ACC6BF00F041B30088
:103A0000ACE6B700ADC6BF00F041B300ADE6B7000D
:103A10000080FA00000006000000FA0041E2A90060
:103A200061DCBF00704060000004E00003003A0069
:103A3000CEE2A800CF02A800CEC2A800816A200072
:103A40009140780000CEB30000C060007040B30029
:103A5000A8E6B700916C20009140780000CEB3003A
:103A600000C060007040B300C9E6B700816C200060
:103A70009140780000CEB30000C060000034A00088
:103A8000C8E6B700CAC2A800C8C2A900C902A900F6
:103A9000C8E2A800C922A90060DCBF008080FB004A
:103AA00080C6210000804000104078000080FB00AC
:103AB0001012880042A2A80061DCBF0061406000D3
:103AC000614060004601DD00212420009140780023
:103AD000F0CBB30000C060000240700042E2B700CB
:103AE00061DCBF000080FB000000D100614060008D
:103AF000614160003124200091407800E0CFB300A4
:103B000000C060000240700043E2B70061DCBF000B
:103B10000080FB004200DE00614060006140600008
:103B2000004140003124200091407800D0CFB30004
:103B300000C060000240700043E2B7000000EB00EC
:103B4000201288000000EB000012880041E2A8006B
:103B50000080FA00000006000000FA0041E2A9001F
:103B6000A8C6BF00F041B300A8E6B700916C2000E2
:103B70009140780000CEB30000C06000C9E6B700F5
:103B8000816C20009140780000CEB30000C060003E
:103B9000C8E6B700CEE2A900CF02A900CEC2A900B4
:103BA0000080FA00000006000000FA00CAC2A80067
:103BB0000080FA00000006000000FA00CAC2A90056
:103BC0000080FA00000006000200FA00004F7800B2
:103BD0001E80FB004012880085C0BF00644060006A
:103BE0000004E000FCFF320040128000004F78002B
:103BF0008540A9001E80FB000080FA00000006003E
:103C00000000FA0006E8A9000608A9000648A90075
:103C10000628A9000668A9000688A90006A8A90028
:103C200006C8A9000708A9000080FA0000000600E5
:103C30000000FA00C922A800C902A800C8E2A80032
:103C4000C8C2A800C8A2A800CBC2A900C9C2A900C6
:103C50000000EB0020408800E9FF0700C962A800CF
:103C6000C942A8000080FA00000006000000FA0027
:103C700000C8BF000080FB008000400020BF210082
:103C80000080400010007800401188000000EB0028
:103C9000001188002062A8000000EB0010118800CD
:103CA00021E2A8002342A8008560A9000080FA0054
:103CB000000006000400FA00004F78001040800069
:103CC000100798001E009000E10F50000D00320018
:103CD0001E009000E10F5000070039001E00900008
:103CE000E20F50000A0032001E009000E30F500067
:103CF0000A0032000B0037001E80FB00F61A070096
:103D0000080037001E407800C21A0700050037007F
:103D10001E4078002F1A0700020037001E4078006E
:103D20000F1B07000080FA00000006000600FA00E2
:103D3000404798000040EB00204798000E003700F5
:103D40000000EB00000F780005003700A0CFB300A3
:103D50000F0007001E0078000000E800000F780048
:103D60001E007800E30F5000F8FF36002E40900050
:103D70000040E80020479800AE4090004E40900080
:103D800080CF5000EEFF39000080FA0000000600EE
:103D90000400FA00204798000040EB00004F780034
:103DA00013003700000000000000000000000000C9
:103DB0000000000000000000000000000000000003
:103DC00000000000000000000000000000000000F3
:103DD00000000000000000000000000000000000E3
:103DE000000000001E4078000040E800004F78000E
:103DF0009E4078002E40900080CF5000E9FF3900AF
:103E00000080FA00000006000A00FA00004F780067
:103E100011079800220798001E80FB0030079800C9
:103E20003E009000E40F5000580032003E00900029
:103E3000E40F50000A003C003E009000E10F5000EB
:103E40003F0032003E009000E10F50004B003C006C
:103E50003E0090000000E0001200320096003700A3
:103E60003E009000F80F50004C0032003E009000E1
:103E7000F80F500004003C003E009000E50F500099
:103E8000520032008C0037003E009000F90F5000C5
:103E9000460032003E009000FA0F500088003200C9
:103EA000850037002E009000E10F500008003A0016
:103EB0000040EB00B41A070006F9070025FCB70024
:103EC00073F9070025DCBF007AFF070017003700F1
:103ED00010C0B300AC1A07002E00900075FF070059
:103EE00020C0B300A81A07000000EB0010E1880012
:103EF0000A003700F7F8070024FCB70064F9070050
:103F000024DCBF006BFF070060032F00811907004E
:103F100010E180000000E80010E1880011E180005D
:103F20002E009000808F5000F2FF3900D0C0B30007
:103F30008B1A0700A0C0B300891A07006000370081
:103F400030C0B300901A07001E00900059FF070010
:103F50001E009000C3F8070032F907000004E000DB
:103F600003003A0080032F00801907005400370037
:103F700050042F007D19070051003700F0F80700AA
:103F800030052F00631907004D003700FCF80700CB
:103F900090062F005F190700490037000668A90046
:103FA00006A8A80006E8A80045003700460007005C
:103FB000E0072F006D190700D00A2F006B190700CA
:103FC000700D2F00691907003D0037001E0090009A
:103FD000400798004E009000E10F50000A003200A8
:103FE0004E009000E10F5000040039004E00900098
:103FF000E20F5000200032002C003700100E2F007E
:10400000441907002E00370090102F0057190700A1
:104010000000EB0010E188000E003700C8F8070030
:1040200010E180008FF80700FEF807000004E000B0
:104030000400320010E180001EFF070060032F0023
:1040400034190700CEF8070010E180000000E800F6
:1040500010E1880011E18000F00F2000808F5000F7
:10406000EEFF3600D0C0B3003D1A0700A0C0B30079
:104070003B1A07001200370030142F003B190700CD
:10408000180007003A00070022C2BF00614060002C
:104090000004E000FBFF32003011800010E18800D6
:1040A000A0162F001B19070005003700F0C0B30051
:1040B000351A07000200370000C1B300321A0700AA
:1040C0000080FA00000006000000FA00C922A800E3
:1040D000C902A800CB02A900CB22A9000080FA00E7
:1040E000000006000000FA00C922A800C902A800CA
:1040F000CB02A900CB22A90062A0A80062C0A80040
:104100008660A9000000EB0030E188000040EB0071
:104110002BFCB700CBC2BF000080FB000000D10029
:104120006140600061416000A1C2210091407800BF
:10413000E0CFB30000C06000024070002AFCB7006E
:10414000CBC2BF0061406000614060004201DD0001
:10415000A1C2210091407800B0CFB30000C0600040
:10416000024070002AFCB7000080FA000000060040
:104170000400FA0086C0BF00684060000004E00050
:104180008B003200CBC2BF000080FB000000D100DA
:10419000614060006140600000414000A1C2210018
:1041A00091407800D0CFB30000C0600002407000A2
:1041B0002AFCB700CBC2BF006140600061406000D4
:1041C0004301DD00A1C221009140780070CFB3000F
:1041D00000C06000024070002AFCB7008660A900A1
:1041E0002ADCBF00644060000004E00022003200CE
:1041F0002ADCBF00684060000004E0001E003200BE
:104200002ADCBF00614060000004E0000B003200C7
:104210002ADCBF00624060000004E00007003A00B2
:104220002000200030E188000040EB002BFCB700AC
:10423000B0C5B300CA190700460037002ADCBF002A
:10424000614060000004E00042003A002ADCBF0048
:10425000624060000004E0003E0032000000EB001D
:1042600030E188000040EB002BFCB700D0C5B30064
:10427000BB190700370037002ADCBF00644060002C
:104280000004E00033003A002ADCBF006840600010
:104290000004E0002F00320030E180001007980099
:1042A0001E009000E20F5000040032001E0090003B
:1042B000E30F5000170032002600370028DCBF0053
:1042C0000040400028FCB7002ADCBF000080FB0053
:1042D0000000D100614060008040780028DCBF0011
:1042E00000C0400028FCB7002BDCBF000040E80005
:1042F0002BFCB7002BDCBF00E84F500015003A0044
:104300000040EB002BFCB7003000200030E18800BB
:1043100010003700CBC2BF000080FB000000D100BE
:1043200061406000004F780028DCBF0061FE07009C
:104330001E04E00003003200D0C2B3008819070059
:1043400002003700B0C2B30085190700200020002A
:1043500030E188002ADCBF000080FB000000D100B3
:104360006140600061416000A1C22100914078007D
:10437000E0CFB30000C06000024070002AFCB7002C
:104380002ADCBF000080FB004300DE0061406000CB
:10439000614060004201DD00A1C22100914078002F
:1043A000B0CFB30000C06000024070002AFCB7002C
:1043B0000080FA00000006000000FA00005B2F00F9
:1043C000541807000080FA00000006000200FA00FE
:1043D000004F7800B05E2F00641807003613070006
:1043E00000C0EB006AFE07001E04E00002003A0075
:1043F000171307000100370021130700A05F2F00EB
:104400005A18070010C0B300B3F907002A130700B9
:104410000080FA00000006000A00FA0069F90700AF
:1044200080407800630047000148780065F9070084
:1044300080407800630047001140980061F9070050
:104440008040780063004700214098005DF9070034
:10445000804078006300470031409800B0602F0032
:104460002C18070063004700104078000080FB0014
:1044700019190700E0612F002618070063004700A4
:10448000104090000080FB0013190700E0612F002E
:104490002018070063004700204090000080FB00C8
:1044A0000D190700E0612F001A180700630047008C
:1044B000304090000080FB0007190700D0C0B30017
:1044C00027190700A0C0B3002519070063004700A3
:1044D000104078000080FB004400DE002047980078
:1044E00000622F000B1807002E4090000080FB0098
:1044F000400798004E009000E90F50001100320074
:104500004E009000E90F500004003C004E00900067
:10451000E80F500008003200130037004E009000F2
:10452000EA0F50000A0032004E009000EF0F5000DA
:104530000A0032000C003700B0622F00F5170700A8
:104540000B00370020632F00F21707000800370028
:1045500090632F00EF1707000500370000642F005D
:10456000EC1707000200370040642F00E91707002E
:10457000D0C0B300FA180700A0C0B300F8180700B5
:10458000C0642F00E317070063004700104090004D
:104590000080FB004700DE00204798002E4090007E
:1045A0000004E00003003A0080652F00D9170700DF
:1045B00002003700F0652F00D6170700D0C0B30007
:1045C000E7180700A0C0B300E5180700F0662F0049
:1045D000D017070063004700104090008080FB0068
:1045E00080F72F00008060004380DE0020479800A5
:1045F0002E4090000004E00003003A00C0672F0046
:10460000C41707001B0037002E409000EF4F5000EA
:1046100003003A0000642F00BE17070015003700A2
:1046200000042000000F7800E30047000040EB008A
:1046300080487800080037001E0078000000400025
:10464000000F780063004700104078008040E800C9
:1046500063004700014878006300470090407800FD
:104660002E40900080CF5000F3FF39001E007800EC
:1046700039180700D0C0B300B9180700A0C0B300B4
:10468000B7180700A0682F00A217070063004700B3
:104690009040900070C0B30000C0600020479800B8
:1046A00010002000000F7800E30047000040EB00FE
:1046B00080487800080037001E00780000004000A5
:1046C000000F780063004700104078008040E80049
:1046D000630047000148780063004700904078007D
:1046E0002E40900080CF5000F3FF39001E0078006C
:1046F00048180700D0692F009C1707000080FA00B7
:10470000000006000E00FA00004F78001107980024
:10471000220798001E80FB006101B9004207980043
:1047200053079800A0012000010020004E019000D6
:10473000DE019000800F5100818F590083013E00FF
:104740004E009000DE00900000600100480037003D
:104750006A003700360037003B0037004000370062
:104760009F003700710037007B003700850037005D
:104770008B0037008E00370091003700940037001F
:104780007201370071013700700137006F01370087
:104790006E0137006D0137006C0137006B01370087
:1047A0006A013700690137006801370002003700ED
:1047B0001B0037006701370060C1B30072180700A3
:1047C000120020002100200010002000D215070058
:1047D0000040E900614060006141600041C3210088
:1047E00091407800E0CFB30000C06000024070004C
:1047F00034FCB70034DCBF006140600000C0EA0058
:1048000061406000C700DD0006C8BF000074A10061
:104810000140700006E8B7000668A8004D013700A7
:10482000DD010700C0AA2E0050170700490137001C
:104830004A01070020C0B3009A01070070AB2E00A8
:104840004A170700430137004401070030C0B30096
:1048500094010700E0AC2E00441707003D0137002B
:104860003E010700A0AE2E004017070039013700B7
:104870002E009000E10F500007003A0037020700B9
:1048800032FCB7000040EB003F18070032DCBF00ED
:1048900008FD07001400370010C0B3003A180700E5
:1048A0002E00900003FD070040AF2E0019170700EF
:1048B0000000EB0080E188000700370027020700B6
:1048C000FCFC0700E0AF2E001217070080E180001B
:1048D0000000E80080E1880081E180002E00900067
:1048E000808F5000F5FF3900D0C0B3001C180700BE
:1048F000A0C0B3001A180700160137001E00900070
:10490000B001070032FCB70030C0B3001E1807002A
:104910001E009000E7FC0700D0C0B300101807008D
:10492000A0C0B3000E1807000A0137004F020700AD
:1049300032FCB70050C0B3001318070032DCBF00D0
:10494000ED160700D0C0B30005180700A0C0B300E3
:1049500003180700FF00370060C0B3000A18070003
:104960004C02070032FCB70032DCBF00E216070041
:10497000D0C0B300FA170700A0C0B300F8170700B3
:10498000F40037002E009000CAFC070080C0B3007E
:10499000FD1707002E00900067020700ED003700AA
:1049A00090C0B300F817070070020700E900370055
:1049B000A0C0B300F417070085020700E500370028
:1049C000B0C0B300F017070039020700E10037005C
:1049D000C0C0B300EC17070050020700DD0037002D
:1049E0009E009000610798006E019000E10F510059
:1049F0000D003200EE019000E18F510007003900F8
:104A00006E009000E20F50000C003200EE009000AB
:104A1000E38F500056003200C900370000B02E006E
:104A2000BC160700CB0037001501070000B42E00AC
:104A3000CE160700C9000700C6003700E0B42E00FC
:104A4000CA1607000E01070000B42E00C7160700A3
:104A500017020700C100070020C0B30011010700C2
:104A600000C0EB003402070000C0EB003202070078
:104A7000BA00070030C0B3000A0107000000EB00D5
:104A800080E188000700370080E180000000E80036
:104A900080E1880081E18000900F2000808F50002D
:104AA00003003600F10107000004E000F6FF3200C9
:104AB000AA000700F200070000B42E00AB160700A2
:104AC000A600070030C0B300F6000700E0B52E00D6
:104AD000A616070080E1800076FC070010B72E00C4
:104AE0008C1607000040EB0032FCB70019003700BD
:104AF000E0B72E008716070080E180006DFC0700FC
:104B000000B82E00831607009401070069FC070017
:104B1000E0AF2E007F1607009001070065FC07003C
:104B2000E0AF2E007B1607008C01070061FC070038
:104B3000E0AF2E0077160700880107005DFC070034
:104B400040B82E007316070032DCBF000040E800BA
:104B500032FCB70032DCBF008080FB0080E18000C7
:104B6000808F5000E2FF39007C0007007900370099
:104B700010C1B3007A17070070B82E007B1607002B
:104B800080B92E007916070070BB2E00771607003B
:104B90000000370085C0BF00684060000004E000EE
:104BA000FCFF32003011800080E188008560A900A0
:104BB00081E18000A0072000808F500001003200BA
:104BC000F4FF3700B0BC2E006816070030C1B300F8
:104BD00063170700D1010700FD0107001E0207004F
:104BE0002E09070080E1880082E1800032079800EA
:104BF000BE019000E38F51001D0032003E00900086
:104C0000E30F500007003E00BE009000E18F50000F
:104C1000110032003E019000E10F510011003E00F2
:104C20000A003700BE019000E58F510016003200E7
:104C30003E009000E50F500010003900BE009000CB
:104C4000E68F50001300320015003700D0BD2E0053
:104C5000461607001800370050BE2E004316070006
:104C60001500370080BF2E004016070012003700E5
:104C700000C12E003D1607000F00370070C22E0045
:104C80003A1607000C00370020C42E003716070024
:104C900009003700B0C52E003416070006003700A3
:104CA00040C72E001B16070080E1800001FC0700B2
:104CB00040B82E001716070010C82E001516070062
:104CC00008090700FBFB070080C92E002716070014
:104CD00060CB2E002516070010C1B3002017070077
:104CE0000000EB0080E188000000370022C2BF0016
:104CF000614060000004E000FCFF320030118000E1
:104D000032FCB70021C3210091407800A0C7B30056
:104D100080CF500004003A0080E180000000E800ED
:104D200080E18800020037000000EB0080E188008D
:104D300080E18000E50F500006003200EBFF3700F5
:104D4000F0C0B300101707000200370000C1B30025
:104D50000D1707000080FA00000006000200FA00AC
:104D600020CD2E00EB1507002CDCBF000080FB00DF
:104D7000000F78001E007800E10F50000E00320096
:104D80001E007800E10F500004003C001E00780077
:104D90000000E0000B003200350037001E007800F4
:104DA000E20F50000F0032001E007800E30F5000A9
:104DB000240032002E003700B0CD2E00EB15070086
:104DC0002D003700A401070010C0B3005A010700EE
:104DD00010C0B3002CFCB70080CE2E00E3150700F6
:104DE000250037002DDCBF00E14F50000A003A00DB
:104DF0002EDCBF00E14F500002003A002C010700FA
:104E000001003700450107000040EB002DFCB70012
:104E100040CF2E00BF1507007401070020C0B3006B
:104E2000450107008C01070010C0B30042010700D4
:104E300010C0B3002CFCB70090D02E00CB1507009B
:104E40000D0037006901070020C0B3003A010700D8
:104E50008101070010C0B3003701070010C0B30084
:104E60002CFCB70020D12E00C0150700020037002F
:104E7000B0D12E00BD1507000080FA00000006002A
:104E80000000FA0059010700A0C0B3002A01070082
:104E9000710107000040EB002CFCB7000080FA0015
:104EA000000006000400FA00004F78002CDCBF0070
:104EB000E14F50000200320090D22E00AB150700E7
:104EC00020CD2E00931507001E80FB0010079800D0
:104ED0001E009000E10F50000E0032001E009000F6
:104EE000E10F500004003C001E0090000000E000B4
:104EF0000B003200240037001E009000E20F50002B
:104F0000160032001E009000E30F5000080032002F
:104F10001D003700B0CD2E00941507001C0037008F
:104F2000D7FF070050D42E00901507001800370057
:104F30002E01070010C0B300FF0007004601070064
:104F400020C0B300FC00070030C0B3002CFCB70049
:104F5000B0D42E00851507000D003700230107008F
:104F600020C0B300F40007003B01070020C0B300DD
:104F7000F100070020C0B3002CFCB700F0D52E00D4
:104F80007A1507000200370040D92E007715070078
:104F90000080FA00000006000000FA00C8E2A80045
:104FA000C902A900C922A900C8C2A900CAE2A90071
:104FB000CB02A900CB22A900CAC2A9000080FA0036
:104FC000000006000800FA004047980000010700B2
:104FD0002DDCBF00E14F500006003A002EDCBF0080
:104FE000910007000040EB002DFCB70090DB2E0085
:104FF0004815070006C8BF00704060000004E000CC
:105000000300320010C0B300004F780002003700E8
:1050100000C8B300004F78000040EB003047980014
:10502000450037004E4090001E4060000004E00044
:1050300002003A00B9000700010037009C00070099
:10504000CA000700CAC2BF000080FB004700DE00A4
:105050002047980006C8BF00704060000004E000D0
:10506000100032004E4090000080FB000000D10094
:10507000404798001E4090000080FB000000D100D7
:10508000104798002E409000E14F500011003A0068
:105090001E40900001C8B300014040001047980036
:1050A0000C0037004E409000004040004047980000
:1050B0001E40900000404000104798002E40900095
:1050C000E14F500003003A001E4090000040E8000D
:1050D00010479800BE0007002CDCBF00E24F5000D4
:1050E00012003A003E409000E64F50000F003A0098
:1050F00010C0B3002DFCB7004E4090001E40600071
:105100000004E00003003A000040EB002EFCB70072
:105110000200370010C0B3002EFCB7001E40900004
:105120000080FB0030079800090037003E409000E7
:105130000040E800304798003E409000E74F5000A4
:10514000B8FF36001E4090000080FB00300798003A
:105150003E0090000080FA00000006000400FA0003
:105160009B0007002DDCBF00E14F500006003A0015
:105170002EDCBF002C0007000040EB002DFCB70028
:1051800090DB2E00E31407000040EB00204798005E
:105190001F00370075000700CAC2BF000080FB0077
:1051A0004700DE001047980006C8BF00704060004E
:1051B0000004E00008003A001E4078000040400073
:1051C000004F78001E4090000004E0000C00320008
:1051D0001E4FE8000A0037001E80FB000000D100CF
:1051E000004F78001E4090000004E00004003200F0
:1051F0001E40780001C8B30001404000004F780015
:10520000730007002E4090000040E80020479800FF
:105210002E409000E74F5000DEFF36001E80FB005E
:105220000080FA00000006000400FA002047980001
:105230002E4090000004E00002003A003700070012
:10524000010037001A00070048000700CAC2BF006B
:105250000080FB004700DE00004F78005C00070084
:105260001E80FB000080FA00000006000200FA0029
:105270003E000700CAC2BF000080FB004700DE00FE
:10528000004F7800520007001E80FB000080FA00EB
:10529000000006000000FA00CAC2BF000080FB0048
:1052A0004700DE000080FB000080FA0000000600DE
:1052B0000000FA0034DCBF006140600000C0EA007A
:1052C000614060006140600000414000912C20007E
:1052D00091407800D0CFB30000C060000240700061
:1052E000C9E2B70034DCBF0061406000614060008B
:1052F00000414000B12C200091407800D0CFB30095
:1053000000C0600002407000CBE2B70040C1B300B3
:105310009FFA07000080FA00000006000000FA0073
:10532000CB22A900C922A90040C1B30098FA070006
:105330000080FA00000006000400FA0020479800F0
:105340000040EB00004F7800030037000700070023
:105350001F0007001E4FE8002E4090009E4F1000D7
:10536000FAFF39000080FA00000006000000FA0091
:1053700034DCBF006140600000C0EA0061406000B2
:1053800061416000912C200091407800E0CFB30093
:1053900000C0600002407000C9E2B70034DCBF000A
:1053A0006140600061416000B12C200091407800B4
:1053B000E0CFB30000C0600002407000CBE2B70055
:1053C00040C6B30072FA07000080FA000000060031
:1053D0000000FA00CB02A900C902A90040C6B30030
:1053E0006BFA07000080FA00000006000000FA00D7
:1053F00034DCBF006140600000C0EA006140600032
:10540000614060004601DD00812C20009140780061
:10541000F0CBB30000C0600002407000C8E2B700EB
:1054200034DCBF0061406000614060004601DD0087
:10543000A12C200091407800F0CBB30000C06000A8
:1054400002407000CAE2B70040C1B30050FA070042
:105450000080FA00000006000000FA00CAC2A9009D
:10546000C8C2A90040C1B30049FA07000080FA0091
:10547000000006000800FA00300798006000B8003D
:1054800010079800210798000000EB00000F78003B
:10549000160037001E009000AE009000C808DD0026
:1054A0000080FD00804078000040EB00100798006D
:1054B000210798001E007800BE0090000080E800E0
:1054C00001004000104078000081FB000300200034
:1054D0001E009000AE0090000200700083807000FB
:1054E00010079800210798001E0FE8003E0090006A
:1054F000100078009E0F5000E6FF3C001E00900058
:10550000AE0090000080FA00000006000600FA00DD
:10551000000F780012079800230798009E0078007B
:1055200010002000800878001E0090008040780065
:105530001E007800214098000080FA00000006005C
:105540000E00FA0040079800510798006207980083
:1055500010002000300798004E0090009000780066
:1055600021079800200037002E009000CE00900008
:105570000080E8000100400090407800214798003A
:105580002E009000DE0090000080E8000100400046
:1055900090407800114798006E0090000000E000F5
:1055A0000B0032002E009000EE0090000080E8001A
:1055B00001004000104F78002E4090001E40600017
:1055C000204798001E4090001E4060001047980041
:1055D000AE4090001E40900080CF5000020032008C
:1055E0000000EB00300798003E0090000000E00053
:1055F000060032002E0090000000E900200798000D
:105600002E009000E10F4000D7FF3A003E009000CE
:105610000080FA00000006000600FA00000F780083
:1056200011079800220798001E0090009E00780045
:105630000080E80001004000104078008080FB00FE
:105640002E009000670010000088DE0061006000FE
:105650000080FA00000006000A00FA001007980017
:105660002107980032079800430798003E009000F9
:10567000E7001000100020000100DD00004F78005E
:105680002E0090009E0090000080E8000100400085
:1056900010407800804078001E40780000C0EA008A
:1056A00000C06000104798004E0090000000E0002D
:1056B000030032001E4090001E407000104798000A
:1056C000AE0090001E009000010040000080E80045
:1056D0009E409000014878000080FA00000006001B
:1056E0001000FA00500798006107980072079800B0
:1056F0006E009000900078005E0090000108780035
:105700000040EB00004F98006E009000100F7800F2
:10571000240037001E007800EE0090000080E800B2
:1057200001004000104078000080FB002007980036
:105730001E007800FE0090000080E800010040009C
:10574000104078000080FB0010079800AE00900029
:105750001E009000808040000E4890000080FB00FA
:1057600000804000300798000040EB00004F980098
:10577000BE009000F00F2000808F50000200360025
:1057800010C0B300004F98009E0078003E009000CB
:10579000004178005E009000010040000080E800B9
:1057A000024878001E0FE9000080EB009E0F1000F9
:1057B000D8FF3A000080FA00000006000600FA0058
:1057C00010079800210798001E009000AE0090007E
:1057D000010878001E009000008FE80006003700E6
:1057E0001E007800800607002E0090000000E900EF
:1057F000200798001E0FE8002E0090000000E00037
:10580000F7FF3A000080FA00000006000200FA00EC
:10581000000F78009E0078000040EB008048780080
:105820009E0078000040EB00904098001E01780038
:105830006000B80010019800210198009E007800D7
:105840000000EB00B00098009E0078000040EB00E4
:10585000B04898009E0078000040EB008048980017
:105860009E00780010C0B300904898009E00780019
:1058700010C0B300A04898001E0178006000B80076
:1058800000099800110998009E0078000000EB00C4
:10589000A00898001E0178006000B8006001980020
:1058A000710198000000EB000080FA000000060083
:1058B0000200FA00000F78000080FA0000000600E5
:1058C0000800FA00008FBE007200200003002000D4
:1058D0003E004100AE804900200798003107980043
:1058E0002E009000BE009000E00F5000E08F5800A6
:1058F00006003D002E019000BE01900067014100AE
:10590000E081490022079800330798002E0190009B
:10591000BE0190004D1ADD004310DE000000720051
:10592000C398DE000080FA00000006000200FA00C2
:10593000000F78009E00780010002000FB05070093
:105940008000EB000000EB00F805070011002000CC
:105950000000EB00F50507000080FA0000000600DB
:105960000C00FA0020079800614798000000EB0047
:10597000000F78006E4090000004E00015003A002F
:1059800010002000E9FF07000000EB00100798005E
:10599000090037008000EB000000EB00E305070082
:1059A000110020000000EB00E00507001E00900041
:1059B0000000E800100798001E009000E40F50005F
:1059C000F4FF3400AE0090000040EB008048780007
:1059D000080137002E009000904078006E40900043
:1059E00080CF5000110032006E409000E74F500011
:1059F00004003A002E00900010407800E64F50005E
:105A000007003A006E409000EE4F500007003A0049
:105A10002E00900010407800ED4F5000030032003F
:105A200050002000000F7800F20037002E00900098
:105A3000904078006E40900080CF5000E8003A001F
:105A40006E409000E64F500006003A001000200023
:105A5000B6FF0700AE00900070C0B3008048780029
:105A6000DF0037006E409000ED4F5000DC003A0040
:105A700010002000ADFF0700AE009000E0C0B300B2
:105A800080487800D60037002E0090001040780043
:105A90000080FB006101B90042079800530798009D
:105AA000F0002000010020004E019000DE01900077
:105AB000800F5100818F5900C4003E004E009000BD
:105AC000DE009000006001000F0037001400370076
:105AD0001900370027003700350037003A0037003B
:105AE000480037004D0037005B0037006900370081
:105AF0006E0037007C003700810037008F003700D0
:105B000094003700A20037000000EB0087FF070079
:105B1000AE00900010C0B30080487800B00037009D
:105B20001000200081FF0700AE00900020C0B300ED
:105B300080487800AA0037006E409000E84F50007F
:105B4000060036001000200078FF0700AE0090002D
:105B500090C0B30080487800A10037000000EB003F
:105B600072FF0700AE00900030C0B300804878009C
:105B70009B0037006E409000E44F500006003A0052
:105B80000000EB0069FF0700AE00900040C0B300CA
:105B900080487800920037001000200063FF070063
:105BA000AE00900050C0B300804878008C003700F1
:105BB000100020005DFF0700AE00900050C0B30051
:105BC00080487800860037006E409000E64F500015
:105BD00006003A000000EB0054FF0700AE00900002
:105BE00060C0B300804878007D00370010002000BE
:105BF0004EFF0700AE00900080C0B30080487800E0
:105C0000770037001000200048FF0700AE0090002A
:105C100070C0B30080487800710037006E4090007B
:105C2000E44F500006003A000000EB003FFF070081
:105C3000AE00900040C0B300804878006800370094
:105C40001000200039FF0700AE00900080C0B300B4
:105C500080487800620037006E409000E14F5000AD
:105C600006003A000000EB0030FF0700AE00900095
:105C700010C0B300804878005900370010002000A1
:105C80002AFF0700AE00900020C0B30080487800D3
:105C9000530037000000EB0024FF0700AE00900027
:105CA000A0C0B300804878004D0037006E409000DF
:105CB000EB4F500006003A000000EB001BFF07000E
:105CC000AE009000B0C0B3008048780044003700B8
:105CD0001000200015FF0700AE009000C0C0B30008
:105CE000804878003E003700100020000FFF0700BA
:105CF000AE009000C0C0B300804878003800370084
:105D00006E409000ED4F500006003A000000EB009E
:105D100006FF0700AE009000D0C0B30080487800B6
:105D20002F0037001000200000FF0700AE00900099
:105D3000F0C0B30080487800290037001000200030
:105D4000FAFE0700AE009000E0C0B3008048780083
:105D5000230037006E409000EB4F500006003A00E1
:105D60000000EB00F1FE0700AE009000B0C0B300F1
:105D7000804878001A00370010002000EBFE070072
:105D8000AE009000F0C0B3008048780014003700E7
:105D90006E409000E14F500006003A000000EB001A
:105DA000E2FE0700AE00900010C0B300804878000B
:105DB0000B00370010002000DCFE0700AE00900052
:105DC00020C0B30080487800050037005000200054
:105DD000000F78002E009000EE40900001487800FF
:105DE0002E009000904078006E40900080CF5000D0
:105DF00025FF3A001E0078000080FA00000006002F
:105E00001400FA0050079800610798007207980084
:105E1000030F9800140F98000000EB003007980063
:105E20000E0890000000E0000A0032007E009000A2
:105E3000900078000E089000010878000E0890008D
:105E40008080E8007E009000100078000080400014
:105E5000300798007E0090008080E8007E0090006F
:105E60001000780000804000400798004A0037008A
:105E70004E0090000000E900400798004E0090009E
:105E800090407800414798000040EB003047980070
:105E90000000EB00000F78002E0037005E0090003D
:105EA000EE00900061005000E0805800500798001C
:105EB000610798001E0890000000E0000800320012
:105EC0005E009000EE009000E00F5000E08F580060
:105ED00003003A0011002000100020009304070086
:105EE0004E4090000080FB00E10060002000200098
:105EF0008E0407004E4090000080FB000000D1009F
:105F0000404798008000EB000000EB00870407008A
:105F10003E0090000000E0000A003200FC04070090
:105F2000204798002E4090008080FB001E007800E3
:105F30000008DD00804078003E40900000C0700006
:105F400030479800110020000000EB0077040700A4
:105F50001E0FE8005E009000EE009000E00F500081
:105F6000E08F580003003200700020009E0F1000E8
:105F7000CAFF34003E0090000000E000060032003E
:105F80003E0090000000E900300798003E009000BD
:105F9000BE409000014878005E009000EE00900046
:105FA000E00F5000E08F5800B1FF3A000080FA0087
:105FB000000006001C00FA0040079800214F9800DE
:105FC0006207980073079800040F9800150F980057
:105FD000260F9800370F98000000EB00300798005C
:105FE0000000EB00200798000040EB0020479800DD
:105FF0000000EB00500F9800AE4890000EF897009C
:1060000080CF50000200320014002000540F98008E
:106010005E089000000F78006E009000FE00900077
:10602000E00F5000E08F58000C003A002EB89700A7
:10603000BEB89700E00F5000E08F580063003200B8
:1060400011C0B3004E00900045FE07002EB8970027
:10605000BEB89700B50407005C003700AE4890005A
:106060004E0090003EFE07001E0278009E09900040
:106070000E0990006E009000FE00900060FF070087
:106080002E0890000000E0000B0032003E09900056
:106090009E0890002E08900029FD070080007800DF
:1060A0000000EB00200798000100E00002003A0029
:1060B00010002000200798001E00E000320032008F
:1060C0004E009000104078008040E8004E009000A4
:1060D000014878002E0090000000E0001C00320013
:1060E0002EB89700BEB89700E00F5000E08F580020
:1060F00017003200AE4090002EF0970080CF500085
:106100001300310061C0B3004E00900014FE070080
:1061100041C0B3004E00900011FE07002EB897005A
:10612000BEB89700C289DE004E0ADD004201DE00E3
:10613000020172002EB89700BEB89700000041001F
:106140008180490020BF9F0031BF9F0003003700BE
:106150008EF897004E00900001FE07002EB89700C1
:10616000BEB89700E00F5000E08F580006003200E4
:1061700011C0B3004E009000F9FD07002EB8970043
:10618000BEB89700690407002E0090000000E000F0
:106190000E0032000040EB00005F9800AE4090001F
:1061A0002EF0970080CF50000200310014C0B300E1
:1061B000045F98002E4090000040E80020479800BF
:1061C0000E5890000004E000A4FF3A002E0090005A
:1061D0000000E0000C0032002EF097000004E00008
:1061E00007003200AE4090002EF0970080CF5000A4
:1061F000030036003000200030079800020037000E
:1062000020002000300798003E0090000080FA0037
:10621000000006001000FA00000F78001207980036
:106220002307980031079800440798005507980005
:106230006607980077079800BE0090004E00900017
:106240005EFD07006E0090000000E00003003200D9
:10625000BE0090006E00900058FD07008F87E80098
:106260002EF09700E0FF9F002EB89700BEB8970071
:10627000809FBE008F87E8008EF89700E1FF9F00A7
:10628000FE0390006E039000DE0290004E0290002C
:106290001E019000AE01900041C0B3001E007800C6
:1062A00044FF0700E88757000080FA00000006005E
:1062B0001200FA00500798006107980072079800D2
:1062C000030F98007E019000DE0090005E009000B9
:1062D00003FD07000040EB00304798000040EB0052
:1062E000204798006E009000100F78000E08900074
:1062F000100078000000E9004007980048003700CF
:106300004E0090008E0890000080E80001004000E0
:1063100090407800414798004E4090000004E00013
:106320003C0032004E009000DE0090000080E8004B
:1063300001004000904078006147980010C0B30011
:10634000504798002A0037004E4090000080FB0024
:10635000610060000004E0001E0032002E4090004A
:106360000004E00009003A001E0FE9001E0078005A
:10637000EE0090000080E8000100400090407800AE
:106380003147980010C0B300204798003E4090006D
:10639000AE409000014060000004E00005003200C3
:1063A0006E409000DE409000014070006047980011
:1063B000050037005E40900080C0EA006E4090000B
:1063C00000C06000604798002E40900000404000F0
:1063D000204798005E4090000040400050479800E1
:1063E0004E4090000080FB000000D1004047980024
:1063F0004E4090000004E000D3FF3A00CE00900031
:106400005E009000010040000080E800EE40900037
:10641000014878004E0090000000E9004007980015
:106420004E0090000000E000B5FF3D000080FA0043
:10643000000006000200FA00000F78009E007800BD
:1064400040002000B00098001E007800300090004E
:106450000080FA00000006000200FA00000F780039
:106460009E00780010C0B300804878000000EB0068
:106470000080FA00000006000200FA00000F780019
:106480001E007800A0089000820B20001E00410032
:10649000CAFC07000000EB000080FA0000000600C4
:1064A0000800FA00889FBE008A1F78003007980015
:1064B000640047004C0307004E4090000080FB0042
:1064C00001002000FEFC0700100798009E009000CD
:1064D00020032000808F5000030034006000200063
:1064E000000F7800230037004E4090000080FB0032
:1064F00001002000F2FC0700800078003E009000C0
:1065000076004000ADFC07003E0090006001900066
:10651000F00190003E009000904890003E009000F6
:10652000760240004E4090000084FB0009002000ED
:106530003E009000680540008F87E8000040EB00B7
:10654000E0FF9F00829FBE008F87E800E1FF9F0071
:106550008003EB000003EB008002EB000801BE00AB
:10656000B1C0B3000A00780092FE0700E887570028
:10657000000F78001E00E000030032003E00900093
:106580009E007800310098001E0078004F057800CA
:106590004F04BE000080FA00000006000A00FA0066
:1065A000881F7800400798004E0090007600400059
:1065B0002100200081FC07004E0090007600400082
:1065C000ACFB070020079800310798002E009000D0
:1065D000BE009000BAFC0700100798009E009000D3
:1065E00020032000808F5000030034006000200052
:1065F000000F7800200037002E009000BE009000B1
:10660000AFFC0700800078004E009000760040004C
:106610006AFC07004E00900060019000F0019000BD
:106620004E009000904890004E009000760240008E
:106630004E009000680440008F87E8000040EB00A7
:10664000E0FF9F00829FBE008F87E800E1FF9F0070
:106650008003EB000003EB008002EB002E019000B2
:10666000BE019000B1C0B3000800780051FE0700E1
:10667000E8875700000F78001E00E000030032009A
:106680004E0090009E007800310098001E007800B7
:106690004F0478000080FA00000006000400FA00B1
:1066A000889FBE008A9FBE00100798001E009000C1
:1066B000A00890001E009000760040003FFC0700FC
:1066C0001E009000B04890001E00900060019000F5
:1066D000F00190001E009000204A90001E009000E3
:1066E000870B2000808343001E009000C50420001B
:1066F000808242001E0090002A082000000545000C
:106700001E009000F60540001E009000000C900056
:10671000900C90001E009000680040008F87E800F9
:10672000E1FF9F00829FBE008F87E800E4FF9F008B
:10673000050378008A0278000B0278000801BE0089
:1067400041C0B3001BFE0700E8875700000F780028
:106750001E00E000030032001E0090009E00780042
:10676000310098001E0078004F05BE004F04BE00A7
:106770000080FA00000006000200FA00000F780016
:106780009E00780076804000410020000BFC07004E
:106790009E0078007680400036FB07001E017800DE
:1067A00060019800710198000000EB000080FA0081
:1067B000000006000200FA00000F78009E0078003A
:1067C0006B804000880207000000EB000080FA00A8
:1067D000000006000400FA00100798000000EB001B
:1067E000000F78001E00900076004000410020005D
:1067F000F2FB07001E009000760040001DFB070022
:106800001E01900000099800110998001E009000D8
:10681000900890000008900029FC07008000780094
:106820001E009000210898001E009000A008900013
:1068300020032000808F50000500340060002000FD
:10684000000F78001E0090009E0078003100980034
:106850001E0078000080FA00000006000400FA0024
:10686000889FBE008A9FBE008C1F7800100798008A
:106870001E009000B04890001E0090006001900043
:10688000F00190001E009000204A90001E00900031
:10689000870B2000808343001E009000C504200069
:1068A000808242001E0090002A082000000545005A
:1068B0001E009000F60540001E009000200E900083
:1068C0001E009000000C9000900C90001E009000A4
:1068D000680040008F87E800E1FF9F00829FBE00B4
:1068E0008F87E800E4FF9F00050378008A027800A4
:1068F0000B0278008C0078000801BE0045FE0700FE
:10690000E8875700000F78001E00E0000300320007
:106910001E0090009E007800310098001E00780054
:106920004F0678004F05BE004F04BE000080FA00FD
:10693000000006000200FA00000F78001E00780038
:10694000A0089000E20E20001E0041009BFB070003
:106950001E007800A0089000421220001E00410096
:1069600096FB07000000EB000080FA000000060024
:106970000A00FA00889FBE008A9FBE004007980068
:106980004E009000A00890004E009000760040005D
:106990008AFB07004E009000B04890004E00900027
:1069A00060019000F00190004E009000204A90009D
:1069B0004E009000870B2000808343004E00900023
:1069C000C5042000808242004E0090002A0820006A
:1069D000000545004E009000F60540004E00900076
:1069E000000C9000900C90004E0090006800400059
:1069F0008F87E800E1FF9F00829FBE008F87E8003D
:106A0000E4FF9F00050378008A0278000B027800FB
:106A10000801BE0041C0B30066FD0700E8875700CB
:106A2000200798002E0090000000E00064003A006B
:106A30000000EB00100798000040EB00004F7800CA
:106A4000150037001E80FB00CE0090006012B000E1
:106A50000100400090407800114798000A0037007C
:106A60001E4090000080FB00E10060001E009000CE
:106A700001004000100798001E4090000080FB00BD
:106A80000000D100104798001E4090000004E00074
:106A9000F3FF3A001E4FE8001E80FB00CE0090007E
:106AA000A1109100810F5000E6FF350066004700FD
:106AB000CD0107000040EB00004F78003A0037009E
:106AC0001E009000CF80DE007DFB07008000780074
:106AD0004E009000A015B00038FB07004E0090005B
:106AE00042122000000141004E009000E40E200000
:106AF000000242004E009000A1152000808040005E
:106B00004E00900076004000820178000401780079
:106B1000E7FD07004E009000B04890004E00900046
:106B200060019000F00190004E009000204A90001B
:106B30004E009000870B2000808343004E009000A1
:106B4000C5042000808242004E0090002A082000E8
:106B5000000545004E009000F60540004E009000F4
:106B6000000C9000900C90004E00900068004000D7
:106B70008F87E800E1FF9F00829FBE008F87E800BB
:106B8000E4FF9F00050378008A0278000B0278007A
:106B90000801BE0041C0B30006FD0700E8875700AA
:106BA000200798001E4FE8002E0090000000E00033
:106BB00003003A006E4090009E4F1000C0FF390065
:106BC0002E0090000000E000030032004E00900014
:106BD000AE009000310098002E0090004F05BE00DE
:106BE0004F04BE000080FA00000006000800FA0012
:106BF000889FBE00200798002E0090001040900053
:106C0000EE4F500004003A002E0090002048900003
:106C1000604798000200370040C0B300604798000A
:106C2000EE409000214798002E0090007602400030
:106C30002E009000200C90002E0090000009900083
:106C4000900990002E009000E80440008F87E80033
:106C50000040EB00E0FF9F006000B800809FBE0096
:106C60008F87E8002E409000E0FF9F008003EB003C
:106C70000003EB008002EB00880078000900780038
:106C800064FD0700E8875700000F78001E00E00051
:106C9000030032002E0090009E0078003100980022
:106CA0001E0078004F04BE000080FA0000000600BD
:106CB0000800FA00889FBE008A1F7800200798000D
:106CC0002E00900010409000F14F500004003A0058
:106CD0002E00900020489000604798000200370086
:106CE00040C0B30060479800EE40900021479800F4
:106CF0002E009000C4042000000242002E009000EC
:106D000025082000808242002E009000760440007A
:106D10002E009000A00C90002E0090000009900022
:106D2000900990002E009000680540008F87E800D1
:106D30000040EB00E0FF9F006000B800809FBE00B5
:106D40008F87E8002E409000E0FF9F008003EB005B
:106D50000403780008027800890078000A007800AF
:106D60002CFD0700E8875700000F78001E00E000A8
:106D7000030032002E0090009E0078003100980041
:106D80001E0078004F0578004F04BE000080FA0016
:106D9000000006000600FA00200798000E80E800B8
:106DA00011010700AE4090002E00900068004000E6
:106DB000EBFA0700000F78001E00E000030032002D
:106DC0002E0090009E007800310098001E00780090
:106DD0000080FA00000006000600FA002007980074
:106DE0000000EB00000F78000E80E800FE000700B6
:106DF0002E4090000004E000060032002E4090007B
:106E0000E14F50000300320050002000000F7800D6
:106E1000190037002E00900010409000F34F5000F2
:106E20000B003A002E4090000004E00004003A00FD
:106E3000AE00900010C0B300904898000E003700DC
:106E4000AE009000D0C0B300904898000A00370010
:106E50002E4090000004E00004003A00AE009000D4
:106E600010C0B300A048980003003700AE009000A7
:106E700060C0B300A04898001E00E000030032008C
:106E80002E0090009E007800310098001E007800CF
:106E90000080FA00000006000400FA0010079800C5
:106EA0000E007800D00007001E4078000004E000CB
:106EB000FBFF3A009E0090000000EB00B00098003D
:106EC0001E009000300090000080FA0000000600D4
:106ED0000800FA00300798003E009000760040005D
:106EE0001100200035FA07003E0090008058900005
:106EF000514798003E0090007600400011002000AD
:106F00002EFA07003E0090008058900041479800FC
:106F10003E009000760040004100200027FA070064
:106F20003E0090007600400052F90700008FBE003E
:106F30003E009000804890005E40900080CF50005E
:106F4000040032003E00900068004000DE409000E7
:106F500083FA07001E00BE00F40007003E00900008
:106F6000804890004E40900080CF500004003200D6
:106F70003E00900068004000CE40900078FA070084
:106F80000000EB000080FA00000006000200FA009A
:106F9000000F78001E0078001CFA070080007800BF
:106FA0001E007800310098001E007800300090002C
:106FB0000000E00007003A009E0078006880400072
:106FC0008040EB0066FA0700800078001E00780021
:106FD000310098001E007800300090000080FA0018
:106FE000000006000200FA00000F78001E00780082
:106FF000300090000000E0001E003A001E00780003
:10700000104078000004E0001A003A001E00E8007A
:10701000750007001E007800A0009000100090008E
:1070200061004000E08048001E01780010019800D7
:10703000210198001E00780010409000F74F50008A
:107040000A003E001E007800104090000080FB0007
:1070500080004000C0BA210000804000900078000D
