:020000040000fa
:080000000002040000000000f2
:020000040000fa
:10040000af7e2100007f2200000188000000000074
:100410000a00070011000700000020000000e000b3
:10042000020032000000020000000000ec21020087
:10043000000000000040da000000fe004440a90077
:1004400020b120000000e000030032000000200086
:10045000a00188004440a800000006006038220087
:10046000010020001500370062004000e0804800d5
:10047000910188009001ba0062004000e0804800cd
:10048000910188009002ba0062004000e0804800bc
:100490000002eb006028e10004003a000059eb0084
:1004a0008301e900fdff3e00040037006128e10000
:1004b000010032000082eb00050007009101880076
:1004c0001001ba000200e000e7ff3a00000005005a
:1004d000910188008002780062004000e0804800be
:1004e0003559ba008301e900080032002559ba00e5
:1004f0008301e900050032000400e000f4ff32004f
:1005000015d9ba008301e900f1ff3a0000000600a6
:020000040000fa
:020000040001f9
:0457f800dff90000d5
:020000040000fa
:020000040001f9
:0457fc007f3f0000eb
:020000040000fa
:1000080028240000282400002824000028240000b8
:1000180028240000282400002824000028240000a8
:100028002824000028240000282400002824000098
:100038002824000028240000282400002824000088
:020000040000fa
:020000040000fa
:100510000d0a000000200000312e000020530000d2
:10052000504900000d0a0000203200002e2000007b
:1005300049320000430d00000a200000332e000065
:100540002055000041520000540d00000a20000018
:10055000342e0000205200004157000020320000dd
:100560002057000049520000450d00000a200000fd
:10057000352e0000205200004157000020330000bb
:100580002057000049520000450d00000a200000dd
:100590004d4f0000444500003e000000393000008f
:1005a000302000004d4f0000444500002053000063
:1005b000455400000d0a000000530000657400005f
:1005c0002073000070650000656400003a200000a0
:1005d0000d0a000000200000312e00002033000032
:1005e000304b0000487a00000d0a00002032000065
:1005f0002e20000031320000354b0000487a000008
:100600000d0a0000203300002e20000032350000cb
:10061000304b0000487a00000d0a00002034000032
:100620002e200000314d0000487a00000d0a000025
:100630002053000050450000454400003e000000eb
:10064000203100002e20000031300000304b00002f
:10065000487a00002028000053740000616e0000fa
:100660006461000072640000290d00000a2000008f
:10067000322e000020340000303000004b480000d3
:100680007a200000284600006173000074200000fa
:100690004d6f000064650000290d00000a20000075
:1006a000332e0000203100004d4800007a20000069
:1006b00028480000696700006820000053700000af
:1006c00065650000642900000d0a00002053000049
:1006d00050450000454400003e0000002862000034
:1006e00070730000290d00000a200000312e000068
:1006f00020330000303000000d0a000020320000de
:100700002e20000031320000303000000d0a0000c1
:10071000203300002e200000323400003030000072
:100720000d0a0000203400002e20000034380000a4
:10073000303000000d0a0000203500002e2000009f
:1007400039360000303000000d0a0000203600006d
:100750002e2000003139000032300000300d000042
:100760000a200000372e000020330000383400003b
:10077000303000000d0a0000203800002e2000005c
:100780003537000036300000300d00000a20000030
:10079000392e0000203100003135000032300000d9
:1007a000300d00000a2000005350000045450000b5
:1007b000443e000000200000312e000020350000e3
:1007c0004b4800007a0d00000a200000322e000085
:1007d00020310000304b0000487a00000d0a000074
:1007e000203300002e200000353000004b48000070
:1007f0007a0d00000a20000053500000454500001b
:10080000443e000000390000303100002053000059
:1008100050450000454400002053000045540000ae
:100820000d0a000000200000312e000020430000cf
:100830006c6f0000636b0000207000006f6c0000a4
:100840006172000069740000792000006e6f000082
:10085000726d0000616c00000d0a00002032000083
:100860002e200000436c00006f6300006b2000002e
:10087000706f00006c610000726900007479000004
:10088000206900006e76000065720000736500004c
:100890000d0a0000204d00004f440000453e0000be
:1008a0000039000030360000204300004c4f0000ab
:1008b000434b0000205000004f4c0000415200000c
:1008c00049540000592000004e4f0000524d0000d6
:1008d000414c00000d0a00000039000030370000d4
:1008e000204300004c4f0000434b0000205000000c
:1008f0004f4c0000415200004954000059200000b4
:100900005245000056450000525300004544000087
:100910000d0a000000200000312e000020480000d9
:1009200069670000682d00005a2000006f75000004
:1009300074700000757400007320000028480000e7
:100940003d6900006e700000757400002c200000ee
:100950004c3d0000474e0000442900000d0a0000f5
:10096000203200002e2000004e6f0000726d00004b
:10097000616c0000206f000075740000707500004d
:100980007473000020280000483d000056630000fa
:10099000632c0000204c00003d4700004e44000046
:1009a000290d00000a2000004d4f000044450000c2
:1009b0003e00000039780000782000004f5500000c
:1009c00054500000555400002048000049470000e2
:1009d000485a00000d0a0000003900007878000035
:1009e000204f0000555400005055000054200000d6
:1009f0004e4f0000524d0000414c00000d0a000017
:100a000000200000312e0000204800004558000062
:100a10000d0a0000203200002e2000004445000096
:100a2000430d00000a200000332e00002042000089
:100a3000494e00000d0a0000203400002e20000066
:100a400052410000570d00000a2000004f550000e1
:100a50005450000055540000204d00004f44000049
:100a6000453e00000039000030330000204f0000f8
:100a70005554000050550000542000004d4f000018
:100a80004445000020530000455400000d0a0000ba
:100a900000200000312e00002053000044410000df
:100aa0002f530000434c000020500000756c0000e4
:100ab0006c750000702000006f660000660d00007d
:100ac0000a200000322e00002053000044410000a4
:100ad0002f530000434c000020500000756c0000b4
:100ae0006c750000702000006f6e00000d0a0000a1
:100af000204d00004f440000453e00000032000041
:100b00003034000020530000444100002f53000007
:100b1000434c000020500000554c00004c55000094
:100b2000502000004f460000460d00000a00000063
:100b3000323000003520000053440000412f0000f7
:100b4000534300004c200000505500004c4c000066
:100b500055500000204f00004e0d00000a0000001c
:100b6000203100002e2000004d53000042200000e4
:100b70006669000072730000740d00000a20000016
:100b8000322e0000204c000053420000206600007e
:100b900069720000737400000d0a0000204d00000f
:100ba0004f440000453e0000003900007878000006
:100bb000204d0000534200003a2000004d4f00003d
:100bc0005354000020530000494700002042000019
:100bd00049540000204600004952000053540000d0
:100be0000d0a00000039000078780000204c000059
:100bf000534200003a2000004c45000041530000e1
:100c000054200000534900004720000042490000e2
:100c1000542000004649000052530000540d0000cb
:100c20000a0000004d4500004e550000530d000025
:100c30000a2000003f200000486500006c700000a2
:100c40000d0a0000204d00002042000075730000d6
:100c5000206d00006f640000650d00000a20000098
:100c60004c20000042690000742000006f720000f8
:100c700064650000720d00000a2000005020000092
:100c800053440000412f0000534300004c2000005b
:100c9000707500006c6c0000757000002072000020
:100ca0006573000069730000746f000072730000c8
:100cb0000d0a0000204f0000204400006174000075
:100cc0006120000064690000737000006c61000026
:100cd00079200000666f0000726d000061740000f2
:100ce0000d0a0000535900004e5400004158000006
:100cf0000d0a0000204100002f610000204100008b
:100d000075780000206f0000757400007075000099
:100d100074200000746f0000676700006c650000bd
:100d2000204800002f4c00000d0a00002040000069
:100d30002041000075780000206900006e700000fe
:100d4000757400002f68000069670000682d0000be
:100d50007a2c00002072000065610000640d000024
:100d60000a2000005b200000287b000029200000f2
:100d7000737400006172000074200000777200003c
:100d80006974000065200000287700006974000085
:100d9000682000007265000061640000290d0000f9
:100da0000a2000005d2000006f720000207d00001e
:100db00020730000746f0000702000007772000044
:100dc00069740000650d00000a2000005220000038
:100dd0006f72000020720000205200006561000068
:100de0006420000062790000746500002028000083
:100df00030720000312e00002e2e0000323500002f
:100e000035200000666f000072200000627500004f
:100e10006c6b0000207200006561000064730000cc
:100e2000290d00000a200000306200002057000059
:100e3000726900007465000020420000494e000005
:100e40002062000079740000650d00000a20000097
:100e500030680000206f0000722000003078000031
:100e600020570000726900007465000020480000ef
:100e7000455800002062000079740000650d0000f4
:100e80000a200000302d000032350000352000001f
:100e9000577200006974000065200000444500009e
:100ea0004320000062790000746500000d0a000014
:100eb000202c000020560000616c000075650000c9
:100ec00020640000656c0000696d0000697400001a
:100ed0006572000020280000616c0000736f000044
:100ee000207300007061000063650000290d0000a0
:100ef0000a20000026200000317500005320000069
:100f0000646500006c61000079200000283000005a
:100f1000263100002e2e00002e3200003535000054
:100f2000206600006f720000206d0000756c0000ec
:100f300074690000706c00006520000064650000aa
:100f40006c61000079730000290d00000a52000056
:100f5000415700002042000055530000204f000080
:100f60005045000052410000544900004f4e00001f
:100f7000530d00000a2000005e200000436c0000ba
:100f80006f6300006b20000074690000636b000059
:100f900020280000305e0000312e00002e2e0000c0
:100fa0003235000035200000666f0000722000001e
:100fb0006d7500006c740000697000006c650000c5
:100fc00020740000696300006b730000290d0000ad
:100fd0000a2000002f5c0000204300006c6f00001e
:100fe000636b0000204800002f4c00000d0a000039
:100ff000202d00002f5f00002044000061740000dd
:1010000061200000482f00004c0d00000a20000065
:101010002120000052650000616400002062000091
:10102000697400000d0a0000202e0000204400001a
:101030006174000061200000696e0000707500009e
:10104000742c000020720000656100006420000024
:10105000286e00006f200000636c00006f630000ca
:101060006b2900000d0a0000003000003031000044
:1010700020530000594e0000544100005820000049
:1010800045520000524f0000522c00002054000036
:10109000525900002041000047410000494e000025
:1010a0003e000000393500003120000041550000ad
:1010b0005820000048490000474800000d0a000081
:1010c0000039000035300000204100005558000074
:1010d000204c00004f5700000d0a000000390000ae
:1010e0003532000020410000555800002048000023
:1010f0004947000048200000494d0000502c0000e6
:101100002052000045410000443a00002031000018
:101110000d0a0000003900003532000020410000b7
:1011200055580000204800004947000048200000b2
:10113000494d0000502c00002052000045410000a5
:10114000443a0000203000000d0a00000039000081
:101150007878000020440000454c00004159000010
:1011600020310000755300000d0a0000003000001f
:101170003030000020530000594e00005441000060
:101180005820000045520000524f0000522c000031
:101190002054000052590000203f00000d0a0000ba
:1011a000003900007878000020440000454c000021
:1011b0004159000020000000755300000d0a000096
:1011c0000031000031300000205300005049000081
:1011d0002043000053200000454e00004142000023
:1011e0004c450000440d00000a00000032310000b0
:1011f000302000004932000043200000535400001a
:101200004152000054200000434f00004e440000b3
:1012100049540000494f00004e0d00000a00000034
:1012200033310000302000005541000052540000ce
:10123000204f0000504500004e2c0000207d000093
:10124000205400004f200000434c00004f5300008a
:10125000450d00000a00000034310000302000007d
:10126000524100005732000057490000524500002b
:10127000205300005441000052540000204300005d
:101280004f4e000044490000544900004f4e0000fa
:10129000202800005c2d00002f5f00005c2900006a
:1012a0000d0a00000035000031300000205200001f
:1012b000415700003357000049520000452000000c
:1012c00043530000204500004e410000424c000006
:1012d000454400000d0a00000031000034300000d9
:1012e0002043000053200000444900005341000007
:1012f000424c0000454400000d0a0000003200008e
:101300003430000020490000324300002053000028
:10131000544f000050200000434f00004e44000096
:1013200049540000494f00004e0d00000a00000023
:1013300033340000302000005541000052540000ba
:10134000204300004c4f000053450000440d0000b6
:101350000a00000034340000302000005241000038
:10136000573200005749000052450000205300004a
:10137000544f000050200000434f00004e44000036
:1013800049540000494f00004e200000285f000033
:101390002f2d00005c2900000d0a00000035000020
:1013a0003430000020520000415700003357000045
:1013b0004952000045200000435300002044000033
:1013c00049530000414200004c450000440d00001c
:1013d0000a000000313200003020000053500000ad
:1013e000492000005752000049540000453a0000cf
:1013f000200000002052000045410000443a000057
:10140000200000003232000030200000493200008d
:10141000432000005752000049540000453a0000a4
:1014200020000000204700004f5400002041000031
:10143000434b00003a2000004e4f00000d0a000010
:1014400000200000474f00005420000041430000ee
:101450004b3a000020590000455300000d0a0000df
:1014600000330000323000002055000041520000df
:10147000542000005752000049540000453a000033
:1014800020000000343200003020000052410000f3
:101490005732000057490000524500002057000015
:1014a00052490000544500003a2000000035000079
:1014b0003230000020520000415700003357000036
:1014c00049520000452000005752000049540000d6
:1014d000453a0000200000003133000031200000b8
:1014e0005350000049200000425500004c4b0000c2
:1014f0002052000045410000442c00002000000064
:101500002042000059540000455300003a0d0000ed
:101510000a00000032330000312000004932000090
:1015200043200000425500004c4b000020520000b8
:1015300045410000442c000020000000343300002e
:10154000312000005241000057320000574900008e
:101550005245000020420000554c00004b20000086
:1015600052450000414400002c20000000350000de
:101570003331000020520000415700003357000073
:101580004952000045200000425500004c4b00002d
:101590002052000045410000442c000020000000c3
:1015a000313300003020000053500000492000007b
:1015b00052450000414400003a2000000032000083
:1015c0003330000020490000324300002052000068
:1015d00045410000443a0000200000003333000081
:1015e00030200000554100005254000020520000fd
:1015f00045410000443a0000200000003333000061
:1016000031200000554100005254000020520000db
:10161000454100004420000046410000494c0000c4
:101620003a2000004e4f00002044000041540000ca
:10163000410d00000a00000034330000302000009b
:101640005241000057320000574900005245000047
:101650002052000045410000443a000020000000f4
:1016600035330000302000005241000057330000a5
:10167000574900005245000020520000454100003b
:10168000443a000020000000347800007820000078
:1016900052410000573200005749000052450000f7
:1016a0002052000045410000442000004249000053
:1016b000543a000020000000202a00006e6f000055
:1016c00077200000696e0000707500007420000033
:1016d000646900007265000063740000696f0000b7
:1016e0006e0d00000a000000357800007820000030
:1016f0005241000057330000574900005245000096
:1017000020520000454100004420000042490000f2
:10171000543a0000200000003478000078200000d7
:101720005241000057320000574900005245000066
:10173000204400004154000041200000494e0000b8
:1017400050550000542c000020530000544100006c
:10175000544500003a200000003500007878000071
:10176000205200004157000033570000495200004a
:101770004520000044410000544100002049000081
:101780004e500000555400002c200000535400001f
:1017900041540000453a0000200000003478000069
:1017a00078200000524100005732000057490000e5
:1017b0005245000020440000415400004120000038
:1017c0004f55000054500000555400002c200000dc
:1017d000002000002a6e00006f770000206f0000dc
:1017e00075740000707500007420000064690000ca
:1017f0007265000063740000696f00006e200000d5
:101800000d0a00000035000078780000205200002a
:1018100041570000335700004952000045200000a6
:101820004441000054410000204f00005554000086
:1018300050550000542c00002000000034780000b7
:101840007820000052410000573200005749000044
:1018500052450000204300004c4f0000434b000065
:101860002c20000000350000787800002052000095
:101870004157000033570000495200004520000046
:10188000434c00004f4300004b2c000020000000a0
:1018900034780000782000005241000057320000e8
:1018a000574900005245000020000000204300007e
:1018b0004c4f0000434b00002054000049430000ff
:1018c0004b5300000d0a000000350000787800003e
:1018d00020520000415700003357000049520000d9
:1018e000452000000031000030320000205300008d
:1018f00050490000205200004541000044590000ba
:101900000d0a0000003200003032000020490000c3
:1019100032430000205200004541000044590000bd
:101920002c20000050200000464f000052200000f4
:10193000505500004c4c000055500000530d000065
:101940000a00000033300000322000005541000042
:10195000525400002052000045410000445900004c
:101960000d0a000000340000303200002052000058
:101970004157000032570000495200004520000046
:101980005245000041440000592c00002050000046
:10199000204600004f52000020500000554c00002f
:1019a0004c550000505300000d0a000000350000a7
:1019b0003032000020520000415700003257000032
:1019c00049520000452000005245000041440000fb
:1019d000590d00000a0000005350000049000000ab
:1019e00049320000430000005541000052540000fd
:1019f0000052000041570000320000005241000038
:101a00005733000000450000525200004f520000c2
:101a10000030000037300000204300004f4d000030
:101a20004d4100004e440000204e00004f54000085
:101a3000204900004d5000004c4500004d4500007d
:101a40004e54000045440000204900004e20000094
:101a50005448000049530000204d00004f4400004e
:101a6000450d00000a0000000d0a000000300000d3
:101a70003030000020530000594e00005441000057
:101a80005820000045520000524f0000522c000028
:101a90002054000052590000203f00000d0a0000b1
:101aa0000030000039390000205400004552000089
:101ab0004d4900004e4100004c20000042550000fe
:101ac0004646000045520000204f000056450000e9
:101ad000524600004c4f0000572c000020540000dc
:101ae00052590000205300004d4100004c4c0000b2
:101af0004552000020530000454700004d450000be
:101b00004e5400005300000030620000003000001e
:101b10003132000033340000353600003738000021
:101b200039410000424300004445000046300000b7
:041b30007800000039
:020000040000fa
:101b34000200fa00004f78001e407800c2f7b70098
:101b44000080fa00000006000000fa00bed7bf00c3
:101b5400e34f50000b003a00bf0707000004e00009
:101b640008003200c2d7bf00e14f500004003a0021
:101b740080282800f60707007d04070001003700cd
:101b8400a90707000080fa00000006000800fa0018
:101b9400004f78001e80fb003007980000052000ed
:101ba400be009000808f5000980032000005200095
:101bb400be009000808f500016003c00d00420002e
:101bc400be009000808f500028003200d004200016
:101bd400be009000808f500009003c00f0032000fc
:101be400be009000808f5000c4003200c00420006a
:101bf400be009000808f50009e003200c20037006b
:101c0400f0042000be009000808f50007700320066
:101c1400bd003700d0062000be009000808f500029
:101c240012003200d0062000be009000808f5000c9
:101c340005003c00c0062000be009000808f5000cc
:101c44008c003200b0003700f0062000be00900087
:101c5400808f50006500320000072000be00900015
:101c6400808f500069003200a70037009f050700ed
:101c7400b0282800b607070050c0b300aa00070028
:101c8400bef7b700e02c2800b1070700d02d2800cc
:101c9400af070700bed7bf000080fb0020079800f5
:101ca4002e009000e30f500018003200ae009000a8
:101cb400e38f500007003c002e009000e10f50001d
:101cc40008003200ae009000e28f50000a0032009b
:101cd400170037002e009000e50f500014003c0060
:101ce4000f003700b02e28009907070040c0b3004a
:101cf400c6f7b7000e00370000322800940707002b
:101d040030c0b300c6f7b70009003700e03628003a
:101d14008f07070090c0b300c6f7b7000400370070
:101d2400b03d28008a07070030c0b300c6f7b700eb
:101d3400c6d7bf007c000700bff7b70030402800bb
:101d440083070700bed7bf00e14f500003003200f5
:101d5400bed7bf00e34f50000e003a0030412800c8
:101d64007b07070020c0b3006f0007000040e900b4
:101d7400c3f7b700c3d7bf000004e00003003a0074
:101d8400104528007207070002003700d0462800db
:101d94006f070700bed7bf00e44f500003003200b6
:101da400bed7bf00e54f50000e003a00b0482800ef
:101db4006707070020c0b3005b0007000040e9008c
:101dc400c4f7b700c4d7bf000004e00003003a0022
:101dd400a04d28005e07070002003700d04e2800ff
:101de4005b070700e10407004a0037001050280091
:101df4005707070040c0b3004b000700c0f7b70007
:101e0400305328005207070042003700bed7bf00f6
:101e1400e24f500005003200bed7bf00e44f50002f
:101e240002003200ba0507003a0037009054280037
:101e34004707070020c0b3003b000700e14f5000f4
:101e440005003a00c962a800c942a800f05728005a
:101e54003f0707002f003700cd62a800cd42a8003d
:101e6400c962a900c942a90080592800380707009f
:101e740028003700bed7bf00e44f500005003200f1
:101e8400bed7bf00e54f500002003200a005070096
:101e940020003700005b28002d07070020c0b30096
:101ea400210007000040e900c5f7b700bed7bf0016
:101eb400e44f500003003a00c5d7bf009e07070057
:101ec40005003700bed7bf00e54f500002003a00be
:101ed400c5d7bf0086080700c5d7bf000004e000cf
:101ee40003003a00505d2800190707000900370075
:101ef400305f28001607070006003700206128001d
:101f040013070700030037008000eb001107980057
:101f14000200370010002000100798001e009000f7
:101f24000080fa00000006000400fa002047980030
:101f340000003700e20607000004e000fdff320065
:101f4400ec06070080407800f0ccb30000c04000ed
:101f5400004f780080282800fd0607002e409000de
:101f64009e4f10000300390050832800f806070034
:101f7400f0ff37001e4078000040e8000080fb00be
:101f84000080fa00000006000e00fa0030079800f6
:101f9400410798000000eb00100798000000eb00d8
:101fa400000f78000000eb00200798004e01370076
:101fb400ae0090004e009000008040001040780079
:101fc4000080fb006101b90060ff2f00f1ff2f00ca
:101fd400020140008381480052079800630798007b
:101fe40030072000010020005e019000ee01900007
:101ff400800f5100818f5900b3003e005e009000b5
:10200400ee0090000060010031013700ae0037009f
:10201400ad0037002e013700ab003700aa003700af
:10202400a9003700a8003700a7003700a600370032
:10203400a5003700a4003700a3003700a200370032
:10204400a1003700a00037009f0037009e00370032
:102054009d0037009c0037009b0037009a00370032
:102064001b013700800037009700370096003700c7
:1020740095003700940037008e0037009200370037
:1020840091003700900037008f0037008e00370032
:102094000f013700840037007500370076003700e1
:1020a4008900370088003700870037008600370032
:1020b4008500370084003700830037008200370032
:1020c40081003700800037007f0037007e00370032
:1020d4007d0037007c0037007b0037007a00370032
:1020e4005300370048003700770037007600370088
:1020f4007500370074003700730037007200370032
:1021040071003700700037006f0037006e00370031
:102114006d0037006c0037006b0037006a00370031
:102124006900370068003700350037006600370063
:102134006500370064003700630037006200370031
:1021440061003700600037005f0037002600370069
:102154004c003700280037004d0037004f0037008f
:10216400590037002d00370057003700560037005c
:102174005500370054003700530037005200370031
:1021840051003700500037004f0037004e00370031
:102194004d0037004c0037004b0037004a00370031
:1021a4004900370048003700150037004600370063
:1021b4004500370044003700430037004200370031
:1021c40041003700400037003f003700020037006d
:1021d4003d0037000800370010c0b30054fe07006c
:1021e400b4010700ba0037000040eb0050fe0700be
:1021f400b0010700b6003700db010700b400370068
:10220400db020700b2003700c8a2a900cca2a800d4
:10221400208528004e060700ad003700c8a2a9009b
:10222400cca2a9001086280049060700a8003700a0
:10223400c8a2a80000000000000000000000000088
:10224400cac2bf000042b2000004e0000300320032
:10225400f08628003e0607009d003700b08828005d
:102264003b0607009a003700100307009800370068
:102274002f0307009600370010c0b3007303070054
:10228400930037000040eb00700307009000370014
:1022940010c0b300940307008d0037000040eb002a
:1022a400430307008a00370010c0b300400307004f
:1022b40087003700708a28002506070010c0b30085
:1022c4004209070082003700ae0090004e009000e3
:1022d400008040009040780090c2b30080cf50004e
:1022e40076003600ae0090004e0090000080400062
:1022f40090407800f0c3b30080cf50006f003e00e0
:102304000000eb00000f78000040eb00c8f7b700b6
:10231400ae0090003e009000808f500004003a0010
:102324002e0090000000e900200798005d003700af
:10233400ae0090004e009000008040009040780075
:10234400f0c2b30080cf500007003600ae0090000a
:102354004e0090000080400090407800f0c3b3002d
:1023640080cf50003f003600ae0090004e00900039
:10237400008040009040780000c4b30080cf50003b
:1023840007003600ae0090004e0090000080400030
:102394009040780060c4b30080cf50003100360014
:1023a400ae0090004e009000008040009040780005
:1023b40000c6b30080cf500007003600ae00900086
:1023c4004e009000008040009040780060c6b3004a
:1023d40080cf500023003600ae0090004e009000e5
:1023e400008040009040780080c7b30080cf500048
:1023f4001c003200ae0090004e00900000804000af
:102404009040780080c6b30080cf500015003200a1
:10241400ae0090004e009000008040009040780094
:10242400e0c5b30080cf50000e003200ae00900033
:102434004e009000008040009040780060c2b300dd
:1024440080cf500007003200ae0090004e00900094
:10245400008040009040780020c7b30080cf500037
:102464000d003a001e017800ae0090004e0090006e
:102474000080400090407800707c21000000410002
:10248400014878001e0fe8002e0090000000e800cc
:10249400200798009eff37002e0090000000e900fe
:1024a400200798001e007800717c210019000700a5
:1024b4000000eb00000f7800050037000000eb007f
:1024c400000f78001e0090000000e800100798003c
:1024d4001e0090000000e00007003a002e0090006b
:1024e4000000e80020079800ae0090003e00900035
:1024f400808f5000aefe39001e0090000000e00006
:1025040002003200708b2800910507000080fa0059
:10251400000006000800fa002047980021079800f0
:102524000040eb00104798002e0090000000e800e7
:10253400104078000080fb003007980080062000df
:10254400be009000808f50001a00320080062000e8
:10255400be009000808f50000d003c00e00520007c
:10256400be009000808f50006700320020062000db
:10257400be009000808f50004d00320060022000a9
:10258400be009000808f500078003200af0037000a
:1025940020072000be009000808f5000920032007f
:1025a40080072000be009000808f500001003200a0
:1025b400a600370020c0b300004f78003800370071
:1025c4001e4090000080fb004400dd00104798008e
:1025d4001e80fb00800078002e00900000804000e8
:1025e40090407800f0c3b30080cf50000c003e0050
:1025f4001e80fb00800078002e00900000804000c8
:10260400904078001e40900000c040008040780058
:1026140000cdb30000c04000104798001f003700f1
:102624001e80fb00800078002e0090000080400097
:102634009040780060c4b30080cf50000c003e008e
:102644001e80fb00800078002e0090000080400077
:10265400904078001e40900000c040008040780008
:1026640090ccb30000c04000104798000b00370026
:102674001e80fb00800078002e0090000080400047
:10268400904078001e40900000c0400080407800d8
:1026940090cab30000c04000104798001e4fe800e5
:1026a4002e4090009e4f1000c5ff39007d0037007a
:1026b40020c0b300004f78000f0037001e40900088
:1026c40000404000104798001e80fb008000780006
:1026d4002e009000008040009040780010c3b300aa
:1026e40080cf500003003a001e4090000004a00078
:1026f400104798001e4fe8002e4090009e4f100097
:10270400eeff39006700370020c0b300004f7800a7
:10271400100037001e4090000080fb006a00b900e2
:10272400104798001e80fb00800078002e00900067
:1027340000804000904078001e40900000c040009f
:102744008040780000cdb30000c0400010479800de
:102754001e4fe8002e4090009e4f1000edff390000
:102764001e409000600207005000370020c0b300f4
:10277400004f7800100037001e4090000080fb00de
:102784006a00b900104798001e80fb0080007800a2
:102794002e00900000804000904078001e40900081
:1027a40000c040008040780000cdb30000c040006d
:1027b400104798001e4fe8002e4090009e4f1000d6
:1027c400edff3900108d2800e10407001e40900041
:1027d400f6020700c08d2800dd0407001e409000ab
:1027e400fa0707003100370020c0b300004f78001b
:1027f400100037001e4090000080fb006a00b90002
:10280400104798001e80fb00800078002e00900086
:1028140000804000904078001e40900000c04000be
:102824008040780000cdb30000c0400010479800fd
:102834001e4fe8002e4090009e4f1000edff39001f
:102844001e409000d2000700180037000040eb0043
:10285400004f7800100037001e4090000080fb00fd
:102864006a00b900104798001e80fb0080007800c1
:102874002e00900000804000904078001e409000a0
:1028840000c040008040780000cdb30000c040008c
:10289400104798001e4fe8002e4090009e4f1000f5
:1028a400edff39001e4090005c0007000080fa0034
:1028b400000006000200fa00bed7bf000080fb0043
:1028c400000f78001e007800e30f5000190032005a
:1028d4001e007800e30f500007003c001e00780043
:1028e400e10f50000b0032001e007800e20f500090
:1028f4000c0032001a0037001e007800e40f50006c
:10290400100032001e007800e50f50001100320064
:10291400130037006a070700108e28008c04070094
:102924000f0037008b030700608f2800880407001e
:102934000b003700260407000091280084040700d8
:10294400070037000d050700c09228008004070027
:102954000300370098060700309528007c04070020
:102964000080fa00000006000200fa00bed7bf0093
:102974000080fb00000f78001e007800e30f500079
:10298400190032001e007800e30f500007003c00dd
:102994001e007800e10f50000b0032001e0078008a
:1029a400e20f50000c0032001a0037001e007800bd
:1029b400e40f5000100032001e007800e50f5000b4
:1029c400110032001300370039070700d0962800a1
:1029d4005f0407000f0037006e030700f09728001c
:1029e4005b0407000b003700ff03070080992800f1
:1029f4005704070007003700ec040700a09a2800da
:102a040053040700030037005f060700f09c28000a
:102a14004f0407000080fa00000006000400fa00da
:102a2400004f7800bed7bf000080fb00100798005d
:102a34001e009000e30f5000310032001e00900091
:102a4400e30f500007003c001e009000e10f50000f
:102a54000b0032001e009000e20f500019003200fb
:102a6400490037001e009000e40f50002d00320092
:102a74001e009000e50f5000330032004200370082
:102a8400a09e2800320407001e4078004702070079
:102a94001e4078000e070700004f7800c2d7bf0021
:102aa400e14f500004003a00a09f280028040700ca
:102ab4001e4078003d0207008028280024040700f7
:102ac4003100370020a02800210407001e407800b0
:102ad400360207001e407800e7020700560307008d
:102ae4000004e00003003a0020a1280018040700b5
:102af4002500370010a22800150407002200370023
:102b040010a32800120407001e40780027020700c3
:102b1400802828000e0407001e407800b703070031
:102b24001900370020a42800090407001e4078007b
:102b3400bb0407001e4078001c0207008028280000
:102b4400030407001000370070a5280000040700e4
:102b54001e407800150207001e4078007905070022
:102b6400004f7800c2d7bf00e14f500004003a0084
:102b7400a09f2800f60307001e4078000b02070000
:102b840080282800f20307000080fa0000000600f5
:102b94000600fa0020479800bed7bf000080fb0063
:102ba400200798002e009000e20f5000260032000b
:102bb4002e009000e20f500004003c002e00900014
:102bc400e10f500008003200660037002e0090002c
:102bd400e40f5000340032002e009000e50f500046
:102be400480032005f003700c0a62800d803070061
:102bf4002e409000ed01070000a82800d403070030
:102c04000040eb00104798000800370000c0eb00bc
:102c1400af060700e501070000c2b300c1030700c7
:102c24001e4090000040e800104798009e4090002d
:102c34002e40900080cf5000f4ff390080282800f7
:102c4400c303070048003700a0a82800c0030700fa
:102c54002e409000d501070000a82800bc030700ff
:102c64000040eb0010479800080037009e02070060
:102c7400004f78000b0307001e407800cb010700cb
:102c84001e4090000040e800104798009e409000cd
:102c94002e40900080cf5000f4ff39008028280097
:102ca400ab03070030003700e0a92800a8030700a1
:102cb4002e409000bd01070000a82800a4030700cf
:102cc4000040eb0010479800070037007e0407001f
:102cd400b601070000c2b300920307001e40900033
:102ce4000040e800104798009e4090002e4090005d
:102cf40080cf5000f5ff3900802828009403070096
:102d04001900370070ab2800910307002e40900093
:102d1400a601070000a828008d0307000040eb006f
:102d2400104798000800370000c0eb0005050700b5
:102d34009e01070000c2b3007a0307001e40900002
:102d44000040e800104798009e4090002e409000fc
:102d540080cf5000f4ff3900802828007c0307004e
:102d640001003700ea0107000080fa0000000600b5
:102d74000400fa00bed7bf000080fb0010079800d3
:102d84001e009000e30f5000250032001e0090004a
:102d9400e30f500007003c001e009000e10f5000bc
:102da4000b0032001e009000e20f500012003200af
:102db4003c0037001e009000e40f50002700320052
:102dc4001e009000e50f50002d0032003500370042
:102dd40000ad28005e03070000c0eb003c060700be
:102de400004f78001e4078007001070080282800fa
:102df400570307002b003700f0ad280054030700e9
:102e040039020700004f7800a60207001e40780030
:102e140066010700802828004d03070021003700c1
:102e24000d0307000004e00009003200e0ae2800b2
:102e340047030700fc020700004f78001e4078009b
:102e44005a010700802828004103070015003700b5
:102e5400e0af28003e03070012003700c0b128008d
:102e64003b03070018040700004f78001e40780059
:102e74004e010700802828003503070009003700a9
:102e840000c0eb00af040700004f780000b3280037
:102e94002f0307001e407800440107008028280003
:102ea4002b0307000080fa00000006000400fa006b
:102eb400bed7bf000080fb00100798001e009000e2
:102ec400e40f5000040032001e009000e50f500093
:102ed4000a0032001300370027040700004f78006f
:102ee40040b428001a0307001e4078007d01070043
:102ef400c0b52800160307000b00370010c0b3004c
:102f0400d5040700004f780040b7280010030700dd
:102f14001e40780073010700802828000c03070076
:102f2400010037007a0107000080fa000000060063
:102f34000400fa00bed7bf000080fb001007980011
:102f44001e009000e40f5000040032001e009000a8
:102f5400e50f50000a00320012003700c0b8280004
:102f6400fb02070029040700004f78001e40780088
:102f74005c010700c0b52800f50207000a0037000d
:102f8400d0ba2800f2020700c4040700004f7800fa
:102f94001e4078005301070080282800ec02070037
:102fa400010037005a0107000080fa000000060003
:102fb4000400fa00004f7800bed7bf000080fb0079
:102fc400100798001e009000e40f50000400320027
:102fd4001e009000e50f50000d003200180037006d
:102fe400e0bc2800da0207001e04e00002003a00f8
:102ff4001204070001003700170407001e40780080
:103004003801070090be2800d10207000d003700e8
:1030140030c02800ce0207001e04e00002003a007f
:10302400a504070001003700aa0407001e40780029
:103034002c01070080282800c50207000100370082
:10304400330107000080fa00000006000400fa00c3
:10305400004f7800bed7bf000080fb001007980027
:103064001e009000e40f5000040032001e00900087
:10307400e50f50000d00320018003700e0c12800b1
:10308400b30207001e04e00002003a00ff03070039
:1030940001003700040407001e40780011010700f6
:1030a40080282800aa0207000d00370030c328003a
:1030b400a70207001e04e00002003a009f04070074
:1030c40001003700a40407001e4078000501070032
:1030d400802828009e020700010037000c01070029
:1030e4000080fa00000006000400fa00004f780097
:1030f400bed7bf000080fb00100798001e009000a0
:10310400e40f5000040032001e009000e50f500050
:103114000a0032001200370080c428008c02070025
:103124001e407800a100070060c52800880207003f
:103134001e407800a80307000a00370050c6280084
:10314400830207001e4078009800070060c528002d
:103154007f0207001e4078006b040700010037005f
:10316400eb0007000080fa00000006000200fa00ed
:10317400bed7bf000080fb00000f78001e0078005f
:10318400e30f5000330032001e007800e30f5000bc
:1031940007003c001e007800e10f50000b003200d5
:1031a4001e007800e20f5000260032004d00370068
:1031b4001e007800e40f50003f0032001e0078002b
:1031c400e50f50004200320046003700816a2000bb
:1031d4009140780000ceb30000c060007040b3009e
:1031e400a8e6b700916c20009140780000ceb300af
:1031f40000c060007040b300c9e6b700816c2000d5
:103204009140780000ceb30000c060000034a000fc
:10321400c8e6b700c3d7bf00d9040700bfd7bf00b3
:103224008080fb00407a210000804000104078003c
:10323400e5040700ea04070030c728004402070039
:1032440028003700b700070030c8280040020700f4
:1032540024003700616a20009140780000ceb3005a
:1032640000c060007040b300a6e6b700616c2000a7
:103274009140780000ceb30000c060005040b3001d
:10328400c6e6b700bfd7bf000080fb008000400047
:10329400c07a21000080400010007800ac010700d3
:1032a400c3d7bf00b0010700b501070020ca28003a
:1032b400270207000b003700c4d7bf00980207009d
:1032c400a302070030cb28002102070005003700c5
:1032d400c4d7bf00800307008b03070070cd28000c
:1032e4001b0207000080fa00000006000000fa003c
:1032f4000040eb00c3f7b70010c0b300c4f7b70039
:103304000040eb00c5f7b700e5040700b60107006d
:10331400c962a800c942a800a6c6bf00f041b30014
:10332400a6e6b700a8c6bf00f041b300a8e6b70000
:10333400916c20009140780000ceb30000c0600082
:10334400c9e6b700816c20009140780000ceb3003c
:1033540000c06000c8e6b700616c200091407800ae
:1033640000ceb30000c06000c6e6b700c8a2a80043
:10337400c8c2a800c8e2a800c902a800c922a800bf
:10338400c942a800c962a800caa2a900cac2a90069
:10339400cae2a900cb02a900cb22a900cd42a90010
:1033a400cd62a9000080fa00000006000400fa00c3
:1033b400004f7800c0d7bf000080fb0010079800c2
:1033c4001e009000e20f5000110032001e00900019
:1033d400e20f500004003c001e009000e10f50007a
:1033e40008003200120037001e009000e30f500066
:1033f4000a0032001e009000e40f50000a00320060
:103404000b0037001e80fb00320207000800370063
:103414001e40780001020700050037001e407800b6
:10342400e1010700020037001e407800bd010700db
:103434000080fa00000006000200fa00bed7bf00b8
:103444000080fb00000f78001e007800e30f50009e
:10345400170032001e007800e30f500007003c0004
:103464001e007800e10f50000b0032001e007800af
:10347400e20f50000b003200160037001e007800e7
:10348400e40f50000d0032001e007800e50f5000dc
:103494000d0032000f003700c0ce2800ac01070039
:1034a4000e00370000cf2800a90107000b003700e9
:1034b40040cf2800a60107000800370090cf28005d
:1034c400a301070005003700e0cf2800a001070092
:1034d4000200370030d028009d0107000080fa0068
:1034e400000006000200fa00004f78001e04e0000d
:1034f40003003a0000c3b3008a010700020037004a
:1035040010c3b300870107000080fa000000060022
:103514000000fa0090d028008d0107000080fa0016
:10352400000006000000fa00c922a800c902a80091
:10353400cb02a900cb22a9000080fa0000000600fb
:103544000800fa00004f78001107980042479800dd
:1035540080000700e0cfb3001e4060004600070073
:10356400b50007000004e00011003a0089000700dc
:103574000000eb0030079800160037001e00900092
:10358400104078003c000700ab0007000004e00096
:1035940004003a007f0007000000eb0030079800a9
:1035a4000c0037001e0090000000e800100798008f
:1035b4004e4090000040e900404798004e40900083
:1035c400e14f4000edff3a007200070010002000b8
:1035d400300798003e0090000080fa0000000600ca
:1035e4000800fa00004f780011079800424798003d
:1035f400580007001e4078000004a0001e000700c9
:103604008d0007000004e0000f003a00610007008d
:103614000000eb0030079800140037003200070068
:10362400804078001e009000014878001e00900041
:103634000000e800100798004e4090000004e000ed
:1036440001003400970007004e4090000040e9005c
:10365400404798004e409000e14f4000efff3a0091
:103664004c00070010002000300798003e00900036
:103674000080fa00000006000400fa0020479800c9
:10368400cb22a900cb02a90040c6b30090000700da
:1036940080c0b300004f78000d0037002e4090002a
:1036a4000004e00003003500cb22a900c922a900d0
:1036b40001003700c922a8002e4090000000fb0042
:1036c40000004000204798003a0007001e4fe90020
:1036d4001e04e000f1ff3c00c922a80010002000f5
:1036e4000080fa00000006000200fa000040eb002f
:1036f400004f7800cb22a900cb02a90040c6b3003a
:103704007300070080c0b300104798000b00370017
:103714001e00fb0000004000004f7800c922a800f2
:103724002f0007000004e000010032001e4fe800f3
:103734001e4090000040e900104798001e40900091
:103744000004e000f2ff3c001e00fb000080fa00d1
:10375400000006000000fa00c922a800c902a8005f
:10376400cb02a900cb22a90020c3b3005800070054
:10377400c922a900cb22a90020c3b300540007002a
:10378400c902a90040c6b300510007000080fa0036
:10379400000006000000fa00c922a900c902a8001e
:1037a40020c3b3004a000700c922a8000080fa0021
:1037b400000006000000fa0040c1b3004400070006
:1037c400c902a80040c6b30041000700c902a9000d
:1037d40040c6b3003e0007000080fa000000060067
:1037e4000200fa000040eb00004f780040c1b30033
:1037f40037000700c902a80020c3b3003400070043
:10380400cbc2bf00624060000004e000020032004e
:1038140010c0b300004f780020c3b3002c00070091
:10382400c902a90040c6b300290007001e00fb001e
:103834000080fa00000006000200fa00cb22a90072
:10384400cb02a900c902a900c922a800c902a80084
:1038540020c3b3001e000700cbc2bf00624060005b
:103864000004e000030032000000eb00000f7800c9
:103874000900370020c3b30015000700c902a900de
:1038840040c6b3001200070040c6b3001000070092
:1038940010002000000f78001e0078000080fa005d
:1038a400000006000000fa00cb22a900c922a900ea
:1038b40040c1b30006000700beff0700c922a800ec
:1038c40040c1b300020007000080fa0000000600b7
:1038d4000400fa00204798000040eb00004f7800f5
:1038e400130037000000000000000000000000008a
:1038f40000000000000000000000000000000000c4
:1039040000000000000000000000000000000000b3
:1039140000000000000000000000000000000000a3
:10392400000000001e4078000040e800004f7800ce
:103934001e4078008080fb002e4090000000fb00b9
:10394400808f5000e7ff35000080fa000000060079
:103954000200fa00000f78001e007800f0be880014
:103964000080fa00000006000200fa00004f780010
:103974001e407800e0f7b7000080fa00000006005f
:103984000000fa00f0be8000c01188000000eb00c7
:10399400801188003062a800e0d7bf006140600059
:1039a400614060004401dd00012320009140780063
:1039b400f0ceb30000c060000240700030e2b700f7
:1039c4000000eb00901188000080fa00000006005f
:1039d4000000fa0031e2a8003342a80087c0a90021
:1039e4000080fa00000006000000fa0031e2a9009d
:1039f4003342a9000080fa00000006000200fa0029
:103a0400004f78001e80fb00a01188000000000019
:103a140033c2bf00614060000004e000fcff3200dc
:103a24000080fa00000006000200fa0087c0bf0010
:103a34000044b2000004e000fcff3200b01180003a
:103a4400004f780087c0a9001e4078000080fb006a
:103a54000080fa00000006000200fa0087c0bf00e0
:103a64000044b2000004e000030032001000200013
:103a7400000f7800020037000000eb00000f780010
:103a84001e0078000080fa00000006000000fa0022
:103a940020022000401188000000eb000011880083
:103aa4002062a8000000eb001011880021e2a800a9
:103ab4002342a8008560a9000080fa0000000600e7
:103ac4000200fa0085c0bf00684060000004e00006
:103ad4000300320010002000000f780002003700bd
:103ae4000000eb00000f78001e0078000080fa0050
:103af400000006000200fa0085c0bf0068406000b4
:103b04000004e000fcff320030118000004f780018
:103b14008560a9001e4078000080fb000080fa0048
:103b2400000006000200fa00004f78001e00fb00af
:103b3400201188000000000023c2bf006140600023
:103b44000004e000fcff32000080fa0000000600e0
:103b54000600fa0010079800020037001e407800a3
:103b6400f0ff07001e009000104f78001e40780000
:103b7400404798004e4090000004e00002003200ec
:103b840010c0b300404798004e4090009e00900043
:103b94008100e800110798000004e000efff3a00fc
:103ba4000080fa00000006000400fa002047980094
:103bb40000c8b300004f780040d82800e4ff070095
:103bc4000040eb00104798000f0037002e40900093
:103bd4001e4060000004e0000300320010c3b30084
:103be400d0ff07000200370000c3b300cdff070079
:103bf4001e80fb000000d100004f78001e409000a2
:103c04000040e800104798001e409000e74f500025
:103c1400eeff36000080fa00000006000400fa00ff
:103c2400204798002e409000004f780030c6b30023
:103c34009e4f1000060036001e80fb004206200046
:103c4400110009000280d8000043b000b5ff07004e
:103c54009e4178001e80fb004206200011000900ee
:103c64000280d8008080fb00400620000088b90054
:103c740000c05100004f780090c0b3009e4f100068
:103c8400060036001e80fb00a2002000110009007f
:103c94000280d8000043b000a2ff07009e417800d4
:103ca4001e80fb00a2002000110009000280d80041
:103cb4000080fb006a00b90000c05100004f78008a
:103cc4001e4078000043b00096ff07000080fa0011
:103cd400000006000400fa001007980070d92800bc
:103ce4009bff07001e0090004400de006f0f600081
:103cf4009e00780070d828006140780089ff070092
:103d04001e0090006f0f60009e00780070d828009d
:103d14006140780083ff07000080fa00000006007d
:103d24000200fa00004f78001e407800e2f7b70066
:103d34000080fa00000006000200fa00004f78003c
:103d44001e407800e4f7b7000080fa000000060087
:103d54000000fa0010c0b300e2f7b7000040eb0027
:103d6400e4f7b700cb02a900cb22a900c922a8001e
:103d7400c902a9000080fa00000006000000fa0051
:103d8400cb02a90040c1b30090020700b2000700b3
:103d9400c500070040c1b3008c020700a70007005c
:103da400ba0007000080fa00000006000000fa00d4
:103db40013000700a1000700bb000700a6000700ce
:103dc40040c1b30081020700b00007000080fa0080
:103dd400000006000000fa00cb02a900c902a900f5
:103de40040c1b30079020700c922a800cb22a90070
:103df40040c1b300750207000080fa00000006000d
:103e04000000fa00cb02a900c902a90040c1b30016
:103e14006e020700c922a9000080fa000000060013
:103e24000400fa00204798002e40900010479800a4
:103e3400f3ff07000040eb00004f78001d0037003f
:103e4400e4d7bf000004e0000a003a001e409000de
:103e54000004e0000200350078000700010037008c
:103e64007d0007001e40900000404000104798006d
:103e74000d0037001e4090000080fb000000a200ef
:103e8400610060000004e000020032006b000700e3
:103e940001003700700007001e4090000080fb0006
:103ea4000000d1001047980010c0b3004a0007007a
:103eb4001e4fe80070c0b3009e4f1000e0ff3600b4
:103ec4000080fa00000006000400fa000040eb0045
:103ed400004f7800bfff07000040eb002047980028
:103ee4001f00370070000700cbc2bf000080fb003a
:103ef4000000d1006140600010479800e4d7bf0083
:103f0400e14f50000b003a001e80fb000000d1007e
:103f1400004f78001e4090000004e0000c003200c6
:103f24001e40780001c8b30001404000004f7800f3
:103f3400070037001e40780000404000004f780022
:103f44001e4090000004e000010032001e4fe80013
:103f54004e0007002e4090000040e80020479800e3
:103f64002e409000e74f5000deff36001e80fb001d
:103f74000080fa00000006000200fa0095ff070026
:103f840049000700cbc2bf000080fb000000d10045
:103f940061406000004f78003c0007001e80fb0079
:103fa4000080fa00000006000200fa00004f7800ca
:103fb40093ff07001e04e00002003a001f00070000
:103fc400010037002400070010c0b30002000700fe
:103fd4000080fa00000006000400fa002047980060
:103fe4000040eb00004f7800030037002e0007006c
:103ff400260007001e4fe8002e4090009e4f100040
:10400400faff39000080fa00000006000000fa0000
:10401400c922a80000000000000000000000000009
:10402400cbc2bf000080fb000000d10061406000f3
:104034000080fb000080fa00000006000000fa0087
:10404400cb22a900c922a90040c1b300df010700a7
:104054000080fa00000006000000fa00e2d7bf006a
:104064000004e00003003a00c922a900cb22a80002
:1040740002003700c922a800cb22a90040c1b30026
:10408400d20107000080fa00000006000000fa00d8
:10409400cb02a900c902a90040c6b300cb010700a6
:1040a4000080fa00000006000000fa00e2d7bf001a
:1040b4000004e00003003a00c902a900cb02a800f2
:1040c40001003700c902a80040c6b300bf010700c1
:1040d4000080fa00000006000200fa00004f780099
:1040e4001e407800e6f7b7000080fa0000000600e2
:1040f4000200fa00004f78001e407800e8f7b7008d
:104104000080fa00000006000000fa0010c0b300ae
:10411400e6f7b7000040eb00e8f7b700c8e2a800f4
:10412400c902a800c922a800cae2a900cb02a900ba
:10413400cb22a900cac2a800c8c2a9000080fa0004
:10414400000006000600fa00404798007b000700c4
:104154000040eb002047980039003700e8d7bf0043
:104164000004e00016003a004e4090000004e00015
:104174000200350050000700010037005500070019
:104184004e409000004040004047980072000700f5
:10419400cac2bf000080fb004700de001047980041
:1041a4001e40780000404000004f78001e40900000
:1041b4000004e0001e0032001e4fe8001c0037001f
:1041c4004e4090000080fb000000a20061006000ef
:1041d4000004e0000200320037000700010037004d
:1041e4003c0007004e4090000080fb000000d1001e
:1041f4004047980058000700cac2bf000080fb0077
:104204004700de00104798001e80fb000000d1002c
:10421400004f78001e4090000004e00004003200cb
:104224001e40780001c8b30001404000004f7800f0
:10423400420007002e4090000040e800204798000c
:104244002e409000e74f5000c4ff36001e80fb0054
:104254000080fa00000006000400fa0020479800dd
:104264002e4090000004e00002003a001200070013
:10427400010037001700070037000700cac2bf005b
:104284000080fb004700de00004f78002b00070091
:104294001e80fb000080fa00000006000000fa0007
:1042a400cac2bf000080fb004700de000080fb00a4
:1042b4000080fa00000006000000fa00cb22a900ea
:1042c400c922a90040c1b300400107000080fa00e0
:1042d400000006000000fa00e6d7bf000004e0007a
:1042e40003003a00c922a900cb22a800020037002b
:1042f400c922a800cb22a90040c1b30033010700a2
:104304000080fa00000006000400fa00204798002c
:104314000040eb00004f7800030037000e00070058
:10432400060007001e4fe8002e4090009e4f10002c
:10433400faff39000080fa00000006000000fa00cd
:10434400cb02a900c902a90040c6b3001f0107009f
:104354000080fa00000006000000fa00e6d7bf0063
:104364000004e00003003a00c902a900cb02a8003f
:1043740001003700c902a80040c6b30013010700ba
:104384000080fa00000006000000fa00e6d7bf0033
:104394000004e00003003a00c8c2a900cac2a80091
:1043a40001003700c902a80040c1b300070107009b
:1043b4000080fa00000006000000fa00cac2a9004a
:1043c400c8c2a90040c1b300000107000080fa0080
:1043d400000006000400fa004507a9004800070091
:1043e400aafd0700c1fb070060fb070040d32800bb
:1043f400d7fd070010fc0700e0c3b300c9fd0700a8
:10440400affd07000004e0003b003200b9fd0700e7
:10441400004f78001e80fb00100798001e009000db
:10442400ea0f5000070032001e009000ed0f50000c
:10443400040032001e009000e80f50001600320005
:104444001c00370040d32800c1fd070010bd8000c8
:104454000000e00003003a0070d32800bcfd070010
:104464000700370000c8bf00c8f507000004e000db
:1044740003003a0010bd800001802000c2f607004e
:10448400edfb0700e0c3b300a6fd07000000eb004e
:1044940010bd88001800370010bd80000000e00047
:1044a4001500320010bd80000000e90010bd880036
:1044b4001100370011bd8000008020000080400002
:1044c4001e48780010bd80000000e80010bd880080
:1044d40011bd800000fa2000808f500006003a00d1
:1044e40040d328009afd070010d5280098fd070046
:1044f4000000eb0010bd880093f50700c0ff3700f3
:104504000000fa000080eb00601988004227a9002f
:10451400c8a2a800c8c2a800c8e2a800c902a8008e
:10452400c922a800c942a800c962a800caa2a90059
:10453400cac2a900cae2a900cb02a900cb22a900e1
:10454400cd42a900cd62a900416a200091407800c3
:1045540000ceb30000c060000024a000a4e6b700b1
:10456400316c20009140780000ceb30000c06000a0
:104574003040b300c3e6b7000080fa000000060034
:104584000200fa00004f78001e407800dbf7b70005
:104594000080fa00000006000200fa00004f7800d4
:1045a4001e407800d4f7b7000080fa00000006002f
:1045b4000200fa00004f78001e407800dcf7b700d4
:1045c4000080fa00000006000200fa00004f7800a4
:1045d4001e407800daf7b7000080fa0000000600f9
:1045e4000000fa0041e2a900cac2a800c8c2a9009a
:1045f400c902a900c8e2a800c922a900dad7bf00ed
:104604008080fb00001220000080700010128800df
:10461400d4d7bf00614060006141600031242000b4
:1046240091407800e0cfb30000c060000240700009
:1046340043e2b700dbd7bf00614060006140600027
:104644004601dd002124200091407800f0cbb30026
:1046540000c060000240700042e2b700dcd7bf0037
:10466400614060006140600000414000312420004e
:1046740091407800d0cfb30000c0600002407000c9
:1046840043e2b7000000eb00201288000000eb00ba
:104694000012880041e2a8000080fa000000060031
:1046a4000000fa0041e2a9000080fa0000000600c0
:1046b4000000fa00cac2a8000080fa000000060048
:1046c4000000fa00cac2a9000080fa000000060037
:1046d4000200fa00004f78001e80fb0040128800a0
:1046e40085c0bf00644060000004e000fcff3200ad
:1046f40040128000004f78008540a9001e80fb0016
:084704000080fa00000006002d
:020000040000fa
:10470c0000080000a40f000000000000de170000ed
:10471c00020000000200000014340000e01700004a
:10472c000200000000000000a41700001e000000a2
:10473c000200000000181c001d9d25000d00140037
:10474c0034040d008206400003a00100cf00670076
:10475c00004400002200010001010000c21700000b
:10476c001200000000000000e21700000200000030
:10477c000200000001000000e4170000020000002d
:10478c0000000000e617000002000000020000001c
:10479c0001000000e817000002000000000000000b
:1047ac00da1700000400000000000000d41700001d
:1047bc000600000002000000010018001c1d000093
:0447cc0000000000e9
:020000040000fa
:1047d0000400fa00204798000040eb00004f7800ea
:1047e000130037000000000000000000000000007f
:1047f00000000000000000000000000000000000b9
:1048000000000000000000000000000000000000a8
:104810000000000000000000000000000000000098
:10482000000000001e4078000040e800004f7800c3
:104830001e4078008080fb002e4090000000fb00ae
:10484000808f5000e7ff35000080fa00000006006e
:020000040000fa
:044850000000fe0066
:00000001FF
