:020000040000FA
:10000000040C040000000000EC820000EC82000000
:10001000EC820000EC820000EC820000EC82000028
:10002000EC820000EC820000EC820000EC82000018
:10003000EC820000BE100000EC820000EC820000A8
:10004000EC820000EC820000EC820000EC820000F8
:10005000EC820000EC820000EC820000EC820000E8
:10006000EC820000EC820000EC820000EC820000D8
:10007000EC820000EC820000EC820000EC820000C8
:10008000EC820000EC820000EC820000EC820000B8
:10009000EC820000EC820000EC820000EC820000A8
:1000A000EC820000EC820000EC820000EC82000098
:1000B000EC820000EC820000EC820000EC82000088
:1000C000EC820000EC820000EC820000EC82000078
:1000D000EC820000EC820000EC820000EC82000068
:1000E000EC820000EC820000EC820000EC82000058
:1000F000EC820000EC820000EC820000EC82000048
:10010000EC820000EC820000EC820000EC82000037
:10011000EC820000EC820000EC820000EC82000027
:10012000EC820000EC820000EC820000EC82000017
:10013000EC820000EC820000EC820000EC82000007
:10014000EC820000EC820000EC820000EC820000F7
:10015000EC820000EC820000EC820000EC820000E7
:10016000EC820000EC820000EC820000EC820000D7
:10017000EC820000EC820000EC820000EC820000C7
:10018000EC820000EC820000EC820000EC820000B7
:10019000EC820000EC820000EC820000EC820000A7
:1001A000EC820000EC820000EC820000EC82000097
:1001B000EC820000EC820000EC820000EC82000087
:1001C000EC820000EC820000EC820000EC82000077
:1001D000EC820000EC820000EC820000EC82000067
:1001E000EC820000EC820000EC820000EC82000057
:1001F000EC820000EC820000EC820000EC82000047
:10020000FFFFFF00FFFFFF00EC820000EC82000018
:10021000EC820000EC820000EC820000EC82000026
:10022000EC820000EC820000EC820000EC82000016
:10023000EC820000BE100000EC820000EC820000A6
:10024000EC820000EC820000EC820000EC820000F6
:10025000EC820000EC820000EC820000EC820000E6
:10026000EC820000EC820000EC820000EC820000D6
:10027000EC820000EC820000EC820000EC820000C6
:10180000040C0000000000002FC82100007F22000F
:1018100000018800000000000A0007001100070016
:10182000000020000000E000020032000000020082
:101830000000000010100200000000000040DA006C
:101840000000FE004440A90020F121000000E0005B
:101850000300320000002000A00188004440A800DE
:101860000000060020FE27000100200015003700C0
:1018700062004000E0804800910188009001BA00B9
:1018800062004000E0804800910188009002BA00A8
:1018900062004000E08048000002EB006028E100A8
:1018A00004003A000059EB008301E900FDFF3E000F
:1018B000040037006128E100010032000082EB00E3
:1018C00005000700910188001001BA000200E00045
:1018D000E7FF3A00000005009101880080027800CF
:1018E00062004000E08048003559BA008301E900F9
:1018F000080032002559BA008301E90005003200D2
:101900000400E000F4FF320015D9BA008301E900B9
:10191000F1FF3A0000000600C032040000000000A1
:10192000D032040000000000E43204000000000097
:10193000E233040000000000503404000000000006
:10194000AE320400000000006E340400000000000D
:101950007E34040000000000C234040000000000D7
:101960002E350400000000004C350400000000008B
:101970008A36040000000000EC360400000000007D
:101980005E37040000000000803704000000000003
:101990006233040000000000E03704000000000093
:1019A000FC37040000000000889FBE008A9FBE0034
:1019B000010578000100E0000400350008003C004B
:1019C0000000E00020003200050037006000100039
:1019D000E080180002003B0001F02C001A003700E4
:1019E0000004BE006011B8006B0920000982CF001E
:1019F000020039000882CF000441B0006942520061
:101A00000E00320008003B00828171006101640019
:101A10008904D1000884D3008B05E8000442E80063
:101A2000F9FF3A00050037000804440089844C009F
:101A30008B05E9000442E900FBFF3A00250107009D
:101A40000AF0A70001F0A0004F05BE004F04BE0041
:101A50000000060003F0A200889FBE008A9FBE001F
:101A60008C1F780041010700480133006450E100F9
:101A70004F0032006420E1005200320003826C000B
:101A800007003B000905D0000306D000820F540078
:101A90000C065D0002003900020032008901780066
:101AA000030678008582550004003D000003FD0018
:101AB0008103FD008502EA008B854200840F7200DD
:101AC00002003B0060001000E08018006011B800C8
:101AD0000005EB007A28E1000A00390006007800D2
:101AE000C75DDD00F707B200878075002D00370065
:101AF000828171000A017800610560008180D10057
:101B00000080D3008502E900F9FF3B000604400095
:101B10008784480002003B0060041400E0841C003D
:101B20000988A300070032008A8171008281710058
:101B3000610164008904D1000884D3008B05E800AA
:101B4000170037000978A30013003A000B00E000EB
:101B5000130034008B05E9000804440089844C001C
:101B60000A4474000978A3000D003A000B00E0005D
:101B7000070034008B05E9000804440089844C0008
:101B800001003A000B0020000978A300F7FF3200A3
:101B90000001EB0002003700828171000A01780029
:101BA000CC0007000CF0A70001F0A00000013700F6
:101BB0006420E10002003A00838F6C0000013300D2
:101BC0000801BE000200BE00F9003700889FBE0079
:101BD0008A9FBE008C1F7800E4000700EB003300F2
:101BE00003866C006450E1002E0032006420E100A6
:101BF000330032006150E1002F0032006120E1002B
:101C00003100320085855500EB07B0000900200047
:101C100008042000050037000804440089844C00B3
:101C20000A0031000603430087834B000001530084
:101C300081815B00F8FF33000203BE000800A000B2
:101C40000804440089844C00F6FF3900C639DD00E1
:101C50008301730001003200130020008904D100C9
:101C60000884D3000998A300050032000800A700EB
:101C70000300A0008904D1000884D3008B05E8008C
:101C80008904D1000884D3000001EB000281D20056
:101C90009000070001F0A1000CF0A70001F0A000E7
:101CA000C30037006420E100C50032000801BE0017
:101CB0000200BE00F7FF37006120E100C0003200E3
:101CC0006000B800F3FF37000000200001F8270093
:101CD000F0FF3700889FBE008A9FBE008C1F7800EF
:101CE000A2000700A900330003866C006450E100E5
:101CF000240032006420E100270032006150E1003E
:101D0000220032006120E100210032008B85420078
:101D1000EB07B1000134B800003AB80008044200F3
:101D200089844A00013AB8000030B8008880400039
:101D300009014A000400330000004000818048008F
:101D4000020149008B05E900C909DD00830170002B
:101D50000100320013002000C814DE004814DD002A
:101D60004709DE001200B200C808DE0008847000D7
:101D70005800070001F0A1000CF0A70001F0A0003E
:101D80008B0037006120E1008D0032000801BE00A9
:101D90000200BE00F7FF37006150E100FCFF3A008F
:101DA000870037000001BE00880007000470A7000C
:101DB00003F0A10003F8A30013003A006509B10085
:101DC00010003200090035006928E10002003500EA
:101DD000010028000000050000004000818048004C
:101DE0008502E900FCFF3A0000000600F88F42007F
:101DF000050035008100D1000080D3008502E80095
:101E0000FCFF3A00000006008000EB000000050027
:101E10006022B800060220000000D0008180D200BD
:101E20000482D2008582D2000000A000020252008B
:101E300083825A00030031000202420083824A007A
:101E40000000A1000603E900F3FF3A0000000600CD
:101E50000001BE005D0007000470A70003F0A100B0
:101E60006509B100160032000D0035006828E10058
:101E700006003500F0FF2F00F1FF27000300E0000F
:101E800013003B0001002800000005000000400096
:101E9000818048008502E900FCFF3A000800370015
:101EA000F88F420002003C008000EB0000000500BB
:101EB0008100D1000080D3008502E800FCFF3A00D9
:101EC0000300E00002003B0060001000E08018000A
:101ED0000000060081002000618055000B003D00DD
:101EE0000B00200061FE2F000100E1001D00340006
:101EF00082817100610164008904D1000884D300EB
:101F00000000E800FAFF3A00710020006100640060
:101F10000300700002006000090032006104440008
:101F2000E0844C000988A500050032008B05E8001C
:101F30006808E10002003A008904D1000884D30057
:101F4000F20F20000258E10005003D00C75DDD00F2
:101F5000F907B200898075000800780000000600CB
:101F60000BF827008B007800000005000004BE007D
:101F7000160007000003BE000405BE000200BE00FC
:101F800012000700844F7500000006000200BE002A
:101F90006450E100050036006420E10002003600D4
:101FA0000968A30001003A000800BE000160A0001B
:101FB0004F0678004F05BE004F04BE00000006002B
:101FC000F0FF2F00F1FF2700F9FF3700C70ADE00FE
:101FD000F107B200F50FB20008003200E1CF420075
:101FE000020032000170A00024000500810F700083
:101FF000010032000408050044000500810F700054
:1020000002003A00140005008502E90000004000CB
:1020100081C04800FCFF3B000170A00024000500C7
:102020000200FA0032000700000037008280200022
:1020300001FA2000807A2100CC200700E10F500037
:1020400018003A0040BD8000000F78001E007800A4
:102050000000E000040032001E007800E10F500094
:10206000040032000700370010C1B3004E23070000
:102070000700370008C8BF00F31C07000004E00099
:1020800003003A0040BD800081802000DD1E070073
:102090000000EB0040BD8800D81C0700E0C3B3007F
:1020A0003723070006C8BF00644060000004E0005A
:1020B000040032000001EB008000EB0060C1B300BF
:1020C000751C070080DCBF00E14F5000D7FF3A00CD
:1020D0000040EB0080FCB70040FD2F00FF2107000F
:1020E000C61C0700E0C3B30025230700CFFF37005D
:1020F0000000FA004507A9000080EB006019880085
:102100004227A900416A20009140780000CEB30028
:1021100000C060005040B300A4E6B700416C20004E
:102120009140780000CEB30000C060003040B300A2
:10213000C4E6B70080C0B30000E8B7000000EB00C1
:1021400010408800DD0607001107070010C1B3002A
:102150000B230700D0C0B30009230700A0C0B300C1
:1021600007230700731D0700A41C0700E0C3B3008A
:10217000032307000080FA0000000600801F78009B
:102180000000FA008460A9009460A9000080EB00C0
:10219000100888000000EB002008880010C0B30081
:1021A00080FCB7000080FA004F0078000040060075
:1021B0000800FA00004F7800110798004247980085
:1021C00080000700E0CFB3001E406000460007001B
:1021D000B50007000004E00011003A008900070084
:1021E0000000EB0030079800160037001E0090003A
:1021F000104078003C000700AB0007000004E0003E
:1022000004003A007F0007000000EB003007980050
:102210000C0037001E0090000000E8001007980036
:102220004E4090000040E900404798004E4090002A
:10223000E14F4000EDFF3A0072000700100020005F
:10224000300798003E0090000080FA000000060071
:102250000800FA00004F78001107980042479800E4
:10226000580007001E4078000004A0001E00070070
:102270008D0007000004E0000F003A006100070035
:102280000000EB0030079800140037003200070010
:10229000804078001E009000014878001E009000E9
:1022A0000000E800100798004E4090000004E00095
:1022B00001003400970007004E4090000040E90004
:1022C000404798004E409000E14F4000EFFF3A0039
:1022D0004C00070010002000300798003E009000DE
:1022E0000080FA00000006000400FA002047980071
:1022F000CB22A900CB02A90040C6B3009000070082
:1023000080C0B300004F78000D0037002E409000D1
:102310000004E00003003500CB22A900C922A90077
:1023200001003700C922A8002E4090000000FB00E9
:1023300000004000204798003A0007001E4FE900C7
:102340001E04E000F1FF3C00C922A800100020009C
:102350000080FA00000006000200FA000040EB00D6
:10236000004F7800CB22A900CB02A90040C6B300E1
:102370007300070080C0B300104798000B003700BF
:102380001E00FB0000004000004F7800C922A8009A
:102390002F0007000004E000010032001E4FE8009B
:1023A0001E4090000040E900104798001E40900039
:1023B0000004E000F2FF3C001E00FB000080FA0079
:1023C000000006000000FA00C922A800C902A80007
:1023D000CB02A900CB22A90020C3B30058000700FC
:1023E000C922A900CB22A90020C3B30054000700D2
:1023F000C902A90040C6B300510007000080FA00DE
:10240000000006000000FA00C922A900C902A800C5
:1024100020C3B3004A000700C922A8000080FA00C8
:10242000000006000000FA0040C1B30044000700AD
:10243000C902A80040C6B30041000700C902A900B4
:1024400040C6B3003E0007000080FA00000006000E
:102450000200FA000040EB00004F780040C1B300DA
:1024600037000700C902A80020C3B30034000700EA
:10247000CBC2BF00624060000004E00002003200F6
:1024800010C0B300004F780020C3B3002C00070039
:10249000C902A90040C6B300290007001E00FB00C6
:1024A0000080FA00000006000200FA00CB22A9001A
:1024B000CB02A900C902A900C922A800C902A8002C
:1024C00020C3B3001E000700CBC2BF006240600003
:1024D0000004E000030032000000EB00000F780071
:1024E0000900370020C3B30015000700C902A90086
:1024F00040C6B3001200070040C6B300100007003A
:1025000010002000000F78001E0078000080FA0004
:10251000000006000000FA00CB22A900C922A90091
:1025200040C1B30006000700BEFF0700C922A80093
:1025300040C1B300020007000080FA00000006005E
:102540000400FA00204798000040EB00004F78009C
:102550001300370000000000000000000000000031
:10256000000000000000000000000000000000006B
:10257000000000000000000000000000000000005B
:10258000000000000000000000000000000000004B
:10259000000000001E4078000040E800004F780076
:1025A0001E4078008080FB002E4090000000FB0061
:1025B000808F5000E7FF35000080FA000000060021
:1025C0000C00FA00004F78001107980022079800CD
:1025D0001E80FB006101B900320798004307980094
:1025E000A0012000010020003E019000CE019000DB
:1025F000800F5100818F5900B2003E003E009000D4
:10260000CE009000006001004100370063003700F9
:1026100037003700360037003900370093003700A5
:102620006900370071003700790037007F003700FC
:10263000820037008500370088003700A10037008E
:10264000A00037009F0037009E0037009D00370034
:102650009C0037009B0037009A0037009900370034
:102660009800370097003700020037001C00370041
:10267000960037000668A80006A8A80060C1B3004D
:10268000C9210700120020002100200010002000B6
:10269000FD1E07000040E9006140600061416000EC
:1026A000C1C5210091407800E0CFB30000C06000B8
:1026B000024070005CFCB7005CDCBF006140600061
:1026C00000C0EA0061406000C700DD0006C8BF002E
:1026D0000074A1000140700006E8B7007B003700DD
:1026E0007C000700C0EB2F007C200700770037003C
:1026F0007F000700B0EC2F00782007007300370040
:102700008700070070EE2F00742007006F0037006D
:102710002E009000E10F500007003A000040EB004F
:10272000A1210700C80007005AFCB7005ADCBF000F
:10273000A90507001400370010C0B3009A21070054
:102740002E009000A405070010F02F004D20070078
:102750000000EB00C0E2880007003700BA00070065
:102760009D050700B0F02F0046200700C0E2800062
:102770000000E800C0E28800C1E280002E00900066
:10278000808F5000F5FF3900D0C0B3007C210700D6
:10279000A0C0B3007A2107004C00370030C0B3005E
:1027A000812107001E0090007A0007001E009000A3
:1027B00089050700D0C0B30071210700A0C0B30095
:1027C0006F21070041003700CC0007005AFCB7001A
:1027D00050C0B300742107005ADCBF00222007005C
:1027E00070C0B300702107003800370060C0B3002C
:1027F0006D210700E60007005AFCB7005ADCBF0055
:102800001920070070C0B300672107002F003700B0
:102810002E0090007005070080C0B3006221070001
:102820002E009000CD0007002800370090C0B300B4
:102830005D2107000B01070024003700A0C0B30092
:10284000592107000001070020003700B0C0B30085
:1028500055210700E10007001C003700C0C0B3008D
:1028600051210700D6000700180037009E00900095
:10287000510798005E019000E10F510009003200FD
:10288000DE019000E18F5100040039005E009000ED
:10289000E20F500006003200070037000F07070064
:1028A0000A0037005CDCBF006140600010070700D1
:1028B0002207070005003700F0C0B3003A210700E7
:1028C0000200370000C1B300372107000080FA0082
:1028D000000006000000FA00CB02A900CB22A900EC
:1028E000C922A800C902A9000080FA000000060061
:1028F0000000FA00CB02A90040C1B3006D0507003B
:10290000B6000700D700070040C1B3006905070003
:10291000AB000700CC0007000080FA0000000600B2
:102920000000FA0013000700A5000700CD00070013
:10293000AA00070040C1B3005E050700C2000700FF
:102940000080FA00000006000000FA00CB02A90097
:10295000C902A90040C1B30056050700C922A8005A
:10296000CB22A90040C1B300520507000080FA0045
:10297000000006000000FA00CB02A900C902A9006D
:1029800040C1B3004B050700C922A9000080FA002E
:10299000000006000600FA00404798004E409000F4
:1029A00020479800F3FF070006C8BF007040600092
:1029B0000004E00003003A0000C8B300104798008C
:1029C0000200370010C0B300104798000040EB0031
:1029D000004F7800170037002E4090009E40900076
:1029E000014060000004E00002003A0074000700AB
:1029F000010037007900070006C8BF007040600082
:102A00000004E00004003A002E4090000040400026
:102A100020479800040037002E4090000080FB0003
:102A20000000D1002047980010C0B3004B00070001
:102A30001E4FE80070C0B3009E4F1000E6FF360046
:102A40000080FA00000006000400FA000040EB00DD
:102A5000004F7800BCFF07000040EB0020479800C3
:102A6000200037007F000700CBC2BF000080FB00C2
:102A70000000D100614060001047980006C8BF0008
:102A8000704060000004E0000B0032001E80FB007C
:102A90000000D100004F78001E4090000004E000CC
:102AA0000C0032001E40780001C8B3000140400015
:102AB000004F7800070037001E40780000404000BB
:102AC000004F78001E4090000004E000010032003A
:102AD0001E4FE8005C0007002E4090000040E80018
:102AE000204798002E409000E74F5000DDFF360051
:102AF0001E80FB000080FA00000006000200FA00C1
:102B000091FF070057000700CBC2BF000080FB0009
:102B10000000D10061406000004F78004A000700CB
:102B20001E80FB000080FA00000006000200FA0090
:102B3000004F78008FFF07001E04E00002003A00FB
:102B40001F000700010037002400070010C0B30079
:102B5000020007000080FA00000006000400FA00EE
:102B6000204798000040EB00004F7800030037003A
:102B70003C000700340007001E4FE8002E40900084
:102B80009E4F1000FAFF39000080FA000000060096
:102B90000000FA00C922A8000000000000000000A8
:102BA00000000000CBC2BF000080FB000000D1008D
:102BB000614060000080FB000080FA000000060019
:102BC0000000FA00CB22A900C922A90040C1B3002D
:102BD000B80407000080FA00000006000000FA00B8
:102BE0005CDCBF006140600000C0EA006140600042
:102BF0006140600000414000912C2000914078002D
:102C0000D0CFB30000C0600002407000C9E2B7003E
:102C10005CDCBF006140600061406000004140003A
:102C2000B12C200091407800D0CFB30000C06000EC
:102C300002407000CBE2B70040C1B3009D04070022
:102C40000080FA00000006000000FA00CB02A90094
:102C5000C902A90040C6B300960407000080FA002C
:102C6000000006000000FA005CDCBF00614060006C
:102C700000C0EA006140600061416000912C2000CA
:102C800091407800E0CFB30000C0600002407000C7
:102C9000C9E2B7005CDCBF006140600061416000D8
:102CA000B12C200091407800E0CFB30000C060005C
:102CB00002407000CBE2B70040C6B3007D040700BD
:102CC0000080FA00000006000A00FA00004F7800B9
:102CD00011079800220798001E80FB006101B900CF
:102CE000320798004307980090012000010020005F
:102CF0003E019000CE019000800F5100818F59005D
:102D0000D1003E003E009000CE0090000060010027
:102D1000190037003D003700B9003700B800370010
:102D2000C1003700C5003700670037007200370068
:102D30007C003700820037008500370088003700AC
:102D40008B003700C0003700BF003700BE003700DF
:102D5000BD003700BC003700BB003700BA003700A9
:102D6000B9003700B8003700B7003700B6003700A9
:102D7000830037009D0037002E009000E10F5000C7
:102D800008003A0000C0EB00BE00070060FCB7007E
:102D90000040EB000420070060DCBF000E040700C9
:102DA0001500370010C0B300FF1F07002E00900071
:102DB00009040700E0F02F00B21E07000000EB003E
:102DC000F0E288000800370000C0EB00AD0007000B
:102DD0000104070080F12F00AA1E0700F0E2800026
:102DE0000000E800F0E28800F1E280002E00900090
:102DF000808F5000F4FF3900D0C0B300E01F0700FF
:102E0000A0C0B300DE1F0700910037002E00900025
:102E1000E10F500010003A0030C0B300E21F07007D
:102E20001E009000EC0307001E00900095000700B4
:102E300060FCB70062DCBF00624060000004E0009C
:102E40001C003200A0F12F008E1E070060DCBF00C6
:102E5000E10307001700370040C0B300D21F07008E
:102E60001E009000DC03070020F22F00851E0700E3
:102E70002E009000D803070060F22F00811E07008B
:102E80000000EB00F0E28800060037001E00900012
:102E90007C00070060FCB700F0E280000000E80062
:102EA000F0E28800F1E280002E009000808F500058
:102EB000F6FF3900D0C0B300B11F0700A0C0B300B7
:102EC000AF1F07006200370010C0B300B300070057
:102ED00060FCB70050C0B300B31F070060DCBF0048
:102EE000611E0700D0C0B300A51F0700A0C0B3003B
:102EF000A31F07005600370060C0B300AA1F0700D9
:102F0000B700070060FCB70060DCBF00561E07007A
:102F1000D0C0B3009A1F0700A0C0B300981F0700DD
:102F20004B0037002E009000AB03070080C0B300B9
:102F30009D1F07002E009000D200070044003700BC
:102F400090C0B300981F0700E20007004000370060
:102F5000A0C0B300941F0700D70007003C00370053
:102F6000B0C0B300901F0700AB0007003800370067
:102F7000C0C0B3008C1F0700A0000700340037005A
:102F800060C1B300881F070012002000210020004C
:102F900010002000BC1C07000040E90061406000F8
:102FA0006141600021C6210091407800E0CFB3006C
:102FB00000C060000240700062FCB70062DCBF002D
:102FC0006140600000C0EA0061406000C700DD00B1
:102FD00006C8BF000074A1000140700006E8B700F9
:102FE0000668A80006A8A80019003700623CA900DE
:102FF00019000700D0F22F00381E07001400370018
:1030000031C0B3009ECF100002003A00623CA8001D
:1030100001003700623CA900E2000700C0F32F0066
:103020002E1E07000A003700623CA900C2000700FC
:1030300070F42F00291E070005003700F0C0B30010
:10304000591F07000200370000C1B300561F0700D8
:103050000080FA00000006000000FA00C8E2A800A4
:10306000C902A800C922A800CAE2A900CB02A9008F
:10307000CB22A900CAC2A800C8C2A9000080FA00D9
:10308000000006000600FA00404798008A0007008A
:1030900006C8BF00704060000004E000030032007A
:1030A00010C0B300004F78000200370000C8B30022
:1030B000004F78000040EB003047980030003700A8
:1030C0004E4090001E4060000004E00002003A0004
:1030D0004A000700010037004F0007007D0007008D
:1030E000CAC2BF000080FB004700DE0020479800F6
:1030F00006C8BF00704060000004E000100032000D
:103100004E4090000080FB000000D1004047980036
:103110001E4090000080FB000000D1001047980086
:103120002E409000E14F500011003A001E409000E8
:1031300001C8B30001404000104798000C00370060
:103140004E40900000404000404798001E409000D4
:1031500000404000104798002E409000E14F500082
:1031600003003A001E4090000040E800104798001D
:10317000510007003E4090000040E80030479800B2
:103180003E409000E74F5000CDFF36001E409000BB
:103190000080FB000080FA00000006000400FA0036
:1031A000204798002E4090000004E00002003A0002
:1031B0001200070001003700170007004500070054
:1031C000CAC2BF000080FB004700DE00004F78004D
:1031D000390007001E80FB000080FA000000060096
:1031E0000000FA00CAC2BF000080FB004700DE00FA
:1031F0000080FB000080FA00000006000000FA00DA
:10320000CB22A900C922A90040C1B30029030700AD
:103210000080FA00000006000000FA0062DCBF0037
:103220006140600000C0EA006140600061406000F1
:1032300000414000912C200091407800D0CFB30095
:1032400000C0600002407000C9E2B70062DCBF004D
:10325000614060006140600000414000B12C2000EE
:1032600091407800D0CFB30000C0600002407000F1
:10327000CBE2B70040C1B3000E0307000080FA00A4
:10328000000006000400FA00204798000040EB0010
:10329000004F7800030037000E000700060007000B
:1032A0001E4FE8002E4090009E4F1000FAFF39009C
:1032B0000080FA00000006000000FA00CB02A9001E
:1032C000C902A90040C6B300FA0207000080FA0054
:1032D000000006000000FA0062DCBF0061406000F0
:1032E00000C0EA006140600061416000912C200054
:1032F00091407800E0CFB30000C060000240700051
:10330000C9E2B70062DCBF0061406000614160005B
:10331000B12C200091407800E0CFB30000C06000E5
:1033200002407000CBE2B70040C6B300E1020700E4
:103330000080FA00000006000000FA0062DCBF0016
:103340006140600000C0EA006140600061406000D0
:103350004601DD00812C200091407800F0CBB300C5
:1033600000C0600002407000C8E2B70062DCBF002D
:1033700061406000614060004601DD00A12C20003A
:1033800091407800F0CBB30000C0600002407000B4
:10339000CAE2B70040C1B300C60207000080FA00CD
:1033A000000006000000FA00CAC2A900C8C2A900B5
:1033B00040C1B300BF0207000080FA000000060011
:1033C0000A00FA00004F78001107980022079800C1
:1033D0001E80FB00300798003E009000E40F500074
:1033E000280032003E009000E40F50000A003C002C
:1033F0003E009000E10F50004B0032003E00900074
:10340000E10F500015003C003E0090000000E0007D
:1034100020003200CE0037003E009000F80F500030
:10342000550032003E009000F80F500004003C00B0
:103430003E009000E50F5000AB003200C4003700A2
:103440003E009000F90F5000A00032003E009000B6
:10345000FA0F5000A2003200BD00370030C0B300A8
:103460009E4F100002003A00697CA800010037005E
:10347000697CA900F3010700E0852F00171D0700F4
:10348000B5003700EB01070090862F00131D0700E1
:10349000B10037002E009000E10F500008003A0004
:1034A0000040EB00401E070000C0EB00E9010700F0
:1034B00066FCB70066DCBF00470207001500370056
:1034C00010C0B300381E07002E0090004202070013
:1034D00050872F00EB1C07000000EB0020E3880062
:1034E0000800370000C0EB00DA0107003A020700CD
:1034F00000C2B300221E070020E380000000E800A5
:1035000020E3880021E380002E009000808F50008F
:10351000F4FF3900D0C0B300191E0700A0C0B300EB
:10352000171E07008C00370030C0B3001E1E0700B6
:103530001E009000280207001E009000C501070031
:1035400066FCB70069DCBF00684060000004E00072
:1035500004003200F0872F00CA1C070066DCBF00A1
:103560001D020700D0C0B300051E0700A0C0B300B5
:10357000031E07007800370090C2B3000A1E070040
:103580001200200041002000100020003E1B070018
:103590000040E90068FCB700A0C2B300021E0700AB
:1035A000120020002100200010002000361B070020
:1035B0000040E900614060006141600091C6210067
:1035C00091407800E0CFB30000C06000024070007E
:1035D00069FCB700B0C2B300F31D07002200200051
:1035E0002100200010002000271B07000040E900F8
:1035F00061406000614060000041400091C62100D0
:1036000091407800D0CFB30000C06000024070004D
:1036100069FCB700C0C2B300E31D07001200200020
:103620002100200010002000171B07000040E900C7
:1036300061406000614060004201DD0091C62100F0
:1036400091407800B0CFB30000C06000024070002D
:1036500069FCB70060C1B300D31D07001200200051
:103660002100200010002000071B07000040E90097
:1036700061406000614060004401DD0091C62100AE
:1036800091407800F0CEB30000C0600002407000AE
:1036900069FCB70069DCBF000080FB004400DE006D
:1036A0006140600000C0EA0061406000C700DD00CA
:1036B00006C8BF000074A1000140700006E8B70012
:1036C0000668A90006A8A80023003700697CA900A5
:1036D000F400070070882F00801C07001E003700D0
:1036E000400107001C0037001E00900040079800B2
:1036F0004E0090000000E000040032004E009000F8
:10370000E10F5000040032000E00370010892F0036
:103710005C1C070010003700508B2F00591C07005D
:10372000120020003100200010002000D61A0700EF
:103730000040E90066FCB70066DCBF000800070037
:1037400005003700F0C0B300971D070002003700E6
:1037500000C1B300941D07000080FA0000000600BD
:103760000400FA0020479800D08E2F005B1C070051
:103770001C0107004B0007002E409000E14F500055
:1037800008003E00CAC2BF000080FB004600DE0009
:1037900061406000804078002E40900080CF500053
:1037A00008003A0041C2BF0001C8B30001406000F8
:1037B0000004E0000E003A0041E2A80061E2A80027
:1037C0000B00370041C2BF0001C8B30001406000D8
:1037D0000004E0000600320041E2A90061E2A90015
:1037E000D0C0B300661D0700A0C0B300641D070071
:1037F00040C2BF000042B2000004E00004003A00F2
:1038000040128000004F78001E40780072010700CF
:1038100060C2BF000042B2000004E00008003A00AD
:1038200040138000004F780040912F00151C0700C6
:103830001E4078006801070060912F00111C0700EE
:1038400040C2BF000044B2000004E00004003A009F
:1038500060C2BF000044B2000004E0000500320076
:1038600090912F001D1C070040C2A90060C2A90052
:103870000800370022C2BF00614060000004E00081
:10388000BDFF320030118000004F780070962F008D
:10389000FC1B070070000700820007000080FA0090
:1038A000000006000000FA00C8C2A800C902A80073
:1038B000C8E2A800C922A800816A200091407800CF
:1038C00000CEB30000C060009040B300A8E6B7008F
:1038D000916A20009140780000CEB30000C06000E3
:1038E0000034A000A9E6B700C16A2000914078002A
:1038F00000CEB30000C060007040B300ACE6B7007B
:10390000D16A20009140780000CEB30000C0600072
:103910000034A000ADE6B70068DCBF008080FB008B
:1039200000C7210000804000104078000080FB00AC
:103930001012880069DCBF006140600061406000D7
:103940004601DD002124200091407800F0CBB30037
:1039500000C060000240700042E2B70069DCBF00B6
:103960000080FB000000D100614060006141600008
:103970003124200091407800E0CFB30000C0600007
:103980000240700043E2B7000000EB002012880004
:103990000000EB000012880068DCBF008080FB00A4
:1039A00000C7210000804000104078000080FB002C
:1039B0001013880069DCBF00614060006140600056
:1039C0004601DD002126200091407800F0CBB300B5
:1039D00000C060000240700062E2B70069DCBF0016
:1039E0000080FB000000D100614060006141600088
:1039F0003126200091407800E0CFB30000C0600085
:103A00000240700063E2B7000000EB002013880062
:103A10000000EB00001388000000EB00401288005B
:103A20000000EB00401388004322A9006322A90094
:103A30004362A80042A2A9006362A80062A2A90092
:103A400040C2A90060C2A9004402A8006402A80004
:103A50000080FA00000006000000FA0041E2A90020
:103A60004362A90061E2A9006362A900A8C6BF0081
:103A7000F041B300A8E6B700A9C6BF00F041B3000B
:103A8000A9E6B700ACC6BF00F041B300ACE6B70092
:103A9000ADC6BF00F041B300ADE6B7000080FA004C
:103AA000000006000000FA0041E2A90069DCBF0046
:103AB000704060000004E00003003A00CEE2A8007D
:103AC000CF02A800CEC2A800816A200091407800F1
:103AD00000CEB30000C060007040B300A8E6B7009D
:103AE000916C20009140780000CEB30000C06000CF
:103AF0007040B300C9E6B700816C200091407800A7
:103B000000CEB30000C060000034A000C8E6B700DB
:103B1000CAC2A800C8C2A900C902A900C8E2A80078
:103B2000C922A90068DCBF008080FB0000C721001B
:103B300000804000104078000080FB0010128800D8
:103B400042A2A80069DCBF006140600061406000E3
:103B50004601DD002124200091407800F0CBB30025
:103B600000C060000240700042E2B70069DCBF00A4
:103B70000080FB000000D1006140600061416000F6
:103B80003124200091407800E0CFB30000C06000F5
:103B90000240700043E2B70069DCBF000080FB0018
:103BA0004200DE0061406000614060000041400072
:103BB0003124200091407800D0CFB30000C06000D5
:103BC0000240700043E2B7000000EB0020128800C2
:103BD0000000EB000012880041E2A8000080FA001B
:103BE000000006000000FA0041E2A900A8C6BF00DC
:103BF000F041B300A8E6B700916C20009140780036
:103C000000CEB30000C06000C9E6B700816C2000A0
:103C10009140780000CEB30000C06000C8E6B70055
:103C2000CEE2A900CF02A900CEC2A9000080FA000E
:103C3000000006000000FA00CAC2A8000080FA00D6
:103C4000000006000000FA00CAC2A9000080FA00C5
:103C5000000006000200FA00004F78001E80FB0002
:103C60004012880085C0BF00644060000004E0008E
:103C7000FCFF320040128000004F78008540A90010
:103C80001E80FB000080FA00000006000000FA0021
:103C900006E8A9000608A9000648A9000628A90008
:103CA0000668A9000688A90006A8A90006C8A900F8
:103CB0000708A9000080FA00000006000000FA00D2
:103CC000C922A800C902A800C8E2A800C8C2A8006A
:103CD000C942A800C222A900C022A9000000EB002E
:103CE00020408800E9FF0700CB62A900C962A90053
:103CF000C002A900C202A9002D23A9002D43A900DA
:103D00002D63A9002D83A900013220009140780085
:103D100000CEB30000C0700020E3B7000000EB004D
:103D20008019880020F02100201988000000EB0095
:103D3000101988000080FA00000006000200FA0056
:103D4000004F78001E80FB00401988002023A80047
:103D50002003A90020C3BF00614060000004E00010
:103D6000FCFF3200001880000080FA00000006000E
:103D70000000FA0021E3A800C0C0B300EFFF070075
:103D8000C41B070021E3A9000080FA000000060020
:103D90000000FA0000C8BF000080FB008000400067
:103DA000A0BF210000804000100078004011880072
:103DB0000000EB00001188002062A8000000EB006A
:103DC0001011880021E2A8002342A8008560A90004
:103DD0000080FA00000006000400FA00004F78009E
:103DE00010408000100798001E009000E10F500066
:103DF0000D0032001E009000E10F50000700390056
:103E00001E009000E20F50000A0032001E009000D9
:103E1000E30F50000A0032000B0037001E80FB0049
:103E2000891B0700080037001E407800551B07005B
:103E3000050037001E407800C21A07000200370054
:103E40001E407800CE1B07000080FA00000006002C
:103E50000600FA00404798000040EB002047980019
:103E60000E0037000000EB00000F7800050037005F
:103E7000A0CFB3000F0007001E0078000000E8008C
:103E8000000F78001E007800E30F5000F8FF3600A6
:103E90002E4090000040E80020479800AE4090007F
:103EA0004E40900080CF5000EEFF39000080FA00B5
:103EB000000006000400FA00204798000040EB00D4
:103EC000004F7800130037000000000000000000E1
:103ED00000000000000000000000000000000000E2
:103EE00000000000000000000000000000000000D2
:103EF00000000000000000000000000000000000C2
:103F000000000000000000001E4078000040E800B3
:103F1000004F78009E4078002E40900080CF5000E7
:103F2000E9FF39000080FA00000006000A00FA00EC
:103F3000004F780011079800220798001E80FB00B0
:103F4000300798003E009000E40F50005800320007
:103F50003E009000E40F50000A003C003E0090003C
:103F6000E10F50003F0032003E009000E10F500092
:103F70004B003C003E0090000000E00012003200C8
:103F8000960037003E009000F80F50004C003200C1
:103F90003E009000F80F500004003C003E009000EE
:103FA000E50F5000520032008C0037003E009000B8
:103FB000F90F5000460032003E009000FA0F50000A
:103FC00088003200850037002E009000E10F50007D
:103FD00008003A000040EB00731B0700DEF8070002
:103FE0002DFCB7004BF907002DDCBF007AFF07005E
:103FF0001700370010C0B3006B1B07002E009000A5
:1040000075FF070020C0B300671B07000000EB002E
:1040100050E188000A003700CFF807002CFCB700F9
:104020003CF907002CDCBF006BFF0700E05E2F00AF
:10403000141A070050E180000000E80050E18800F9
:1040400051E180002E009000808F5000F2FF390077
:10405000D0C0B3004A1B0700A0C0B300481B070034
:104060006000370030C0B3004F1B07001E009000F7
:1040700059FF07001E0090009BF807000AF907008F
:104080000004E00003003A00005F2F00131A07004D
:1040900054003700D05F2F00101A0700510037007E
:1040A000C8F80700B0602F00F61907004D00370070
:1040B000D4F8070010622F00F219070049003700FA
:1040C0000668A90006A8A80006E8A8004500370071
:1040D0004600070060632F00001A070050662F009B
:1040E000FE190700F0682F00FC1907003D0037009B
:1040F0001E009000400798004E009000E10F500015
:104100000A0032004E009000E10F50000400390018
:104110004E009000E20F5000200032002C003700CB
:1041200090692F00D71907002E003700106C2F0060
:10413000EA1907000000EB0050E188000E0037008C
:10414000A0F8070050E1800067F80700D6F80700E4
:104150000004E0000400320050E180001EFF070070
:10416000E05E2F00C7190700A6F8070050E18000A5
:104170000000E80050E1880051E18000F00F2000CD
:10418000808F5000EEFF3600D0C0B300FC1A07004D
:10419000A0C0B300FA1A070012003700B06F2F005A
:1041A000CE190700180007003A00070022C2BF001E
:1041B000614060000004E000FBFF3200301180002D
:1041C00050E1880020722F00AE190700050037006B
:1041D000F0C0B300F41A07000200370000C1B300BA
:1041E000F11A07000080FA00000006000000FA0043
:1041F000C922A800C902A800CB02A900CB22A900AD
:104200000080FA00000006000000FA00C922A800A1
:10421000C902A800CB02A900CB22A90062A0A80075
:1042200062C0A8008660A9000000EB0070E1880071
:104230000040EB0033FCB700CBC2BF000080FB00A6
:104240000000D100614060006141600021C3210095
:1042500091407800E0CFB30000C0600002407000E1
:1042600032FCB700CBC2BF0061406000614060001B
:104270004201DD0021C3210091407800B0CFB3009E
:1042800000C060000240700032FCB7000080FA00FD
:10429000000006000400FA0086C0BF00684060000D
:1042A0000004E0008B003200CBC2BF000080FB00A6
:1042B0000000D100614060006140600000414000AA
:1042C00021C3210091407800D0CFB30000C060002E
:1042D0000240700032FCB700CBC2BF0061406000FA
:1042E000614060004301DD0021C32100914078005E
:1042F00070CFB30000C060000240700032FCB70015
:104300008660A90032DCBF00644060000004E00069
:104310002200320032DCBF00684060000004E00090
:104320001E00320032DCBF00614060000004E0008B
:104330000B00320032DCBF00624060000004E0008D
:1043400007003A002000200070E188000040EB00E8
:1043500033FCB700B0C5B300891A07004600370028
:1043600032DCBF00614060000004E00042003A001F
:1043700032DCBF00624060000004E0003E0032001A
:104380000000EB0070E188000040EB0033FCB70058
:10439000D0C5B3007A1A07003700370032DCBF00FF
:1043A000644060000004E00033003A0032DCBF00EB
:1043B000684060000004E0002F00320070E18000DF
:1043C000100798001E009000E20F50000400320019
:1043D0001E009000E30F5000170032002600370047
:1043E00030DCBF000040400030FCB70032DCBF00D2
:1043F0000080FB000000D100614060008040780038
:1044000030DCBF0000C0400030FCB70033DCBF0030
:104410000040E80033FCB70033DCBF00E84F500039
:1044200015003A000040EB0033FCB70030002000DC
:1044300070E1880010003700CBC2BF000080FB0095
:104440000000D10061406000004F780030DCBF0008
:1044500061FE07001E04E00003003200D0C2B3007A
:10446000471A070002003700B0C2B300441A070021
:104470002000200070E1880032DCBF000080FB00DB
:104480000000D100614060006141600021C3210053
:1044900091407800E0CFB30000C06000024070009F
:1044A00032FCB70032DCBF000080FB004300DE00BE
:1044B00061406000614060004201DD0021C32100D5
:1044C00091407800B0CFB30000C06000024070009F
:1044D00032FCB7000080FA00000006000000FA007D
:1044E00080B62F00E71807000080FA0000000600E1
:1044F0000200FA00004F780030BA2F00F7180700CA
:104500003713070000C0EB006AFE07001E04E0003E
:1045100002003A00181307000100370022130700B9
:1045200020BB2F00ED18070010C0B3008BF9070067
:104530002B1307000080FA00000006000A00FA00B2
:1045400041F9070080407800630047000148780087
:104550003DF9070080407800630047001140980053
:1045600039F9070080407800630047002140980037
:1045700035F907008040780063004700314098001B
:1045800030BC2F00BF1807006300470010407800C0
:104590000080FB00AC19070060BD2F00B9180700B0
:1045A00063004700104090000080FB00A619070040
:1045B00060BD2F00B3180700630047002040900043
:1045C0000080FB00A019070060BD2F00AD18070098
:1045D00063004700304090000080FB009A190700FC
:1045E000D0C0B300E6190700A0C0B300E41907006B
:1045F00063004700104078000080FB004400DE00AC
:104600002047980080BD2F009E1807002E40900084
:104610000080FB00400798004E009000E90F50001A
:10462000110032004E009000E90F500004003C00E1
:104630004E009000E80F50000800320013003700D1
:104640004E009000EA0F50000A0032004E00900029
:10465000EF0F50000A0032000C00370030BE2F0070
:10466000881807000B003700A0BE2F008518070030
:104670000800370010BF2F00821807000500370020
:1046800080BF2F007F18070002003700C0BF2F0037
:104690007C180700D0C0B300B9190700A0C0B30050
:1046A000B719070040C02F007618070063004700C5
:1046B000104090000080FB004700DE00204798007B
:1046C0002E4090000004E00003003A0000C12F00DB
:1046D0006C1807000200370070C12F00691807002E
:1046E000D0C0B300A6190700A0C0B300A4190700EA
:1046F00070C22F006318070063004700104090004D
:104700008080FB0080F72F00008060004380DE0087
:10471000204798002E4090000004E00003003A007B
:1047200040C32F00571807001B0037002E40900091
:10473000EF4F500003003A0080BF2F0051180700D0
:104740001500370000042000000F7800E300470048
:104750000040EB0080487800080037001E00780019
:1047600000004000000F7800630047001040780010
:104770008040E8006300470001487800630047007C
:10478000904078002E40900080CF5000F3FF390019
:104790001E007800CC180700D0C0B30078190700BD
:1047A000A0C0B3007619070020C42F0035180700F9
:1047B000630047009040900070C0B30000C06000EC
:1047C0002047980010002000000F7800E300470009
:1047D0000040EB0080487800080037001E00780099
:1047E00000004000000F7800630047001040780090
:1047F0008040E800630047000148780063004700FC
:10480000904078002E40900080CF5000F3FF390098
:104810001E007800DB18070050C52F002F18070076
:104820000080FA00000006000E00FA00004F780039
:1048300011079800220798001E80FB006101B90053
:104840004207980053079800A001200001002000B3
:104850004E019000DE019000800F5100818F5900C1
:1048600084013E004E009000DE00900000600100D8
:10487000490037006B003700370037003C00370035
:1048800041003700A0003700720037007C0037007D
:10489000860037008C0037008F0037009200370009
:1048A000950037007301370072013700710137003E
:1048B000700137006F0137006E0137006D0137005E
:1048C0006C0137006B0137006A013700690137005E
:1048D000020037001C0037006801370060C1B300D8
:1048E00031190700120020002100200010002000D4
:1048F000651607000040E90061406000614160000A
:10490000C1C3210091407800E0CFB30000C0600037
:10491000024070003CFCB7003CDCBF00614060001E
:1049200000C0EA0061406000C700DD0006C8BF00AB
:104930000074A1000140700006E8B7000668A800F6
:1049400006A8A8004D013700DD01070080EA2E000F
:10495000E2170700490137004A01070020C0B300F1
:104960009A01070030EB2E00DC17070043013700E7
:104970004401070030C0B30094010700A0EC2E00F2
:10498000D61707003D0137003E01070060EE2E00FC
:10499000D2170700390137002E009000E10F5000B8
:1049A00007003A00370207003AFCB7000040EB006E
:1049B000FD1807003ADCBF0007FD070014003700B0
:1049C00010C0B300F81807002E00900002FD070089
:1049D00000EF2E00AB1707000000EB00C0E18800DD
:1049E0000700370027020700FBFC0700A0EF2E009E
:1049F000A4170700C0E180000000E800C0E18800C3
:104A0000C1E180002E009000808F5000F5FF39003A
:104A1000D0C0B300DA180700A0C0B300D818070050
:104A2000160137001E009000B00107003AFCB700E5
:104A300030C0B300DC1807001E009000E6FC070041
:104A4000D0C0B300CE180700A0C0B300CC18070038
:104A50000A0137004F0207003AFCB70050C0B3000C
:104A6000D11807003ADCBF007F170700D0C0B300A1
:104A7000C3180700A0C0B300C1180700FF0037002B
:104A800060C0B300C81807004C0207003AFCB7002A
:104A90003ADCBF0074170700D0C0B300B818070095
:104AA000A0C0B300B6180700F40037002E00900035
:104AB000C9FC070080C0B300BB1807002E0090009F
:104AC00067020700ED00370090C0B300B61807007A
:104AD00070020700E9003700A0C0B300B218070059
:104AE00085020700E5003700B0C0B300AE1807002C
:104AF00039020700E1003700C0C0B300AA18070060
:104B000050020700DD0037009E009000610798000A
:104B10006E019000E10F51000D003200EE01900097
:104B2000E18F5100070039006E009000E20F500045
:104B30000C003200EE009000E38F5000560032006F
:104B4000C9003700C0EF2E004E170700CB0037001A
:104B500015010700C0F32E0060170700C900070009
:104B6000C6003700A0F42E005C1707000E010700F6
:104B7000C0F32E005917070017020700C1000700F5
:104B800020C0B3001101070000C0EB003402070091
:104B900000C0EB0032020700BA00070030C0B300CB
:104BA0000A0107000000EB00C0E1880007003700A1
:104BB000C0E180000000E800C0E18800C1E18000A1
:104BC000900F2000808F500003003600F101070095
:104BD0000004E000F6FF3200AA000700F200070020
:104BE000C0F32E003D170700A600070030C0B30039
:104BF000F6000700A0F52E0038170700C0E180007E
:104C000075FC0700D0F62E001E1707000040EB00D1
:104C10003AFCB70019003700A0F72E00191707005B
:104C2000C0E180006CFC0700C0F72E0015170700DC
:104C30009401070068FC0700A0EF2E001117070081
:104C40009001070064FC0700A0EF2E000D1707007D
:104C50008C01070060FC0700A0EF2E000917070079
:104C6000880107005CFC070000F82E00051707000C
:104C70003ADCBF000040E8003AFCB7003ADCBF0075
:104C80008080FB00C0E18000808F5000E2FF39008F
:104C90007C0007007900370010C1B3003818070006
:104CA00030F82E000D17070040F92E000B170700F3
:104CB00030FB2E00091707000000370085C0BF0039
:104CC000684060000004E000FCFF3200301180000A
:104CD000C0E188008560A900C1E18000A007200034
:104CE000808F500001003200F4FF370070FC2E006E
:104CF000FA16070030C1B30021180700D1010700E0
:104D0000FD0107001E0207002E090700C0E1880010
:104D1000C2E1800032079800BE019000E38F51008D
:104D20001D0032003E009000E30F500007003E00DF
:104D3000BE009000E18F5000110032003E01900053
:104D4000E10F510011003E000A003700BE01900043
:104D5000E58F5100160032003E009000E50F500034
:104D600010003900BE009000E68F500013003200A2
:104D70001500370090FD2E00D816070018003700E8
:104D800010FE2E00D51607001500370040FF2E003C
:104D9000D216070012003700C0002F00CF16070000
:104DA0000F00370030022F00CC1607000C00370030
:104DB000E0032F00C91607000900370070052F0017
:104DC000C61607000600370000072F00AD160700C3
:104DD000C0E1800000FC070000F82E00A9160700C3
:104DE000D0072F00A716070008090700FAFB0700E5
:104DF00040092F00B9160700200B2F00B716070037
:104E000010C1B300DE1707000000EB00C0E188000E
:104E10000000370022C2BF00614060000004E000D3
:104E2000FCFF3200301180003AFCB700A1C3210022
:104E300091407800A0C7B30080CF500004003A0032
:104E4000C0E180000000E800C0E1880002003700F7
:104E50000000EB00C0E18800C0E18000E50F5000D9
:104E600006003200EBFF3700F0C0B300CE1707009A
:104E70000200370000C1B300CB1707000080FA0022
:104E8000000006000200FA00E00C2F007D1607006B
:104E900034DCBF000080FB00000F78001E007800AB
:104EA000E10F50000E0032001E007800E10F5000AC
:104EB00004003C001E0078000000E0000B003200FF
:104EC000350037001E007800E20F50000F0032005E
:104ED0001E007800E30F5000240032002E0037003F
:104EE000700D2F007D1607002D003700A40107006C
:104EF00010C0B3005A01070010C0B30034FCB70063
:104F0000400E2F00751607002500370035DCBF0066
:104F1000E14F50000A003A0036DCBF00E14F50007C
:104F200002003A002C01070001003700450107008C
:104F30000040EB0035FCB700000F2F0051160700B2
:104F40007401070020C0B300450107008C01070071
:104F500010C0B3004201070010C0B30034FCB7001A
:104F600050102F005D1607000D0037006901070083
:104F700020C0B3003A0107008101070010C0B30050
:104F80003701070010C0B30034FCB700E0102F0059
:104F9000521607000200370070112F004F1607004D
:104FA0000080FA00000006000000FA005901070026
:104FB000A0C0B3002A010700710107000040EB0008
:104FC00034FCB7000080FA00000006000400FA007C
:104FD000004F780034DCBF00E14F50000200320087
:104FE00050122F003D160700E00C2F002516070079
:104FF0001E80FB00100798001E009000E10F50007B
:105000000E0032001E009000E10F500004003C0032
:105010001E0090000000E0000B003200240037006A
:105020001E009000E20F5000160032001E0090009B
:10503000E30F5000080032001D003700700D2F00F4
:10504000261607001C003700D7FF070010142F009A
:1050500022160700180037002E01070010C0B30009
:10506000FF0007004601070020C0B300FC00070056
:1050700030C0B30034FCB70070142F0017160700BF
:105080000D0037002301070020C0B300F400070023
:105090003B01070020C0B300F100070020C0B300AF
:1050A00034FCB700B0152F000C16070002003700C3
:1050B00000192F00091607000080FA000000060002
:1050C0000000FA00C8E2A800C902A900C922A9008C
:1050D000C8C2A900CAE2A900CB02A900CB22A9003C
:1050E000CAC2A9000080FA00000006000800FA0009
:1050F000404798000001070035DCBF00E14F500039
:1051000006003A0036DCBF00910007000040EB00CB
:1051100035FCB700501B2F00DA15070006C8BF008A
:10512000704060000004E0000300320010C0B300D3
:10513000004F78000200370000C8B300004F78002D
:105140000040EB0030479800450037004E4090008B
:105150001E4060000004E00002003A00B9000700B1
:10516000010037009C000700CA000700CAC2BF0048
:105170000080FB004700DE002047980006C8BF0003
:10518000704060000004E000100032004E409000CB
:105190000080FB000000D100404798001E409000B6
:1051A0000080FB000000D100104798002E409000C6
:1051B000E14F500011003A001E40900001C8B300BA
:1051C00001404000104798000C0037004E4090000E
:1051D00000404000404798001E40900000404000C2
:1051E000104798002E409000E14F500003003A0015
:1051F0001E4090000040E80010479800BE000700E5
:1052000034DCBF00E24F500012003A003E409000F4
:10521000E64F50000F003A0010C0B30035FCB70055
:105220004E4090001E4060000004E00003003A0081
:105230000040EB0036FCB7000200370010C0B3009E
:1052400036FCB7001E4090000080FB00300798003D
:10525000090037003E4090000040E80030479800C9
:105260003E409000E74F5000B8FF36001E409000CF
:105270000080FB00300798003E0090000080FA009C
:10528000000006000400FA009B00070035DCBF00A8
:10529000E14F500006003A0036DCBF002C0007004A
:1052A0000040EB0035FCB700501B2F0075150700C0
:1052B0000040EB00204798001F00370075000700F2
:1052C000CAC2BF000080FB004700DE001047980004
:1052D00006C8BF00704060000004E00008003A000B
:1052E0001E40780000404000004F78001E409000B3
:1052F0000004E0000C0032001E4FE8000A003700F6
:105300001E80FB000000D100004F78001E4090007E
:105310000004E000040032001E40780001C8B30021
:1053200001404000004F7800730007002E409000BD
:105330000040E800204798002E409000E74F5000C2
:10534000DEFF36001E80FB000080FA000000060031
:105350000400FA00204798002E4090000004E0006E
:1053600002003A0037000700010037001A0007006A
:1053700048000700CAC2BF000080FB004700DE00F3
:10538000004F78005C0007001E80FB000080FA00E0
:10539000000006000200FA003E000700CAC2BF007B
:1053A0000080FB004700DE00004F7800520007003D
:1053B0001E80FB000080FA00000006000000FA00DA
:1053C000CAC2BF000080FB004700DE000080FB0077
:1053D0000080FA00000006000000FA003CDCBF007C
:1053E0006140600000C0EA00614060006140600010
:1053F00000414000912C200091407800D0CFB300B4
:1054000000C0600002407000C9E2B7003CDCBF0091
:10541000614060006140600000414000B12C20000C
:1054200091407800D0CFB30000C06000024070000F
:10543000CBE2B70040C1B3009EFA07000080FA003B
:10544000000006000000FA00CB22A900C922A90032
:1054500040C1B30097FA07000080FA000000060080
:105460000400FA00204798000040EB00004F78004D
:1054700003003700070007001F0007001E4FE80069
:105480002E4090009E4F1000FAFF39000080FA0075
:10549000000006000000FA003CDCBF006140600034
:1054A00000C0EA006140600061416000912C200072
:1054B00091407800E0CFB30000C06000024070006F
:1054C000C9E2B7003CDCBF006140600061416000A0
:1054D000B12C200091407800E0CFB30000C0600004
:1054E00002407000CBE2B70040C6B30071FA07007B
:1054F0000080FA00000006000000FA00CB02A900BC
:10550000C902A90040C6B3006AFA07000080FA0089
:10551000000006000000FA003CDCBF0061406000B3
:1055200000C0EA0061406000614060004601DD00AB
:10553000812C200091407800F0CBB30000C06000C7
:1055400002407000C8E2B7003CDCBF006140600070
:10555000614060004601DD00A12C200091407800F0
:10556000F0CBB30000C0600002407000CAE2B70098
:1055700040C1B3004FFA07000080FA0000000600A7
:105580000000FA00CAC2A900C8C2A90040C1B30005
:1055900048FA07000080FA00000006000800FA0040
:1055A000300798006000B8001007980021079800A5
:1055B0000000EB00000F7800160037001E0090007E
:1055C000AE009000C808DD000080FD00804078003B
:1055D0000040EB0010079800210798001E0078009B
:1055E000BE0090000080E8000100400010407800FC
:1055F0000081FB00030020001E009000AE00900020
:105600000200700083807000100798002107980046
:105610001E0FE8003E009000100078009E0F500022
:10562000E6FF3C001E009000AE0090000080FA00F3
:10563000000006000600FA00000F7800120798002C
:10564000230798009E007800100020008008780052
:105650001E009000804078001E00780021409800D5
:105660000080FA00000006000E00FA0040079800D3
:10567000510798006207980010002000300798003A
:105680004E0090009000780021079800200037001D
:105690002E009000CE0090000080E8000100400045
:1056A00090407800214798002E009000DE00900086
:1056B0000080E80001004000904078001147980009
:1056C0006E0090000000E0000B0032002E00900001
:1056D000EE0090000080E80001004000104F7800CC
:1056E0002E4090001E406000204798001E40900011
:1056F0001E40600010479800AE4090001E40900091
:1057000080CF5000020032000000EB00300798000C
:105710003E0090000000E000060032002E009000E5
:105720000000E900200798002E009000E10F4000E3
:10573000D7FF3A003E0090000080FA00000006000B
:105740000600FA00000F7800110798002207980061
:105750001E0090009E0078000080E80001004000DC
:10576000104078008080FB002E0090006700100041
:105770000088DE00610060000080FA000000060082
:105780000A00FA00100798002107980032079800D5
:10579000430798003E009000E70010001000200032
:1057A0000100DD00004F78002E0090009E00900068
:1057B0000080E80001004000104078008040780040
:1057C0001E40780000C0EA0000C06000104798004A
:1057D0004E0090000000E000030032001E409000E8
:1057E0001E40700010479800AE0090001E00900010
:1057F000010040000080E8009E40900001487800D1
:105800000080FA00000006001000FA00500798001F
:1058100061079800720798006E0090009000780071
:105820005E009000010878000040EB00004F9800F7
:105830006E009000100F7800240037001E007800E2
:10584000EE0090000080E800010040001040780069
:105850000080FB00200798001E007800FE009000EA
:105860000080E80001004000104078000080FB004C
:1058700010079800AE0090001E009000808040004D
:105880000E4890000080FB00008040003007980028
:105890000040EB00004F9800BE009000F00F200089
:1058A000808F50000200360010C0B300004F9800F7
:1058B0009E0078003E009000004178005E0090005D
:1058C000010040000080E800024878001E0FE90057
:1058D0000080EB009E0F1000D8FF3A000080FA0015
:1058E000000006000600FA00100798002107980043
:1058F0001E009000AE009000010878001E0090008D
:10590000008FE800060037001E00780080060700C0
:105910002E0090000000E900200798001E0FE8000C
:105920002E0090000000E000F7FF3A000080FA002F
:10593000000006000200FA00000F78009E007800C8
:105940000040EB00804878009E0078000040EB00AB
:10595000904098001E0178006000B8001001980087
:10596000210198009E0078000000EB00B000980034
:105970009E0078000040EB00B04898009E00780040
:105980000040EB00804898009E00780010C0B300F3
:10599000904898009E00780010C0B300A04898007E
:1059A0001E0178006000B8000009980011099800F5
:1059B0009E0078000000EB00A00898001E0178000F
:1059C0006000B80060019800710198000000EB00D1
:1059D0000080FA00000006000200FA00000F7800C4
:1059E0000080FA00000006000800FA00008FBE00E8
:1059F00072002000030020003E004100AE804900FC
:105A000020079800310798002E009000BE009000FB
:105A1000E00F5000E08F580006003D002E0190007E
:105A2000BE01900067014100E08149002207980013
:105A3000330798002E019000BE0190004D1ADD0042
:105A40004310DE0000007200C398DE000080FA0000
:105A5000000006000200FA00000F78009E007800A7
:105A600010002000FB0507008000EB000000EB00A9
:105A7000F8050700110020000000EB00F505070005
:105A80000080FA00000006000C00FA0020079800D1
:105A9000614798000000EB00000F78006E40900016
:105AA0000004E00015003A0010002000E9FF0700A4
:105AB0000000EB0010079800090037008000EB00A1
:105AC0000000EB00E3050700110020000000EB00E0
:105AD000E00507001E0090000000E8001007980095
:105AE0001E009000E40F5000F4FF3400AE00900060
:105AF0000040EB0080487800080137002E0090003D
:105B0000904078006E40900080CF5000110032002D
:105B10006E409000E74F500004003A002E009000C5
:105B200010407800E64F500007003A006E409000A9
:105B3000EE4F500007003A002E0090001040780011
:105B4000ED4F50000300320050002000000F78009D
:105B5000F20037002E009000904078006E409000D8
:105B600080CF5000E8003A006E409000E64F5000B1
:105B700006003A0010002000B6FF0700AE009000BB
:105B800070C0B30080487800DF0037006E4090009E
:105B9000ED4F5000DC003A0010002000ADFF070080
:105BA000AE009000E0C0B30080487800D600370017
:105BB0002E009000104078000080FB006101B900C9
:105BC0004207980053079800F000200001002000D1
:105BD0004E019000DE019000800F5100818F59002E
:105BE000C4003E004E009000DE0090000060010006
:105BF0000F00370014003700190037002700370066
:105C0000350037003A003700480037004D003700B4
:105C10005B003700690037006E0037007C003700FA
:105C2000810037008F00370094003700A200370052
:105C30000000EB0087FF0700AE00900010C0B3002B
:105C400080487800B00037001000200081FF070076
:105C5000AE00900020C0B30080487800AA00370052
:105C60006E409000E84F5000060036001000200003
:105C700078FF0700AE00900090C0B3008048780025
:105C8000A10037000000EB0072FF0700AE0090009B
:105C900030C0B300804878009B0037006E40900011
:105CA000E44F500006003A000000EB0069FF0700D7
:105CB000AE00900040C0B3008048780092003700EA
:105CC0001000200063FF0700AE00900050C0B3003A
:105CD000804878008C003700100020005DFF07002E
:105CE000AE00900050C0B3008048780086003700B6
:105CF0006E409000E64F500006003A000000EB00B6
:105D000054FF0700AE00900060C0B30080487800E8
:105D10007D003700100020004EFF0700AE0090000D
:105D200080C0B30080487800770037001000200062
:105D300048FF0700AE00900070C0B30080487800B4
:105D4000710037006E409000E44F500006003A00AA
:105D50000000EB003FFF0700AE00900040C0B30022
:105D600080487800680037001000200039FF0700E5
:105D7000AE00900080C0B300804878006200370019
:105D80006E409000E14F500006003A000000EB002A
:105D900030FF0700AE00900010C0B30080487800CC
:105DA00059003700100020002AFF0700AE009000C5
:105DB00020C0B30080487800530037000000EB009B
:105DC00024FF0700AE009000A0C0B3008048780018
:105DD0004D0037006E409000EB4F500006003A0037
:105DE0000000EB001BFF0700AE009000B0C0B30046
:105DF00080487800440037001000200015FF07009D
:105E0000AE009000C0C0B300804878003E0037006C
:105E1000100020000FFF0700AE009000C0C0B300CC
:105E200080487800380037006E409000ED4F5000F9
:105E300006003A000000EB0006FF0700AE009000ED
:105E4000D0C0B300804878002F0037001000200039
:105E500000FF0700AE009000F0C0B300804878005B
:105E60002900370010002000FAFE0700AE00900065
:105E7000E0C0B30080487800230037006E409000F7
:105E8000EB4F500006003A000000EB00F1FE070067
:105E9000AE009000B0C0B300804878001A00370010
:105EA00010002000EBFE0700AE009000F0C0B30031
:105EB00080487800140037006E409000E14F500099
:105EC00006003A000000EB00E2FE0700AE00900082
:105ED00010C0B300804878000B003700100020008D
:105EE000DCFE0700AE00900020C0B30080487800C0
:105EF0000500370050002000000F78002E009000B1
:105F0000EE409000014878002E009000904078000C
:105F10006E40900080CF500025FF3A001E007800B0
:105F20000080FA00000006001400FA0050079800F4
:105F30006107980072079800030F9800140F9800EB
:105F40000000EB00300798000E0890000000E00011
:105F50000A0032007E009000900078000E08900049
:105F6000010878000E0890008080E8007E00900014
:105F70001000780000804000300798007E009000FC
:105F80008080E8007E0090001000780000804000D3
:105F9000400798004A0037004E0090000000E900DA
:105FA000400798004E0090009040780041479800CC
:105FB0000040EB00304798000000EB00000F780035
:105FC0002E0037005E009000EE009000610050004F
:105FD000E080580050079800610798001E08900064
:105FE0000000E000080032005E009000EE0090002B
:105FF000E00F5000E08F580003003A00110020002D
:1060000010002000930407004E4090000080FB0029
:10601000E1006000200020008E0407004E40900048
:106020000080FB000000D100404798008000EB009A
:106030000000EB00870407003E0090000000E00035
:106040000A003200FC040700204798002E40900010
:106050008080FB001E0078000008DD008040780092
:106060003E40900000C070003047980011002000B2
:106070000000EB00770407001E0FE8005E009000B0
:10608000EE009000E00F5000E08F58000300320057
:10609000700020009E0F1000CAFF34003E009000E8
:1060A0000000E000060032003E0090000000E90021
:1060B000300798003E009000BE40900001487800F4
:1060C0005E009000EE009000E00F5000E08F58005E
:1060D000B1FF3A000080FA00000006001C00FA0040
:1060E00040079800214F98006207980073079800B6
:1060F000040F9800150F9800260F9800370F98008E
:106100000000EB00300798000000EB00200798002B
:106110000040EB00204798000000EB00500F980073
:10612000AE4890000EF8970080CF50000200320079
:1061300014002000540F98005E089000000F7800B3
:106140006E009000FE009000E00F5000E08F5800BD
:106150000C003A002EB89700BEB89700E00F500030
:10616000E08F58006300320011C0B3004E00900071
:1061700045FE07002EB89700BEB89700B50407008B
:106180005C003700AE4890004E0090003EFE0700D5
:106190001E0278009E0990000E0990006E0090008B
:1061A000FE00900060FF07002E0890000000E00055
:1061B0000B0032003E0990009E0890002E089000CF
:1061C00029FD0700800078000000EB002007980000
:1061D0000100E00002003A001000200020079800B3
:1061E0001E00E000320032004E00900010407800A7
:1061F0008040E8004E009000014878002E0090009A
:106200000000E0001C0032002EB89700BEB89700D6
:10621000E00F5000E08F580017003200AE409000B1
:106220002EF0970080CF50001300310061C0B30002
:106230004E00900014FE070041C0B3004E009000D5
:1062400011FE07002EB89700BEB89700C289DE0085
:106250004E0ADD004201DE00020172002EB89700F6
:10626000BEB89700000041008180490020BF9F0018
:1062700031BF9F00030037008EF897004E0090005A
:1062800001FE07002EB89700BEB89700E00F50003F
:10629000E08F58000600320011C0B3004E0090009D
:1062A000F9FD07002EB89700BEB8970069040700F3
:1062B0002E0090000000E0000E0032000040EB00D5
:1062C000005F9800AE4090002EF0970080CF500005
:1062D0000200310014C0B300045F98002E4090000B
:1062E0000040E800204798000E5890000004E000AD
:1062F000A4FF3A002E0090000000E0000C003200E5
:106300002EF097000004E00007003200AE4090003D
:106310002EF0970080CF50000300360030002000A0
:106320003007980002003700200020003007980056
:106330003E0090000080FA00000006001000FA0005
:10634000000F780012079800230798003107980083
:10635000440798005507980066079800770798004B
:10636000BE0090004E0090005EFD07006E009000A1
:106370000000E00003003200BE0090006E009000BC
:1063800058FD07008F87E8002EF09700E0FF9F0080
:106390002EB89700BEB89700809FBE008F87E80098
:1063A0008EF89700E1FF9F00FE0390006E039000BF
:1063B000DE0290004E0290001E019000AE0190009F
:1063C00041C0B3001E00780044FF0700E887570073
:1063D0000080FA00000006001200FA005007980042
:1063E0006107980072079800030F98007E019000E3
:1063F000DE0090005E00900003FD07000040EB000F
:10640000304798000040EB00204798006E00900055
:10641000100F78000E089000100078000000E900CE
:1064200040079800480037004E0090008E0890000A
:106430000080E8000100400090407800414798004B
:106440004E4090000004E0003C0032004E009000FE
:10645000DE0090000080E8000100400090407800DD
:106460006147980010C0B300504798002A003700D9
:106470004E4090000080FB00610060000004E000DE
:106480001E0032002E4090000004E00009003A0097
:106490001E0FE9001E007800EE0090000080E8006A
:1064A00001004000904078003147980010C0B300D0
:1064B000204798003E409000AE40900001406000B0
:1064C0000004E000050032006E409000DE409000C5
:1064D0000140700060479800050037005E40900062
:1064E00080C0EA006E40900000C0600060479800E5
:1064F0002E40900000404000204798005E409000F1
:1065000000404000504798004E4090000080FB0043
:106510000000D100404798004E4090000004E00089
:10652000D3FF3A00CE0090005E00900001004000D2
:106530000080E800EE409000014878004E00900096
:106540000000E900400798004E0090000000E000C5
:10655000B5FF3D000080FA00000006000200FA00CE
:10656000000F78009E00780040002000B0009800E6
:106570001E007800300090000080FA000000060045
:106580000200FA00000F78009E00780010C0B300EF
:10659000804878000000EB000080FA000000060050
:1065A0000200FA00000F78001E007800A00890009A
:1065B000820B20001E004100CAFC07000000EB0017
:1065C0000080FA00000006000800FA00889FBE0064
:1065D0008A1F780030079800640047004C030700CA
:1065E0004E4090000080FB0001002000FEFC0700F0
:1065F000100798009E00900020032000808F50001C
:106600000300340060002000000F780023003700F2
:106610004E4090000080FB0001002000F2FC0700CB
:10662000800078003E00900076004000ADFC07003E
:106630003E00900060019000F00190003E0090004C
:10664000904890003E009000760240004E4090003E
:106650000084FB00090020003E0090006805400017
:106660008F87E8000040EB00E0FF9F00829FBE00A4
:106670008F87E800E1FF9F008003EB000003EB0041
:106680008002EB000801BE00B1C0B3000A00780030
:1066900092FE0700E8875700000F78001E00E00018
:1066A000030032003E0090009E0078003100980008
:1066B0001E0078004F0578004F04BE000080FA00ED
:1066C000000006000A00FA00881F780040079800C2
:1066D0004E009000760040002100200081FC070061
:1066E0004E00900076004000ACFB070020079800A9
:1066F000310798002E009000BE009000BAFC070001
:10670000100798009E00900020032000808F50000A
:106710000300340060002000000F780020003700E4
:106720002E009000BE009000AFFC070080007800B3
:106730004E009000760040006AFC07004E0090007A
:1067400060019000F00190004E0090009048900091
:106750004E009000760240004E0090006804400019
:106760008F87E8000040EB00E0FF9F00829FBE00A3
:106770008F87E800E1FF9F008003EB000003EB0040
:106780008002EB002E019000BE019000B1C0B3006A
:106790000800780051FE0700E8875700000F7800D6
:1067A0001E00E000030032004E0090009E007800C2
:1067B000310098001E0078004F0478000080FA0035
:1067C000000006000400FA00889FBE008A9FBE00F9
:1067D000100798001E009000A00890001E00900076
:1067E000760040003FFC07001E009000B04890007B
:1067F0001E00900060019000F00190001E009000CB
:10680000204A90001E009000870B200080834300E8
:106810001E009000C5042000808242001E009000EF
:106820002A082000000545001E009000F6054000E3
:106830001E009000000C9000900C90001E00900034
:10684000680040008F87E800E1FF9F00829FBE0044
:106850008F87E800E4FF9F00050378008A02780034
:106860000B0278000801BE0041C0B3001BFE070008
:10687000E8875700000F78001E00E0000300320098
:106880001E0090009E007800310098001E007800E5
:106890004F05BE004F04BE000080FA000000060055
:1068A0000200FA00000F78009E0078007680400019
:1068B000410020000BFC07009E007800768040001D
:1068C00036FB07001E0178006001980071019800F6
:1068D0000000EB000080FA00000006000200FA0051
:1068E000000F78009E0078006B804000880207004F
:1068F0000000EB000080FA00000006000400FA002F
:10690000100798000000EB00000F78001E009000B8
:106910007600400041002000F2FB07001E009000BE
:10692000760040001DFB07001E0190000009980042
:10693000110998001E009000900890000008900037
:1069400029FC0700800078001E00900021089800B4
:106950001E009000A008900020032000808F5000AF
:106960000500340060002000000F78001E00900039
:106970009E007800310098001E0078000080FA0028
:10698000000006000400FA00889FBE008A9FBE0037
:106990008C1F7800100798001E009000B0489000EF
:1069A0001E00900060019000F00190001E00900019
:1069B000204A90001E009000870B20008083430037
:1069C0001E009000C5042000808242001E0090003E
:1069D0002A082000000545001E009000F605400032
:1069E0001E009000200E90001E009000000C9000F1
:1069F000900C90001E009000680040008F87E80017
:106A0000E1FF9F00829FBE008F87E800E4FF9F00A8
:106A1000050378008A0278000B0278008C00780069
:106A20000801BE0045FE0700E8875700000F780008
:106A30001E00E000030032001E0090009E0078005F
:106A4000310098001E0078004F0678004F05BE0008
:106A50004F04BE000080FA00000006000200FA00A9
:106A6000000F78001E007800A0089000E20E2000C1
:106A70001E0041009BFB07001E007800A00890004C
:106A8000421220001E00410096FB07000000EB00B0
:106A90000080FA00000006000A00FA00889FBE008D
:106AA0008A9FBE00400798004E009000A00890000A
:106AB0004E009000760040008AFB07004E009000D8
:106AC000B04890004E00900060019000F0019000EE
:106AD0004E009000204A90004E009000870B20004E
:106AE000808343004E009000C50420008082420055
:106AF0004E0090002A082000000545004E0090003E
:106B0000F60540004E009000000C9000900C9000A4
:106B10004E009000680040008F87E800E1FF9F0072
:106B2000829FBE008F87E800E4FF9F000503780086
:106B30008A0278000B0278000801BE0041C0B30051
:106B400066FD0700E8875700200798002E00900098
:106B50000000E00064003A000000EB00100798001D
:106B60000040EB00004F7800150037001E80FB004E
:106B7000CE0090006012B00001004000904078000C
:106B8000114798000A0037001E4090000080FB006B
:106B9000E10060001E009000010040001007980016
:106BA0001E4090000080FB000000D10010479800BC
:106BB0001E4090000004E000F3FF3A001E4FE80082
:106BC0001E80FB00CE009000A1109100810F5000AC
:106BD000E6FF350066004700CD0107000040EB00EE
:106BE000004F78003A0037001E009000CF80DE0092
:106BF0007DFB0700800078004E009000A015B000DB
:106C000038FB07004E0090004212200000014100B6
:106C10004E009000E40E2000000242004E00900062
:106C2000A1152000808040004E00900076004000BA
:106C30008201780004017800E7FD07004E00900013
:106C4000B04890004E00900060019000F00190006C
:106C50004E009000204A90004E009000870B2000CC
:106C6000808343004E009000C504200080824200D3
:106C70004E0090002A082000000545004E009000BC
:106C8000F60540004E009000000C9000900C900023
:106C90004E009000680040008F87E800E1FF9F00F1
:106CA000829FBE008F87E800E4FF9F000503780005
:106CB0008A0278000B0278000801BE0041C0B300D0
:106CC00006FD0700E8875700200798001E4FE800E0
:106CD0002E0090000000E00003003A006E4090009B
:106CE0009E4F1000C0FF39002E0090000000E00011
:106CF000030032004E009000AE009000310098007A
:106D00002E0090004F05BE004F04BE000080FA0028
:106D1000000006000800FA00889FBE0020079800C7
:106D20002E00900010409000EE4F500004003A00FA
:106D30002E00900020489000604798000200370025
:106D400040C0B30060479800EE4090002147980093
:106D50002E009000760240002E009000200C900043
:106D60002E00900000099000900990002E009000E5
:106D7000E80440008F87E8000040EB00E0FF9F0040
:106D80006000B800809FBE008F87E8002E40900012
:106D9000E0FF9F008003EB000003EB008002EB00AC
:106DA000880078000900780064FD0700E887570034
:106DB000000F78001E00E000030032002E0090005B
:106DC0009E007800310098001E0078004F04BE003D
:106DD0000080FA00000006000800FA00889FBE004C
:106DE0008A1F7800200798002E0090001040900025
:106DF000F14F500004003A002E009000204890000F
:106E0000604798000200370040C0B3006047980018
:106E1000EE409000214798002E009000C40420000E
:106E2000000242002E0090002508200080824200CF
:106E30002E009000760440002E009000A00C9000E0
:106E40002E00900000099000900990002E00900004
:106E5000680540008F87E8000040EB00E0FF9F00DE
:106E60006000B800809FBE008F87E8002E40900031
:106E7000E0FF9F008003EB00040378000802780025
:106E8000890078000A0078002CFD0700E887570089
:106E9000000F78001E00E000030032002E0090007A
:106EA0009E007800310098001E0078004F057800A1
:106EB0004F04BE000080FA00000006000600FA0041
:106EC000200798000E80E80011010700AE409000F6
:106ED0002E00900068004000EBFA0700000F7800D9
:106EE0001E00E000030032002E0090009E0078009B
:106EF000310098001E0078000080FA0000000600B3
:106F00000600FA00200798000000EB00000F780050
:106F10000E80E800FE0007002E4090000004E00014
:106F2000060032002E409000E14F50000300320076
:106F300050002000000F7800190037002E0090004C
:106F400010409000F34F50000B003A002E4090008C
:106F50000004E00004003A00AE00900010C0B3004E
:106F6000904898000E003700AE009000D0C0B300EB
:106F7000904898000A0037002E4090000004E0007E
:106F800004003A00AE00900010C0B300A048980082
:106F900003003700AE00900060C0B300A048980026
:106FA0001E00E000030032002E0090009E007800DA
:106FB000310098001E0078000080FA0000000600F2
:106FC0000400FA00100798000E007800D0000700B7
:106FD0001E4078000004E000FBFF3A009E00900095
:106FE0000000EB00B00098001E0090003000900000
:106FF0000080FA00000006000800FA003007980040
:107000003E009000760040001100200035FA070095
:107010003E00900080589000514798003E0090003C
:1070200076004000110020002EFA07003E0090007C
:1070300080589000414798003E0090007600400044
:107040004100200027FA07003E0090007600400033
:1070500052F90700008FBE003E009000804890006B
