:020000040000FA
:10180000000C000000000000CFA82100007F220093
:1018100000018800000000000A0007001100070016
:10182000000020000000E000020032000000020082
:1018300000000000DA0F0200000000000040DA00A3
:101840000000FE004440A900C06A21000000E00042
:101850000300320000002000A00188004440A800DE
:101860000000060080AC26000100200015003700B3
:1018700062004000E0804800910188009001BA00B9
:1018800062004000E0804800910188009002BA00A8
:1018900062004000E08048000002EB006028E100A8
:1018A00004003A000059EB008301E900FDFF3E000F
:1018B000040037006128E100010032000082EB00E3
:1018C00005000700910188001001BA000200E00045
:1018D000E7FF3A00000005009101880080027800CF
:1018E00062004000E08048003559BA008301E900F9
:1018F000080032002559BA008301E90005003200D2
:101900000400E000F4FF320015D9BA008301E900B9
:10191000F1FF3A00000006009441040000000000BE
:10192000A441040000000000B841040000000000D1
:10193000B642040000000000244304000000000040
:101940008241040000000000424304000000000047
:101950005243040000000000964304000000000011
:1019600002440400000000002044040000000000C5
:101970005E45040000000000C045040000000000B7
:10198000324604000000000054460400000000003D
:101990003642040000000000B446040000000000CD
:1019A000D0460400000000006022B80006022000BB
:1019B0000000D0008180D2000482D2008582D20053
:1019C0000000A0000202520083825A00030031008E
:1019D0000202420083824A000000A1000603E900DF
:1019E000F3FF3A0000000600889FBE008A9FBE00F9
:1019F000010578000100E0000400350008003C000B
:101A00000000E000200032000500370060001000F8
:101A1000E080180002003B0001F02C001A003700A3
:101A20000004BE006011B8006B0920000982CF00DD
:101A3000020039000882CF000441B0006942520020
:101A40000E00320008003B008281710061016400D9
:101A50008904D1000884D3008B05E8000442E80023
:101A6000F9FF3A00050037000804440089844C005F
:101A70008B05E9000442E900FBFF3A00FA00070089
:101A80000AF0A70001F0A0004F05BE004F04BE0001
:101A900000000600889FBE008A9FBE008C1F780051
:101AA000170107001E01330003866C006450E1003B
:101AB0002E0032006420E100330032006150E1006A
:101AC0002F0032006120E100310032008585550091
:101AD000EB07B000090020000804200005003700D3
:101AE0000804440089844C000A00310006034300C6
:101AF00087834B000001530081815B00F8FF3300B6
:101B00000203BE000800A0000804440089844C00C1
:101B1000F6FF3900C639DD00830173000100320091
:101B2000130020008904D1000884D3000998A30081
:101B3000050032000800A7000300A0008904D100BE
:101B40000884D3008B05E8008904D1000884D30001
:101B50000001EB000281D200C300070001F0A100E8
:101B60000CF0A70001F0A000F60037006420E100AF
:101B7000F80032000801BE000200BE00F7FF370087
:101B80006120E100F30032006000B800F3FF37008D
:101B90000000200001F82700F0FF37000001BE0020
:101BA000EF0007000470A70003F0A1006509B10071
:101BB000160032000D0035006828E10006003500EF
:101BC000F0FF2F00F1FF27000300E00013003B00AF
:101BD000010028000000050000004000818048004E
:101BE0008502E900FCFF3A0008003700F88F420048
:101BF00002003C008000EB00000005008100D100E5
:101C00000080D3008502E800FCFF3A000300E000FA
:101C100002003B0060001000E08018000000060099
:101C200003F0A200889FBE008A9FBE008C1F780030
:101C3000B3000700BA0033006450E1004F003200E7
:101C40006420E1005200320003826C0007003B0078
:101C50000905D0000306D000820F54000C065D0079
:101C60000200390002003200890178000306780082
:101C70008582550004003D000003FD008103FD0046
:101C80008502EA008B854200840F720002003B004F
:101C900060001000E08018006011B8000005EB0043
:101CA0007A28E1000A00390006007800C75DDD00EF
:101CB000F707B200878075002D0037008281710020
:101CC0000A017800610560008180D1000080D300A6
:101CD0008502E900F9FF3B000604400087844800C4
:101CE00002003B0060041400E0841C000988A3008B
:101CF000070032008A8171008281710061016400F5
:101D00008904D1000884D3008B05E8001700370050
:101D10000978A30013003A000B00E0001300340020
:101D20008B05E9000804440089844C000A447400CF
:101D30000978A3000D003A000B00E0000700340012
:101D40008B05E9000804440089844C0001003A0036
:101D50000B0020000978A300F7FF32000001EB0020
:101D600002003700828171000A0178003E000700FE
:101D70000CF0A70001F0A000720037006420E10021
:101D800002003A00838F6C00720033000801BE002D
:101D90000200BE006B003700889FBE008A9FBE0015
:101DA0008C1F7800560007005D00330003866C002E
:101DB0006450E100240032006420E100270032007A
:101DC0006150E100220032006120E1002100320078
:101DD0008B854200EB07B1000134B800003AB8002F
:101DE0000804420089844A00013AB8000030B80073
:101DF0008880400009014A000400330000004000D0
:101E000081804800020149008B05E900C909DD0015
:101E1000830170000100320013002000C814DE00AE
:101E20004814DD004709DE001200B200C808DE00D9
:101E3000088470000C00070001F0A1000CF0A7005E
:101E400001F0A0003F0037006120E10041003200B6
:101E50000801BE000200BE00F7FF37006150E1003C
:101E6000FCFF3A003B0037008100200061805500F4
:101E70000B003D000B00200061FE2F000100E1007F
:101E80001D00340082817100610164008904D10069
:101E90000884D3000000E800FAFF3A007100200037
:101EA000610064000300700002006000090032005D
:101EB00061044400E0844C000988A500050032005C
:101EC0008B05E8006808E10002003A008904D100AF
:101ED0000884D300F20F20000258E10005003D0005
:101EE000C75DDD00F907B200898075000800780041
:101EF000000006000BF827008B00780000000500AA
:101F00000004BE00160007000003BE000405BE006A
:101F10000200BE0012000700844F7500000006009A
:101F20000200BE006450E100050036006420E100BC
:101F3000020036000968A30001003A000800BE0054
:101F40000160A0004F0678004F05BE004F04BE00A0
:101F500000000600F0FF2F00F1FF2700F9FF370017
:101F6000C70ADE00F107B200F50FB2000800320028
:101F7000E1CF4200020032000170A0002400050001
:101F8000810F7000010032000408050044000500C4
:101F9000810F700002003A00140005008502E9007C
:101FA0000000400081C04800FCFF3B000170A00021
:101FB000240005000400FA004C0007000000370070
:101FC0009D0E07000004E00043003200A00E070051
:101FD000004F78001E80FB00100798001E00900044
:101FE000EA0F5000070032001E009000ED0F500075
:101FF000040032001E009000E80F50001A0032006A
:102000002200370080A72E00DB0B070010BD8000E8
:102010000000E00003003A00B0A72E00D60B070036
:102020000B00370010BD8000E10F500005003A00A2
:1020300000C8BF00920007000004E0000100320069
:102040000300370010BD80000180200093010700CD
:1020500029050700E0C3B300890E07000000EB006C
:1020600010BD88001C00370010BD80000000E0009B
:102070000300320010BD80000000E90010BD8800A0
:102080001E4078007E0E07001300370011BD80004F
:1020900000802000008040001E48780010BD8000B5
:1020A0000000E80010BD880011BD800000FA20008B
:1020B000808F500006003A0080A72E00AE0B07006C
:1020C00050A92E00AC0B07000000EB0010BD8800EB
:1020D0001E4078006A0E070055DABF00E24F50003C
:1020E000B7FF3A000E050700B5FF37000000FA0001
:1020F0004507A9000080EB00601988004227A9006D
:10210000416A20009140780000CEB30000C060001A
:102110003040B300A4E6B700216C20009140780065
:1021200000CEB30000C060003040B300C2E6B7008C
:10213000B10407002E0E070010C1B300500E0700B7
:1021400080A72E008C0B0700CC040700EA040700D0
:10215000E0C3B3004A0E07000080FA00000006004A
:102160000600FA00004F78001147980022479800B7
:1021700055DABF000080FB00200798002E00900079
:10218000E40F5000260032002E009000E40F5000B3
:102190000A003C002E009000E20F500018003200B0
:1021A0002E009000E20F500019003C002E0090001D
:1021B000E10F50000E0032002E0037002E0090007C
:1021C000E60F50001E0032002E009000E60F500077
:1021D000170035002E009000E70F50001C00320061
:1021E0002E009000E80F50001E0032002100370042
:1021F0009E4090001E407800E81C07001E0037003B
:102200009E4090001E407800050F07001A0037001E
:102210009E4090001E4078005D0E070016003700BB
:102220009E4090001E4078005409070012003700BD
:102230009E4090001E407800D41007000E0037002A
:102240009E4090001E407800BD0507000A00370040
:102250002E4190009E4090001E40780086070700A7
:10226000050037009E4090001E407800FE1F0700CA
:1022700001003700CA82A9000080FA0000000600B1
:102280000800FA00004F78001E80FB006101B900D1
:1022900010FC2F00F1FF2F00020140008381480055
:1022A00022079800330798007003200001002000E7
:1022B0002E019000BE019000800F5100818F5900C7
:1022C000EE003E002E009000BE0090000060010075
:1022D000A6003700E9003700E8003700D0003700DB
:1022E000B7003700E5003700E4003700B2003700E0
:1022F000E2003700E1003700E0003700DF00370080
:10230000DE0037007A00370029003700DB00370095
:10231000530037005A003700D8003700D700370085
:10232000D6003700D5003700D400370056003700FC
:10233000D2003700D1003700D0003700CF0037007F
:10234000CE003700CD003700CC003700CB0037007F
:10235000CA003700C9003700C8003700B000370096
:1023600097003700C5003700C400370092003700DF
:10237000C2003700C1003700C0003700BF0037007F
:10238000BE0037005A00370009003700BB00370095
:10239000330037003A003700B8003700B700370085
:1023A000B6003700B5003700B400370036003700FC
:1023B0000041EB008040EB00A0CCB30068FF0700B9
:1023C0002E0407000040EB0026FAB7000F0037008C
:1023D00026DABF000040E800FB0C0700A06E2D00CD
:1023E000E50A070026DABF000080FB0080004000FD
:1023F000C09721000080400010007800F40A070018
:1024000026DABF000040E80026FAB70026DABF004F
:10241000E84F5000EEFF3600D06E2D00D60A0700C0
:1024200090C0B300570D07000040E90055FAB7000F
:10243000306F2D00E60A07000041EB008040EB0002
:1024400080CCB30046FF0700CA82A8000041EB0021
:102450008040EB0090CCB30041FF07008A003700BA
:10246000C06F2D00C40A070040C0B300450D07002F
:1024700056FAB700E0722D00D50A07008200370037
:10248000E0732D00D20A070021E3A800F0762D00AA
:10249000B90A070090C0B300840D070020D188005E
:1024A00020D180008E0D0700A0C0B3007F0D070073
:1024B00020D1880050782D00AF0A070020D180007D
:1024C000870D0700B0C0B300780D070020D1880049
:1024D000F0782D00A80A070020D18000800D0700A9
:1024E000C0792D00BA0A070021E3A9006600370071
:1024F00057DABF00644060000004E00003003A00C7
:10250000C0C0B300920A07005F003700F0792D00C9
:10251000990A070020C0B3001A0D07000040E90027
:1025200061406000614060004301DD0071A5210051
:102530009140780070CFB30000C06000024070008E
:1025400057FAB70057DABF00684060000004E000A7
:1025500003003A00407C2D009D0A07004A00370026
:10256000007E2D009A0A0700470037000040EB006C
:1025700026FAB7000C00370026DABF000080FB0007
:1025800080004000E09821000080400010007800AA
:10259000790A0700D07F2D00770A070026DABF00EE
:1025A0000040E80026FAB70026DABF00FC4F5000D2
:1025B000F1FF360034003700CA0907003200370047
:1025C00000802D006C0A070020C0B300ED0C07004E
:1025D0000040E9006140600061406000004140004F
:1025E00071A5210091407800D0CFB30000C06000F9
:1025F0000240700057FAB70057DABF00624060002F
:102600000004E00003003A00F0822D00700A070089
:102610001D003700E0842D006D0A07001A00370006
:1026200070862D00540A070090C0B300D50C070037
:102630000040E90054FAB700B08E2D004E0A0700A2
:10264000EB0C07000000370085C0BF006840600049
:102650000004E000FCFF32003011800026FAB700D1
:102660008560A90061A221009140780000C2B300FA
:1026700080CF500004003200F3FF37008000EB00F1
:10268000110798000200370012002000120798007E
:102690001E0090000080FA00000006000800FA000A
:1026A000000F78001107980055DABF000004E00021
:1026B00003003A00E0912D002F0A07009201370035
:1026C0000000EB00C0D1880087013700C0D1800036
:1026D000800078001E0090000080400010407800CC
:1026E000E101070027FAB70027DABF000080FB00EE
:1026F0006101B900220798003307980030062000D6
:10270000010020002E019000BE019000800F5100BA
:10271000818F59006A013E002E009000BE0090009B
:10272000006001008A00370065013700EB003700C8
:10273000630137006201370061013700790037001B
:102740005F0137005E0137005D0137005C01370033
:102750005B0137005A013700590137005801370033
:102760005701370056013700550137005401370033
:102770005301370052013700510137005001370033
:10278000940037004E0137004D0137004C013700EF
:102790004B0137004A013700490137004801370033
:1027A0004701370046013700450137004401370033
:1027B0004301370042013700410137004001370033
:1027C0003F0137003E0137003D0137003C01370033
:1027D0003B0137003A013700390137003801370033
:1027E0003701370036013700350137003100370037
:1027F00032003700330037006800370033003700FD
:10280000370037003B0037002D0137002C0137001F
:102810002B0137002A013700290137002801370032
:102820002701370026013700250137002401370032
:102830002301370022013700210137002001370032
:102840001F0137001E0137001D0137001C01370032
:102850001B0137001A013700190137001801370032
:102860001701370016013700150137001401370032
:102870001301370012013700110137001001370032
:102880000F0137000E0137000D0137000C01370032
:102890000B0137000A013700090137000801370032
:1028A0000701370006013700050137000401370032
:1028B00007013700D108070005013700DD080700D0
:1028C00003013700E908070001013700C282A800B0
:1028D000CAA2A80080932D00BD090700FC003700A4
:1028E000C282A900CAA2A900C0942D00B80907009D
:1028F000F700370021E3A80010962D009E0907007D
:10290000C0C0B300690C0700A0D18800A0D180002E
:10291000730C070010972D00AD09070021E3A900F3
:10292000EB0037001E01900081A321001E007800FB
:10293000F7000700A0D18800A0D180008040780077
:102940000041EB0060C0B30005FE0700E000370067
:102950001E01900081A321001E007800EC000700FA
:10296000A0D18800A0D18000E10F500005003A00FE
:102970000041EB008040EB000040EB00F8FD070059
:10298000D3003700A0D18000804078000041EB00E8
:1029900010C0B300F2FD0700CD0037001E0190000B
:1029A00081A321001E007800D9000700A0D1880073
:1029B00070972D0070090700A0D18000C30B07009D
:1029C000E0972D006C090700A0D1800040090700A6
:1029D000BF0037000000EB00A0D18800C0D180000C
:1029E0000000E800C0D18800C0D180009E0F5000D8
:1029F00004003A00C0D180000000E900C0D1880086
:102A000030003700C0D18000800078001E009000A8
:102A10000080400090407800F0C2B30080CF5000AA
:102A20001A003600C0D18000800078001E0090009F
:102A30000080400090407800F0C3B30080CF500089
:102A400012003E00A0D180006A00B900A0D1880029
:102A5000C0D18000800078001E00900000804000FF
:102A6000104078008080FB00A0D180008080400072
:102A700000FD2F0000804000A0D18800C0D1800060
:102A80000000E800C0D18800D7FF3700C0D1800027
:102A9000800078001E009000008040009040780088
:102AA00090C2B30080CF500006003200C0D1800039
:102AB0000000E900C0D18800B0D180000000E8002B
:102AC000B0D18800A0D18000804078000041EB00A8
:102AD00070C1B300A2FD07007D0037000000EB00CD
:102AE000A0D188000040EB0029FAB700C0D18000D7
:102AF0009E0F500004003A00C0D180000000E900A1
:102B0000C0D1880053003700C0D180008000780019
:102B10001E0090000080400090407800F0C2B3009A
:102B200080CF500008003600C0D1800080007800BF
:102B30001E009000008040009040780090C3B300D9
:102B400080CF500030003600C0D180008000780077
:102B50001E009000008040009040780000C4B30048
:102B600080CF500008003600C0D18000800078007F
:102B70001E009000008040009040780060C4B300C8
:102B800080CF500020003600C0D180008000780047
:102B90001E009000008040009040780000C6B30006
:102BA00080CF500008003600C0D18000800078003F
:102BB0001E009000008040009040780060C6B30086
:102BC00080CF500010003600C0D180008000780017
:102BD0001E009000008040009040780080C7B30045
:102BE00080CF500008003200C0D180008000780003
:102BF0001E009000008040009040780080C6B30026
:102C000080CF500010003A00A2D18000C0D18000D7
:102C1000800078001E009000008040009040780006
:102C200080A221000000410001487800A0D180006E
:102C30000000E800A0D18800C0D180000000E800BA
:102C4000C0D18800A9FF3700C0D180000000E90092
:102C5000C0D18800A0D1800081A2210060010700BE
:102C600027FAB7001E01900081A321001E00780002
:102C700027000700A0D18800A0D18000E10F5000FC
:102C800006003A0071A22100914078000041EB005B
:102C900020C0B30032FD070006003700A0D180003D
:102CA0000041780071A221009140780030C0B3004B
:102CB0002BFD07000000EB00A0D1880004003700C6
:102CC00027DABF000041EB008040EB0024FD070045
:102CD000B0D180000000E00006003A00C0D18000C2
:102CE0000000E800C0D18800C0D180009E0F5000D5
:102CF00076FE3900B0D180000000E0000200320012
:102D000030982D009C0807000080FA0000000600A3
:102D10000A00FA001007980021079800320798006F
:102D20000000EB00000F78002E00900010007800EB
:102D30008000E8001E009000808F500045003100A8
:102D40002E00900010007800800078003E00900077
:102D5000008040000000E80090407800A0C3B3006D
:102D600080CF50003B003A002E0090001000780009
:102D70008080E8002E009000010878002E0090006E
:102D8000900078001E009000808F500004003900F1
:102D90002E0090000080E900200798002A003700EC
:102DA0002E00900010007800800078003E00900017
:102DB0000080400090407800F0C2B30080CF500007
:102DC0001C0036002E009000100078008000780073
:102DD0003E0090000080400090407800F0C3B300B7
:102DE00080CF500013003E001E0078006A00B9003A
:102DF000000F78002E00900010007800800078000E
:102E00003E00900000804000104078000080FB00F1
:102E10009E00400000FD2F00008F40002E0090001B
:102E2000100078008000E8002E0090000108780073
:102E3000D2FF37002E009000100078008000E900DB
:102E40002E009000010878001E00780040079800CE
:102E50000200370010002000400798004E0090004C
:102E60000080FA00000006000800FA00004F780019
:102E7000F0C2B3009E4F100006003600F0C3B3004E
:102E80009E4F100003003E00200020001007980015
:102E9000D00037001E80FB006101B90060FF2F00E9
:102EA000F1FF2F00020140008381480022079800B3
:102EB0003307980030072000010020002E01900009
:102EC000BE019000800F5100818F5900BF003E006D
:102ED0002E009000BE00900000600100AC003700A2
:102EE000BA003700B9003700AC003700B700370030
:102EF000B6003700B5003700B4003700B300370024
:102F0000B2003700B1003700B0003700AF00370023
:102F1000AE003700AD003700AC003700AB00370023
:102F2000AA003700A9003700A8003700A700370023
:102F3000A6003700900037007A003700A300370062
:102F4000A2003700A1003700A00037006000370062
:102F50009E00370061003700630037009B00370098
:102F60009A00370087003700800037007000370074
:102F70007200370095003700940037009300370047
:102F80009200370091003700900037008F00370023
:102F90008E0037008D0037008C0037008B00370023
:102FA0008A00370089003700880037008700370023
:102FB00086003700430037003C00370083003700AD
:102FC000820037007E003700800037007F00370026
:102FD0007E0037007D0037007C0037007B00370023
:102FE0007A00370079003700780037007700370023
:102FF0007600370075003700740037004600370050
:103000007200370071003700700037006F00370022
:10301000650037006D0037006C0037006B0037002B
:1030200037003700480037003800370049003700C4
:103030004B003700650037001F0037006300370082
:10304000620037005E003700600037005F00370025
:103050005E0037005D0037005C0037005B00370022
:103060005A00370059003700580037005700370022
:10307000560037005500370054003700260037004F
:103080005200370051003700500037004F00370022
:10309000480037004D0037004C0037004B00370028
:1030A00014003700490037001800370021032000C2
:1030B00011079800470037003203200012079800DC
:1030C00044003700430320001307980041003700F5
:1030D00050032000100798003E00370071012000C7
:1030E000110798003B0037003206200012079800B5
:1030F00038003700530120001307980035003700CF
:1031000040012000100798003200370061012000C4
:10311000110798002F0037000001EB0012079800FC
:103120002C003700430020001307980029003700C7
:103130005000200010079800260037007100200082
:103140001107980023003700820020001207980022
:103150002000370063002000130798001D0037008F
:10316000A0002000100798001A00370091002000EE
:103170001107980017003700320620001207980048
:1031800014003700330620001307980011003700A1
:1031900030062000100798000E003700310620008E
:1031A000110798000B0037006203200012079800F7
:1031B000080037007303200013079800050037004C
:1031C000800320001007980002003700F10F200054
:1031D000110798001E0090000080FA000000060011
:1031E0000800FA0020479800210798000040EB00F3
:1031F000104798002E0090000000E8001040780072
:103200000080FB003007980080062000BE00900080
:10321000808F50000900320080072000BE0090001F
:10322000808F50000500320020062000BE00900074
:10323000808F5000400032005500370020C0B3009E
:10324000004F7800380037001E4090000080FB00DF
:103250004400DD00104798001E80FB0080007800CD
:103260002E0090000080400090407800F0C3B30032
:1032700080CF50000C003E001E80FB0080007800D4
:103280002E00900000804000904078001E4090008A
:1032900000C040008040780000CDB30000C0400076
:1032A000104798001F0037001E80FB008000780048
:1032B0002E009000008040009040780060C4B30071
:1032C00080CF50000C003E001E80FB008000780084
:1032D0002E00900000804000904078001E4090003A
:1032E00000C040008040780090CCB30000C0400097
:1032F000104798000B0037001E80FB00800078000C
:103300002E00900000804000904078001E40900009
:1033100000C040008040780090CAB30000C0400068
:10332000104798001E4FE8002E4090009E4F10005E
:10333000C5FF39002C00370020C0B300004F7800D3
:103340000F0037001E4090000040400010479800DA
:103350001E80FB00800078002E009000008040005E
:103360009040780010C3B30080CF500003003A00B3
:103370001E4090000004A000104798001E4FE80077
:103380002E4090009E4F1000EEFF390016003700CF
:103390000040EB00004F7800100037001E40900006
:1033A0000080FB006A00B900104798001E80FB00F7
:1033B000800078002E00900000804000904078004F
:1033C0001E40900000C040008040780000CDB30057
:1033D00000C04000104798001E4FE8002E409000AB
:1033E0009E4F1000EDFF39001E4090000080FB0052
:1033F0000080FA00000006000000FA00411680007C
:1034000000FC2000008070004016880051168000EB
:10341000F0032F00008060005016880080C0B300C9
:1034200054FAB7000040EB0055FAB70010C0B300E3
:1034300056FAB700571AA900573AA900577AA900B7
:10344000575AA900C282A900CAA2A900C082A90035
:10345000C8A2A900C262A800C062A900CA82A900CD
:10346000C882A9002D23A9002D43A9002D63A9001E
:103470002D83A9000080FA00000006000000FA0079
:103480004116800000FC200000807000401688007B
:1034900051168000F0032F00008060005016880055
:1034A0000040EB0055FAB700571AA900573AA90097
:1034B000575AA900577AA900C282A900CAA2A90036
:1034C000CA82A900013220009140780000CEB300EA
:1034D00000C0700020E3B7000000EB0080198800F6
:1034E00020F02100201988000000EB00101988004E
:1034F0000080FA00000006000000FA0055DABF0064
:103500000080FB0080004000C09721000080400048
:1035100010007800980607000080FA0000000600FE
:103520000000FA00CA0A07000080FA000000060046
:103530000800FA00004F78001107980042479800F1
:1035400080000700E0CFB3001E4060004600070087
:10355000B50007000004E00011003A0089000700F0
:103560000000EB0030079800160037001E009000A6
:10357000104078003C000700AB0007000004E000AA
:1035800004003A007F0007000000EB0030079800BD
:103590000C0037001E0090000000E80010079800A3
:1035A0004E4090000040E900404798004E40900097
:1035B000E14F4000EDFF3A007200070010002000CC
:1035C000300798003E0090000080FA0000000600DE
:1035D0000800FA00004F7800110798004247980051
:1035E000580007001E4078000004A0001E000700DD
:1035F0008D0007000004E0000F003A0061000700A2
:103600000000EB003007980014003700320007007C
:10361000804078001E009000014878001E00900055
:103620000000E800100798004E4090000004E00001
:1036300001003400970007004E4090000040E90070
:10364000404798004E409000E14F4000EFFF3A00A5
:103650004C00070010002000300798003E0090004A
:103660000080FA00000006000400FA0020479800DD
:10367000CB22A900CB02A90040C6B30090000700EE
:1036800080C0B300004F78000D0037002E4090003E
:103690000004E00003003500CB22A900C922A900E4
:1036A00001003700C922A8002E4090000000FB0056
:1036B00000004000204798003A0007001E4FE90034
:1036C0001E04E000F1FF3C00C922A8001000200009
:1036D0000080FA00000006000200FA000040EB0043
:1036E000004F7800CB22A900CB02A90040C6B3004E
:1036F0007300070080C0B300104798000B0037002C
:103700001E00FB0000004000004F7800C922A80006
:103710002F0007000004E000010032001E4FE80007
:103720001E4090000040E900104798001E409000A5
:103730000004E000F2FF3C001E00FB000080FA00E5
:10374000000006000000FA00C922A800C902A80073
:10375000CB02A900CB22A90020C3B3005800070068
:10376000C922A900CB22A90020C3B300540007003E
:10377000C902A90040C6B300510007000080FA004A
:10378000000006000000FA00C922A900C902A80032
:1037900020C3B3004A000700C922A8000080FA0035
:1037A000000006000000FA0040C1B300440007001A
:1037B000C902A80040C6B30041000700C902A90021
:1037C00040C6B3003E0007000080FA00000006007B
:1037D0000200FA000040EB00004F780040C1B30047
:1037E00037000700C902A80020C3B3003400070057
:1037F000CBC2BF00624060000004E0000200320063
:1038000010C0B300004F780020C3B3002C000700A5
:10381000C902A90040C6B300290007001E00FB0032
:103820000080FA00000006000200FA00CB22A90086
:10383000CB02A900C902A900C922A800C902A80098
:1038400020C3B3001E000700CBC2BF00624060006F
:103850000004E000030032000000EB00000F7800DD
:103860000900370020C3B30015000700C902A900F2
:1038700040C6B3001200070040C6B30010000700A6
:1038800010002000000F78001E0078000080FA0071
:10389000000006000000FA00CB22A900C922A900FE
:1038A00040C1B30006000700BEFF0700C922A80000
:1038B00040C1B300020007000080FA0000000600CB
:1038C0000400FA00204798000040EB00004F780009
:1038D000130037000000000000000000000000009E
:1038E00000000000000000000000000000000000D8
:1038F00000000000000000000000000000000000C8
:1039000000000000000000000000000000000000B7
:10391000000000001E4078000040E800004F7800E2
:103920001E4078008080FB002E4090000000FB00CD
:10393000808F5000E7FF35000080FA00000006008D
:103940000600FA00004F7800114798001E80FB0027
:1039500020079800AE009000E98F5000A8003200C8
:103960002E009000E90F50001D003C00AE009000BA
:10397000E48F5000810032002E009000E40F5000D0
:103980000A003C00AE009000E18F50005A00320067
:103990002E009000E20F50006F003200AE00900049
:1039A0000100E0004B003200B20037002E00900012
:1039B000E60F500083003200AE009000E68F50000A
:1039C000770035002E009000E70F50008400320091
:1039D000AE009000E88F500085003200A50037004F
:1039E0002E009000F60F500036003200AE0090001E
:1039F000F68F500007003C002E009000EA0F5000A8
:103A000083003200AE009000F48F50009900350022
:103A100028003700800C2000AE009000808F5000FE
:103A200011003200800C2000AE009000808F50000A
:103A300004003C002E009000F70F50007800320088
:103A40008C003700900C2000AE009000808F50005A
:103A500014003200A00C2000AE009000808F5000B7
:103A60008600320083003700575AA800C0752E0028
:103A70004105070020C0B300C20707000040E9006D
:103A80006140600061416000E1A621009140780042
:103A9000E0CFB30000C06000024070006EFAB700D3
:103AA0007600370077000700507B2E00480507009E
:103AB000720037007A000700407C2E0044050700A2
:103AC0006E00370082000700007E2E0040050700D0
:103AD0006A0037001E4078001D050700C600070079
:103AE0006CFAB7006CDABF0078070700A07F2E00E1
:103AF00021050700610037001E407800140507000B
:103B00001E40900071070700D07F2E001A050700A5
:103B10000000EB0050D3880007003700B600070014
:103B20006A07070070802E001305070050D380003D
:103B30000000E80050D388001E4090008080FB0009
:103B400050D38000808F5000F4FF3E00A07F2E00F5
:103B500009050700490037001E407800FC040700F3
:103B60001E409000770007001E4090005707070096
:103B7000A07F2E000005070040003700CB000700A3
:103B80006CFAB7001E407800F10407006CDABF0041
:103B90007107070090802E00F704070037003700F8
:103BA0001E407800EA040700E50007006CFAB70041
:103BB0006CDABF006807070010822E0004050700BA
:103BC0002E0037001E409000400707001E4078007E
:103BD000DF0407001E409000CC00070027003700DC
:103BE0001E407800DA0407000A01070023003700AE
:103BF0001E407800D6040700FF0007001F003700B2
:103C00001E407800D2040700E00007001B003700C8
:103C10001E407800CE040700D500070017003700CB
:103C20001E4090000080FB00100798001E009000CE
:103C3000E10F5000090032009E009000E28F50001A
:103C4000070032001E0090000000E000010032007A
:103C50000500370087090700080037008A090700B8
:103C60009709070005003700B0C0B300B80407008B
:103C700002003700C0C0B300B50407000080FA009E
:103C8000000006000000FA00CB02A900CB22A90028
:103C9000C922A800C902A9000080FA00000006009D
:103CA0000000FA00CB02A90040C1B300880407005D
:103CB000B6000700D700070040C1B3008404070026
:103CC000AB000700CC0007000080FA0000000600EF
:103CD0000000FA0013000700A5000700CD00070050
:103CE000AA00070040C1B30079040700C200070022
:103CF0000080FA00000006000000FA00CB02A900D4
:103D0000C902A90040C1B30071040700C922A8007C
:103D1000CB22A90040C1B3006D0407000080FA0067
:103D2000000006000000FA00CB02A900C902A900A9
:103D300040C1B30066040700C922A9000080FA0050
:103D4000000006000600FA00404798004E40900030
:103D500020479800F3FF070057DABF006840600073
:103D60000004E00003003A0000C8B30010479800C8
:103D70000200370010C0B300104798000040EB006D
:103D8000004F7800170037002E4090009E409000B2
:103D9000014060000004E00002003A0074000700E7
:103DA000010037007900070057DABF006840600063
:103DB0000004E00004003A002E4090000040400063
:103DC00020479800040037002E4090000080FB0040
:103DD0000000D1002047980010C0B3004B0007003E
:103DE0001E4FE80070C0B3009E4F1000E6FF360083
:103DF0000080FA00000006000400FA000040EB001A
:103E0000004F7800BCFF07000040EB0020479800FF
:103E1000200037007F000700CBC2BF000080FB00FE
:103E20000000D100614060001047980057DABF00E1
:103E3000684060000004E0000B0032001E80FB00C0
:103E40000000D100004F78001E4090000004E00008
:103E50000C0032001E40780001C8B3000140400051
:103E6000004F7800070037001E40780000404000F7
:103E7000004F78001E4090000004E0000100320076
:103E80001E4FE8005C0007002E4090000040E80054
:103E9000204798002E409000E74F5000DDFF36008D
:103EA0001E80FB000080FA00000006000200FA00FD
:103EB00091FF070057000700CBC2BF000080FB0046
:103EC0000000D10061406000004F78004A00070008
:103ED0001E80FB000080FA00000006000200FA00CD
:103EE000004F78008FFF07001E04E00002003A0038
:103EF0001F000700010037002400070010C0B300B6
:103F0000020007000080FA00000006000400FA002A
:103F1000204798000040EB00004F78000300370076
:103F20003C000700340007001E4FE8002E409000C0
:103F30009E4F1000FAFF39000080FA0000000600D2
:103F40000000FA00C922A8000000000000000000E4
:103F500000000000CBC2BF000080FB000000D100C9
:103F6000614060000080FB000080FA000000060055
:103F70000000FA00CB22A900C922A90040C1B30069
:103F8000D30307000080FA00000006000000FA00DA
:103F90006EDABF006140600000C0EA00614060006E
:103FA0006140600000414000912C20009140780069
:103FB000D0CFB30000C0600002407000C9E2B7007B
:103FC0006EDABF0061406000614060000041400067
:103FD000B12C200091407800D0CFB30000C0600029
:103FE00002407000CBE2B70040C1B300B803070045
:103FF0000080FA00000006000000FA00CB02A900D1
:10400000C902A90040C6B300B10307000080FA004E
:10401000000006000000FA006EDABF006140600098
:1040200000C0EA006140600061416000912C200006
:1040300091407800E0CFB30000C060000240700003
:10404000C9E2B7006EDABF00614060006141600004
:10405000B12C200091407800E0CFB30000C0600098
:1040600002407000CBE2B70040C6B30098030700DF
:104070000080FA00000006000600FA00004F7800F9
:1040800011479800224798001E80FB0020079800E7
:10409000AE009000E88F5000A80032002E00900083
:1040A000E80F50001D003C00AE009000E38F500070
:1040B0006B0032002E009000E30F50000A003C001D
:1040C000AE009000E18F50003A0032002E009000C8
:1040D000E10F500050003C00AE0090000100E000F5
:1040E0002A003200C70037002E009000E50F500074
:1040F0007E003200AE009000E58F50007100350068
:104100002E009000E60F500081003200AE009000BB
:10411000E78F500085003200BA0037002E00900073
:10412000F50F50000A003C00AE009000F48F5000E4
:10413000A2003D002E009000E90F500083003200E5
:10414000AE009000EA8F500084003200AD003700CE
:104150002E009000F70F5000A7003200AE00900034
:10416000F78F50009F003500800C2000AE009000BB
:10417000808F50007D003200900C2000AE00900037
:10418000808F5000880032009E00370000C0EB0096
:10419000AB00070072FAB7001E4078006C030700FE
:1041A00072DABF00C9050700C08F2E007203070036
:1041B000960037001E407800650307001E409000FF
:1041C000C2050700F08F2E006B0307000000EB0014
:1041D00080D388000800370000C0EB00980007007B
:1041E000BA05070090902E006303070080D380007B
:1041F0000000E80080D388001E4090008080FB0013
:1042000080D38000808F5000F3FF3E00C08F2E00CF
:10421000590307007D0037001E4078004C0307005B
:104220001E409000A90507001E4090008400070072
:1042300072FAB70074DABF00624060000004E00068
:1042400004003200B0902E004B03070072DABF006A
:104250009E050700C08F2E00470307006B00370044
:104260001E4078003A0307001E40900097050700A3
:1042700030912E00400307002E4090009305070068
:1042800070912E00520307000000EB0080D38800DD
:10429000060037001E4090006900070072FAB70060
:1042A00080D380000000E80080D388002E4090007A
:1042B0008080FB0080D38000808F5000F5FF3E009F
:1042C0005200370010C0B300A300070072FAB70015
:1042D0001E4078001E03070072DABF009E0507002B
:1042E000C08F2E0024030700480037001E407800CE
:1042F00017030700A900070072FAB70072DABF00BF
:1043000095050700C08F2E001B0307003F003700F4
:104310001E4090006D0507001E4078000C0307004A
:104320001E409000C6000700380037001E4078008D
:1043300007030700D6000700340037001E4078004E
:1043400003030700CB000700300037001E40780051
:10435000FF0207009F0007002C0037001E40780076
:10436000FB0207009400070028003700575AA800F6
:10437000E0912E000003070020C0B3008105070074
:104380000040E900614060006141600041A72100F8
:1043900091407800E0CFB30000C0600002407000A0
:1043A00074FAB70019003700743AA9001900070021
:1043B00070972E00060307001400370050C1B300A9
:1043C0009E4F100002003A00743AA8000100370026
:1043D000743AA900E200070060982E00FC02070072
:1043E0000A003700743AA900C200070010992E0095
:1043F000F702070005003700B0C0B300D402070081
:1044000002003700C0C0B300D10207000080FA00EC
:10441000000006000000FA00C8E2A800C902A800D7
:10442000C922A800CAE2A900CB02A900CB22A90098
:10443000CAC2A800C8C2A9000080FA000000060095
:104440000600FA00404798008A00070057DABF00CC
:10445000684060000004E0000300320010C0B300B8
:10446000004F78000200370000C8B300004F78000A
:104470000040EB0030479800300037004E4090007D
:104480001E4060000004E00002003A004A000700FD
:10449000010037004F0007007D000700CAC2BF00BF
:1044A0000080FB004700DE002047980057DABF007D
:1044B000684060000004E000100032004E409000B0
:1044C0000080FB000000D100404798001E40900093
:1044D0000080FB000000D100104798002E409000A3
:1044E000E14F500011003A001E40900001C8B30097
:1044F00001404000104798000C0037004E409000EB
:1045000000404000404798001E409000004040009E
:10451000104798002E409000E14F500003003A00F1
:104520001E4090000040E80010479800510007002E
:104530003E4090000040E800304798003E40900028
:10454000E74F5000CDFF36001E4090000080FB007A
:104550000080FA00000006000400FA0020479800DE
:104560002E4090000004E00002003A001200070014
:10457000010037001700070045000700CAC2BF004E
:104580000080FB004700DE00004F78003900070084
:104590001E80FB000080FA00000006000000FA0008
:1045A000CAC2BF000080FB004700DE000080FB00A5
:1045B0000080FA00000006000000FA00CB22A900EB
:1045C000C922A90040C1B300410207000080FA00DF
:1045D000000006000000FA0074DABF0061406000CD
:1045E00000C0EA006140600061406000004140009E
:1045F000912C200091407800D0CFB30000C0600023
:1046000002407000C9E2B70074DABF006140600088
:104610006140600000414000B12C200091407800D2
:10462000D0CFB30000C0600002407000CBE2B70002
:1046300040C1B300260207000080FA000000060017
:104640000400FA00204798000040EB00004F78007B
:10465000030037000E000700060007001E4FE800A9
:104660002E4090009E4F1000FAFF39000080FA00A3
:10467000000006000000FA00CB02A900C902A90050
:1046800040C6B300120207000080FA0000000600D6
:104690000000FA0074DABF006140600000C0EA0068
:1046A0006140600061416000912C200091407800E1
:1046B000E0CFB30000C0600002407000C9E2B70064
:1046C00074DABF006140600061416000B12C2000DD
:1046D00091407800E0CFB30000C06000024070005D
:1046E000CBE2B70040C6B300F90107000080FA0032
:1046F000000006000000FA0074DABF0061406000AC
:1047000000C0EA0061406000614060004601DD00D9
:10471000812C200091407800F0CBB30000C06000F5
:1047200002407000C8E2B70074DABF006140600068
:10473000614060004601DD00A12C2000914078001E
:10474000F0CBB30000C0600002407000CAE2B700C6
:1047500040C1B300DE0107000080FA00000006003F
:104760000000FA00CAC2A900C8C2A90040C1B30033
:10477000D70107000080FA00000006000400FA00DC
:10478000004F7800114798001E80FB00100798002A
:104790009E009000F58F50000D003C001E00900020
:1047A000F40F500022003D009E009000E18F500069
:1047B000370032001E009000E20F50004D00320022
:1047C0009E0090000100E0002700320096003700B4
:1047D000800C20009E009000808F50005700320017
:1047E000800C20009E009000808F500007003C004D
:1047F0001E009000F60F5000170032009E0090003F
:10480000F78F50008500320087003700900C2000A1
:104810009E009000808F500079003200A00C200094
:104820009E009000808F50007A0032007E0037009A
:1048300050C1B3009E4F100002003A007B7AA800DE
:10484000010037007B7AA900DA00070000432E0040
:10485000DF01070076003700D2000700B0432E00CA
:10486000DB010700720037001E407800B801070026
:1048700000C0EB00D300070078FAB70078DABF0079
:104880001204070070442E00BB01070068003700C7
:104890001E407800AE0107001E4090000B04070088
:1048A000A0442E00B40107000000EB00B0D3880044
:1048B0000800370000C0EB00C20007000304070037
:1048C00000C2B3006E040700B0D380000000E8000F
:1048D000B0D388001E4090008080FB00B0D38000E1
:1048E000808F5000F3FF3E0070442E00A2010700AD
:1048F0004F0037001E407800950107001E409000D1
:10490000F20307001E409000AE00070078FAB700DF
:104910007BDABF00684060000004E0000400320061
:1049200040452E009401070078DABF00E703070036
:1049300070442E00900107003D003700575AA9002F
:10494000C0452E008C01070040C0B3000D040700D5
:104950000040E9007AFAB700D0492E00860107002E
:1049600020C0B300070407000040E9006140600078
:1049700061416000B1A7210091407800E0CFB30011
:1049800000C06000024070007BFAB700704D2E003E
:104990007901070020C0B300FA0307000040E900D6
:1049A000614060006140600000414000B1A721000B
:1049B00091407800D0CFB30000C06000024070008A
:1049C0007BFAB700F0512E006B01070020C0B30046
:1049D000EC0307000040E9006140600061406000B6
:1049E0004201DD00B1A7210091407800B0CFB300B3
:1049F00000C06000024070007BFAB7000C00370076
:104A00007B7AA9000C00070050552E0070010700AA
:104A1000070037005200070005003700B0C0B300A0
:104A20004B01070002003700C0C0B3004801070077
:104A30000080FA00000006000000FA0041E2A90030
:104A4000816A20009140780000CEB30000C0600071
:104A50007040B300A8E6B700916C20009140780048
:104A600000CEB30000C060007040B300C9E6B700DC
:104A7000816C20009140780000CEB30000C060003F
:104A80000034A000C8E6B700CAC2A800C8C2A90086
:104A9000C902A900C8E2A800C922A9007ADABF00A9
:104AA0008080FB00C0A721000080400010407800FB
:104AB0008080FB000012200000807000101288002F
:104AC0007BDABF0061406000614060004601DD00AC
:104AD0002124200091407800F0CBB30000C060009A
:104AE0000240700042E2B7007BDABF000080FB00AA
:104AF0000000D1006140600061416000312420006D
:104B000091407800E0CFB30000C060000240700028
:104B100043E2B7007BDABF000080FB004200DE000A
:104B2000614060006140600000414000312420008D
:104B300091407800D0CFB30000C060000240700008
:104B400043E2B7000000EB00201288000000EB00F9
:104B50000012880041E2A8000080FA000000060070
:104B60000000FA0041E2A900A8C6BF00F041B3006E
:104B7000A8E6B700916C20009140780000CEB30009
:104B800000C06000C9E6B700816C20009140780049
:104B900000CEB30000C06000C8E6B7000080FA0095
:104BA000000006000000FA00CAC2A8000080FA0057
:104BB000000006000000FA00CAC2A9000080FA0046
:104BC000000006000200FA00004F78001E80FB0083
:104BD0004012880085C0BF00644060000004E0000F
:104BE000FCFF320040128000004F78008540A90091
:104BF0001E80FB000080FA00000006000000FA00A2
:104C000057DABF00624060000004E00003003A0091
:104C1000C942A900CB42A80002003700C8C2A900BF
:104C2000CAC2A800802C2E00E90007000080FA000C
:104C3000000006000000FA0057DABF006240600082
:104C40000004E00003003A00C942A900CB42A900D9
:104C500002003700C8C2A900CAC2A900102D2E0048
:104C6000DB0007000080FA00000006000200FA00E6
:104C700057DABF00624060000004E00009003A001B
:104C8000C942A8000000000000000000CBC2BF0025
:104C90000080FB004200DE0061406000004F7800B1
:104CA00008003700C8C2A800000000000000000093
:104CB000CAC2BF000080FB004600DE006140600009
:104CC000004F7800902D2E00AB0007001E407800AA
:104CD00021030700E02E2E00A70007000080FA0045
:104CE000000006000000FA00C8A2A8001FE1A90009
:104CF00011E1A900616820009140780000CEB30066
:104D000000C060005040B30086E6B7001061A80004
:104D100010A1A8001081A8001021A8000080EB00BD
:104D2000700888000080EB00600888000000EB003D
:104D3000400888000000EB00300888000000EB000D
:104D4000B00888000000EB00A00888001E61A800E1
:104D50001E81A9001EA1A9001E21A9001EC1A90033
:104D6000400F2000E008880000402200D0088800A2
:104D70008780A9001FE1A80011E1A80087C0BF003B
:104D8000704060000004E000FCFF320011E1A90067
:104D90001FE1A900102F2E007700070030088000C7
:104DA00090D288004008800080D2880080D28000A5
:104DB0000100200060D2880071D2880060D280009B
:104DC00071D28000C000DD000000200060D28800A9
:104DD00071D2880090D280006101B80060D280005A
:104DE00071D28000020040008380480060D28800B9
:104DF00071D2880060D2800071D28000C808DD00C6
:104E00000080FD00804078000040EB0060D2880008
:104E100071D2880060D2800071D28000A3000700A8
:104E2000A0302E005400070062D2800073D28000B0
:104E3000703E200001002000800F5100818F59003A
:104E40001C00360062D2800073D28000F023240060
:104E5000F1002000800F5100818F59000B003E00AF
:104E6000D0302E004400070060D2800071D2800054
:104E7000823E200003002000CBF207008B000700D9
:104E800000312E003C0007000A003700D0302E0011
:104E90003900070060D2800071D280000224240013
:104EA000F3002000C0F207008000070050312E0000
:104EB00031000700E02E2E002F00070086C6BF003D
:104EC000F041B30086E6B7000080FA00000006005B
:104ED0000400FA00204798000040EB00004F7800E3
:104EE0001300370000000000000000000000000078
:104EF00000000000000000000000000000000000B2
:104F000000000000000000000000000000000000A1
:104F10000000000000000000000000000000000091
:104F2000000000001E4078000040E800004F7800BC
:104F30001E4078008080FB002E4090000000FB00A7
:104F4000808F5000E7FF35000080FA000000060067
:104F50000200FA00004F78001E00FB0080004000B5
:104F6000809F2100008040001000780002000700B0
:104F70000080FA00000006000600FA001007980002
:104F8000020037001E407800BD0207001E0090009E
:104F9000104F78001E407800404798004E40900027
:104FA0000004E0000200320010C0B3004047980047
:104FB0004E4090009E0090008100E800110798008C
:104FC0000004E000EFFF3A000080FA000000060055
:104FD0000600FA0010079800020037001E40780013
:104FE000A70207001E009000104F78001E407800B6
:104FF000404798004E4090000004E000020032005C
:1050000010C0B300404798004E4090009E009000B2
:105010008100E800110798000004E000EFFF3A006B
:10502000D0C0B30096020700A0C0B30094020700EE
:105030000080FA00000006000400FA0020479800F3
:1050400000C8B300004F780010402E00CAFF0700D0
:105050000040EB00104798000F0037002E409000F2
:105060001E4060000004E0000300320010C3B300E3
:10507000830207000200370000C3B300800207006C
:105080001E80FB000000D100004F78001E40900001
:105090000040E800104798001E409000E74F500085
:1050A000EEFF36000080FA00000006000C00FA0057
:1050B00040079800510798004E009000DE009000D5
:1050C000200798003107980000102E00515F200043
:1050D000008FBE001E01BE002E009000BE0090009A
:1050E00031F20700E00F5000E08F58000600320058
:1050F0001E01BE002E009000BE0090002AF20700A4
:105100000043B0005E0207001E01BE002E009000AA
:10511000BE00900024F207000001BE001E13B8007C
:105120001E0090000090B9000702780000024200C3
:105130001E0078000380B90000024200840378005A
:105140002E009000BE00900006005000878058009E
:105150002007980031079800006829008109200085
:10516000008FBE001E01BE002E009000BE00900009
:105170000DF20700E00F5000E08F580006003200EB
:105180001E01BE002E009000BE00900006F2070037
:105190000043B0003A0207001E01BE002E0090003E
:1051A000BE00900000F207000001BE001E13B80010
:1051B0001E0090000090B900070278000002420033
:1051C0001E0078000380B9000002420084037800CA
:1051D0002E009000BE00900006005000878058000E
:1051E000200798003107980000242400F1002000D7
:1051F000008FBE001E01BE002E009000BE00900079
:10520000E9F10700E00F5000E08F5800060032007F
:105210001E01BE002E009000BE009000E2F10700CB
:105220000043B000160207001E01BE002E009000D1
:10523000BE009000DCF107000001BE001E13B800A4
:105240001E0090000090B9000702780000024200A2
:105250001E0078000380B900000242008403780039
:105260002E009000BE00900006005000878058007D
:105270002007980031079800006A280011002000DC
:10528000008FBE001E01BE002E009000BE009000E8
:10529000C5F10700E00F5000E08F58000600320013
:1052A0001E01BE002E009000BE009000BEF107005F
:1052B0000043B000F20107001E01BE002E00900066
:1052C000BE009000B8F107000001BE001E13B80038
:1052D0001E0090000090B900070278000002420012
:1052E0001E0078000380B9000002420084037800A9
:1052F0002E009000BE0090000600500087805800ED
:10530000200798003107980000712200010020005A
:10531000008FBE001E01BE002E009000BE00900057
:10532000A1F10700E00F5000E08F580006003200A6
:105330001E01BE002E009000BE0090009AF10700F2
:105340000043B000CE0107001E01BE002E009000F9
:10535000BE00900094F107000001BE001E13B800CB
:105360001E0090000090B900070278000002420081
:105370001E0078000380B900000242008403780018
:105380002E009000BE00900006005000878058005C
:105390002007980031079800803E2000010020007F
:1053A000008FBE001E01BE002E009000BE009000C7
:1053B0007DF10700E00F5000E08F5800060032003A
:1053C0001E01BE002E009000BE00900076F1070086
:1053D0000043B000AA0107001E01BE002E0090008D
:1053E000BE00900070F107000001BE001E13B8005F
:1053F0001E0090000090B9000702780000024200F1
:105400001E0078000380B900000242008403780087
:105410002E009000BE0090000600500087805800CB
:105420002007980031079800400620000100200066
:10543000008FBE001E01BE002E009000BE00900036
:1054400059F10700E00F5000E08F580006003200CD
:105450001E01BE002E009000BE00900052F1070019
:105460000043B000860107001E01BE002E00900020
:10547000BE0090004CF107000001BE001E13B800F2
:105480001E0090000090B900070278000002420060
:105490001E0078000380B9000002420084037800F7
:1054A0002E009000BE00900006005000878058003B
:1054B0002007980031079800A0002000010020007C
:1054C000008FBE001E01BE002E009000BE009000A6
:1054D00035F10700E00F5000E08F58000600320061
:1054E0001E01BE002E009000BE0090002EF10700AD
:1054F0000043B000620107001E01BE002E009000B4
:10550000BE00900028F107000001BE001E13B80085
:105510001E0090000090B9000702780000024200CF
:105520001E0078000380B900000242008403780066
:105530002E009000BE0090000600500087805800AA
:1055400020079800310798002E0090000043B0001B
:105550004B0107000080FA00000006000A00FA0074
:10556000400798004E00900001002000200798009E
:10557000310798000071220001002000008FBE005A
:105580001E01BE002E009000BE00900006F1070034
:10559000E00F5000E08F5800060032001E01BE00F0
:1055A0002E009000BE009000FFF007000043B00006
:1055B000330107001E01BE002E009000BE009000C7
:1055C000F9F007000001BE001E13B8001E00900095
:1055D0000090B90007027800000242001E00780027
:1055E0000380B90000024200840378002E0090007E
:1055F000BE009000060050008780580020079800E9
:1056000031079800803E200001002000008FBE007E
:105610001E01BE002E009000BE009000E2F00700C8
:10562000E00F5000E08F5800060032001E01BE005F
:105630002E009000BE009000DBF007000043B00099
:105640000F0107001E01BE002E009000BE0090005A
:10565000D5F007000001BE001E13B8001E00900028
:105660000090B90007027800000242001E00780096
:105670000380B90000024200840378002E009000ED
:10568000BE00900006005000878058002007980058
:10569000310798004006200001002000008FBE0066
:1056A0001E01BE002E009000BE009000BEF007005C
:1056B000E00F5000E08F5800060032001E01BE00CF
:1056C0002E009000BE009000B7F007000043B0002D
:1056D000EB0007001E01BE002E009000BE009000EF
:1056E000B1F007000001BE001E13B8001E009000BC
:1056F0000090B90007027800000242001E00780006
:105700000380B90000024200840378002E0090005C
:10571000BE009000060050008780580020079800C7
:1057200031079800A000200001002000008FBE007B
:105730001E01BE002E009000BE0090009AF00700EF
:10574000E00F5000E08F5800060032001E01BE003E
:105750002E009000BE00900093F007000043B000C0
:10576000C70007001E01BE002E009000BE00900082
:105770008DF007000001BE001E13B8001E0090004F
:105780000090B90007027800000242001E00780075
:105790000380B90000024200840378002E009000CC
:1057A000BE00900006005000878058002007980037
:1057B000310798002E0090000043B000B0000700B1
:1057C0000080FA00000006000400FA00204798005C
:1057D0002E409000004F780030C6B3009E4F10005E
:1057E000060036001E80FB00420620001100090062
:1057F0000280D8000043B000A10007009E4178005D
:105800001E80FB0042062000110009000280D80023
:105810008080FB00400620000088B90000C05100D5
:10582000004F780090C0B3009E4F10000600360075
:105830001E80FB00A2002000110009000280D80099
:105840000043B0008E0007009E4178001E80FB00E0
:10585000A2002000110009000280D8000080FB0097
:105860006A00B90000C05100004F78001E40780067
:105870000043B000820007000080FA00000006002C
:105880000400FA001007980040412E00BAFD0700FE
:105890001E0090004400DE006F0F60009E00780044
:1058A00040402E0061407800750007001E00900007
:1058B0006F0F60009E00780040402E00614078002D
:1058C0006F0007000080FA00000006000400FA00E4
:1058D000004F780056DABF000080FB0010079800E8
:1058E0001E009000E20F5000110032001E009000D8
:1058F000E20F500004003C001E009000E10F500039
:1059000008003200120037001E009000E30F500024
:105910000A0032001E009000E40F50000A0032001E
:105920000B0037001E80FB00D5FF07000800370082
:105930001E407800A4FF0700050037001E407800D5
:10594000BDFD0700020037001E4078004C00070034
:105950000080FA00000006000200FA00004F780004
:105960001E04E00003003A0000C3B3004400070037
:105970000200370010C3B300410007000080FA00A6
:10598000000006000400FA002047980000003700DD
:10599000290007000004E000FDFF32002C00070092
:1059A000004F78001E407800350007009E407800C8
:1059B000F0CCB30000C04000004F7800E02E2E0075
:1059C0006DFD07002E4090009E4F1000030039002F
:1059D00070412E0068FD0700EDFF37001E40780083
:1059E0000040E8000080FB000080FA000000060094
:1059F0000000FA0054DABF000080FB008000400085
:105A000020A1210000804000100078004011880093
:105A10000000EB00001188002062A8000000EB00ED
:105A20001011880021E2A8002342A8008560A90087
:105A30000080FA00000006000000FA0022C2BF0049
:105A4000614060000080FB000080FA00000006005A
:105A50000200FA0022C2BF00614060000004E000C2
:105A6000FCFF320030118000004F78008560A900F3
:105A70001E4078000080FB000080FA000000060055
:105A80000200FA00004F78001E00FB002011880081
:105A90000000000023C2BF00614060000004E0007D
:105AA000FCFF32000080FA00000006000200FA004D
:105AB000004F78001E80FB00401988002023A800BA
:105AC0002003A90020C3BF00614060000004E00083
:105AD000FCFF3200001880000080FA000000060081
:105AE0000800FA00300798003E009000CF80DE00EA
:105AF000BDEF0700926C2200B3312400E5EF0700F0
:105B000010079800210798001E009000AE0090003A
:105B100022F00700004F78001E4078002AFF07009F
:105B2000E0C2B300D6FF07001E009000AE00900058
:105B30001AF00700CF80DE00ABEF07000001BE00C7
:105B40001E009000AE00900035F00700100798008E
:105B50002107980002002000031224001E0090007C
:105B6000AE0090008CF00700100798002107980005
:105B70001E009000AE00900008F00700004F780073
:105B80001E40780010FF07000080FA0000000600A9
:105B90000600FA00004F7800114798001E80FB00B5
:105BA00020079800AE009000F58F50000D003C00DB
:105BB0002E009000F40F500056003D00AE00900003
:105BC000E18F5000290032002E009000E20F5000BB
:105BD00041003200AE0090000100E00019003200E8
:105BE00084003700800C2000AE009000808F5000B1
:105BF00050003200800C2000AE009000808F5000DA
:105C000007003C002E009000F60F500045003200C7
:105C1000AE009000F78F50004C0032007500370046
:105C2000900C2000AE009000808F500043003200A6
:105C3000A00C2000AE009000808F50006F0032005A
:105C40006C0037001E407800C1FC0700A2F6070078
:105C500083FAB7000FF7070083DABF001BFF0700C6
:105C600080832E00C4FC0700640037001E407800CB
:105C7000B7FC07001E40900014FF0700B0832E0001
:105C8000BDFC07000000EB0000D488000A003700CC
:105C900091F6070082FAB700FEF6070082DABF002D
:105CA0000AFF070050842E00B3FC070000D48000D8
:105CB0000000E80000D488001E4090008080FB00B7
:105CC00000D48000808F5000F1FF3E0080832E00C2
:105CD000A9FC0700490037001E4078009CFC070023
:105CE0001E409000F9FE07001E4090005EF607007F
:105CF000CDF607000004E00003003A0070842E0097
:105D0000B3FC07003D00370040852E00B0FC0700C3
:105D10003A0037008BF6070020862E0096FC07001D
:105D20003600370097F6070080872E0092FC0700A8
:105D300032003700575AA900300037003100070001
:105D4000D0882E008CFC07002C0037001E409000ED
:105D50000080FB00100798001E0090000000E0008B
:105D6000040032009E009000E18F500004003200D9
:105D70001D00370090892E007FFC07001F003700B0
:105D8000108C2E0092FC07000000EB0000D488006D
:105D90000E0037006BF6070000D4800032F60700D3
:105DA000A1F607000004E0000400320000D48000E7
:105DB000C6FE070050842E006FFC070071F6070036
:105DC00000D480000000E80000D4880001D48000E6
:105DD000F00F2000808F5000EEFF360080832E00F1
:105DE00065FC070005003700B0C0B30058FC070091
:105DF00002003700C0C0B30055FC07000080FA0065
:105E0000000006000000FA00C922A800C902A8008C
:105E1000CB02A900CB22A9000080FA0000000600F6
:105E20000400FA00004F7800114798001E80FB0024
:105E3000100798009E009000F68F5000420032003C
:105E40001E009000F60F50000E003C009E009000D7
:105E5000E28F50002F0032001E009000E20F500031
:105E600004003C009E0090000100E0001A00320097
:105E7000730037001E009000F40F500070003500D2
:105E80002D003700800C20009E009000808F500075
:105E900031003200800C20009E009000808F500066
:105EA00004003C001E009000F70F5000610032001B
:105EB00063003700900C20009E009000808F5000FF
:105EC00056003200A00C20009E009000808F5000F1
:105ED000560032005A003700D90007000004E000E5
:105EE000090032001E40780019FC0700C8000700B6
:105EF00084FAB70084DABF0074FE070000142E0095
:105F00001DFC07005000370030142E0030FC070045
:105F10004D0037001E4078000DFC07001E40900029
:105F20006AFE070000142E0013FC07001E409000BC
:105F3000AC0007004400370097000700B0152E00A2
:105F400023FC0700400037009900070010172E00BF
:105F50001FFC07003C003700575AA900D0172E003D
:105F600005FC070090C0B30086FE07000040E90072
:105F700086FAB700501F2E00FFFB070040C0B30099
:105F800080FE07000040E90063406000634160005C
:105F900071A8210091407800C0CFB30000C060001C
:105FA0000240700087FAB700F0242E00F2FB0700D1
:105FB00020C0B30073FE07000040E90061406000AC
:105FC000614060004201DD0071A82100914078002D
:105FD000B0CFB30000C060000240700087FAB70085
:105FE00060272E00E4FB070020C0B30065FE070019
:105FF0000040E90061406000614060004301DD0055
:1060000071A821009140780070CFB30000C06000FB
:106010000240700087FAB7000B003700220007002B
:10602000102B2E00EAFB0700070037006000070076
:1060300005003700B0C0B300C5FB07000200370001
:10604000C0C0B300C2FB07000080FA0000000600D9
:106050000200FA007A0007000004E000100032009D
:1060600087DABF00704060000004E0000B003200DF
:1060700000142E00C0FB0700C02B2E00BEFB070043
:1060800063000700004F78001E4078000FFE0700F5
:1060900000142E00B8FB0700010037005C00070069
:1060A0000080FA00000006000000FA00616A20008B
:1060B0009140780000CEB30000C060007040B30093
:1060C000A6E6B700616C20009140780000CEB300D6
:1060D00000C060005040B300C6E6B70086DABF00DB
:1060E0000080FB0080004000A0A321000080400051
:1060F00010007800C01188000000EB0080118800BB
:106100003062A80087DABF000080FB004300DE0099
:1061100061406000614060004401DD000123200017
:1061200091407800F0CEB30000C0600002407000E3
:1061300030E2B70087DABF00634060006340600070
:1061400000414000012320009140780090CFB3002F
:1061500000C060000240700030E2B70087DABF0084
:106160000080FB004200DE00614060006141600091
:106170000123200091407800E0CFB30000C0600010
:106180000240700030E2B7000000EB009011880080
:106190000080FA00000006000000FA0031E2A800CA
:1061A0003342A80087C0A9000080FA000000060062
:1061B0000000FA0031E2A9003342A900A6C6BF00E0
:1061C000F041B300A6E6B700616C20009140780072
:1061D00000CEB30000C06000C6E6B7000080FA0041
:1061E000000006000200FA00004F78001E80FB004D
:1061F000A01188000000000033C2BF0061406000B1
:106200000004E000FCFF32000080FA0000000600FD
:106210000200FA0087C0BF000044B2000004E000A2
:10622000FCFF3200B0118000004F780087C0A90049
:106230001E4078000080FB000080FA00000006008D
:106240000200FA0087C0BF000044B2000004E00072
:106250000300320010002000000F78000200370019
:106260000000EB00000F78001E0078000080FA00AC
:10627000000006000000FA0000662E003EFB07004A
:106280000080FA00000006000000FA00B0692E004D
:1062900039FB070067FA070000C0EB000CFB0700A2
:1062A00056FA0700C06A2E0033FB070010C0B30087
:1062B00016F707005FFA07000080FA0000000600EA
:1062C0000A00FA00CCF6070080407800630047001F
:1062D00001487800C8F60700804078006300470056
:1062E00011409800C4F60700804078006300470022
:1062F00021409800C0F60700804078006300470006
:1063000031409800F06B2E001BFB07006300470034
:10631000104078000080FB0059FD0700206D2E0022
:1063200015FB070063004700104090000080FB0051
:1063300053FD0700206D2E000FFB07006300470090
:10634000204090000080FB004DFD0700206D2E00D6
:1063500009FB070063004700304090000080FB000D
:1063600047FD0700406D2E0003FB07006300470058
:10637000104078000080FB004400DE0020479800B9
:10638000706D2E00FCFA07002E4090000080FB008C
:10639000400798004E009000E90F500011003200B5
:1063A0004E009000E90F500004003C004E009000A9
:1063B000E80F500008003200130037004E00900034
:1063C000EA0F50000A0032004E009000EF0F50001C
:1063D0000A0032000C003700206E2E00E6FA07009B
:1063E0000B003700906E2E00E3FA0700080037001C
:1063F000006F2E00E0FA070005003700706F2E00D6
:10640000DDFA070002003700B06F2E00DAFA07004D
:10641000406D2E00D8FA070030702E00D6FA070023
:1064200063004700104090000080FB004700DE0042
:10643000204798002E4090000004E00003003A003E
:10644000F0702E00CCFA07000200370060712E00B9
:10645000C9FA0700406D2E00C7FA070060722E00CF
:10646000C5FA070063004700104090008080FB00E1
:1064700080F72F00008060004380DE0020479800F6
:106480002E4090000004E00003003A0030732E001C
:10649000B9FA07001B0037002E409000EF4F500064
:1064A00003003A00706F2E00B3FA070015003700A2
:1064B00000042000000F7800E30047000040EB00DC
:1064C00080487800080037001E0078000000400077
:1064D000000F780063004700104078008040E8001B
:1064E000630047000148780063004700904078004F
:1064F0002E40900080CF5000F3FF39001E0078003E
:1065000016FC0700406D2E009BFA070010742E0049
:1065100099FA0700630047009040900070C0B300F4
:1065200000C060002047980010002000000F780095
:10653000E30047000040EB00804878000800370087
:106540001E00780000004000000F78006300470044
:10655000104078008040E800630047000148780060
:1065600063004700904078002E40900080CF50009C
:10657000F3FF39001E00780093FC070040752E00E1
:106580007DFA07000080FA00000006000800FA000B
:10659000004F7800114798001E80FB0030079800DC
:1065A000BE009000E98F5000B40032003E00900021
:1065B000E90F50001D003C00BE009000E48F500029
:1065C0008D0032003E009000E40F50000A003C00B5
:1065D000BE009000E18F5000650032003E00900048
:1065E000E20F50007A003200BE0090000100E0008F
:1065F00056003200890137003E009000E60F50003F
:106600008F003200BE009000E68F500083003500FE
:106610003E009000E70F500090003200BE00900056
:10662000E88F5000910032007C0137003E0090005E
:10663000F60F500041003200BE009000F68F50006F
:106640000A003C003E009000F40F50002F00320082
:10665000BE009000F48F500032003C003E009000DD
:10666000EA0F5000890032006C013700800C2000D6
:10667000BE009000808F500011003200800C20007E
:10668000BE009000808F500004003C003E0090004F
:10669000F70F50008100320060013700900C20009D
:1066A000BE009000808F500014003200A00C20002B
:1066B000BE009000808F50005A0132005701370011
:1066C000575AA80000DC2D002BFA070020C0B300A9
:1066D000ACFC07000040E9006140600061416000DF
:1066E00001A6210091407800E0CFB30000C0600017
:1066F0000240700060FAB7004A013700DA01070073
:1067000090E12D0032FA07004601370047010700EB
:1067100020C0B3009701070040E22D002CFA0700CB
:10672000400137004101070030C0B300910107006C
:10673000B0E32D0026FA07003A0137003B010700BD
:1067400070E52D0022FA07003601370037020700F6
:106750005EFAB7001E407800FDF907005EDABF0060
:106760005AFC070010E62D0003FA07002D01370040
:106770001E407800F6F907001E40900053FC070009
:1067800040E62D00FCF907000000EB00E0D2880095
:1067900007003700250207004CFC0700E0E62D004B
:1067A000F5F90700E0D280000000E800E0D28800A0
:1067B0001E4090008080FB00E0D28000808F50005F
:1067C000F4FF3E0010E62D00EBF90700150137003D
:1067D0001E409000AF0107005EFAB7001E4078002F
:1067E000DBF907001E40900038FC070010E62D0082
:1067F000E1F907000B013700500207005EFAB7000D
:106800001E407800D2F907005EDABF0052FC070094
:1068100010E62D00D8F90700020137001E4078006D
:10682000CBF907004F0207005EFAB7005EDABF003F
:1068300049FC070010E62D00CFF90700F9003700EA
:106840001E40900021FC07001E407800C0F90700A0
:106850001E4090006C020700F20037001E407800D6
:10686000BBF9070075020700EE0037001E407800F4
:10687000B7F907008A020700EA0037001E407800D7
:10688000B3F907003E020700E60037001E4078001B
:10689000AFF9070055020700E20037001E409000E4
:1068A0000080FB00200798002E009000E10F5000B0
:1068B00011003200AE009000E18F500004003C0057
:1068C0002E0090000000E00008003200D0003700E9
:1068D000AE009000E28F50000C0032002E009000BD
:1068E000E30F500056003200C900370000E72D00CA
:1068F000A1F90700CB0037001501070000EB2D00C0
:10690000B3F90700C9000700C6003700E0EB2D000F
:10691000AFF907000E01070000EB2D00ACF90700EE
:1069200017020700C100070020C0B30011010700D3
:1069300000C0EB003402070000C0EB003202070089
:10694000BA00070030C0B3000A0107000000EB00E6
:10695000E0D2880007003700E0D280000000E800A5
:10696000E0D28800E1D28000900F2000808F50009C
:1069700003003600F10107000004E000F6FF3200DA
:10698000AA000700F200070000EB2D0090F90700B5
:10699000A600070030C0B300F6000700E0EC2D00B1
:1069A0008BF90700E0D28000C8FB070010EE2D0035
:1069B00071F907000040EB005EFAB70019003700DC
:1069C000E0EE2D006CF90700E0D28000BFFB07006D
:1069D00000EF2D0068F9070094010700BBFB0700DA
:1069E000E0E62D0064F9070090010700B7FB0700FF
:1069F000E0E62D0060F907008C010700B3FB0700FB
:106A0000E0E62D005CF9070088010700AFFB0700F6
:106A100010E62D0058F907005EDABF000040E800DC
:106A20005EFAB7005EDABF008080FB00E0D2800033
:106A3000808F5000E2FF39007C00070079003700AA
:106A400010C1B3000EFC070040EF2D0060F90700F5
:106A500050F02D005EF9070040F22D005CF90700B0
:106A60000000370085C0BF00684060000004E000FF
:106A7000FCFF320030118000E0D288008560A90060
:106A8000E1D28000A0072000808F5000010032007A
:106A9000F4FF370080F32D004DF9070030C1B3003B
:106AA000F7FB0700D1010700FD0107001E020700E8
:106AB0002E090700E0D28800E1D28000110798007B
:106AC0001E009000E30F50001D0032009E00900059
:106AD000E38F500007003E001E009000E10F5000C1
:106AE000110032009E009000E18F500011003E0026
:106AF0000A0037001E009000E50F5000160032001B
:106B00009E009000E58F5000100039001E0090009C
:106B1000E60F50001300320015003700A0F42D00DE
:106B20002BF907001800370020F52D0028F9070081
:106B30001500370050F62D0025F907001200370028
:106B4000D0F72D0022F907000F00370040F92D0083
:106B50001FF907000C003700F0FA2D001CF90700A0
:106B60000900370080FC2D0019F9070006003700E6
:106B700010FE2D0000F90700E0D2800053FB070053
:106B800010E62D00FCF80700E0FE2D00FAF80700E3
:106B9000080907004DFB070050002E000CF9070004
:106BA00030022E000AF9070010C1B300B4FB070041
:106BB0000000EB00E0D288000000370022C2BF00D6
:106BC000614060000004E000FCFF320030118000F2
:106BD0005EFAB700E1A5210091407800A0C7B3009C
:106BE00080CF500004003A00E0D280000000E800AE
:106BF000E0D28800020037000000EB00E0D28800FD
:106C0000E0D28000E50F500006003200EBFF3700B5
:106C1000B0C0B300CEF8070002003700C0C0B30018
:106C2000CBF807000080FA00000006000200FA001E
:106C3000F0032E00D0F8070058DABF000080FB00F8
:106C4000000F78001E007800E10F50000E003200A7
:106C50001E007800E10F500004003C001E00780088
:106C60000000E0000B003200350037001E00780005
:106C7000E20F50000F0032001E007800E30F5000BA
:106C8000240032002E00370080042E00D0F80700C8
:106C90002D003700A401070010C0B3005A010700FF
:106CA00010C0B30058FAB70050052E00C8F807000E
:106CB0002500370059DABF00E14F50000A003A00C2
:106CC0005ADABF00E14F500002003A002C010700E1
:106CD00001003700450107000040EB0059FAB700FA
:106CE00010062E00A4F807007401070020C0B300AE
:106CF000450107008C01070010C0B30042010700E6
:106D000010C0B30058FAB70060072E00B0F80700B3
:106D10000D0037006901070020C0B3003A010700E9
:106D20008101070010C0B3003701070010C0B30095
:106D300058FAB700F0072E00A5F807000200370048
:106D400080082E00A2F807000080FA00000006006C
:106D50000000FA0059010700A0C0B3002A01070093
:106D6000710107000040EB0058FAB7000080FA00FC
:106D7000000006000400FA00004F780058DABF0057
:106D8000E14F50000200320060092E0090F8070029
:106D9000F0032E0078F807001E80FB001007980013
:106DA0001E009000E10F50000E0032001E00900007
:106DB000E10F500004003C001E0090000000E000C5
:106DC0000B003200240037001E009000E20F50003C
:106DD000160032001E009000E30F50000800320041
:106DE0001D00370080042E0079F807001C003700D2
:106DF000D7FF0700200B2E0075F80700180037009A
:106E00002E01070010C0B300FF0007004601070075
:106E100020C0B300FC00070030C0B30058FAB70030
:106E2000800B2E006AF807000D00370023010700D1
:106E300020C0B300F40007003B01070020C0B300EE
:106E4000F100070020C0B30058FAB700C00C2E00B4
:106E50005FF807000200370010102E005CF80700F2
:106E60000080FA00000006000000FA00C8E2A80056
:106E7000C902A900C922A900C8C2A900CAE2A90082
:106E8000CB02A900CB22A900CAC2A9000080FA0047
:106E9000000006000800FA004047980000010700C3
:106EA00059DABF00E14F500006003A005ADABF003D
:106EB000910007000040EB0059FAB70060122E0065
:106EC0002DF8070057DABF00684060000004E000BA
:106ED0000300320010C0B300004F780002003700FA
:106EE00000C8B300004F78000040EB003047980026
:106EF000450037004E4090001E4060000004E00056
:106F000002003A00B9000700010037009C000700AA
:106F1000CA000700CAC2BF000080FB004700DE00B5
:106F20002047980057DABF00684060000004E00086
:106F3000100032004E4090000080FB000000D100A5
:106F4000404798001E4090000080FB000000D100E8
:106F5000104798002E409000E14F500011003A0079
:106F60001E40900001C8B300014040001047980047
:106F70000C0037004E409000004040004047980011
:106F80001E40900000404000104798002E409000A6
:106F9000E14F500003003A001E4090000040E8001E
:106FA00010479800BE00070058DABF00E24F5000BB
:106FB00012003A003E409000E64F50000F003A00A9
:106FC00010C0B30059FAB7004E4090001E40600058
:106FD0000004E00003003A000040EB005AFAB7005A
:106FE0000200370010C0B3005AFAB7001E409000EC
:106FF0000080FB0030079800090037003E409000F9
:107000000040E800304798003E409000E74F5000B5
:10701000B8FF36001E4090000080FB00300798004B
:107020003E0090000080FA00000006000400FA0014
:107030009B00070059DABF00E14F500006003A00FC
:107040005ADABF002C0007000040EB0059FAB700E5
:1070500060122E00C8F707000040EB0020479800A0
:107060001F00370075000700CAC2BF000080FB0088
:107070004700DE001047980057DABF006840600004
:107080000004E00008003A001E4078000040400084
:10709000004F78001E4090000004E0000C00320019
:1070A0001E4FE8000A0037001E80FB000000D100E0
:1070B000004F78001E4090000004E0000400320001
:1070C0001E40780001C8B30001404000004F780026
:1070D000730007002E4090000040E8002047980011
:1070E0002E409000E74F5000DEFF36001E80FB0070
:1070F0000080FA00000006000400FA002047980013
:107100002E4090000004E00002003A003700070023
:10711000010037001A00070048000700CAC2BF007C
:107120000080FB004700DE00004F78005C00070095
:107130001E80FB000080FA00000006000200FA003A
:107140003E000700CAC2BF000080FB004700DE000F
:10715000004F7800520007001E80FB000080FA00FC
:10716000000006000000FA00CAC2BF000080FB0059
:107170004700DE000080FB000080FA0000000600EF
:107180000000FA0060DABF0061406000614060000A
:1071900000414000912C200091407800D0CFB300F6
:1071A00000C0600002407000C9E2B70060DABF00B2
:1071B0006140600000C0EA00614060006140600022
:1071C00000414000B12C200091407800D0CFB300A6
:1071D00000C0600002407000CBE2B70040C1B300C5
:1071E0003BF707000080FA00000006000000FA00EC
:1071F000CB22A900C922A90040C1B30034F707007F
:107200000080FA00000006000400FA002047980001
:107210000040EB00004F7800030037000700070034
:107220001F0007001E4FE8002E4090009E4F1000E8
:10723000FAFF39000080FA00000006000000FA00A2
:1072400060DABF006140600061416000912C200065
:1072500091407800E0CFB30000C0600002407000B1
:10726000C9E2B70060DABF006140600000C0EA0018
:107270006140600061416000B12C200091407800C5
:10728000E0CFB30000C0600002407000CBE2B70066
:1072900040C6B3000EF707000080FA0000000600A9
:1072A0000000FA00CB02A900C902A90040C6B30041
:1072B00007F707000080FA00000006000000FA004F
:1072C00060DABF0061406000614060004601DD009F
:1072D000812C200091407800F0CBB30000C060000A
