:020000040000fa
:080000000002040000000000f2
:020000040000fa
:100400002f8f2100007f22000001880000000000e3
:100410000a00070011000700000020000000e000b3
:100420000200320000000200000000006e510200d5
:10043000000000000040da000000fe004440a90077
:10044000a05921000000e00003003200000020005d
:10045000a00188004440a8000000060060092500b3
:10046000010020001500370062004000e0804800d5
:10047000910188009001ba0062004000e0804800cd
:10048000910188009002ba0062004000e0804800bc
:100490000002eb006028e10004003a000059eb0084
:1004a0008301e900fdff3e00040037006128e10000
:1004b000010032000082eb00050007009101880076
:1004c0001001ba000200e000e7ff3a00000005005a
:1004d000910188008002780062004000e0804800be
:1004e0003559ba008301e900080032002559ba00e5
:1004f0008301e900050032000400e000f4ff32004f
:1005000015d9ba008301e900f1ff3a0000000600a6
:10051000b01e040000000000c01e04000000000027
:10052000d41e040000000000d21f040000000000e0
:1005300040200400000000009e1e04000000000097
:100540005e200400000000006e2004000000000097
:10055000b2200400000000001e2104000000000082
:100560003c210400000000007a220400000000008a
:10057000dc220400000000004e2304000000000004
:100580007023040000000000521f0400000000005f
:10059000d023040000000000ec2304000000000051
:1005a0006022b800060220000000d0008180d20046
:1005b0000482d2008582d2000000a0000202520014
:1005c00083825a00030031000202420083824a0003
:1005d0000000a1000603e900f3ff3a000000060056
:020000040000fa
:020000040001f9
:0457f800dff90000d5
:020000040000fa
:020000040001f9
:0457fc007f3f0000eb
:020000040000fa
:100008003c5200003c5200003c5200003c520000b0
:100018003c5200003c5200003c5200003c520000a0
:100028003c5200003c5200003c5200003c52000090
:100038003c5200003c5200003c5200003c52000080
:020000040000fa
:020000040000fa
:1005e000486900005a000000312d00005749000002
:1005f0005245000000550000415200005400000028
:100600004932000043000000535000004900000040
:100610004a540000414700000052000041570000ca
:1006200032570000495200004500000052410000ce
:10063000573300005749000052450000004d0000ac
:10064000454e000055530000003f000020480000c8
:10065000656c00007000000042200000546500003e
:10066000726d0000696e0000616c00002073000074
:100670007065000065640000004f00002044000029
:100680006174000061200000646900007370000064
:100690006c61000079200000666f0000726d000040
:1006a00061740000004600002066000072650000d2
:1006b00071750000656e0000637900002063000022
:1006c0006f7500006e740000206f00006e20000047
:1006d0004155000058000000432000004155000033
:1006e00058200000706900006e2000006173000057
:1006f00073690000676e00006d6500006e74000095
:10070000004d00002042000075730000206d0000c5
:100710006f640000650000004c200000426900008a
:10072000742000006f720000646500007200000019
:100730005020000053440000412f000053430000ac
:100740004c200000707500006c6c0000757000009b
:10075000207200006573000069730000746f000070
:100760007273000000530000594e00005441000015
:1007700058000000412f000061200000417500007a
:10078000782000006f750000747000007574000020
:10079000207400006f670000676c00006520000097
:1007a000482f00004c000000402000004175000070
:1007b00078200000696e000070750000742f000042
:1007c00068690000676800002d7a00002c20000096
:1007d0007265000061640000005b000020280000da
:1007e0007b29000020730000746100007274000017
:1007f0002077000072690000746500002028000066
:1008000077690000746800002072000065610000d4
:1008100064290000005d0000206f000072200000cd
:100820007d200000737400006f70000020770000ce
:10083000726900007465000000520000206f000023
:100840007220000072200000526500006164000008
:10085000206200007974000065200000287200000a
:100860003a3100002e2e00002e32000035350000f7
:10087000206600006f72000020620000756c0000ae
:100880006b200000726500006164000073290000a5
:100890000030000062200000577200006974000000
:1008a00065200000424900004e20000062790000ef
:1008b0007465000000300000682000006f720000c6
:1008c000203000007820000057720000697400009a
:1008d00065200000484500005820000062790000b3
:1008e00074650000003000002d3200003535000036
:1008f0002057000072690000746500002044000069
:10090000454300002062000079740000650000008b
:100910002c200000566100006c750000652000006e
:10092000646500006c6900006d690000746500007a
:1009300072200000286100006c7300006f2000002e
:10094000737000006163000065290000002600004c
:10095000203100007553000020640000656c000029
:100960006179000020280000263a0000312e0000a6
:100970002e2e00003235000035200000666f00008a
:10098000722000006d7500006c740000697000003a
:100990006c65000020640000656c00006179000057
:1009a00073290000002800002329000020520000c5
:1009b000756e0000206d000061630000726f000022
:1009c0002c2000002830000029200000666f000065
:1009d000722000006d610000637200006f20000053
:1009e0006c69000073740000005200004157000061
:1009f0002042000055530000204f000050450000e9
:100a000052410000544900004f4e000053000000c6
:100a10005e200000436c00006f6300006b2000004c
:100a200074690000636b0000202800005e3a00003b
:100a3000312e00002e2e000032350000352000003f
:100a4000666f0000722000006d7500006c7400007d
:100a5000697000006c65000020740000696300008c
:100a60006b730000290000002f5c00002043000091
:100a70006c6f0000636b0000204800002f4c0000ea
:100a8000002d00002f5f0000204400006174000072
:100a900061200000482f00004c00000021200000d1
:100aa000526500006164000020620000697400006b
:100ab000002e00002044000061740000612000004e
:100ac000696e000070750000742c00002072000038
:100ad0006561000064200000286e00006f200000a7
:100ae000636c00006f6300006b290000002e0000a3
:100af000200000004d4f0000444500003e00000073
:100b000039300000302000004d4f00004445000007
:100b1000205300004554000000200000312e00004a
:100b2000204300006c6f0000636b00002070000029
:100b30006f6c000061720000697400007920000091
:100b40006e6f0000726d0000616c00000d0a000005
:100b5000203200002e200000436c00006f63000074
:100b60006b200000706f00006c6100007269000073
:100b700074790000206900006e7600006572000044
:100b8000736500000d0a0000204d00004f44000076
:100b9000453e0000003900003036000020430000d0
:100ba0004c4f0000434b0000205000004f4c000011
:100bb0004152000049540000592000004e4f0000ef
:100bc000524d0000414c0000003900003037000059
:100bd000204300004c4f0000434b00002050000019
:100be0004f4c0000415200004954000059200000c1
:100bf0005245000056450000525300004544000095
:100c000000200000312e000020480000696700002d
:100c1000682d00005a2000006f75000074700000fd
:100c20007574000073200000284800003d69000032
:100c30006e700000757400002c2000004c3d000018
:100c4000474e0000442900000d0a00002032000039
:100c50002e2000004e6f0000726d0000616c0000dd
:100c6000206f000075740000707500007473000040
:100c700020280000483d000056630000632c00005f
:100c8000204c00003d4700004e440000290d0000ac
:100c90000a2000004d4f0000444500003e000000c7
:100ca00039780000782000004f55000054500000b3
:100cb000555400002048000049470000485a0000f1
:100cc0000039000078780000204f000055540000e3
:100cd00050550000542000004e4f0000524d0000bf
:100ce000414c000000200000312e00002048000090
:100cf000455800000d0a0000203200002e200000a0
:100d000044450000430d00000a200000332e00007f
:100d100020420000494e00000d0a0000203400006f
:100d20002e20000052410000570d00000a20000054
:100d30004f5500005450000055540000204d000055
:100d40004f440000453e00000039000030330000f1
:100d5000204f000055540000505500005420000062
:100d60004d4f000044450000205300004554000052
:100d700000200000312e00002053000044410000fc
:100d80002f530000434c000020500000756c000001
:100d90006c750000702000006f660000660d00009a
:100da0000a200000322e00002053000044410000c1
:100db0002f530000434c000020500000756c0000d1
:100dc0006c750000702000006f6e00000d0a0000be
:100dd000204d00004f440000453e00000020000070
:100de000312e0000204d000053420000206600001c
:100df00069720000737400000d0a000020320000c8
:100e00002e2000004c5300004220000066690000c4
:100e100072730000740d00000a2000004d4f0000a6
:100e2000444500003e0000003978000078200000b2
:100e30004d530000423a0000204d00004f53000087
:100e400054200000534900004720000042490000a0
:100e50005420000046490000525300005400000096
:100e600039780000782000004c530000423a00001e
:100e7000204c000045410000535400002053000066
:100e8000494700002042000049540000204600006d
:100e90004952000053540000000d00000a000000f9
:100ea0004155000058200000504900004e0d000040
:100eb0000a200000312e000020410000555800009b
:100ec000202800004445000046410000554c000029
:100ed000542900000d0a0000203200002e200000de
:100ee000435300002f5400004d5300000d0a000032
:100ef000204d00004f440000453e00000039000036
:100f00007878000020410000555800003a20000089
:100f10004445000046410000554c000054200000ac
:100f20005345000054540000494e00004720000083
:100f3000284100005558000020500000494e000094
:100f40002900000039780000782000004155000099
:100f5000583a0000204300004f4e00005452000059
:100f60004f4c000053200000435300002f5400005a
:100f70004d53000020500000494e00000053000077
:100f80006574000020730000657200006961000054
:100f90006c200000706f000072740000207300006d
:100fa00070650000656400003a20000028620000bf
:100fb00070730000290d00000a200000312e00008f
:100fc00020330000303000000d0a00002032000005
:100fd0002e20000031320000303000000d0a0000e9
:100fe000203300002e20000032340000303000009a
:100ff0000d0a0000203400002e20000034380000cc
:10100000303000000d0a0000203500002e200000c6
:1010100039360000303000000d0a00002036000094
:101020002e2000003139000032300000300d000069
:101030000a200000372e0000203300003834000062
:10104000303000000d0a0000203800002e20000083
:101050003537000036300000300d00000a20000057
:10106000392e000020310000313500003230000000
:10107000300d00000a2000005350000045450000dc
:10108000443e000000410000646a000075730000e7
:1010900074200000796f0000757200002074000059
:1010a000657200006d6900006e6100006c20000038
:1010b000616e000064200000707200006573000023
:1010c0007320000073700000616300006520000061
:1010d000746f0000206300006f6e000074690000f0
:1010e0006e750000650d00000a00000030780000f9
:1010f000782000004e4f0000204d00004f440000bb
:101100004520000053450000542c0000204d0000f5
:10111000204600004f520000204d00004f440000c8
:10112000450d00000a00000039780000782000001a
:10113000444500004c4100005920000000750000ab
:10114000530d00000a000000303000003020000085
:10115000535900004e540000415800002045000043
:10116000525200004f5200002c2000005452000048
:10117000592000003f0d00000a000000363000003a
:10118000322000004a540000414700002052000075
:101190004541000044590000003600003130000095
:1011a000204a000054410000472000005245000042
:1011b0004144000059200000544f00002057000017
:1011c0005249000054450000204900005200000030
:1011d00036310000312000004a5400004147000031
:1011e00020520000454100004459000020540000f6
:1011f0004f20000052450000414400002f570000de
:1012000052490000544500002044000052000000f4
:1012100036340000302000004a54000041470000ee
:1012200020490000444c0000450000003633000017
:10123000302000004a5400004147000020520000c6
:1012400045410000443a0000200000000d0a000063
:101250000036000033310000204a000054410000f5
:1012600047200000425500004c4b00002052000077
:1012700045410000442c00002000000020420000f6
:1012800059540000455300003a0d00000a000000c8
:101290002000000036320000302000004a540000d8
:1012a000414700002057000052490000544500000b
:1012b0003a2000000036000078780000204a000044
:1012c0005441000047200000524500004144000006
:1012d00020420000495400003a200000003600007f
:1012e00078780000204a00005441000047200000a8
:1012f0004441000054410000204900004e500000cd
:10130000555400002c2000005354000041540000ac
:10131000453a0000200000003678000078200000e8
:101320004a54000041470000200000002043000014
:101330004c4f0000434b0000205400004943000084
:101340004b5300000d0a00000036000078780000c2
:10135000204a00005441000047200000434c000098
:101360004f4300004b2c00002000000036780000a6
:10137000782000004a54000041470000204400004b
:1013800041540000412000004f550000545000001f
:10139000555400002c20000000200000302e0000da
:1013a0004d610000637200006f2000006d65000059
:1013b0006e7500000d0a0000203100002e52000062
:1013c0006573000065740000206300006861000020
:1013d000696e00000d0a0000203200002e5000004f
:1013e000726f000062650000206300006861000009
:1013f000696e00000d0a0000203300002e58000026
:101400005356000046200000706c00006179000017
:10141000657200000d0a0000007800007878000076
:10142000204a000054410000475300004d3a00009c
:101430002052000045530000455400000078000091
:1014400078780000204a0000544100004720000046
:10145000494e00004954000020430000484100006c
:10146000494e00000078000078780000204a000013
:10147000544100004720000043480000414900005b
:101480004e20000052450000504f00005254000012
:101490003a00000020440000455600004943000087
:1014a00045280000532900000d0a00000023000019
:1014b000002000003a20000000360000787800008c
:1014c000204a00005441000047200000585300000b
:1014d00056460000205000004c41000059450000d5
:1014e000520000007878000078200000584f00007b
:1014f0004e2f0000584f00004646000020460000d6
:101500004c4f000057200000434f00004e54000095
:10151000524f00004c200000524500005155000081
:10152000495200004544000000780000787800002f
:10153000205000005245000053530000207a000064
:10154000205400004f200000434f00004e54000084
:10155000494e0000554500000078000078780000f2
:101560002042000045470000494e0000205800007e
:101570005356000046200000555000004c4f00001c
:101580004144000000360000783000002058000080
:1015900053560000462000004f4b0000003600006c
:1015a000783100002058000053560000462000000b
:1015b000554e00004b4e00004f5700004e200000db
:1015c00045520000524f00005200000036780000e3
:1015d000322000005853000056460000204500000d
:1015e000525200004f52000020540000444f0000af
:1015f000204d0000495300004d41000054430000bd
:1016000048000000367800003320000058530000e6
:101610005646000020450000525200004f52000084
:10162000204d0000415800002052000045540000a9
:101630005249000045530000003600007834000095
:10164000205800005356000046200000455200007c
:10165000524f000052200000494c00004c45000051
:10166000474100004c200000434f00004d4d00005a
:10167000414e000044000000367800003520000094
:10168000585300005646000020450000525200000a
:101690004f520000204900004c4c0000454700001c
:1016a000414c00002053000054410000544500000c
:1016b0000036000078360000205800005356000025
:1016c0004620000045520000524f0000522000000a
:1016d0004441000054410000204f000056450000e6
:1016e000524600004c4f00005700000036780000c2
:1016f00037200000585300005646000020450000e7
:10170000525200004f5200003a200000002000001a
:10171000594f0000555200002050000043200000a7
:101720004452000049420000424c00004544000081
:10173000204d000041580000200000002042000021
:101740005954000045530000204100004654000059
:1017500045520000205800004f460000462000007f
:101760002854000048410000542700005320000086
:101770004f4b000029000000367800007820000060
:101780005052000045530000532000007a20000012
:1017900035200000544900004d4500005320000052
:1017a000544f0000204300004f4e000054490000f9
:1017b0004e550000450000007878000078200000b9
:1017c0004e4f000020530000554300004820000009
:1017d0004d410000435200004f200000494e0000e0
:1017e0002054000048490000532000004d4f0000e5
:1017f0004445000000360000373000002043000060
:101800004f4d00004d4100004e440000204e0000ae
:101810004f540000204900004d5000004c4500008e
:101820004d4500004e540000454400002049000092
:101830004e2000005448000049530000204d000095
:101840004f44000045000000787800007820000038
:101850004a54000041470000534d00003a20000068
:10186000004100004c520000454100004459000076
:1018700020490000444c0000450000005245000093
:1018800053450000542d00003e490000444c000028
:101890004500000028570000524f0000544500004a
:1018a00020440000454c0000415900004544000020
:1018b0002042000049540000292000000049000097
:1018c000522d00003e490000444c0000450000003d
:1018d000445200002d3e0000494400004c450000e9
:1018e000005500004e4b00004e4f0000574e0000c8
:1018f00020530000544100005445000000780000cf
:1019000078780000204a000054410000475300004e
:101910004d3a000020570000415200004e4900009f
:101920004e470000204f000055540000204f00009b
:1019300046200000535900004e43000000520000b2
:10194000455300004554000000490000444c00008d
:10195000452d00003e44000061740000612000003d
:101960005265000067690000737400006572000032
:1019700000490000444c0000452d00003e49000095
:101980006e730000747200007563000074690000db
:101990006f6e000020520000656700006973000050
:1019a000746500007220000028440000454c0000cf
:1019b0004159000045440000204f00004e45000002
:1019c0002042000049540000204600004f52000011
:1019d000205400004d53000029000000554e000027
:1019e0004b4e00004f5700004e20000053540000a3
:1019f00041540000452c00002054000052590000c2
:101a000020410000205200004553000045540000d2
:101a1000204d000041430000524f000020280000ec
:101a2000312900000078000078780000204e000086
:101a30004f540000453a000020570000524f00006c
:101a40005445000020440000454c0000415900006e
:101a50004544000020420000495400000d0a0000e7
:101a6000000000003430000032200000524100002d
:101a70005732000057490000524500002052000034
:101a800045410000445900002c2000005020000077
:101a9000464f000052200000505500004c4c000002
:101aa0005550000053000000343100003020000089
:101ab00052410000573200005749000052450000d3
:101ac0002053000054410000525400002043000005
:101ad0004f4e000044490000544900004f4e0000a2
:101ae000202800005c2d00002f5f00005c29000012
:101af0000034000034300000205200004157000044
:101b000032570000495200004520000053540000a5
:101b10004f500000204300004f4e00004449000099
:101b2000544900004f4e0000202800005f2f0000a5
:101b30002d5c00002900000034330000302000003c
:101b40005241000057320000574900005245000042
:101b50002052000045410000443a000020000000ef
:101b60000d0a000000340000333100002052000054
:101b70004157000032570000495200004520000044
:101b8000425500004c4b000020520000454100002f
:101b9000442c0000200000002042000059540000a6
:101ba000455300003a0d00000a000000200000002c
:101bb0003432000030200000524100005732000053
:101bc00057490000524500002057000052490000cc
:101bd000544500003a2000000034000078780000ee
:101be00020520000415700003257000049520000c7
:101bf0004520000052450000414400002042000002
:101c0000495400003a200000002000002a6e000025
:101c10006f770000206900006e700000757400008e
:101c200020640000697200006563000074690000b0
:101c30006f6e00000d0a000000340000787800008c
:101c40002052000041570000325700004952000066
:101c5000452000004441000054410000204900009c
:101c60004e500000555400002c200000535400003a
:101c700041540000453a0000200000003478000084
:101c80007820000052410000573200005749000000
:101c90005245000020000000204300004c4f00008f
:101ca000434b000020540000494300004b53000008
:101cb0000d0a000000340000787800002052000077
:101cc00041570000325700004952000045200000f3
:101cd000434c00004f4300004b2c0000200000004c
:101ce0003478000078200000524100005732000094
:101cf00057490000524500002044000041540000b4
:101d0000412000004f550000545000005554000081
:101d10002c200000002000002a6e00006f770000d9
:101d2000206f0000757400007075000074200000c2
:101d3000646900007265000063740000696f000050
:101d40006e2000000d0a0000007800007878000086
:101d5000204e00004f2000004d4100004352000083
:101d60004f20000000200000494e000020540000d9
:101d700048490000532000004d4f0000444500003a
:101d80002c2000002830000029200000464f0000d1
:101d9000522000004d410000435200004f5300000c
:101da0000d0a00000035000037300000204300001d
:101db0004f4d00004d4100004e440000204e0000f9
:101dc0004f540000204900004d5000004c450000d9
:101dd0004d4500004e5400004544000020490000dd
:101de0004e2000005448000049530000204d0000e0
:101df0004f440000450d00000a000000353300008c
:101e000030200000524100005733000057490000c5
:101e1000524500002052000045410000443a0000b5
:101e2000200000000d0a00000035000033310000e2
:101e30002052000041570000335700004952000073
:101e400045200000425500004c4b0000205200008d
:101e500045410000442c000020000000204200000a
:101e600059540000455300003a0d00000a000000dc
:101e700020000000353200003020000052410000f8
:101e8000573300005749000052450000205700001a
:101e900052490000544500003a2000000020000094
:101ea00052450000414400003a2000000035000087
:101eb000787800002052000041570000335700009e
:101ec00049520000452000005245000041440000f6
:101ed00020420000495400003a2000000035000074
:101ee000787800002052000041570000335700006e
:101ef00049520000452000004441000054410000c8
:101f0000204900004e500000555400002c200000d5
:101f10005354000041540000453a000020000000e6
:101f2000357800007820000052410000573300004f
:101f300057490000524500002000000020430000e7
:101f40004c4f0000434b0000205400004943000068
:101f50004b5300000d0a00000035000078780000a7
:101f60002052000041570000335700004952000042
:101f700045200000434c00004f4300004b2c000064
:101f80002031000000350000787800002052000069
:101f9000415700003357000049520000452000001f
:101fa000434c00004f4300004b2c00002030000049
:101fb00000350000787800002052000041570000f2
:101fc0003357000049520000452000004441000002
:101fd00054410000204f00005554000050550000af
:101fe000542c0000203100000035000078780000fb
:101ff00020520000415700003357000049520000b2
:10200000452000004441000054410000204f0000e2
:102010005554000050550000542c000020300000a2
:10202000003500003032000020520000415700000f
:102030003257000049520000452000005245000080
:1020400041440000590000003531000030200000fc
:10205000524100005733000057490000524500002c
:102060002043000053200000454e00004142000084
:102070004c450000440000003534000030200000d2
:1020800052410000573300005749000052450000fc
:102090002043000053200000444900005341000049
:1020a000424c0000454400000078000078780000b1
:1020b000204e00004f200000535500004348000010
:1020c000204d000041430000524f00002049000015
:1020d0004e2000005448000049530000204d0000ed
:1020e0004f440000450d00000a0000003537000095
:1020f00030200000434f00004d4d0000414e0000d5
:10210000442000004e4f000054200000494d0000c4
:10211000504c0000454d0000454e00005445000065
:1021200044200000494e00002054000048490000af
:10213000532000004d4f0000444500000d0a0000f0
:102140000000000053650000742000007370000060
:1021500065650000643a00000d0a000020310000af
:102160002e20000031300000304b0000487a000083
:102170000d0a0000203200002e2000003430000044
:10218000304b0000487a00000d0a000020330000a8
:102190002e200000314d0000487a00000d0a00009a
:1021a0002053000050450000454400003e00000060
:1021b000783000003220000048570000493200000b
:1021c0004320000052450000414400005900000037
:1021d00078310000302000004857000049320000ec
:1021e00043200000535400004152000054000000fe
:1021f00078340000302000004857000049320000c9
:1022000043200000535400004f50000000780000ad
:1022100033300000204800005749000032430000de
:102220002052000045410000443a00002000000018
:102230000d0a00000031000033310000205300007f
:102240005049000020420000554c00004b20000087
:1022500052450000414400002c20000000200000f6
:102260004259000054450000533a00000d0a000096
:10227000007800003230000020480000574900007c
:10228000324300002057000052490000544500002e
:102290003a20000000200000474f000054200000ba
:1022a000414300004b3a0000205900004553000014
:1022b00000200000474f0000542000004143000070
:1022c0004b3a0000204e00004f000000203000007c
:1022d0002e4d000061630000726f0000206d000051
:1022e000656e0000750d00000a200000312e000010
:1022f000376200006974000020610000646400001f
:1023000072650000737300002073000065610000b7
:1023100072630000680d00000a200000322e0000e9
:102320003130000062690000742000006164000028
:102330006472000065730000732000007365000084
:1023400061720000636800000d0a00000078000060
:10235000787800002053000065610000726300007f
:10236000686900006e6700002037000062690000a5
:102370007420000049320000432000006164000026
:102380006472000065730000737300002073000026
:1023900070610000636500002e2000000d0a00003f
:1023a00020200000204600006f7500006e640000d1
:1023b000206400006576000069630000657300001a
:1023c00020610000743a0000002000000078000046
:1023d00078780000204e00004f2000005355000088
:1023e00043480000204d000041430000524f0000d0
:1023f000204900004e2000005448000049530000ce
:10240000204d00004f440000450d00000a00000070
:1024100037300000204300004f4d00004d410000c8
:102420004e440000204e00004f54000020490000a0
:102430004d5000004c4500004d4500004e5400003a
:1024400045440000204900004e2000005448000090
:1024500049530000204d00004f440000450d00008e
:102460000a00000032330000302000004932000032
:102470004320000052450000414400003a20000083
:10248000000d00000a00000032330000312000007f
:102490004932000043200000425500004c4b000030
:1024a0002052000045410000442c000020000000a4
:1024b0002042000059540000455300003a0d00002e
:1024c0000a0000002000000032320000302000002e
:1024d00049320000432000005752000049540000d8
:1024e000453a000020000000204700004f54000043
:1024f00020410000434b00003a2000004e4f0000f6
:1025000000200000474f000054200000414300001d
:102510004b3a0000205900004553000000320000f3
:1025200031300000204900003243000020530000f9
:102530005441000052540000204300004f4e000060
:1025400044490000544900004f4e00000d0a0000ad
:102550000032000034300000204900003243000007
:1025600020530000544f000050200000434f000053
:102570004e44000049540000494f00004e0d000039
:102580000a00000032300000322000004932000012
:10259000432000005245000041440000592c000037
:1025a00020500000204600004f5200002050000044
:1025b000554c00004c550000505300000d0a00001f
:1025c00000200000302e00004d610000637200000a
:1025d0006f2000006d6500006e7500000d0a0000a0
:1025e000203100002e3700006269000074200000d6
:1025f00061640000647200006573000073200000d5
:102600007365000061720000636800000d0a00003d
:10261000203200002e31000030620000697400009a
:1026200020610000646400007265000073730000a4
:10263000207300006561000072630000680d0000f7
:102640000a00000078780000782000005365000040
:102650006172000063680000696e0000672000007e
:102660003762000069740000204900003243000016
:102670002061000064640000726500007373000054
:10268000732000007370000061630000652e00007d
:10269000200d00000a20000020200000466f0000ee
:1026a000756e00006420000064650000766900001b
:1026b0006365000073200000617400003a000000b0
:1026c00078780000782000004e4f00002053000072
:1026d00055430000482000004d41000043520000d7
:1026e0004f200000494e00002054000048490000df
:1026f000532000004d4f0000444500000d0a00002b
:102700000078000037300000204300004f4d0000eb
:102710004d4100004e440000204e00004f54000088
:10272000204900004d5000004c4500004d45000080
:102730004e54000045440000204900004e20000097
:102740005448000049530000204d00004f44000051
:10275000450d00000a000000333300003020000067
:102760005541000052540000205200004541000035
:10277000443a0000200000000d0a00000033000071
:102780003331000020550000415200005420000069
:10279000524500004144000020460000414900002d
:1027a0004c3a0000204e00004f2000004441000041
:1027b000544100000033000032300000205500007a
:1027c00041520000542000005752000049540000bc
:1027d000453a0000200000003331000030200000a6
:1027e0005541000052540000204f000050450000a9
:1027f0004e2c0000207d0000205400004f200000df
:10280000434c00004f5300004500000033340000eb
:1028100030200000554100005254000020430000c9
:102820004c4f000053450000440000005365000079
:10283000742000007370000065650000643a0000b9
:102840002028000062700000732900000d0a0000bb
:10285000203100002e20000033300000300d000039
:102860000a200000322e000020310000323000002b
:10287000300d00000a200000332e0000203200003e
:1028800034300000300d00000a200000342e00001b
:102890002034000038300000300d00000a20000015
:1028a000352e00002039000036300000300d0000c9
:1028b0000a200000362e00002031000039320000ce
:1028c000303000000d0a0000203700002e200000ec
:1028d0003338000034300000300d00000a200000c2
:1028e000382e000020350000373600003030000060
:1028f0000d0a0000203900002e20000031310000b8
:1029000035320000303000000d0a00002053000076
:1029100050450000454400003e00000033300000f8
:1029200032200000554100005254000020520000a7
:10293000454100004459000000780000787800000c
:10294000204e00004f200000535500004348000077
:10295000204d000041430000524f0000204900007c
:102960004e2000005448000049530000204d000054
:102970004f440000450d00000a0000003730000001
:10298000204300004f4d00004d4100004e44000028
:10299000204e00004f540000204900004d50000020
:1029a0004c4500004d4500004e54000045440000d9
:1029b000204900004e200000544800004953000008
:1029c000204d00004f440000450d00000a000000ab
:1029d000203000002e4d000061630000726f000087
:1029e000206d0000656e0000750d00000a200000db
:1029f000312e0000495300004f37000038310000ed
:102a0000332d00003320000041540000520d00001f
:102a10000a200000322e0000495300004f3700000a
:102a200038310000332d00003320000070610000b9
:102a300072730000652000006f6e00006c7900006a
:102a40000d0a000000490000534f0000203700002d
:102a500038310000332d00003320000041540000c5
:102a6000520d00000a0000003478000078200000b9
:102a70005241000057320000574900005245000003
:102a8000203000007830000031200000434c00006e
:102a90004f4300004b20000054490000434b00000e
:102aa000530d00000a000000495300004f200000b1
:102ab00037380000313300002d3300002072000051
:102ac000657000006c7900003a20000000200000d2
:102ad000000d00000a000000507200006f7400003a
:102ae0006f6300006f6c00003a200000007300006c
:102af00065720000696100006c0000003320000076
:102b00007769000072650000003200002077000045
:102b10006972000065000000524600005500000088
:102b2000756e00006b6e00006f7700006e00000095
:102b3000526500006164000020740000797000009c
:102b4000653a000020000000746f0000206500005e
:102b50006e64000000760000617200006961000090
:102b6000626c0000652000006c6500006e6700006c
:102b700074680000004400006174000061200000df
:102b8000756e000069740000733a000020000000b8
:102b90006e6f0000206900006e6400006963000031
:102ba00061740000696f00006e0000004461000065
:102bb00074610000207500006e6900007420000040
:102bc0006c6500006e670000746800003a20000029
:102bd0000020000062690000747300000d0a00000c
:102be0000000000031310000302000005350000090
:102bf0004920000043530000204500004e410000e2
:102c0000424c000045440000003100003430000018
:102c100020430000532000004449000053410000bd
:102c2000424c0000454400000031000033300000f9
:102c30002053000050490000205200004541000090
:102c4000443a0000200000000d0a0000003100009e
:102c500033310000205300005049000020420000a2
:102c6000554c00004b20000052450000414400003c
:102c70002c200000002000004259000054450000b4
:102c8000533a00000d0a000000310000323000000d
:102c90002053000050490000205700005249000016
:102ca000544500003a20000000200000524500007a
:102cb000414400003a200000005300006574000009
:102cc0002073000070650000656400003a0d00008c
:102cd0000a200000312e000020330000304b00009d
:102ce000487a00000d0a0000203200002e2000006b
:102cf00031320000354b0000487a00000d0a000018
:102d0000203300002e20000032350000304b000040
:102d1000487a00000d0a0000203400002e20000038
:102d2000314d0000487a00000d0a000020530000d9
:102d300050450000454400003e00000031300000d6
:102d4000322000005350000049200000524500008e
:102d5000414400005900000078780000782000000d
:102d60004e4f000020530000554300004820000053
:102d70004d410000435200004f200000494e00002a
:102d80002054000048490000532000004d4f00002f
:102d9000444500000d0a000000370000302000000c
:102da000434f00004d4d0000414e00004420000004
:102db0004e4f000054200000494d0000504c0000d0
:102dc000454d0000454e00005445000044200000e1
:102dd000494e0000205400004849000053200000e4
:102de0004d4f0000444500000d0a000000000000a7
:102df0003037000030200000434f00004d4d0000f0
:102e0000414e0000442000004e4f000054200000be
:102e1000494d0000504c0000454d0000454e00005b
:102e20005445000044200000494e0000205400009a
:102e300048490000532000004d4f00004445000069
:102e40000d0a00000039000035310000204100006b
:102e50005558000020480000494700004800000085
:102e60003935000030200000415500005820000096
:102e70004c4f0000570000003935000032200000a0
:102e80004155000058200000484900004748000014
:102e9000204900004d5000002c2000005245000049
:102ea000414400003a200000000d00000a0000002c
:102eb000323000003520000053440000412f000054
:102ec000534300004c200000505500004c4c0000c3
:102ed00055500000204f00004e000000323000002e
:102ee0003420000053440000412f000053430000f1
:102ef0004c200000505500004c4c00005550000084
:102f0000204f00004646000000390000787800009d
:102f1000204600005245000051200000434f0000b1
:102f2000554e0000542000004f4e0000204100008c
:102f3000555800003a200000004800007a000000c8
:102f400020280000006b0000487a000029000000e3
:102f50004d4800007a2900000030000062000000a7
:102f600030310000323300003435000036370000c5
:102f7000383900004142000043440000454600004b
:102f80003078000000300000303100002053000095
:102f9000594e0000544100005820000045520000e6
:102fa000524f0000522c00002054000052590000e3
:102fb0002041000047410000494e00003e00000053
:102fc0004255000046460000455200004f560000a2
:102fd00045520000525500004e20000045520000ae
:102fe000524f0000522c00002044000041540000c9
:102ff00041200000544f00004f20000046410000d7
:103000005354000021210000210d00000a0000009f
:103010004255000046460000455200002045000091
:10302000525200004f5200002c2000004953000073
:10303000205800004f4e00002f5800004f4600005f
:1030400046200000464c00004f570000204300007f
:103050004f4e0000545200004f4c0000204500002d
:103060004e410000424c0000454400003f0d00006e
:103070000a0000000d0a000000300000303000009f
:1030800020530000594e0000544100005820000019
:1030900045520000524f0000522c00002054000006
:1030a00052590000203f00000d0a000000300000cf
:1030b0003939000020540000455200004d490000fd
:1030c0004e4100004c2000004255000046460000e2
:1030d00045520000204f00005645000052460000b7
:1030e0004c4f0000572c00002054000052590000a3
:1030f000205300004d4100004c4c000045520000a0
:1031000020530000454700004d4500004e5400008c
:043110005300000068
:020000040000fa
:103114000200fa00000f78009e0078000040eb00e7
:10312400804878009e0078000040eb0090409800b2
:103134001e0178006000b800100198002101980079
:103144009e0078000000eb00b00098009e0078001c
:103154000040eb00b04898009e0078000040eb006f
:10316400804898009e00780010c0b30090489800f2
:103174009e00780010c0b300a04898001e0178009b
:103184006000b80000099800110998009e007800ba
:103194000000eb00a00898001e0178006000b80051
:1031a40060019800710198000000eb000080fa00b3
:1031b400000006000200fa00000f78000080fa0008
:1031c400000006000800fa00008fbe007200200014
:1031d400030020003e004100ae8049002007980013
:1031e400310798002e009000be009000e00f5000c0
:1031f400e08f580006003d002e019000be019000b3
:1032040067014100e08149002207980033079800d4
:103214002e019000be0190004d1add004310de0027
:1032240000007200c398de000080fa00000006006f
:103234000200fa00000f78009e00780010002000c1
:10324400261b07008000eb000000eb00231b070097
:10325400110020000000eb00201b07000080fa0092
:10326400000006000c00fa0020079800614798004f
:103274000000eb00000f78006e4090000004e000b6
:1032840015003a0010002000e9ff07000000eb00e1
:1032940010079800090037008000eb000000eb00e5
:1032a4000e1b0700110020000000eb000b1b0700a1
:1032b4001e0090000000e800100798001e00900017
:1032c400e40f5000f4ff3400ae0090000040eb0027
:1032d40080487800080137002e0090009040780064
:1032e4006e40900080cf5000110032006e4090007c
:1032f400e74f500004003a002e0090001040780080
:10330400e64f500007003a006e409000ee4f500028
:1033140007003a002e00900010407800ed4f500056
:103324000300320050002000000f7800f200370044
:103334002e009000904078006e40900080cf5000a6
:10334400e8003a006e409000e64f500006003a0054
:1033540010002000b6ff0700ae00900070c0b3005c
:1033640080487800df0037006e409000ed4f500039
:10337400dc003a0010002000adff0700ae00900012
:10338400e0c0b30080487800d60037002e009000db
:10339400104078000080fb006101b90042079800ea
:1033a40053079800f0002000010020004e01900017
:1033b400de019000800f5100818f5900c4003e004f
:1033c4004e009000de009000006001000f00370006
:1033d4001400370019003700270037003500370084
:1033e4003a003700480037004d0037005b003700d3
:1033f400690037006e0037007c0037008100370019
:103404008f00370094003700a20037000000eb0063
:1034140087ff0700ae00900010c0b300804878001a
:10342400b00037001000200081ff0700ae009000bc
:1034340020c0b30080487800aa0037006e40900096
:10344400e84f5000060036001000200078ff070007
:10345400ae00900090c0b30080487800a10037000f
:103464000000eb0072ff0700ae00900030c0b30014
:10347400804878009b0037006e409000e44f500075
:1034840006003a000000eb0069ff0700ae00900060
:1034940040c0b3008048780092003700100020003c
:1034a40063ff0700ae00900050c0b300804878006e
:1034b4008c003700100020005dff0700ae00900074
:1034c40050c0b30080487800860037006e409000fa
:1034d400e64f500006003a000000eb0054ff0700de
:1034e400ae00900060c0b300804878007d003700d3
:1034f400100020004eff0700ae00900080c0b30013
:1035040080487800770037001000200048ff07004b
:10351400ae00900070c0b30080487800710037009e
:103524006e409000e44f500006003a000000eb00ab
:103534003fff0700ae00900040c0b3008048780011
:10354400680037001000200039ff0700ae0090002b
:1035540080c0b30080487800620037006e4090005d
:10356400e14f500006003a000000eb0030ff070076
:10357400ae00900010c0b3008048780059003700b6
:10358400100020002aff0700ae00900020c0b30006
:1035940080487800530037000000eb0024ff070048
:1035a400ae009000a0c0b300804878004d00370002
:1035b4006e409000eb4f500006003a000000eb0014
:1035c4001bff0700ae009000b0c0b3008048780035
:1035d400440037001000200015ff0700ae009000e3
:1035e400c0c0b300804878003e00370010002000bf
:1035f4000fff0700ae009000c0c0b3008048780001
:10360400380037006e409000ed4f500006003a003d
:103614000000eb0006ff0700ae009000d0c0b3002e
:10362400804878002f0037001000200000ff0700ba
:10363400ae009000f0c0b300804878002900370045
:1036440010002000fafe0700ae009000e0c0b300b6
:1036540080487800230037006e409000eb4f500004
:1036640006003a000000eb00f1fe0700ae009000f7
:10367400b0c0b300804878001a0037001000200062
:10368400ebfe0700ae009000f0c0b3008048780065
:10369400140037006e409000e14f500006003a00dd
:1036a4000000eb00e2fe0700ae00900010c0b30083
:1036b400804878000b00370010002000dcfe070073
:1036c400ae00900020c0b3008048780005003700a9
:1036d40050002000000f78002e009000ee40900073
:1036e400014878002e009000904078006e409000d1
:1036f40080cf500025ff3a001e0078000080fa00b9
:10370400000006001400fa005007980061079800b2
:1037140072079800030f9800140f98000000eb0044
:10372400300798000e0890000000e0000a00320004
:103734007e009000900078000e0890000108780048
:103744000e0890008080e8007e0090001000780051
:1037540000804000300798007e0090008080e800e0
:103764007e00900010007800008040004007980020
:103774004a0037004e0090000000e900400798001e
:103784004e00900090407800414798000040eb00c4
:10379400304798000000eb00000f78002e0037003f
:1037a4005e009000ee00900061005000e080580040
:1037b40050079800610798001e0890000000e00080
:1037c400080032005e009000ee009000e00f500010
:1037d400e08f580003003a00110020001000200080
:1037e400be1907004e4090000080fb00e10060001d
:1037f40020002000b91907004e4090000080fb0013
:103804000000d100404798008000eb000000eb006e
:10381400b21907003e0090000000e0000a003200e8
:10382400271a0700204798002e4090008080fb0054
:103834001e0078000008dd00804078003e409000c3
:1038440000c0700030479800110020000000eb0019
:10385400a21907001e0fe8005e009000ee00900021
:10386400e00f5000e08f5800030032007000200089
:103874009e0f1000caff34003e0090000000e000dc
:10388400060032003e0090000000e9003007980076
:103894003e009000be409000014878005e00900019
:1038a400ee009000e00f5000e08f5800b1ff3a00a6
:1038b4000080fa00000006001c00fa00400798008f
:1038c400214f98006207980073079800040f98002e
:1038d400150f9800260f9800370f98000000eb0092
:1038e400300798000000eb00200798000040eb0030
:1038f400204798000000eb00500f9800ae4890005d
:103904000ef8970080cf500002003200140020000f
:10391400540f98005e089000000f78006e0090002d
:10392400fe009000e00f5000e08f58000c003a00b9
:103934002eb89700beb89700e00f5000e08f5800f3
:103944006300320011c0b3004e00900045fe070032
:103954002eb89700beb89700e01907005c00370046
:10396400ae4890004e0090003efe07001e02780014
:103974009e0990000e0990006e009000fe009000d9
:1039840060ff07002e0890000000e0000b003200ea
:103994003e0990009e0890002e08900054160700df
:1039a400800078000000eb00200798000100e00090
:1039b40002003a0010002000200798001e00e000da
:1039c400320032004e009000104078008040e80041
:1039d4004e009000014878002e0090000000e000a6
:1039e4001c0032002eb89700beb89700e00f5000bc
:1039f400e08f580017003200ae4090002ef0970080
:103a040080cf50001300310061c0b3004e0090001d
:103a140014fe070041c0b3004e00900011fe0700e1
:103a24002eb89700beb89700c289de004e0add00aa
:103a34004201de00020172002eb89700beb8970062
:103a4400000041008180490020bf9f0031bf9f00da
:103a5400030037008ef897004e00900001fe070027
:103a64002eb89700beb89700e00f5000e08f5800c2
:103a74000600320011c0b3004e009000f9fd0700ab
:103a84002eb89700beb89700941907002e00900036
:103a94000000e0000e0032000040eb00005f9800e0
:103aa400ae4090002ef0970080cf5000020031000d
:103ab40014c0b300045f98002e4090000040e8005a
:103ac400204798000e5890000004e000a4ff3a003c
:103ad4002e0090000000e0000c0032002ef0970051
:103ae4000004e00007003200ae4090002ef0970082
:103af40080cf5000030036003000200030079800cb
:103b04000200370020002000300798003e0090009b
:103b14000080fa00000006001000fa00000f780090
:103b2400120798002307980031079800440798006b
:103b3400550798006607980077079800be00900024
:103b44004e009000891607006e0090000000e0000f
:103b540003003200be0090006e0090008316070040
:103b64008f87e8002ef09700e0ff9f002eb89700a3
:103b7400beb89700809fbe008f87e8008ef897003c
:103b8400e1ff9f00fe0390006e039000de029000b0
:103b94004e0290001e019000ae01900041c0b3009f
:103ba4001e00780044ff0700e88757000080fa00f1
:103bb400000006001200fa00500798006107980000
:103bc40072079800030f98007e019000de009000b9
:103bd4005e0090002e1607000040eb00304798006e
:103be4000040eb00204798006e009000100f780012
:103bf4000e089000100078000000e90040079800cb
:103c0400480037004e0090008e0890000080e800c5
:103c14000100400090407800414798004e409000d9
:103c24000004e0003c0032004e009000de009000f2
:103c34000080e8000100400090407800614798004f
:103c440010c0b300504798002a0037004e4090003f
:103c54000080fb00610060000004e0001e003200f0
:103c64002e4090000004e00009003a001e0fe90015
:103c74001e007800ee0090000080e8000100400083
:103c8400904078003147980010c0b3002047980056
:103c94003e409000ae409000014060000004e0000f
:103ca400050032006e409000de409000014070003c
:103cb40060479800050037005e40900080c0ea002d
:103cc4006e40900000c06000604798002e40900055
:103cd40000404000204798005e40900000404000b3
:103ce400504798004e4090000080fb000000d10037
:103cf400404798004e4090000004e000d3ff3a0093
:103d0400ce0090005e009000010040000080e800ba
:103d1400ee409000014878004e0090000000e90059
:103d2400400798004e0090000000e000b5ff3d0001
:103d34000080fa00000006000200fa00000f78007c
:103d44009e00780040002000b00098001e0078001b
:103d5400300090000080fa00000006000200fa0023
:103d6400000f78009e00780010c0b30080487800ef
:103d74000000eb000080fa00000006000200fa00d8
:103d8400000f78001e007800a0089000820b20002d
:103d94001e004100f51507000000eb000080fa004a
:103da400000006000800fa00889fbe008a1f780001
:103db4003007980064004700771807004e409000d1
:103dc4000080fb0001002000fefc070010079800a3
:103dd4009e00900020032000808f500003003400d8
:103de40060002000000f7800230037004e40900050
:103df4000080fb0001002000f2fc07008000780036
:103e04003e00900076004000d81507003e00900068
:103e140060019000f00190003e00900090489000f6
:103e24003e009000760240004e4090000084fb006b
:103e3400090020003e009000680540008f87e800dc
:103e44000040eb00e0ff9f00829fbe008f87e800e8
:103e5400e1ff9f008003eb000003eb008002eb0016
:103e64000801be00b1c0b3000a00780092fe07004a
:103e7400e8875700000f78001e00e00003003200be
:103e84003e0090009e007800310098001e007800eb
:103e94004f0578004f04be000080fa0000000600c1
:103ea4000a00fa00881f7800400798004e0090002e
:103eb4007600400021002000ac1507004e00900061
:103ec40076004000d71407002007980031079800b7
:103ed4002e009000be009000bafc07001007980066
:103ee4009e00900020032000808f500003003400c7
:103ef40060002000000f7800200037002e009000a2
:103f0400be009000affc0700800078004e009000d7
:103f140076004000951507004e0090006001900067
:103f2400f00190004e009000904890004e009000e8
:103f3400760240004e009000680440008f87e8003d
:103f44000040eb00e0ff9f00829fbe008f87e800e7
:103f5400e1ff9f008003eb000003eb008002eb0015
:103f64002e019000be019000b1c0b300080078009b
:103f740051fe0700e8875700000f78001e00e0009c
:103f8400030032004e0090009e007800310098003b
:103f94001e0078004f0478000080fa00000006003c
:103fa4000400fa00889fbe008a9fbe001007980094
:103fb4001e009000a00890001e00900076004000b3
:103fc4006a1507001e009000b04890001e00900083
:103fd40060019000f00190001e009000204a9000c3
:103fe4001e009000870b2000808343001e00900079
:103ff400c5042000808242001e0090002a08200090
:10400400000545001e009000f60540001e009000cb
:10401400000c9000900c90001e009000680040007e
:104024008f87e800e1ff9f00829fbe008f87e80032
:10403400e4ff9f00050378008a0278000b027800f1
:104044000801be0041c0b3001bfe0700e88757000b
:10405400000f78001e00e000030032001e009000f4
:104064009e007800310098001e0078004f05be00c5
:104074004f04be000080fa00000006000200fa00af
:10408400000f78009e0078007680400041002000f8
:10409400361507009e007800768040006114070002
:1040a4001e01780060019800710198000000eb0087
:1040b4000080fa00000006000200fa00000f7800f9
:1040c4009e0078006b804000b31707000000eb00ef
:1040d4000080fa00000006000400fa0010079800af
:1040e4000000eb00000f78001e00900076004000f6
:1040f400410020001d1507001e00900076004000be
:10410400481407001e019000000998001109980046
:104114001e009000900890000008900029fc070001
:10412400800078001e009000210898001e00900076
:10413400a008900020032000808f50000500340068
:1041440060002000000f78001e0090009e007800a0
:10415400310098001e0078000080fa00000006007c
:104164000400fa00889fbe008a9fbe008c1f78005e
:10417400100798001e009000b04890001e009000a8
:1041840060019000f00190001e009000204a900011
:104194001e009000870b2000808343001e009000c7
:1041a400c5042000808242001e0090002a082000de
:1041b400000545001e009000f60540001e0090001a
:1041c400200e90001e009000000c9000900c9000b7
:1041d4001e009000680040008f87e800e1ff9f0008
:1041e400829fbe008f87e800e4ff9f0005037800ec
:1041f4008a0278000b0278008c0078000801be0067
:1042040045fe0700e8875700000f78001e00e00015
:10421400030032001e0090009e00780031009800d8
:104224001e0078004f0678004f05be004f04be0004
:104234000080fa00000006000200fa00000f780077
:104244001e007800a0089000e20e20001e0041002d
:10425400c61407001e007800a00890004212200037
:104264001e004100c11407000000eb000080fa00aa
:10427400000006000a00fa00889fbe008a9fbe0064
:10428400400798004e009000a00890004e00900057
:1042940076004000b51407004e009000b04890002e
:1042a4004e00900060019000f00190004e009000dc
:1042b400204a90004e009000870b2000808343002a
:1042c4004e009000c5042000808242004e00900001
:1042d4002a082000000545004e009000f605400025
:1042e4004e009000000c9000900c90004e00900046
:1042f400680040008f87e800e1ff9f00829fbe00b6
:104304008f87e800e4ff9f00050378008a027800a5
:104314000b0278000801be0041c0b30066fd07002f
:10432400e8875700200798002e0090000000e00066
:1043340064003a000000eb00100798000040eb0016
:10434400004f7800150037001e80fb00ce0090005f
:104354006012b000010040009040780011479800be
:104364000a0037001e4090000080fb00e10060005e
:104374001e00900001004000100798001e409000ad
:104384000080fb000000d100104798001e40900000
:104394000004e000f3ff3a001e4fe8001e80fb001b
:1043a400ce009000a1109100810f5000e6ff35006f
:1043b40066004700f81607000040eb00004f780045
:1043c4003a0037001e009000cf80de007dfb07001e
:1043d400800078004e009000a015b0006314070020
:1043e4004e00900042122000000141004e00900057
:1043f400e40e2000000242004e009000a1152000af
:10440400808040004e0090007600400082017800d9
:1044140004017800e7fd07004e009000b0489000ca
:104424004e00900060019000f00190004e0090005a
:10443400204a90004e009000870b200080834300a8
:104444004e009000c5042000808242004e0090007f
:104454002a082000000545004e009000f6054000a3
:104464004e009000000c9000900c90004e009000c4
:10447400680040008f87e800e1ff9f00829fbe0034
:104484008f87e800e4ff9f00050378008a02780024
:104494000b0278000801be0041c0b30006fd07000e
:1044a400e8875700200798001e4fe8002e00900070
:1044b4000000e00003003a006e4090009e4f1000a0
:1044c400c0ff39002e0090000000e000030032001d
:1044d4004e009000ae009000310098002e00900035
:1044e4004f05be004f04be000080fa000000060025
:1044f4000800fa00889fbe00200798002e00900054
:1045040010409000ee4f500004003a002e0090003e
:1045140020489000604798000200370040c0b30074
:1045240060479800ee409000214798002e009000cc
:10453400760240002e009000200c90002e00900087
:1045440000099000900990002e009000e8044000bb
:104554008f87e8000040eb00e0ff9f006000b80098
:10456400809fbe008f87e8002e409000e0ff9f00f0
:104574008003eb000003eb008002eb00880078006e
:104584000900780064fd0700e8875700000f7800f1
:104594001e00e000030032002e0090009e00780010
:1045a400310098001e0078004f04be000080fa001d
:1045b400000006000800fa00889fbe008a1f7800e9
:1045c400200798002e00900010409000f14f5000fa
:1045d40004003a002e0090002048900060479800a4
:1045e4000200370040c0b30060479800ee409000de
:1045f400214798002e009000c404200000024200cd
:104604002e00900025082000808242002e00900099
:10461400760440002e009000a00c90002e00900024
:1046240000099000900990002e0090006805400059
:104634008f87e8000040eb00e0ff9f006000b800b7
:10464400809fbe008f87e8002e409000e0ff9f000f
:104654008003eb00040378000802780089007800e6
:104664000a0078002cfd0700e8875700000f780047
:104674001e00e000030032002e0090009e0078002f
:10468400310098001e0078004f0578004f04be00ea
:104694000080fa00000006000600fa0020079800d7
:1046a4000e80e8003c160700ae4090002e009000fb
:1046b40068004000ebfa0700000f78001e00e000dd
:1046c400030032002e0090009e0078003100980014
:1046d4001e0078000080fa00000006000600fa00c0
:1046e400200798000000eb00000f78000e80e8001f
:1046f400291607002e4090000004e0000600320056
:104704002e409000e14f5000030032005000200082
:10471400000f7800190037002e0090001040900020
:10472400f34f50000b003a002e4090000004e000cc
:1047340004003a00ae00900010c0b3009048980006
:104744000e003700ae009000d0c0b300904898002f
:104754000a0037002e4090000004e00004003a00f4
:10476400ae00900010c0b300a048980003003700ca
:10477400ae00900060c0b300a04898001e00e000a6
:10478400030032002e0090009e0078003100980053
:104794001e0078000080fa00000006000400fa0001
:1047a400100798000e007800fb1507001e407800e3
:1047b4000004e000fbff3a009e0090000000eb00c4
:1047c400b00098001e009000300090000080fa00b5
:1047d400000006000800fa00300798003e00900030
:1047e4007600400011002000601307003e00900096
:1047f40080589000514798003e0090007600400099
:1048040011002000591307003e00900080589000ca
:10481400414798003e00900076004000410020008f
:10482400521307003e009000760040007d120700fe
:10483400008fbe003e009000804890005e409000d3
:1048440080cf5000040032003e0090006800400019
:10485400de40900083fa07001e00be001f1607000a
:104864003e009000804890004e40900080cf500061
:10487400040032003e00900068004000ce409000ea
:1048840078fa07000000eb000080fa000000060040
:104894000200fa00000f78001e0078001cfa0700de
:1048a400800078001e007800310098001e00780017
:1048b400300090000000e00007003a009e007800fd
:1048c400688040008040eb0066fa070080007800b2
:1048d4001e007800310098001e007800300090001f
:1048e4000080fa00000006000200fa00000f7800c1
:1048f4001e007800300090000000e0001e003a0026
:104904001e007800104078000004e0001a003a000d
:104914001e00e800a01507001e007800a00090000b
:104924001000900061004000e08048001e01780003
:1049340010019800210198001e007800104090009a
:10494400f74f50000a003e001e007800104090000f
:104954000080fb0080004000408521000080400072
:10496400900078001e00780001000100020037006a
:104974001e007800f0fc07001e0078003000900054
:104984000080fa00000006000200fa00000f780020
:104994001e00780007fa07000080fa0000000600f5
:1049a4009001fa000e007800b9ff07003e150700d9
:1049b400020037000e007800cbff07003e00900095
:1049c4000000e00003003a001e4078000004e0000c
:1049d400f8ff32000e007800ebff07003e00900065
:0849e4000080fa00000006004b
:020000040000fa
:1049ec000400fa00004f780011479800c5d8bf00aa
:1049fc000080fb00100798001e009000e40f500090
:104a0c001c0032001e009000e40f500007003c0018
:104a1c001e009000e20f50000e0032001e009000ad
:104a2c00e20f50000f003c00210037001e009000e8
:104a3c00e60f5000170032001e009000e60f5000e9
:104a4c00100035001e009000e70f500015003200da
:104a5c00170037009e4090001e407800d5120700ca
:104a6c00130037009e4090001e4078005f14070032
:104a7c000f0037009e4090001e407800ff1007008a
:104a8c000b0037009e4090001e4078001b0807006a
:104a9c00070037009e4090001e4078008b0b0700eb
:104aac00030037009e4090001e407800620d070006
:104abc000080fa00000006000800fa00004f7800a1
:104acc001e80fb006101b90010fc2f00f1ff2f00cc
:104adc0002014000838148002207980033079800a8
:104aec0010032000010020002e019000be01900058
:104afc00800f5100818f59001b013e002e00900049
:104b0c00be00900000600100d30037001601370092
:104b1c0015013700fd003700e400370012013700a3
:104b2c0011013700df0037000f0137000e0137008d
:104b3c000d0137000c0137000b013700a8003700be
:104b4c0023003700080137007f003700860037004c
:104b5c00050137000401370003013700020137005b
:104b6c000101370000013700ff003700fe0037005d
:104b7c00fd003700fc003700fb003700fa0037005f
:104b8c00f9003700f8003700f7003700f60037005f
:104b9c00f5003700dd003700c4003700f2003700a5
:104bac00f1003700bf003700ef003700ee00370090
:104bbc00ed003700ec003700eb00370088003700c1
:104bcc0003003700e80037005f003700660037004d
:104bdc008040eb00a0ccb30081ff0700d603070098
:104bec000040eb0084f8b7000f00370084d8bf00fa
:104bfc000040e8000807070070572800f20407007f
:104c0c0084d8bf000080fb0080004000e0802100c1
:104c1c0000804000100078000105070084d8bf0018
:104c2c000040e80084f8b70084d8bf00e74f50007c
:104c3c00eeff3600a0572800e304070080c0b30045
:104c4c00640707000040e900c5f8b70000582800c9
:104c5c00f30407008040eb0090ccb30060ff07002a
:104c6c00c8d8bf00704060000004e000170032009c
:104c7c00d0582800d404070020c0b3005507070003
:104c8c000040e90061406000614060004601dd00c9
:104c9c00718c210091407800f0cbb30000c0600013
:104cac0002407000c7f8b700c7d8bf000044b2007c
:104cbc000004e00003003a00b05c2800d8040700b0
:104ccc0002003700505e2800d5040700c8d8bf008a
:104cdc00624060000004e000170032001060280001
:104cec00b904070020c0b3003a0707000040e900f0
:104cfc0061406000614060004301dd00718c210067
:104d0c009140780070cfb30000c06000024070008a
:104d1c00c7f8b700c7d8bf00684060000004e000c7
:104d2c0003003a0000652800bd04070002003700ac
:104d3c0010662800ba0407008040eb000040eb002e
:104d4c0027ff07008b003700306728009e04070000
:104d5c0040c0b3001f070700c6f8b700506a280010
:104d6c00af04070083003700c8d8bf00684060005c
:104d7c000004e00002003a00a90307007d003700a0
:104d8c00906b28009004070020c0b30011070700a7
:104d9c000040e90061406000614060004501dd00b9
:104dac00718c210091407800f0cdb30000c0600000
:104dbc0002407000c7f8b700c7d8bf000042b2006d
:104dcc000004e00003003a0030c0b300db0307002e
:104ddc006800370030c0b300ce0307006500370011
:104dec00c8d8bf00644060000004e00002003a0034
:104dfc008b0307005f003700f06e28007204070079
:104e0c0020c0b300f30607000040e90061406000d9
:104e1c00614060004401dd00718c210091407800fc
:104e2c00f0ceb30000c0600002407000c7f8b700bd
:104e3c00c7d8bf00704060000004e00003003a00d7
:104e4c0040712800760407004a00370000732800e0
:104e5c0073040700470037000040eb0084f8b700ec
:104e6c000c00370084d8bf000080fb00800040009d
:104e7c00e0812100008040001000780052040700ff
:104e8c00d07428005004070084d8bf000040e8000c
:104e9c0084f8b70084d8bf00fa4f5000f1ff3600f9
:104eac0034003700ad0307003200370000752800ce
:104ebc004504070020c0b300c60607000040e90007
:104ecc00614060006140600000414000718c210035
:104edc0091407800d0cfb30000c060000240700059
:104eec00c7f8b700c7d8bf00624060000004e000fc
:104efc0003003a00f0772800490407001d00370032
:104f0c00207a2800460407001a003700f07b28009e
:104f1c002d04070090c0b300ae0607000040e90066
:104f2c00c4f8b7003084280027040700c406070023
:104f3c000000370085c0bf00684060000004e0003e
:104f4c00fcff32003011800084f8b7008560a900a6
:104f5c00418821009140780000c2b30080cf5000fe
:104f6c0004003200f3ff37008000eb0011079800bb
:104f7c000200370012002000120798001e0090005b
:104f8c000080fa00000006000600fa00000f78000e
:104f9c0011079800c5d8bf000004e00003003a00d8
:104fac006087280008040700170137000000eb0099
:104fbc00b0c488000c013700b0c4800080007800b9
:104fcc001e00900000804000104078006601070031
:104fdc0085f8b70085d8bf000080fb00200798003b
:104fec002e009000f10f500022003200ae00900015
:104ffc00f18f500011003c002e009000e60f500085
:10500c008c003200ae009000e68f500004003c0093
:10501c002e009000e40f500026003200e90037000b
:10502c00ae009000e78f5000410032002e0090003f
:10503c00ec0f500015003200e2003700ae0090007b
:10504c00f38f50000f0032002e009000f30f500031
:10505c000a003500ae009000f48f5000260032009c
:10506c0030062000ae009000808f5000d800320037
:10507c00d4003700ef020700d5003700fb02070011
:10508c00d300370007030700d10037001e01900042
:10509c00618921001e007800dd00070090c48800a3
:1050ac0090c4800080407800c0c0b3004cfe070064
:1050bc00c70037001e019000618921001e00780096
:1050cc00d300070090c4880090c48000e10f50000a
:1050dc0004003a008040eb0040c0b30040fe0700e3
:1050ec00bb00370090c480008040780050c0b300f3
:1050fc003bfe0700b60037001e01900061892100bd
:10510c001e007800c200070090c488004089280067
:10511c00ad03070090c4800000060700f08928004a
:10512c00a903070090c4800087030700a80037007c
:10513c000000eb0090c48800b0c480000000e800c0
:10514c00b0c48800b0c480009e0f500004003a0028
:10515c00b0c480000000e900b0c488003000370003
:10516c00b0c48000800078001e00900000804000d9
:10517c0090407800f0c2b30080cf50001a00360087
:10518c00b0c48000800078001e00900000804000b9
:10519c0090407800f0c3b30080cf500012003e0066
:1051ac0090c480006a00b90090c48800b0c480002c
:1051bc00800078001e0090000080400010407800b5
:1051cc008080fb0090c480008080400000fd2f0098
:1051dc000080400090c48800b0c480000000e8004b
:1051ec00b0c48800d7ff3700b0c4800080007800be
:1051fc001e009000008040009040780090c2b300e8
:10520c0080cf500006003200b0c480000000e900de
:10521c00b0c48800a0c480000000e800a0c48800ce
:10522c0090c480008040780070c0b300ecfd070093
:10523c00670037000000eb0090c488000040eb00d2
:10524c0087f8b700b0c480009e0f500004003a00ed
:10525c00b0c480000000e900b0c4880053003700df
:10526c00b0c48000800078001e00900000804000d8
:10527c0090407800f0c2b30080cf50000800360098
:10528c00b0c48000800078001e00900000804000b8
:10529c0090407800f0c3b30080cf5000300036004f
:1052ac00b0c48000800078001e0090000080400098
:1052bc009040780000c4b30080cf50000800360046
:1052cc00b0c48000800078001e0090000080400078
:1052dc009040780060c4b30080cf500020003600ae
:1052ec00b0c48000800078001e0090000080400058
:1052fc009040780000c6b30080cf50000800360004
:10530c00b0c48000800078001e0090000080400037
:10531c009040780060c6b30080cf5000100036007b
:10532c00b0c48000800078001e0090000080400017
:10533c009040780080c7b30080cf50000800320046
:10534c00b0c48000800078001e00900000804000f7
:10535c009040780080c6b30080cf500010003a0017
:10536c0092c48000b0c48000800078001e009000c1
:10537c0000804000904078006088210000004100cf
:10538c000148780090c480000000e80090c48800b8
:10539c00b0c480000000e800b0c48800a9ff37004a
:1053ac00b0c480000000e900b0c4880090c4800044
:1053bc0061882100410107000000eb0090c48800c7
:1053cc000300370085d8bf008040eb0084fd070048
:1053dc00a0c480000000e00006003a00b0c48000c9
:1053ec000000e800b0c48800b0c480009e0f5000dc
:1053fc00f1fe3900a0c480000000e0000200320081
:10540c00408a2800f00207000080fa000000060025
:10541c000a00fa001007980021079800320798003c
:10542c000000eb00000f78002e00900010007800b8
:10543c008000e8001e009000808f50004500310075
:10544c002e00900010007800800078003e00900044
:10545c00008040000000e80090407800a0c3b3003a
:10546c0080cf50003b003a002e00900010007800d6
:10547c008080e8002e009000010878002e0090003b
:10548c00900078001e009000808f500004003900be
:10549c002e0090000080e900200798002a003700b9
:1054ac002e00900010007800800078003e009000e4
:1054bc000080400090407800f0c2b30080cf5000d4
:1054cc001c0036002e009000100078008000780040
:1054dc003e0090000080400090407800f0c3b30084
:1054ec0080cf500013003e001e0078006a00b90007
:1054fc00000f78002e0090001000780080007800db
:10550c003e00900000804000104078000080fb00be
:10551c009e00400000fd2f00008f40002e009000e8
:10552c00100078008000e8002e0090000108780040
:10553c00d2ff37002e009000100078008000e900a8
:10554c002e009000010878001e007800400798009b
:10555c000200370010002000400798004e00900019
:10556c000080fa00000006000800fa00004f7800e6
:10557c00f0c2b3009e4f100006003600f0c3b3001b
:10558c009e4f100003003e006000200010079800a2
:10559c00c70037001e80fb006101b90060ff2f00bf
:1055ac00f1ff2f0002014000838148002207980080
:1055bc003307980030072000010020002e019000d6
:1055cc00be019000800f5100818f5900b6003e0043
:1055dc002e009000be00900000600100ac0037006f
:1055ec00b1003700b0003700ac003700ae00370018
:1055fc00ad003700ac003700ab003700aa00370015
:10560c00a9003700a8003700a7003700a600370014
:10561c00a5003700a4003700a3003700a200370014
:10562c00a1003700a00037009f0037009e00370014
:10563c009d003700900037007a0037009a00370041
:10564c00990037009800370097003700600037004a
:10565c009500370061003700630037009200370077
:10566c00910037008700370080003700700037004a
:10567c00720037008c0037008b0037008a0037002f
:10568c008900370088003700870037008600370014
:10569c008500370084003700830037008200370014
:1056ac0081003700800037007f0037007e00370014
:1056bc007d003700430037003c0037007a0037008c
:1056cc007900370078003700770037007600370014
:1056dc007500370074003700730037007200370014
:1056ec0071003700700037006f0037006e00370014
:1056fc006d0037006c0037006b0037004600370038
:10570c006900370068003700670037006600370013
:10571c006500370064003700630037006200370013
:10572c003700370048003700380037004900370091
:10573c004b0037005c0037001f0037005a00370061
:10574c005900370058003700570037005600370013
:10575c005500370054003700530037005200370013
:10576c0051003700500037004f0037004e00370013
:10577c004d0037004c0037004b0037002600370037
:10578c004900370048003700470037004600370013
:10579c004500370044003700430037004200370013
:1057ac0014003700400037001800370011012000aa
:1057bc00110798003e0037002201200012079800c4
:1057cc003b003700330120001307980038003700e6
:1057dc0040012000100798003500370071002000b0
:1057ec00110798003200370032062000120798008b
:1057fc002f00370023002000130798002c003700df
:10580c0010002000100798002900370031002000fc
:10581c00110798002600370042002000120798005c
:10582c0023003700a3002000130798002000370046
:10583c00b0002000100798001d003700d100200098
:10584c00110798001a003700e20020001207980098
:10585c0017003700c300200013079800140037000e
:10586c00000120001007980011003700f100200003
:10587c00110798000e00370032062000120798001e
:10588c000b00370033062000130798000800370080
:10589c003006200010079800050037003106200064
:1058ac001107980002003700820c200012079800a4
:1058bc001e0090000080fa00000006000800fa00ac
:1058cc0020479800210798000040eb0010479800f3
:1058dc002e0090000000e800104078000080fb00d3
:1058ec003007980080062000be009000808f50008a
:1058fc000900320080072000be009000808f50000d
:10590c000500320020062000be009000808f500061
:10591c00400032005500370020c0b300004f780023
:10592c00380037001e4090000080fb004400dd0072
:10593c00104798001e80fb00800078002e0090001d
:10594c000080400090407800f0c3b30080cf50003e
:10595c000c003e001e80fb00800078002e009000a2
:10596c0000804000904078001e40900000c0400035
:10597c008040780000cdb30000c040001047980074
:10598c001f0037001e80fb00800078002e00900066
:10599c00008040009040780060c4b30080cf50007d
:1059ac000c003e001e80fb00800078002e00900052
:1059bc0000804000904078001e40900000c04000e5
:1059cc008040780090ccb30000c040001047980095
:1059dc000b0037001e80fb00800078002e0090002a
:1059ec0000804000904078001e40900000c04000b5
:1059fc008040780090cab30000c040001047980067
:105a0c001e4fe8002e4090009e4f1000c5ff39003d
:105a1c002c00370020c0b300004f78000f00370077
:105a2c001e40900000404000104798001e80fb0074
:105a3c00800078002e00900000804000904078009c
:105a4c0010c3b30080cf500003003a001e409000fa
:105a5c000004a000104798001e4fe8002e40900054
:105a6c009e4f1000eeff3900160037000040eb008f
:105a7c00004f7800100037001e4090000080fb00a3
:105a8c006a00b900104798001e80fb008000780067
:105a9c002e00900000804000904078001e40900046
:105aac0000c040008040780000cdb30000c0400032
:105abc00104798001e4fe8002e4090009e4f10009b
:105acc00edff39009e40900060c0b300c4fb07009e
:105adc000080fa00000006000000fa0080c0b3004d
:105aec00c4f8b7000040eb00c5f8b70010c0b30015
:105afc00c6f8b700c718a900c738a900c758a9002d
:105b0c00c778a800c798a900c7b8a900c7d8a9002a
:105b1c00c7f8a900c818a900c838a900c858a90016
:105b2c00c878a900c898a900c8b8a900c8d8a90005
:105b3c000080fa00000006000000fa000040eb00b4
:105b4c00c5f8b700c718a900c738a900c758a900dd
:105b5c00c778a800c798a900c7b8a900c7d8a900da
:105b6c00c7f8a900c818a900c838a900c858a900c6
:105b7c00c878a900c898a900c8b8a900c8d8a900b5
:105b8c004116800000fe2000008070004016880046
:105b9c0051168000f0012f00008060005016880024
:105bac000080fa00000006000000fa00c5d8bf0013
:105bbc000080fb0080004000e0802100008040005d
:105bcc0010007800000107000080fa0000000600b9
:105bdc000000fa00c5d8bf00e24f50000e003a009a
:105bec002f0f07000004e0000b003200c7d8bf00e5
:105bfc00644060000004e00006003200d07428000d
:105c0c00f10007008040eb0040c0b30074fb0700bc
:105c1c0001003700160f07000080fa000000060094
:020000040000fa
:105c2c000000fa00806f2900e70007000080fa00ee
:105c3c00000006000000fa00c7d8bf0062406000f8
:105c4c000004e00003003a00c8a2a800caa2a90000
:105c5c0002003700c8c2a800cac2a90030722900cd
:105c6c00ef0007000080fa00000006000000fa00b8
:105c7c00c7d8bf00624060000004e00003003a0097
:105c8c00c8a2a900caa2a90002003700c8c2a90074
:105c9c00cac2a90000732900e10007000080fa00c5
:105cac00000006000200fa00c7d8bf006240600086
:105cbc000004e00008003a00c8a2a80000000000a0
:105ccc00cac2bf000080fb004500de0061406000de
:105cdc00004f780007003700c8c2a8000000000081
:105cec00cac2bf000080fb004600de0061406000bd
:105cfc00004f7800c0732900b30007001e407800e5
:105d0c002903070050752900af0007000080fa0036
:105d1c00000006000200fa00004f7800cb62a800d9
:105d2c00cb42a800c962a900c942a900807529000c
:105d3c00bb0007000080fa00000006000200fa0019
:105d4c00004f7800c962a800c942a800e07629007b
:105d5c00b30007000080fa00000006000000fa0003
:105d6c00c8a2a8001fe1a90011e1a90061682000e8
:105d7c009140780000ceb30000c060005040b300ea
:105d8c0086e6b7001061a80010a1a8001081a80039
:105d9c001021a8000080eb00700888000080eb0048
:105dac00600888000000eb00400888000000eb0051
:105dbc00300888000000eb00b00888000000eb0001
:105dcc00a00888001e61a8001e81a9001ea1a900c0
:105ddc001e21a9001ec1a900400f2000e008880068
:105dec0000402200d00888008780a9001fe1a8008d
:105dfc0011e1a80087c0bf00704060000004e00003
:105e0c00fcff320011e1a9001fe1a9005078290024
:105e1c006d0007003008800010c688004008800024
:105e2c0000c6880000c6800001002000e0c5880084
