:020000040000FA
:10000000040C0400000000008E7B00008E7B0000CA
:100010008E7B00008E7B00008E7B00008E7B0000BC
:100020008E7B00008E7B00008E7B00008E7B0000AC
:100030008E7B00008E7B00008E7B00008E7B00009C
:100040008E7B00008E7B00008E7B00008E7B00008C
:100050008E7B00008E7B00008E7B00008E7B00007C
:100060008E7B00008E7B00008E7B00008E7B00006C
:100070008E7B00008E7B00008E7B00008E7B00005C
:100080008E7B00008E7B00008E7B00008E7B00004C
:100090008E7B00008E7B00008E7B00008E7B00003C
:1000A0008E7B00008E7B00008E7B00008E7B00002C
:1000B0008E7B00008E7B00008E7B00008E7B00001C
:1000C0008E7B00008E7B00008E7B00008E7B00000C
:1000D0008E7B00008E7B00008E7B00008E7B0000FC
:1000E0008E7B00008E7B00008E7B00008E7B0000EC
:1000F0008E7B00008E7B00008E7B00008E7B0000DC
:100100008E7B00008E7B00008E7B00008E7B0000CB
:100110008E7B00008E7B00008E7B00008E7B0000BB
:100120008E7B00008E7B00008E7B00008E7B0000AB
:100130008E7B00008E7B00008E7B00008E7B00009B
:100140008E7B00008E7B00008E7B00008E7B00008B
:100150008E7B00008E7B00008E7B00008E7B00007B
:100160008E7B00008E7B00008E7B00008E7B00006B
:100170008E7B00008E7B00008E7B00008E7B00005B
:100180008E7B00008E7B00008E7B00008E7B00004B
:100190008E7B00008E7B00008E7B00008E7B00003B
:1001A0008E7B00008E7B00008E7B00008E7B00002B
:1001B0008E7B00008E7B00008E7B00008E7B00001B
:1001C0008E7B00008E7B00008E7B00008E7B00000B
:1001D0008E7B00008E7B00008E7B00008E7B0000FB
:1001E0008E7B00008E7B00008E7B00008E7B0000EB
:1001F0008E7B00008E7B00008E7B00008E7B0000DB
:10020000FFFFFF00FFFFFF008E7B00008E7B0000E2
:100210008E7B00008E7B00008E7B00008E7B0000BA
:100220008E7B00008E7B00008E7B00008E7B0000AA
:100230008E7B00008E7B00008E7B00008E7B00009A
:100240008E7B00008E7B00008E7B00008E7B00008A
:10180000040C0000000000000FCB2100007F22002C
:1018100000018800000000000C000700E08727009E
:101820000100200011000700000020000000E0007F
:101830000200320000000200000000008E0F0200D3
:10184000000000000040DA000000FE004440A90053
:10185000608421000000E00003003200000020004E
:10186000A00188004440A800000006009101880003
:10187000800078000000EB0015003700E280400097
:1018800032A0B4009101BA00E280400032A0B4005E
:101890009102BA00E280400032A0B4000002EB00E6
:1018A000472BDE00F507B200602CE10004003A008F
:1018B0000059EB008301E900FDFF3E000400370002
:1018C0006128E100010032000082EB000400070003
:1018D0001101BA000200E000E8FF3A000000060033
:1018E0003159BA008301E9000C0032002159BA00D5
:1018F0008301E900080032000400E00003003A0020
:10190000E280400032A0B400F5FF370011D9BA00E0
:101910008301E900FAFF3A008100E800E18040001D
:1019200032A0B40000000600889FBE008A9FBE005F
:10193000010578000100E0000400350008003C00CB
:101940000000E000200032000500370060001000B9
:10195000E080180002003B0001F02C001A00370064
:101960000004BE006011B8006B0920000982CF009E
:10197000020039000882CF000441B00069425200E1
:101980000E00320008003B0082817100610164009A
:101990008904D1000884D3008B05E8000442E800E4
:1019A000F9FF3A00050037000804440089844C0020
:1019B0008B05E9000442E900FBFF3A00040107003F
:1019C0000AF0A70001F0A0004F05BE004F04BE00C2
:1019D0000000060003F0A200889FBE008A9FBE00A0
:1019E0008C1F780020010700270133006450E100BC
:1019F0004F0032006420E1005200320003826C008C
:101A000007003B000905D0000306D000820F5400F8
:101A10000C065D00020039000200320089017800E6
:101A2000030678008582550004003D000003FD0098
:101A30008103FD008502EA008B854200840F72005D
:101A400002003B0060001000E08018006011B80048
:101A50000005EB007A28E1000A0039000600780052
:101A6000C75DDD00F707B200878075002D003700E5
:101A7000828171000A017800610560008180D100D7
:101A80000080D3008502E900F9FF3B000604400016
:101A90008784480002003B0060041400E0841C00BE
:101AA0000988A300070032008A81710082817100D9
:101AB000610164008904D1000884D3008B05E8002B
:101AC000170037000978A30013003A000B00E0006C
:101AD000130034008B05E9000804440089844C009D
:101AE0000A4474000978A3000D003A000B00E000DE
:101AF000070034008B05E9000804440089844C0089
:101B000001003A000B0020000978A300F7FF320023
:101B10000001EB0002003700828171000A017800A9
:101B2000AB0007000CF0A70001F0A000DF003700B9
:101B30006420E10002003A00838F6C00DF00330074
:101B40000801BE000200BE00D8003700889FBE001A
:101B50008A9FBE008C1F7800C3000700CA003300B4
:101B600003866C006450E1002E0032006420E10026
:101B7000330032006150E1002F0032006120E100AB
:101B80003100320085855500EB07B00009002000C8
:101B900008042000050037000804440089844C0034
:101BA0000A0031000603430087834B000001530005
:101BB00081815B00F8FF33000203BE000800A00033
:101BC0000804440089844C00F6FF3900C639DD0062
:101BD0008301730001003200130020008904D1004A
:101BE0000884D3000998A300050032000800A7006C
:101BF0000300A0008904D1000884D3008B05E8000D
:101C00008904D1000884D3000001EB000281D200D6
:101C10006F00070001F0A1000CF0A70001F0A00088
:101C2000A20037006420E100A40032000801BE00D9
:101C30000200BE00F7FF37006120E1009F00320084
:101C40006000B800F3FF37000000200001F8270013
:101C5000F0FF3700889FBE008A9FBE008C1F78006F
:101C6000810007008800330003866C006450E100A7
:101C7000240032006420E100270032006150E100BE
:101C8000220032006120E100210032008B854200F9
:101C9000EB07B1000134B800003AB8000804420074
:101CA00089844A00013AB8000030B80088804000BA
:101CB00009014A0004003300000040008180480010
:101CC000020149008B05E900C909DD0083017000AC
:101CD0000100320013002000C814DE004814DD00AB
:101CE0004709DE001200B200C808DE000884700058
:101CF0003700070001F0A1000CF0A70001F0A000E0
:101D00006A0037006120E1006C0032000801BE006B
:101D10000200BE00F7FF37006150E100FCFF3A000F
:101D2000660037000001BE00670007000470A700CE
:101D300003F0A10003F8A30013003A006509B10005
:101D400010003200090035006928E100020035006A
:101D500001002800000005000000400081804800CC
:101D60008502E900FCFF3A0000000600F88F4200FF
:101D7000050035008100D1000080D3008502E80015
:101D8000FCFF3A00000006008000EB0000000500A8
:101D90006022B800060220000000D0008180D2003E
:101DA0000482D2008582D2000000A000020252000C
:101DB00083825A00030031000202420083824A00FB
:101DC0000000A1000603E900F3FF3A00000006004E
:101DD00081002000618055000B003D000B002000B9
:101DE00061FE2F000100E1001D00340082817100BE
:101DF000610164008904D1000884D3000000E80078
:101E0000FAFF3A00710020006100640003007000D6
:101E1000020060000900320061044400E0844C00CC
:101E20000988A500050032008B05E8006808E1007C
:101E300002003A008904D1000884D300F20F200088
:101E40000258E10005003D00C75DDD00F907B20062
:101E50008980750008007800000006000BF8270054
:101E60008B007800000005000004BE00160007008B
:101E70000003BE000405BE000200BE001200070001
:101E8000844F7500000006000200BE006450E100AF
:101E9000050036006420E100020036000968A30056
:101EA00001003A000800BE000160A0004F06780063
:101EB0004F05BE004F04BE0000000600F0FF2F00DB
:101EC000F1FF2700F9FF3700C70ADE00F107B20073
:101ED000F50FB20008003200E1CF420002003200EC
:101EE0000170A00024000500810F70000100320085
:101EF0000408050044000500810F700002003A004C
:101F0000140005008502E9000000400081C048007F
:101F1000FCFF3B000170A000240005000400FA0053
:101F20004B0007000000370022C2BF006240600083
:101F30000004E0000400320010118000D1FF2F00E7
:101F400001006000101188000280200001002100C3
:101F5000208121004119070010079800E00F2000A0
:101F60009E009000808F50002B003200F00F200068
:101F70009E009000808F50001F0032001E009000D5
:101F8000E10F5000010032002900370091C08000AD
:101F9000010F78001E0078000000E000040032000D
:101FA0009E007800E18F50000400320007003700E7
:101FB00090C1B300311C07000700370000C8BF0004
:101FC0009B1507000004E00003003A0090C0800069
:101FD00001802000651707000000EB0090C088001A
:101FE0000040EB00ADFCB7007E150700E0C3B30076
:101FF000D31B07000E003700ADDCBF000040E80037
:10200000ADFCB700ADDCBF00F34F50000800360058
:102010008F23070006003700ADDCBF00E44F5000FF
:1020200001003600A02607000040EB00ADFCB70021
:102030000BD8BF00624060000004E000BAFF32002D
:1020400060C1B3000CF8B70026150700B6FF3700D3
:102050000000FA004507A9000080EB006019880025
:102060004227A900416A20009140780000CEB300C9
:1020700000C060000024A000A4E6B700316C20007E
:102080009140780000CEB30000C060003040B30043
:10209000C3E6B70080C0B30000F8B7000000EB0053
:1020A00010C08800F4050700020607008000EB005E
:1020B000F00F2000E41B070030C088002100200042
:1020C000F00F2000E01B070040C08800D0C0B30024
:1020D0009B1B0700A0C0B300991B0700F515070064
:1020E00040150700E0C3B300951B07000080FA000D
:1020F000000006000600FA000CD8BF000080FB00BC
:102100006101B9001207980023079800C001200060
:10211000010020001E019000AE019000800F5100D0
:10212000818F5900D4003E001E009000AE00900048
:10213000006001001C0037003E0037005E003700E1
:102140005D00370062003700B600370066003700D8
:102150006C00370072003700780037007C003700D1
:102160008000370084003700C3003700C20037000A
:10217000C1003700C0003700BF003700BE00370085
:10218000BD003700BC003700BB003700BA00370085
:10219000B90037007D00370097003700B8003700DE
:1021A000B5003700B600370080C08000E10F500056
:1021B00007003A0010C0B300B01B07002A22070036
:1021C0009EFCB7009EDCBF00CC0507001400370062
:1021D00020C0B300A91B070080C08000C70507000E
:1021E00030C0B300A51B07000000EB00E0E488004E
:1021F000070037001C220700C005070000C2B3001B
:102200004F1B0700E0E480000000E800E0E48800E5
:1022100081C08000E0E48000808F5000F5FF3E0028
:10222000D0C0B300461B0700A0C0B300441B07008A
:102230009300370040C0B300901B070070C08000BF
:10224000AE05070080C08000E10F500003003A0097
:1022500070C08000D321070012003700201D2F001E
:10226000E619070080C08000A405070050C0B30035
:10227000821B07000000EB00E0E488000500370047
:1022800070C08000C7210700E0E480000000E80083
:10229000E0E4880081C08000E0E48000808F50008E
:1022A000F7FF3E00D0C0B300251B0700A0C0B3005D
:1022B000231B0700720037004B210700601D2F0011
:1022C000CE19070080C0B3006C1B07006C003700FC
:1022D00058210700E01D2F00C819070090C0B30067
:1022E000661B070066003700D0C0B300631B070001
:1022F0000D220700BA190700F0C0B3005F1B0700EA
:102300005F003700E0C0B3005C1B070056220700E7
:10231000B3190700F0C0B300581B0700580037007E
:1023200080C080007505070000C1B300531B070083
:1023300080C080001E2207005100370010C1B3008A
:102340004E1B070010C0B300352207004C003700B9
:1023500020C1B300491B07000040EB0030220700FA
:102360004700370030C1B300441B070010C0B30062
:10237000222207004200370040C1B3003F1B070084
:102380000040EB001D2207003D0037000B58A8005D
:102390000B98A80010C3B300381B070012002000E0
:1023A0003100200010002000F31707000040E90072
:1023B0000AF8B700E0C1B300301B0700120020008C
:1023C0002100200010002000EB1707000040EA0069
:1023D00061406000614060004601DD00B180210085
:1023E00091407800F0CBB30000C060000240700064
:1023F0000BF8B70022003700CB02A900CB22A900BE
:10240000C922A800C902A900A1802100914078003A
:1024100020C0B300C02007000040EB00171B0700DE
:102420001700370071C08000010F78001E0178008E
:10243000E10F51000A0032009E017800E18F510047
:10244000040039001E007800E20F50000500320041
:1024500006003700501E2F006819070008003700DB
:1024600009000700190007000500370070C1B3001C
:10247000021B07000200370080C1B300FF1A0700EB
:102480000080FA00000006000000FA0000222F0081
:1024900070190700D0232F006E1907000040EB00D1
:1024A000E821070000C0EB004B05070010C0B30097
:1024B000E421070010C0B300BD2107000040EB007D
:1024C000E02107000080FA00000006000A00FA0080
:1024D000881F7800F0252F00481907000000EB0046
:1024E000000F78000D0037001E0478005E21070001
:1024F0008040780063004700017478009E007800F7
:1025000063004700614078000080FB002C1A070040
:1025100000C2B3008A1A07001E0FE8003000200036
:102520009E0F1000F0FF3600D0C0B300841A0700E1
:10253000A0C0B300821A0700D0282F002F1907006F
:1025400063004700104078000080FB004400DE007C
:102550000080FB00400798004E009000E90F5000FB
:10256000110032004E009000E90F500004003C00C2
:102570004E009000E80F50000800320013003700B2
:102580004E009000EA0F50000A0032004E0090000A
:10259000EF0F50000A0032000C00370080292F0096
:1025A0002C1907000B003700F0292F00291907000C
:1025B00008003700602A2F002619070005003700A1
:1025C000D02A2F002319070002003700102B2F00FC
:1025D00020190700902B2F000819070063004700FF
:1025E000104090000080FB004700DE000004E00087
:1025F00003003A00502C2F00161907000200370084
:10260000C02C2F0013190700C02D2F00FB18070046
:1026100063004700104090008080FB0080F72F008F
:10262000008060004380DE00204798002E4090002C
:102630000004E00003003A00902E2F00EF1807007E
:102640001B0037002E409000EF4F500003003A006F
:10265000D02A2F00E91807001500370000042000D9
:10266000000F7800E30047000040EB00804878004E
:10267000080037001E00780000004000000F7800BE
:1026800063004700104078008040E8006300470086
:102690000148780063004700904078002E40900089
:1026A00080CF5000F3FF39001E0078006419070046
:1026B000D0C0B300221A0700A0C0B300201A070040
:1026C000702F2F00CD180700630047009040900046
:1026D00070C0B30000C060002047980010002000C8
:1026E000000F7800E30047000040EB0080487800CE
:1026F000080037001E00780000004000000F78003E
:1027000063004700104078008040E8006300470005
:102710000148780063004700904078002E40900008
:1027200080CF5000F3FF39001E00780073190700B6
:10273000D0C0B300021A0700A0C0B300001A0700FF
:102740004F0478000080FA00000006000400FA0040
:102750000CD8BF000080FB006101B900028FBE00F1
:10276000C0012000010020001E01BE00800F5100AA
:10277000818F5900D7003E001E00BE00006001009E
:102780001C0037003E0037006A0037006900370040
:1027900073003700CC003700770037007F00370028
:1027A000870037008D003700910037009500370013
:1027B00099003700C7003700C6003700C500370052
:1027C000C4003700C3003700C2003700C100370023
:1027D000C0003700BF003700BE003700BD00370023
:1027E00092003700AB003700BC003700B90037005B
:1027F000BA00370080C08000E10F500006003A00A8
:1028000010C0B3001D1A070000C0EB001C20070019
:102810003A0407001500370020C0B300171A07005C
:1028200080C080003504070030C0B300131A0700D1
:102830000000EB0080E488000800370000C0EB00D7
:102840000F2007002D04070000C2B300BC190700C9
:1028500080E480000000E80080E4880081C08000FF
:1028600080E48000808F5000F4FF3E00D0C0B300B1
:10287000B3190700A0C0B300B119070097003700D3
:1028800040C0B300FD19070070C080001B040700A2
:1028900080C08000E10F50000E003A0070C0800040
:1028A000F71F070092FCB70094DCBF006140600096
:1028B0000004E0001A00320000C2B300A0190700B3
:1028C00010C0B300ED19070092DCBF000B04070035
:1028D00013003700A0872F004818070080C0800031
:1028E0000604070050C0B300E41907000000EB0025
:1028F00080E488000600370070C08000E01F0700F9
:1029000092FCB70080E480000000E80080E48800CA
:1029100081C0800080E48000808F5000F6FF3E0080
:10292000D0C0B30086190700A0C0B3008419070007
:102930006A0037000CD8BF00E34F500002003A0095
:10294000941CA80001003700941CA9000040EB0073
:10295000BC200700A0C0B300C81907005F00370003
:10296000941CA90010C0B300B6200700B0C0B3008B
:10297000C219070059003700D0C0B300BF190700C3
:102980006920070016180700D0C0B3006C190700B3
:10299000A0C0B3006A19070050003700E0C0B300C0
:1029A000B6190700B02007000D180700D0C0B3000B
:1029B00063190700A0C0B300611907004700370082
:1029C00080C08000CD03070000C1B300AB19070031
:1029D00080C08000762007004000370010C1B3009F
:1029E000A619070010C0B3008D2007003B00370078
:1029F00020C1B300A11907000040EB0088200700A8
:102A00003600370030C1B3009C19070010C0B30076
:102A10007A2007003100370040C1B3009719070042
:102A20000040EB00752007002C00370010C3B300F6
:102A30009219070012002000310020001000200031
:102A40004D1607000040E9000AF8B700E0C1B300E6
:102A50008A19070012002000210020001000200029
:102A6000451607000040EA006140600061406000D8
:102A70004601DD00B180210091407800F0CBB30029
:102A800000C06000024070000BF8B7000B58A800AF
:102A900012003700941CA900A18021009140780009
:102AA00030C0B3001C1F0700C922A900C902A90039
:102AB000C8E2A80010C0B300622007000040EB008D
:102AC0006E1907000500370070C1B3006B190700CD
:102AD0000200370080C1B300681907000080FA00C7
:102AE000000006000600FA000CD8BF000080FB00C2
:102AF0006101B9001207980023079800C001200067
:102B0000010020001E019000AE019000800F5100D6
:102B1000818F5900F2003E001E009000AE00900030
:102B2000006001002A0037004E0037001A0037000D
:102B30001900370022003700CC003700E8003700CA
:102B4000E7003700E6003700E5003700E400370013
:102B5000E3003700E2003700E1003700E000370013
:102B6000DF003700DE003700DD003700DC00370013
:102B7000DB003700DA003700D9003700D800370013
:102B8000D700370064003700AC003700B5003700CD
:102B9000D3003700D40037000CD8BF00E34F5000FB
:102BA00002003A00607CA80001003700607CA900A8
:102BB000CAC2A900A0C0B30030190700CA0037007C
:102BC000CAC2A800B0C0B3002C190700C600370065
:102BD00080C08000E10F500008003A0010C0B30030
:102BE0002619070000C0EB00250107005AFCB700BA
:102BF0005ADCBF00410307001500370020C0B300B6
:102C00001E19070080C080003C03070030C0B300DD
:102C10001A1907000000EB00C0E288000800370026
:102C200000C0EB00160107003403070000C2B30028
:102C3000C3180700C0E280000000E800C0E288007E
:102C400081C08000C0E28000808F5000F4FF3E0011
:102C5000D0C0B300BA180700A0C0B300B81807006E
:102C6000A100370040C0B3000419070070C0800005
:102C70002203070080C08000E10F50000E003A00E0
:102C800070C08000FE0007005AFCB70060DCBF0087
:102C9000684060000004E0001A00320000C2B30087
:102CA000A718070010C0B300F41807005ADCBF00D3
:102CB0001203070013003700E0622F004F170700D0
:102CC00080C080000D03070050C0B300EB18070060
:102CD0000000EB00C0E288000600370070C08000F2
:102CE000E70007005AFCB700C0E280000000E800DF
:102CF000C0E2880081C08000C0E28000808F500068
:102D0000F6FF3E00D0C0B3008D180700A0C0B3008E
:102D10008B1807007400370020632F004D17070041
:102D20001200200041002000100020009215070032
:102D30000040E9000AF8B700E0C2B300CF1807006E
:102D40001200200021002000100020008A1507003A
:102D50000040E900614060006141600001C621005F
:102D600091407800E0CFB30000C0600002407000E6
:102D700060FCB700F0C2B300C018070022002000BA
:102D800021002000100020007B1507000040E90012
:102D900061406000614060000041400001C62100C8
:102DA00091407800D0CFB30000C0600002407000B6
:102DB00060FCB70000C3B300B01807001200200089
:102DC00021002000100020006B1507000040E900E2
:102DD00061406000614060004201DD0001C62100E9
:102DE00091407800B0CFB30000C060000240700096
:102DF00060FCB700E0C1B300A0180700120020007B
:102E000021002000100020005B1507000040EA00B0
:102E100061406000614060004601DD00B18021003A
:102E200091407800F0CBB30000C060000240700019
:102E30000BF8B7000B58A9002B003700607CA900E5
:102E40000AD8BF008080FB0000C421000080400041
:102E500010407800260007000040EB0087180700AC
:102E600021003700720007001F00370071C080008A
:102E7000010F78001E0178000200E000040032001B
:102E80009E017800E18F51000400320011003700EC
:102E9000A0662F00EF16070013003700C0682F0050
:102EA000EC16070012002000310020001000200066
:102EB000311507000040E9005AFCB700206C2F00D4
:102EC000E41607005ADCBF0011C0B3007A00070007
:102ED0000500370070C1B300681807000200370012
:102EE00080C1B300651807000080FA0000000600EA
:102EF0000200FA00004F780041E2A9000BD8BF00A1
:102F00000044B2000004E00004003200CEE2A80059
:102F1000CF02A800CEC2A80003003700CEE2A9006D
:102F2000CF02A900CEC2A900816A2000914078009A
:102F300000CEB30000C060007040B300A8E6B70048
:102F4000916C20009140780000CEB30000C060007A
:102F50007040B300C9E6B700816C20009140780052
:102F600000CEB30000C060000034A000C8E6B70087
:102F7000CAC2A800C8C2A900C902A900C8E2A80024
:102F8000C922A9001E80FB001012880042A2A800DE
:102F900060DCBF0061406000614060004601DD0010
:102FA0002124200091407800F0CBB30000C06000E5
:102FB0000240700042E2B70060DCBF000080FB000E
:102FC0000000D100614060006141600031242000B8
:102FD00091407800E0CFB30000C060000240700074
:102FE00043E2B70060DCBF000080FB004200DE006F
:102FF00061406000614060000041400031242000D9
:1030000091407800D0CFB30000C060000240700053
:1030100043E2B7000000EB00201288000000EB0044
:103020000012880041E2A8000080FA0000000600BB
:103030000000FA0041E2A900A8C6BF00F041B300B9
:10304000A8E6B700916C20009140780000CEB30054
:1030500000C06000C9E6B700816C20009140780094
:1030600000CEB30000C06000C8E6B700CEE2A90001
:10307000CF02A900CEC2A9000080FA00000006001D
:103080000200FA00004F78001E80FB00401288000A
:1030900085C0BF00644060000004E000FCFF320017
:1030A00040128000004F78008540A9001E80FB0080
:1030B0000080FA00000006000400FA002047980093
:1030C00031479800A8170700D9FF070061000700E3
:1030D0002E409000E14F500009003E00CAC2BF00E0
:1030E0000080FB004600DE00614060008080FB0045
:1030F0002E4090000080FB00808F50000A003A00B4
:1031000041C2BF0001C8B300014060000004E000FC
:103110000E003A0041E2A80061E2A800B0C5B30089
:10312000981707000900370041C2BF0001C8B3006B
:10313000014060000004E0000400320041E2A90008
:1031400061E2A900D0C5B3008E17070040C2BF00DE
:103150000042B2000004E00020003A0060C2BF005C
:103160000042B2000004E0001C003A00401280005F
:10317000004F78003E4090000004E0000300320061
:103180001E80FB002317070004003700C0C5B300F2
:103190007C1707001E4078007A1707004013800054
:1031A000004F780080C2B300761707003E409000C1
:1031B0000004E000030032001E80FB00151707002A
:1031C00004003700C0C5B3006E1707001E4078002A
:1031D0006C17070090C2B3006A17070040C2BF0017
:1031E0000044B2000004E00004003A0060C2BF00E6
:1031F0000044B2000004E0000200320040C2A90016
:1032000060C2A9007717070022C2BF0061406000BA
:103210000004E000AEFF320030118000004F780063
:10322000D0C0B30046170700A0C0B3004417070082
:10323000750007000AD8BF008080FB0000C4210091
:10324000008040001040780029FF07000080FA004D
:10325000000006000000FA00C8C2A800C902A800C9
:10326000C8E2A800C922A800816A20009140780025
:1032700000CEB30000C060009040B300A8E6B700E5
:10328000916A20009140780000CEB30000C0600039
:103290000034A000A9E6B700C16A20009140780080
:1032A00000CEB30000C060007040B300ACE6B700D1
:1032B000D16A20009140780000CEB30000C06000C9
:1032C0000034A000ADE6B7000AD8BF008080FB0044
:1032D00000C4210000804000104078000080FB0006
:1032E0001012880060DCBF00614060006140600037
:1032F0004601DD002124200091407800F0CBB3008E
:1033000000C060000240700042E2B70060DCBF0015
:103310000080FB000000D10061406000614160005E
:103320003124200091407800E0CFB30000C060005D
:103330000240700043E2B7000000EB00201288005A
:103340000000EB00001288000AD8BF008080FB005C
:1033500000C4210000804000104078000080FB0085
:103360001013880060DCBF006140600061406000B5
:103370004601DD002126200091407800F0CBB3000B
:1033800000C060000240700062E2B70060DCBF0075
:103390000080FB000000D1006140600061416000DE
:1033A0003126200091407800E0CFB30000C06000DB
:1033B0000240700063E2B7000000EB0020138800B9
:1033C0000000EB00001388000000EB0040128800B2
:1033D0000000EB00401388004322A9006322A900EB
:1033E0004362A80042A2A9006362A80062A2A900E9
:1033F00040C2A90060C2A9004402A8006402A8005B
:103400000080FA00000006000000FA0041E2A90076
:103410004362A90061E2A9006362A900A8C6BF00D7
:10342000F041B300A8E6B700A9C6BF00F041B30061
:10343000A9E6B700ACC6BF00F041B300ACE6B700E8
:10344000ADC6BF00F041B300ADE6B7000080FA00A2
:10345000000006000000FA00206E2F00671507002C
:103460000080FA00000006000400FA0010C0B3005B
:103470000AF8B700601CA900603CA800605CA900C5
:103480000BD8A8000AD8BF008080FB0040C42100F0
:10349000008040001040780095FE0700EDFF070017
:1034A0000000370022C2BF00614060000004E0005D
:1034B000FCFF3200301180005DFCB7005DDCBF0016
:1034C0000080FB004400DE005CFCB7005CDCBF0059
:1034D0000080FB00100798001E009000E30F5000D2
:1034E000860032001E009000E30F50000A003C00EE
:1034F0001E009000E10F5000550032001E009000A9
:10350000E10F50006F003C001E0090000000E00042
:103510000B003200C60037001E009000E60F50007E
:103520008A0032001E009000E80F50009700320021
:103530001E009000E40F50007F003200BC003700F6
:103540005DDCBF000080FB00000F78001E007800EB
:10355000E30F5000220032001E007800E30F5000FD
:103560000A003C001E007800E10F500013003200FA
:103570001E007800E10F500012003C001E00780091
:103580000000E0000B0032002E0037001E00780023
:10359000EE0F50001F0032001E007800EF0F5000A9
:1035A000220032001E007800ED0F500013003200A0
:1035B000240037009EFE0700A0003700A5FF07008B
:1035C000B8FF370060168000F1FB2F00010060009B
:1035D0006016880010C0B30059160700B1FF37000D
:1035E0006016800001042000010070006016880051
:1035F00010C0B30052160700AAFF37008040EB004E
:1036000020C0B300ACFE070010C0B3004C1607008A
:10361000A4FF37008040EB000040EB00A6FE07004F
:1036200010C0B300461607009EFF37008040EB0035
:1036300010C0B300A0FE070010C0B3004016070082
:1036400098FF37000040EB003D16070095FF37005C
:10365000D1C5210091407800F0C0B30000C06000E7
:103660005DFCB7005DDCBF000040E8005DFCB7001A
:1036700010C0B300321607000040EB005BFCB7003F
:103680000A00370022C2BF00614060000004E00071
:10369000FCFF32003011800079FE07002816070079
:1036A0005BDCBF000040E8005BFCB700B1C5210057
:1036B000914078005DDCBF0080CF5000F1FF390001
:1036C00078FF3700D1C5210091407800F0C0B300E9
:1036D00000C060005DFCB700E1C5210091407800AA
:1036E0005DDCBF0000C070005EFCB7005EDCBF00A8
:1036F00063FE0700121607006AFF3700E1C52100CC
:1037000091407800F0C0B30000C060005EFCB700DC
:103710005DDCBF000080FB004400DD0080407800DD
:103720005EDCBF0000C070005EFCB70010C0B300DC
:10373000031607005BFF37005DDCBF009B1F07001F
:1037400010C0B300FE15070056FF3700D1C5210099
:103750009140780070C0B30000C060005DFCB7000D
:103760005DDCBF000AF8B7000AD8BF008080FB000C
:1037700040C421000080400010407800DCFD0700BC
:1037800010C0B300EE15070046FF3700601CA9000B
:10379000603CA900605CA9000BD8A9005DDCBF00FB
:1037A0000080FB004200DE00610060000004E000D9
:1037B00001003200601CA8005DDCBF000080FB003F
:1037C0000000D100610060000004E0000100320050
:1037D000603CA8005DDCBF000080FB006100600071
:1037E0000004E00001003200605CA8005DDCBF0066
:1037F0000080FB004300DE000000A20061006000CA
:103800000004E000010032000BD8A8000AD8BF0075
:103810008080FB0040C42100008040001040780000
:10382000B3FD070010C0B300C51507001DFF37002A
:103830000040EB00C21507001AFF37000080FA00B5
:10384000000006000000FA000BD8A9000040EB00C1
:103850000AF8B7000B38A9000B18A9000B58A900EB
:103860000B78A9000B98A9000BB8A9000BF8A900C8
:103870000080FA00000006000000FA00C922A8003B
:10388000C902A800C8E2A800C8C2A800C8A2A8002F
:10389000CBC2A900C9C2A9000000EB0020C088006B
:1038A000E8FF0700C962A800C942A8000080FA002A
:1038B000000006000000FA0000D8BF000080FB00F6
:1038C0008000400000C1210000804000100078000E
:1038D000401188000000EB00001188002062A80061
:1038E0000000EB001011880021E2A8002342A8008C
:1038F0008560A9000080FA00000006000400FA00BC
:10390000004F780010C08000100798001E00900043
:10391000E10F50000D0032001E009000E10F50003A
:10392000070039001E009000E20F50000A0032002C
:103930001E009000E30F50000A0032000B00370019
:103940001E80FB001E150700080037001E4078008F
:10395000EA140700050037001E40780057140700DE
:10396000020037001E407800751507000080FA003D
:10397000000006000600FA00404798000040EB00F7
:10398000204798000E0037000000EB00000F780081
:1039900005003700A0CFB3000F0007001E0078001D
:1039A0000000E800000F78001E007800E30F5000D0
:1039B000F8FF36002E4090000040E80020479800B5
:1039C000AE4090004E40900080CF5000EEFF390096
:1039D0000080FA00000006000400FA00204798006A
:1039E0000040EB00004F780013003700000000009B
:1039F00000000000000000000000000000000000C7
:103A000000000000000000000000000000000000B6
:103A100000000000000000000000000000000000A6
:103A20000000000000000000000000001E407800C0
:103A30000040E800004F78009E4078002E40900043
:103A400080CF5000E9FF39000080FA000000060036
:103A50000600FA0032DCBF00E14F500030003A00AF
:103A600000C2B300361507000CD8BF00E34F50006A
:103A7000060032000CD8BF00E24F500003003200B5
:103A80000CD8BF00E44F50000F003A0070C0B300E4
:103A90007A150700D0C0B30029150700A0C0B300F5
:103AA0002715070033DCBF000004E00003003A00E4
:103AB00010C0B3002D1C07001700370010C0B30062
:103AC0007C010700140037000CD8BF00FC4F5000E9
:103AD00003003A0020312F00DE1307005C0137009D
:103AE00060C0B30065150700D0C0B300141507000F
:103AF000A0C0B3001215070033DCBF000004E000D3
:103B000003003A000040EB00181C070002003700D9
:103B10000040EB00670107000040EB0032FCB700FB
:103B20000CD8BF000080FB006101B90012079800AB
:103B300023079800C0012000010020001E01900012
:103B4000AE019000800F5100818F59003E013E0070
:103B50001E009000AE009000006001001C003700C5
:103B6000590037008A00370089003700910037007C
:103B7000CF003700340137003301370032013700FE
:103B800031013700300137002F0137002E01370097
:103B90002D0137002C0137002B0137002A01370097
:103BA0002901370028013700270137002601370097
:103BB0002501370024013700230137008600370034
:103BC000A4003700B30037001F0137002001370081
:103BD00080C08000E10F50000D003A0010C0B3001B
:103BE0002615070033DCBF000004E00003003A00A4
:103BF0009D1B070034FCB700020037004A01070094
:103C000034FCB70034DCBF003CFF07002B0037005A
:103C100020C0B3001915070080C0800037FF0700DF
:103C200030C0B300151507000000EB00B0E18800BC
:103C30001E003700B0E180000000E0000E003200FE
:103C400000C2B300BE14070060C0B3000B1507002C
:103C500000C2B300BA14070033DCBF000004E00068
:103C600003003A000040EB00C01B070002003700D1
:103C70000040EB000F01070033DCBF000004E00050
:103C800003003A00781B070034FCB700020037003D
:103C90002501070034FCB70034DCBF0017FF070024
:103CA000B0E180000000E800B0E1880081C0800041
:103CB000B0E18000808F5000DEFF3E0010C0B300F6
:103CC00032FCB700E200370040C0B300EB1407003D
:103CD00070C0800009FF070080C08000E10F500025
:103CE0000600360020322F004413070080C08000F9
:103CF00002FF070050C0B300E01407000000EB0013
:103D0000B0E188000F00370033DCBF000004E000A2
:103D100005003A0070C08000221B0700821B0700CC
:103D200034FCB7000400370070C08000F4000700C6
:103D3000D900070034FCB700B0E180000000E800C3
:103D4000B0E1880081C08000B0E18000808F500029
:103D5000EDFF3E0000C2B3007914070034DCBF0061
:103D60000004E00003003A0060C0B300C314070081
:103D70000200370070C0B300C0140700D0C0B30009
:103D80006F140700A0C0B3006D140700B000370027
:103D900033DCBF000004E00002003A00921A070082
:103DA00001003700AC00070080C0B300B314070067
:103DB000A700370033DCBF000004E00002003A0037
:103DC0009C1A070001003700AB00070090C0B30049
:103DD000AA1407009E0037000BD8A8000B98A80073
:103DE0000040EB0033FCB70033DCBF000004E00010
:103DF00009003A0010C3B300A0140700120020000D
:103E000031002000100020005B1107000040E90095
:103E10000AF8B7008E00370041C080003000230050
:103E2000808F500002003E0060322F00091307000F
:103E3000C0352F00071307001200200031002000BA
:103E4000100020004C1107000040E9000AF8B700FC
:103E50007F00370033DCBF000004E00009003A00B7
:103E6000C922A800C902A800CB02A900CB22A90040
:103E7000A18021009140780020C0B300261A0700DD
:103E800001003700B30007000040EB007B1407007F
:103E90006F0037000040EB0032FCB70033DCBF009E
:103EA000E14F50006A003A0007E2A90068003700BD
:103EB00071C08000010F78001E017800E10F5100F1
:103EC0000A0032009E017800E18F510004003900A1
:103ED0001E007800E20F50004B0032005700370000
:103EE00090382F00DB12070059003700F03B2F00FD
:103EF000D81207000000EB00B0E18800390037005D
:103F000033DCBF000004E00006003A00361A070068
:103F1000B0E18000A31A0700031B070034FCB700C0
:103F2000050037004C000700B0E180007400070076
:103F30005900070034FCB70034DCBF000004E00087
:103F40001F003A00B0E180006CFE070080C2B300A1
:103F5000FB130700B0E180000000D10067FE0700FE
:103F6000B0E180000000A200610060000004E000F9
:103F700003003200803F2F00A01207000C00370022
:103F800033DCBF000004E00004003A00B61A07006A
:103F900010C0B300F51A07000300370062000700E5
:103FA00010C0B30043000700B03F2F00931207007A
:103FB000E03F2F009112070000C2B300E01307009A
:103FC00033DCBF000004E00002003A00191A0700C9
:103FD0000100370028000700B0E180000000E80081
:103FE000B0E18800B1E18000F00F2000808F500028
:103FF000C3FF3600D0C0B300D1130700A0C0B30088
:10400000CF1307001200370033DCBF00E14F500030
:1040100001003A0007E2A90000402F008D120700BE
:1040200010C0B3008E00070033DCBF00E14F50002A
:1040300007003A00470007000500370070C1B300D1
:104040000E1407000200370080C1B3000B140700F4
:104050000080FA00000006000000FA000602A80036
:1040600006C2BF00614060000004E000FCFF3A00AF
:104070000080FA00000006000000FA000642A800D6
:1040800006C2BF00644060000004E000FCFF3A008C
:104090000080FA00000006000000FA0009C2BF001C
:1040A0000080FB004700DE000080FB000080FA007B
:1040B000000006000200FA00004F78009E407800E1
:1040C00061C06000614060004501DD0061202000AA
:1040D00091407800F0CDB30000C060000240700055
:1040E00006E2B7000682A80006C2BF00704060006A
:1040F0000004E000FCFF3A000080FA000000060027
:104100000200FA00004F78001E40780002E2B7007B
:1041100009C2BF000044B2000004E000FCFF3A0006
:104120000080FA00000006000200FA000662A80003
:1041300006C2BF00684060000004E000FCFF3A00D7
:1041400000C2BF00004F78001E80FB000080FA0014
:10415000000006000000FA000742A9000782A9003B
:104160000000EB00501088000000EB006010880099
:104170000702A9000AD8BF008080FB0000CA210006
:1041800000804000104078000080FB002010880074
:1041900007E2A8000080FA00000006000000FA0014
:1041A000C922A800C902A800CB02A900CB22A900FD
:1041B00062A0A80062C0A8008660A9003E3CA900D9
:1041C0000040EB003CFCB7003EDCBF000080FB0081
:1041D0004200DE006340600080407800CBC2BF0038
:1041E0000080FB000000D1006140600000C0700052
:1041F00063406000634060004201DD00E1C32100D4
:104200009140780030CFB30000C0600002407000E1
:104210003EFCB7003EDCBF000080FB004400DE0037
:104220006340600080407800CBC2BF006140600006
:1042300000C0700063406000634060004401DD0026
:10424000E1C3210091407800F0CCB30000C06000D1
:10425000024070003EFCB7000080FA00000006003B
:104260000400FA00204798003F130700CBFF070027
:10427000000037005B13070022C2BF0061406000EE
:104280000004E0000700320030118000004F780089
:10429000D0C0B3002A130700A0C0B3002813070042
:1042A0009E00370086C0BF00684060000004E00048
:1042B000F0FF32008660A9003EDCBF000080FB00FA
:1042C0004200DE006340600080407800CBC2BF0047
:1042D0000080FB000000D1006140600000C0700061
:1042E00063406000634060004201DD00E1C32100E3
:1042F0009140780030CFB30000C0600002407000F1
:104300003EFCB7003EDCBF000080FB004400DE0046
:104310006340600080407800CBC2BF006140600015
:1043200000C0700063406000634060004401DD0035
:10433000E1C3210091407800F0CCB30000C06000E0
:10434000024070003EFCB7003EDCBF0062406000EF
:104350000004E0003B0032003EDCBF000043B2003E
:10436000F04F500037003A003CDCBF00E74F5000F0
:1043700012003E003DDCBF00004040003DFCB700A5
:104380003DDCBF00004178003EDCBF000080FB0048
:104390004200DE006340600080407800D0CFB30070
:1043A00000C06000004071003DFCB7003CDCBF0075
:1043B0000040E8003CFCB7003B003700CBC2BF0028
:1043C0000080FB000000D10061406000614160009E
:1043D000E1C3210091407800E0CFB30000C060004D
:1043E000024070003EFCB7002E4090000004E00048
:1043F000040032003DDCBF000080FB008512070096
:1044000004003700C0C5B300DE1207003DDCBF006A
:10441000DC1207003EDCBF00614060000004E000E9
:1044200003003200D0C2B300D612070002003700EA
:10443000B0C2B300D31207000040EB003CFCB70051
:10444000190037003EDCBF0002C3B30082406000A9
:1044500000C3B30080CF500013003A003EDCBF0021
:104460006C406000E84F500006003A003E3CA80057
:104470000040EB003CFCB700B0C5B300C112070020
:10448000090037003EDCBF006C406000E44F500084
:1044900005003A003E3CA9000040EB003CFCB700A0
:1044A000D0C5B300B71207003EDCBF000080FB00A0
:1044B0004200DE0063406000004040006340600056
:1044C000634060004201DD00E1C3210091407800BB
:1044D00030CFB30000C06000024070003EFCB70067
:1044E0003EDCBF000080FB004400DE006340600053
:1044F0000040400063406000634060004401DD0014
:10450000E1C3210091407800F0CCB30000C060000E
:10451000024070003EFCB70056FF37000080FA00F2
:10452000000006000000FA0070422F00331107005F
:104530000080FA00000006000400FA00C922A8006A
:10454000C902A800CB02A900CB22A900C8C2A900B9
:104550000BD8A8000B78A90011C0B30020C0B3008D
:104560006D180700EFFF07000000370022C2BF00F0
:10457000614060000004E000FCFF32003011800068
:104580003AFCB7003ADCBF000080FB004400DE00CC
:1045900039FCB70039DCBF000080FB001007980031
:1045A0001E009000E10F5000510032001E009000EC
:1045B000E10F500004003C001E0090000000E000ED
:1045C00008003200790037001E009000E40F500010
:1045D000710032001E009000E60F500062003200B1
:1045E000720037003ADCBF000080FB00000F78004B
:1045F0001E007800E30F5000240032001E007800F7
:10460000E30F50000A003C001E007800E10F50004C
:10461000180032001E007800E10F500017003C0027
:104620001E0078000000E000630032002D0037001B
:104630001E007800E60F50001B0032001E007800BC
:10464000E60F500004003C001E007800E40F50000C
:1046500012003200230037001E007800E70F5000E0
:10466000160032001E007800EF0F500018003200D4
:104670001C003700ABFF0700BCFF37005A180700CB
:1046800010C0B3002E120700B8FF370069180700EA
:1046900010C0B3002A120700B4FF3700F218070059
:1046A00027120700B1FF37000040EB002F19070069
:1046B00010C0B30022120700ACFF370010C0B300D7
:1046C0002A19070010C0B3001D120700A7FF37000A
:1046D0000040EB00E2FE070010C0B3001812070014
:1046E000A2FF37000040EB00151207009FFF3700C4
:1046F000A1C3210091407800F0C0B30000C0600069
:104700003AFCB7003ADCBF000040E8003AFCB700D2
:1047100010C0B3000A1207000040EB0038FCB700DD
:104720000B00370022C2BF00614060000004E000BF
:10473000FCFF3200301180009A180700FA180700B9
:10474000FF11070038DCBF000040E80038FCB7006C
:1047500081C32100914078003ADCBF0080CF500037
:10476000F0FF390081FF3700A1C32100914078009C
:1047700010C0B30000C060003AFCB700A1C3210024
:104780009140780020C0B300E317070010C0B300C9
:10479000EB11070075FF37003ADCBF00831B0700F1
:1047A00010C0B300E611070070FF37000040EB00B7
:1047B000E31107006DFF37000080FA0000000600DB
:1047C0000600FA000CD8BF000080FB006101B900B0
:1047D0001207980023079800C00120000100200064
:1047E0001E019000AE019000800F5100818F590092
:1047F00034013E001E009000AE00900000600100F9
:1048000050003700720037003E0037004300370089
:1048100048003700BE003700900037009A0037008C
:10482000A4003700AA003700AD003700B000370001
:10483000B300370023013700220137002101370080
:10484000200137001F0137001E0137001D0137000E
:104850001C0137001B0137001A013700190137000E
:104860000400370023003700180137001501370016
:1048700016013700E0C1B30000120700120020004B
:104880002100200010002000BB0E07000040E900BE
:104890006140600061416000A1C621009140780044
:1048A000E0CFB30000C06000024070006AFCB700B7
:1048B0006ADCBF006140600000417800024078007F
:1048C0000080EA008180EA00614060006140600091
:1048D0004601DD00B180210091407800F0CBB300AB
:1048E00000C06000024070000BF8B7000B58A80031
:1048F000F6003700860107000040EB00DF110700DB
:10490000F2003700F300070020C0B30043010700A6
:1049100080BC2E004F100700EC003700ED000700B0
:1049200030C0B3003D01070020BF2E004910070032
:10493000E6003700E7000700A0C12E004510070081
:10494000E200370080C08000E10F500007003A000D
:10495000E001070068FCB70010C0B300C7110700F2
:1049600068DCBF00E5FB07001400370020C0B3007F
:10497000C211070080C08000E0FB070030C0B30018
:10498000BE1107000000EB0030E38800070037008D
:10499000D0010700D9FB070000C2B300681107006F
:1049A00030E380000000E80030E3880081C0800030
:1049B00030E38000808F5000F5FF3E00D0C0B30090
:1049C0005F110700A0C0B3005D110700BF003700F2
:1049D00040C0B300A911070070C08000C7FB0700EA
:1049E00080C08000E10F500004003A0070C08000D9
:1049F0005201070068FCB7001300370070C22E0098
:104A0000FE0F070080C08000BCFB070050C0B30051
:104A10009A1107000000EB0030E388000600370021
:104A200070C080004501070068FCB70030E38000DB
:104A30000000E80030E3880081C0800030E380009F
:104A4000808F5000F6FF3E00D0C0B3003C1107003D
:104A5000A0C0B3003A1107009C003700E101070035
:104A600068FCB700D0C0B3008411070068DCBF0049
:104A7000DB0F0700D0C0B30031110700A0C0B300A6
:104A80002F11070091003700E0C0B3007B11070031
:104A9000DE01070068FCB70068DCBF00D00F07002C
:104AA000D0C0B30026110700A0C0B3002411070036
:104AB0008600370080C0800090FB070000C1B30073
:104AC0006E11070080C08000FC0107007F003700E6
:104AD00010C1B30069110700050207007B00370011
:104AE00020C1B300651107001D02070077003700E1
:104AF00030C1B30061110700CB010700730037001C
:104B000040C1B3005D110700E50107006F003700E9
:104B100071C08000010F78001E017800E10F510084
:104B20000D0032009E017800E18F5100070039002E
:104B30001E007800E20F50000C0032009E0078004A
:104B4000E38F5000550032005B003700B0C22E00EA
:104B5000AA0F07005D003700A700070080C72E00DE
:104B6000BC0F07005B0007005800370060C82E002C
:104B7000B80F0700A000070080C72E00B50F070080
:104B8000A90107005300070020C0B300A3000700DD
:104B900000C0EB00C901070000C0EB00C70107001F
:104BA0004C00070030C0B3009C0007000000EB0081
:104BB00030E388000700370030E380000000E800A1
:104BC00030E3880031E38000900F2000808F500098
:104BD00003003E00830107000004E000F6FF3200FE
:104BE0003C0007008400070080C72E00990F0700D3
:104BF0003800070030C0B3008800070030E38000B1
:104C00003EFB070060C92E00920F07000040EB003A
:104C100068FCB7001A00370068DCBF000040E800FD
:104C200036FB0700F0CA2E00740F070029010700A9
:104C300032FB070000C2B300C110070025010700C6
:104C40002EFB070000C2B300BD10070021010700C2
:104C50002AFB070000C2B300B91007001D010700BE
:104C600026FB0700D0C0B300B5100700A0C0B300FA
:104C7000B310070068DCBF000040E80068FCB70024
:104C800068DCBF008080FB0030E38000808F500034
:104C9000E1FF39000F0007000C00370030CB2E0079
:104CA0006C0F070060CF2E006A0F0700B0D22E00F5
:104CB000680F07000500370070C1B300EF10070050
:104CC0000200370080C1B300EC1007000080FA003A
:104CD000000006000200FA0060D52E00470F070012
:104CE00062DCBF000080FB00000F78001E0078002F
:104CF000E10F50000E0032001E007800E10F50005E
:104D000004003C001E0078000000E0000B003200B0
:104D1000350037001E007800E20F50000F0032000F
:104D20001E007800E30F5000240032002E003700F0
:104D3000F0D52E00470F07002D003700AD0107000A
:104D400010C0B3005D01070010C0B30062FCB700E3
:104D5000C0D62E003F0F07002500370063DCBF00E0
:104D6000E14F50000A003A0064DCBF00E14F500000
:104D700002003A002C01070001003700480107003B
:104D80000040EB0063FCB70080D72E001B0F07002C
:104D90007A01070020C0B300480107009501070011
:104DA00010C0B3004501070010C0B30062FCB7009B
:104DB000D0D82E00270F07000D0037006F01070025
:104DC00020C0B3003D0107008A01070010C0B300F6
:104DD0003A01070010C0B30062FCB70060D92E0092
:104DE0001C0F070002003700F0D92E00190F070032
:104DF0000080FA00000006000000FA005F010700D2
:104E0000A0C0B3002D0107007A0107000040EB00AD
:104E100062FCB7000080FA00000006000400FA00FF
:104E2000004F780062DCBF00E14F5000020032000A
:104E3000D0DA2E00070F070060D52E00EF0E070016
:104E40001E80FB00100798001E009000E10F50002C
:104E50000E0032001E009000E10F500004003C00E4
:104E60001E0090000000E0000B003200240037001C
:104E70001E009000E20F5000160032001E0090004D
:104E8000E30F5000080032001D003700F0D52E005F
:104E9000F00E07001C003700D7FF070090DC2E0043
:104EA000EC0E0700180037003401070010C0B300F3
:104EB000020107004F01070020C0B300FF000700F8
:104EC00030C0B30062FCB700F0DC2E00E10E07003A
:104ED0000D0037002901070020C0B300F7000700CC
:104EE0004401070020C0B300F400070020C0B30055
:104EF00062FCB70030DE2E00D60E0700020037003D
:104F000080E12E00D30E07000080FA0000000600AA
:104F10000000FA00C8E2A800C902A900C922A9003D
:104F2000C8C2A900CAE2A900CB02A900CB22A900ED
:104F3000CAC2A9000080FA00000006000800FA00BA
:104F4000404798000601070063DCBF00E14F5000B6
:104F500006003A0064DCBF00910007000040EB004F
:104F600063FCB70020E32E00BA0E07000BD8BF0089
:104F7000684060000004E0000300320010C0B3008D
:104F8000004F78000200370000C8B300004F7800DF
:104F90000040EB0030479800450037004E4090003D
:104FA0001E4060000004E00002003A00BC00070060
:104FB000010037009C000700CD000700CAC2BF00F7
:104FC0000080FB004700DE00204798000BD8BF00A0
:104FD000684060000004E000100032004E40900085
:104FE0000080FB000000D100404798001E40900068
:104FF0000080FB000000D100104798002E40900078
:10500000E14F500011003A001E40900001C8B3006B
:1050100001404000104798000C0037004E409000BF
:1050200000404000404798001E4090000040400073
:10503000104798002E409000E14F500003003A00C6
:105040001E4090000040E80010479800C400070090
:1050500062DCBF00E24F500012003A003E40900078
:10506000E64F50000F003A0010C0B30063FCB700D9
:105070004E4090001E4060000004E00003003A0033
:105080000040EB0064FCB7000200370010C0B30022
:1050900064FCB7001E4090000080FB0030079800C1
:1050A000090037003E4090000040E800304798007B
:1050B0003E409000E74F5000B8FF36001E40900081
:1050C0000080FB00300798003E0090000080FA004E
:1050D000000006000400FA00A100070063DCBF0026
:1050E000E14F500006003A0064DCBF002C000700CE
:1050F0000040EB0063FCB70020E32E00550E0700D4
:105100000040EB00204798001F00370078000700A0
:10511000CAC2BF000080FB004700DE0010479800B5
:105120000BD8BF00684060000004E00008003A00AF
:105130001E40780000404000004F78001E40900064
:105140000004E0000C0032001E4FE8000A003700A7
:105150001E80FB000000D100004F78001E40900030
:105160000004E000040032001E40780001C8B300D3
:1051700001404000004F7800790007002E40900069
:105180000040E800204798002E409000E74F500074
:10519000DEFF36001E80FB000080FA0000000600E3
:1051A0000400FA00204798002E4090000004E00020
:1051B00002003A003A000700010037001A00070019
:1051C0004B000700CAC2BF000080FB004700DE00A2
:1051D000004F7800620007001E80FB000080FA008C
:1051E000000006000200FA0041000700CAC2BF002A
:1051F0000080FB004700DE00004F780058000700E9
:105200001E80FB000080FA00000006000000FA008B
:10521000CAC2BF000080FB004700DE000080FB0028
:105220000080FA00000006000000FA006ADCBF00FF
:105230006140600000417800024078000080EA0090
:105240008180EA00614060006140600000414000F0
:10525000912C200091407800D0CFB30000C06000B6
:1052600002407000C9E2B7006ADCBF006140600024
:105270006140600000414000B12C20009140780066
:10528000D0CFB30000C0600002407000CBE2B70096
:1052900040C1B300D0F907000080FA00000006000A
:1052A0000000FA00CB22A900C922A90040C1B30026
:1052B000C9F907000080FA00000006000400FA00A7
:1052C000204798000040EB00004F780003003700B3
:1052D00007000700220007001E4FE8002E40900044
:1052E0009E4F1000FAFF39000080FA00000006000F
:1052F0000000FA006ADCBF006140600000417800F5
:10530000024078000080EA008180EA00614060008D
:1053100061416000912C200091407800E0CFB30003
:1053200000C0600002407000C9E2B7006ADCBF0044
:105330006140600061416000B12C20009140780024
:10534000E0CFB30000C0600002407000CBE2B700C5
:1053500040C6B300A0F907000080FA000000060074
:105360000000FA00CB02A900C902A90040C6B300A0
:1053700099F907000080FA00000006000000FA001A
:105380006ADCBF00614060000041780002407800A4
:105390000080EA008180EA006140600061406000B6
:1053A0004601DD00812C200091407800F0CBB30055
:1053B00000C0600002407000C8E2B7006ADCBF00B5
:1053C00061406000614060004601DD00A12C2000CA
:1053D00091407800F0CBB30000C060000240700044
:1053E000CAE2B70040C1B3007BF907000080FA00B1
:1053F000000006000000FA00CAC2A900C8C2A90045
:1054000040C1B30074F907000080FA0000000600F4
:105410000200FA00F0C2B300104798000040EB0011
:10542000004F7800C922A800CB22A900C922A900F8
:1054300005003700A0C0B30067F907001E409000C8
:105440000040E900104798001E4090000004E00072
:10545000F8FF3C00C922A800C0C3B3005EF90700F2
:10546000CBC2BF000080FB000000D10061406000A3
:10547000A4FCB70090C2B3001047980005003700A5
:10548000A0C0B30054F907001E4090000040E9009E
:10549000104798001E4090000004E000F8FF3C0018
:1054A000CBC2BF000080FB000000D1006140600063
:1054B000A5FCB700A5DCBF000004E00002003A0034
:1054C00010C0B300004F7800A4DCBF00E14F5000D3
:1054D00003003A001E40780000C0E800004F78004A
:1054E000A0C0B3003CF907001E80FB000080FA005A
:1054F000000006000400FA002047980080C0B300B6
:10550000004F78001D0037002E4090006140600081
:10551000A6FCB700CB22A900C922A90050C0B30045
:105520002DF90700A6DCBF0061406000614060000B
:1055300000414000912C200091407800D0CFB30072
:1055400000C0600002407000C9E2B70020C3B30091
:1055500021F9070050C0B3001FF90700C922A800B5
:10556000A0C0B3001CF907002E4090000080FB0093
:105570000000D100204798001E4FE9001E04E00003
:10558000E1FF3C00A0C0B30013F907000080FA005F
:10559000000006000200FA00004F7800CB22A900AC
:1055A000C922A90050C0B3000BF907009E40780043
:1055B00061C060006140600000414000912C20000B
:1055C00091407800D0CFB30000C06000024070006E
:1055D000C9E2B70020C3B300FFF8070050C0B30012
:1055E000FDF80700C922A800A0C0B300FAF8070020
:1055F0000080FA00000006000200FA0080C0B3003C
:10560000104798000040EB00004F78001D00370065
:10561000CB22A900C922A90030C0B300EEF80700D0
:10562000C922A80050C0B300EBF80700CBC2BF00EE
:105630000080FB000000D10061406000A6FCB700C4
:1056400040C3B300E4F807001E80FB000000D10057
:10565000004F7800A6DCBF00E14F500004003A0084
:105660001E40780001C8B30001404000004F7800A0
:10567000A0C0B300D8F807001E4090000040E90029
:10568000104798001E4090000004E000E0FF3C003E
:10569000A0C0B300D0F807001E80FB000080FA0015
:1056A000000006000000FA00CB22A900C922A900D0
:1056B00030C0B300C8F80700C922A80050C0B3002A
:1056C000C5F80700CBC2BF000080FB000000D1007E
:1056D00061406000A6FCB70040C3B300BEF80700FD
:1056E000A0C0B300BCF80700A6DCBF000080FB0030
:1056F0000080FA00000006000800FA002007980069
:10570000310798000040EB00004F78000000EB00EC
:10571000100798000D0037001E00900080007800F0
:105720002E00900000804000104078001E4068006D
:105730008080FB00E0522F0000804000104F780076
:105740001E0090000000E800100798009E009000E6
:105750003E009000808F5000EFFF35001E80FB0060
:105760000080FA00000006000600FA00881F78009A
:105770000CD8BF000080FB006101B900120798003F
:1057800023079800C0012000010020001E019000A6
:10579000AE019000800F5100818F5900C3013E007F
:1057A0001E009000AE009000006001001C00370059
:1057B00040003700600037005F003700BB01370052
:1057C0009F0037005E003700B801370065003700E2
:1057D000B6013700B5013700770037007600370093
:1057E000B2013700B1013700B0013700AF01370017
:1057F000AE013700AD013700AC013700AB01370017
:10580000AA013700A9013700A80137007D00370041
:1058100080003700A7013700A4013700A501370039
:1058200080C08000E10F500007003A0010C0B300B4
:10583000120E070070FF07005BFBB7005BDBBF00C9
:105840002EF807001600370020C0B3000B0E07002B
:1058500080C0800029F8070030C0B300070E0700A1
:105860000000EB00C0DA88000900370062FF070083
:105870005BFBB7005BDBBF0020F8070000C2B30092
:10588000AF0D0700C0DA80000000E800C0DA880031
:1058900081C08000C0DA8000808F5000F3FF3E009E
:1058A000D0C0B300A60D0700A0C0B300A40D070030
:1058B0008001370040C0B300F00D070070C08000C9
:1058C0000EF8070080C08000E10F500003003A008E
:1058D00070C0800007FF07001200370000892E000B
:1058E000460C070080C0800004F8070050C0B300D9
:1058F000E20D07000000EB00C0DA88000500370069
:1059000070C08000FBFE0700C0DA80000000E800E5
:10591000C0DA880081C08000C0DA8000808F50002B
:10592000F7FF3E00D0C0B300850D0700A0C0B30054
:10593000830D07005F013700610107005D0137003B
:1059400058FF07005BFBB700D0C0B300CB0D0700CA
:105950005BDBBF00220C0700F0C0B300C70D0700DF
:105960005401370080C08000E4F7070040892E0012
:10597000220C07000000EB00C0DA880005003700A9
:105980004EDBBF0003FF0700C0DA80000000E80024
:10599000C0DA880081C08000C0DA8000808F5000AB
:1059A000F7FF3E004EDBBF000D0C0700408A2E00C3
:1059B000280C07003F013700608A2E000F0C0700FB
:1059C0000CD8BF00EC4F500005003A000040EB003F
:1059D0004EFBB7000040EB00010C0700040037004D
:1059E00010C0B3004EFBB70010C0B300FC0B0700A3
:1059F000208B2E00170C07004EDBBF00E5FE0700D2
:105A00002C0137000B58A9000B98A8000BD8A80050
:105A1000280137000040EB0060FBB700C922A80056
:105A2000CB22A900D08D2E000A0C0700E0902E009A
:105A3000080C07000040EB00900D07001D01370027
:105A400070C080000000E0003600320071C08000AD
:105A500020032000808F500032003E0070C0800084
:105A60000000E90070C0880071C0800060DBBF00EA
:105A70000080FB00808F50000300390080932E00CF
:105A8000F40B07000B01370020962E00DB0B0700FC
:105A900070C080000040E800980C070010972E00AE
:105AA000D60B07000040EB005AFBB7001700370089
:105AB00072C080005ADBBF008080FB004310DD0015
:105AC0008100400010B621000080400010407800A6
:105AD0008AF7070000C2B300190D070072C08000EA
:105AE0005ADBBF008080FB004310DD0081004000D6
:105AF00010B6210000804000104078007DFE0700B5
:105B00005ADBBF000040E8005AFBB7005ADBBF0079
:105B1000E74F5000E6FF360040972E00CD0B070000
:105B2000E400370071C08000010F780050052000AC
:105B30001E017800800F5100CD003200500520007A
:105B40009E017800808F510008003E001E00780002
:105B50000000E00012003200300320009E007800B8
:105B6000808F5000A0003200CD003700C00E200012
:105B70001E017800800F510046003200000F200007
:105B80009E017800808F510042003200C00C20003E
:105B90009E007800808F5000BB003200C0003700AC
:105BA00060972E00AB0B070040982E00A90B070052
:105BB00060DBBF000004E00003003A0080932E0089
:105BC000A40B0700300037000040EB005BFBB70080
:105BD0002800370000C2B300D90C07005BDBBF0010
:105BE0000040E800450C0700C0992E00830B070019
:105BF0000040EB005AFBB7000F0037005BDBBF0033
:105C00000081FB005ADBBF008080FB004310DD00F9
:105C10008100400010B62100008040001040780054
:105C200036F7070000C2B300C50C07005ADBBF00FF
:105C30000040E8005AFBB7005ADBBF00E74F5000B6
:105C4000EEFF3600E0992E006C0B07005BDBBF0017
:105C50000080FB00C300DD0010B621000080400082
:105C600010407800B70007005BDBBF000040E80091
:105C70005BFBB70001B62100914078005BDBBF0001
:105C800080CF5000D3FF3E00509A2E00710B0700CA
:105C90008800370070C08000A2F9B70071C0800092
:105CA000C00E2000808F500003003A0090A72E0005
:105CB000680B070002003700D0A82E00650B070014
:105CC00040982E00630B07000040EB005AFBB70022
:105CD000CB0007005BFBB7000040EB0060FBB700A8
:105CE0003B00370000C2B300950C07005ADBBF0031
:105CF0000040E800010C0700C0992E003F0B070090
:105D00000000EB00C0DA88000A003700C1DA80002A
:105D100010BB21000080400010407800F7F607001B
:105D200000C2B300860C0700C0DA80000000E80063
:105D3000C0DA8800C0DA8000E70F5000F3FF3600B9
:105D4000E0992E002D0B0700B1DBBF007D0007009E
:105D50005ADBBF00E94F500018003E000000EB0086
:105D6000C0DA88000F00370060DBBF008081FB00D5
:105D7000C4DA8000C1DA800010BB2100008040003E
:105D8000104178004318DD008400400010B6210067
:105D90000080400002487800C0DA80000000E8007F
:105DA000C0DA8800C0DA8000E70F5000EEFF36004E
:105DB00060DBBF000040E80060FBB7005ADBBF00BB
:105DC0000040E8005AFBB700980007005BFBB700F3
:105DD0005BDBBF000004E000C2FF3A00B0A92E0068
:105DE0001C0B0700330037003500070070AC2E0095
:105DF000020B070030C3B300BEFD07000000EB003C
:105E0000C0DA880010003700C8DA8000FAFD070009
:105E100080407800F0B42100000044000148780080
:105E2000C1DA8000F0B4210000804000104078000A
:105E3000B2F6070000C2B300410C0700C0DA8000D0
:105E40000000E800C0DA8800C0DA8000E70F5000E8
:105E5000EDFF3600D0C0B300390C0700A0C0B3007E
:105E6000370C07004FDBBF0036000700110037007A
:105E70001300070090AD2E00F60A070050C5B300CE
:105E80009CFD07000B0037000D000700A0AE2E00A0
:105E9000F00A0700C0CCB30096FD070005003700EC
:105EA00070C1B300750C07000200370080C1B30059
:105EB000720C07004F0478000080FA000000060012
:105EC0000200FA0052FD0700004F7800A0AF2E003C
:105ED000CA0A07001E04E00003003A0050B02E007A
:105EE000DC0A07001500370080B02E00C30A070047
:105EF0001E80FB00610060000004E0000200320030
:105F000000B12E00BD0A07001E80FB000000D1007A
:105F1000610060000004E0000200320060B22E0068
:105F2000B60A0700B0B32E00B40A07001E4078007E
:105F300072F60700408A2E00C60A07000080FA00A9
:105F4000000006000400FA00004F78001E80FB00ED
:105F500010079800200220009E009000808F5000C3
:105F60001A003200200220009E009000808F500016
:105F700007003C001E009000E40F500016003200A5
:105F80009E009000F08F50000A0032001800370089
:105F9000800220009E009000808F50000800320098
:105FA000D00220009E009000808F50000D00320033
:105FB0000F003700D0B32E00A60A07000E003700EE
:105FC00090B52E00A30A07000B00370040B72E0043
:105FD000A00A070008003700A0B82E009D0A07009D
:105FE0000500370030BA2E009A0A07000200370079
:105FF00040BB2E00970A07000080FA000000060050
:106000000000FA000040EB00B9FBB7000040EB00D5
:10601000BBFBB7000040EB00BAFBB700080007006D
:106020000080FB000080FA00000006000000FA007B
:10603000030007000080FB000080FA00000006005B
:106040000A00FA0010C0B300704798000040EB004F
:10605000604798000040EB005047980010C0B30024
:10606000104798000040EB00404798000040EB00CC
:10607000BCFBB700BBDBBF000004E0008D003A00B2
:10608000E3FC07000004E000090032000040EB00E0
:10609000B9FBB7000040EB00BBFBB7000040EB00D2
:1060A000BAFBB7000000EB004007980092003700F1
:1060B000A2D9BF000FFD07007AFD07003047980006
:1060C00078FD0700204798003E409000E14F5000C7
:1060D00003003A002E409000E14F5000650032006E
:1060E000BE4090002E40900080CF50000300320050
:1060F0003E409000004F78002400370091BB210003
:10610000914078007E409000814F50000E00310099
:106110005E4090008080FB0010BB210000804000AA
:10612000904078001E40900080C060000040EB006E
:10613000004F78000104E0000B00320010C0B300F3
:10614000004F780008003700B9DBBF008040EB004B
:10615000014F7800FE40900080CF500002003A00CE
:1061600010C0B300004F78001E04E00007003A00A2
:106170007E409000604798006E409000E84F5000CD
:1061800002003E006E409000BAFBB70010C0B300A2
:106190009E4F10000D003A005E4090000081FB0011
:1061A0005E4090008080FB0010BB2100008040001A
:1061B000904078001E40900080C0700010BB21000D
:1061C0000000410001487800110037005E40900057
:1061D0000082FB005E4090008080FB0010BB21002D
:1061E0000080400010407800804178001E419000FF
:1061F000024078000080EA008180EA0000C061006F
:106200008040780010BB2100000042000148780067
:106210001E407800DFFC07007E4090000040E80050
:10622000704798001E4090000040400010479800C2
:106230001E4090000004E0000B003A005E40900019
:106240008080FB0010BB21000080400010407800DF
:10625000840007005E4090000040E800504798002E
:1062600010C0B300104798005E409000E74F500008
:1062700091FF3600FE40900000C4B30080CF500074
:106280000C003600BCDBBF000004E00009003A004F
:106290006E409000B9FBB700B9DBBF000004E0001E
:1062A00002003A0010C0B300BBFBB70010C0B3003F
:1062B000404798004E4090000004E0000300320088
:1062C000B1DBBF000004E00008003A000040EB0032
:1062D000B9FBB7000040EB00BBFBB7000040EB0090
:1062E000BAFBB7000040EB00404798004E409000DA
:1062F0000080FB00400798004E0090000080FA00EC
:10630000000006000E00FA000040EB004047980035
:106310000C0037004E4090000081FB004E40900082
:106320008080FB0010BB210000804000904078007E
:1063300065004700017178004E4090000040E80081
:10634000404798004E409000E74F5000F1FF360064
:10635000B9DBBF0020479800BBDBBF0010479800A7
:10636000BADBBF00004F780000C4B300B9FBB70030
:106370000040EB00BBFBB70031FF07000004E0006A
:106380001A00320010C0B300304798000040EB0004
:1063900040479800110037004E4090008080FB007D
:1063A00065004700614178004E4090008080FB000E
:1063B00010BB21000080400010407800804F510049
:1063C000030032000040EB0030479800090037001E
:1063D0004E4090000040E800404798004E4090003A
:1063E000E74F5000ECFF3600020037000040EB00A2
:1063F000304798000040EB00404798000C00370001
:106400004E4090000081FB004E4090008080FB00D9
:1064100065004700E140780010BB2100000041000A
:10642000014878004E4090000040E8004047980046
:106430004E409000E74F5000F1FF36002E40900094
:10644000B9FBB7001E409000BBFBB7001E407800B0
:10645000BAFBB7003E4090000080FB000080FA00CD
:10646000000006000200FA00004F7800BCDBBF000D
:106470001E4068008080FB00309A210000804000B0
:1064800010407800BCFBB700BCDBBF000080FB0005
:106490000080FA00000006000000FA0030BC2E0068
:1064A000560907000080FA00000006000400FA0008
:1064B000C922A800CB22A900C8C2A9000BD8A800F5
:1064C0000B78A900F4FF07000000370022C2BF00CC
:1064D000614060000004E000FCFF320030118000E9
:1064E0005FFBB7005FDBBF000080FB004400DE0005
:1064F0005EFBB7005EDBBF000080FB00100798006A
:106500001E009000E10F50005B0032009E009000E2
:10651000E48F5000760032001E0090000000E00082
:1065200001003200770037005FDBBF000080FB0016
:10653000000F78009E007800E28F500017003200B4
:106540001E007800E20F500007003C009E0078001B
:106550000100E0006E0032001E007800E10F5000E4
:106560000C003200410037009E007800E48F50009C
:106570000E0032001E007800E40F50003B00350092
:106580009E00780068805000E10F500037003E0008
:1065900009003700C0FF0700CCFF370048FE0700A6
:1065A00010C0B300660A0700C8FF370012FC0700DE
:1065B000630A0700C5FF370010C0B300600A070078
:1065C0005FDBBF00E94F500003003A00C0CEB300CC
:1065D000A2F9B7000200370000CFB300A2F9B7005C
:1065E00087FE07005CFBB700110037000040EB009E
:1065F0005DFBB700090037005DDBBF008080FB005A
:1066000010BB210000804000104078004C0A0700B9
:106610005DDBBF000040E8005DFBB7005DDBBF0055
:10662000E74F5000F4FF360080FE07005CFBB70028
:106630005CDBBF000004E000ECFF3A000040EB0030
:106640005DFBB7000500370000C0EB003C0A070007
:106650005DDBBF000040E8005DFBB7005DDBBF0015
:10666000E74F5000F8FF360098FF37000040EB007E
:10667000330A070095FF3700F1B5210091407800FB
:10668000F0C0B30000C060005FFBB7005FDBBF007D
:106690000040E8005FFBB70010C0B300280A070005
:1066A0000040EB005DFBB7000B00370022C2BF00CB
:1066B000614060000004E000FCFF32003011800007
:1066C0008CFB070010C0B3001D0A07005DDBBF0094
:1066D0000040E8005DFBB700D1B521009140780093
:1066E0005FDBBF0080CF5000F0FF390077FF37003D
:1066F0005FDBBF00AD13070010C0B300100A070036
:1067000072FF37000040EB000D0A07006FFF3700F3
:106710000080FA00000006000400FA000CD8BF0058
:106720000080FB00100798001E009000F80F50003A
:10673000170032001E009000F80F50000A003C00C5
:106740001E009000E10F5000380032001E00900043
:10675000E50F50004F0032001E0090000000E000E6
:10676000110032006E0037001E009000FA0F50003A
:106770006D0032001E009000FA0F50000600350038
:106780001E009000FC0F50006700320064003700CC
:106790000BD8A800640037009D0007000040EB0004
:1067A000360A07006000370080C08000E10F50000B
:1067B00005003A0010C0B300300A07002F0107009F
:1067C0005B0007001400370020C0B3002B0A07004D
:1067D00080C0800049F4070030C0B300270A0700DA
:1067E0000000EB0000E488000700370023010700E9
:1067F0004F00070000C2B300D109070000E4800089
:106800000000E80000E4880081C0800000E480000F
:10681000808F5000F5FF3E00D0C0B300C8090700CC
:10682000A0C0B300C60907003F00370040C0B30056
:10683000120A070070C0800030F4070070C08000AA
:106840004C01070082FCB70082DCBF000004E000BE
:1068500003003A0060C0B300080A070008003700D0
:1068600082DCBF00E14F500003003A0070C0B3006B
:10687000020A070002003700806E2F005F08070041
:10688000D0C0B300AE090700A0C0B300AC09070038
:106890002500370070C08000000F78001E007800CF
:1068A0000000E000040032001E007800E10F5000FC
:1068B0000400320017003700506F2F0065080700F2
:1068C00019003700C0712F0062080700EB000700B5
:1068D0000004E00004003A0085DCBF0007F4070074
:1068E00000C2B3009609070022C2BF0061406000E9
:1068F0000004E000F5FF32003011800082FCB70098
:10690000D0C0B3008E090700A0C0B3008C090700F7
:106910000500370070C1B300D80907000200370036
:1069200080C1B300D50907000080FA00000006000E
:106930000400FA00004F78001E80FB00100798004A
:106940009E009000E28F50001D0032001E0090005B
:10695000E20F500007003C009E0090000100E000A4
:106960000F0032001E009000E10F500011003200B5
:10697000230037009E009000E48F50001A00320080
:106980001E009000E40F500012003500F00F2000B0
:106990009E009000808F50001600320018003700D3
:1069A00085DCBF00D5F3070000C2B300640907000F
:1069B0001500370090732F001008070012003700F1
:1069C00085DCBF00CDF30700A0742F000B08070083
:1069D0000D00370085DCBF00C8F3070090752F005D
:1069E0000608070008003700806E2F000308070024
:1069F0000500370090762F000008070002003700DE
:106A0000F0762F00FD0707000080FA000000060066
:106A10000000FA00C922A800C902A900CB02A900FF
:106A2000CB22A9000080FA00000006000400FA0052
:106A30000040EB002F0107000004E00003003200DB
:106A400020002000100798000E003700CBC2BF00C6
:106A50000080FB000000D10061406000004F780022
:106A600010C0B300230107000004E000030032005F
:106A70002000200010079800020037001E80FB0055
:106A8000100798001E0090000080FA000000060029
:106A90000600FA000040EB00204798000040EB00A1
:106AA00010479800CBC2BF000080FB000000D1005F
:106AB000614060006141600041C821009140780060
:106AC000E0CFB30000C060000240700084FCB7005B
:106AD00084DCBF00614060000004E000030032007D
:106AE00010002000200798006100370010C0B3009C
:106AF000000107000004E000030032004100200014
:106B0000210798005A0037000040EB0030479800FA
:106B1000190037001E4090000080FB000000D100EB
:106B200010479800C1FF0700004F780020C0B30055
:106B30009E4F100003003A004100200021079800FA
:106B40004B00370010C0B3009E4F100007003A0002
:106B50009E40900000C8B30000C04000104798005D
:106B60002E4090000004A200204798003E40900074
:106B70000040E800304798003E409000E74F50004A
:106B8000E4FF36001E40900085FCB700A7FF070019
:106B9000004F780021C0B3009ECF100003003A00E0
:106BA0004000200020079800310037009E40780008
:106BB00061C060006141600061C8210091407800BF
:106BC000E0CFB30000C060000240700086FCB70058
:106BD00086DCBF00614060008080FB002E4090009A
:106BE0000080FB00808F500004003A00865CA80003
:106BF00020002000200798001D003700865CA900B7
:106C00008AFF0700004F780021C0B3009ECF10001C
:106C100003003A00400020002007980014003700CD
:106C20009E40780061C0600061406000004140000B
:106C300061C8210091407800D0CFB30000C060004F
:106C40000240700086FCB700C902A90086DCBF00C4
:106C5000624060000004E00003003A0030002000C1
:106C600020079800020037008000EB002107980001
:106C70002E0090000080FA00000006000200FA00DA
:106C800000C0EB00004F7800C922A800C902A8008C
:106C90000040EB001047980010003700CBC2BF0047
:106CA000614060000004E00007003A0078FF070040
:106CB000004F78001E04E0000B00320040C0B3001B
:106CC0009E4F10000800320050C0B30042F307008E
:106CD0001E4090000040E800104798001E409000C1
:106CE000E14F4000EDFF3A00C902A9001E80FB0001
:106CF0000080FA00000006000400FA00004F78004F
:106D000010C0B3007B0007000004E0000300320065
:106D10002000200010079800130037009E407800E4
:106D200061C060006140600000414000912C200083
:106D300091407800D0CFB30000C0600002407000E6
:106D4000C9E2B7000040EB006A0007000004E00061
:106D500003003200200020001007980002003700D6
:106D60008000EB00110798001E0090000080FA00E0
:106D7000000006000800FA00404798000040EB00C1
:106D800020479800C902A900CB02A900C0C3B300E4
:106D900011F30700CB22A900C922A900C902A8004B
:106DA00010C0B3000CF307000040EB0051000700D7
:106DB0000004E0000300320040002000300798008B
:106DC000490037000000EB00000F78001C0037007E
:106DD0004E4090000080FB00610060000004E00075
:106DE0000B00320010C0B300C3FF07000004E00036
:106DF0000300320040002000300798003A003700BE
:106E00002E4090000004A2002047980007003700A1
:106E10000040EB00B8FF07000004E0000300320070
:106E200040002000300798002F0037004E409000AF
:106E30000080FB000000D100404798001E0FE800D2
:106E4000700020009E0F1000E1FF36002E409000E1
:106E50000004A200204798002E409000A6FF0700E3
:106E60000004E000030032004000200030079800DA
:106E70001D003700C922A800CB22A90010C0B30012
:106E80001C0007000004E000030032004000200066
:106E90003007980014003700E4FE0700E24F50006E
:106EA00003003A0040002000300798000E00370031
:106EB000DEFE07000080FB00000F780020002000AD
:106EC0009E0F100003003A00400020003007980099
:106ED00005003700C902A900CB02A9001E007800F6
:106EE0000080FB00300798003E0090000080FA0010
:106EF000000006000600FA00204798000080EB0022
:106F0000000F7800CBC2BF00614060008080FB00B2
:106F10002E4090000080FB00808F500003003A005C
:106F20000000EB0020079800050037001E0FE90065
:106F30001E00E000F3FF3A00100020002007980038
:106F40002E0090000080FA00000006001400FA00F5
:106F5000881F78000000EB00800888000000EB002C
:106F6000F00888000000EB00E00C880060E380007F
:106F7000E20F50000A003A00516C20009140780066
:106F800000CEB30000C06000C5E6B700C0422F00CD
:106F9000B00607000000EB0060E3880082003700C5
:106FA00090432F00AB06070060462F0093060700B2
:106FB0002203200001FA200040002000EE04070018
:106FC0003007980080472F008C0607003E00900095
:106FD000E30F500007003E0020482F009D060700E9
:106FE000E00320002007980010A1A8001081A8004D
:106FF0001B0037003E009000FE0F500007003E00CF
:1070000060482F0093060700A00F2000200798007B
:1070100010A1A8001081A90011003700BE00900047
:10702000400F2000808F500007003E0090482F0046
:1070300088060700007D20002007980010A1A90005
:107040001081A80006003700B0482F008106070015
:1070500000E823002007980010A1A9001081A900D2
:107060002E0090003E019000110009000280D8001F
:107070000000E90050079800D0482F005F06070085
:107080005E009000EE060700D0C0B300AC0707001A
